{
	"contracts/Bovine.sol": {
		"Bovine": {
			"abi": [
				{
					"inputs": [
						{
							"internalType": "string",
							"name": "_idOwner",
							"type": "string"
						},
						{
							"internalType": "int256",
							"name": "_idField",
							"type": "int256"
						},
						{
							"internalType": "int256",
							"name": "_serialNumber",
							"type": "int256"
						},
						{
							"internalType": "string",
							"name": "_birthDate",
							"type": "string"
						},
						{
							"internalType": "bool",
							"name": "_active",
							"type": "bool"
						},
						{
							"internalType": "string",
							"name": "_observation",
							"type": "string"
						},
						{
							"internalType": "int256",
							"name": "_idBovineParent1",
							"type": "int256"
						},
						{
							"internalType": "int256",
							"name": "_idBovineParent2",
							"type": "int256"
						},
						{
							"internalType": "bool",
							"name": "_gender",
							"type": "bool"
						}
					],
					"stateMutability": "nonpayable",
					"type": "constructor"
				},
				{
					"inputs": [],
					"name": "getActive",
					"outputs": [
						{
							"internalType": "bool",
							"name": "",
							"type": "bool"
						}
					],
					"stateMutability": "view",
					"type": "function"
				},
				{
					"inputs": [],
					"name": "getBirthDate",
					"outputs": [
						{
							"internalType": "string",
							"name": "",
							"type": "string"
						}
					],
					"stateMutability": "view",
					"type": "function"
				},
				{
					"inputs": [],
					"name": "getGender",
					"outputs": [
						{
							"internalType": "bool",
							"name": "",
							"type": "bool"
						}
					],
					"stateMutability": "view",
					"type": "function"
				},
				{
					"inputs": [],
					"name": "getIDBovineParent1",
					"outputs": [
						{
							"internalType": "int256",
							"name": "",
							"type": "int256"
						}
					],
					"stateMutability": "view",
					"type": "function"
				},
				{
					"inputs": [],
					"name": "getIDBovineParent2",
					"outputs": [
						{
							"internalType": "int256",
							"name": "",
							"type": "int256"
						}
					],
					"stateMutability": "view",
					"type": "function"
				},
				{
					"inputs": [],
					"name": "getIDField",
					"outputs": [
						{
							"internalType": "int256",
							"name": "",
							"type": "int256"
						}
					],
					"stateMutability": "view",
					"type": "function"
				},
				{
					"inputs": [],
					"name": "getIDOwner",
					"outputs": [
						{
							"internalType": "string",
							"name": "",
							"type": "string"
						}
					],
					"stateMutability": "view",
					"type": "function"
				},
				{
					"inputs": [],
					"name": "getObservation",
					"outputs": [
						{
							"internalType": "string",
							"name": "",
							"type": "string"
						}
					],
					"stateMutability": "view",
					"type": "function"
				},
				{
					"inputs": [],
					"name": "getSerialNumber",
					"outputs": [
						{
							"internalType": "int256",
							"name": "",
							"type": "int256"
						}
					],
					"stateMutability": "view",
					"type": "function"
				},
				{
					"inputs": [
						{
							"internalType": "bool",
							"name": "_active",
							"type": "bool"
						}
					],
					"name": "setActive",
					"outputs": [],
					"stateMutability": "nonpayable",
					"type": "function"
				},
				{
					"inputs": [
						{
							"internalType": "string",
							"name": "_birthDate",
							"type": "string"
						}
					],
					"name": "setBirthDate",
					"outputs": [],
					"stateMutability": "nonpayable",
					"type": "function"
				},
				{
					"inputs": [
						{
							"internalType": "bool",
							"name": "_gender",
							"type": "bool"
						}
					],
					"name": "setGender",
					"outputs": [],
					"stateMutability": "nonpayable",
					"type": "function"
				},
				{
					"inputs": [
						{
							"internalType": "int256",
							"name": "_idBovineParent1",
							"type": "int256"
						}
					],
					"name": "setIDBovineParent1",
					"outputs": [],
					"stateMutability": "nonpayable",
					"type": "function"
				},
				{
					"inputs": [
						{
							"internalType": "int256",
							"name": "_idBovineParent2",
							"type": "int256"
						}
					],
					"name": "setIDBovineParent2",
					"outputs": [],
					"stateMutability": "nonpayable",
					"type": "function"
				},
				{
					"inputs": [
						{
							"internalType": "int256",
							"name": "_idField",
							"type": "int256"
						}
					],
					"name": "setIDField",
					"outputs": [],
					"stateMutability": "nonpayable",
					"type": "function"
				},
				{
					"inputs": [
						{
							"internalType": "string",
							"name": "_idOwner",
							"type": "string"
						}
					],
					"name": "setIDOwner",
					"outputs": [],
					"stateMutability": "nonpayable",
					"type": "function"
				},
				{
					"inputs": [
						{
							"internalType": "string",
							"name": "_observation",
							"type": "string"
						}
					],
					"name": "setObservation",
					"outputs": [],
					"stateMutability": "nonpayable",
					"type": "function"
				},
				{
					"inputs": [
						{
							"internalType": "int256",
							"name": "_serialNumber",
							"type": "int256"
						}
					],
					"name": "setSerialNumber",
					"outputs": [],
					"stateMutability": "nonpayable",
					"type": "function"
				},
				{
					"inputs": [
						{
							"internalType": "string",
							"name": "_idOwner",
							"type": "string"
						},
						{
							"internalType": "bool",
							"name": "_active",
							"type": "bool"
						},
						{
							"internalType": "string",
							"name": "_observation",
							"type": "string"
						}
					],
					"name": "setUpdate",
					"outputs": [],
					"stateMutability": "nonpayable",
					"type": "function"
				}
			],
			"devdoc": {
				"kind": "dev",
				"methods": {},
				"version": 1
			},
			"evm": {
				"assembly": "    /* \"contracts/Bovine.sol\":71:2856  contract Bovine {\r... */\n  mstore(0x40, 0x80)\n    /* \"contracts/Bovine.sol\":320:859  constructor(string memory _idOwner, int _idField, int _serialNumber, string memory _birthDate, bool _active, string memory _observation, \r... */\n  callvalue\n  dup1\n  iszero\n  tag_1\n  jumpi\n  0x00\n  dup1\n  revert\ntag_1:\n  pop\n  mload(0x40)\n  sub(codesize, bytecodeSize)\n  dup1\n  bytecodeSize\n  dup4\n  codecopy\n  dup2\n  dup2\n  add\n  0x40\n  mstore\n  dup2\n  add\n  swap1\n  tag_2\n  swap2\n  swap1\n  tag_3\n  jump\t// in\ntag_2:\n    /* \"contracts/Bovine.sol\":561:569  _idOwner */\n  dup9\n    /* \"contracts/Bovine.sol\":551:558  idOwner */\n  0x00\n    /* \"contracts/Bovine.sol\":551:569  idOwner = _idOwner */\n  swap1\n  dup1\n  mload\n  swap1\n  0x20\n  add\n  swap1\n  tag_6\n  swap3\n  swap2\n  swap1\n  tag_7\n  jump\t// in\ntag_6:\n  pop\n    /* \"contracts/Bovine.sol\":590:598  _idField */\n  dup8\n    /* \"contracts/Bovine.sol\":580:587  idField */\n  0x01\n    /* \"contracts/Bovine.sol\":580:598  idField = _idField */\n  dup2\n  swap1\n  sstore\n  pop\n    /* \"contracts/Bovine.sol\":624:637  _serialNumber */\n  dup7\n    /* \"contracts/Bovine.sol\":609:621  serialNumber */\n  0x02\n    /* \"contracts/Bovine.sol\":609:637  serialNumber = _serialNumber */\n  dup2\n  swap1\n  sstore\n  pop\n    /* \"contracts/Bovine.sol\":660:670  _birthDate */\n  dup6\n    /* \"contracts/Bovine.sol\":648:657  birthDate */\n  0x03\n    /* \"contracts/Bovine.sol\":648:670  birthDate = _birthDate */\n  swap1\n  dup1\n  mload\n  swap1\n  0x20\n  add\n  swap1\n  tag_8\n  swap3\n  swap2\n  swap1\n  tag_7\n  jump\t// in\ntag_8:\n  pop\n    /* \"contracts/Bovine.sol\":690:697  _active */\n  dup5\n    /* \"contracts/Bovine.sol\":681:687  active */\n  0x04\n  0x00\n    /* \"contracts/Bovine.sol\":681:697  active = _active */\n  0x0100\n  exp\n  dup2\n  sload\n  dup2\n  0xff\n  mul\n  not\n  and\n  swap1\n  dup4\n  iszero\n  iszero\n  mul\n  or\n  swap1\n  sstore\n  pop\n    /* \"contracts/Bovine.sol\":722:734  _observation */\n  dup4\n    /* \"contracts/Bovine.sol\":708:719  observation */\n  0x05\n    /* \"contracts/Bovine.sol\":708:734  observation = _observation */\n  swap1\n  dup1\n  mload\n  swap1\n  0x20\n  add\n  swap1\n  tag_9\n  swap3\n  swap2\n  swap1\n  tag_7\n  jump\t// in\ntag_9:\n  pop\n    /* \"contracts/Bovine.sol\":763:779  _idBovineParent1 */\n  dup3\n    /* \"contracts/Bovine.sol\":745:760  idBovineParent1 */\n  0x06\n    /* \"contracts/Bovine.sol\":745:779  idBovineParent1 = _idBovineParent1 */\n  dup2\n  swap1\n  sstore\n  pop\n    /* \"contracts/Bovine.sol\":808:824  _idBovineParent2 */\n  dup2\n    /* \"contracts/Bovine.sol\":790:805  idBovineParent2 */\n  0x07\n    /* \"contracts/Bovine.sol\":790:824  idBovineParent2 = _idBovineParent2 */\n  dup2\n  swap1\n  sstore\n  pop\n    /* \"contracts/Bovine.sol\":844:851  _gender */\n  dup1\n    /* \"contracts/Bovine.sol\":835:841  gender */\n  0x08\n  0x00\n    /* \"contracts/Bovine.sol\":835:851  gender = _gender */\n  0x0100\n  exp\n  dup2\n  sload\n  dup2\n  0xff\n  mul\n  not\n  and\n  swap1\n  dup4\n  iszero\n  iszero\n  mul\n  or\n  swap1\n  sstore\n  pop\n    /* \"contracts/Bovine.sol\":320:859  constructor(string memory _idOwner, int _idField, int _serialNumber, string memory _birthDate, bool _active, string memory _observation, \r... */\n  pop\n  pop\n  pop\n  pop\n  pop\n  pop\n  pop\n  pop\n  pop\n    /* \"contracts/Bovine.sol\":71:2856  contract Bovine {\r... */\n  jump(tag_10)\ntag_7:\n  dup3\n  dup1\n  sload\n  tag_11\n  swap1\n  tag_12\n  jump\t// in\ntag_11:\n  swap1\n  0x00\n  mstore\n  keccak256(0x00, 0x20)\n  swap1\n  0x1f\n  add\n  0x20\n  swap1\n  div\n  dup2\n  add\n  swap3\n  dup3\n  tag_14\n  jumpi\n  0x00\n  dup6\n  sstore\n  jump(tag_13)\ntag_14:\n  dup3\n  0x1f\n  lt\n  tag_15\n  jumpi\n  dup1\n  mload\n  not(0xff)\n  and\n  dup4\n  dup1\n  add\n  or\n  dup6\n  sstore\n  jump(tag_13)\ntag_15:\n  dup3\n  dup1\n  add\n  0x01\n  add\n  dup6\n  sstore\n  dup3\n  iszero\n  tag_13\n  jumpi\n  swap2\n  dup3\n  add\ntag_16:\n  dup3\n  dup2\n  gt\n  iszero\n  tag_17\n  jumpi\n  dup3\n  mload\n  dup3\n  sstore\n  swap2\n  0x20\n  add\n  swap2\n  swap1\n  0x01\n  add\n  swap1\n  jump(tag_16)\ntag_17:\ntag_13:\n  pop\n  swap1\n  pop\n  tag_18\n  swap2\n  swap1\n  tag_19\n  jump\t// in\ntag_18:\n  pop\n  swap1\n  jump\t// out\ntag_19:\ntag_20:\n  dup1\n  dup3\n  gt\n  iszero\n  tag_21\n  jumpi\n  0x00\n  dup2\n  0x00\n  swap1\n  sstore\n  pop\n  0x01\n  add\n  jump(tag_20)\ntag_21:\n  pop\n  swap1\n  jump\t// out\n    /* \"#utility.yul\":7:428   */\ntag_23:\n    /* \"#utility.yul\":96:101   */\n  0x00\n    /* \"#utility.yul\":121:187   */\n  tag_25\n    /* \"#utility.yul\":137:186   */\n  tag_26\n    /* \"#utility.yul\":179:185   */\n  dup5\n    /* \"#utility.yul\":137:186   */\n  tag_27\n  jump\t// in\ntag_26:\n    /* \"#utility.yul\":121:187   */\n  tag_28\n  jump\t// in\ntag_25:\n    /* \"#utility.yul\":112:187   */\n  swap1\n  pop\n    /* \"#utility.yul\":210:216   */\n  dup3\n    /* \"#utility.yul\":203:208   */\n  dup2\n    /* \"#utility.yul\":196:217   */\n  mstore\n    /* \"#utility.yul\":248:252   */\n  0x20\n    /* \"#utility.yul\":241:246   */\n  dup2\n    /* \"#utility.yul\":237:253   */\n  add\n    /* \"#utility.yul\":286:289   */\n  dup5\n    /* \"#utility.yul\":277:283   */\n  dup5\n    /* \"#utility.yul\":272:275   */\n  dup5\n    /* \"#utility.yul\":268:284   */\n  add\n    /* \"#utility.yul\":265:290   */\n  gt\n    /* \"#utility.yul\":262:374   */\n  iszero\n  tag_29\n  jumpi\n    /* \"#utility.yul\":293:372   */\n  tag_30\n  tag_31\n  jump\t// in\ntag_30:\n    /* \"#utility.yul\":262:374   */\ntag_29:\n    /* \"#utility.yul\":383:422   */\n  tag_32\n    /* \"#utility.yul\":415:421   */\n  dup5\n    /* \"#utility.yul\":410:413   */\n  dup3\n    /* \"#utility.yul\":405:408   */\n  dup6\n    /* \"#utility.yul\":383:422   */\n  tag_33\n  jump\t// in\ntag_32:\n    /* \"#utility.yul\":102:428   */\n  pop\n    /* \"#utility.yul\":7:428   */\n  swap4\n  swap3\n  pop\n  pop\n  pop\n  jump\t// out\n    /* \"#utility.yul\":434:571   */\ntag_34:\n    /* \"#utility.yul\":488:493   */\n  0x00\n    /* \"#utility.yul\":519:525   */\n  dup2\n    /* \"#utility.yul\":513:526   */\n  mload\n    /* \"#utility.yul\":504:526   */\n  swap1\n  pop\n    /* \"#utility.yul\":535:565   */\n  tag_36\n    /* \"#utility.yul\":559:564   */\n  dup2\n    /* \"#utility.yul\":535:565   */\n  tag_37\n  jump\t// in\ntag_36:\n    /* \"#utility.yul\":434:571   */\n  swap3\n  swap2\n  pop\n  pop\n  jump\t// out\n    /* \"#utility.yul\":577:718   */\ntag_38:\n    /* \"#utility.yul\":633:638   */\n  0x00\n    /* \"#utility.yul\":664:670   */\n  dup2\n    /* \"#utility.yul\":658:671   */\n  mload\n    /* \"#utility.yul\":649:671   */\n  swap1\n  pop\n    /* \"#utility.yul\":680:712   */\n  tag_40\n    /* \"#utility.yul\":706:711   */\n  dup2\n    /* \"#utility.yul\":680:712   */\n  tag_41\n  jump\t// in\ntag_40:\n    /* \"#utility.yul\":577:718   */\n  swap3\n  swap2\n  pop\n  pop\n  jump\t// out\n    /* \"#utility.yul\":738:1093   */\ntag_42:\n    /* \"#utility.yul\":805:810   */\n  0x00\n    /* \"#utility.yul\":854:857   */\n  dup3\n    /* \"#utility.yul\":847:851   */\n  0x1f\n    /* \"#utility.yul\":839:845   */\n  dup4\n    /* \"#utility.yul\":835:852   */\n  add\n    /* \"#utility.yul\":831:858   */\n  slt\n    /* \"#utility.yul\":821:943   */\n  tag_44\n  jumpi\n    /* \"#utility.yul\":862:941   */\n  tag_45\n  tag_46\n  jump\t// in\ntag_45:\n    /* \"#utility.yul\":821:943   */\ntag_44:\n    /* \"#utility.yul\":972:978   */\n  dup2\n    /* \"#utility.yul\":966:979   */\n  mload\n    /* \"#utility.yul\":997:1087   */\n  tag_47\n    /* \"#utility.yul\":1083:1086   */\n  dup5\n    /* \"#utility.yul\":1075:1081   */\n  dup3\n    /* \"#utility.yul\":1068:1072   */\n  0x20\n    /* \"#utility.yul\":1060:1066   */\n  dup7\n    /* \"#utility.yul\":1056:1073   */\n  add\n    /* \"#utility.yul\":997:1087   */\n  tag_23\n  jump\t// in\ntag_47:\n    /* \"#utility.yul\":988:1087   */\n  swap2\n  pop\n    /* \"#utility.yul\":811:1093   */\n  pop\n    /* \"#utility.yul\":738:1093   */\n  swap3\n  swap2\n  pop\n  pop\n  jump\t// out\n    /* \"#utility.yul\":1099:3203   */\ntag_3:\n    /* \"#utility.yul\":1261:1267   */\n  0x00\n    /* \"#utility.yul\":1269:1275   */\n  dup1\n    /* \"#utility.yul\":1277:1283   */\n  0x00\n    /* \"#utility.yul\":1285:1291   */\n  dup1\n    /* \"#utility.yul\":1293:1299   */\n  0x00\n    /* \"#utility.yul\":1301:1307   */\n  dup1\n    /* \"#utility.yul\":1309:1315   */\n  0x00\n    /* \"#utility.yul\":1317:1323   */\n  dup1\n    /* \"#utility.yul\":1325:1331   */\n  0x00\n    /* \"#utility.yul\":1374:1377   */\n  0x0120\n    /* \"#utility.yul\":1362:1371   */\n  dup11\n    /* \"#utility.yul\":1353:1360   */\n  dup13\n    /* \"#utility.yul\":1349:1372   */\n  sub\n    /* \"#utility.yul\":1345:1378   */\n  slt\n    /* \"#utility.yul\":1342:1462   */\n  iszero\n  tag_49\n  jumpi\n    /* \"#utility.yul\":1381:1460   */\n  tag_50\n  tag_51\n  jump\t// in\ntag_50:\n    /* \"#utility.yul\":1342:1462   */\ntag_49:\n    /* \"#utility.yul\":1522:1523   */\n  0x00\n    /* \"#utility.yul\":1511:1520   */\n  dup11\n    /* \"#utility.yul\":1507:1524   */\n  add\n    /* \"#utility.yul\":1501:1525   */\n  mload\n    /* \"#utility.yul\":1552:1570   */\n  0xffffffffffffffff\n    /* \"#utility.yul\":1544:1550   */\n  dup2\n    /* \"#utility.yul\":1541:1571   */\n  gt\n    /* \"#utility.yul\":1538:1655   */\n  iszero\n  tag_52\n  jumpi\n    /* \"#utility.yul\":1574:1653   */\n  tag_53\n  tag_54\n  jump\t// in\ntag_53:\n    /* \"#utility.yul\":1538:1655   */\ntag_52:\n    /* \"#utility.yul\":1679:1753   */\n  tag_55\n    /* \"#utility.yul\":1745:1752   */\n  dup13\n    /* \"#utility.yul\":1736:1742   */\n  dup3\n    /* \"#utility.yul\":1725:1734   */\n  dup14\n    /* \"#utility.yul\":1721:1743   */\n  add\n    /* \"#utility.yul\":1679:1753   */\n  tag_42\n  jump\t// in\ntag_55:\n    /* \"#utility.yul\":1669:1753   */\n  swap10\n  pop\n    /* \"#utility.yul\":1472:1763   */\n  pop\n    /* \"#utility.yul\":1802:1804   */\n  0x20\n    /* \"#utility.yul\":1828:1891   */\n  tag_56\n    /* \"#utility.yul\":1883:1890   */\n  dup13\n    /* \"#utility.yul\":1874:1880   */\n  dup3\n    /* \"#utility.yul\":1863:1872   */\n  dup14\n    /* \"#utility.yul\":1859:1881   */\n  add\n    /* \"#utility.yul\":1828:1891   */\n  tag_38\n  jump\t// in\ntag_56:\n    /* \"#utility.yul\":1818:1891   */\n  swap9\n  pop\n    /* \"#utility.yul\":1773:1901   */\n  pop\n    /* \"#utility.yul\":1940:1942   */\n  0x40\n    /* \"#utility.yul\":1966:2029   */\n  tag_57\n    /* \"#utility.yul\":2021:2028   */\n  dup13\n    /* \"#utility.yul\":2012:2018   */\n  dup3\n    /* \"#utility.yul\":2001:2010   */\n  dup14\n    /* \"#utility.yul\":1997:2019   */\n  add\n    /* \"#utility.yul\":1966:2029   */\n  tag_38\n  jump\t// in\ntag_57:\n    /* \"#utility.yul\":1956:2029   */\n  swap8\n  pop\n    /* \"#utility.yul\":1911:2039   */\n  pop\n    /* \"#utility.yul\":2099:2101   */\n  0x60\n    /* \"#utility.yul\":2088:2097   */\n  dup11\n    /* \"#utility.yul\":2084:2102   */\n  add\n    /* \"#utility.yul\":2078:2103   */\n  mload\n    /* \"#utility.yul\":2130:2148   */\n  0xffffffffffffffff\n    /* \"#utility.yul\":2122:2128   */\n  dup2\n    /* \"#utility.yul\":2119:2149   */\n  gt\n    /* \"#utility.yul\":2116:2233   */\n  iszero\n  tag_58\n  jumpi\n    /* \"#utility.yul\":2152:2231   */\n  tag_59\n  tag_54\n  jump\t// in\ntag_59:\n    /* \"#utility.yul\":2116:2233   */\ntag_58:\n    /* \"#utility.yul\":2257:2331   */\n  tag_60\n    /* \"#utility.yul\":2323:2330   */\n  dup13\n    /* \"#utility.yul\":2314:2320   */\n  dup3\n    /* \"#utility.yul\":2303:2312   */\n  dup14\n    /* \"#utility.yul\":2299:2321   */\n  add\n    /* \"#utility.yul\":2257:2331   */\n  tag_42\n  jump\t// in\ntag_60:\n    /* \"#utility.yul\":2247:2331   */\n  swap7\n  pop\n    /* \"#utility.yul\":2049:2341   */\n  pop\n    /* \"#utility.yul\":2380:2383   */\n  0x80\n    /* \"#utility.yul\":2407:2468   */\n  tag_61\n    /* \"#utility.yul\":2460:2467   */\n  dup13\n    /* \"#utility.yul\":2451:2457   */\n  dup3\n    /* \"#utility.yul\":2440:2449   */\n  dup14\n    /* \"#utility.yul\":2436:2458   */\n  add\n    /* \"#utility.yul\":2407:2468   */\n  tag_34\n  jump\t// in\ntag_61:\n    /* \"#utility.yul\":2397:2468   */\n  swap6\n  pop\n    /* \"#utility.yul\":2351:2478   */\n  pop\n    /* \"#utility.yul\":2538:2541   */\n  0xa0\n    /* \"#utility.yul\":2527:2536   */\n  dup11\n    /* \"#utility.yul\":2523:2542   */\n  add\n    /* \"#utility.yul\":2517:2543   */\n  mload\n    /* \"#utility.yul\":2570:2588   */\n  0xffffffffffffffff\n    /* \"#utility.yul\":2562:2568   */\n  dup2\n    /* \"#utility.yul\":2559:2589   */\n  gt\n    /* \"#utility.yul\":2556:2673   */\n  iszero\n  tag_62\n  jumpi\n    /* \"#utility.yul\":2592:2671   */\n  tag_63\n  tag_54\n  jump\t// in\ntag_63:\n    /* \"#utility.yul\":2556:2673   */\ntag_62:\n    /* \"#utility.yul\":2697:2771   */\n  tag_64\n    /* \"#utility.yul\":2763:2770   */\n  dup13\n    /* \"#utility.yul\":2754:2760   */\n  dup3\n    /* \"#utility.yul\":2743:2752   */\n  dup14\n    /* \"#utility.yul\":2739:2761   */\n  add\n    /* \"#utility.yul\":2697:2771   */\n  tag_42\n  jump\t// in\ntag_64:\n    /* \"#utility.yul\":2687:2771   */\n  swap5\n  pop\n    /* \"#utility.yul\":2488:2781   */\n  pop\n    /* \"#utility.yul\":2820:2823   */\n  0xc0\n    /* \"#utility.yul\":2847:2910   */\n  tag_65\n    /* \"#utility.yul\":2902:2909   */\n  dup13\n    /* \"#utility.yul\":2893:2899   */\n  dup3\n    /* \"#utility.yul\":2882:2891   */\n  dup14\n    /* \"#utility.yul\":2878:2900   */\n  add\n    /* \"#utility.yul\":2847:2910   */\n  tag_38\n  jump\t// in\ntag_65:\n    /* \"#utility.yul\":2837:2910   */\n  swap4\n  pop\n    /* \"#utility.yul\":2791:2920   */\n  pop\n    /* \"#utility.yul\":2959:2962   */\n  0xe0\n    /* \"#utility.yul\":2986:3049   */\n  tag_66\n    /* \"#utility.yul\":3041:3048   */\n  dup13\n    /* \"#utility.yul\":3032:3038   */\n  dup3\n    /* \"#utility.yul\":3021:3030   */\n  dup14\n    /* \"#utility.yul\":3017:3039   */\n  add\n    /* \"#utility.yul\":2986:3049   */\n  tag_38\n  jump\t// in\ntag_66:\n    /* \"#utility.yul\":2976:3049   */\n  swap3\n  pop\n    /* \"#utility.yul\":2930:3059   */\n  pop\n    /* \"#utility.yul\":3098:3101   */\n  0x0100\n    /* \"#utility.yul\":3125:3186   */\n  tag_67\n    /* \"#utility.yul\":3178:3185   */\n  dup13\n    /* \"#utility.yul\":3169:3175   */\n  dup3\n    /* \"#utility.yul\":3158:3167   */\n  dup14\n    /* \"#utility.yul\":3154:3176   */\n  add\n    /* \"#utility.yul\":3125:3186   */\n  tag_34\n  jump\t// in\ntag_67:\n    /* \"#utility.yul\":3115:3186   */\n  swap2\n  pop\n    /* \"#utility.yul\":3069:3196   */\n  pop\n    /* \"#utility.yul\":1099:3203   */\n  swap3\n  swap6\n  swap9\n  pop\n  swap3\n  swap6\n  swap9\n  pop\n  swap3\n  swap6\n  swap9\n  jump\t// out\n    /* \"#utility.yul\":3209:3338   */\ntag_28:\n    /* \"#utility.yul\":3243:3249   */\n  0x00\n    /* \"#utility.yul\":3270:3290   */\n  tag_69\n  tag_70\n  jump\t// in\ntag_69:\n    /* \"#utility.yul\":3260:3290   */\n  swap1\n  pop\n    /* \"#utility.yul\":3299:3332   */\n  tag_71\n    /* \"#utility.yul\":3327:3331   */\n  dup3\n    /* \"#utility.yul\":3319:3325   */\n  dup3\n    /* \"#utility.yul\":3299:3332   */\n  tag_72\n  jump\t// in\ntag_71:\n    /* \"#utility.yul\":3209:3338   */\n  swap2\n  swap1\n  pop\n  jump\t// out\n    /* \"#utility.yul\":3344:3419   */\ntag_70:\n    /* \"#utility.yul\":3377:3383   */\n  0x00\n    /* \"#utility.yul\":3410:3412   */\n  0x40\n    /* \"#utility.yul\":3404:3413   */\n  mload\n    /* \"#utility.yul\":3394:3413   */\n  swap1\n  pop\n    /* \"#utility.yul\":3344:3419   */\n  swap1\n  jump\t// out\n    /* \"#utility.yul\":3425:3733   */\ntag_27:\n    /* \"#utility.yul\":3487:3491   */\n  0x00\n    /* \"#utility.yul\":3577:3595   */\n  0xffffffffffffffff\n    /* \"#utility.yul\":3569:3575   */\n  dup3\n    /* \"#utility.yul\":3566:3596   */\n  gt\n    /* \"#utility.yul\":3563:3619   */\n  iszero\n  tag_75\n  jumpi\n    /* \"#utility.yul\":3599:3617   */\n  tag_76\n  tag_77\n  jump\t// in\ntag_76:\n    /* \"#utility.yul\":3563:3619   */\ntag_75:\n    /* \"#utility.yul\":3637:3666   */\n  tag_78\n    /* \"#utility.yul\":3659:3665   */\n  dup3\n    /* \"#utility.yul\":3637:3666   */\n  tag_79\n  jump\t// in\ntag_78:\n    /* \"#utility.yul\":3629:3666   */\n  swap1\n  pop\n    /* \"#utility.yul\":3721:3725   */\n  0x20\n    /* \"#utility.yul\":3715:3719   */\n  dup2\n    /* \"#utility.yul\":3711:3726   */\n  add\n    /* \"#utility.yul\":3703:3726   */\n  swap1\n  pop\n    /* \"#utility.yul\":3425:3733   */\n  swap2\n  swap1\n  pop\n  jump\t// out\n    /* \"#utility.yul\":3739:3829   */\ntag_80:\n    /* \"#utility.yul\":3773:3780   */\n  0x00\n    /* \"#utility.yul\":3816:3821   */\n  dup2\n    /* \"#utility.yul\":3809:3822   */\n  iszero\n    /* \"#utility.yul\":3802:3823   */\n  iszero\n    /* \"#utility.yul\":3791:3823   */\n  swap1\n  pop\n    /* \"#utility.yul\":3739:3829   */\n  swap2\n  swap1\n  pop\n  jump\t// out\n    /* \"#utility.yul\":3835:3911   */\ntag_82:\n    /* \"#utility.yul\":3871:3878   */\n  0x00\n    /* \"#utility.yul\":3900:3905   */\n  dup2\n    /* \"#utility.yul\":3889:3905   */\n  swap1\n  pop\n    /* \"#utility.yul\":3835:3911   */\n  swap2\n  swap1\n  pop\n  jump\t// out\n    /* \"#utility.yul\":3917:4224   */\ntag_33:\n    /* \"#utility.yul\":3985:3986   */\n  0x00\n    /* \"#utility.yul\":3995:4108   */\ntag_85:\n    /* \"#utility.yul\":4009:4015   */\n  dup4\n    /* \"#utility.yul\":4006:4007   */\n  dup2\n    /* \"#utility.yul\":4003:4016   */\n  lt\n    /* \"#utility.yul\":3995:4108   */\n  iszero\n  tag_87\n  jumpi\n    /* \"#utility.yul\":4094:4095   */\n  dup1\n    /* \"#utility.yul\":4089:4092   */\n  dup3\n    /* \"#utility.yul\":4085:4096   */\n  add\n    /* \"#utility.yul\":4079:4097   */\n  mload\n    /* \"#utility.yul\":4075:4076   */\n  dup2\n    /* \"#utility.yul\":4070:4073   */\n  dup5\n    /* \"#utility.yul\":4066:4077   */\n  add\n    /* \"#utility.yul\":4059:4098   */\n  mstore\n    /* \"#utility.yul\":4031:4033   */\n  0x20\n    /* \"#utility.yul\":4028:4029   */\n  dup2\n    /* \"#utility.yul\":4024:4034   */\n  add\n    /* \"#utility.yul\":4019:4034   */\n  swap1\n  pop\n    /* \"#utility.yul\":3995:4108   */\n  jump(tag_85)\ntag_87:\n    /* \"#utility.yul\":4126:4132   */\n  dup4\n    /* \"#utility.yul\":4123:4124   */\n  dup2\n    /* \"#utility.yul\":4120:4133   */\n  gt\n    /* \"#utility.yul\":4117:4218   */\n  iszero\n  tag_88\n  jumpi\n    /* \"#utility.yul\":4206:4207   */\n  0x00\n    /* \"#utility.yul\":4197:4203   */\n  dup5\n    /* \"#utility.yul\":4192:4195   */\n  dup5\n    /* \"#utility.yul\":4188:4204   */\n  add\n    /* \"#utility.yul\":4181:4208   */\n  mstore\n    /* \"#utility.yul\":4117:4218   */\ntag_88:\n    /* \"#utility.yul\":3966:4224   */\n  pop\n    /* \"#utility.yul\":3917:4224   */\n  pop\n  pop\n  pop\n  jump\t// out\n    /* \"#utility.yul\":4230:4550   */\ntag_12:\n    /* \"#utility.yul\":4274:4280   */\n  0x00\n    /* \"#utility.yul\":4311:4312   */\n  0x02\n    /* \"#utility.yul\":4305:4309   */\n  dup3\n    /* \"#utility.yul\":4301:4313   */\n  div\n    /* \"#utility.yul\":4291:4313   */\n  swap1\n  pop\n    /* \"#utility.yul\":4358:4359   */\n  0x01\n    /* \"#utility.yul\":4352:4356   */\n  dup3\n    /* \"#utility.yul\":4348:4360   */\n  and\n    /* \"#utility.yul\":4379:4397   */\n  dup1\n    /* \"#utility.yul\":4369:4450   */\n  tag_90\n  jumpi\n    /* \"#utility.yul\":4435:4439   */\n  0x7f\n    /* \"#utility.yul\":4427:4433   */\n  dup3\n    /* \"#utility.yul\":4423:4440   */\n  and\n    /* \"#utility.yul\":4413:4440   */\n  swap2\n  pop\n    /* \"#utility.yul\":4369:4450   */\ntag_90:\n    /* \"#utility.yul\":4497:4499   */\n  0x20\n    /* \"#utility.yul\":4489:4495   */\n  dup3\n    /* \"#utility.yul\":4486:4500   */\n  lt\n    /* \"#utility.yul\":4466:4484   */\n  dup2\n    /* \"#utility.yul\":4463:4501   */\n  eq\n    /* \"#utility.yul\":4460:4544   */\n  iszero\n  tag_91\n  jumpi\n    /* \"#utility.yul\":4516:4534   */\n  tag_92\n  tag_93\n  jump\t// in\ntag_92:\n    /* \"#utility.yul\":4460:4544   */\ntag_91:\n    /* \"#utility.yul\":4281:4550   */\n  pop\n    /* \"#utility.yul\":4230:4550   */\n  swap2\n  swap1\n  pop\n  jump\t// out\n    /* \"#utility.yul\":4556:4837   */\ntag_72:\n    /* \"#utility.yul\":4639:4666   */\n  tag_95\n    /* \"#utility.yul\":4661:4665   */\n  dup3\n    /* \"#utility.yul\":4639:4666   */\n  tag_79\n  jump\t// in\ntag_95:\n    /* \"#utility.yul\":4631:4637   */\n  dup2\n    /* \"#utility.yul\":4627:4667   */\n  add\n    /* \"#utility.yul\":4769:4775   */\n  dup2\n    /* \"#utility.yul\":4757:4767   */\n  dup2\n    /* \"#utility.yul\":4754:4776   */\n  lt\n    /* \"#utility.yul\":4733:4751   */\n  0xffffffffffffffff\n    /* \"#utility.yul\":4721:4731   */\n  dup3\n    /* \"#utility.yul\":4718:4752   */\n  gt\n    /* \"#utility.yul\":4715:4777   */\n  or\n    /* \"#utility.yul\":4712:4800   */\n  iszero\n  tag_96\n  jumpi\n    /* \"#utility.yul\":4780:4798   */\n  tag_97\n  tag_77\n  jump\t// in\ntag_97:\n    /* \"#utility.yul\":4712:4800   */\ntag_96:\n    /* \"#utility.yul\":4820:4830   */\n  dup1\n    /* \"#utility.yul\":4816:4818   */\n  0x40\n    /* \"#utility.yul\":4809:4831   */\n  mstore\n    /* \"#utility.yul\":4599:4837   */\n  pop\n    /* \"#utility.yul\":4556:4837   */\n  pop\n  pop\n  jump\t// out\n    /* \"#utility.yul\":4843:5023   */\ntag_93:\n    /* \"#utility.yul\":4891:4968   */\n  0x4e487b7100000000000000000000000000000000000000000000000000000000\n    /* \"#utility.yul\":4888:4889   */\n  0x00\n    /* \"#utility.yul\":4881:4969   */\n  mstore\n    /* \"#utility.yul\":4988:4992   */\n  0x22\n    /* \"#utility.yul\":4985:4986   */\n  0x04\n    /* \"#utility.yul\":4978:4993   */\n  mstore\n    /* \"#utility.yul\":5012:5016   */\n  0x24\n    /* \"#utility.yul\":5009:5010   */\n  0x00\n    /* \"#utility.yul\":5002:5017   */\n  revert\n    /* \"#utility.yul\":5029:5209   */\ntag_77:\n    /* \"#utility.yul\":5077:5154   */\n  0x4e487b7100000000000000000000000000000000000000000000000000000000\n    /* \"#utility.yul\":5074:5075   */\n  0x00\n    /* \"#utility.yul\":5067:5155   */\n  mstore\n    /* \"#utility.yul\":5174:5178   */\n  0x41\n    /* \"#utility.yul\":5171:5172   */\n  0x04\n    /* \"#utility.yul\":5164:5179   */\n  mstore\n    /* \"#utility.yul\":5198:5202   */\n  0x24\n    /* \"#utility.yul\":5195:5196   */\n  0x00\n    /* \"#utility.yul\":5188:5203   */\n  revert\n    /* \"#utility.yul\":5215:5332   */\ntag_46:\n    /* \"#utility.yul\":5324:5325   */\n  0x00\n    /* \"#utility.yul\":5321:5322   */\n  dup1\n    /* \"#utility.yul\":5314:5326   */\n  revert\n    /* \"#utility.yul\":5338:5455   */\ntag_31:\n    /* \"#utility.yul\":5447:5448   */\n  0x00\n    /* \"#utility.yul\":5444:5445   */\n  dup1\n    /* \"#utility.yul\":5437:5449   */\n  revert\n    /* \"#utility.yul\":5461:5578   */\ntag_54:\n    /* \"#utility.yul\":5570:5571   */\n  0x00\n    /* \"#utility.yul\":5567:5568   */\n  dup1\n    /* \"#utility.yul\":5560:5572   */\n  revert\n    /* \"#utility.yul\":5584:5701   */\ntag_51:\n    /* \"#utility.yul\":5693:5694   */\n  0x00\n    /* \"#utility.yul\":5690:5691   */\n  dup1\n    /* \"#utility.yul\":5683:5695   */\n  revert\n    /* \"#utility.yul\":5707:5809   */\ntag_79:\n    /* \"#utility.yul\":5748:5754   */\n  0x00\n    /* \"#utility.yul\":5799:5801   */\n  0x1f\n    /* \"#utility.yul\":5795:5802   */\n  not\n    /* \"#utility.yul\":5790:5792   */\n  0x1f\n    /* \"#utility.yul\":5783:5788   */\n  dup4\n    /* \"#utility.yul\":5779:5793   */\n  add\n    /* \"#utility.yul\":5775:5803   */\n  and\n    /* \"#utility.yul\":5765:5803   */\n  swap1\n  pop\n    /* \"#utility.yul\":5707:5809   */\n  swap2\n  swap1\n  pop\n  jump\t// out\n    /* \"#utility.yul\":5815:5931   */\ntag_37:\n    /* \"#utility.yul\":5885:5906   */\n  tag_106\n    /* \"#utility.yul\":5900:5905   */\n  dup2\n    /* \"#utility.yul\":5885:5906   */\n  tag_80\n  jump\t// in\ntag_106:\n    /* \"#utility.yul\":5878:5883   */\n  dup2\n    /* \"#utility.yul\":5875:5907   */\n  eq\n    /* \"#utility.yul\":5865:5925   */\n  tag_107\n  jumpi\n    /* \"#utility.yul\":5921:5922   */\n  0x00\n    /* \"#utility.yul\":5918:5919   */\n  dup1\n    /* \"#utility.yul\":5911:5923   */\n  revert\n    /* \"#utility.yul\":5865:5925   */\ntag_107:\n    /* \"#utility.yul\":5815:5931   */\n  pop\n  jump\t// out\n    /* \"#utility.yul\":5937:6057   */\ntag_41:\n    /* \"#utility.yul\":6009:6032   */\n  tag_109\n    /* \"#utility.yul\":6026:6031   */\n  dup2\n    /* \"#utility.yul\":6009:6032   */\n  tag_82\n  jump\t// in\ntag_109:\n    /* \"#utility.yul\":6002:6007   */\n  dup2\n    /* \"#utility.yul\":5999:6033   */\n  eq\n    /* \"#utility.yul\":5989:6051   */\n  tag_110\n  jumpi\n    /* \"#utility.yul\":6047:6048   */\n  0x00\n    /* \"#utility.yul\":6044:6045   */\n  dup1\n    /* \"#utility.yul\":6037:6049   */\n  revert\n    /* \"#utility.yul\":5989:6051   */\ntag_110:\n    /* \"#utility.yul\":5937:6057   */\n  pop\n  jump\t// out\n    /* \"contracts/Bovine.sol\":71:2856  contract Bovine {\r... */\ntag_10:\n  dataSize(sub_0)\n  dup1\n  dataOffset(sub_0)\n  0x00\n  codecopy\n  0x00\n  return\nstop\n\nsub_0: assembly {\n        /* \"contracts/Bovine.sol\":71:2856  contract Bovine {\r... */\n      mstore(0x40, 0x80)\n      callvalue\n      dup1\n      iszero\n      tag_1\n      jumpi\n      0x00\n      dup1\n      revert\n    tag_1:\n      pop\n      jumpi(tag_2, lt(calldatasize, 0x04))\n      shr(0xe0, calldataload(0x00))\n      dup1\n      0x76aaff9f\n      gt\n      tag_22\n      jumpi\n      dup1\n      0xc16a836b\n      gt\n      tag_23\n      jumpi\n      dup1\n      0xc16a836b\n      eq\n      tag_17\n      jumpi\n      dup1\n      0xd92be7f6\n      eq\n      tag_18\n      jumpi\n      dup1\n      0xdeb8bd33\n      eq\n      tag_19\n      jumpi\n      dup1\n      0xea60994e\n      eq\n      tag_20\n      jumpi\n      dup1\n      0xf69e2546\n      eq\n      tag_21\n      jumpi\n      jump(tag_2)\n    tag_23:\n      dup1\n      0x76aaff9f\n      eq\n      tag_12\n      jumpi\n      dup1\n      0x7c38a8c3\n      eq\n      tag_13\n      jumpi\n      dup1\n      0x88504618\n      eq\n      tag_14\n      jumpi\n      dup1\n      0x9022216d\n      eq\n      tag_15\n      jumpi\n      dup1\n      0xacec338a\n      eq\n      tag_16\n      jumpi\n      jump(tag_2)\n    tag_22:\n      dup1\n      0x2d79838a\n      gt\n      tag_24\n      jumpi\n      dup1\n      0x2d79838a\n      eq\n      tag_7\n      jumpi\n      dup1\n      0x2e25fa47\n      eq\n      tag_8\n      jumpi\n      dup1\n      0x3097ba90\n      eq\n      tag_9\n      jumpi\n      dup1\n      0x49c0af60\n      eq\n      tag_10\n      jumpi\n      dup1\n      0x6b2b1ab9\n      eq\n      tag_11\n      jumpi\n      jump(tag_2)\n    tag_24:\n      dup1\n      0x9ebb10\n      eq\n      tag_3\n      jumpi\n      dup1\n      0x0932a1aa\n      eq\n      tag_4\n      jumpi\n      dup1\n      0x1159e07e\n      eq\n      tag_5\n      jumpi\n      dup1\n      0x2461109e\n      eq\n      tag_6\n      jumpi\n    tag_2:\n      0x00\n      dup1\n      revert\n        /* \"contracts/Bovine.sol\":1937:2017  function getActive() public view returns (bool) {\r... */\n    tag_3:\n      tag_25\n      tag_26\n      jump\t// in\n    tag_25:\n      mload(0x40)\n      tag_27\n      swap2\n      swap1\n      tag_28\n      jump\t// in\n    tag_27:\n      mload(0x40)\n      dup1\n      swap2\n      sub\n      swap1\n      return\n        /* \"contracts/Bovine.sol\":1068:1156  function setIDOwner(string memory _idOwner) public {\r... */\n    tag_4:\n      tag_29\n      0x04\n      dup1\n      calldatasize\n      sub\n      dup2\n      add\n      swap1\n      tag_30\n      swap2\n      swap1\n      tag_31\n      jump\t// in\n    tag_30:\n      tag_32\n      jump\t// in\n    tag_29:\n      stop\n        /* \"contracts/Bovine.sol\":2467:2577  function setIDBovineParent2(int _idBovineParent2) public {\r... */\n    tag_5:\n      tag_33\n      0x04\n      dup1\n      calldatasize\n      sub\n      dup2\n      add\n      swap1\n      tag_34\n      swap2\n      swap1\n      tag_35\n      jump\t// in\n    tag_34:\n      tag_36\n      jump\t// in\n    tag_33:\n      stop\n        /* \"contracts/Bovine.sol\":2690:2765  function setGender(bool _gender) public {\r... */\n    tag_6:\n      tag_37\n      0x04\n      dup1\n      calldatasize\n      sub\n      dup2\n      add\n      swap1\n      tag_38\n      swap2\n      swap1\n      tag_39\n      jump\t// in\n    tag_38:\n      tag_40\n      jump\t// in\n    tag_37:\n      stop\n        /* \"contracts/Bovine.sol\":1544:1635  function getSerialNumber() public view returns (int) {\r... */\n    tag_7:\n      tag_41\n      tag_42\n      jump\t// in\n    tag_41:\n      mload(0x40)\n      tag_43\n      swap2\n      swap1\n      tag_44\n      jump\t// in\n    tag_43:\n      mload(0x40)\n      dup1\n      swap2\n      sub\n      swap1\n      return\n        /* \"contracts/Bovine.sol\":2025:2129  function setObservation(string memory _observation) public {\r... */\n    tag_8:\n      tag_45\n      0x04\n      dup1\n      calldatasize\n      sub\n      dup2\n      add\n      swap1\n      tag_46\n      swap2\n      swap1\n      tag_31\n      jump\t// in\n    tag_46:\n      tag_47\n      jump\t// in\n    tag_45:\n      stop\n        /* \"contracts/Bovine.sol\":1438:1536  function setSerialNumber(int _serialNumber) public {\r... */\n    tag_9:\n      tag_48\n      0x04\n      dup1\n      calldatasize\n      sub\n      dup2\n      add\n      swap1\n      tag_49\n      swap2\n      swap1\n      tag_35\n      jump\t// in\n    tag_49:\n      tag_50\n      jump\t// in\n    tag_48:\n      stop\n        /* \"contracts/Bovine.sol\":1349:1430  function getIDField() public view returns (int) {\r... */\n    tag_10:\n      tag_51\n      tag_52\n      jump\t// in\n    tag_51:\n      mload(0x40)\n      tag_53\n      swap2\n      swap1\n      tag_44\n      jump\t// in\n    tag_53:\n      mload(0x40)\n      dup1\n      swap2\n      sub\n      swap1\n      return\n        /* \"contracts/Bovine.sol\":2137:2236  function getObservation() public view returns (string memory) {\r... */\n    tag_11:\n      tag_54\n      tag_55\n      jump\t// in\n    tag_54:\n      mload(0x40)\n      tag_56\n      swap2\n      swap1\n      tag_57\n      jump\t// in\n    tag_56:\n      mload(0x40)\n      dup1\n      swap2\n      sub\n      swap1\n      return\n        /* \"contracts/Bovine.sol\":1263:1341  function setIDField(int _idField) public {\r... */\n    tag_12:\n      tag_58\n      0x04\n      dup1\n      calldatasize\n      sub\n      dup2\n      add\n      swap1\n      tag_59\n      swap2\n      swap1\n      tag_35\n      jump\t// in\n    tag_59:\n      tag_60\n      jump\t// in\n    tag_58:\n      stop\n        /* \"contracts/Bovine.sol\":2773:2853  function getGender() public view returns (bool) {\r... */\n    tag_13:\n      tag_61\n      tag_62\n      jump\t// in\n    tag_61:\n      mload(0x40)\n      tag_63\n      swap2\n      swap1\n      tag_28\n      jump\t// in\n    tag_63:\n      mload(0x40)\n      dup1\n      swap2\n      sub\n      swap1\n      return\n        /* \"contracts/Bovine.sol\":867:1060  function setUpdate(string memory _idOwner, bool _active, string memory _observation) public {\r... */\n    tag_14:\n      tag_64\n      0x04\n      dup1\n      calldatasize\n      sub\n      dup2\n      add\n      swap1\n      tag_65\n      swap2\n      swap1\n      tag_66\n      jump\t// in\n    tag_65:\n      tag_67\n      jump\t// in\n    tag_64:\n      stop\n        /* \"contracts/Bovine.sol\":2244:2354  function setIDBovineParent1(int _idBovineParent1) public {\r... */\n    tag_15:\n      tag_68\n      0x04\n      dup1\n      calldatasize\n      sub\n      dup2\n      add\n      swap1\n      tag_69\n      swap2\n      swap1\n      tag_35\n      jump\t// in\n    tag_69:\n      tag_70\n      jump\t// in\n    tag_68:\n      stop\n        /* \"contracts/Bovine.sol\":1854:1929  function setActive(bool _active) public {\r... */\n    tag_16:\n      tag_71\n      0x04\n      dup1\n      calldatasize\n      sub\n      dup2\n      add\n      swap1\n      tag_72\n      swap2\n      swap1\n      tag_39\n      jump\t// in\n    tag_72:\n      tag_73\n      jump\t// in\n    tag_71:\n      stop\n        /* \"contracts/Bovine.sol\":1751:1846  function getBirthDate() public view returns (string memory) {\r... */\n    tag_17:\n      tag_74\n      tag_75\n      jump\t// in\n    tag_74:\n      mload(0x40)\n      tag_76\n      swap2\n      swap1\n      tag_57\n      jump\t// in\n    tag_76:\n      mload(0x40)\n      dup1\n      swap2\n      sub\n      swap1\n      return\n        /* \"contracts/Bovine.sol\":1647:1743  function setBirthDate(string memory _birthDate) public {\r... */\n    tag_18:\n      tag_77\n      0x04\n      dup1\n      calldatasize\n      sub\n      dup2\n      add\n      swap1\n      tag_78\n      swap2\n      swap1\n      tag_31\n      jump\t// in\n    tag_78:\n      tag_79\n      jump\t// in\n    tag_77:\n      stop\n        /* \"contracts/Bovine.sol\":2585:2682  function getIDBovineParent2() public view returns (int) {\r... */\n    tag_19:\n      tag_80\n      tag_81\n      jump\t// in\n    tag_80:\n      mload(0x40)\n      tag_82\n      swap2\n      swap1\n      tag_44\n      jump\t// in\n    tag_82:\n      mload(0x40)\n      dup1\n      swap2\n      sub\n      swap1\n      return\n        /* \"contracts/Bovine.sol\":1164:1255  function getIDOwner() public view returns (string memory) {\r... */\n    tag_20:\n      tag_83\n      tag_84\n      jump\t// in\n    tag_83:\n      mload(0x40)\n      tag_85\n      swap2\n      swap1\n      tag_57\n      jump\t// in\n    tag_85:\n      mload(0x40)\n      dup1\n      swap2\n      sub\n      swap1\n      return\n        /* \"contracts/Bovine.sol\":2362:2459  function getIDBovineParent1() public view returns (int) {\r... */\n    tag_21:\n      tag_86\n      tag_87\n      jump\t// in\n    tag_86:\n      mload(0x40)\n      tag_88\n      swap2\n      swap1\n      tag_44\n      jump\t// in\n    tag_88:\n      mload(0x40)\n      dup1\n      swap2\n      sub\n      swap1\n      return\n        /* \"contracts/Bovine.sol\":1937:2017  function getActive() public view returns (bool) {\r... */\n    tag_26:\n        /* \"contracts/Bovine.sol\":1979:1983  bool */\n      0x00\n        /* \"contracts/Bovine.sol\":2003:2009  active */\n      0x04\n      0x00\n      swap1\n      sload\n      swap1\n      0x0100\n      exp\n      swap1\n      div\n      0xff\n      and\n        /* \"contracts/Bovine.sol\":1996:2009  return active */\n      swap1\n      pop\n        /* \"contracts/Bovine.sol\":1937:2017  function getActive() public view returns (bool) {\r... */\n      swap1\n      jump\t// out\n        /* \"contracts/Bovine.sol\":1068:1156  function setIDOwner(string memory _idOwner) public {\r... */\n    tag_32:\n        /* \"contracts/Bovine.sol\":1140:1148  _idOwner */\n      dup1\n        /* \"contracts/Bovine.sol\":1130:1137  idOwner */\n      0x00\n        /* \"contracts/Bovine.sol\":1130:1148  idOwner = _idOwner */\n      swap1\n      dup1\n      mload\n      swap1\n      0x20\n      add\n      swap1\n      tag_91\n      swap3\n      swap2\n      swap1\n      tag_92\n      jump\t// in\n    tag_91:\n      pop\n        /* \"contracts/Bovine.sol\":1068:1156  function setIDOwner(string memory _idOwner) public {\r... */\n      pop\n      jump\t// out\n        /* \"contracts/Bovine.sol\":2467:2577  function setIDBovineParent2(int _idBovineParent2) public {\r... */\n    tag_36:\n        /* \"contracts/Bovine.sol\":2553:2569  _idBovineParent2 */\n      dup1\n        /* \"contracts/Bovine.sol\":2535:2550  idBovineParent2 */\n      0x07\n        /* \"contracts/Bovine.sol\":2535:2569  idBovineParent2 = _idBovineParent2 */\n      dup2\n      swap1\n      sstore\n      pop\n        /* \"contracts/Bovine.sol\":2467:2577  function setIDBovineParent2(int _idBovineParent2) public {\r... */\n      pop\n      jump\t// out\n        /* \"contracts/Bovine.sol\":2690:2765  function setGender(bool _gender) public {\r... */\n    tag_40:\n        /* \"contracts/Bovine.sol\":2750:2757  _gender */\n      dup1\n        /* \"contracts/Bovine.sol\":2741:2747  gender */\n      0x08\n      0x00\n        /* \"contracts/Bovine.sol\":2741:2757  gender = _gender */\n      0x0100\n      exp\n      dup2\n      sload\n      dup2\n      0xff\n      mul\n      not\n      and\n      swap1\n      dup4\n      iszero\n      iszero\n      mul\n      or\n      swap1\n      sstore\n      pop\n        /* \"contracts/Bovine.sol\":2690:2765  function setGender(bool _gender) public {\r... */\n      pop\n      jump\t// out\n        /* \"contracts/Bovine.sol\":1544:1635  function getSerialNumber() public view returns (int) {\r... */\n    tag_42:\n        /* \"contracts/Bovine.sol\":1592:1595  int */\n      0x00\n        /* \"contracts/Bovine.sol\":1615:1627  serialNumber */\n      sload(0x02)\n        /* \"contracts/Bovine.sol\":1608:1627  return serialNumber */\n      swap1\n      pop\n        /* \"contracts/Bovine.sol\":1544:1635  function getSerialNumber() public view returns (int) {\r... */\n      swap1\n      jump\t// out\n        /* \"contracts/Bovine.sol\":2025:2129  function setObservation(string memory _observation) public {\r... */\n    tag_47:\n        /* \"contracts/Bovine.sol\":2109:2121  _observation */\n      dup1\n        /* \"contracts/Bovine.sol\":2095:2106  observation */\n      0x05\n        /* \"contracts/Bovine.sol\":2095:2121  observation = _observation */\n      swap1\n      dup1\n      mload\n      swap1\n      0x20\n      add\n      swap1\n      tag_97\n      swap3\n      swap2\n      swap1\n      tag_92\n      jump\t// in\n    tag_97:\n      pop\n        /* \"contracts/Bovine.sol\":2025:2129  function setObservation(string memory _observation) public {\r... */\n      pop\n      jump\t// out\n        /* \"contracts/Bovine.sol\":1438:1536  function setSerialNumber(int _serialNumber) public {\r... */\n    tag_50:\n        /* \"contracts/Bovine.sol\":1515:1528  _serialNumber */\n      dup1\n        /* \"contracts/Bovine.sol\":1500:1512  serialNumber */\n      0x02\n        /* \"contracts/Bovine.sol\":1500:1528  serialNumber = _serialNumber */\n      dup2\n      swap1\n      sstore\n      pop\n        /* \"contracts/Bovine.sol\":1438:1536  function setSerialNumber(int _serialNumber) public {\r... */\n      pop\n      jump\t// out\n        /* \"contracts/Bovine.sol\":1349:1430  function getIDField() public view returns (int) {\r... */\n    tag_52:\n        /* \"contracts/Bovine.sol\":1392:1395  int */\n      0x00\n        /* \"contracts/Bovine.sol\":1415:1422  idField */\n      sload(0x01)\n        /* \"contracts/Bovine.sol\":1408:1422  return idField */\n      swap1\n      pop\n        /* \"contracts/Bovine.sol\":1349:1430  function getIDField() public view returns (int) {\r... */\n      swap1\n      jump\t// out\n        /* \"contracts/Bovine.sol\":2137:2236  function getObservation() public view returns (string memory) {\r... */\n    tag_55:\n        /* \"contracts/Bovine.sol\":2184:2197  string memory */\n      0x60\n        /* \"contracts/Bovine.sol\":2217:2228  observation */\n      0x05\n        /* \"contracts/Bovine.sol\":2210:2228  return observation */\n      dup1\n      sload\n      tag_101\n      swap1\n      tag_102\n      jump\t// in\n    tag_101:\n      dup1\n      0x1f\n      add\n      0x20\n      dup1\n      swap2\n      div\n      mul\n      0x20\n      add\n      mload(0x40)\n      swap1\n      dup2\n      add\n      0x40\n      mstore\n      dup1\n      swap3\n      swap2\n      swap1\n      dup2\n      dup2\n      mstore\n      0x20\n      add\n      dup3\n      dup1\n      sload\n      tag_103\n      swap1\n      tag_102\n      jump\t// in\n    tag_103:\n      dup1\n      iszero\n      tag_104\n      jumpi\n      dup1\n      0x1f\n      lt\n      tag_105\n      jumpi\n      0x0100\n      dup1\n      dup4\n      sload\n      div\n      mul\n      dup4\n      mstore\n      swap2\n      0x20\n      add\n      swap2\n      jump(tag_104)\n    tag_105:\n      dup3\n      add\n      swap2\n      swap1\n      0x00\n      mstore\n      keccak256(0x00, 0x20)\n      swap1\n    tag_106:\n      dup2\n      sload\n      dup2\n      mstore\n      swap1\n      0x01\n      add\n      swap1\n      0x20\n      add\n      dup1\n      dup4\n      gt\n      tag_106\n      jumpi\n      dup3\n      swap1\n      sub\n      0x1f\n      and\n      dup3\n      add\n      swap2\n    tag_104:\n      pop\n      pop\n      pop\n      pop\n      pop\n      swap1\n      pop\n        /* \"contracts/Bovine.sol\":2137:2236  function getObservation() public view returns (string memory) {\r... */\n      swap1\n      jump\t// out\n        /* \"contracts/Bovine.sol\":1263:1341  function setIDField(int _idField) public {\r... */\n    tag_60:\n        /* \"contracts/Bovine.sol\":1325:1333  _idField */\n      dup1\n        /* \"contracts/Bovine.sol\":1315:1322  idField */\n      0x01\n        /* \"contracts/Bovine.sol\":1315:1333  idField = _idField */\n      dup2\n      swap1\n      sstore\n      pop\n        /* \"contracts/Bovine.sol\":1263:1341  function setIDField(int _idField) public {\r... */\n      pop\n      jump\t// out\n        /* \"contracts/Bovine.sol\":2773:2853  function getGender() public view returns (bool) {\r... */\n    tag_62:\n        /* \"contracts/Bovine.sol\":2815:2819  bool */\n      0x00\n        /* \"contracts/Bovine.sol\":2839:2845  gender */\n      0x08\n      0x00\n      swap1\n      sload\n      swap1\n      0x0100\n      exp\n      swap1\n      div\n      0xff\n      and\n        /* \"contracts/Bovine.sol\":2832:2845  return gender */\n      swap1\n      pop\n        /* \"contracts/Bovine.sol\":2773:2853  function getGender() public view returns (bool) {\r... */\n      swap1\n      jump\t// out\n        /* \"contracts/Bovine.sol\":867:1060  function setUpdate(string memory _idOwner, bool _active, string memory _observation) public {\r... */\n    tag_67:\n        /* \"contracts/Bovine.sol\":980:988  _idOwner */\n      dup3\n        /* \"contracts/Bovine.sol\":970:977  idOwner */\n      0x00\n        /* \"contracts/Bovine.sol\":970:988  idOwner = _idOwner */\n      swap1\n      dup1\n      mload\n      swap1\n      0x20\n      add\n      swap1\n      tag_110\n      swap3\n      swap2\n      swap1\n      tag_92\n      jump\t// in\n    tag_110:\n      pop\n        /* \"contracts/Bovine.sol\":1008:1015  _active */\n      dup2\n        /* \"contracts/Bovine.sol\":999:1005  active */\n      0x04\n      0x00\n        /* \"contracts/Bovine.sol\":999:1015  active = _active */\n      0x0100\n      exp\n      dup2\n      sload\n      dup2\n      0xff\n      mul\n      not\n      and\n      swap1\n      dup4\n      iszero\n      iszero\n      mul\n      or\n      swap1\n      sstore\n      pop\n        /* \"contracts/Bovine.sol\":1040:1052  _observation */\n      dup1\n        /* \"contracts/Bovine.sol\":1026:1037  observation */\n      0x05\n        /* \"contracts/Bovine.sol\":1026:1052  observation = _observation */\n      swap1\n      dup1\n      mload\n      swap1\n      0x20\n      add\n      swap1\n      tag_111\n      swap3\n      swap2\n      swap1\n      tag_92\n      jump\t// in\n    tag_111:\n      pop\n        /* \"contracts/Bovine.sol\":867:1060  function setUpdate(string memory _idOwner, bool _active, string memory _observation) public {\r... */\n      pop\n      pop\n      pop\n      jump\t// out\n        /* \"contracts/Bovine.sol\":2244:2354  function setIDBovineParent1(int _idBovineParent1) public {\r... */\n    tag_70:\n        /* \"contracts/Bovine.sol\":2330:2346  _idBovineParent1 */\n      dup1\n        /* \"contracts/Bovine.sol\":2312:2327  idBovineParent1 */\n      0x06\n        /* \"contracts/Bovine.sol\":2312:2346  idBovineParent1 = _idBovineParent1 */\n      dup2\n      swap1\n      sstore\n      pop\n        /* \"contracts/Bovine.sol\":2244:2354  function setIDBovineParent1(int _idBovineParent1) public {\r... */\n      pop\n      jump\t// out\n        /* \"contracts/Bovine.sol\":1854:1929  function setActive(bool _active) public {\r... */\n    tag_73:\n        /* \"contracts/Bovine.sol\":1914:1921  _active */\n      dup1\n        /* \"contracts/Bovine.sol\":1905:1911  active */\n      0x04\n      0x00\n        /* \"contracts/Bovine.sol\":1905:1921  active = _active */\n      0x0100\n      exp\n      dup2\n      sload\n      dup2\n      0xff\n      mul\n      not\n      and\n      swap1\n      dup4\n      iszero\n      iszero\n      mul\n      or\n      swap1\n      sstore\n      pop\n        /* \"contracts/Bovine.sol\":1854:1929  function setActive(bool _active) public {\r... */\n      pop\n      jump\t// out\n        /* \"contracts/Bovine.sol\":1751:1846  function getBirthDate() public view returns (string memory) {\r... */\n    tag_75:\n        /* \"contracts/Bovine.sol\":1796:1809  string memory */\n      0x60\n        /* \"contracts/Bovine.sol\":1829:1838  birthDate */\n      0x03\n        /* \"contracts/Bovine.sol\":1822:1838  return birthDate */\n      dup1\n      sload\n      tag_115\n      swap1\n      tag_102\n      jump\t// in\n    tag_115:\n      dup1\n      0x1f\n      add\n      0x20\n      dup1\n      swap2\n      div\n      mul\n      0x20\n      add\n      mload(0x40)\n      swap1\n      dup2\n      add\n      0x40\n      mstore\n      dup1\n      swap3\n      swap2\n      swap1\n      dup2\n      dup2\n      mstore\n      0x20\n      add\n      dup3\n      dup1\n      sload\n      tag_116\n      swap1\n      tag_102\n      jump\t// in\n    tag_116:\n      dup1\n      iszero\n      tag_117\n      jumpi\n      dup1\n      0x1f\n      lt\n      tag_118\n      jumpi\n      0x0100\n      dup1\n      dup4\n      sload\n      div\n      mul\n      dup4\n      mstore\n      swap2\n      0x20\n      add\n      swap2\n      jump(tag_117)\n    tag_118:\n      dup3\n      add\n      swap2\n      swap1\n      0x00\n      mstore\n      keccak256(0x00, 0x20)\n      swap1\n    tag_119:\n      dup2\n      sload\n      dup2\n      mstore\n      swap1\n      0x01\n      add\n      swap1\n      0x20\n      add\n      dup1\n      dup4\n      gt\n      tag_119\n      jumpi\n      dup3\n      swap1\n      sub\n      0x1f\n      and\n      dup3\n      add\n      swap2\n    tag_117:\n      pop\n      pop\n      pop\n      pop\n      pop\n      swap1\n      pop\n        /* \"contracts/Bovine.sol\":1751:1846  function getBirthDate() public view returns (string memory) {\r... */\n      swap1\n      jump\t// out\n        /* \"contracts/Bovine.sol\":1647:1743  function setBirthDate(string memory _birthDate) public {\r... */\n    tag_79:\n        /* \"contracts/Bovine.sol\":1725:1735  _birthDate */\n      dup1\n        /* \"contracts/Bovine.sol\":1713:1722  birthDate */\n      0x03\n        /* \"contracts/Bovine.sol\":1713:1735  birthDate = _birthDate */\n      swap1\n      dup1\n      mload\n      swap1\n      0x20\n      add\n      swap1\n      tag_121\n      swap3\n      swap2\n      swap1\n      tag_92\n      jump\t// in\n    tag_121:\n      pop\n        /* \"contracts/Bovine.sol\":1647:1743  function setBirthDate(string memory _birthDate) public {\r... */\n      pop\n      jump\t// out\n        /* \"contracts/Bovine.sol\":2585:2682  function getIDBovineParent2() public view returns (int) {\r... */\n    tag_81:\n        /* \"contracts/Bovine.sol\":2636:2639  int */\n      0x00\n        /* \"contracts/Bovine.sol\":2659:2674  idBovineParent2 */\n      sload(0x07)\n        /* \"contracts/Bovine.sol\":2652:2674  return idBovineParent2 */\n      swap1\n      pop\n        /* \"contracts/Bovine.sol\":2585:2682  function getIDBovineParent2() public view returns (int) {\r... */\n      swap1\n      jump\t// out\n        /* \"contracts/Bovine.sol\":1164:1255  function getIDOwner() public view returns (string memory) {\r... */\n    tag_84:\n        /* \"contracts/Bovine.sol\":1207:1220  string memory */\n      0x60\n        /* \"contracts/Bovine.sol\":1240:1247  idOwner */\n      0x00\n        /* \"contracts/Bovine.sol\":1233:1247  return idOwner */\n      dup1\n      sload\n      tag_124\n      swap1\n      tag_102\n      jump\t// in\n    tag_124:\n      dup1\n      0x1f\n      add\n      0x20\n      dup1\n      swap2\n      div\n      mul\n      0x20\n      add\n      mload(0x40)\n      swap1\n      dup2\n      add\n      0x40\n      mstore\n      dup1\n      swap3\n      swap2\n      swap1\n      dup2\n      dup2\n      mstore\n      0x20\n      add\n      dup3\n      dup1\n      sload\n      tag_125\n      swap1\n      tag_102\n      jump\t// in\n    tag_125:\n      dup1\n      iszero\n      tag_126\n      jumpi\n      dup1\n      0x1f\n      lt\n      tag_127\n      jumpi\n      0x0100\n      dup1\n      dup4\n      sload\n      div\n      mul\n      dup4\n      mstore\n      swap2\n      0x20\n      add\n      swap2\n      jump(tag_126)\n    tag_127:\n      dup3\n      add\n      swap2\n      swap1\n      0x00\n      mstore\n      keccak256(0x00, 0x20)\n      swap1\n    tag_128:\n      dup2\n      sload\n      dup2\n      mstore\n      swap1\n      0x01\n      add\n      swap1\n      0x20\n      add\n      dup1\n      dup4\n      gt\n      tag_128\n      jumpi\n      dup3\n      swap1\n      sub\n      0x1f\n      and\n      dup3\n      add\n      swap2\n    tag_126:\n      pop\n      pop\n      pop\n      pop\n      pop\n      swap1\n      pop\n        /* \"contracts/Bovine.sol\":1164:1255  function getIDOwner() public view returns (string memory) {\r... */\n      swap1\n      jump\t// out\n        /* \"contracts/Bovine.sol\":2362:2459  function getIDBovineParent1() public view returns (int) {\r... */\n    tag_87:\n        /* \"contracts/Bovine.sol\":2413:2416  int */\n      0x00\n        /* \"contracts/Bovine.sol\":2436:2451  idBovineParent1 */\n      sload(0x06)\n        /* \"contracts/Bovine.sol\":2429:2451  return idBovineParent1 */\n      swap1\n      pop\n        /* \"contracts/Bovine.sol\":2362:2459  function getIDBovineParent1() public view returns (int) {\r... */\n      swap1\n      jump\t// out\n    tag_92:\n      dup3\n      dup1\n      sload\n      tag_130\n      swap1\n      tag_102\n      jump\t// in\n    tag_130:\n      swap1\n      0x00\n      mstore\n      keccak256(0x00, 0x20)\n      swap1\n      0x1f\n      add\n      0x20\n      swap1\n      div\n      dup2\n      add\n      swap3\n      dup3\n      tag_132\n      jumpi\n      0x00\n      dup6\n      sstore\n      jump(tag_131)\n    tag_132:\n      dup3\n      0x1f\n      lt\n      tag_133\n      jumpi\n      dup1\n      mload\n      not(0xff)\n      and\n      dup4\n      dup1\n      add\n      or\n      dup6\n      sstore\n      jump(tag_131)\n    tag_133:\n      dup3\n      dup1\n      add\n      0x01\n      add\n      dup6\n      sstore\n      dup3\n      iszero\n      tag_131\n      jumpi\n      swap2\n      dup3\n      add\n    tag_134:\n      dup3\n      dup2\n      gt\n      iszero\n      tag_135\n      jumpi\n      dup3\n      mload\n      dup3\n      sstore\n      swap2\n      0x20\n      add\n      swap2\n      swap1\n      0x01\n      add\n      swap1\n      jump(tag_134)\n    tag_135:\n    tag_131:\n      pop\n      swap1\n      pop\n      tag_136\n      swap2\n      swap1\n      tag_137\n      jump\t// in\n    tag_136:\n      pop\n      swap1\n      jump\t// out\n    tag_137:\n    tag_138:\n      dup1\n      dup3\n      gt\n      iszero\n      tag_139\n      jumpi\n      0x00\n      dup2\n      0x00\n      swap1\n      sstore\n      pop\n      0x01\n      add\n      jump(tag_138)\n    tag_139:\n      pop\n      swap1\n      jump\t// out\n        /* \"#utility.yul\":7:419   */\n    tag_141:\n        /* \"#utility.yul\":85:90   */\n      0x00\n        /* \"#utility.yul\":110:176   */\n      tag_143\n        /* \"#utility.yul\":126:175   */\n      tag_144\n        /* \"#utility.yul\":168:174   */\n      dup5\n        /* \"#utility.yul\":126:175   */\n      tag_145\n      jump\t// in\n    tag_144:\n        /* \"#utility.yul\":110:176   */\n      tag_146\n      jump\t// in\n    tag_143:\n        /* \"#utility.yul\":101:176   */\n      swap1\n      pop\n        /* \"#utility.yul\":199:205   */\n      dup3\n        /* \"#utility.yul\":192:197   */\n      dup2\n        /* \"#utility.yul\":185:206   */\n      mstore\n        /* \"#utility.yul\":237:241   */\n      0x20\n        /* \"#utility.yul\":230:235   */\n      dup2\n        /* \"#utility.yul\":226:242   */\n      add\n        /* \"#utility.yul\":275:278   */\n      dup5\n        /* \"#utility.yul\":266:272   */\n      dup5\n        /* \"#utility.yul\":261:264   */\n      dup5\n        /* \"#utility.yul\":257:273   */\n      add\n        /* \"#utility.yul\":254:279   */\n      gt\n        /* \"#utility.yul\":251:363   */\n      iszero\n      tag_147\n      jumpi\n        /* \"#utility.yul\":282:361   */\n      tag_148\n      tag_149\n      jump\t// in\n    tag_148:\n        /* \"#utility.yul\":251:363   */\n    tag_147:\n        /* \"#utility.yul\":372:413   */\n      tag_150\n        /* \"#utility.yul\":406:412   */\n      dup5\n        /* \"#utility.yul\":401:404   */\n      dup3\n        /* \"#utility.yul\":396:399   */\n      dup6\n        /* \"#utility.yul\":372:413   */\n      tag_151\n      jump\t// in\n    tag_150:\n        /* \"#utility.yul\":91:419   */\n      pop\n        /* \"#utility.yul\":7:419   */\n      swap4\n      swap3\n      pop\n      pop\n      pop\n      jump\t// out\n        /* \"#utility.yul\":425:558   */\n    tag_152:\n        /* \"#utility.yul\":468:473   */\n      0x00\n        /* \"#utility.yul\":506:512   */\n      dup2\n        /* \"#utility.yul\":493:513   */\n      calldataload\n        /* \"#utility.yul\":484:513   */\n      swap1\n      pop\n        /* \"#utility.yul\":522:552   */\n      tag_154\n        /* \"#utility.yul\":546:551   */\n      dup2\n        /* \"#utility.yul\":522:552   */\n      tag_155\n      jump\t// in\n    tag_154:\n        /* \"#utility.yul\":425:558   */\n      swap3\n      swap2\n      pop\n      pop\n      jump\t// out\n        /* \"#utility.yul\":564:701   */\n    tag_156:\n        /* \"#utility.yul\":609:614   */\n      0x00\n        /* \"#utility.yul\":647:653   */\n      dup2\n        /* \"#utility.yul\":634:654   */\n      calldataload\n        /* \"#utility.yul\":625:654   */\n      swap1\n      pop\n        /* \"#utility.yul\":663:695   */\n      tag_158\n        /* \"#utility.yul\":689:694   */\n      dup2\n        /* \"#utility.yul\":663:695   */\n      tag_159\n      jump\t// in\n    tag_158:\n        /* \"#utility.yul\":564:701   */\n      swap3\n      swap2\n      pop\n      pop\n      jump\t// out\n        /* \"#utility.yul\":721:1061   */\n    tag_160:\n        /* \"#utility.yul\":777:782   */\n      0x00\n        /* \"#utility.yul\":826:829   */\n      dup3\n        /* \"#utility.yul\":819:823   */\n      0x1f\n        /* \"#utility.yul\":811:817   */\n      dup4\n        /* \"#utility.yul\":807:824   */\n      add\n        /* \"#utility.yul\":803:830   */\n      slt\n        /* \"#utility.yul\":793:915   */\n      tag_162\n      jumpi\n        /* \"#utility.yul\":834:913   */\n      tag_163\n      tag_164\n      jump\t// in\n    tag_163:\n        /* \"#utility.yul\":793:915   */\n    tag_162:\n        /* \"#utility.yul\":951:957   */\n      dup2\n        /* \"#utility.yul\":938:958   */\n      calldataload\n        /* \"#utility.yul\":976:1055   */\n      tag_165\n        /* \"#utility.yul\":1051:1054   */\n      dup5\n        /* \"#utility.yul\":1043:1049   */\n      dup3\n        /* \"#utility.yul\":1036:1040   */\n      0x20\n        /* \"#utility.yul\":1028:1034   */\n      dup7\n        /* \"#utility.yul\":1024:1041   */\n      add\n        /* \"#utility.yul\":976:1055   */\n      tag_141\n      jump\t// in\n    tag_165:\n        /* \"#utility.yul\":967:1055   */\n      swap2\n      pop\n        /* \"#utility.yul\":783:1061   */\n      pop\n        /* \"#utility.yul\":721:1061   */\n      swap3\n      swap2\n      pop\n      pop\n      jump\t// out\n        /* \"#utility.yul\":1067:1390   */\n    tag_39:\n        /* \"#utility.yul\":1123:1129   */\n      0x00\n        /* \"#utility.yul\":1172:1174   */\n      0x20\n        /* \"#utility.yul\":1160:1169   */\n      dup3\n        /* \"#utility.yul\":1151:1158   */\n      dup5\n        /* \"#utility.yul\":1147:1170   */\n      sub\n        /* \"#utility.yul\":1143:1175   */\n      slt\n        /* \"#utility.yul\":1140:1259   */\n      iszero\n      tag_167\n      jumpi\n        /* \"#utility.yul\":1178:1257   */\n      tag_168\n      tag_169\n      jump\t// in\n    tag_168:\n        /* \"#utility.yul\":1140:1259   */\n    tag_167:\n        /* \"#utility.yul\":1298:1299   */\n      0x00\n        /* \"#utility.yul\":1323:1373   */\n      tag_170\n        /* \"#utility.yul\":1365:1372   */\n      dup5\n        /* \"#utility.yul\":1356:1362   */\n      dup3\n        /* \"#utility.yul\":1345:1354   */\n      dup6\n        /* \"#utility.yul\":1341:1363   */\n      add\n        /* \"#utility.yul\":1323:1373   */\n      tag_152\n      jump\t// in\n    tag_170:\n        /* \"#utility.yul\":1313:1373   */\n      swap2\n      pop\n        /* \"#utility.yul\":1269:1383   */\n      pop\n        /* \"#utility.yul\":1067:1390   */\n      swap3\n      swap2\n      pop\n      pop\n      jump\t// out\n        /* \"#utility.yul\":1396:1723   */\n    tag_35:\n        /* \"#utility.yul\":1454:1460   */\n      0x00\n        /* \"#utility.yul\":1503:1505   */\n      0x20\n        /* \"#utility.yul\":1491:1500   */\n      dup3\n        /* \"#utility.yul\":1482:1489   */\n      dup5\n        /* \"#utility.yul\":1478:1501   */\n      sub\n        /* \"#utility.yul\":1474:1506   */\n      slt\n        /* \"#utility.yul\":1471:1590   */\n      iszero\n      tag_172\n      jumpi\n        /* \"#utility.yul\":1509:1588   */\n      tag_173\n      tag_169\n      jump\t// in\n    tag_173:\n        /* \"#utility.yul\":1471:1590   */\n    tag_172:\n        /* \"#utility.yul\":1629:1630   */\n      0x00\n        /* \"#utility.yul\":1654:1706   */\n      tag_174\n        /* \"#utility.yul\":1698:1705   */\n      dup5\n        /* \"#utility.yul\":1689:1695   */\n      dup3\n        /* \"#utility.yul\":1678:1687   */\n      dup6\n        /* \"#utility.yul\":1674:1696   */\n      add\n        /* \"#utility.yul\":1654:1706   */\n      tag_156\n      jump\t// in\n    tag_174:\n        /* \"#utility.yul\":1644:1706   */\n      swap2\n      pop\n        /* \"#utility.yul\":1600:1716   */\n      pop\n        /* \"#utility.yul\":1396:1723   */\n      swap3\n      swap2\n      pop\n      pop\n      jump\t// out\n        /* \"#utility.yul\":1729:2238   */\n    tag_31:\n        /* \"#utility.yul\":1798:1804   */\n      0x00\n        /* \"#utility.yul\":1847:1849   */\n      0x20\n        /* \"#utility.yul\":1835:1844   */\n      dup3\n        /* \"#utility.yul\":1826:1833   */\n      dup5\n        /* \"#utility.yul\":1822:1845   */\n      sub\n        /* \"#utility.yul\":1818:1850   */\n      slt\n        /* \"#utility.yul\":1815:1934   */\n      iszero\n      tag_176\n      jumpi\n        /* \"#utility.yul\":1853:1932   */\n      tag_177\n      tag_169\n      jump\t// in\n    tag_177:\n        /* \"#utility.yul\":1815:1934   */\n    tag_176:\n        /* \"#utility.yul\":2001:2002   */\n      0x00\n        /* \"#utility.yul\":1990:1999   */\n      dup3\n        /* \"#utility.yul\":1986:2003   */\n      add\n        /* \"#utility.yul\":1973:2004   */\n      calldataload\n        /* \"#utility.yul\":2031:2049   */\n      0xffffffffffffffff\n        /* \"#utility.yul\":2023:2029   */\n      dup2\n        /* \"#utility.yul\":2020:2050   */\n      gt\n        /* \"#utility.yul\":2017:2134   */\n      iszero\n      tag_178\n      jumpi\n        /* \"#utility.yul\":2053:2132   */\n      tag_179\n      tag_180\n      jump\t// in\n    tag_179:\n        /* \"#utility.yul\":2017:2134   */\n    tag_178:\n        /* \"#utility.yul\":2158:2221   */\n      tag_181\n        /* \"#utility.yul\":2213:2220   */\n      dup5\n        /* \"#utility.yul\":2204:2210   */\n      dup3\n        /* \"#utility.yul\":2193:2202   */\n      dup6\n        /* \"#utility.yul\":2189:2211   */\n      add\n        /* \"#utility.yul\":2158:2221   */\n      tag_160\n      jump\t// in\n    tag_181:\n        /* \"#utility.yul\":2148:2221   */\n      swap2\n      pop\n        /* \"#utility.yul\":1944:2231   */\n      pop\n        /* \"#utility.yul\":1729:2238   */\n      swap3\n      swap2\n      pop\n      pop\n      jump\t// out\n        /* \"#utility.yul\":2244:3217   */\n    tag_66:\n        /* \"#utility.yul\":2338:2344   */\n      0x00\n        /* \"#utility.yul\":2346:2352   */\n      dup1\n        /* \"#utility.yul\":2354:2360   */\n      0x00\n        /* \"#utility.yul\":2403:2405   */\n      0x60\n        /* \"#utility.yul\":2391:2400   */\n      dup5\n        /* \"#utility.yul\":2382:2389   */\n      dup7\n        /* \"#utility.yul\":2378:2401   */\n      sub\n        /* \"#utility.yul\":2374:2406   */\n      slt\n        /* \"#utility.yul\":2371:2490   */\n      iszero\n      tag_183\n      jumpi\n        /* \"#utility.yul\":2409:2488   */\n      tag_184\n      tag_169\n      jump\t// in\n    tag_184:\n        /* \"#utility.yul\":2371:2490   */\n    tag_183:\n        /* \"#utility.yul\":2557:2558   */\n      0x00\n        /* \"#utility.yul\":2546:2555   */\n      dup5\n        /* \"#utility.yul\":2542:2559   */\n      add\n        /* \"#utility.yul\":2529:2560   */\n      calldataload\n        /* \"#utility.yul\":2587:2605   */\n      0xffffffffffffffff\n        /* \"#utility.yul\":2579:2585   */\n      dup2\n        /* \"#utility.yul\":2576:2606   */\n      gt\n        /* \"#utility.yul\":2573:2690   */\n      iszero\n      tag_185\n      jumpi\n        /* \"#utility.yul\":2609:2688   */\n      tag_186\n      tag_180\n      jump\t// in\n    tag_186:\n        /* \"#utility.yul\":2573:2690   */\n    tag_185:\n        /* \"#utility.yul\":2714:2777   */\n      tag_187\n        /* \"#utility.yul\":2769:2776   */\n      dup7\n        /* \"#utility.yul\":2760:2766   */\n      dup3\n        /* \"#utility.yul\":2749:2758   */\n      dup8\n        /* \"#utility.yul\":2745:2767   */\n      add\n        /* \"#utility.yul\":2714:2777   */\n      tag_160\n      jump\t// in\n    tag_187:\n        /* \"#utility.yul\":2704:2777   */\n      swap4\n      pop\n        /* \"#utility.yul\":2500:2787   */\n      pop\n        /* \"#utility.yul\":2826:2828   */\n      0x20\n        /* \"#utility.yul\":2852:2902   */\n      tag_188\n        /* \"#utility.yul\":2894:2901   */\n      dup7\n        /* \"#utility.yul\":2885:2891   */\n      dup3\n        /* \"#utility.yul\":2874:2883   */\n      dup8\n        /* \"#utility.yul\":2870:2892   */\n      add\n        /* \"#utility.yul\":2852:2902   */\n      tag_152\n      jump\t// in\n    tag_188:\n        /* \"#utility.yul\":2842:2902   */\n      swap3\n      pop\n        /* \"#utility.yul\":2797:2912   */\n      pop\n        /* \"#utility.yul\":2979:2981   */\n      0x40\n        /* \"#utility.yul\":2968:2977   */\n      dup5\n        /* \"#utility.yul\":2964:2982   */\n      add\n        /* \"#utility.yul\":2951:2983   */\n      calldataload\n        /* \"#utility.yul\":3010:3028   */\n      0xffffffffffffffff\n        /* \"#utility.yul\":3002:3008   */\n      dup2\n        /* \"#utility.yul\":2999:3029   */\n      gt\n        /* \"#utility.yul\":2996:3113   */\n      iszero\n      tag_189\n      jumpi\n        /* \"#utility.yul\":3032:3111   */\n      tag_190\n      tag_180\n      jump\t// in\n    tag_190:\n        /* \"#utility.yul\":2996:3113   */\n    tag_189:\n        /* \"#utility.yul\":3137:3200   */\n      tag_191\n        /* \"#utility.yul\":3192:3199   */\n      dup7\n        /* \"#utility.yul\":3183:3189   */\n      dup3\n        /* \"#utility.yul\":3172:3181   */\n      dup8\n        /* \"#utility.yul\":3168:3190   */\n      add\n        /* \"#utility.yul\":3137:3200   */\n      tag_160\n      jump\t// in\n    tag_191:\n        /* \"#utility.yul\":3127:3200   */\n      swap2\n      pop\n        /* \"#utility.yul\":2922:3210   */\n      pop\n        /* \"#utility.yul\":2244:3217   */\n      swap3\n      pop\n      swap3\n      pop\n      swap3\n      jump\t// out\n        /* \"#utility.yul\":3223:3332   */\n    tag_192:\n        /* \"#utility.yul\":3304:3325   */\n      tag_194\n        /* \"#utility.yul\":3319:3324   */\n      dup2\n        /* \"#utility.yul\":3304:3325   */\n      tag_195\n      jump\t// in\n    tag_194:\n        /* \"#utility.yul\":3299:3302   */\n      dup3\n        /* \"#utility.yul\":3292:3326   */\n      mstore\n        /* \"#utility.yul\":3223:3332   */\n      pop\n      pop\n      jump\t// out\n        /* \"#utility.yul\":3338:3453   */\n    tag_196:\n        /* \"#utility.yul\":3423:3446   */\n      tag_198\n        /* \"#utility.yul\":3440:3445   */\n      dup2\n        /* \"#utility.yul\":3423:3446   */\n      tag_199\n      jump\t// in\n    tag_198:\n        /* \"#utility.yul\":3418:3421   */\n      dup3\n        /* \"#utility.yul\":3411:3447   */\n      mstore\n        /* \"#utility.yul\":3338:3453   */\n      pop\n      pop\n      jump\t// out\n        /* \"#utility.yul\":3459:3823   */\n    tag_200:\n        /* \"#utility.yul\":3547:3550   */\n      0x00\n        /* \"#utility.yul\":3575:3614   */\n      tag_202\n        /* \"#utility.yul\":3608:3613   */\n      dup3\n        /* \"#utility.yul\":3575:3614   */\n      tag_203\n      jump\t// in\n    tag_202:\n        /* \"#utility.yul\":3630:3701   */\n      tag_204\n        /* \"#utility.yul\":3694:3700   */\n      dup2\n        /* \"#utility.yul\":3689:3692   */\n      dup6\n        /* \"#utility.yul\":3630:3701   */\n      tag_205\n      jump\t// in\n    tag_204:\n        /* \"#utility.yul\":3623:3701   */\n      swap4\n      pop\n        /* \"#utility.yul\":3710:3762   */\n      tag_206\n        /* \"#utility.yul\":3755:3761   */\n      dup2\n        /* \"#utility.yul\":3750:3753   */\n      dup6\n        /* \"#utility.yul\":3743:3747   */\n      0x20\n        /* \"#utility.yul\":3736:3741   */\n      dup7\n        /* \"#utility.yul\":3732:3748   */\n      add\n        /* \"#utility.yul\":3710:3762   */\n      tag_207\n      jump\t// in\n    tag_206:\n        /* \"#utility.yul\":3787:3816   */\n      tag_208\n        /* \"#utility.yul\":3809:3815   */\n      dup2\n        /* \"#utility.yul\":3787:3816   */\n      tag_209\n      jump\t// in\n    tag_208:\n        /* \"#utility.yul\":3782:3785   */\n      dup5\n        /* \"#utility.yul\":3778:3817   */\n      add\n        /* \"#utility.yul\":3771:3817   */\n      swap2\n      pop\n        /* \"#utility.yul\":3551:3823   */\n      pop\n        /* \"#utility.yul\":3459:3823   */\n      swap3\n      swap2\n      pop\n      pop\n      jump\t// out\n        /* \"#utility.yul\":3829:4039   */\n    tag_28:\n        /* \"#utility.yul\":3916:3920   */\n      0x00\n        /* \"#utility.yul\":3954:3956   */\n      0x20\n        /* \"#utility.yul\":3943:3952   */\n      dup3\n        /* \"#utility.yul\":3939:3957   */\n      add\n        /* \"#utility.yul\":3931:3957   */\n      swap1\n      pop\n        /* \"#utility.yul\":3967:4032   */\n      tag_211\n        /* \"#utility.yul\":4029:4030   */\n      0x00\n        /* \"#utility.yul\":4018:4027   */\n      dup4\n        /* \"#utility.yul\":4014:4031   */\n      add\n        /* \"#utility.yul\":4005:4011   */\n      dup5\n        /* \"#utility.yul\":3967:4032   */\n      tag_192\n      jump\t// in\n    tag_211:\n        /* \"#utility.yul\":3829:4039   */\n      swap3\n      swap2\n      pop\n      pop\n      jump\t// out\n        /* \"#utility.yul\":4045:4263   */\n    tag_44:\n        /* \"#utility.yul\":4136:4140   */\n      0x00\n        /* \"#utility.yul\":4174:4176   */\n      0x20\n        /* \"#utility.yul\":4163:4172   */\n      dup3\n        /* \"#utility.yul\":4159:4177   */\n      add\n        /* \"#utility.yul\":4151:4177   */\n      swap1\n      pop\n        /* \"#utility.yul\":4187:4256   */\n      tag_213\n        /* \"#utility.yul\":4253:4254   */\n      0x00\n        /* \"#utility.yul\":4242:4251   */\n      dup4\n        /* \"#utility.yul\":4238:4255   */\n      add\n        /* \"#utility.yul\":4229:4235   */\n      dup5\n        /* \"#utility.yul\":4187:4256   */\n      tag_196\n      jump\t// in\n    tag_213:\n        /* \"#utility.yul\":4045:4263   */\n      swap3\n      swap2\n      pop\n      pop\n      jump\t// out\n        /* \"#utility.yul\":4269:4582   */\n    tag_57:\n        /* \"#utility.yul\":4382:4386   */\n      0x00\n        /* \"#utility.yul\":4420:4422   */\n      0x20\n        /* \"#utility.yul\":4409:4418   */\n      dup3\n        /* \"#utility.yul\":4405:4423   */\n      add\n        /* \"#utility.yul\":4397:4423   */\n      swap1\n      pop\n        /* \"#utility.yul\":4469:4478   */\n      dup2\n        /* \"#utility.yul\":4463:4467   */\n      dup2\n        /* \"#utility.yul\":4459:4479   */\n      sub\n        /* \"#utility.yul\":4455:4456   */\n      0x00\n        /* \"#utility.yul\":4444:4453   */\n      dup4\n        /* \"#utility.yul\":4440:4457   */\n      add\n        /* \"#utility.yul\":4433:4480   */\n      mstore\n        /* \"#utility.yul\":4497:4575   */\n      tag_215\n        /* \"#utility.yul\":4570:4574   */\n      dup2\n        /* \"#utility.yul\":4561:4567   */\n      dup5\n        /* \"#utility.yul\":4497:4575   */\n      tag_200\n      jump\t// in\n    tag_215:\n        /* \"#utility.yul\":4489:4575   */\n      swap1\n      pop\n        /* \"#utility.yul\":4269:4582   */\n      swap3\n      swap2\n      pop\n      pop\n      jump\t// out\n        /* \"#utility.yul\":4588:4717   */\n    tag_146:\n        /* \"#utility.yul\":4622:4628   */\n      0x00\n        /* \"#utility.yul\":4649:4669   */\n      tag_217\n      tag_218\n      jump\t// in\n    tag_217:\n        /* \"#utility.yul\":4639:4669   */\n      swap1\n      pop\n        /* \"#utility.yul\":4678:4711   */\n      tag_219\n        /* \"#utility.yul\":4706:4710   */\n      dup3\n        /* \"#utility.yul\":4698:4704   */\n      dup3\n        /* \"#utility.yul\":4678:4711   */\n      tag_220\n      jump\t// in\n    tag_219:\n        /* \"#utility.yul\":4588:4717   */\n      swap2\n      swap1\n      pop\n      jump\t// out\n        /* \"#utility.yul\":4723:4798   */\n    tag_218:\n        /* \"#utility.yul\":4756:4762   */\n      0x00\n        /* \"#utility.yul\":4789:4791   */\n      0x40\n        /* \"#utility.yul\":4783:4792   */\n      mload\n        /* \"#utility.yul\":4773:4792   */\n      swap1\n      pop\n        /* \"#utility.yul\":4723:4798   */\n      swap1\n      jump\t// out\n        /* \"#utility.yul\":4804:5112   */\n    tag_145:\n        /* \"#utility.yul\":4866:4870   */\n      0x00\n        /* \"#utility.yul\":4956:4974   */\n      0xffffffffffffffff\n        /* \"#utility.yul\":4948:4954   */\n      dup3\n        /* \"#utility.yul\":4945:4975   */\n      gt\n        /* \"#utility.yul\":4942:4998   */\n      iszero\n      tag_223\n      jumpi\n        /* \"#utility.yul\":4978:4996   */\n      tag_224\n      tag_225\n      jump\t// in\n    tag_224:\n        /* \"#utility.yul\":4942:4998   */\n    tag_223:\n        /* \"#utility.yul\":5016:5045   */\n      tag_226\n        /* \"#utility.yul\":5038:5044   */\n      dup3\n        /* \"#utility.yul\":5016:5045   */\n      tag_209\n      jump\t// in\n    tag_226:\n        /* \"#utility.yul\":5008:5045   */\n      swap1\n      pop\n        /* \"#utility.yul\":5100:5104   */\n      0x20\n        /* \"#utility.yul\":5094:5098   */\n      dup2\n        /* \"#utility.yul\":5090:5105   */\n      add\n        /* \"#utility.yul\":5082:5105   */\n      swap1\n      pop\n        /* \"#utility.yul\":4804:5112   */\n      swap2\n      swap1\n      pop\n      jump\t// out\n        /* \"#utility.yul\":5118:5217   */\n    tag_203:\n        /* \"#utility.yul\":5170:5176   */\n      0x00\n        /* \"#utility.yul\":5204:5209   */\n      dup2\n        /* \"#utility.yul\":5198:5210   */\n      mload\n        /* \"#utility.yul\":5188:5210   */\n      swap1\n      pop\n        /* \"#utility.yul\":5118:5217   */\n      swap2\n      swap1\n      pop\n      jump\t// out\n        /* \"#utility.yul\":5223:5392   */\n    tag_205:\n        /* \"#utility.yul\":5307:5318   */\n      0x00\n        /* \"#utility.yul\":5341:5347   */\n      dup3\n        /* \"#utility.yul\":5336:5339   */\n      dup3\n        /* \"#utility.yul\":5329:5348   */\n      mstore\n        /* \"#utility.yul\":5381:5385   */\n      0x20\n        /* \"#utility.yul\":5376:5379   */\n      dup3\n        /* \"#utility.yul\":5372:5386   */\n      add\n        /* \"#utility.yul\":5357:5386   */\n      swap1\n      pop\n        /* \"#utility.yul\":5223:5392   */\n      swap3\n      swap2\n      pop\n      pop\n      jump\t// out\n        /* \"#utility.yul\":5398:5488   */\n    tag_195:\n        /* \"#utility.yul\":5432:5439   */\n      0x00\n        /* \"#utility.yul\":5475:5480   */\n      dup2\n        /* \"#utility.yul\":5468:5481   */\n      iszero\n        /* \"#utility.yul\":5461:5482   */\n      iszero\n        /* \"#utility.yul\":5450:5482   */\n      swap1\n      pop\n        /* \"#utility.yul\":5398:5488   */\n      swap2\n      swap1\n      pop\n      jump\t// out\n        /* \"#utility.yul\":5494:5570   */\n    tag_199:\n        /* \"#utility.yul\":5530:5537   */\n      0x00\n        /* \"#utility.yul\":5559:5564   */\n      dup2\n        /* \"#utility.yul\":5548:5564   */\n      swap1\n      pop\n        /* \"#utility.yul\":5494:5570   */\n      swap2\n      swap1\n      pop\n      jump\t// out\n        /* \"#utility.yul\":5576:5730   */\n    tag_151:\n        /* \"#utility.yul\":5660:5666   */\n      dup3\n        /* \"#utility.yul\":5655:5658   */\n      dup2\n        /* \"#utility.yul\":5650:5653   */\n      dup4\n        /* \"#utility.yul\":5637:5667   */\n      calldatacopy\n        /* \"#utility.yul\":5722:5723   */\n      0x00\n        /* \"#utility.yul\":5713:5719   */\n      dup4\n        /* \"#utility.yul\":5708:5711   */\n      dup4\n        /* \"#utility.yul\":5704:5720   */\n      add\n        /* \"#utility.yul\":5697:5724   */\n      mstore\n        /* \"#utility.yul\":5576:5730   */\n      pop\n      pop\n      pop\n      jump\t// out\n        /* \"#utility.yul\":5736:6043   */\n    tag_207:\n        /* \"#utility.yul\":5804:5805   */\n      0x00\n        /* \"#utility.yul\":5814:5927   */\n    tag_233:\n        /* \"#utility.yul\":5828:5834   */\n      dup4\n        /* \"#utility.yul\":5825:5826   */\n      dup2\n        /* \"#utility.yul\":5822:5835   */\n      lt\n        /* \"#utility.yul\":5814:5927   */\n      iszero\n      tag_235\n      jumpi\n        /* \"#utility.yul\":5913:5914   */\n      dup1\n        /* \"#utility.yul\":5908:5911   */\n      dup3\n        /* \"#utility.yul\":5904:5915   */\n      add\n        /* \"#utility.yul\":5898:5916   */\n      mload\n        /* \"#utility.yul\":5894:5895   */\n      dup2\n        /* \"#utility.yul\":5889:5892   */\n      dup5\n        /* \"#utility.yul\":5885:5896   */\n      add\n        /* \"#utility.yul\":5878:5917   */\n      mstore\n        /* \"#utility.yul\":5850:5852   */\n      0x20\n        /* \"#utility.yul\":5847:5848   */\n      dup2\n        /* \"#utility.yul\":5843:5853   */\n      add\n        /* \"#utility.yul\":5838:5853   */\n      swap1\n      pop\n        /* \"#utility.yul\":5814:5927   */\n      jump(tag_233)\n    tag_235:\n        /* \"#utility.yul\":5945:5951   */\n      dup4\n        /* \"#utility.yul\":5942:5943   */\n      dup2\n        /* \"#utility.yul\":5939:5952   */\n      gt\n        /* \"#utility.yul\":5936:6037   */\n      iszero\n      tag_236\n      jumpi\n        /* \"#utility.yul\":6025:6026   */\n      0x00\n        /* \"#utility.yul\":6016:6022   */\n      dup5\n        /* \"#utility.yul\":6011:6014   */\n      dup5\n        /* \"#utility.yul\":6007:6023   */\n      add\n        /* \"#utility.yul\":6000:6027   */\n      mstore\n        /* \"#utility.yul\":5936:6037   */\n    tag_236:\n        /* \"#utility.yul\":5785:6043   */\n      pop\n        /* \"#utility.yul\":5736:6043   */\n      pop\n      pop\n      pop\n      jump\t// out\n        /* \"#utility.yul\":6049:6369   */\n    tag_102:\n        /* \"#utility.yul\":6093:6099   */\n      0x00\n        /* \"#utility.yul\":6130:6131   */\n      0x02\n        /* \"#utility.yul\":6124:6128   */\n      dup3\n        /* \"#utility.yul\":6120:6132   */\n      div\n        /* \"#utility.yul\":6110:6132   */\n      swap1\n      pop\n        /* \"#utility.yul\":6177:6178   */\n      0x01\n        /* \"#utility.yul\":6171:6175   */\n      dup3\n        /* \"#utility.yul\":6167:6179   */\n      and\n        /* \"#utility.yul\":6198:6216   */\n      dup1\n        /* \"#utility.yul\":6188:6269   */\n      tag_238\n      jumpi\n        /* \"#utility.yul\":6254:6258   */\n      0x7f\n        /* \"#utility.yul\":6246:6252   */\n      dup3\n        /* \"#utility.yul\":6242:6259   */\n      and\n        /* \"#utility.yul\":6232:6259   */\n      swap2\n      pop\n        /* \"#utility.yul\":6188:6269   */\n    tag_238:\n        /* \"#utility.yul\":6316:6318   */\n      0x20\n        /* \"#utility.yul\":6308:6314   */\n      dup3\n        /* \"#utility.yul\":6305:6319   */\n      lt\n        /* \"#utility.yul\":6285:6303   */\n      dup2\n        /* \"#utility.yul\":6282:6320   */\n      eq\n        /* \"#utility.yul\":6279:6363   */\n      iszero\n      tag_239\n      jumpi\n        /* \"#utility.yul\":6335:6353   */\n      tag_240\n      tag_241\n      jump\t// in\n    tag_240:\n        /* \"#utility.yul\":6279:6363   */\n    tag_239:\n        /* \"#utility.yul\":6100:6369   */\n      pop\n        /* \"#utility.yul\":6049:6369   */\n      swap2\n      swap1\n      pop\n      jump\t// out\n        /* \"#utility.yul\":6375:6656   */\n    tag_220:\n        /* \"#utility.yul\":6458:6485   */\n      tag_243\n        /* \"#utility.yul\":6480:6484   */\n      dup3\n        /* \"#utility.yul\":6458:6485   */\n      tag_209\n      jump\t// in\n    tag_243:\n        /* \"#utility.yul\":6450:6456   */\n      dup2\n        /* \"#utility.yul\":6446:6486   */\n      add\n        /* \"#utility.yul\":6588:6594   */\n      dup2\n        /* \"#utility.yul\":6576:6586   */\n      dup2\n        /* \"#utility.yul\":6573:6595   */\n      lt\n        /* \"#utility.yul\":6552:6570   */\n      0xffffffffffffffff\n        /* \"#utility.yul\":6540:6550   */\n      dup3\n        /* \"#utility.yul\":6537:6571   */\n      gt\n        /* \"#utility.yul\":6534:6596   */\n      or\n        /* \"#utility.yul\":6531:6619   */\n      iszero\n      tag_244\n      jumpi\n        /* \"#utility.yul\":6599:6617   */\n      tag_245\n      tag_225\n      jump\t// in\n    tag_245:\n        /* \"#utility.yul\":6531:6619   */\n    tag_244:\n        /* \"#utility.yul\":6639:6649   */\n      dup1\n        /* \"#utility.yul\":6635:6637   */\n      0x40\n        /* \"#utility.yul\":6628:6650   */\n      mstore\n        /* \"#utility.yul\":6418:6656   */\n      pop\n        /* \"#utility.yul\":6375:6656   */\n      pop\n      pop\n      jump\t// out\n        /* \"#utility.yul\":6662:6842   */\n    tag_241:\n        /* \"#utility.yul\":6710:6787   */\n      0x4e487b7100000000000000000000000000000000000000000000000000000000\n        /* \"#utility.yul\":6707:6708   */\n      0x00\n        /* \"#utility.yul\":6700:6788   */\n      mstore\n        /* \"#utility.yul\":6807:6811   */\n      0x22\n        /* \"#utility.yul\":6804:6805   */\n      0x04\n        /* \"#utility.yul\":6797:6812   */\n      mstore\n        /* \"#utility.yul\":6831:6835   */\n      0x24\n        /* \"#utility.yul\":6828:6829   */\n      0x00\n        /* \"#utility.yul\":6821:6836   */\n      revert\n        /* \"#utility.yul\":6848:7028   */\n    tag_225:\n        /* \"#utility.yul\":6896:6973   */\n      0x4e487b7100000000000000000000000000000000000000000000000000000000\n        /* \"#utility.yul\":6893:6894   */\n      0x00\n        /* \"#utility.yul\":6886:6974   */\n      mstore\n        /* \"#utility.yul\":6993:6997   */\n      0x41\n        /* \"#utility.yul\":6990:6991   */\n      0x04\n        /* \"#utility.yul\":6983:6998   */\n      mstore\n        /* \"#utility.yul\":7017:7021   */\n      0x24\n        /* \"#utility.yul\":7014:7015   */\n      0x00\n        /* \"#utility.yul\":7007:7022   */\n      revert\n        /* \"#utility.yul\":7034:7151   */\n    tag_164:\n        /* \"#utility.yul\":7143:7144   */\n      0x00\n        /* \"#utility.yul\":7140:7141   */\n      dup1\n        /* \"#utility.yul\":7133:7145   */\n      revert\n        /* \"#utility.yul\":7157:7274   */\n    tag_149:\n        /* \"#utility.yul\":7266:7267   */\n      0x00\n        /* \"#utility.yul\":7263:7264   */\n      dup1\n        /* \"#utility.yul\":7256:7268   */\n      revert\n        /* \"#utility.yul\":7280:7397   */\n    tag_180:\n        /* \"#utility.yul\":7389:7390   */\n      0x00\n        /* \"#utility.yul\":7386:7387   */\n      dup1\n        /* \"#utility.yul\":7379:7391   */\n      revert\n        /* \"#utility.yul\":7403:7520   */\n    tag_169:\n        /* \"#utility.yul\":7512:7513   */\n      0x00\n        /* \"#utility.yul\":7509:7510   */\n      dup1\n        /* \"#utility.yul\":7502:7514   */\n      revert\n        /* \"#utility.yul\":7526:7628   */\n    tag_209:\n        /* \"#utility.yul\":7567:7573   */\n      0x00\n        /* \"#utility.yul\":7618:7620   */\n      0x1f\n        /* \"#utility.yul\":7614:7621   */\n      not\n        /* \"#utility.yul\":7609:7611   */\n      0x1f\n        /* \"#utility.yul\":7602:7607   */\n      dup4\n        /* \"#utility.yul\":7598:7612   */\n      add\n        /* \"#utility.yul\":7594:7622   */\n      and\n        /* \"#utility.yul\":7584:7622   */\n      swap1\n      pop\n        /* \"#utility.yul\":7526:7628   */\n      swap2\n      swap1\n      pop\n      jump\t// out\n        /* \"#utility.yul\":7634:7750   */\n    tag_155:\n        /* \"#utility.yul\":7704:7725   */\n      tag_254\n        /* \"#utility.yul\":7719:7724   */\n      dup2\n        /* \"#utility.yul\":7704:7725   */\n      tag_195\n      jump\t// in\n    tag_254:\n        /* \"#utility.yul\":7697:7702   */\n      dup2\n        /* \"#utility.yul\":7694:7726   */\n      eq\n        /* \"#utility.yul\":7684:7744   */\n      tag_255\n      jumpi\n        /* \"#utility.yul\":7740:7741   */\n      0x00\n        /* \"#utility.yul\":7737:7738   */\n      dup1\n        /* \"#utility.yul\":7730:7742   */\n      revert\n        /* \"#utility.yul\":7684:7744   */\n    tag_255:\n        /* \"#utility.yul\":7634:7750   */\n      pop\n      jump\t// out\n        /* \"#utility.yul\":7756:7876   */\n    tag_159:\n        /* \"#utility.yul\":7828:7851   */\n      tag_257\n        /* \"#utility.yul\":7845:7850   */\n      dup2\n        /* \"#utility.yul\":7828:7851   */\n      tag_199\n      jump\t// in\n    tag_257:\n        /* \"#utility.yul\":7821:7826   */\n      dup2\n        /* \"#utility.yul\":7818:7852   */\n      eq\n        /* \"#utility.yul\":7808:7870   */\n      tag_258\n      jumpi\n        /* \"#utility.yul\":7866:7867   */\n      0x00\n        /* \"#utility.yul\":7863:7864   */\n      dup1\n        /* \"#utility.yul\":7856:7868   */\n      revert\n        /* \"#utility.yul\":7808:7870   */\n    tag_258:\n        /* \"#utility.yul\":7756:7876   */\n      pop\n      jump\t// out\n\n    auxdata: 0xa2646970667358221220376529335c4397e82c590827c74b3decaed23638cfee9e4bde1d844d536b62f964736f6c63430008070033\n}\n",
				"bytecode": {
					"linkReferences": {},
					"object": "60806040523480156200001157600080fd5b50604051620010d9380380620010d983398181016040528101906200003791906200023d565b88600090805190602001906200004f929190620000e1565b508760018190555086600281905550856003908051906020019062000076929190620000e1565b5084600460006101000a81548160ff0219169083151502179055508360059080519060200190620000a9929190620000e1565b50826006819055508160078190555080600860006101000a81548160ff02191690831515021790555050505050505050505062000547565b828054620000ef9062000424565b90600052602060002090601f0160209004810192826200011357600085556200015f565b82601f106200012e57805160ff19168380011785556200015f565b828001600101855582156200015f579182015b828111156200015e57825182559160200191906001019062000141565b5b5090506200016e919062000172565b5090565b5b808211156200018d57600081600090555060010162000173565b5090565b6000620001a8620001a284620003a2565b62000379565b905082815260208101848484011115620001c757620001c6620004f3565b5b620001d4848285620003ee565b509392505050565b600081519050620001ed8162000513565b92915050565b60008151905062000204816200052d565b92915050565b600082601f830112620002225762000221620004ee565b5b81516200023484826020860162000191565b91505092915050565b60008060008060008060008060006101208a8c031215620002635762000262620004fd565b5b60008a015167ffffffffffffffff811115620002845762000283620004f8565b5b620002928c828d016200020a565b9950506020620002a58c828d01620001f3565b9850506040620002b88c828d01620001f3565b97505060608a015167ffffffffffffffff811115620002dc57620002db620004f8565b5b620002ea8c828d016200020a565b9650506080620002fd8c828d01620001dc565b95505060a08a015167ffffffffffffffff811115620003215762000320620004f8565b5b6200032f8c828d016200020a565b94505060c0620003428c828d01620001f3565b93505060e0620003558c828d01620001f3565b925050610100620003698c828d01620001dc565b9150509295985092959850929598565b60006200038562000398565b90506200039382826200045a565b919050565b6000604051905090565b600067ffffffffffffffff821115620003c057620003bf620004bf565b5b620003cb8262000502565b9050602081019050919050565b60008115159050919050565b6000819050919050565b60005b838110156200040e578082015181840152602081019050620003f1565b838111156200041e576000848401525b50505050565b600060028204905060018216806200043d57607f821691505b6020821081141562000454576200045362000490565b5b50919050565b620004658262000502565b810181811067ffffffffffffffff82111715620004875762000486620004bf565b5b80604052505050565b7f4e487b7100000000000000000000000000000000000000000000000000000000600052602260045260246000fd5b7f4e487b7100000000000000000000000000000000000000000000000000000000600052604160045260246000fd5b600080fd5b600080fd5b600080fd5b600080fd5b6000601f19601f8301169050919050565b6200051e81620003d8565b81146200052a57600080fd5b50565b6200053881620003e4565b81146200054457600080fd5b50565b610b8280620005576000396000f3fe608060405234801561001057600080fd5b50600436106101205760003560e01c806376aaff9f116100ad578063c16a836b11610071578063c16a836b146102b7578063d92be7f6146102d5578063deb8bd33146102f1578063ea60994e1461030f578063f69e25461461032d57610120565b806376aaff9f146102295780637c38a8c31461024557806388504618146102635780639022216d1461027f578063acec338a1461029b57610120565b80632d79838a116100f45780632d79838a146101975780632e25fa47146101b55780633097ba90146101d157806349c0af60146101ed5780636b2b1ab91461020b57610120565b80629ebb10146101255780630932a1aa146101435780631159e07e1461015f5780632461109e1461017b575b600080fd5b61012d61034b565b60405161013a9190610916565b60405180910390f35b61015d600480360381019061015891906107eb565b610362565b005b610179600480360381019061017491906107be565b61037c565b005b61019560048036038101906101909190610791565b610386565b005b61019f6103a3565b6040516101ac9190610931565b60405180910390f35b6101cf60048036038101906101ca91906107eb565b6103ad565b005b6101eb60048036038101906101e691906107be565b6103c7565b005b6101f56103d1565b6040516102029190610931565b60405180910390f35b6102136103db565b604051610220919061094c565b60405180910390f35b610243600480360381019061023e91906107be565b61046d565b005b61024d610477565b60405161025a9190610916565b60405180910390f35b61027d60048036038101906102789190610834565b61048e565b005b610299600480360381019061029491906107be565b6104db565b005b6102b560048036038101906102b09190610791565b6104e5565b005b6102bf610502565b6040516102cc919061094c565b60405180910390f35b6102ef60048036038101906102ea91906107eb565b610594565b005b6102f96105ae565b6040516103069190610931565b60405180910390f35b6103176105b8565b604051610324919061094c565b60405180910390f35b61033561064a565b6040516103429190610931565b60405180910390f35b6000600460009054906101000a900460ff16905090565b8060009080519060200190610378929190610654565b5050565b8060078190555050565b80600860006101000a81548160ff02191690831515021790555050565b6000600254905090565b80600590805190602001906103c3929190610654565b5050565b8060028190555050565b6000600154905090565b6060600580546103ea90610a38565b80601f016020809104026020016040519081016040528092919081815260200182805461041690610a38565b80156104635780601f1061043857610100808354040283529160200191610463565b820191906000526020600020905b81548152906001019060200180831161044657829003601f168201915b5050505050905090565b8060018190555050565b6000600860009054906101000a900460ff16905090565b82600090805190602001906104a4929190610654565b5081600460006101000a81548160ff02191690831515021790555080600590805190602001906104d5929190610654565b50505050565b8060068190555050565b80600460006101000a81548160ff02191690831515021790555050565b60606003805461051190610a38565b80601f016020809104026020016040519081016040528092919081815260200182805461053d90610a38565b801561058a5780601f1061055f5761010080835404028352916020019161058a565b820191906000526020600020905b81548152906001019060200180831161056d57829003601f168201915b5050505050905090565b80600390805190602001906105aa929190610654565b5050565b6000600754905090565b6060600080546105c790610a38565b80601f01602080910402602001604051908101604052809291908181526020018280546105f390610a38565b80156106405780601f1061061557610100808354040283529160200191610640565b820191906000526020600020905b81548152906001019060200180831161062357829003601f168201915b5050505050905090565b6000600654905090565b82805461066090610a38565b90600052602060002090601f01602090048101928261068257600085556106c9565b82601f1061069b57805160ff19168380011785556106c9565b828001600101855582156106c9579182015b828111156106c85782518255916020019190600101906106ad565b5b5090506106d691906106da565b5090565b5b808211156106f35760008160009055506001016106db565b5090565b600061070a61070584610993565b61096e565b90508281526020810184848401111561072657610725610afe565b5b6107318482856109f6565b509392505050565b60008135905061074881610b1e565b92915050565b60008135905061075d81610b35565b92915050565b600082601f83011261077857610777610af9565b5b81356107888482602086016106f7565b91505092915050565b6000602082840312156107a7576107a6610b08565b5b60006107b584828501610739565b91505092915050565b6000602082840312156107d4576107d3610b08565b5b60006107e28482850161074e565b91505092915050565b60006020828403121561080157610800610b08565b5b600082013567ffffffffffffffff81111561081f5761081e610b03565b5b61082b84828501610763565b91505092915050565b60008060006060848603121561084d5761084c610b08565b5b600084013567ffffffffffffffff81111561086b5761086a610b03565b5b61087786828701610763565b935050602061088886828701610739565b925050604084013567ffffffffffffffff8111156108a9576108a8610b03565b5b6108b586828701610763565b9150509250925092565b6108c8816109e0565b82525050565b6108d7816109ec565b82525050565b60006108e8826109c4565b6108f281856109cf565b9350610902818560208601610a05565b61090b81610b0d565b840191505092915050565b600060208201905061092b60008301846108bf565b92915050565b600060208201905061094660008301846108ce565b92915050565b6000602082019050818103600083015261096681846108dd565b905092915050565b6000610978610989565b90506109848282610a6a565b919050565b6000604051905090565b600067ffffffffffffffff8211156109ae576109ad610aca565b5b6109b782610b0d565b9050602081019050919050565b600081519050919050565b600082825260208201905092915050565b60008115159050919050565b6000819050919050565b82818337600083830152505050565b60005b83811015610a23578082015181840152602081019050610a08565b83811115610a32576000848401525b50505050565b60006002820490506001821680610a5057607f821691505b60208210811415610a6457610a63610a9b565b5b50919050565b610a7382610b0d565b810181811067ffffffffffffffff82111715610a9257610a91610aca565b5b80604052505050565b7f4e487b7100000000000000000000000000000000000000000000000000000000600052602260045260246000fd5b7f4e487b7100000000000000000000000000000000000000000000000000000000600052604160045260246000fd5b600080fd5b600080fd5b600080fd5b600080fd5b6000601f19601f8301169050919050565b610b27816109e0565b8114610b3257600080fd5b50565b610b3e816109ec565b8114610b4957600080fd5b5056fea2646970667358221220376529335c4397e82c590827c74b3decaed23638cfee9e4bde1d844d536b62f964736f6c63430008070033",
					"opcodes": "PUSH1 0x80 PUSH1 0x40 MSTORE CALLVALUE DUP1 ISZERO PUSH3 0x11 JUMPI PUSH1 0x0 DUP1 REVERT JUMPDEST POP PUSH1 0x40 MLOAD PUSH3 0x10D9 CODESIZE SUB DUP1 PUSH3 0x10D9 DUP4 CODECOPY DUP2 DUP2 ADD PUSH1 0x40 MSTORE DUP2 ADD SWAP1 PUSH3 0x37 SWAP2 SWAP1 PUSH3 0x23D JUMP JUMPDEST DUP9 PUSH1 0x0 SWAP1 DUP1 MLOAD SWAP1 PUSH1 0x20 ADD SWAP1 PUSH3 0x4F SWAP3 SWAP2 SWAP1 PUSH3 0xE1 JUMP JUMPDEST POP DUP8 PUSH1 0x1 DUP2 SWAP1 SSTORE POP DUP7 PUSH1 0x2 DUP2 SWAP1 SSTORE POP DUP6 PUSH1 0x3 SWAP1 DUP1 MLOAD SWAP1 PUSH1 0x20 ADD SWAP1 PUSH3 0x76 SWAP3 SWAP2 SWAP1 PUSH3 0xE1 JUMP JUMPDEST POP DUP5 PUSH1 0x4 PUSH1 0x0 PUSH2 0x100 EXP DUP2 SLOAD DUP2 PUSH1 0xFF MUL NOT AND SWAP1 DUP4 ISZERO ISZERO MUL OR SWAP1 SSTORE POP DUP4 PUSH1 0x5 SWAP1 DUP1 MLOAD SWAP1 PUSH1 0x20 ADD SWAP1 PUSH3 0xA9 SWAP3 SWAP2 SWAP1 PUSH3 0xE1 JUMP JUMPDEST POP DUP3 PUSH1 0x6 DUP2 SWAP1 SSTORE POP DUP2 PUSH1 0x7 DUP2 SWAP1 SSTORE POP DUP1 PUSH1 0x8 PUSH1 0x0 PUSH2 0x100 EXP DUP2 SLOAD DUP2 PUSH1 0xFF MUL NOT AND SWAP1 DUP4 ISZERO ISZERO MUL OR SWAP1 SSTORE POP POP POP POP POP POP POP POP POP POP PUSH3 0x547 JUMP JUMPDEST DUP3 DUP1 SLOAD PUSH3 0xEF SWAP1 PUSH3 0x424 JUMP JUMPDEST SWAP1 PUSH1 0x0 MSTORE PUSH1 0x20 PUSH1 0x0 KECCAK256 SWAP1 PUSH1 0x1F ADD PUSH1 0x20 SWAP1 DIV DUP2 ADD SWAP3 DUP3 PUSH3 0x113 JUMPI PUSH1 0x0 DUP6 SSTORE PUSH3 0x15F JUMP JUMPDEST DUP3 PUSH1 0x1F LT PUSH3 0x12E JUMPI DUP1 MLOAD PUSH1 0xFF NOT AND DUP4 DUP1 ADD OR DUP6 SSTORE PUSH3 0x15F JUMP JUMPDEST DUP3 DUP1 ADD PUSH1 0x1 ADD DUP6 SSTORE DUP3 ISZERO PUSH3 0x15F JUMPI SWAP2 DUP3 ADD JUMPDEST DUP3 DUP2 GT ISZERO PUSH3 0x15E JUMPI DUP3 MLOAD DUP3 SSTORE SWAP2 PUSH1 0x20 ADD SWAP2 SWAP1 PUSH1 0x1 ADD SWAP1 PUSH3 0x141 JUMP JUMPDEST JUMPDEST POP SWAP1 POP PUSH3 0x16E SWAP2 SWAP1 PUSH3 0x172 JUMP JUMPDEST POP SWAP1 JUMP JUMPDEST JUMPDEST DUP1 DUP3 GT ISZERO PUSH3 0x18D JUMPI PUSH1 0x0 DUP2 PUSH1 0x0 SWAP1 SSTORE POP PUSH1 0x1 ADD PUSH3 0x173 JUMP JUMPDEST POP SWAP1 JUMP JUMPDEST PUSH1 0x0 PUSH3 0x1A8 PUSH3 0x1A2 DUP5 PUSH3 0x3A2 JUMP JUMPDEST PUSH3 0x379 JUMP JUMPDEST SWAP1 POP DUP3 DUP2 MSTORE PUSH1 0x20 DUP2 ADD DUP5 DUP5 DUP5 ADD GT ISZERO PUSH3 0x1C7 JUMPI PUSH3 0x1C6 PUSH3 0x4F3 JUMP JUMPDEST JUMPDEST PUSH3 0x1D4 DUP5 DUP3 DUP6 PUSH3 0x3EE JUMP JUMPDEST POP SWAP4 SWAP3 POP POP POP JUMP JUMPDEST PUSH1 0x0 DUP2 MLOAD SWAP1 POP PUSH3 0x1ED DUP2 PUSH3 0x513 JUMP JUMPDEST SWAP3 SWAP2 POP POP JUMP JUMPDEST PUSH1 0x0 DUP2 MLOAD SWAP1 POP PUSH3 0x204 DUP2 PUSH3 0x52D JUMP JUMPDEST SWAP3 SWAP2 POP POP JUMP JUMPDEST PUSH1 0x0 DUP3 PUSH1 0x1F DUP4 ADD SLT PUSH3 0x222 JUMPI PUSH3 0x221 PUSH3 0x4EE JUMP JUMPDEST JUMPDEST DUP2 MLOAD PUSH3 0x234 DUP5 DUP3 PUSH1 0x20 DUP7 ADD PUSH3 0x191 JUMP JUMPDEST SWAP2 POP POP SWAP3 SWAP2 POP POP JUMP JUMPDEST PUSH1 0x0 DUP1 PUSH1 0x0 DUP1 PUSH1 0x0 DUP1 PUSH1 0x0 DUP1 PUSH1 0x0 PUSH2 0x120 DUP11 DUP13 SUB SLT ISZERO PUSH3 0x263 JUMPI PUSH3 0x262 PUSH3 0x4FD JUMP JUMPDEST JUMPDEST PUSH1 0x0 DUP11 ADD MLOAD PUSH8 0xFFFFFFFFFFFFFFFF DUP2 GT ISZERO PUSH3 0x284 JUMPI PUSH3 0x283 PUSH3 0x4F8 JUMP JUMPDEST JUMPDEST PUSH3 0x292 DUP13 DUP3 DUP14 ADD PUSH3 0x20A JUMP JUMPDEST SWAP10 POP POP PUSH1 0x20 PUSH3 0x2A5 DUP13 DUP3 DUP14 ADD PUSH3 0x1F3 JUMP JUMPDEST SWAP9 POP POP PUSH1 0x40 PUSH3 0x2B8 DUP13 DUP3 DUP14 ADD PUSH3 0x1F3 JUMP JUMPDEST SWAP8 POP POP PUSH1 0x60 DUP11 ADD MLOAD PUSH8 0xFFFFFFFFFFFFFFFF DUP2 GT ISZERO PUSH3 0x2DC JUMPI PUSH3 0x2DB PUSH3 0x4F8 JUMP JUMPDEST JUMPDEST PUSH3 0x2EA DUP13 DUP3 DUP14 ADD PUSH3 0x20A JUMP JUMPDEST SWAP7 POP POP PUSH1 0x80 PUSH3 0x2FD DUP13 DUP3 DUP14 ADD PUSH3 0x1DC JUMP JUMPDEST SWAP6 POP POP PUSH1 0xA0 DUP11 ADD MLOAD PUSH8 0xFFFFFFFFFFFFFFFF DUP2 GT ISZERO PUSH3 0x321 JUMPI PUSH3 0x320 PUSH3 0x4F8 JUMP JUMPDEST JUMPDEST PUSH3 0x32F DUP13 DUP3 DUP14 ADD PUSH3 0x20A JUMP JUMPDEST SWAP5 POP POP PUSH1 0xC0 PUSH3 0x342 DUP13 DUP3 DUP14 ADD PUSH3 0x1F3 JUMP JUMPDEST SWAP4 POP POP PUSH1 0xE0 PUSH3 0x355 DUP13 DUP3 DUP14 ADD PUSH3 0x1F3 JUMP JUMPDEST SWAP3 POP POP PUSH2 0x100 PUSH3 0x369 DUP13 DUP3 DUP14 ADD PUSH3 0x1DC JUMP JUMPDEST SWAP2 POP POP SWAP3 SWAP6 SWAP9 POP SWAP3 SWAP6 SWAP9 POP SWAP3 SWAP6 SWAP9 JUMP JUMPDEST PUSH1 0x0 PUSH3 0x385 PUSH3 0x398 JUMP JUMPDEST SWAP1 POP PUSH3 0x393 DUP3 DUP3 PUSH3 0x45A JUMP JUMPDEST SWAP2 SWAP1 POP JUMP JUMPDEST PUSH1 0x0 PUSH1 0x40 MLOAD SWAP1 POP SWAP1 JUMP JUMPDEST PUSH1 0x0 PUSH8 0xFFFFFFFFFFFFFFFF DUP3 GT ISZERO PUSH3 0x3C0 JUMPI PUSH3 0x3BF PUSH3 0x4BF JUMP JUMPDEST JUMPDEST PUSH3 0x3CB DUP3 PUSH3 0x502 JUMP JUMPDEST SWAP1 POP PUSH1 0x20 DUP2 ADD SWAP1 POP SWAP2 SWAP1 POP JUMP JUMPDEST PUSH1 0x0 DUP2 ISZERO ISZERO SWAP1 POP SWAP2 SWAP1 POP JUMP JUMPDEST PUSH1 0x0 DUP2 SWAP1 POP SWAP2 SWAP1 POP JUMP JUMPDEST PUSH1 0x0 JUMPDEST DUP4 DUP2 LT ISZERO PUSH3 0x40E JUMPI DUP1 DUP3 ADD MLOAD DUP2 DUP5 ADD MSTORE PUSH1 0x20 DUP2 ADD SWAP1 POP PUSH3 0x3F1 JUMP JUMPDEST DUP4 DUP2 GT ISZERO PUSH3 0x41E JUMPI PUSH1 0x0 DUP5 DUP5 ADD MSTORE JUMPDEST POP POP POP POP JUMP JUMPDEST PUSH1 0x0 PUSH1 0x2 DUP3 DIV SWAP1 POP PUSH1 0x1 DUP3 AND DUP1 PUSH3 0x43D JUMPI PUSH1 0x7F DUP3 AND SWAP2 POP JUMPDEST PUSH1 0x20 DUP3 LT DUP2 EQ ISZERO PUSH3 0x454 JUMPI PUSH3 0x453 PUSH3 0x490 JUMP JUMPDEST JUMPDEST POP SWAP2 SWAP1 POP JUMP JUMPDEST PUSH3 0x465 DUP3 PUSH3 0x502 JUMP JUMPDEST DUP2 ADD DUP2 DUP2 LT PUSH8 0xFFFFFFFFFFFFFFFF DUP3 GT OR ISZERO PUSH3 0x487 JUMPI PUSH3 0x486 PUSH3 0x4BF JUMP JUMPDEST JUMPDEST DUP1 PUSH1 0x40 MSTORE POP POP POP JUMP JUMPDEST PUSH32 0x4E487B7100000000000000000000000000000000000000000000000000000000 PUSH1 0x0 MSTORE PUSH1 0x22 PUSH1 0x4 MSTORE PUSH1 0x24 PUSH1 0x0 REVERT JUMPDEST PUSH32 0x4E487B7100000000000000000000000000000000000000000000000000000000 PUSH1 0x0 MSTORE PUSH1 0x41 PUSH1 0x4 MSTORE PUSH1 0x24 PUSH1 0x0 REVERT JUMPDEST PUSH1 0x0 DUP1 REVERT JUMPDEST PUSH1 0x0 DUP1 REVERT JUMPDEST PUSH1 0x0 DUP1 REVERT JUMPDEST PUSH1 0x0 DUP1 REVERT JUMPDEST PUSH1 0x0 PUSH1 0x1F NOT PUSH1 0x1F DUP4 ADD AND SWAP1 POP SWAP2 SWAP1 POP JUMP JUMPDEST PUSH3 0x51E DUP2 PUSH3 0x3D8 JUMP JUMPDEST DUP2 EQ PUSH3 0x52A JUMPI PUSH1 0x0 DUP1 REVERT JUMPDEST POP JUMP JUMPDEST PUSH3 0x538 DUP2 PUSH3 0x3E4 JUMP JUMPDEST DUP2 EQ PUSH3 0x544 JUMPI PUSH1 0x0 DUP1 REVERT JUMPDEST POP JUMP JUMPDEST PUSH2 0xB82 DUP1 PUSH3 0x557 PUSH1 0x0 CODECOPY PUSH1 0x0 RETURN INVALID PUSH1 0x80 PUSH1 0x40 MSTORE CALLVALUE DUP1 ISZERO PUSH2 0x10 JUMPI PUSH1 0x0 DUP1 REVERT JUMPDEST POP PUSH1 0x4 CALLDATASIZE LT PUSH2 0x120 JUMPI PUSH1 0x0 CALLDATALOAD PUSH1 0xE0 SHR DUP1 PUSH4 0x76AAFF9F GT PUSH2 0xAD JUMPI DUP1 PUSH4 0xC16A836B GT PUSH2 0x71 JUMPI DUP1 PUSH4 0xC16A836B EQ PUSH2 0x2B7 JUMPI DUP1 PUSH4 0xD92BE7F6 EQ PUSH2 0x2D5 JUMPI DUP1 PUSH4 0xDEB8BD33 EQ PUSH2 0x2F1 JUMPI DUP1 PUSH4 0xEA60994E EQ PUSH2 0x30F JUMPI DUP1 PUSH4 0xF69E2546 EQ PUSH2 0x32D JUMPI PUSH2 0x120 JUMP JUMPDEST DUP1 PUSH4 0x76AAFF9F EQ PUSH2 0x229 JUMPI DUP1 PUSH4 0x7C38A8C3 EQ PUSH2 0x245 JUMPI DUP1 PUSH4 0x88504618 EQ PUSH2 0x263 JUMPI DUP1 PUSH4 0x9022216D EQ PUSH2 0x27F JUMPI DUP1 PUSH4 0xACEC338A EQ PUSH2 0x29B JUMPI PUSH2 0x120 JUMP JUMPDEST DUP1 PUSH4 0x2D79838A GT PUSH2 0xF4 JUMPI DUP1 PUSH4 0x2D79838A EQ PUSH2 0x197 JUMPI DUP1 PUSH4 0x2E25FA47 EQ PUSH2 0x1B5 JUMPI DUP1 PUSH4 0x3097BA90 EQ PUSH2 0x1D1 JUMPI DUP1 PUSH4 0x49C0AF60 EQ PUSH2 0x1ED JUMPI DUP1 PUSH4 0x6B2B1AB9 EQ PUSH2 0x20B JUMPI PUSH2 0x120 JUMP JUMPDEST DUP1 PUSH3 0x9EBB10 EQ PUSH2 0x125 JUMPI DUP1 PUSH4 0x932A1AA EQ PUSH2 0x143 JUMPI DUP1 PUSH4 0x1159E07E EQ PUSH2 0x15F JUMPI DUP1 PUSH4 0x2461109E EQ PUSH2 0x17B JUMPI JUMPDEST PUSH1 0x0 DUP1 REVERT JUMPDEST PUSH2 0x12D PUSH2 0x34B JUMP JUMPDEST PUSH1 0x40 MLOAD PUSH2 0x13A SWAP2 SWAP1 PUSH2 0x916 JUMP JUMPDEST PUSH1 0x40 MLOAD DUP1 SWAP2 SUB SWAP1 RETURN JUMPDEST PUSH2 0x15D PUSH1 0x4 DUP1 CALLDATASIZE SUB DUP2 ADD SWAP1 PUSH2 0x158 SWAP2 SWAP1 PUSH2 0x7EB JUMP JUMPDEST PUSH2 0x362 JUMP JUMPDEST STOP JUMPDEST PUSH2 0x179 PUSH1 0x4 DUP1 CALLDATASIZE SUB DUP2 ADD SWAP1 PUSH2 0x174 SWAP2 SWAP1 PUSH2 0x7BE JUMP JUMPDEST PUSH2 0x37C JUMP JUMPDEST STOP JUMPDEST PUSH2 0x195 PUSH1 0x4 DUP1 CALLDATASIZE SUB DUP2 ADD SWAP1 PUSH2 0x190 SWAP2 SWAP1 PUSH2 0x791 JUMP JUMPDEST PUSH2 0x386 JUMP JUMPDEST STOP JUMPDEST PUSH2 0x19F PUSH2 0x3A3 JUMP JUMPDEST PUSH1 0x40 MLOAD PUSH2 0x1AC SWAP2 SWAP1 PUSH2 0x931 JUMP JUMPDEST PUSH1 0x40 MLOAD DUP1 SWAP2 SUB SWAP1 RETURN JUMPDEST PUSH2 0x1CF PUSH1 0x4 DUP1 CALLDATASIZE SUB DUP2 ADD SWAP1 PUSH2 0x1CA SWAP2 SWAP1 PUSH2 0x7EB JUMP JUMPDEST PUSH2 0x3AD JUMP JUMPDEST STOP JUMPDEST PUSH2 0x1EB PUSH1 0x4 DUP1 CALLDATASIZE SUB DUP2 ADD SWAP1 PUSH2 0x1E6 SWAP2 SWAP1 PUSH2 0x7BE JUMP JUMPDEST PUSH2 0x3C7 JUMP JUMPDEST STOP JUMPDEST PUSH2 0x1F5 PUSH2 0x3D1 JUMP JUMPDEST PUSH1 0x40 MLOAD PUSH2 0x202 SWAP2 SWAP1 PUSH2 0x931 JUMP JUMPDEST PUSH1 0x40 MLOAD DUP1 SWAP2 SUB SWAP1 RETURN JUMPDEST PUSH2 0x213 PUSH2 0x3DB JUMP JUMPDEST PUSH1 0x40 MLOAD PUSH2 0x220 SWAP2 SWAP1 PUSH2 0x94C JUMP JUMPDEST PUSH1 0x40 MLOAD DUP1 SWAP2 SUB SWAP1 RETURN JUMPDEST PUSH2 0x243 PUSH1 0x4 DUP1 CALLDATASIZE SUB DUP2 ADD SWAP1 PUSH2 0x23E SWAP2 SWAP1 PUSH2 0x7BE JUMP JUMPDEST PUSH2 0x46D JUMP JUMPDEST STOP JUMPDEST PUSH2 0x24D PUSH2 0x477 JUMP JUMPDEST PUSH1 0x40 MLOAD PUSH2 0x25A SWAP2 SWAP1 PUSH2 0x916 JUMP JUMPDEST PUSH1 0x40 MLOAD DUP1 SWAP2 SUB SWAP1 RETURN JUMPDEST PUSH2 0x27D PUSH1 0x4 DUP1 CALLDATASIZE SUB DUP2 ADD SWAP1 PUSH2 0x278 SWAP2 SWAP1 PUSH2 0x834 JUMP JUMPDEST PUSH2 0x48E JUMP JUMPDEST STOP JUMPDEST PUSH2 0x299 PUSH1 0x4 DUP1 CALLDATASIZE SUB DUP2 ADD SWAP1 PUSH2 0x294 SWAP2 SWAP1 PUSH2 0x7BE JUMP JUMPDEST PUSH2 0x4DB JUMP JUMPDEST STOP JUMPDEST PUSH2 0x2B5 PUSH1 0x4 DUP1 CALLDATASIZE SUB DUP2 ADD SWAP1 PUSH2 0x2B0 SWAP2 SWAP1 PUSH2 0x791 JUMP JUMPDEST PUSH2 0x4E5 JUMP JUMPDEST STOP JUMPDEST PUSH2 0x2BF PUSH2 0x502 JUMP JUMPDEST PUSH1 0x40 MLOAD PUSH2 0x2CC SWAP2 SWAP1 PUSH2 0x94C JUMP JUMPDEST PUSH1 0x40 MLOAD DUP1 SWAP2 SUB SWAP1 RETURN JUMPDEST PUSH2 0x2EF PUSH1 0x4 DUP1 CALLDATASIZE SUB DUP2 ADD SWAP1 PUSH2 0x2EA SWAP2 SWAP1 PUSH2 0x7EB JUMP JUMPDEST PUSH2 0x594 JUMP JUMPDEST STOP JUMPDEST PUSH2 0x2F9 PUSH2 0x5AE JUMP JUMPDEST PUSH1 0x40 MLOAD PUSH2 0x306 SWAP2 SWAP1 PUSH2 0x931 JUMP JUMPDEST PUSH1 0x40 MLOAD DUP1 SWAP2 SUB SWAP1 RETURN JUMPDEST PUSH2 0x317 PUSH2 0x5B8 JUMP JUMPDEST PUSH1 0x40 MLOAD PUSH2 0x324 SWAP2 SWAP1 PUSH2 0x94C JUMP JUMPDEST PUSH1 0x40 MLOAD DUP1 SWAP2 SUB SWAP1 RETURN JUMPDEST PUSH2 0x335 PUSH2 0x64A JUMP JUMPDEST PUSH1 0x40 MLOAD PUSH2 0x342 SWAP2 SWAP1 PUSH2 0x931 JUMP JUMPDEST PUSH1 0x40 MLOAD DUP1 SWAP2 SUB SWAP1 RETURN JUMPDEST PUSH1 0x0 PUSH1 0x4 PUSH1 0x0 SWAP1 SLOAD SWAP1 PUSH2 0x100 EXP SWAP1 DIV PUSH1 0xFF AND SWAP1 POP SWAP1 JUMP JUMPDEST DUP1 PUSH1 0x0 SWAP1 DUP1 MLOAD SWAP1 PUSH1 0x20 ADD SWAP1 PUSH2 0x378 SWAP3 SWAP2 SWAP1 PUSH2 0x654 JUMP JUMPDEST POP POP JUMP JUMPDEST DUP1 PUSH1 0x7 DUP2 SWAP1 SSTORE POP POP JUMP JUMPDEST DUP1 PUSH1 0x8 PUSH1 0x0 PUSH2 0x100 EXP DUP2 SLOAD DUP2 PUSH1 0xFF MUL NOT AND SWAP1 DUP4 ISZERO ISZERO MUL OR SWAP1 SSTORE POP POP JUMP JUMPDEST PUSH1 0x0 PUSH1 0x2 SLOAD SWAP1 POP SWAP1 JUMP JUMPDEST DUP1 PUSH1 0x5 SWAP1 DUP1 MLOAD SWAP1 PUSH1 0x20 ADD SWAP1 PUSH2 0x3C3 SWAP3 SWAP2 SWAP1 PUSH2 0x654 JUMP JUMPDEST POP POP JUMP JUMPDEST DUP1 PUSH1 0x2 DUP2 SWAP1 SSTORE POP POP JUMP JUMPDEST PUSH1 0x0 PUSH1 0x1 SLOAD SWAP1 POP SWAP1 JUMP JUMPDEST PUSH1 0x60 PUSH1 0x5 DUP1 SLOAD PUSH2 0x3EA SWAP1 PUSH2 0xA38 JUMP JUMPDEST DUP1 PUSH1 0x1F ADD PUSH1 0x20 DUP1 SWAP2 DIV MUL PUSH1 0x20 ADD PUSH1 0x40 MLOAD SWAP1 DUP2 ADD PUSH1 0x40 MSTORE DUP1 SWAP3 SWAP2 SWAP1 DUP2 DUP2 MSTORE PUSH1 0x20 ADD DUP3 DUP1 SLOAD PUSH2 0x416 SWAP1 PUSH2 0xA38 JUMP JUMPDEST DUP1 ISZERO PUSH2 0x463 JUMPI DUP1 PUSH1 0x1F LT PUSH2 0x438 JUMPI PUSH2 0x100 DUP1 DUP4 SLOAD DIV MUL DUP4 MSTORE SWAP2 PUSH1 0x20 ADD SWAP2 PUSH2 0x463 JUMP JUMPDEST DUP3 ADD SWAP2 SWAP1 PUSH1 0x0 MSTORE PUSH1 0x20 PUSH1 0x0 KECCAK256 SWAP1 JUMPDEST DUP2 SLOAD DUP2 MSTORE SWAP1 PUSH1 0x1 ADD SWAP1 PUSH1 0x20 ADD DUP1 DUP4 GT PUSH2 0x446 JUMPI DUP3 SWAP1 SUB PUSH1 0x1F AND DUP3 ADD SWAP2 JUMPDEST POP POP POP POP POP SWAP1 POP SWAP1 JUMP JUMPDEST DUP1 PUSH1 0x1 DUP2 SWAP1 SSTORE POP POP JUMP JUMPDEST PUSH1 0x0 PUSH1 0x8 PUSH1 0x0 SWAP1 SLOAD SWAP1 PUSH2 0x100 EXP SWAP1 DIV PUSH1 0xFF AND SWAP1 POP SWAP1 JUMP JUMPDEST DUP3 PUSH1 0x0 SWAP1 DUP1 MLOAD SWAP1 PUSH1 0x20 ADD SWAP1 PUSH2 0x4A4 SWAP3 SWAP2 SWAP1 PUSH2 0x654 JUMP JUMPDEST POP DUP2 PUSH1 0x4 PUSH1 0x0 PUSH2 0x100 EXP DUP2 SLOAD DUP2 PUSH1 0xFF MUL NOT AND SWAP1 DUP4 ISZERO ISZERO MUL OR SWAP1 SSTORE POP DUP1 PUSH1 0x5 SWAP1 DUP1 MLOAD SWAP1 PUSH1 0x20 ADD SWAP1 PUSH2 0x4D5 SWAP3 SWAP2 SWAP1 PUSH2 0x654 JUMP JUMPDEST POP POP POP POP JUMP JUMPDEST DUP1 PUSH1 0x6 DUP2 SWAP1 SSTORE POP POP JUMP JUMPDEST DUP1 PUSH1 0x4 PUSH1 0x0 PUSH2 0x100 EXP DUP2 SLOAD DUP2 PUSH1 0xFF MUL NOT AND SWAP1 DUP4 ISZERO ISZERO MUL OR SWAP1 SSTORE POP POP JUMP JUMPDEST PUSH1 0x60 PUSH1 0x3 DUP1 SLOAD PUSH2 0x511 SWAP1 PUSH2 0xA38 JUMP JUMPDEST DUP1 PUSH1 0x1F ADD PUSH1 0x20 DUP1 SWAP2 DIV MUL PUSH1 0x20 ADD PUSH1 0x40 MLOAD SWAP1 DUP2 ADD PUSH1 0x40 MSTORE DUP1 SWAP3 SWAP2 SWAP1 DUP2 DUP2 MSTORE PUSH1 0x20 ADD DUP3 DUP1 SLOAD PUSH2 0x53D SWAP1 PUSH2 0xA38 JUMP JUMPDEST DUP1 ISZERO PUSH2 0x58A JUMPI DUP1 PUSH1 0x1F LT PUSH2 0x55F JUMPI PUSH2 0x100 DUP1 DUP4 SLOAD DIV MUL DUP4 MSTORE SWAP2 PUSH1 0x20 ADD SWAP2 PUSH2 0x58A JUMP JUMPDEST DUP3 ADD SWAP2 SWAP1 PUSH1 0x0 MSTORE PUSH1 0x20 PUSH1 0x0 KECCAK256 SWAP1 JUMPDEST DUP2 SLOAD DUP2 MSTORE SWAP1 PUSH1 0x1 ADD SWAP1 PUSH1 0x20 ADD DUP1 DUP4 GT PUSH2 0x56D JUMPI DUP3 SWAP1 SUB PUSH1 0x1F AND DUP3 ADD SWAP2 JUMPDEST POP POP POP POP POP SWAP1 POP SWAP1 JUMP JUMPDEST DUP1 PUSH1 0x3 SWAP1 DUP1 MLOAD SWAP1 PUSH1 0x20 ADD SWAP1 PUSH2 0x5AA SWAP3 SWAP2 SWAP1 PUSH2 0x654 JUMP JUMPDEST POP POP JUMP JUMPDEST PUSH1 0x0 PUSH1 0x7 SLOAD SWAP1 POP SWAP1 JUMP JUMPDEST PUSH1 0x60 PUSH1 0x0 DUP1 SLOAD PUSH2 0x5C7 SWAP1 PUSH2 0xA38 JUMP JUMPDEST DUP1 PUSH1 0x1F ADD PUSH1 0x20 DUP1 SWAP2 DIV MUL PUSH1 0x20 ADD PUSH1 0x40 MLOAD SWAP1 DUP2 ADD PUSH1 0x40 MSTORE DUP1 SWAP3 SWAP2 SWAP1 DUP2 DUP2 MSTORE PUSH1 0x20 ADD DUP3 DUP1 SLOAD PUSH2 0x5F3 SWAP1 PUSH2 0xA38 JUMP JUMPDEST DUP1 ISZERO PUSH2 0x640 JUMPI DUP1 PUSH1 0x1F LT PUSH2 0x615 JUMPI PUSH2 0x100 DUP1 DUP4 SLOAD DIV MUL DUP4 MSTORE SWAP2 PUSH1 0x20 ADD SWAP2 PUSH2 0x640 JUMP JUMPDEST DUP3 ADD SWAP2 SWAP1 PUSH1 0x0 MSTORE PUSH1 0x20 PUSH1 0x0 KECCAK256 SWAP1 JUMPDEST DUP2 SLOAD DUP2 MSTORE SWAP1 PUSH1 0x1 ADD SWAP1 PUSH1 0x20 ADD DUP1 DUP4 GT PUSH2 0x623 JUMPI DUP3 SWAP1 SUB PUSH1 0x1F AND DUP3 ADD SWAP2 JUMPDEST POP POP POP POP POP SWAP1 POP SWAP1 JUMP JUMPDEST PUSH1 0x0 PUSH1 0x6 SLOAD SWAP1 POP SWAP1 JUMP JUMPDEST DUP3 DUP1 SLOAD PUSH2 0x660 SWAP1 PUSH2 0xA38 JUMP JUMPDEST SWAP1 PUSH1 0x0 MSTORE PUSH1 0x20 PUSH1 0x0 KECCAK256 SWAP1 PUSH1 0x1F ADD PUSH1 0x20 SWAP1 DIV DUP2 ADD SWAP3 DUP3 PUSH2 0x682 JUMPI PUSH1 0x0 DUP6 SSTORE PUSH2 0x6C9 JUMP JUMPDEST DUP3 PUSH1 0x1F LT PUSH2 0x69B JUMPI DUP1 MLOAD PUSH1 0xFF NOT AND DUP4 DUP1 ADD OR DUP6 SSTORE PUSH2 0x6C9 JUMP JUMPDEST DUP3 DUP1 ADD PUSH1 0x1 ADD DUP6 SSTORE DUP3 ISZERO PUSH2 0x6C9 JUMPI SWAP2 DUP3 ADD JUMPDEST DUP3 DUP2 GT ISZERO PUSH2 0x6C8 JUMPI DUP3 MLOAD DUP3 SSTORE SWAP2 PUSH1 0x20 ADD SWAP2 SWAP1 PUSH1 0x1 ADD SWAP1 PUSH2 0x6AD JUMP JUMPDEST JUMPDEST POP SWAP1 POP PUSH2 0x6D6 SWAP2 SWAP1 PUSH2 0x6DA JUMP JUMPDEST POP SWAP1 JUMP JUMPDEST JUMPDEST DUP1 DUP3 GT ISZERO PUSH2 0x6F3 JUMPI PUSH1 0x0 DUP2 PUSH1 0x0 SWAP1 SSTORE POP PUSH1 0x1 ADD PUSH2 0x6DB JUMP JUMPDEST POP SWAP1 JUMP JUMPDEST PUSH1 0x0 PUSH2 0x70A PUSH2 0x705 DUP5 PUSH2 0x993 JUMP JUMPDEST PUSH2 0x96E JUMP JUMPDEST SWAP1 POP DUP3 DUP2 MSTORE PUSH1 0x20 DUP2 ADD DUP5 DUP5 DUP5 ADD GT ISZERO PUSH2 0x726 JUMPI PUSH2 0x725 PUSH2 0xAFE JUMP JUMPDEST JUMPDEST PUSH2 0x731 DUP5 DUP3 DUP6 PUSH2 0x9F6 JUMP JUMPDEST POP SWAP4 SWAP3 POP POP POP JUMP JUMPDEST PUSH1 0x0 DUP2 CALLDATALOAD SWAP1 POP PUSH2 0x748 DUP2 PUSH2 0xB1E JUMP JUMPDEST SWAP3 SWAP2 POP POP JUMP JUMPDEST PUSH1 0x0 DUP2 CALLDATALOAD SWAP1 POP PUSH2 0x75D DUP2 PUSH2 0xB35 JUMP JUMPDEST SWAP3 SWAP2 POP POP JUMP JUMPDEST PUSH1 0x0 DUP3 PUSH1 0x1F DUP4 ADD SLT PUSH2 0x778 JUMPI PUSH2 0x777 PUSH2 0xAF9 JUMP JUMPDEST JUMPDEST DUP2 CALLDATALOAD PUSH2 0x788 DUP5 DUP3 PUSH1 0x20 DUP7 ADD PUSH2 0x6F7 JUMP JUMPDEST SWAP2 POP POP SWAP3 SWAP2 POP POP JUMP JUMPDEST PUSH1 0x0 PUSH1 0x20 DUP3 DUP5 SUB SLT ISZERO PUSH2 0x7A7 JUMPI PUSH2 0x7A6 PUSH2 0xB08 JUMP JUMPDEST JUMPDEST PUSH1 0x0 PUSH2 0x7B5 DUP5 DUP3 DUP6 ADD PUSH2 0x739 JUMP JUMPDEST SWAP2 POP POP SWAP3 SWAP2 POP POP JUMP JUMPDEST PUSH1 0x0 PUSH1 0x20 DUP3 DUP5 SUB SLT ISZERO PUSH2 0x7D4 JUMPI PUSH2 0x7D3 PUSH2 0xB08 JUMP JUMPDEST JUMPDEST PUSH1 0x0 PUSH2 0x7E2 DUP5 DUP3 DUP6 ADD PUSH2 0x74E JUMP JUMPDEST SWAP2 POP POP SWAP3 SWAP2 POP POP JUMP JUMPDEST PUSH1 0x0 PUSH1 0x20 DUP3 DUP5 SUB SLT ISZERO PUSH2 0x801 JUMPI PUSH2 0x800 PUSH2 0xB08 JUMP JUMPDEST JUMPDEST PUSH1 0x0 DUP3 ADD CALLDATALOAD PUSH8 0xFFFFFFFFFFFFFFFF DUP2 GT ISZERO PUSH2 0x81F JUMPI PUSH2 0x81E PUSH2 0xB03 JUMP JUMPDEST JUMPDEST PUSH2 0x82B DUP5 DUP3 DUP6 ADD PUSH2 0x763 JUMP JUMPDEST SWAP2 POP POP SWAP3 SWAP2 POP POP JUMP JUMPDEST PUSH1 0x0 DUP1 PUSH1 0x0 PUSH1 0x60 DUP5 DUP7 SUB SLT ISZERO PUSH2 0x84D JUMPI PUSH2 0x84C PUSH2 0xB08 JUMP JUMPDEST JUMPDEST PUSH1 0x0 DUP5 ADD CALLDATALOAD PUSH8 0xFFFFFFFFFFFFFFFF DUP2 GT ISZERO PUSH2 0x86B JUMPI PUSH2 0x86A PUSH2 0xB03 JUMP JUMPDEST JUMPDEST PUSH2 0x877 DUP7 DUP3 DUP8 ADD PUSH2 0x763 JUMP JUMPDEST SWAP4 POP POP PUSH1 0x20 PUSH2 0x888 DUP7 DUP3 DUP8 ADD PUSH2 0x739 JUMP JUMPDEST SWAP3 POP POP PUSH1 0x40 DUP5 ADD CALLDATALOAD PUSH8 0xFFFFFFFFFFFFFFFF DUP2 GT ISZERO PUSH2 0x8A9 JUMPI PUSH2 0x8A8 PUSH2 0xB03 JUMP JUMPDEST JUMPDEST PUSH2 0x8B5 DUP7 DUP3 DUP8 ADD PUSH2 0x763 JUMP JUMPDEST SWAP2 POP POP SWAP3 POP SWAP3 POP SWAP3 JUMP JUMPDEST PUSH2 0x8C8 DUP2 PUSH2 0x9E0 JUMP JUMPDEST DUP3 MSTORE POP POP JUMP JUMPDEST PUSH2 0x8D7 DUP2 PUSH2 0x9EC JUMP JUMPDEST DUP3 MSTORE POP POP JUMP JUMPDEST PUSH1 0x0 PUSH2 0x8E8 DUP3 PUSH2 0x9C4 JUMP JUMPDEST PUSH2 0x8F2 DUP2 DUP6 PUSH2 0x9CF JUMP JUMPDEST SWAP4 POP PUSH2 0x902 DUP2 DUP6 PUSH1 0x20 DUP7 ADD PUSH2 0xA05 JUMP JUMPDEST PUSH2 0x90B DUP2 PUSH2 0xB0D JUMP JUMPDEST DUP5 ADD SWAP2 POP POP SWAP3 SWAP2 POP POP JUMP JUMPDEST PUSH1 0x0 PUSH1 0x20 DUP3 ADD SWAP1 POP PUSH2 0x92B PUSH1 0x0 DUP4 ADD DUP5 PUSH2 0x8BF JUMP JUMPDEST SWAP3 SWAP2 POP POP JUMP JUMPDEST PUSH1 0x0 PUSH1 0x20 DUP3 ADD SWAP1 POP PUSH2 0x946 PUSH1 0x0 DUP4 ADD DUP5 PUSH2 0x8CE JUMP JUMPDEST SWAP3 SWAP2 POP POP JUMP JUMPDEST PUSH1 0x0 PUSH1 0x20 DUP3 ADD SWAP1 POP DUP2 DUP2 SUB PUSH1 0x0 DUP4 ADD MSTORE PUSH2 0x966 DUP2 DUP5 PUSH2 0x8DD JUMP JUMPDEST SWAP1 POP SWAP3 SWAP2 POP POP JUMP JUMPDEST PUSH1 0x0 PUSH2 0x978 PUSH2 0x989 JUMP JUMPDEST SWAP1 POP PUSH2 0x984 DUP3 DUP3 PUSH2 0xA6A JUMP JUMPDEST SWAP2 SWAP1 POP JUMP JUMPDEST PUSH1 0x0 PUSH1 0x40 MLOAD SWAP1 POP SWAP1 JUMP JUMPDEST PUSH1 0x0 PUSH8 0xFFFFFFFFFFFFFFFF DUP3 GT ISZERO PUSH2 0x9AE JUMPI PUSH2 0x9AD PUSH2 0xACA JUMP JUMPDEST JUMPDEST PUSH2 0x9B7 DUP3 PUSH2 0xB0D JUMP JUMPDEST SWAP1 POP PUSH1 0x20 DUP2 ADD SWAP1 POP SWAP2 SWAP1 POP JUMP JUMPDEST PUSH1 0x0 DUP2 MLOAD SWAP1 POP SWAP2 SWAP1 POP JUMP JUMPDEST PUSH1 0x0 DUP3 DUP3 MSTORE PUSH1 0x20 DUP3 ADD SWAP1 POP SWAP3 SWAP2 POP POP JUMP JUMPDEST PUSH1 0x0 DUP2 ISZERO ISZERO SWAP1 POP SWAP2 SWAP1 POP JUMP JUMPDEST PUSH1 0x0 DUP2 SWAP1 POP SWAP2 SWAP1 POP JUMP JUMPDEST DUP3 DUP2 DUP4 CALLDATACOPY PUSH1 0x0 DUP4 DUP4 ADD MSTORE POP POP POP JUMP JUMPDEST PUSH1 0x0 JUMPDEST DUP4 DUP2 LT ISZERO PUSH2 0xA23 JUMPI DUP1 DUP3 ADD MLOAD DUP2 DUP5 ADD MSTORE PUSH1 0x20 DUP2 ADD SWAP1 POP PUSH2 0xA08 JUMP JUMPDEST DUP4 DUP2 GT ISZERO PUSH2 0xA32 JUMPI PUSH1 0x0 DUP5 DUP5 ADD MSTORE JUMPDEST POP POP POP POP JUMP JUMPDEST PUSH1 0x0 PUSH1 0x2 DUP3 DIV SWAP1 POP PUSH1 0x1 DUP3 AND DUP1 PUSH2 0xA50 JUMPI PUSH1 0x7F DUP3 AND SWAP2 POP JUMPDEST PUSH1 0x20 DUP3 LT DUP2 EQ ISZERO PUSH2 0xA64 JUMPI PUSH2 0xA63 PUSH2 0xA9B JUMP JUMPDEST JUMPDEST POP SWAP2 SWAP1 POP JUMP JUMPDEST PUSH2 0xA73 DUP3 PUSH2 0xB0D JUMP JUMPDEST DUP2 ADD DUP2 DUP2 LT PUSH8 0xFFFFFFFFFFFFFFFF DUP3 GT OR ISZERO PUSH2 0xA92 JUMPI PUSH2 0xA91 PUSH2 0xACA JUMP JUMPDEST JUMPDEST DUP1 PUSH1 0x40 MSTORE POP POP POP JUMP JUMPDEST PUSH32 0x4E487B7100000000000000000000000000000000000000000000000000000000 PUSH1 0x0 MSTORE PUSH1 0x22 PUSH1 0x4 MSTORE PUSH1 0x24 PUSH1 0x0 REVERT JUMPDEST PUSH32 0x4E487B7100000000000000000000000000000000000000000000000000000000 PUSH1 0x0 MSTORE PUSH1 0x41 PUSH1 0x4 MSTORE PUSH1 0x24 PUSH1 0x0 REVERT JUMPDEST PUSH1 0x0 DUP1 REVERT JUMPDEST PUSH1 0x0 DUP1 REVERT JUMPDEST PUSH1 0x0 DUP1 REVERT JUMPDEST PUSH1 0x0 DUP1 REVERT JUMPDEST PUSH1 0x0 PUSH1 0x1F NOT PUSH1 0x1F DUP4 ADD AND SWAP1 POP SWAP2 SWAP1 POP JUMP JUMPDEST PUSH2 0xB27 DUP2 PUSH2 0x9E0 JUMP JUMPDEST DUP2 EQ PUSH2 0xB32 JUMPI PUSH1 0x0 DUP1 REVERT JUMPDEST POP JUMP JUMPDEST PUSH2 0xB3E DUP2 PUSH2 0x9EC JUMP JUMPDEST DUP2 EQ PUSH2 0xB49 JUMPI PUSH1 0x0 DUP1 REVERT JUMPDEST POP JUMP INVALID LOG2 PUSH5 0x6970667358 0x22 SLT KECCAK256 CALLDATACOPY PUSH6 0x29335C4397E8 0x2C MSIZE ADDMOD 0x27 0xC7 0x4B RETURNDATASIZE 0xEC 0xAE 0xD2 CALLDATASIZE CODESIZE 0xCF 0xEE SWAP15 0x4B 0xDE SAR DUP5 0x4D MSTORE8 PUSH12 0x62F964736F6C634300080700 CALLER "
				},
				"gasEstimates": {
					"creation": {
						"codeDepositCost": "589200",
						"executionCost": "infinite",
						"totalCost": "infinite"
					},
					"external": {
						"getActive()": "2503",
						"getBirthDate()": "infinite",
						"getGender()": "2524",
						"getIDBovineParent1()": "2547",
						"getIDBovineParent2()": "2503",
						"getIDField()": "2526",
						"getIDOwner()": "infinite",
						"getObservation()": "infinite",
						"getSerialNumber()": "2460",
						"setActive(bool)": "24790",
						"setBirthDate(string)": "infinite",
						"setGender(bool)": "24769",
						"setIDBovineParent1(int256)": "22609",
						"setIDBovineParent2(int256)": "22588",
						"setIDField(int256)": "22543",
						"setIDOwner(string)": "infinite",
						"setObservation(string)": "infinite",
						"setSerialNumber(int256)": "22587",
						"setUpdate(string,bool,string)": "infinite"
					}
				},
				"methodIdentifiers": {
					"getActive()": "009ebb10",
					"getBirthDate()": "c16a836b",
					"getGender()": "7c38a8c3",
					"getIDBovineParent1()": "f69e2546",
					"getIDBovineParent2()": "deb8bd33",
					"getIDField()": "49c0af60",
					"getIDOwner()": "ea60994e",
					"getObservation()": "6b2b1ab9",
					"getSerialNumber()": "2d79838a",
					"setActive(bool)": "acec338a",
					"setBirthDate(string)": "d92be7f6",
					"setGender(bool)": "2461109e",
					"setIDBovineParent1(int256)": "9022216d",
					"setIDBovineParent2(int256)": "1159e07e",
					"setIDField(int256)": "76aaff9f",
					"setIDOwner(string)": "0932a1aa",
					"setObservation(string)": "2e25fa47",
					"setSerialNumber(int256)": "3097ba90",
					"setUpdate(string,bool,string)": "88504618"
				}
			},
			"storageLayout": {
				"storage": [
					{
						"astId": 3,
						"contract": "contracts/Bovine.sol:Bovine",
						"label": "idOwner",
						"offset": 0,
						"slot": "0",
						"type": "t_string_storage"
					},
					{
						"astId": 5,
						"contract": "contracts/Bovine.sol:Bovine",
						"label": "idField",
						"offset": 0,
						"slot": "1",
						"type": "t_int256"
					},
					{
						"astId": 7,
						"contract": "contracts/Bovine.sol:Bovine",
						"label": "serialNumber",
						"offset": 0,
						"slot": "2",
						"type": "t_int256"
					},
					{
						"astId": 9,
						"contract": "contracts/Bovine.sol:Bovine",
						"label": "birthDate",
						"offset": 0,
						"slot": "3",
						"type": "t_string_storage"
					},
					{
						"astId": 11,
						"contract": "contracts/Bovine.sol:Bovine",
						"label": "active",
						"offset": 0,
						"slot": "4",
						"type": "t_bool"
					},
					{
						"astId": 13,
						"contract": "contracts/Bovine.sol:Bovine",
						"label": "observation",
						"offset": 0,
						"slot": "5",
						"type": "t_string_storage"
					},
					{
						"astId": 15,
						"contract": "contracts/Bovine.sol:Bovine",
						"label": "idBovineParent1",
						"offset": 0,
						"slot": "6",
						"type": "t_int256"
					},
					{
						"astId": 17,
						"contract": "contracts/Bovine.sol:Bovine",
						"label": "idBovineParent2",
						"offset": 0,
						"slot": "7",
						"type": "t_int256"
					},
					{
						"astId": 19,
						"contract": "contracts/Bovine.sol:Bovine",
						"label": "gender",
						"offset": 0,
						"slot": "8",
						"type": "t_bool"
					}
				],
				"types": {
					"t_bool": {
						"encoding": "inplace",
						"label": "bool",
						"numberOfBytes": "1"
					},
					"t_int256": {
						"encoding": "inplace",
						"label": "int256",
						"numberOfBytes": "32"
					},
					"t_string_storage": {
						"encoding": "bytes",
						"label": "string",
						"numberOfBytes": "32"
					}
				}
			},
			"userdoc": {
				"kind": "user",
				"methods": {},
				"version": 1
			}
		}
	}
}