{
	"contracts/User.sol": {
		"User": {
			"abi": [
				{
					"inputs": [
						{
							"internalType": "int256",
							"name": "_idUserType",
							"type": "int256"
						},
						{
							"internalType": "string",
							"name": "_name",
							"type": "string"
						},
						{
							"internalType": "string",
							"name": "_birthDate",
							"type": "string"
						},
						{
							"internalType": "string",
							"name": "_email",
							"type": "string"
						},
						{
							"internalType": "string",
							"name": "_password",
							"type": "string"
						},
						{
							"internalType": "bool",
							"name": "_active",
							"type": "bool"
						}
					],
					"stateMutability": "nonpayable",
					"type": "constructor"
				},
				{
					"inputs": [],
					"name": "getActive",
					"outputs": [
						{
							"internalType": "bool",
							"name": "",
							"type": "bool"
						}
					],
					"stateMutability": "view",
					"type": "function"
				},
				{
					"inputs": [],
					"name": "getBirthDate",
					"outputs": [
						{
							"internalType": "string",
							"name": "",
							"type": "string"
						}
					],
					"stateMutability": "view",
					"type": "function"
				},
				{
					"inputs": [],
					"name": "getEmail",
					"outputs": [
						{
							"internalType": "string",
							"name": "",
							"type": "string"
						}
					],
					"stateMutability": "view",
					"type": "function"
				},
				{
					"inputs": [],
					"name": "getIDUserType",
					"outputs": [
						{
							"internalType": "int256",
							"name": "",
							"type": "int256"
						}
					],
					"stateMutability": "view",
					"type": "function"
				},
				{
					"inputs": [],
					"name": "getName",
					"outputs": [
						{
							"internalType": "string",
							"name": "",
							"type": "string"
						}
					],
					"stateMutability": "view",
					"type": "function"
				},
				{
					"inputs": [
						{
							"internalType": "bool",
							"name": "_active",
							"type": "bool"
						}
					],
					"name": "setActive",
					"outputs": [],
					"stateMutability": "nonpayable",
					"type": "function"
				},
				{
					"inputs": [
						{
							"internalType": "string",
							"name": "_birthDate",
							"type": "string"
						}
					],
					"name": "setBirthDate",
					"outputs": [],
					"stateMutability": "nonpayable",
					"type": "function"
				},
				{
					"inputs": [
						{
							"internalType": "string",
							"name": "_email",
							"type": "string"
						}
					],
					"name": "setEmail",
					"outputs": [],
					"stateMutability": "nonpayable",
					"type": "function"
				},
				{
					"inputs": [
						{
							"internalType": "int256",
							"name": "_idUserType",
							"type": "int256"
						}
					],
					"name": "setIDUserType",
					"outputs": [],
					"stateMutability": "nonpayable",
					"type": "function"
				},
				{
					"inputs": [
						{
							"internalType": "string",
							"name": "_name",
							"type": "string"
						}
					],
					"name": "setName",
					"outputs": [],
					"stateMutability": "nonpayable",
					"type": "function"
				},
				{
					"inputs": [
						{
							"internalType": "int256",
							"name": "_idUserType",
							"type": "int256"
						},
						{
							"internalType": "string",
							"name": "_name",
							"type": "string"
						},
						{
							"internalType": "bool",
							"name": "_active",
							"type": "bool"
						}
					],
					"name": "setUpdate",
					"outputs": [],
					"stateMutability": "nonpayable",
					"type": "function"
				}
			],
			"devdoc": {
				"kind": "dev",
				"methods": {},
				"version": 1
			},
			"evm": {
				"assembly": "    /* \"contracts/User.sol\":71:1659  contract User {\r... */\n  mstore(0x40, 0x80)\n    /* \"contracts/User.sol\":227:546  constructor(int _idUserType, string memory _name, string memory _birthDate, string memory _email, string memory _password, bool _active) {\r... */\n  callvalue\n  dup1\n  iszero\n  tag_1\n  jumpi\n  0x00\n  dup1\n  revert\ntag_1:\n  pop\n  mload(0x40)\n  sub(codesize, bytecodeSize)\n  dup1\n  bytecodeSize\n  dup4\n  codecopy\n  dup2\n  dup2\n  add\n  0x40\n  mstore\n  dup2\n  add\n  swap1\n  tag_2\n  swap2\n  swap1\n  tag_3\n  jump\t// in\ntag_2:\n    /* \"contracts/User.sol\":388:399  _idUserType */\n  dup6\n    /* \"contracts/User.sol\":375:385  idUserType */\n  0x00\n    /* \"contracts/User.sol\":375:399  idUserType = _idUserType */\n  dup2\n  swap1\n  sstore\n  pop\n    /* \"contracts/User.sol\":417:422  _name */\n  dup5\n    /* \"contracts/User.sol\":410:414  name */\n  0x01\n    /* \"contracts/User.sol\":410:422  name = _name */\n  swap1\n  dup1\n  mload\n  swap1\n  0x20\n  add\n  swap1\n  tag_6\n  swap3\n  swap2\n  swap1\n  tag_7\n  jump\t// in\ntag_6:\n  pop\n    /* \"contracts/User.sol\":445:455  _birthDate */\n  dup4\n    /* \"contracts/User.sol\":433:442  birthDate */\n  0x02\n    /* \"contracts/User.sol\":433:455  birthDate = _birthDate */\n  swap1\n  dup1\n  mload\n  swap1\n  0x20\n  add\n  swap1\n  tag_8\n  swap3\n  swap2\n  swap1\n  tag_7\n  jump\t// in\ntag_8:\n  pop\n    /* \"contracts/User.sol\":474:480  _email */\n  dup3\n    /* \"contracts/User.sol\":466:471  email */\n  0x03\n    /* \"contracts/User.sol\":466:480  email = _email */\n  swap1\n  dup1\n  mload\n  swap1\n  0x20\n  add\n  swap1\n  tag_9\n  swap3\n  swap2\n  swap1\n  tag_7\n  jump\t// in\ntag_9:\n  pop\n    /* \"contracts/User.sol\":502:511  _password */\n  dup2\n    /* \"contracts/User.sol\":491:499  password */\n  0x04\n    /* \"contracts/User.sol\":491:511  password = _password */\n  swap1\n  dup1\n  mload\n  swap1\n  0x20\n  add\n  swap1\n  tag_10\n  swap3\n  swap2\n  swap1\n  tag_7\n  jump\t// in\ntag_10:\n  pop\n    /* \"contracts/User.sol\":531:538  _active */\n  dup1\n    /* \"contracts/User.sol\":522:528  active */\n  0x05\n  0x00\n    /* \"contracts/User.sol\":522:538  active = _active */\n  0x0100\n  exp\n  dup2\n  sload\n  dup2\n  0xff\n  mul\n  not\n  and\n  swap1\n  dup4\n  iszero\n  iszero\n  mul\n  or\n  swap1\n  sstore\n  pop\n    /* \"contracts/User.sol\":227:546  constructor(int _idUserType, string memory _name, string memory _birthDate, string memory _email, string memory _password, bool _active) {\r... */\n  pop\n  pop\n  pop\n  pop\n  pop\n  pop\n    /* \"contracts/User.sol\":71:1659  contract User {\r... */\n  jump(tag_11)\ntag_7:\n  dup3\n  dup1\n  sload\n  tag_12\n  swap1\n  tag_13\n  jump\t// in\ntag_12:\n  swap1\n  0x00\n  mstore\n  keccak256(0x00, 0x20)\n  swap1\n  0x1f\n  add\n  0x20\n  swap1\n  div\n  dup2\n  add\n  swap3\n  dup3\n  tag_15\n  jumpi\n  0x00\n  dup6\n  sstore\n  jump(tag_14)\ntag_15:\n  dup3\n  0x1f\n  lt\n  tag_16\n  jumpi\n  dup1\n  mload\n  not(0xff)\n  and\n  dup4\n  dup1\n  add\n  or\n  dup6\n  sstore\n  jump(tag_14)\ntag_16:\n  dup3\n  dup1\n  add\n  0x01\n  add\n  dup6\n  sstore\n  dup3\n  iszero\n  tag_14\n  jumpi\n  swap2\n  dup3\n  add\ntag_17:\n  dup3\n  dup2\n  gt\n  iszero\n  tag_18\n  jumpi\n  dup3\n  mload\n  dup3\n  sstore\n  swap2\n  0x20\n  add\n  swap2\n  swap1\n  0x01\n  add\n  swap1\n  jump(tag_17)\ntag_18:\ntag_14:\n  pop\n  swap1\n  pop\n  tag_19\n  swap2\n  swap1\n  tag_20\n  jump\t// in\ntag_19:\n  pop\n  swap1\n  jump\t// out\ntag_20:\ntag_21:\n  dup1\n  dup3\n  gt\n  iszero\n  tag_22\n  jumpi\n  0x00\n  dup2\n  0x00\n  swap1\n  sstore\n  pop\n  0x01\n  add\n  jump(tag_21)\ntag_22:\n  pop\n  swap1\n  jump\t// out\n    /* \"#utility.yul\":7:428   */\ntag_24:\n    /* \"#utility.yul\":96:101   */\n  0x00\n    /* \"#utility.yul\":121:187   */\n  tag_26\n    /* \"#utility.yul\":137:186   */\n  tag_27\n    /* \"#utility.yul\":179:185   */\n  dup5\n    /* \"#utility.yul\":137:186   */\n  tag_28\n  jump\t// in\ntag_27:\n    /* \"#utility.yul\":121:187   */\n  tag_29\n  jump\t// in\ntag_26:\n    /* \"#utility.yul\":112:187   */\n  swap1\n  pop\n    /* \"#utility.yul\":210:216   */\n  dup3\n    /* \"#utility.yul\":203:208   */\n  dup2\n    /* \"#utility.yul\":196:217   */\n  mstore\n    /* \"#utility.yul\":248:252   */\n  0x20\n    /* \"#utility.yul\":241:246   */\n  dup2\n    /* \"#utility.yul\":237:253   */\n  add\n    /* \"#utility.yul\":286:289   */\n  dup5\n    /* \"#utility.yul\":277:283   */\n  dup5\n    /* \"#utility.yul\":272:275   */\n  dup5\n    /* \"#utility.yul\":268:284   */\n  add\n    /* \"#utility.yul\":265:290   */\n  gt\n    /* \"#utility.yul\":262:374   */\n  iszero\n  tag_30\n  jumpi\n    /* \"#utility.yul\":293:372   */\n  tag_31\n  tag_32\n  jump\t// in\ntag_31:\n    /* \"#utility.yul\":262:374   */\ntag_30:\n    /* \"#utility.yul\":383:422   */\n  tag_33\n    /* \"#utility.yul\":415:421   */\n  dup5\n    /* \"#utility.yul\":410:413   */\n  dup3\n    /* \"#utility.yul\":405:408   */\n  dup6\n    /* \"#utility.yul\":383:422   */\n  tag_34\n  jump\t// in\ntag_33:\n    /* \"#utility.yul\":102:428   */\n  pop\n    /* \"#utility.yul\":7:428   */\n  swap4\n  swap3\n  pop\n  pop\n  pop\n  jump\t// out\n    /* \"#utility.yul\":434:571   */\ntag_35:\n    /* \"#utility.yul\":488:493   */\n  0x00\n    /* \"#utility.yul\":519:525   */\n  dup2\n    /* \"#utility.yul\":513:526   */\n  mload\n    /* \"#utility.yul\":504:526   */\n  swap1\n  pop\n    /* \"#utility.yul\":535:565   */\n  tag_37\n    /* \"#utility.yul\":559:564   */\n  dup2\n    /* \"#utility.yul\":535:565   */\n  tag_38\n  jump\t// in\ntag_37:\n    /* \"#utility.yul\":434:571   */\n  swap3\n  swap2\n  pop\n  pop\n  jump\t// out\n    /* \"#utility.yul\":577:718   */\ntag_39:\n    /* \"#utility.yul\":633:638   */\n  0x00\n    /* \"#utility.yul\":664:670   */\n  dup2\n    /* \"#utility.yul\":658:671   */\n  mload\n    /* \"#utility.yul\":649:671   */\n  swap1\n  pop\n    /* \"#utility.yul\":680:712   */\n  tag_41\n    /* \"#utility.yul\":706:711   */\n  dup2\n    /* \"#utility.yul\":680:712   */\n  tag_42\n  jump\t// in\ntag_41:\n    /* \"#utility.yul\":577:718   */\n  swap3\n  swap2\n  pop\n  pop\n  jump\t// out\n    /* \"#utility.yul\":738:1093   */\ntag_43:\n    /* \"#utility.yul\":805:810   */\n  0x00\n    /* \"#utility.yul\":854:857   */\n  dup3\n    /* \"#utility.yul\":847:851   */\n  0x1f\n    /* \"#utility.yul\":839:845   */\n  dup4\n    /* \"#utility.yul\":835:852   */\n  add\n    /* \"#utility.yul\":831:858   */\n  slt\n    /* \"#utility.yul\":821:943   */\n  tag_45\n  jumpi\n    /* \"#utility.yul\":862:941   */\n  tag_46\n  tag_47\n  jump\t// in\ntag_46:\n    /* \"#utility.yul\":821:943   */\ntag_45:\n    /* \"#utility.yul\":972:978   */\n  dup2\n    /* \"#utility.yul\":966:979   */\n  mload\n    /* \"#utility.yul\":997:1087   */\n  tag_48\n    /* \"#utility.yul\":1083:1086   */\n  dup5\n    /* \"#utility.yul\":1075:1081   */\n  dup3\n    /* \"#utility.yul\":1068:1072   */\n  0x20\n    /* \"#utility.yul\":1060:1066   */\n  dup7\n    /* \"#utility.yul\":1056:1073   */\n  add\n    /* \"#utility.yul\":997:1087   */\n  tag_24\n  jump\t// in\ntag_48:\n    /* \"#utility.yul\":988:1087   */\n  swap2\n  pop\n    /* \"#utility.yul\":811:1093   */\n  pop\n    /* \"#utility.yul\":738:1093   */\n  swap3\n  swap2\n  pop\n  pop\n  jump\t// out\n    /* \"#utility.yul\":1099:2917   */\ntag_3:\n    /* \"#utility.yul\":1250:1256   */\n  0x00\n    /* \"#utility.yul\":1258:1264   */\n  dup1\n    /* \"#utility.yul\":1266:1272   */\n  0x00\n    /* \"#utility.yul\":1274:1280   */\n  dup1\n    /* \"#utility.yul\":1282:1288   */\n  0x00\n    /* \"#utility.yul\":1290:1296   */\n  dup1\n    /* \"#utility.yul\":1339:1342   */\n  0xc0\n    /* \"#utility.yul\":1327:1336   */\n  dup8\n    /* \"#utility.yul\":1318:1325   */\n  dup10\n    /* \"#utility.yul\":1314:1337   */\n  sub\n    /* \"#utility.yul\":1310:1343   */\n  slt\n    /* \"#utility.yul\":1307:1427   */\n  iszero\n  tag_50\n  jumpi\n    /* \"#utility.yul\":1346:1425   */\n  tag_51\n  tag_52\n  jump\t// in\ntag_51:\n    /* \"#utility.yul\":1307:1427   */\ntag_50:\n    /* \"#utility.yul\":1466:1467   */\n  0x00\n    /* \"#utility.yul\":1491:1554   */\n  tag_53\n    /* \"#utility.yul\":1546:1553   */\n  dup10\n    /* \"#utility.yul\":1537:1543   */\n  dup3\n    /* \"#utility.yul\":1526:1535   */\n  dup11\n    /* \"#utility.yul\":1522:1544   */\n  add\n    /* \"#utility.yul\":1491:1554   */\n  tag_39\n  jump\t// in\ntag_53:\n    /* \"#utility.yul\":1481:1554   */\n  swap7\n  pop\n    /* \"#utility.yul\":1437:1564   */\n  pop\n    /* \"#utility.yul\":1624:1626   */\n  0x20\n    /* \"#utility.yul\":1613:1622   */\n  dup8\n    /* \"#utility.yul\":1609:1627   */\n  add\n    /* \"#utility.yul\":1603:1628   */\n  mload\n    /* \"#utility.yul\":1655:1673   */\n  0xffffffffffffffff\n    /* \"#utility.yul\":1647:1653   */\n  dup2\n    /* \"#utility.yul\":1644:1674   */\n  gt\n    /* \"#utility.yul\":1641:1758   */\n  iszero\n  tag_54\n  jumpi\n    /* \"#utility.yul\":1677:1756   */\n  tag_55\n  tag_56\n  jump\t// in\ntag_55:\n    /* \"#utility.yul\":1641:1758   */\ntag_54:\n    /* \"#utility.yul\":1782:1856   */\n  tag_57\n    /* \"#utility.yul\":1848:1855   */\n  dup10\n    /* \"#utility.yul\":1839:1845   */\n  dup3\n    /* \"#utility.yul\":1828:1837   */\n  dup11\n    /* \"#utility.yul\":1824:1846   */\n  add\n    /* \"#utility.yul\":1782:1856   */\n  tag_43\n  jump\t// in\ntag_57:\n    /* \"#utility.yul\":1772:1856   */\n  swap6\n  pop\n    /* \"#utility.yul\":1574:1866   */\n  pop\n    /* \"#utility.yul\":1926:1928   */\n  0x40\n    /* \"#utility.yul\":1915:1924   */\n  dup8\n    /* \"#utility.yul\":1911:1929   */\n  add\n    /* \"#utility.yul\":1905:1930   */\n  mload\n    /* \"#utility.yul\":1957:1975   */\n  0xffffffffffffffff\n    /* \"#utility.yul\":1949:1955   */\n  dup2\n    /* \"#utility.yul\":1946:1976   */\n  gt\n    /* \"#utility.yul\":1943:2060   */\n  iszero\n  tag_58\n  jumpi\n    /* \"#utility.yul\":1979:2058   */\n  tag_59\n  tag_56\n  jump\t// in\ntag_59:\n    /* \"#utility.yul\":1943:2060   */\ntag_58:\n    /* \"#utility.yul\":2084:2158   */\n  tag_60\n    /* \"#utility.yul\":2150:2157   */\n  dup10\n    /* \"#utility.yul\":2141:2147   */\n  dup3\n    /* \"#utility.yul\":2130:2139   */\n  dup11\n    /* \"#utility.yul\":2126:2148   */\n  add\n    /* \"#utility.yul\":2084:2158   */\n  tag_43\n  jump\t// in\ntag_60:\n    /* \"#utility.yul\":2074:2158   */\n  swap5\n  pop\n    /* \"#utility.yul\":1876:2168   */\n  pop\n    /* \"#utility.yul\":2228:2230   */\n  0x60\n    /* \"#utility.yul\":2217:2226   */\n  dup8\n    /* \"#utility.yul\":2213:2231   */\n  add\n    /* \"#utility.yul\":2207:2232   */\n  mload\n    /* \"#utility.yul\":2259:2277   */\n  0xffffffffffffffff\n    /* \"#utility.yul\":2251:2257   */\n  dup2\n    /* \"#utility.yul\":2248:2278   */\n  gt\n    /* \"#utility.yul\":2245:2362   */\n  iszero\n  tag_61\n  jumpi\n    /* \"#utility.yul\":2281:2360   */\n  tag_62\n  tag_56\n  jump\t// in\ntag_62:\n    /* \"#utility.yul\":2245:2362   */\ntag_61:\n    /* \"#utility.yul\":2386:2460   */\n  tag_63\n    /* \"#utility.yul\":2452:2459   */\n  dup10\n    /* \"#utility.yul\":2443:2449   */\n  dup3\n    /* \"#utility.yul\":2432:2441   */\n  dup11\n    /* \"#utility.yul\":2428:2450   */\n  add\n    /* \"#utility.yul\":2386:2460   */\n  tag_43\n  jump\t// in\ntag_63:\n    /* \"#utility.yul\":2376:2460   */\n  swap4\n  pop\n    /* \"#utility.yul\":2178:2470   */\n  pop\n    /* \"#utility.yul\":2530:2533   */\n  0x80\n    /* \"#utility.yul\":2519:2528   */\n  dup8\n    /* \"#utility.yul\":2515:2534   */\n  add\n    /* \"#utility.yul\":2509:2535   */\n  mload\n    /* \"#utility.yul\":2562:2580   */\n  0xffffffffffffffff\n    /* \"#utility.yul\":2554:2560   */\n  dup2\n    /* \"#utility.yul\":2551:2581   */\n  gt\n    /* \"#utility.yul\":2548:2665   */\n  iszero\n  tag_64\n  jumpi\n    /* \"#utility.yul\":2584:2663   */\n  tag_65\n  tag_56\n  jump\t// in\ntag_65:\n    /* \"#utility.yul\":2548:2665   */\ntag_64:\n    /* \"#utility.yul\":2689:2763   */\n  tag_66\n    /* \"#utility.yul\":2755:2762   */\n  dup10\n    /* \"#utility.yul\":2746:2752   */\n  dup3\n    /* \"#utility.yul\":2735:2744   */\n  dup11\n    /* \"#utility.yul\":2731:2753   */\n  add\n    /* \"#utility.yul\":2689:2763   */\n  tag_43\n  jump\t// in\ntag_66:\n    /* \"#utility.yul\":2679:2763   */\n  swap3\n  pop\n    /* \"#utility.yul\":2480:2773   */\n  pop\n    /* \"#utility.yul\":2812:2815   */\n  0xa0\n    /* \"#utility.yul\":2839:2900   */\n  tag_67\n    /* \"#utility.yul\":2892:2899   */\n  dup10\n    /* \"#utility.yul\":2883:2889   */\n  dup3\n    /* \"#utility.yul\":2872:2881   */\n  dup11\n    /* \"#utility.yul\":2868:2890   */\n  add\n    /* \"#utility.yul\":2839:2900   */\n  tag_35\n  jump\t// in\ntag_67:\n    /* \"#utility.yul\":2829:2900   */\n  swap2\n  pop\n    /* \"#utility.yul\":2783:2910   */\n  pop\n    /* \"#utility.yul\":1099:2917   */\n  swap3\n  swap6\n  pop\n  swap3\n  swap6\n  pop\n  swap3\n  swap6\n  jump\t// out\n    /* \"#utility.yul\":2923:3052   */\ntag_29:\n    /* \"#utility.yul\":2957:2963   */\n  0x00\n    /* \"#utility.yul\":2984:3004   */\n  tag_69\n  tag_70\n  jump\t// in\ntag_69:\n    /* \"#utility.yul\":2974:3004   */\n  swap1\n  pop\n    /* \"#utility.yul\":3013:3046   */\n  tag_71\n    /* \"#utility.yul\":3041:3045   */\n  dup3\n    /* \"#utility.yul\":3033:3039   */\n  dup3\n    /* \"#utility.yul\":3013:3046   */\n  tag_72\n  jump\t// in\ntag_71:\n    /* \"#utility.yul\":2923:3052   */\n  swap2\n  swap1\n  pop\n  jump\t// out\n    /* \"#utility.yul\":3058:3133   */\ntag_70:\n    /* \"#utility.yul\":3091:3097   */\n  0x00\n    /* \"#utility.yul\":3124:3126   */\n  0x40\n    /* \"#utility.yul\":3118:3127   */\n  mload\n    /* \"#utility.yul\":3108:3127   */\n  swap1\n  pop\n    /* \"#utility.yul\":3058:3133   */\n  swap1\n  jump\t// out\n    /* \"#utility.yul\":3139:3447   */\ntag_28:\n    /* \"#utility.yul\":3201:3205   */\n  0x00\n    /* \"#utility.yul\":3291:3309   */\n  0xffffffffffffffff\n    /* \"#utility.yul\":3283:3289   */\n  dup3\n    /* \"#utility.yul\":3280:3310   */\n  gt\n    /* \"#utility.yul\":3277:3333   */\n  iszero\n  tag_75\n  jumpi\n    /* \"#utility.yul\":3313:3331   */\n  tag_76\n  tag_77\n  jump\t// in\ntag_76:\n    /* \"#utility.yul\":3277:3333   */\ntag_75:\n    /* \"#utility.yul\":3351:3380   */\n  tag_78\n    /* \"#utility.yul\":3373:3379   */\n  dup3\n    /* \"#utility.yul\":3351:3380   */\n  tag_79\n  jump\t// in\ntag_78:\n    /* \"#utility.yul\":3343:3380   */\n  swap1\n  pop\n    /* \"#utility.yul\":3435:3439   */\n  0x20\n    /* \"#utility.yul\":3429:3433   */\n  dup2\n    /* \"#utility.yul\":3425:3440   */\n  add\n    /* \"#utility.yul\":3417:3440   */\n  swap1\n  pop\n    /* \"#utility.yul\":3139:3447   */\n  swap2\n  swap1\n  pop\n  jump\t// out\n    /* \"#utility.yul\":3453:3543   */\ntag_80:\n    /* \"#utility.yul\":3487:3494   */\n  0x00\n    /* \"#utility.yul\":3530:3535   */\n  dup2\n    /* \"#utility.yul\":3523:3536   */\n  iszero\n    /* \"#utility.yul\":3516:3537   */\n  iszero\n    /* \"#utility.yul\":3505:3537   */\n  swap1\n  pop\n    /* \"#utility.yul\":3453:3543   */\n  swap2\n  swap1\n  pop\n  jump\t// out\n    /* \"#utility.yul\":3549:3625   */\ntag_82:\n    /* \"#utility.yul\":3585:3592   */\n  0x00\n    /* \"#utility.yul\":3614:3619   */\n  dup2\n    /* \"#utility.yul\":3603:3619   */\n  swap1\n  pop\n    /* \"#utility.yul\":3549:3625   */\n  swap2\n  swap1\n  pop\n  jump\t// out\n    /* \"#utility.yul\":3631:3938   */\ntag_34:\n    /* \"#utility.yul\":3699:3700   */\n  0x00\n    /* \"#utility.yul\":3709:3822   */\ntag_85:\n    /* \"#utility.yul\":3723:3729   */\n  dup4\n    /* \"#utility.yul\":3720:3721   */\n  dup2\n    /* \"#utility.yul\":3717:3730   */\n  lt\n    /* \"#utility.yul\":3709:3822   */\n  iszero\n  tag_87\n  jumpi\n    /* \"#utility.yul\":3808:3809   */\n  dup1\n    /* \"#utility.yul\":3803:3806   */\n  dup3\n    /* \"#utility.yul\":3799:3810   */\n  add\n    /* \"#utility.yul\":3793:3811   */\n  mload\n    /* \"#utility.yul\":3789:3790   */\n  dup2\n    /* \"#utility.yul\":3784:3787   */\n  dup5\n    /* \"#utility.yul\":3780:3791   */\n  add\n    /* \"#utility.yul\":3773:3812   */\n  mstore\n    /* \"#utility.yul\":3745:3747   */\n  0x20\n    /* \"#utility.yul\":3742:3743   */\n  dup2\n    /* \"#utility.yul\":3738:3748   */\n  add\n    /* \"#utility.yul\":3733:3748   */\n  swap1\n  pop\n    /* \"#utility.yul\":3709:3822   */\n  jump(tag_85)\ntag_87:\n    /* \"#utility.yul\":3840:3846   */\n  dup4\n    /* \"#utility.yul\":3837:3838   */\n  dup2\n    /* \"#utility.yul\":3834:3847   */\n  gt\n    /* \"#utility.yul\":3831:3932   */\n  iszero\n  tag_88\n  jumpi\n    /* \"#utility.yul\":3920:3921   */\n  0x00\n    /* \"#utility.yul\":3911:3917   */\n  dup5\n    /* \"#utility.yul\":3906:3909   */\n  dup5\n    /* \"#utility.yul\":3902:3918   */\n  add\n    /* \"#utility.yul\":3895:3922   */\n  mstore\n    /* \"#utility.yul\":3831:3932   */\ntag_88:\n    /* \"#utility.yul\":3680:3938   */\n  pop\n    /* \"#utility.yul\":3631:3938   */\n  pop\n  pop\n  pop\n  jump\t// out\n    /* \"#utility.yul\":3944:4264   */\ntag_13:\n    /* \"#utility.yul\":3988:3994   */\n  0x00\n    /* \"#utility.yul\":4025:4026   */\n  0x02\n    /* \"#utility.yul\":4019:4023   */\n  dup3\n    /* \"#utility.yul\":4015:4027   */\n  div\n    /* \"#utility.yul\":4005:4027   */\n  swap1\n  pop\n    /* \"#utility.yul\":4072:4073   */\n  0x01\n    /* \"#utility.yul\":4066:4070   */\n  dup3\n    /* \"#utility.yul\":4062:4074   */\n  and\n    /* \"#utility.yul\":4093:4111   */\n  dup1\n    /* \"#utility.yul\":4083:4164   */\n  tag_90\n  jumpi\n    /* \"#utility.yul\":4149:4153   */\n  0x7f\n    /* \"#utility.yul\":4141:4147   */\n  dup3\n    /* \"#utility.yul\":4137:4154   */\n  and\n    /* \"#utility.yul\":4127:4154   */\n  swap2\n  pop\n    /* \"#utility.yul\":4083:4164   */\ntag_90:\n    /* \"#utility.yul\":4211:4213   */\n  0x20\n    /* \"#utility.yul\":4203:4209   */\n  dup3\n    /* \"#utility.yul\":4200:4214   */\n  lt\n    /* \"#utility.yul\":4180:4198   */\n  dup2\n    /* \"#utility.yul\":4177:4215   */\n  eq\n    /* \"#utility.yul\":4174:4258   */\n  iszero\n  tag_91\n  jumpi\n    /* \"#utility.yul\":4230:4248   */\n  tag_92\n  tag_93\n  jump\t// in\ntag_92:\n    /* \"#utility.yul\":4174:4258   */\ntag_91:\n    /* \"#utility.yul\":3995:4264   */\n  pop\n    /* \"#utility.yul\":3944:4264   */\n  swap2\n  swap1\n  pop\n  jump\t// out\n    /* \"#utility.yul\":4270:4551   */\ntag_72:\n    /* \"#utility.yul\":4353:4380   */\n  tag_95\n    /* \"#utility.yul\":4375:4379   */\n  dup3\n    /* \"#utility.yul\":4353:4380   */\n  tag_79\n  jump\t// in\ntag_95:\n    /* \"#utility.yul\":4345:4351   */\n  dup2\n    /* \"#utility.yul\":4341:4381   */\n  add\n    /* \"#utility.yul\":4483:4489   */\n  dup2\n    /* \"#utility.yul\":4471:4481   */\n  dup2\n    /* \"#utility.yul\":4468:4490   */\n  lt\n    /* \"#utility.yul\":4447:4465   */\n  0xffffffffffffffff\n    /* \"#utility.yul\":4435:4445   */\n  dup3\n    /* \"#utility.yul\":4432:4466   */\n  gt\n    /* \"#utility.yul\":4429:4491   */\n  or\n    /* \"#utility.yul\":4426:4514   */\n  iszero\n  tag_96\n  jumpi\n    /* \"#utility.yul\":4494:4512   */\n  tag_97\n  tag_77\n  jump\t// in\ntag_97:\n    /* \"#utility.yul\":4426:4514   */\ntag_96:\n    /* \"#utility.yul\":4534:4544   */\n  dup1\n    /* \"#utility.yul\":4530:4532   */\n  0x40\n    /* \"#utility.yul\":4523:4545   */\n  mstore\n    /* \"#utility.yul\":4313:4551   */\n  pop\n    /* \"#utility.yul\":4270:4551   */\n  pop\n  pop\n  jump\t// out\n    /* \"#utility.yul\":4557:4737   */\ntag_93:\n    /* \"#utility.yul\":4605:4682   */\n  0x4e487b7100000000000000000000000000000000000000000000000000000000\n    /* \"#utility.yul\":4602:4603   */\n  0x00\n    /* \"#utility.yul\":4595:4683   */\n  mstore\n    /* \"#utility.yul\":4702:4706   */\n  0x22\n    /* \"#utility.yul\":4699:4700   */\n  0x04\n    /* \"#utility.yul\":4692:4707   */\n  mstore\n    /* \"#utility.yul\":4726:4730   */\n  0x24\n    /* \"#utility.yul\":4723:4724   */\n  0x00\n    /* \"#utility.yul\":4716:4731   */\n  revert\n    /* \"#utility.yul\":4743:4923   */\ntag_77:\n    /* \"#utility.yul\":4791:4868   */\n  0x4e487b7100000000000000000000000000000000000000000000000000000000\n    /* \"#utility.yul\":4788:4789   */\n  0x00\n    /* \"#utility.yul\":4781:4869   */\n  mstore\n    /* \"#utility.yul\":4888:4892   */\n  0x41\n    /* \"#utility.yul\":4885:4886   */\n  0x04\n    /* \"#utility.yul\":4878:4893   */\n  mstore\n    /* \"#utility.yul\":4912:4916   */\n  0x24\n    /* \"#utility.yul\":4909:4910   */\n  0x00\n    /* \"#utility.yul\":4902:4917   */\n  revert\n    /* \"#utility.yul\":4929:5046   */\ntag_47:\n    /* \"#utility.yul\":5038:5039   */\n  0x00\n    /* \"#utility.yul\":5035:5036   */\n  dup1\n    /* \"#utility.yul\":5028:5040   */\n  revert\n    /* \"#utility.yul\":5052:5169   */\ntag_32:\n    /* \"#utility.yul\":5161:5162   */\n  0x00\n    /* \"#utility.yul\":5158:5159   */\n  dup1\n    /* \"#utility.yul\":5151:5163   */\n  revert\n    /* \"#utility.yul\":5175:5292   */\ntag_56:\n    /* \"#utility.yul\":5284:5285   */\n  0x00\n    /* \"#utility.yul\":5281:5282   */\n  dup1\n    /* \"#utility.yul\":5274:5286   */\n  revert\n    /* \"#utility.yul\":5298:5415   */\ntag_52:\n    /* \"#utility.yul\":5407:5408   */\n  0x00\n    /* \"#utility.yul\":5404:5405   */\n  dup1\n    /* \"#utility.yul\":5397:5409   */\n  revert\n    /* \"#utility.yul\":5421:5523   */\ntag_79:\n    /* \"#utility.yul\":5462:5468   */\n  0x00\n    /* \"#utility.yul\":5513:5515   */\n  0x1f\n    /* \"#utility.yul\":5509:5516   */\n  not\n    /* \"#utility.yul\":5504:5506   */\n  0x1f\n    /* \"#utility.yul\":5497:5502   */\n  dup4\n    /* \"#utility.yul\":5493:5507   */\n  add\n    /* \"#utility.yul\":5489:5517   */\n  and\n    /* \"#utility.yul\":5479:5517   */\n  swap1\n  pop\n    /* \"#utility.yul\":5421:5523   */\n  swap2\n  swap1\n  pop\n  jump\t// out\n    /* \"#utility.yul\":5529:5645   */\ntag_38:\n    /* \"#utility.yul\":5599:5620   */\n  tag_106\n    /* \"#utility.yul\":5614:5619   */\n  dup2\n    /* \"#utility.yul\":5599:5620   */\n  tag_80\n  jump\t// in\ntag_106:\n    /* \"#utility.yul\":5592:5597   */\n  dup2\n    /* \"#utility.yul\":5589:5621   */\n  eq\n    /* \"#utility.yul\":5579:5639   */\n  tag_107\n  jumpi\n    /* \"#utility.yul\":5635:5636   */\n  0x00\n    /* \"#utility.yul\":5632:5633   */\n  dup1\n    /* \"#utility.yul\":5625:5637   */\n  revert\n    /* \"#utility.yul\":5579:5639   */\ntag_107:\n    /* \"#utility.yul\":5529:5645   */\n  pop\n  jump\t// out\n    /* \"#utility.yul\":5651:5771   */\ntag_42:\n    /* \"#utility.yul\":5723:5746   */\n  tag_109\n    /* \"#utility.yul\":5740:5745   */\n  dup2\n    /* \"#utility.yul\":5723:5746   */\n  tag_82\n  jump\t// in\ntag_109:\n    /* \"#utility.yul\":5716:5721   */\n  dup2\n    /* \"#utility.yul\":5713:5747   */\n  eq\n    /* \"#utility.yul\":5703:5765   */\n  tag_110\n  jumpi\n    /* \"#utility.yul\":5761:5762   */\n  0x00\n    /* \"#utility.yul\":5758:5759   */\n  dup1\n    /* \"#utility.yul\":5751:5763   */\n  revert\n    /* \"#utility.yul\":5703:5765   */\ntag_110:\n    /* \"#utility.yul\":5651:5771   */\n  pop\n  jump\t// out\n    /* \"contracts/User.sol\":71:1659  contract User {\r... */\ntag_11:\n  dataSize(sub_0)\n  dup1\n  dataOffset(sub_0)\n  0x00\n  codecopy\n  0x00\n  return\nstop\n\nsub_0: assembly {\n        /* \"contracts/User.sol\":71:1659  contract User {\r... */\n      mstore(0x40, 0x80)\n      callvalue\n      dup1\n      iszero\n      tag_1\n      jumpi\n      0x00\n      dup1\n      revert\n    tag_1:\n      pop\n      jumpi(tag_2, lt(calldatasize, 0x04))\n      shr(0xe0, calldataload(0x00))\n      dup1\n      0x7e79e8ba\n      gt\n      tag_14\n      jumpi\n      dup1\n      0x7e79e8ba\n      eq\n      tag_8\n      jumpi\n      dup1\n      0x8d378393\n      eq\n      tag_9\n      jumpi\n      dup1\n      0xacec338a\n      eq\n      tag_10\n      jumpi\n      dup1\n      0xc16a836b\n      eq\n      tag_11\n      jumpi\n      dup1\n      0xc47f0027\n      eq\n      tag_12\n      jumpi\n      dup1\n      0xd92be7f6\n      eq\n      tag_13\n      jumpi\n      jump(tag_2)\n    tag_14:\n      dup1\n      0x9ebb10\n      eq\n      tag_3\n      jumpi\n      dup1\n      0x17d7de7c\n      eq\n      tag_4\n      jumpi\n      dup1\n      0x282b065a\n      eq\n      tag_5\n      jumpi\n      dup1\n      0x526d0491\n      eq\n      tag_6\n      jumpi\n      dup1\n      0x73e7a6a9\n      eq\n      tag_7\n      jumpi\n    tag_2:\n      0x00\n      dup1\n      revert\n        /* \"contracts/User.sol\":1576:1656  function getActive() public view returns (bool) {\r... */\n    tag_3:\n      tag_15\n      tag_16\n      jump\t// in\n    tag_15:\n      mload(0x40)\n      tag_17\n      swap2\n      swap1\n      tag_18\n      jump\t// in\n    tag_17:\n      mload(0x40)\n      dup1\n      swap2\n      sub\n      swap1\n      return\n        /* \"contracts/User.sol\":1010:1095  function getName() public view returns (string memory) {\r... */\n    tag_4:\n      tag_19\n      tag_20\n      jump\t// in\n    tag_19:\n      mload(0x40)\n      tag_21\n      swap2\n      swap1\n      tag_22\n      jump\t// in\n    tag_21:\n      mload(0x40)\n      dup1\n      swap2\n      sub\n      swap1\n      return\n        /* \"contracts/User.sol\":1310:1390  function setEmail(string memory _email) public {\r... */\n    tag_5:\n      tag_23\n      0x04\n      dup1\n      calldatasize\n      sub\n      dup2\n      add\n      swap1\n      tag_24\n      swap2\n      swap1\n      tag_25\n      jump\t// in\n    tag_24:\n      tag_26\n      jump\t// in\n    tag_23:\n      stop\n        /* \"contracts/User.sol\":831:918  function getIDUserType() public view returns (int) {\r... */\n    tag_6:\n      tag_27\n      tag_28\n      jump\t// in\n    tag_27:\n      mload(0x40)\n      tag_29\n      swap2\n      swap1\n      tag_30\n      jump\t// in\n    tag_29:\n      mload(0x40)\n      dup1\n      swap2\n      sub\n      swap1\n      return\n        /* \"contracts/User.sol\":554:725  function setUpdate(int _idUserType, string memory _name, bool _active) public {\r... */\n    tag_7:\n      tag_31\n      0x04\n      dup1\n      calldatasize\n      sub\n      dup2\n      add\n      swap1\n      tag_32\n      swap2\n      swap1\n      tag_33\n      jump\t// in\n    tag_32:\n      tag_34\n      jump\t// in\n    tag_31:\n      stop\n        /* \"contracts/User.sol\":1398:1485  function getEmail() public view returns (string memory) {\r... */\n    tag_8:\n      tag_35\n      tag_36\n      jump\t// in\n    tag_35:\n      mload(0x40)\n      tag_37\n      swap2\n      swap1\n      tag_22\n      jump\t// in\n    tag_37:\n      mload(0x40)\n      dup1\n      swap2\n      sub\n      swap1\n      return\n        /* \"contracts/User.sol\":733:823  function setIDUserType(int _idUserType) public {\r... */\n    tag_9:\n      tag_38\n      0x04\n      dup1\n      calldatasize\n      sub\n      dup2\n      add\n      swap1\n      tag_39\n      swap2\n      swap1\n      tag_40\n      jump\t// in\n    tag_39:\n      tag_41\n      jump\t// in\n    tag_38:\n      stop\n        /* \"contracts/User.sol\":1493:1568  function setActive(bool _active) public {\r... */\n    tag_10:\n      tag_42\n      0x04\n      dup1\n      calldatasize\n      sub\n      dup2\n      add\n      swap1\n      tag_43\n      swap2\n      swap1\n      tag_44\n      jump\t// in\n    tag_43:\n      tag_45\n      jump\t// in\n    tag_42:\n      stop\n        /* \"contracts/User.sol\":1207:1302  function getBirthDate() public view returns (string memory) {\r... */\n    tag_11:\n      tag_46\n      tag_47\n      jump\t// in\n    tag_46:\n      mload(0x40)\n      tag_48\n      swap2\n      swap1\n      tag_22\n      jump\t// in\n    tag_48:\n      mload(0x40)\n      dup1\n      swap2\n      sub\n      swap1\n      return\n        /* \"contracts/User.sol\":926:1002  function setName(string memory _name) public {\r... */\n    tag_12:\n      tag_49\n      0x04\n      dup1\n      calldatasize\n      sub\n      dup2\n      add\n      swap1\n      tag_50\n      swap2\n      swap1\n      tag_25\n      jump\t// in\n    tag_50:\n      tag_51\n      jump\t// in\n    tag_49:\n      stop\n        /* \"contracts/User.sol\":1103:1199  function setBirthDate(string memory _birthDate) public {\r... */\n    tag_13:\n      tag_52\n      0x04\n      dup1\n      calldatasize\n      sub\n      dup2\n      add\n      swap1\n      tag_53\n      swap2\n      swap1\n      tag_25\n      jump\t// in\n    tag_53:\n      tag_54\n      jump\t// in\n    tag_52:\n      stop\n        /* \"contracts/User.sol\":1576:1656  function getActive() public view returns (bool) {\r... */\n    tag_16:\n        /* \"contracts/User.sol\":1618:1622  bool */\n      0x00\n        /* \"contracts/User.sol\":1642:1648  active */\n      0x05\n      0x00\n      swap1\n      sload\n      swap1\n      0x0100\n      exp\n      swap1\n      div\n      0xff\n      and\n        /* \"contracts/User.sol\":1635:1648  return active */\n      swap1\n      pop\n        /* \"contracts/User.sol\":1576:1656  function getActive() public view returns (bool) {\r... */\n      swap1\n      jump\t// out\n        /* \"contracts/User.sol\":1010:1095  function getName() public view returns (string memory) {\r... */\n    tag_20:\n        /* \"contracts/User.sol\":1050:1063  string memory */\n      0x60\n        /* \"contracts/User.sol\":1083:1087  name */\n      0x01\n        /* \"contracts/User.sol\":1076:1087  return name */\n      dup1\n      sload\n      tag_57\n      swap1\n      tag_58\n      jump\t// in\n    tag_57:\n      dup1\n      0x1f\n      add\n      0x20\n      dup1\n      swap2\n      div\n      mul\n      0x20\n      add\n      mload(0x40)\n      swap1\n      dup2\n      add\n      0x40\n      mstore\n      dup1\n      swap3\n      swap2\n      swap1\n      dup2\n      dup2\n      mstore\n      0x20\n      add\n      dup3\n      dup1\n      sload\n      tag_59\n      swap1\n      tag_58\n      jump\t// in\n    tag_59:\n      dup1\n      iszero\n      tag_60\n      jumpi\n      dup1\n      0x1f\n      lt\n      tag_61\n      jumpi\n      0x0100\n      dup1\n      dup4\n      sload\n      div\n      mul\n      dup4\n      mstore\n      swap2\n      0x20\n      add\n      swap2\n      jump(tag_60)\n    tag_61:\n      dup3\n      add\n      swap2\n      swap1\n      0x00\n      mstore\n      keccak256(0x00, 0x20)\n      swap1\n    tag_62:\n      dup2\n      sload\n      dup2\n      mstore\n      swap1\n      0x01\n      add\n      swap1\n      0x20\n      add\n      dup1\n      dup4\n      gt\n      tag_62\n      jumpi\n      dup3\n      swap1\n      sub\n      0x1f\n      and\n      dup3\n      add\n      swap2\n    tag_60:\n      pop\n      pop\n      pop\n      pop\n      pop\n      swap1\n      pop\n        /* \"contracts/User.sol\":1010:1095  function getName() public view returns (string memory) {\r... */\n      swap1\n      jump\t// out\n        /* \"contracts/User.sol\":1310:1390  function setEmail(string memory _email) public {\r... */\n    tag_26:\n        /* \"contracts/User.sol\":1376:1382  _email */\n      dup1\n        /* \"contracts/User.sol\":1368:1373  email */\n      0x03\n        /* \"contracts/User.sol\":1368:1382  email = _email */\n      swap1\n      dup1\n      mload\n      swap1\n      0x20\n      add\n      swap1\n      tag_64\n      swap3\n      swap2\n      swap1\n      tag_65\n      jump\t// in\n    tag_64:\n      pop\n        /* \"contracts/User.sol\":1310:1390  function setEmail(string memory _email) public {\r... */\n      pop\n      jump\t// out\n        /* \"contracts/User.sol\":831:918  function getIDUserType() public view returns (int) {\r... */\n    tag_28:\n        /* \"contracts/User.sol\":877:880  int */\n      0x00\n        /* \"contracts/User.sol\":900:910  idUserType */\n      dup1\n      sload\n        /* \"contracts/User.sol\":893:910  return idUserType */\n      swap1\n      pop\n        /* \"contracts/User.sol\":831:918  function getIDUserType() public view returns (int) {\r... */\n      swap1\n      jump\t// out\n        /* \"contracts/User.sol\":554:725  function setUpdate(int _idUserType, string memory _name, bool _active) public {\r... */\n    tag_34:\n        /* \"contracts/User.sol\":656:667  _idUserType */\n      dup3\n        /* \"contracts/User.sol\":643:653  idUserType */\n      0x00\n        /* \"contracts/User.sol\":643:667  idUserType = _idUserType */\n      dup2\n      swap1\n      sstore\n      pop\n        /* \"contracts/User.sol\":685:690  _name */\n      dup2\n        /* \"contracts/User.sol\":678:682  name */\n      0x01\n        /* \"contracts/User.sol\":678:690  name = _name */\n      swap1\n      dup1\n      mload\n      swap1\n      0x20\n      add\n      swap1\n      tag_68\n      swap3\n      swap2\n      swap1\n      tag_65\n      jump\t// in\n    tag_68:\n      pop\n        /* \"contracts/User.sol\":710:717  _active */\n      dup1\n        /* \"contracts/User.sol\":701:707  active */\n      0x05\n      0x00\n        /* \"contracts/User.sol\":701:717  active = _active */\n      0x0100\n      exp\n      dup2\n      sload\n      dup2\n      0xff\n      mul\n      not\n      and\n      swap1\n      dup4\n      iszero\n      iszero\n      mul\n      or\n      swap1\n      sstore\n      pop\n        /* \"contracts/User.sol\":554:725  function setUpdate(int _idUserType, string memory _name, bool _active) public {\r... */\n      pop\n      pop\n      pop\n      jump\t// out\n        /* \"contracts/User.sol\":1398:1485  function getEmail() public view returns (string memory) {\r... */\n    tag_36:\n        /* \"contracts/User.sol\":1439:1452  string memory */\n      0x60\n        /* \"contracts/User.sol\":1472:1477  email */\n      0x03\n        /* \"contracts/User.sol\":1465:1477  return email */\n      dup1\n      sload\n      tag_70\n      swap1\n      tag_58\n      jump\t// in\n    tag_70:\n      dup1\n      0x1f\n      add\n      0x20\n      dup1\n      swap2\n      div\n      mul\n      0x20\n      add\n      mload(0x40)\n      swap1\n      dup2\n      add\n      0x40\n      mstore\n      dup1\n      swap3\n      swap2\n      swap1\n      dup2\n      dup2\n      mstore\n      0x20\n      add\n      dup3\n      dup1\n      sload\n      tag_71\n      swap1\n      tag_58\n      jump\t// in\n    tag_71:\n      dup1\n      iszero\n      tag_72\n      jumpi\n      dup1\n      0x1f\n      lt\n      tag_73\n      jumpi\n      0x0100\n      dup1\n      dup4\n      sload\n      div\n      mul\n      dup4\n      mstore\n      swap2\n      0x20\n      add\n      swap2\n      jump(tag_72)\n    tag_73:\n      dup3\n      add\n      swap2\n      swap1\n      0x00\n      mstore\n      keccak256(0x00, 0x20)\n      swap1\n    tag_74:\n      dup2\n      sload\n      dup2\n      mstore\n      swap1\n      0x01\n      add\n      swap1\n      0x20\n      add\n      dup1\n      dup4\n      gt\n      tag_74\n      jumpi\n      dup3\n      swap1\n      sub\n      0x1f\n      and\n      dup3\n      add\n      swap2\n    tag_72:\n      pop\n      pop\n      pop\n      pop\n      pop\n      swap1\n      pop\n        /* \"contracts/User.sol\":1398:1485  function getEmail() public view returns (string memory) {\r... */\n      swap1\n      jump\t// out\n        /* \"contracts/User.sol\":733:823  function setIDUserType(int _idUserType) public {\r... */\n    tag_41:\n        /* \"contracts/User.sol\":804:815  _idUserType */\n      dup1\n        /* \"contracts/User.sol\":791:801  idUserType */\n      0x00\n        /* \"contracts/User.sol\":791:815  idUserType = _idUserType */\n      dup2\n      swap1\n      sstore\n      pop\n        /* \"contracts/User.sol\":733:823  function setIDUserType(int _idUserType) public {\r... */\n      pop\n      jump\t// out\n        /* \"contracts/User.sol\":1493:1568  function setActive(bool _active) public {\r... */\n    tag_45:\n        /* \"contracts/User.sol\":1553:1560  _active */\n      dup1\n        /* \"contracts/User.sol\":1544:1550  active */\n      0x05\n      0x00\n        /* \"contracts/User.sol\":1544:1560  active = _active */\n      0x0100\n      exp\n      dup2\n      sload\n      dup2\n      0xff\n      mul\n      not\n      and\n      swap1\n      dup4\n      iszero\n      iszero\n      mul\n      or\n      swap1\n      sstore\n      pop\n        /* \"contracts/User.sol\":1493:1568  function setActive(bool _active) public {\r... */\n      pop\n      jump\t// out\n        /* \"contracts/User.sol\":1207:1302  function getBirthDate() public view returns (string memory) {\r... */\n    tag_47:\n        /* \"contracts/User.sol\":1252:1265  string memory */\n      0x60\n        /* \"contracts/User.sol\":1285:1294  birthDate */\n      0x02\n        /* \"contracts/User.sol\":1278:1294  return birthDate */\n      dup1\n      sload\n      tag_78\n      swap1\n      tag_58\n      jump\t// in\n    tag_78:\n      dup1\n      0x1f\n      add\n      0x20\n      dup1\n      swap2\n      div\n      mul\n      0x20\n      add\n      mload(0x40)\n      swap1\n      dup2\n      add\n      0x40\n      mstore\n      dup1\n      swap3\n      swap2\n      swap1\n      dup2\n      dup2\n      mstore\n      0x20\n      add\n      dup3\n      dup1\n      sload\n      tag_79\n      swap1\n      tag_58\n      jump\t// in\n    tag_79:\n      dup1\n      iszero\n      tag_80\n      jumpi\n      dup1\n      0x1f\n      lt\n      tag_81\n      jumpi\n      0x0100\n      dup1\n      dup4\n      sload\n      div\n      mul\n      dup4\n      mstore\n      swap2\n      0x20\n      add\n      swap2\n      jump(tag_80)\n    tag_81:\n      dup3\n      add\n      swap2\n      swap1\n      0x00\n      mstore\n      keccak256(0x00, 0x20)\n      swap1\n    tag_82:\n      dup2\n      sload\n      dup2\n      mstore\n      swap1\n      0x01\n      add\n      swap1\n      0x20\n      add\n      dup1\n      dup4\n      gt\n      tag_82\n      jumpi\n      dup3\n      swap1\n      sub\n      0x1f\n      and\n      dup3\n      add\n      swap2\n    tag_80:\n      pop\n      pop\n      pop\n      pop\n      pop\n      swap1\n      pop\n        /* \"contracts/User.sol\":1207:1302  function getBirthDate() public view returns (string memory) {\r... */\n      swap1\n      jump\t// out\n        /* \"contracts/User.sol\":926:1002  function setName(string memory _name) public {\r... */\n    tag_51:\n        /* \"contracts/User.sol\":989:994  _name */\n      dup1\n        /* \"contracts/User.sol\":982:986  name */\n      0x01\n        /* \"contracts/User.sol\":982:994  name = _name */\n      swap1\n      dup1\n      mload\n      swap1\n      0x20\n      add\n      swap1\n      tag_84\n      swap3\n      swap2\n      swap1\n      tag_65\n      jump\t// in\n    tag_84:\n      pop\n        /* \"contracts/User.sol\":926:1002  function setName(string memory _name) public {\r... */\n      pop\n      jump\t// out\n        /* \"contracts/User.sol\":1103:1199  function setBirthDate(string memory _birthDate) public {\r... */\n    tag_54:\n        /* \"contracts/User.sol\":1181:1191  _birthDate */\n      dup1\n        /* \"contracts/User.sol\":1169:1178  birthDate */\n      0x02\n        /* \"contracts/User.sol\":1169:1191  birthDate = _birthDate */\n      swap1\n      dup1\n      mload\n      swap1\n      0x20\n      add\n      swap1\n      tag_86\n      swap3\n      swap2\n      swap1\n      tag_65\n      jump\t// in\n    tag_86:\n      pop\n        /* \"contracts/User.sol\":1103:1199  function setBirthDate(string memory _birthDate) public {\r... */\n      pop\n      jump\t// out\n    tag_65:\n      dup3\n      dup1\n      sload\n      tag_87\n      swap1\n      tag_58\n      jump\t// in\n    tag_87:\n      swap1\n      0x00\n      mstore\n      keccak256(0x00, 0x20)\n      swap1\n      0x1f\n      add\n      0x20\n      swap1\n      div\n      dup2\n      add\n      swap3\n      dup3\n      tag_89\n      jumpi\n      0x00\n      dup6\n      sstore\n      jump(tag_88)\n    tag_89:\n      dup3\n      0x1f\n      lt\n      tag_90\n      jumpi\n      dup1\n      mload\n      not(0xff)\n      and\n      dup4\n      dup1\n      add\n      or\n      dup6\n      sstore\n      jump(tag_88)\n    tag_90:\n      dup3\n      dup1\n      add\n      0x01\n      add\n      dup6\n      sstore\n      dup3\n      iszero\n      tag_88\n      jumpi\n      swap2\n      dup3\n      add\n    tag_91:\n      dup3\n      dup2\n      gt\n      iszero\n      tag_92\n      jumpi\n      dup3\n      mload\n      dup3\n      sstore\n      swap2\n      0x20\n      add\n      swap2\n      swap1\n      0x01\n      add\n      swap1\n      jump(tag_91)\n    tag_92:\n    tag_88:\n      pop\n      swap1\n      pop\n      tag_93\n      swap2\n      swap1\n      tag_94\n      jump\t// in\n    tag_93:\n      pop\n      swap1\n      jump\t// out\n    tag_94:\n    tag_95:\n      dup1\n      dup3\n      gt\n      iszero\n      tag_96\n      jumpi\n      0x00\n      dup2\n      0x00\n      swap1\n      sstore\n      pop\n      0x01\n      add\n      jump(tag_95)\n    tag_96:\n      pop\n      swap1\n      jump\t// out\n        /* \"#utility.yul\":7:419   */\n    tag_98:\n        /* \"#utility.yul\":85:90   */\n      0x00\n        /* \"#utility.yul\":110:176   */\n      tag_100\n        /* \"#utility.yul\":126:175   */\n      tag_101\n        /* \"#utility.yul\":168:174   */\n      dup5\n        /* \"#utility.yul\":126:175   */\n      tag_102\n      jump\t// in\n    tag_101:\n        /* \"#utility.yul\":110:176   */\n      tag_103\n      jump\t// in\n    tag_100:\n        /* \"#utility.yul\":101:176   */\n      swap1\n      pop\n        /* \"#utility.yul\":199:205   */\n      dup3\n        /* \"#utility.yul\":192:197   */\n      dup2\n        /* \"#utility.yul\":185:206   */\n      mstore\n        /* \"#utility.yul\":237:241   */\n      0x20\n        /* \"#utility.yul\":230:235   */\n      dup2\n        /* \"#utility.yul\":226:242   */\n      add\n        /* \"#utility.yul\":275:278   */\n      dup5\n        /* \"#utility.yul\":266:272   */\n      dup5\n        /* \"#utility.yul\":261:264   */\n      dup5\n        /* \"#utility.yul\":257:273   */\n      add\n        /* \"#utility.yul\":254:279   */\n      gt\n        /* \"#utility.yul\":251:363   */\n      iszero\n      tag_104\n      jumpi\n        /* \"#utility.yul\":282:361   */\n      tag_105\n      tag_106\n      jump\t// in\n    tag_105:\n        /* \"#utility.yul\":251:363   */\n    tag_104:\n        /* \"#utility.yul\":372:413   */\n      tag_107\n        /* \"#utility.yul\":406:412   */\n      dup5\n        /* \"#utility.yul\":401:404   */\n      dup3\n        /* \"#utility.yul\":396:399   */\n      dup6\n        /* \"#utility.yul\":372:413   */\n      tag_108\n      jump\t// in\n    tag_107:\n        /* \"#utility.yul\":91:419   */\n      pop\n        /* \"#utility.yul\":7:419   */\n      swap4\n      swap3\n      pop\n      pop\n      pop\n      jump\t// out\n        /* \"#utility.yul\":425:558   */\n    tag_109:\n        /* \"#utility.yul\":468:473   */\n      0x00\n        /* \"#utility.yul\":506:512   */\n      dup2\n        /* \"#utility.yul\":493:513   */\n      calldataload\n        /* \"#utility.yul\":484:513   */\n      swap1\n      pop\n        /* \"#utility.yul\":522:552   */\n      tag_111\n        /* \"#utility.yul\":546:551   */\n      dup2\n        /* \"#utility.yul\":522:552   */\n      tag_112\n      jump\t// in\n    tag_111:\n        /* \"#utility.yul\":425:558   */\n      swap3\n      swap2\n      pop\n      pop\n      jump\t// out\n        /* \"#utility.yul\":564:701   */\n    tag_113:\n        /* \"#utility.yul\":609:614   */\n      0x00\n        /* \"#utility.yul\":647:653   */\n      dup2\n        /* \"#utility.yul\":634:654   */\n      calldataload\n        /* \"#utility.yul\":625:654   */\n      swap1\n      pop\n        /* \"#utility.yul\":663:695   */\n      tag_115\n        /* \"#utility.yul\":689:694   */\n      dup2\n        /* \"#utility.yul\":663:695   */\n      tag_116\n      jump\t// in\n    tag_115:\n        /* \"#utility.yul\":564:701   */\n      swap3\n      swap2\n      pop\n      pop\n      jump\t// out\n        /* \"#utility.yul\":721:1061   */\n    tag_117:\n        /* \"#utility.yul\":777:782   */\n      0x00\n        /* \"#utility.yul\":826:829   */\n      dup3\n        /* \"#utility.yul\":819:823   */\n      0x1f\n        /* \"#utility.yul\":811:817   */\n      dup4\n        /* \"#utility.yul\":807:824   */\n      add\n        /* \"#utility.yul\":803:830   */\n      slt\n        /* \"#utility.yul\":793:915   */\n      tag_119\n      jumpi\n        /* \"#utility.yul\":834:913   */\n      tag_120\n      tag_121\n      jump\t// in\n    tag_120:\n        /* \"#utility.yul\":793:915   */\n    tag_119:\n        /* \"#utility.yul\":951:957   */\n      dup2\n        /* \"#utility.yul\":938:958   */\n      calldataload\n        /* \"#utility.yul\":976:1055   */\n      tag_122\n        /* \"#utility.yul\":1051:1054   */\n      dup5\n        /* \"#utility.yul\":1043:1049   */\n      dup3\n        /* \"#utility.yul\":1036:1040   */\n      0x20\n        /* \"#utility.yul\":1028:1034   */\n      dup7\n        /* \"#utility.yul\":1024:1041   */\n      add\n        /* \"#utility.yul\":976:1055   */\n      tag_98\n      jump\t// in\n    tag_122:\n        /* \"#utility.yul\":967:1055   */\n      swap2\n      pop\n        /* \"#utility.yul\":783:1061   */\n      pop\n        /* \"#utility.yul\":721:1061   */\n      swap3\n      swap2\n      pop\n      pop\n      jump\t// out\n        /* \"#utility.yul\":1067:1390   */\n    tag_44:\n        /* \"#utility.yul\":1123:1129   */\n      0x00\n        /* \"#utility.yul\":1172:1174   */\n      0x20\n        /* \"#utility.yul\":1160:1169   */\n      dup3\n        /* \"#utility.yul\":1151:1158   */\n      dup5\n        /* \"#utility.yul\":1147:1170   */\n      sub\n        /* \"#utility.yul\":1143:1175   */\n      slt\n        /* \"#utility.yul\":1140:1259   */\n      iszero\n      tag_124\n      jumpi\n        /* \"#utility.yul\":1178:1257   */\n      tag_125\n      tag_126\n      jump\t// in\n    tag_125:\n        /* \"#utility.yul\":1140:1259   */\n    tag_124:\n        /* \"#utility.yul\":1298:1299   */\n      0x00\n        /* \"#utility.yul\":1323:1373   */\n      tag_127\n        /* \"#utility.yul\":1365:1372   */\n      dup5\n        /* \"#utility.yul\":1356:1362   */\n      dup3\n        /* \"#utility.yul\":1345:1354   */\n      dup6\n        /* \"#utility.yul\":1341:1363   */\n      add\n        /* \"#utility.yul\":1323:1373   */\n      tag_109\n      jump\t// in\n    tag_127:\n        /* \"#utility.yul\":1313:1373   */\n      swap2\n      pop\n        /* \"#utility.yul\":1269:1383   */\n      pop\n        /* \"#utility.yul\":1067:1390   */\n      swap3\n      swap2\n      pop\n      pop\n      jump\t// out\n        /* \"#utility.yul\":1396:1723   */\n    tag_40:\n        /* \"#utility.yul\":1454:1460   */\n      0x00\n        /* \"#utility.yul\":1503:1505   */\n      0x20\n        /* \"#utility.yul\":1491:1500   */\n      dup3\n        /* \"#utility.yul\":1482:1489   */\n      dup5\n        /* \"#utility.yul\":1478:1501   */\n      sub\n        /* \"#utility.yul\":1474:1506   */\n      slt\n        /* \"#utility.yul\":1471:1590   */\n      iszero\n      tag_129\n      jumpi\n        /* \"#utility.yul\":1509:1588   */\n      tag_130\n      tag_126\n      jump\t// in\n    tag_130:\n        /* \"#utility.yul\":1471:1590   */\n    tag_129:\n        /* \"#utility.yul\":1629:1630   */\n      0x00\n        /* \"#utility.yul\":1654:1706   */\n      tag_131\n        /* \"#utility.yul\":1698:1705   */\n      dup5\n        /* \"#utility.yul\":1689:1695   */\n      dup3\n        /* \"#utility.yul\":1678:1687   */\n      dup6\n        /* \"#utility.yul\":1674:1696   */\n      add\n        /* \"#utility.yul\":1654:1706   */\n      tag_113\n      jump\t// in\n    tag_131:\n        /* \"#utility.yul\":1644:1706   */\n      swap2\n      pop\n        /* \"#utility.yul\":1600:1716   */\n      pop\n        /* \"#utility.yul\":1396:1723   */\n      swap3\n      swap2\n      pop\n      pop\n      jump\t// out\n        /* \"#utility.yul\":1729:2520   */\n    tag_33:\n        /* \"#utility.yul\":1812:1818   */\n      0x00\n        /* \"#utility.yul\":1820:1826   */\n      dup1\n        /* \"#utility.yul\":1828:1834   */\n      0x00\n        /* \"#utility.yul\":1877:1879   */\n      0x60\n        /* \"#utility.yul\":1865:1874   */\n      dup5\n        /* \"#utility.yul\":1856:1863   */\n      dup7\n        /* \"#utility.yul\":1852:1875   */\n      sub\n        /* \"#utility.yul\":1848:1880   */\n      slt\n        /* \"#utility.yul\":1845:1964   */\n      iszero\n      tag_133\n      jumpi\n        /* \"#utility.yul\":1883:1962   */\n      tag_134\n      tag_126\n      jump\t// in\n    tag_134:\n        /* \"#utility.yul\":1845:1964   */\n    tag_133:\n        /* \"#utility.yul\":2003:2004   */\n      0x00\n        /* \"#utility.yul\":2028:2080   */\n      tag_135\n        /* \"#utility.yul\":2072:2079   */\n      dup7\n        /* \"#utility.yul\":2063:2069   */\n      dup3\n        /* \"#utility.yul\":2052:2061   */\n      dup8\n        /* \"#utility.yul\":2048:2070   */\n      add\n        /* \"#utility.yul\":2028:2080   */\n      tag_113\n      jump\t// in\n    tag_135:\n        /* \"#utility.yul\":2018:2080   */\n      swap4\n      pop\n        /* \"#utility.yul\":1974:2090   */\n      pop\n        /* \"#utility.yul\":2157:2159   */\n      0x20\n        /* \"#utility.yul\":2146:2155   */\n      dup5\n        /* \"#utility.yul\":2142:2160   */\n      add\n        /* \"#utility.yul\":2129:2161   */\n      calldataload\n        /* \"#utility.yul\":2188:2206   */\n      0xffffffffffffffff\n        /* \"#utility.yul\":2180:2186   */\n      dup2\n        /* \"#utility.yul\":2177:2207   */\n      gt\n        /* \"#utility.yul\":2174:2291   */\n      iszero\n      tag_136\n      jumpi\n        /* \"#utility.yul\":2210:2289   */\n      tag_137\n      tag_138\n      jump\t// in\n    tag_137:\n        /* \"#utility.yul\":2174:2291   */\n    tag_136:\n        /* \"#utility.yul\":2315:2378   */\n      tag_139\n        /* \"#utility.yul\":2370:2377   */\n      dup7\n        /* \"#utility.yul\":2361:2367   */\n      dup3\n        /* \"#utility.yul\":2350:2359   */\n      dup8\n        /* \"#utility.yul\":2346:2368   */\n      add\n        /* \"#utility.yul\":2315:2378   */\n      tag_117\n      jump\t// in\n    tag_139:\n        /* \"#utility.yul\":2305:2378   */\n      swap3\n      pop\n        /* \"#utility.yul\":2100:2388   */\n      pop\n        /* \"#utility.yul\":2427:2429   */\n      0x40\n        /* \"#utility.yul\":2453:2503   */\n      tag_140\n        /* \"#utility.yul\":2495:2502   */\n      dup7\n        /* \"#utility.yul\":2486:2492   */\n      dup3\n        /* \"#utility.yul\":2475:2484   */\n      dup8\n        /* \"#utility.yul\":2471:2493   */\n      add\n        /* \"#utility.yul\":2453:2503   */\n      tag_109\n      jump\t// in\n    tag_140:\n        /* \"#utility.yul\":2443:2503   */\n      swap2\n      pop\n        /* \"#utility.yul\":2398:2513   */\n      pop\n        /* \"#utility.yul\":1729:2520   */\n      swap3\n      pop\n      swap3\n      pop\n      swap3\n      jump\t// out\n        /* \"#utility.yul\":2526:3035   */\n    tag_25:\n        /* \"#utility.yul\":2595:2601   */\n      0x00\n        /* \"#utility.yul\":2644:2646   */\n      0x20\n        /* \"#utility.yul\":2632:2641   */\n      dup3\n        /* \"#utility.yul\":2623:2630   */\n      dup5\n        /* \"#utility.yul\":2619:2642   */\n      sub\n        /* \"#utility.yul\":2615:2647   */\n      slt\n        /* \"#utility.yul\":2612:2731   */\n      iszero\n      tag_142\n      jumpi\n        /* \"#utility.yul\":2650:2729   */\n      tag_143\n      tag_126\n      jump\t// in\n    tag_143:\n        /* \"#utility.yul\":2612:2731   */\n    tag_142:\n        /* \"#utility.yul\":2798:2799   */\n      0x00\n        /* \"#utility.yul\":2787:2796   */\n      dup3\n        /* \"#utility.yul\":2783:2800   */\n      add\n        /* \"#utility.yul\":2770:2801   */\n      calldataload\n        /* \"#utility.yul\":2828:2846   */\n      0xffffffffffffffff\n        /* \"#utility.yul\":2820:2826   */\n      dup2\n        /* \"#utility.yul\":2817:2847   */\n      gt\n        /* \"#utility.yul\":2814:2931   */\n      iszero\n      tag_144\n      jumpi\n        /* \"#utility.yul\":2850:2929   */\n      tag_145\n      tag_138\n      jump\t// in\n    tag_145:\n        /* \"#utility.yul\":2814:2931   */\n    tag_144:\n        /* \"#utility.yul\":2955:3018   */\n      tag_146\n        /* \"#utility.yul\":3010:3017   */\n      dup5\n        /* \"#utility.yul\":3001:3007   */\n      dup3\n        /* \"#utility.yul\":2990:2999   */\n      dup6\n        /* \"#utility.yul\":2986:3008   */\n      add\n        /* \"#utility.yul\":2955:3018   */\n      tag_117\n      jump\t// in\n    tag_146:\n        /* \"#utility.yul\":2945:3018   */\n      swap2\n      pop\n        /* \"#utility.yul\":2741:3028   */\n      pop\n        /* \"#utility.yul\":2526:3035   */\n      swap3\n      swap2\n      pop\n      pop\n      jump\t// out\n        /* \"#utility.yul\":3041:3150   */\n    tag_147:\n        /* \"#utility.yul\":3122:3143   */\n      tag_149\n        /* \"#utility.yul\":3137:3142   */\n      dup2\n        /* \"#utility.yul\":3122:3143   */\n      tag_150\n      jump\t// in\n    tag_149:\n        /* \"#utility.yul\":3117:3120   */\n      dup3\n        /* \"#utility.yul\":3110:3144   */\n      mstore\n        /* \"#utility.yul\":3041:3150   */\n      pop\n      pop\n      jump\t// out\n        /* \"#utility.yul\":3156:3271   */\n    tag_151:\n        /* \"#utility.yul\":3241:3264   */\n      tag_153\n        /* \"#utility.yul\":3258:3263   */\n      dup2\n        /* \"#utility.yul\":3241:3264   */\n      tag_154\n      jump\t// in\n    tag_153:\n        /* \"#utility.yul\":3236:3239   */\n      dup3\n        /* \"#utility.yul\":3229:3265   */\n      mstore\n        /* \"#utility.yul\":3156:3271   */\n      pop\n      pop\n      jump\t// out\n        /* \"#utility.yul\":3277:3641   */\n    tag_155:\n        /* \"#utility.yul\":3365:3368   */\n      0x00\n        /* \"#utility.yul\":3393:3432   */\n      tag_157\n        /* \"#utility.yul\":3426:3431   */\n      dup3\n        /* \"#utility.yul\":3393:3432   */\n      tag_158\n      jump\t// in\n    tag_157:\n        /* \"#utility.yul\":3448:3519   */\n      tag_159\n        /* \"#utility.yul\":3512:3518   */\n      dup2\n        /* \"#utility.yul\":3507:3510   */\n      dup6\n        /* \"#utility.yul\":3448:3519   */\n      tag_160\n      jump\t// in\n    tag_159:\n        /* \"#utility.yul\":3441:3519   */\n      swap4\n      pop\n        /* \"#utility.yul\":3528:3580   */\n      tag_161\n        /* \"#utility.yul\":3573:3579   */\n      dup2\n        /* \"#utility.yul\":3568:3571   */\n      dup6\n        /* \"#utility.yul\":3561:3565   */\n      0x20\n        /* \"#utility.yul\":3554:3559   */\n      dup7\n        /* \"#utility.yul\":3550:3566   */\n      add\n        /* \"#utility.yul\":3528:3580   */\n      tag_162\n      jump\t// in\n    tag_161:\n        /* \"#utility.yul\":3605:3634   */\n      tag_163\n        /* \"#utility.yul\":3627:3633   */\n      dup2\n        /* \"#utility.yul\":3605:3634   */\n      tag_164\n      jump\t// in\n    tag_163:\n        /* \"#utility.yul\":3600:3603   */\n      dup5\n        /* \"#utility.yul\":3596:3635   */\n      add\n        /* \"#utility.yul\":3589:3635   */\n      swap2\n      pop\n        /* \"#utility.yul\":3369:3641   */\n      pop\n        /* \"#utility.yul\":3277:3641   */\n      swap3\n      swap2\n      pop\n      pop\n      jump\t// out\n        /* \"#utility.yul\":3647:3857   */\n    tag_18:\n        /* \"#utility.yul\":3734:3738   */\n      0x00\n        /* \"#utility.yul\":3772:3774   */\n      0x20\n        /* \"#utility.yul\":3761:3770   */\n      dup3\n        /* \"#utility.yul\":3757:3775   */\n      add\n        /* \"#utility.yul\":3749:3775   */\n      swap1\n      pop\n        /* \"#utility.yul\":3785:3850   */\n      tag_166\n        /* \"#utility.yul\":3847:3848   */\n      0x00\n        /* \"#utility.yul\":3836:3845   */\n      dup4\n        /* \"#utility.yul\":3832:3849   */\n      add\n        /* \"#utility.yul\":3823:3829   */\n      dup5\n        /* \"#utility.yul\":3785:3850   */\n      tag_147\n      jump\t// in\n    tag_166:\n        /* \"#utility.yul\":3647:3857   */\n      swap3\n      swap2\n      pop\n      pop\n      jump\t// out\n        /* \"#utility.yul\":3863:4081   */\n    tag_30:\n        /* \"#utility.yul\":3954:3958   */\n      0x00\n        /* \"#utility.yul\":3992:3994   */\n      0x20\n        /* \"#utility.yul\":3981:3990   */\n      dup3\n        /* \"#utility.yul\":3977:3995   */\n      add\n        /* \"#utility.yul\":3969:3995   */\n      swap1\n      pop\n        /* \"#utility.yul\":4005:4074   */\n      tag_168\n        /* \"#utility.yul\":4071:4072   */\n      0x00\n        /* \"#utility.yul\":4060:4069   */\n      dup4\n        /* \"#utility.yul\":4056:4073   */\n      add\n        /* \"#utility.yul\":4047:4053   */\n      dup5\n        /* \"#utility.yul\":4005:4074   */\n      tag_151\n      jump\t// in\n    tag_168:\n        /* \"#utility.yul\":3863:4081   */\n      swap3\n      swap2\n      pop\n      pop\n      jump\t// out\n        /* \"#utility.yul\":4087:4400   */\n    tag_22:\n        /* \"#utility.yul\":4200:4204   */\n      0x00\n        /* \"#utility.yul\":4238:4240   */\n      0x20\n        /* \"#utility.yul\":4227:4236   */\n      dup3\n        /* \"#utility.yul\":4223:4241   */\n      add\n        /* \"#utility.yul\":4215:4241   */\n      swap1\n      pop\n        /* \"#utility.yul\":4287:4296   */\n      dup2\n        /* \"#utility.yul\":4281:4285   */\n      dup2\n        /* \"#utility.yul\":4277:4297   */\n      sub\n        /* \"#utility.yul\":4273:4274   */\n      0x00\n        /* \"#utility.yul\":4262:4271   */\n      dup4\n        /* \"#utility.yul\":4258:4275   */\n      add\n        /* \"#utility.yul\":4251:4298   */\n      mstore\n        /* \"#utility.yul\":4315:4393   */\n      tag_170\n        /* \"#utility.yul\":4388:4392   */\n      dup2\n        /* \"#utility.yul\":4379:4385   */\n      dup5\n        /* \"#utility.yul\":4315:4393   */\n      tag_155\n      jump\t// in\n    tag_170:\n        /* \"#utility.yul\":4307:4393   */\n      swap1\n      pop\n        /* \"#utility.yul\":4087:4400   */\n      swap3\n      swap2\n      pop\n      pop\n      jump\t// out\n        /* \"#utility.yul\":4406:4535   */\n    tag_103:\n        /* \"#utility.yul\":4440:4446   */\n      0x00\n        /* \"#utility.yul\":4467:4487   */\n      tag_172\n      tag_173\n      jump\t// in\n    tag_172:\n        /* \"#utility.yul\":4457:4487   */\n      swap1\n      pop\n        /* \"#utility.yul\":4496:4529   */\n      tag_174\n        /* \"#utility.yul\":4524:4528   */\n      dup3\n        /* \"#utility.yul\":4516:4522   */\n      dup3\n        /* \"#utility.yul\":4496:4529   */\n      tag_175\n      jump\t// in\n    tag_174:\n        /* \"#utility.yul\":4406:4535   */\n      swap2\n      swap1\n      pop\n      jump\t// out\n        /* \"#utility.yul\":4541:4616   */\n    tag_173:\n        /* \"#utility.yul\":4574:4580   */\n      0x00\n        /* \"#utility.yul\":4607:4609   */\n      0x40\n        /* \"#utility.yul\":4601:4610   */\n      mload\n        /* \"#utility.yul\":4591:4610   */\n      swap1\n      pop\n        /* \"#utility.yul\":4541:4616   */\n      swap1\n      jump\t// out\n        /* \"#utility.yul\":4622:4930   */\n    tag_102:\n        /* \"#utility.yul\":4684:4688   */\n      0x00\n        /* \"#utility.yul\":4774:4792   */\n      0xffffffffffffffff\n        /* \"#utility.yul\":4766:4772   */\n      dup3\n        /* \"#utility.yul\":4763:4793   */\n      gt\n        /* \"#utility.yul\":4760:4816   */\n      iszero\n      tag_178\n      jumpi\n        /* \"#utility.yul\":4796:4814   */\n      tag_179\n      tag_180\n      jump\t// in\n    tag_179:\n        /* \"#utility.yul\":4760:4816   */\n    tag_178:\n        /* \"#utility.yul\":4834:4863   */\n      tag_181\n        /* \"#utility.yul\":4856:4862   */\n      dup3\n        /* \"#utility.yul\":4834:4863   */\n      tag_164\n      jump\t// in\n    tag_181:\n        /* \"#utility.yul\":4826:4863   */\n      swap1\n      pop\n        /* \"#utility.yul\":4918:4922   */\n      0x20\n        /* \"#utility.yul\":4912:4916   */\n      dup2\n        /* \"#utility.yul\":4908:4923   */\n      add\n        /* \"#utility.yul\":4900:4923   */\n      swap1\n      pop\n        /* \"#utility.yul\":4622:4930   */\n      swap2\n      swap1\n      pop\n      jump\t// out\n        /* \"#utility.yul\":4936:5035   */\n    tag_158:\n        /* \"#utility.yul\":4988:4994   */\n      0x00\n        /* \"#utility.yul\":5022:5027   */\n      dup2\n        /* \"#utility.yul\":5016:5028   */\n      mload\n        /* \"#utility.yul\":5006:5028   */\n      swap1\n      pop\n        /* \"#utility.yul\":4936:5035   */\n      swap2\n      swap1\n      pop\n      jump\t// out\n        /* \"#utility.yul\":5041:5210   */\n    tag_160:\n        /* \"#utility.yul\":5125:5136   */\n      0x00\n        /* \"#utility.yul\":5159:5165   */\n      dup3\n        /* \"#utility.yul\":5154:5157   */\n      dup3\n        /* \"#utility.yul\":5147:5166   */\n      mstore\n        /* \"#utility.yul\":5199:5203   */\n      0x20\n        /* \"#utility.yul\":5194:5197   */\n      dup3\n        /* \"#utility.yul\":5190:5204   */\n      add\n        /* \"#utility.yul\":5175:5204   */\n      swap1\n      pop\n        /* \"#utility.yul\":5041:5210   */\n      swap3\n      swap2\n      pop\n      pop\n      jump\t// out\n        /* \"#utility.yul\":5216:5306   */\n    tag_150:\n        /* \"#utility.yul\":5250:5257   */\n      0x00\n        /* \"#utility.yul\":5293:5298   */\n      dup2\n        /* \"#utility.yul\":5286:5299   */\n      iszero\n        /* \"#utility.yul\":5279:5300   */\n      iszero\n        /* \"#utility.yul\":5268:5300   */\n      swap1\n      pop\n        /* \"#utility.yul\":5216:5306   */\n      swap2\n      swap1\n      pop\n      jump\t// out\n        /* \"#utility.yul\":5312:5388   */\n    tag_154:\n        /* \"#utility.yul\":5348:5355   */\n      0x00\n        /* \"#utility.yul\":5377:5382   */\n      dup2\n        /* \"#utility.yul\":5366:5382   */\n      swap1\n      pop\n        /* \"#utility.yul\":5312:5388   */\n      swap2\n      swap1\n      pop\n      jump\t// out\n        /* \"#utility.yul\":5394:5548   */\n    tag_108:\n        /* \"#utility.yul\":5478:5484   */\n      dup3\n        /* \"#utility.yul\":5473:5476   */\n      dup2\n        /* \"#utility.yul\":5468:5471   */\n      dup4\n        /* \"#utility.yul\":5455:5485   */\n      calldatacopy\n        /* \"#utility.yul\":5540:5541   */\n      0x00\n        /* \"#utility.yul\":5531:5537   */\n      dup4\n        /* \"#utility.yul\":5526:5529   */\n      dup4\n        /* \"#utility.yul\":5522:5538   */\n      add\n        /* \"#utility.yul\":5515:5542   */\n      mstore\n        /* \"#utility.yul\":5394:5548   */\n      pop\n      pop\n      pop\n      jump\t// out\n        /* \"#utility.yul\":5554:5861   */\n    tag_162:\n        /* \"#utility.yul\":5622:5623   */\n      0x00\n        /* \"#utility.yul\":5632:5745   */\n    tag_188:\n        /* \"#utility.yul\":5646:5652   */\n      dup4\n        /* \"#utility.yul\":5643:5644   */\n      dup2\n        /* \"#utility.yul\":5640:5653   */\n      lt\n        /* \"#utility.yul\":5632:5745   */\n      iszero\n      tag_190\n      jumpi\n        /* \"#utility.yul\":5731:5732   */\n      dup1\n        /* \"#utility.yul\":5726:5729   */\n      dup3\n        /* \"#utility.yul\":5722:5733   */\n      add\n        /* \"#utility.yul\":5716:5734   */\n      mload\n        /* \"#utility.yul\":5712:5713   */\n      dup2\n        /* \"#utility.yul\":5707:5710   */\n      dup5\n        /* \"#utility.yul\":5703:5714   */\n      add\n        /* \"#utility.yul\":5696:5735   */\n      mstore\n        /* \"#utility.yul\":5668:5670   */\n      0x20\n        /* \"#utility.yul\":5665:5666   */\n      dup2\n        /* \"#utility.yul\":5661:5671   */\n      add\n        /* \"#utility.yul\":5656:5671   */\n      swap1\n      pop\n        /* \"#utility.yul\":5632:5745   */\n      jump(tag_188)\n    tag_190:\n        /* \"#utility.yul\":5763:5769   */\n      dup4\n        /* \"#utility.yul\":5760:5761   */\n      dup2\n        /* \"#utility.yul\":5757:5770   */\n      gt\n        /* \"#utility.yul\":5754:5855   */\n      iszero\n      tag_191\n      jumpi\n        /* \"#utility.yul\":5843:5844   */\n      0x00\n        /* \"#utility.yul\":5834:5840   */\n      dup5\n        /* \"#utility.yul\":5829:5832   */\n      dup5\n        /* \"#utility.yul\":5825:5841   */\n      add\n        /* \"#utility.yul\":5818:5845   */\n      mstore\n        /* \"#utility.yul\":5754:5855   */\n    tag_191:\n        /* \"#utility.yul\":5603:5861   */\n      pop\n        /* \"#utility.yul\":5554:5861   */\n      pop\n      pop\n      pop\n      jump\t// out\n        /* \"#utility.yul\":5867:6187   */\n    tag_58:\n        /* \"#utility.yul\":5911:5917   */\n      0x00\n        /* \"#utility.yul\":5948:5949   */\n      0x02\n        /* \"#utility.yul\":5942:5946   */\n      dup3\n        /* \"#utility.yul\":5938:5950   */\n      div\n        /* \"#utility.yul\":5928:5950   */\n      swap1\n      pop\n        /* \"#utility.yul\":5995:5996   */\n      0x01\n        /* \"#utility.yul\":5989:5993   */\n      dup3\n        /* \"#utility.yul\":5985:5997   */\n      and\n        /* \"#utility.yul\":6016:6034   */\n      dup1\n        /* \"#utility.yul\":6006:6087   */\n      tag_193\n      jumpi\n        /* \"#utility.yul\":6072:6076   */\n      0x7f\n        /* \"#utility.yul\":6064:6070   */\n      dup3\n        /* \"#utility.yul\":6060:6077   */\n      and\n        /* \"#utility.yul\":6050:6077   */\n      swap2\n      pop\n        /* \"#utility.yul\":6006:6087   */\n    tag_193:\n        /* \"#utility.yul\":6134:6136   */\n      0x20\n        /* \"#utility.yul\":6126:6132   */\n      dup3\n        /* \"#utility.yul\":6123:6137   */\n      lt\n        /* \"#utility.yul\":6103:6121   */\n      dup2\n        /* \"#utility.yul\":6100:6138   */\n      eq\n        /* \"#utility.yul\":6097:6181   */\n      iszero\n      tag_194\n      jumpi\n        /* \"#utility.yul\":6153:6171   */\n      tag_195\n      tag_196\n      jump\t// in\n    tag_195:\n        /* \"#utility.yul\":6097:6181   */\n    tag_194:\n        /* \"#utility.yul\":5918:6187   */\n      pop\n        /* \"#utility.yul\":5867:6187   */\n      swap2\n      swap1\n      pop\n      jump\t// out\n        /* \"#utility.yul\":6193:6474   */\n    tag_175:\n        /* \"#utility.yul\":6276:6303   */\n      tag_198\n        /* \"#utility.yul\":6298:6302   */\n      dup3\n        /* \"#utility.yul\":6276:6303   */\n      tag_164\n      jump\t// in\n    tag_198:\n        /* \"#utility.yul\":6268:6274   */\n      dup2\n        /* \"#utility.yul\":6264:6304   */\n      add\n        /* \"#utility.yul\":6406:6412   */\n      dup2\n        /* \"#utility.yul\":6394:6404   */\n      dup2\n        /* \"#utility.yul\":6391:6413   */\n      lt\n        /* \"#utility.yul\":6370:6388   */\n      0xffffffffffffffff\n        /* \"#utility.yul\":6358:6368   */\n      dup3\n        /* \"#utility.yul\":6355:6389   */\n      gt\n        /* \"#utility.yul\":6352:6414   */\n      or\n        /* \"#utility.yul\":6349:6437   */\n      iszero\n      tag_199\n      jumpi\n        /* \"#utility.yul\":6417:6435   */\n      tag_200\n      tag_180\n      jump\t// in\n    tag_200:\n        /* \"#utility.yul\":6349:6437   */\n    tag_199:\n        /* \"#utility.yul\":6457:6467   */\n      dup1\n        /* \"#utility.yul\":6453:6455   */\n      0x40\n        /* \"#utility.yul\":6446:6468   */\n      mstore\n        /* \"#utility.yul\":6236:6474   */\n      pop\n        /* \"#utility.yul\":6193:6474   */\n      pop\n      pop\n      jump\t// out\n        /* \"#utility.yul\":6480:6660   */\n    tag_196:\n        /* \"#utility.yul\":6528:6605   */\n      0x4e487b7100000000000000000000000000000000000000000000000000000000\n        /* \"#utility.yul\":6525:6526   */\n      0x00\n        /* \"#utility.yul\":6518:6606   */\n      mstore\n        /* \"#utility.yul\":6625:6629   */\n      0x22\n        /* \"#utility.yul\":6622:6623   */\n      0x04\n        /* \"#utility.yul\":6615:6630   */\n      mstore\n        /* \"#utility.yul\":6649:6653   */\n      0x24\n        /* \"#utility.yul\":6646:6647   */\n      0x00\n        /* \"#utility.yul\":6639:6654   */\n      revert\n        /* \"#utility.yul\":6666:6846   */\n    tag_180:\n        /* \"#utility.yul\":6714:6791   */\n      0x4e487b7100000000000000000000000000000000000000000000000000000000\n        /* \"#utility.yul\":6711:6712   */\n      0x00\n        /* \"#utility.yul\":6704:6792   */\n      mstore\n        /* \"#utility.yul\":6811:6815   */\n      0x41\n        /* \"#utility.yul\":6808:6809   */\n      0x04\n        /* \"#utility.yul\":6801:6816   */\n      mstore\n        /* \"#utility.yul\":6835:6839   */\n      0x24\n        /* \"#utility.yul\":6832:6833   */\n      0x00\n        /* \"#utility.yul\":6825:6840   */\n      revert\n        /* \"#utility.yul\":6852:6969   */\n    tag_121:\n        /* \"#utility.yul\":6961:6962   */\n      0x00\n        /* \"#utility.yul\":6958:6959   */\n      dup1\n        /* \"#utility.yul\":6951:6963   */\n      revert\n        /* \"#utility.yul\":6975:7092   */\n    tag_106:\n        /* \"#utility.yul\":7084:7085   */\n      0x00\n        /* \"#utility.yul\":7081:7082   */\n      dup1\n        /* \"#utility.yul\":7074:7086   */\n      revert\n        /* \"#utility.yul\":7098:7215   */\n    tag_138:\n        /* \"#utility.yul\":7207:7208   */\n      0x00\n        /* \"#utility.yul\":7204:7205   */\n      dup1\n        /* \"#utility.yul\":7197:7209   */\n      revert\n        /* \"#utility.yul\":7221:7338   */\n    tag_126:\n        /* \"#utility.yul\":7330:7331   */\n      0x00\n        /* \"#utility.yul\":7327:7328   */\n      dup1\n        /* \"#utility.yul\":7320:7332   */\n      revert\n        /* \"#utility.yul\":7344:7446   */\n    tag_164:\n        /* \"#utility.yul\":7385:7391   */\n      0x00\n        /* \"#utility.yul\":7436:7438   */\n      0x1f\n        /* \"#utility.yul\":7432:7439   */\n      not\n        /* \"#utility.yul\":7427:7429   */\n      0x1f\n        /* \"#utility.yul\":7420:7425   */\n      dup4\n        /* \"#utility.yul\":7416:7430   */\n      add\n        /* \"#utility.yul\":7412:7440   */\n      and\n        /* \"#utility.yul\":7402:7440   */\n      swap1\n      pop\n        /* \"#utility.yul\":7344:7446   */\n      swap2\n      swap1\n      pop\n      jump\t// out\n        /* \"#utility.yul\":7452:7568   */\n    tag_112:\n        /* \"#utility.yul\":7522:7543   */\n      tag_209\n        /* \"#utility.yul\":7537:7542   */\n      dup2\n        /* \"#utility.yul\":7522:7543   */\n      tag_150\n      jump\t// in\n    tag_209:\n        /* \"#utility.yul\":7515:7520   */\n      dup2\n        /* \"#utility.yul\":7512:7544   */\n      eq\n        /* \"#utility.yul\":7502:7562   */\n      tag_210\n      jumpi\n        /* \"#utility.yul\":7558:7559   */\n      0x00\n        /* \"#utility.yul\":7555:7556   */\n      dup1\n        /* \"#utility.yul\":7548:7560   */\n      revert\n        /* \"#utility.yul\":7502:7562   */\n    tag_210:\n        /* \"#utility.yul\":7452:7568   */\n      pop\n      jump\t// out\n        /* \"#utility.yul\":7574:7694   */\n    tag_116:\n        /* \"#utility.yul\":7646:7669   */\n      tag_212\n        /* \"#utility.yul\":7663:7668   */\n      dup2\n        /* \"#utility.yul\":7646:7669   */\n      tag_154\n      jump\t// in\n    tag_212:\n        /* \"#utility.yul\":7639:7644   */\n      dup2\n        /* \"#utility.yul\":7636:7670   */\n      eq\n        /* \"#utility.yul\":7626:7688   */\n      tag_213\n      jumpi\n        /* \"#utility.yul\":7684:7685   */\n      0x00\n        /* \"#utility.yul\":7681:7682   */\n      dup1\n        /* \"#utility.yul\":7674:7686   */\n      revert\n        /* \"#utility.yul\":7626:7688   */\n    tag_213:\n        /* \"#utility.yul\":7574:7694   */\n      pop\n      jump\t// out\n\n    auxdata: 0xa2646970667358221220bff4c802ecd8ad1ccbcb19e40d737d4f843cf6b7d4ce060dacc41b3859c0515264736f6c63430008070033\n}\n",
				"bytecode": {
					"linkReferences": {},
					"object": "60806040523480156200001157600080fd5b5060405162000e9f38038062000e9f833981810160405281019062000037919062000224565b85600081905550846001908051906020019062000056929190620000c8565b5083600290805190602001906200006f929190620000c8565b50826003908051906020019062000088929190620000c8565b508160049080519060200190620000a1929190620000c8565b5080600560006101000a81548160ff0219169083151502179055505050505050506200050a565b828054620000d690620003e7565b90600052602060002090601f016020900481019282620000fa576000855562000146565b82601f106200011557805160ff191683800117855562000146565b8280016001018555821562000146579182015b828111156200014557825182559160200191906001019062000128565b5b50905062000155919062000159565b5090565b5b80821115620001745760008160009055506001016200015a565b5090565b60006200018f620001898462000365565b6200033c565b905082815260208101848484011115620001ae57620001ad620004b6565b5b620001bb848285620003b1565b509392505050565b600081519050620001d481620004d6565b92915050565b600081519050620001eb81620004f0565b92915050565b600082601f830112620002095762000208620004b1565b5b81516200021b84826020860162000178565b91505092915050565b60008060008060008060c08789031215620002445762000243620004c0565b5b60006200025489828a01620001da565b965050602087015167ffffffffffffffff811115620002785762000277620004bb565b5b6200028689828a01620001f1565b955050604087015167ffffffffffffffff811115620002aa57620002a9620004bb565b5b620002b889828a01620001f1565b945050606087015167ffffffffffffffff811115620002dc57620002db620004bb565b5b620002ea89828a01620001f1565b935050608087015167ffffffffffffffff8111156200030e576200030d620004bb565b5b6200031c89828a01620001f1565b92505060a06200032f89828a01620001c3565b9150509295509295509295565b6000620003486200035b565b90506200035682826200041d565b919050565b6000604051905090565b600067ffffffffffffffff82111562000383576200038262000482565b5b6200038e82620004c5565b9050602081019050919050565b60008115159050919050565b6000819050919050565b60005b83811015620003d1578082015181840152602081019050620003b4565b83811115620003e1576000848401525b50505050565b600060028204905060018216806200040057607f821691505b6020821081141562000417576200041662000453565b5b50919050565b6200042882620004c5565b810181811067ffffffffffffffff821117156200044a576200044962000482565b5b80604052505050565b7f4e487b7100000000000000000000000000000000000000000000000000000000600052602260045260246000fd5b7f4e487b7100000000000000000000000000000000000000000000000000000000600052604160045260246000fd5b600080fd5b600080fd5b600080fd5b600080fd5b6000601f19601f8301169050919050565b620004e1816200039b565b8114620004ed57600080fd5b50565b620004fb81620003a7565b81146200050757600080fd5b50565b610985806200051a6000396000f3fe608060405234801561001057600080fd5b50600436106100a85760003560e01c80637e79e8ba116100715780637e79e8ba1461013f5780638d3783931461015d578063acec338a14610179578063c16a836b14610195578063c47f0027146101b3578063d92be7f6146101cf576100a8565b80629ebb10146100ad57806317d7de7c146100cb578063282b065a146100e9578063526d04911461010557806373e7a6a914610123575b600080fd5b6100b56101eb565b6040516100c29190610719565b60405180910390f35b6100d3610202565b6040516100e0919061074f565b60405180910390f35b61010360048036038101906100fe9190610679565b610294565b005b61010d6102ae565b60405161011a9190610734565b60405180910390f35b61013d6004803603810190610138919061060a565b6102b7565b005b6101476102f4565b604051610154919061074f565b60405180910390f35b610177600480360381019061017291906105dd565b610386565b005b610193600480360381019061018e91906105b0565b610390565b005b61019d6103ad565b6040516101aa919061074f565b60405180910390f35b6101cd60048036038101906101c89190610679565b61043f565b005b6101e960048036038101906101e49190610679565b610459565b005b6000600560009054906101000a900460ff16905090565b6060600180546102119061083b565b80601f016020809104026020016040519081016040528092919081815260200182805461023d9061083b565b801561028a5780601f1061025f5761010080835404028352916020019161028a565b820191906000526020600020905b81548152906001019060200180831161026d57829003601f168201915b5050505050905090565b80600390805190602001906102aa929190610473565b5050565b60008054905090565b8260008190555081600190805190602001906102d4929190610473565b5080600560006101000a81548160ff021916908315150217905550505050565b6060600380546103039061083b565b80601f016020809104026020016040519081016040528092919081815260200182805461032f9061083b565b801561037c5780601f106103515761010080835404028352916020019161037c565b820191906000526020600020905b81548152906001019060200180831161035f57829003601f168201915b5050505050905090565b8060008190555050565b80600560006101000a81548160ff02191690831515021790555050565b6060600280546103bc9061083b565b80601f01602080910402602001604051908101604052809291908181526020018280546103e89061083b565b80156104355780601f1061040a57610100808354040283529160200191610435565b820191906000526020600020905b81548152906001019060200180831161041857829003601f168201915b5050505050905090565b8060019080519060200190610455929190610473565b5050565b806002908051906020019061046f929190610473565b5050565b82805461047f9061083b565b90600052602060002090601f0160209004810192826104a157600085556104e8565b82601f106104ba57805160ff19168380011785556104e8565b828001600101855582156104e8579182015b828111156104e75782518255916020019190600101906104cc565b5b5090506104f591906104f9565b5090565b5b808211156105125760008160009055506001016104fa565b5090565b600061052961052484610796565b610771565b90508281526020810184848401111561054557610544610901565b5b6105508482856107f9565b509392505050565b60008135905061056781610921565b92915050565b60008135905061057c81610938565b92915050565b600082601f830112610597576105966108fc565b5b81356105a7848260208601610516565b91505092915050565b6000602082840312156105c6576105c561090b565b5b60006105d484828501610558565b91505092915050565b6000602082840312156105f3576105f261090b565b5b60006106018482850161056d565b91505092915050565b6000806000606084860312156106235761062261090b565b5b60006106318682870161056d565b935050602084013567ffffffffffffffff81111561065257610651610906565b5b61065e86828701610582565b925050604061066f86828701610558565b9150509250925092565b60006020828403121561068f5761068e61090b565b5b600082013567ffffffffffffffff8111156106ad576106ac610906565b5b6106b984828501610582565b91505092915050565b6106cb816107e3565b82525050565b6106da816107ef565b82525050565b60006106eb826107c7565b6106f581856107d2565b9350610705818560208601610808565b61070e81610910565b840191505092915050565b600060208201905061072e60008301846106c2565b92915050565b600060208201905061074960008301846106d1565b92915050565b6000602082019050818103600083015261076981846106e0565b905092915050565b600061077b61078c565b9050610787828261086d565b919050565b6000604051905090565b600067ffffffffffffffff8211156107b1576107b06108cd565b5b6107ba82610910565b9050602081019050919050565b600081519050919050565b600082825260208201905092915050565b60008115159050919050565b6000819050919050565b82818337600083830152505050565b60005b8381101561082657808201518184015260208101905061080b565b83811115610835576000848401525b50505050565b6000600282049050600182168061085357607f821691505b602082108114156108675761086661089e565b5b50919050565b61087682610910565b810181811067ffffffffffffffff82111715610895576108946108cd565b5b80604052505050565b7f4e487b7100000000000000000000000000000000000000000000000000000000600052602260045260246000fd5b7f4e487b7100000000000000000000000000000000000000000000000000000000600052604160045260246000fd5b600080fd5b600080fd5b600080fd5b600080fd5b6000601f19601f8301169050919050565b61092a816107e3565b811461093557600080fd5b50565b610941816107ef565b811461094c57600080fd5b5056fea2646970667358221220bff4c802ecd8ad1ccbcb19e40d737d4f843cf6b7d4ce060dacc41b3859c0515264736f6c63430008070033",
					"opcodes": "PUSH1 0x80 PUSH1 0x40 MSTORE CALLVALUE DUP1 ISZERO PUSH3 0x11 JUMPI PUSH1 0x0 DUP1 REVERT JUMPDEST POP PUSH1 0x40 MLOAD PUSH3 0xE9F CODESIZE SUB DUP1 PUSH3 0xE9F DUP4 CODECOPY DUP2 DUP2 ADD PUSH1 0x40 MSTORE DUP2 ADD SWAP1 PUSH3 0x37 SWAP2 SWAP1 PUSH3 0x224 JUMP JUMPDEST DUP6 PUSH1 0x0 DUP2 SWAP1 SSTORE POP DUP5 PUSH1 0x1 SWAP1 DUP1 MLOAD SWAP1 PUSH1 0x20 ADD SWAP1 PUSH3 0x56 SWAP3 SWAP2 SWAP1 PUSH3 0xC8 JUMP JUMPDEST POP DUP4 PUSH1 0x2 SWAP1 DUP1 MLOAD SWAP1 PUSH1 0x20 ADD SWAP1 PUSH3 0x6F SWAP3 SWAP2 SWAP1 PUSH3 0xC8 JUMP JUMPDEST POP DUP3 PUSH1 0x3 SWAP1 DUP1 MLOAD SWAP1 PUSH1 0x20 ADD SWAP1 PUSH3 0x88 SWAP3 SWAP2 SWAP1 PUSH3 0xC8 JUMP JUMPDEST POP DUP2 PUSH1 0x4 SWAP1 DUP1 MLOAD SWAP1 PUSH1 0x20 ADD SWAP1 PUSH3 0xA1 SWAP3 SWAP2 SWAP1 PUSH3 0xC8 JUMP JUMPDEST POP DUP1 PUSH1 0x5 PUSH1 0x0 PUSH2 0x100 EXP DUP2 SLOAD DUP2 PUSH1 0xFF MUL NOT AND SWAP1 DUP4 ISZERO ISZERO MUL OR SWAP1 SSTORE POP POP POP POP POP POP POP PUSH3 0x50A JUMP JUMPDEST DUP3 DUP1 SLOAD PUSH3 0xD6 SWAP1 PUSH3 0x3E7 JUMP JUMPDEST SWAP1 PUSH1 0x0 MSTORE PUSH1 0x20 PUSH1 0x0 KECCAK256 SWAP1 PUSH1 0x1F ADD PUSH1 0x20 SWAP1 DIV DUP2 ADD SWAP3 DUP3 PUSH3 0xFA JUMPI PUSH1 0x0 DUP6 SSTORE PUSH3 0x146 JUMP JUMPDEST DUP3 PUSH1 0x1F LT PUSH3 0x115 JUMPI DUP1 MLOAD PUSH1 0xFF NOT AND DUP4 DUP1 ADD OR DUP6 SSTORE PUSH3 0x146 JUMP JUMPDEST DUP3 DUP1 ADD PUSH1 0x1 ADD DUP6 SSTORE DUP3 ISZERO PUSH3 0x146 JUMPI SWAP2 DUP3 ADD JUMPDEST DUP3 DUP2 GT ISZERO PUSH3 0x145 JUMPI DUP3 MLOAD DUP3 SSTORE SWAP2 PUSH1 0x20 ADD SWAP2 SWAP1 PUSH1 0x1 ADD SWAP1 PUSH3 0x128 JUMP JUMPDEST JUMPDEST POP SWAP1 POP PUSH3 0x155 SWAP2 SWAP1 PUSH3 0x159 JUMP JUMPDEST POP SWAP1 JUMP JUMPDEST JUMPDEST DUP1 DUP3 GT ISZERO PUSH3 0x174 JUMPI PUSH1 0x0 DUP2 PUSH1 0x0 SWAP1 SSTORE POP PUSH1 0x1 ADD PUSH3 0x15A JUMP JUMPDEST POP SWAP1 JUMP JUMPDEST PUSH1 0x0 PUSH3 0x18F PUSH3 0x189 DUP5 PUSH3 0x365 JUMP JUMPDEST PUSH3 0x33C JUMP JUMPDEST SWAP1 POP DUP3 DUP2 MSTORE PUSH1 0x20 DUP2 ADD DUP5 DUP5 DUP5 ADD GT ISZERO PUSH3 0x1AE JUMPI PUSH3 0x1AD PUSH3 0x4B6 JUMP JUMPDEST JUMPDEST PUSH3 0x1BB DUP5 DUP3 DUP6 PUSH3 0x3B1 JUMP JUMPDEST POP SWAP4 SWAP3 POP POP POP JUMP JUMPDEST PUSH1 0x0 DUP2 MLOAD SWAP1 POP PUSH3 0x1D4 DUP2 PUSH3 0x4D6 JUMP JUMPDEST SWAP3 SWAP2 POP POP JUMP JUMPDEST PUSH1 0x0 DUP2 MLOAD SWAP1 POP PUSH3 0x1EB DUP2 PUSH3 0x4F0 JUMP JUMPDEST SWAP3 SWAP2 POP POP JUMP JUMPDEST PUSH1 0x0 DUP3 PUSH1 0x1F DUP4 ADD SLT PUSH3 0x209 JUMPI PUSH3 0x208 PUSH3 0x4B1 JUMP JUMPDEST JUMPDEST DUP2 MLOAD PUSH3 0x21B DUP5 DUP3 PUSH1 0x20 DUP7 ADD PUSH3 0x178 JUMP JUMPDEST SWAP2 POP POP SWAP3 SWAP2 POP POP JUMP JUMPDEST PUSH1 0x0 DUP1 PUSH1 0x0 DUP1 PUSH1 0x0 DUP1 PUSH1 0xC0 DUP8 DUP10 SUB SLT ISZERO PUSH3 0x244 JUMPI PUSH3 0x243 PUSH3 0x4C0 JUMP JUMPDEST JUMPDEST PUSH1 0x0 PUSH3 0x254 DUP10 DUP3 DUP11 ADD PUSH3 0x1DA JUMP JUMPDEST SWAP7 POP POP PUSH1 0x20 DUP8 ADD MLOAD PUSH8 0xFFFFFFFFFFFFFFFF DUP2 GT ISZERO PUSH3 0x278 JUMPI PUSH3 0x277 PUSH3 0x4BB JUMP JUMPDEST JUMPDEST PUSH3 0x286 DUP10 DUP3 DUP11 ADD PUSH3 0x1F1 JUMP JUMPDEST SWAP6 POP POP PUSH1 0x40 DUP8 ADD MLOAD PUSH8 0xFFFFFFFFFFFFFFFF DUP2 GT ISZERO PUSH3 0x2AA JUMPI PUSH3 0x2A9 PUSH3 0x4BB JUMP JUMPDEST JUMPDEST PUSH3 0x2B8 DUP10 DUP3 DUP11 ADD PUSH3 0x1F1 JUMP JUMPDEST SWAP5 POP POP PUSH1 0x60 DUP8 ADD MLOAD PUSH8 0xFFFFFFFFFFFFFFFF DUP2 GT ISZERO PUSH3 0x2DC JUMPI PUSH3 0x2DB PUSH3 0x4BB JUMP JUMPDEST JUMPDEST PUSH3 0x2EA DUP10 DUP3 DUP11 ADD PUSH3 0x1F1 JUMP JUMPDEST SWAP4 POP POP PUSH1 0x80 DUP8 ADD MLOAD PUSH8 0xFFFFFFFFFFFFFFFF DUP2 GT ISZERO PUSH3 0x30E JUMPI PUSH3 0x30D PUSH3 0x4BB JUMP JUMPDEST JUMPDEST PUSH3 0x31C DUP10 DUP3 DUP11 ADD PUSH3 0x1F1 JUMP JUMPDEST SWAP3 POP POP PUSH1 0xA0 PUSH3 0x32F DUP10 DUP3 DUP11 ADD PUSH3 0x1C3 JUMP JUMPDEST SWAP2 POP POP SWAP3 SWAP6 POP SWAP3 SWAP6 POP SWAP3 SWAP6 JUMP JUMPDEST PUSH1 0x0 PUSH3 0x348 PUSH3 0x35B JUMP JUMPDEST SWAP1 POP PUSH3 0x356 DUP3 DUP3 PUSH3 0x41D JUMP JUMPDEST SWAP2 SWAP1 POP JUMP JUMPDEST PUSH1 0x0 PUSH1 0x40 MLOAD SWAP1 POP SWAP1 JUMP JUMPDEST PUSH1 0x0 PUSH8 0xFFFFFFFFFFFFFFFF DUP3 GT ISZERO PUSH3 0x383 JUMPI PUSH3 0x382 PUSH3 0x482 JUMP JUMPDEST JUMPDEST PUSH3 0x38E DUP3 PUSH3 0x4C5 JUMP JUMPDEST SWAP1 POP PUSH1 0x20 DUP2 ADD SWAP1 POP SWAP2 SWAP1 POP JUMP JUMPDEST PUSH1 0x0 DUP2 ISZERO ISZERO SWAP1 POP SWAP2 SWAP1 POP JUMP JUMPDEST PUSH1 0x0 DUP2 SWAP1 POP SWAP2 SWAP1 POP JUMP JUMPDEST PUSH1 0x0 JUMPDEST DUP4 DUP2 LT ISZERO PUSH3 0x3D1 JUMPI DUP1 DUP3 ADD MLOAD DUP2 DUP5 ADD MSTORE PUSH1 0x20 DUP2 ADD SWAP1 POP PUSH3 0x3B4 JUMP JUMPDEST DUP4 DUP2 GT ISZERO PUSH3 0x3E1 JUMPI PUSH1 0x0 DUP5 DUP5 ADD MSTORE JUMPDEST POP POP POP POP JUMP JUMPDEST PUSH1 0x0 PUSH1 0x2 DUP3 DIV SWAP1 POP PUSH1 0x1 DUP3 AND DUP1 PUSH3 0x400 JUMPI PUSH1 0x7F DUP3 AND SWAP2 POP JUMPDEST PUSH1 0x20 DUP3 LT DUP2 EQ ISZERO PUSH3 0x417 JUMPI PUSH3 0x416 PUSH3 0x453 JUMP JUMPDEST JUMPDEST POP SWAP2 SWAP1 POP JUMP JUMPDEST PUSH3 0x428 DUP3 PUSH3 0x4C5 JUMP JUMPDEST DUP2 ADD DUP2 DUP2 LT PUSH8 0xFFFFFFFFFFFFFFFF DUP3 GT OR ISZERO PUSH3 0x44A JUMPI PUSH3 0x449 PUSH3 0x482 JUMP JUMPDEST JUMPDEST DUP1 PUSH1 0x40 MSTORE POP POP POP JUMP JUMPDEST PUSH32 0x4E487B7100000000000000000000000000000000000000000000000000000000 PUSH1 0x0 MSTORE PUSH1 0x22 PUSH1 0x4 MSTORE PUSH1 0x24 PUSH1 0x0 REVERT JUMPDEST PUSH32 0x4E487B7100000000000000000000000000000000000000000000000000000000 PUSH1 0x0 MSTORE PUSH1 0x41 PUSH1 0x4 MSTORE PUSH1 0x24 PUSH1 0x0 REVERT JUMPDEST PUSH1 0x0 DUP1 REVERT JUMPDEST PUSH1 0x0 DUP1 REVERT JUMPDEST PUSH1 0x0 DUP1 REVERT JUMPDEST PUSH1 0x0 DUP1 REVERT JUMPDEST PUSH1 0x0 PUSH1 0x1F NOT PUSH1 0x1F DUP4 ADD AND SWAP1 POP SWAP2 SWAP1 POP JUMP JUMPDEST PUSH3 0x4E1 DUP2 PUSH3 0x39B JUMP JUMPDEST DUP2 EQ PUSH3 0x4ED JUMPI PUSH1 0x0 DUP1 REVERT JUMPDEST POP JUMP JUMPDEST PUSH3 0x4FB DUP2 PUSH3 0x3A7 JUMP JUMPDEST DUP2 EQ PUSH3 0x507 JUMPI PUSH1 0x0 DUP1 REVERT JUMPDEST POP JUMP JUMPDEST PUSH2 0x985 DUP1 PUSH3 0x51A PUSH1 0x0 CODECOPY PUSH1 0x0 RETURN INVALID PUSH1 0x80 PUSH1 0x40 MSTORE CALLVALUE DUP1 ISZERO PUSH2 0x10 JUMPI PUSH1 0x0 DUP1 REVERT JUMPDEST POP PUSH1 0x4 CALLDATASIZE LT PUSH2 0xA8 JUMPI PUSH1 0x0 CALLDATALOAD PUSH1 0xE0 SHR DUP1 PUSH4 0x7E79E8BA GT PUSH2 0x71 JUMPI DUP1 PUSH4 0x7E79E8BA EQ PUSH2 0x13F JUMPI DUP1 PUSH4 0x8D378393 EQ PUSH2 0x15D JUMPI DUP1 PUSH4 0xACEC338A EQ PUSH2 0x179 JUMPI DUP1 PUSH4 0xC16A836B EQ PUSH2 0x195 JUMPI DUP1 PUSH4 0xC47F0027 EQ PUSH2 0x1B3 JUMPI DUP1 PUSH4 0xD92BE7F6 EQ PUSH2 0x1CF JUMPI PUSH2 0xA8 JUMP JUMPDEST DUP1 PUSH3 0x9EBB10 EQ PUSH2 0xAD JUMPI DUP1 PUSH4 0x17D7DE7C EQ PUSH2 0xCB JUMPI DUP1 PUSH4 0x282B065A EQ PUSH2 0xE9 JUMPI DUP1 PUSH4 0x526D0491 EQ PUSH2 0x105 JUMPI DUP1 PUSH4 0x73E7A6A9 EQ PUSH2 0x123 JUMPI JUMPDEST PUSH1 0x0 DUP1 REVERT JUMPDEST PUSH2 0xB5 PUSH2 0x1EB JUMP JUMPDEST PUSH1 0x40 MLOAD PUSH2 0xC2 SWAP2 SWAP1 PUSH2 0x719 JUMP JUMPDEST PUSH1 0x40 MLOAD DUP1 SWAP2 SUB SWAP1 RETURN JUMPDEST PUSH2 0xD3 PUSH2 0x202 JUMP JUMPDEST PUSH1 0x40 MLOAD PUSH2 0xE0 SWAP2 SWAP1 PUSH2 0x74F JUMP JUMPDEST PUSH1 0x40 MLOAD DUP1 SWAP2 SUB SWAP1 RETURN JUMPDEST PUSH2 0x103 PUSH1 0x4 DUP1 CALLDATASIZE SUB DUP2 ADD SWAP1 PUSH2 0xFE SWAP2 SWAP1 PUSH2 0x679 JUMP JUMPDEST PUSH2 0x294 JUMP JUMPDEST STOP JUMPDEST PUSH2 0x10D PUSH2 0x2AE JUMP JUMPDEST PUSH1 0x40 MLOAD PUSH2 0x11A SWAP2 SWAP1 PUSH2 0x734 JUMP JUMPDEST PUSH1 0x40 MLOAD DUP1 SWAP2 SUB SWAP1 RETURN JUMPDEST PUSH2 0x13D PUSH1 0x4 DUP1 CALLDATASIZE SUB DUP2 ADD SWAP1 PUSH2 0x138 SWAP2 SWAP1 PUSH2 0x60A JUMP JUMPDEST PUSH2 0x2B7 JUMP JUMPDEST STOP JUMPDEST PUSH2 0x147 PUSH2 0x2F4 JUMP JUMPDEST PUSH1 0x40 MLOAD PUSH2 0x154 SWAP2 SWAP1 PUSH2 0x74F JUMP JUMPDEST PUSH1 0x40 MLOAD DUP1 SWAP2 SUB SWAP1 RETURN JUMPDEST PUSH2 0x177 PUSH1 0x4 DUP1 CALLDATASIZE SUB DUP2 ADD SWAP1 PUSH2 0x172 SWAP2 SWAP1 PUSH2 0x5DD JUMP JUMPDEST PUSH2 0x386 JUMP JUMPDEST STOP JUMPDEST PUSH2 0x193 PUSH1 0x4 DUP1 CALLDATASIZE SUB DUP2 ADD SWAP1 PUSH2 0x18E SWAP2 SWAP1 PUSH2 0x5B0 JUMP JUMPDEST PUSH2 0x390 JUMP JUMPDEST STOP JUMPDEST PUSH2 0x19D PUSH2 0x3AD JUMP JUMPDEST PUSH1 0x40 MLOAD PUSH2 0x1AA SWAP2 SWAP1 PUSH2 0x74F JUMP JUMPDEST PUSH1 0x40 MLOAD DUP1 SWAP2 SUB SWAP1 RETURN JUMPDEST PUSH2 0x1CD PUSH1 0x4 DUP1 CALLDATASIZE SUB DUP2 ADD SWAP1 PUSH2 0x1C8 SWAP2 SWAP1 PUSH2 0x679 JUMP JUMPDEST PUSH2 0x43F JUMP JUMPDEST STOP JUMPDEST PUSH2 0x1E9 PUSH1 0x4 DUP1 CALLDATASIZE SUB DUP2 ADD SWAP1 PUSH2 0x1E4 SWAP2 SWAP1 PUSH2 0x679 JUMP JUMPDEST PUSH2 0x459 JUMP JUMPDEST STOP JUMPDEST PUSH1 0x0 PUSH1 0x5 PUSH1 0x0 SWAP1 SLOAD SWAP1 PUSH2 0x100 EXP SWAP1 DIV PUSH1 0xFF AND SWAP1 POP SWAP1 JUMP JUMPDEST PUSH1 0x60 PUSH1 0x1 DUP1 SLOAD PUSH2 0x211 SWAP1 PUSH2 0x83B JUMP JUMPDEST DUP1 PUSH1 0x1F ADD PUSH1 0x20 DUP1 SWAP2 DIV MUL PUSH1 0x20 ADD PUSH1 0x40 MLOAD SWAP1 DUP2 ADD PUSH1 0x40 MSTORE DUP1 SWAP3 SWAP2 SWAP1 DUP2 DUP2 MSTORE PUSH1 0x20 ADD DUP3 DUP1 SLOAD PUSH2 0x23D SWAP1 PUSH2 0x83B JUMP JUMPDEST DUP1 ISZERO PUSH2 0x28A JUMPI DUP1 PUSH1 0x1F LT PUSH2 0x25F JUMPI PUSH2 0x100 DUP1 DUP4 SLOAD DIV MUL DUP4 MSTORE SWAP2 PUSH1 0x20 ADD SWAP2 PUSH2 0x28A JUMP JUMPDEST DUP3 ADD SWAP2 SWAP1 PUSH1 0x0 MSTORE PUSH1 0x20 PUSH1 0x0 KECCAK256 SWAP1 JUMPDEST DUP2 SLOAD DUP2 MSTORE SWAP1 PUSH1 0x1 ADD SWAP1 PUSH1 0x20 ADD DUP1 DUP4 GT PUSH2 0x26D JUMPI DUP3 SWAP1 SUB PUSH1 0x1F AND DUP3 ADD SWAP2 JUMPDEST POP POP POP POP POP SWAP1 POP SWAP1 JUMP JUMPDEST DUP1 PUSH1 0x3 SWAP1 DUP1 MLOAD SWAP1 PUSH1 0x20 ADD SWAP1 PUSH2 0x2AA SWAP3 SWAP2 SWAP1 PUSH2 0x473 JUMP JUMPDEST POP POP JUMP JUMPDEST PUSH1 0x0 DUP1 SLOAD SWAP1 POP SWAP1 JUMP JUMPDEST DUP3 PUSH1 0x0 DUP2 SWAP1 SSTORE POP DUP2 PUSH1 0x1 SWAP1 DUP1 MLOAD SWAP1 PUSH1 0x20 ADD SWAP1 PUSH2 0x2D4 SWAP3 SWAP2 SWAP1 PUSH2 0x473 JUMP JUMPDEST POP DUP1 PUSH1 0x5 PUSH1 0x0 PUSH2 0x100 EXP DUP2 SLOAD DUP2 PUSH1 0xFF MUL NOT AND SWAP1 DUP4 ISZERO ISZERO MUL OR SWAP1 SSTORE POP POP POP POP JUMP JUMPDEST PUSH1 0x60 PUSH1 0x3 DUP1 SLOAD PUSH2 0x303 SWAP1 PUSH2 0x83B JUMP JUMPDEST DUP1 PUSH1 0x1F ADD PUSH1 0x20 DUP1 SWAP2 DIV MUL PUSH1 0x20 ADD PUSH1 0x40 MLOAD SWAP1 DUP2 ADD PUSH1 0x40 MSTORE DUP1 SWAP3 SWAP2 SWAP1 DUP2 DUP2 MSTORE PUSH1 0x20 ADD DUP3 DUP1 SLOAD PUSH2 0x32F SWAP1 PUSH2 0x83B JUMP JUMPDEST DUP1 ISZERO PUSH2 0x37C JUMPI DUP1 PUSH1 0x1F LT PUSH2 0x351 JUMPI PUSH2 0x100 DUP1 DUP4 SLOAD DIV MUL DUP4 MSTORE SWAP2 PUSH1 0x20 ADD SWAP2 PUSH2 0x37C JUMP JUMPDEST DUP3 ADD SWAP2 SWAP1 PUSH1 0x0 MSTORE PUSH1 0x20 PUSH1 0x0 KECCAK256 SWAP1 JUMPDEST DUP2 SLOAD DUP2 MSTORE SWAP1 PUSH1 0x1 ADD SWAP1 PUSH1 0x20 ADD DUP1 DUP4 GT PUSH2 0x35F JUMPI DUP3 SWAP1 SUB PUSH1 0x1F AND DUP3 ADD SWAP2 JUMPDEST POP POP POP POP POP SWAP1 POP SWAP1 JUMP JUMPDEST DUP1 PUSH1 0x0 DUP2 SWAP1 SSTORE POP POP JUMP JUMPDEST DUP1 PUSH1 0x5 PUSH1 0x0 PUSH2 0x100 EXP DUP2 SLOAD DUP2 PUSH1 0xFF MUL NOT AND SWAP1 DUP4 ISZERO ISZERO MUL OR SWAP1 SSTORE POP POP JUMP JUMPDEST PUSH1 0x60 PUSH1 0x2 DUP1 SLOAD PUSH2 0x3BC SWAP1 PUSH2 0x83B JUMP JUMPDEST DUP1 PUSH1 0x1F ADD PUSH1 0x20 DUP1 SWAP2 DIV MUL PUSH1 0x20 ADD PUSH1 0x40 MLOAD SWAP1 DUP2 ADD PUSH1 0x40 MSTORE DUP1 SWAP3 SWAP2 SWAP1 DUP2 DUP2 MSTORE PUSH1 0x20 ADD DUP3 DUP1 SLOAD PUSH2 0x3E8 SWAP1 PUSH2 0x83B JUMP JUMPDEST DUP1 ISZERO PUSH2 0x435 JUMPI DUP1 PUSH1 0x1F LT PUSH2 0x40A JUMPI PUSH2 0x100 DUP1 DUP4 SLOAD DIV MUL DUP4 MSTORE SWAP2 PUSH1 0x20 ADD SWAP2 PUSH2 0x435 JUMP JUMPDEST DUP3 ADD SWAP2 SWAP1 PUSH1 0x0 MSTORE PUSH1 0x20 PUSH1 0x0 KECCAK256 SWAP1 JUMPDEST DUP2 SLOAD DUP2 MSTORE SWAP1 PUSH1 0x1 ADD SWAP1 PUSH1 0x20 ADD DUP1 DUP4 GT PUSH2 0x418 JUMPI DUP3 SWAP1 SUB PUSH1 0x1F AND DUP3 ADD SWAP2 JUMPDEST POP POP POP POP POP SWAP1 POP SWAP1 JUMP JUMPDEST DUP1 PUSH1 0x1 SWAP1 DUP1 MLOAD SWAP1 PUSH1 0x20 ADD SWAP1 PUSH2 0x455 SWAP3 SWAP2 SWAP1 PUSH2 0x473 JUMP JUMPDEST POP POP JUMP JUMPDEST DUP1 PUSH1 0x2 SWAP1 DUP1 MLOAD SWAP1 PUSH1 0x20 ADD SWAP1 PUSH2 0x46F SWAP3 SWAP2 SWAP1 PUSH2 0x473 JUMP JUMPDEST POP POP JUMP JUMPDEST DUP3 DUP1 SLOAD PUSH2 0x47F SWAP1 PUSH2 0x83B JUMP JUMPDEST SWAP1 PUSH1 0x0 MSTORE PUSH1 0x20 PUSH1 0x0 KECCAK256 SWAP1 PUSH1 0x1F ADD PUSH1 0x20 SWAP1 DIV DUP2 ADD SWAP3 DUP3 PUSH2 0x4A1 JUMPI PUSH1 0x0 DUP6 SSTORE PUSH2 0x4E8 JUMP JUMPDEST DUP3 PUSH1 0x1F LT PUSH2 0x4BA JUMPI DUP1 MLOAD PUSH1 0xFF NOT AND DUP4 DUP1 ADD OR DUP6 SSTORE PUSH2 0x4E8 JUMP JUMPDEST DUP3 DUP1 ADD PUSH1 0x1 ADD DUP6 SSTORE DUP3 ISZERO PUSH2 0x4E8 JUMPI SWAP2 DUP3 ADD JUMPDEST DUP3 DUP2 GT ISZERO PUSH2 0x4E7 JUMPI DUP3 MLOAD DUP3 SSTORE SWAP2 PUSH1 0x20 ADD SWAP2 SWAP1 PUSH1 0x1 ADD SWAP1 PUSH2 0x4CC JUMP JUMPDEST JUMPDEST POP SWAP1 POP PUSH2 0x4F5 SWAP2 SWAP1 PUSH2 0x4F9 JUMP JUMPDEST POP SWAP1 JUMP JUMPDEST JUMPDEST DUP1 DUP3 GT ISZERO PUSH2 0x512 JUMPI PUSH1 0x0 DUP2 PUSH1 0x0 SWAP1 SSTORE POP PUSH1 0x1 ADD PUSH2 0x4FA JUMP JUMPDEST POP SWAP1 JUMP JUMPDEST PUSH1 0x0 PUSH2 0x529 PUSH2 0x524 DUP5 PUSH2 0x796 JUMP JUMPDEST PUSH2 0x771 JUMP JUMPDEST SWAP1 POP DUP3 DUP2 MSTORE PUSH1 0x20 DUP2 ADD DUP5 DUP5 DUP5 ADD GT ISZERO PUSH2 0x545 JUMPI PUSH2 0x544 PUSH2 0x901 JUMP JUMPDEST JUMPDEST PUSH2 0x550 DUP5 DUP3 DUP6 PUSH2 0x7F9 JUMP JUMPDEST POP SWAP4 SWAP3 POP POP POP JUMP JUMPDEST PUSH1 0x0 DUP2 CALLDATALOAD SWAP1 POP PUSH2 0x567 DUP2 PUSH2 0x921 JUMP JUMPDEST SWAP3 SWAP2 POP POP JUMP JUMPDEST PUSH1 0x0 DUP2 CALLDATALOAD SWAP1 POP PUSH2 0x57C DUP2 PUSH2 0x938 JUMP JUMPDEST SWAP3 SWAP2 POP POP JUMP JUMPDEST PUSH1 0x0 DUP3 PUSH1 0x1F DUP4 ADD SLT PUSH2 0x597 JUMPI PUSH2 0x596 PUSH2 0x8FC JUMP JUMPDEST JUMPDEST DUP2 CALLDATALOAD PUSH2 0x5A7 DUP5 DUP3 PUSH1 0x20 DUP7 ADD PUSH2 0x516 JUMP JUMPDEST SWAP2 POP POP SWAP3 SWAP2 POP POP JUMP JUMPDEST PUSH1 0x0 PUSH1 0x20 DUP3 DUP5 SUB SLT ISZERO PUSH2 0x5C6 JUMPI PUSH2 0x5C5 PUSH2 0x90B JUMP JUMPDEST JUMPDEST PUSH1 0x0 PUSH2 0x5D4 DUP5 DUP3 DUP6 ADD PUSH2 0x558 JUMP JUMPDEST SWAP2 POP POP SWAP3 SWAP2 POP POP JUMP JUMPDEST PUSH1 0x0 PUSH1 0x20 DUP3 DUP5 SUB SLT ISZERO PUSH2 0x5F3 JUMPI PUSH2 0x5F2 PUSH2 0x90B JUMP JUMPDEST JUMPDEST PUSH1 0x0 PUSH2 0x601 DUP5 DUP3 DUP6 ADD PUSH2 0x56D JUMP JUMPDEST SWAP2 POP POP SWAP3 SWAP2 POP POP JUMP JUMPDEST PUSH1 0x0 DUP1 PUSH1 0x0 PUSH1 0x60 DUP5 DUP7 SUB SLT ISZERO PUSH2 0x623 JUMPI PUSH2 0x622 PUSH2 0x90B JUMP JUMPDEST JUMPDEST PUSH1 0x0 PUSH2 0x631 DUP7 DUP3 DUP8 ADD PUSH2 0x56D JUMP JUMPDEST SWAP4 POP POP PUSH1 0x20 DUP5 ADD CALLDATALOAD PUSH8 0xFFFFFFFFFFFFFFFF DUP2 GT ISZERO PUSH2 0x652 JUMPI PUSH2 0x651 PUSH2 0x906 JUMP JUMPDEST JUMPDEST PUSH2 0x65E DUP7 DUP3 DUP8 ADD PUSH2 0x582 JUMP JUMPDEST SWAP3 POP POP PUSH1 0x40 PUSH2 0x66F DUP7 DUP3 DUP8 ADD PUSH2 0x558 JUMP JUMPDEST SWAP2 POP POP SWAP3 POP SWAP3 POP SWAP3 JUMP JUMPDEST PUSH1 0x0 PUSH1 0x20 DUP3 DUP5 SUB SLT ISZERO PUSH2 0x68F JUMPI PUSH2 0x68E PUSH2 0x90B JUMP JUMPDEST JUMPDEST PUSH1 0x0 DUP3 ADD CALLDATALOAD PUSH8 0xFFFFFFFFFFFFFFFF DUP2 GT ISZERO PUSH2 0x6AD JUMPI PUSH2 0x6AC PUSH2 0x906 JUMP JUMPDEST JUMPDEST PUSH2 0x6B9 DUP5 DUP3 DUP6 ADD PUSH2 0x582 JUMP JUMPDEST SWAP2 POP POP SWAP3 SWAP2 POP POP JUMP JUMPDEST PUSH2 0x6CB DUP2 PUSH2 0x7E3 JUMP JUMPDEST DUP3 MSTORE POP POP JUMP JUMPDEST PUSH2 0x6DA DUP2 PUSH2 0x7EF JUMP JUMPDEST DUP3 MSTORE POP POP JUMP JUMPDEST PUSH1 0x0 PUSH2 0x6EB DUP3 PUSH2 0x7C7 JUMP JUMPDEST PUSH2 0x6F5 DUP2 DUP6 PUSH2 0x7D2 JUMP JUMPDEST SWAP4 POP PUSH2 0x705 DUP2 DUP6 PUSH1 0x20 DUP7 ADD PUSH2 0x808 JUMP JUMPDEST PUSH2 0x70E DUP2 PUSH2 0x910 JUMP JUMPDEST DUP5 ADD SWAP2 POP POP SWAP3 SWAP2 POP POP JUMP JUMPDEST PUSH1 0x0 PUSH1 0x20 DUP3 ADD SWAP1 POP PUSH2 0x72E PUSH1 0x0 DUP4 ADD DUP5 PUSH2 0x6C2 JUMP JUMPDEST SWAP3 SWAP2 POP POP JUMP JUMPDEST PUSH1 0x0 PUSH1 0x20 DUP3 ADD SWAP1 POP PUSH2 0x749 PUSH1 0x0 DUP4 ADD DUP5 PUSH2 0x6D1 JUMP JUMPDEST SWAP3 SWAP2 POP POP JUMP JUMPDEST PUSH1 0x0 PUSH1 0x20 DUP3 ADD SWAP1 POP DUP2 DUP2 SUB PUSH1 0x0 DUP4 ADD MSTORE PUSH2 0x769 DUP2 DUP5 PUSH2 0x6E0 JUMP JUMPDEST SWAP1 POP SWAP3 SWAP2 POP POP JUMP JUMPDEST PUSH1 0x0 PUSH2 0x77B PUSH2 0x78C JUMP JUMPDEST SWAP1 POP PUSH2 0x787 DUP3 DUP3 PUSH2 0x86D JUMP JUMPDEST SWAP2 SWAP1 POP JUMP JUMPDEST PUSH1 0x0 PUSH1 0x40 MLOAD SWAP1 POP SWAP1 JUMP JUMPDEST PUSH1 0x0 PUSH8 0xFFFFFFFFFFFFFFFF DUP3 GT ISZERO PUSH2 0x7B1 JUMPI PUSH2 0x7B0 PUSH2 0x8CD JUMP JUMPDEST JUMPDEST PUSH2 0x7BA DUP3 PUSH2 0x910 JUMP JUMPDEST SWAP1 POP PUSH1 0x20 DUP2 ADD SWAP1 POP SWAP2 SWAP1 POP JUMP JUMPDEST PUSH1 0x0 DUP2 MLOAD SWAP1 POP SWAP2 SWAP1 POP JUMP JUMPDEST PUSH1 0x0 DUP3 DUP3 MSTORE PUSH1 0x20 DUP3 ADD SWAP1 POP SWAP3 SWAP2 POP POP JUMP JUMPDEST PUSH1 0x0 DUP2 ISZERO ISZERO SWAP1 POP SWAP2 SWAP1 POP JUMP JUMPDEST PUSH1 0x0 DUP2 SWAP1 POP SWAP2 SWAP1 POP JUMP JUMPDEST DUP3 DUP2 DUP4 CALLDATACOPY PUSH1 0x0 DUP4 DUP4 ADD MSTORE POP POP POP JUMP JUMPDEST PUSH1 0x0 JUMPDEST DUP4 DUP2 LT ISZERO PUSH2 0x826 JUMPI DUP1 DUP3 ADD MLOAD DUP2 DUP5 ADD MSTORE PUSH1 0x20 DUP2 ADD SWAP1 POP PUSH2 0x80B JUMP JUMPDEST DUP4 DUP2 GT ISZERO PUSH2 0x835 JUMPI PUSH1 0x0 DUP5 DUP5 ADD MSTORE JUMPDEST POP POP POP POP JUMP JUMPDEST PUSH1 0x0 PUSH1 0x2 DUP3 DIV SWAP1 POP PUSH1 0x1 DUP3 AND DUP1 PUSH2 0x853 JUMPI PUSH1 0x7F DUP3 AND SWAP2 POP JUMPDEST PUSH1 0x20 DUP3 LT DUP2 EQ ISZERO PUSH2 0x867 JUMPI PUSH2 0x866 PUSH2 0x89E JUMP JUMPDEST JUMPDEST POP SWAP2 SWAP1 POP JUMP JUMPDEST PUSH2 0x876 DUP3 PUSH2 0x910 JUMP JUMPDEST DUP2 ADD DUP2 DUP2 LT PUSH8 0xFFFFFFFFFFFFFFFF DUP3 GT OR ISZERO PUSH2 0x895 JUMPI PUSH2 0x894 PUSH2 0x8CD JUMP JUMPDEST JUMPDEST DUP1 PUSH1 0x40 MSTORE POP POP POP JUMP JUMPDEST PUSH32 0x4E487B7100000000000000000000000000000000000000000000000000000000 PUSH1 0x0 MSTORE PUSH1 0x22 PUSH1 0x4 MSTORE PUSH1 0x24 PUSH1 0x0 REVERT JUMPDEST PUSH32 0x4E487B7100000000000000000000000000000000000000000000000000000000 PUSH1 0x0 MSTORE PUSH1 0x41 PUSH1 0x4 MSTORE PUSH1 0x24 PUSH1 0x0 REVERT JUMPDEST PUSH1 0x0 DUP1 REVERT JUMPDEST PUSH1 0x0 DUP1 REVERT JUMPDEST PUSH1 0x0 DUP1 REVERT JUMPDEST PUSH1 0x0 DUP1 REVERT JUMPDEST PUSH1 0x0 PUSH1 0x1F NOT PUSH1 0x1F DUP4 ADD AND SWAP1 POP SWAP2 SWAP1 POP JUMP JUMPDEST PUSH2 0x92A DUP2 PUSH2 0x7E3 JUMP JUMPDEST DUP2 EQ PUSH2 0x935 JUMPI PUSH1 0x0 DUP1 REVERT JUMPDEST POP JUMP JUMPDEST PUSH2 0x941 DUP2 PUSH2 0x7EF JUMP JUMPDEST DUP2 EQ PUSH2 0x94C JUMPI PUSH1 0x0 DUP1 REVERT JUMPDEST POP JUMP INVALID LOG2 PUSH5 0x6970667358 0x22 SLT KECCAK256 0xBF DELEGATECALL 0xC8 MUL 0xEC 0xD8 0xAD SHR 0xCB 0xCB NOT 0xE4 0xD PUSH20 0x7D4F843CF6B7D4CE060DACC41B3859C051526473 PUSH16 0x6C634300080700330000000000000000 "
				},
				"gasEstimates": {
					"creation": {
						"codeDepositCost": "487400",
						"executionCost": "infinite",
						"totalCost": "infinite"
					},
					"external": {
						"getActive()": "2480",
						"getBirthDate()": "infinite",
						"getEmail()": "infinite",
						"getIDUserType()": "2504",
						"getName()": "infinite",
						"setActive(bool)": "24723",
						"setBirthDate(string)": "infinite",
						"setEmail(string)": "infinite",
						"setIDUserType(int256)": "22542",
						"setName(string)": "infinite",
						"setUpdate(int256,string,bool)": "infinite"
					}
				},
				"methodIdentifiers": {
					"getActive()": "009ebb10",
					"getBirthDate()": "c16a836b",
					"getEmail()": "7e79e8ba",
					"getIDUserType()": "526d0491",
					"getName()": "17d7de7c",
					"setActive(bool)": "acec338a",
					"setBirthDate(string)": "d92be7f6",
					"setEmail(string)": "282b065a",
					"setIDUserType(int256)": "8d378393",
					"setName(string)": "c47f0027",
					"setUpdate(int256,string,bool)": "73e7a6a9"
				}
			},
			"storageLayout": {
				"storage": [
					{
						"astId": 3,
						"contract": "contracts/User.sol:User",
						"label": "idUserType",
						"offset": 0,
						"slot": "0",
						"type": "t_int256"
					},
					{
						"astId": 5,
						"contract": "contracts/User.sol:User",
						"label": "name",
						"offset": 0,
						"slot": "1",
						"type": "t_string_storage"
					},
					{
						"astId": 7,
						"contract": "contracts/User.sol:User",
						"label": "birthDate",
						"offset": 0,
						"slot": "2",
						"type": "t_string_storage"
					},
					{
						"astId": 9,
						"contract": "contracts/User.sol:User",
						"label": "email",
						"offset": 0,
						"slot": "3",
						"type": "t_string_storage"
					},
					{
						"astId": 11,
						"contract": "contracts/User.sol:User",
						"label": "password",
						"offset": 0,
						"slot": "4",
						"type": "t_string_storage"
					},
					{
						"astId": 13,
						"contract": "contracts/User.sol:User",
						"label": "active",
						"offset": 0,
						"slot": "5",
						"type": "t_bool"
					}
				],
				"types": {
					"t_bool": {
						"encoding": "inplace",
						"label": "bool",
						"numberOfBytes": "1"
					},
					"t_int256": {
						"encoding": "inplace",
						"label": "int256",
						"numberOfBytes": "32"
					},
					"t_string_storage": {
						"encoding": "bytes",
						"label": "string",
						"numberOfBytes": "32"
					}
				}
			},
			"userdoc": {
				"kind": "user",
				"methods": {},
				"version": 1
			}
		}
	}
}