{
	"contracts/Appointment.sol": {
		"Appointment": {
			"abi": [
				{
					"inputs": [
						{
							"internalType": "int256",
							"name": "_idBovine",
							"type": "int256"
						},
						{
							"internalType": "int256",
							"name": "_idVeterinary",
							"type": "int256"
						},
						{
							"internalType": "string",
							"name": "_appointmentDate",
							"type": "string"
						},
						{
							"internalType": "string",
							"name": "_appointmentType",
							"type": "string"
						},
						{
							"internalType": "string",
							"name": "_cost",
							"type": "string"
						},
						{
							"internalType": "string",
							"name": "_observation",
							"type": "string"
						}
					],
					"stateMutability": "nonpayable",
					"type": "constructor"
				},
				{
					"inputs": [],
					"name": "getAppointmentDate",
					"outputs": [
						{
							"internalType": "string",
							"name": "",
							"type": "string"
						}
					],
					"stateMutability": "view",
					"type": "function"
				},
				{
					"inputs": [],
					"name": "getAppointmentType",
					"outputs": [
						{
							"internalType": "string",
							"name": "",
							"type": "string"
						}
					],
					"stateMutability": "view",
					"type": "function"
				},
				{
					"inputs": [],
					"name": "getCost",
					"outputs": [
						{
							"internalType": "string",
							"name": "",
							"type": "string"
						}
					],
					"stateMutability": "view",
					"type": "function"
				},
				{
					"inputs": [],
					"name": "getIDBovine",
					"outputs": [
						{
							"internalType": "int256",
							"name": "",
							"type": "int256"
						}
					],
					"stateMutability": "view",
					"type": "function"
				},
				{
					"inputs": [],
					"name": "getIDVeterinary",
					"outputs": [
						{
							"internalType": "int256",
							"name": "",
							"type": "int256"
						}
					],
					"stateMutability": "view",
					"type": "function"
				},
				{
					"inputs": [],
					"name": "getObservation",
					"outputs": [
						{
							"internalType": "string",
							"name": "",
							"type": "string"
						}
					],
					"stateMutability": "view",
					"type": "function"
				},
				{
					"inputs": [
						{
							"internalType": "string",
							"name": "_appointmentDate",
							"type": "string"
						}
					],
					"name": "setAppointmentDate",
					"outputs": [],
					"stateMutability": "nonpayable",
					"type": "function"
				},
				{
					"inputs": [
						{
							"internalType": "string",
							"name": "_appointmentType",
							"type": "string"
						}
					],
					"name": "setAppointmentType",
					"outputs": [],
					"stateMutability": "nonpayable",
					"type": "function"
				},
				{
					"inputs": [
						{
							"internalType": "string",
							"name": "_cost",
							"type": "string"
						}
					],
					"name": "setCost",
					"outputs": [],
					"stateMutability": "nonpayable",
					"type": "function"
				},
				{
					"inputs": [
						{
							"internalType": "int256",
							"name": "_idBovine",
							"type": "int256"
						}
					],
					"name": "setIDBovine",
					"outputs": [],
					"stateMutability": "nonpayable",
					"type": "function"
				},
				{
					"inputs": [
						{
							"internalType": "int256",
							"name": "_idVeterinary",
							"type": "int256"
						}
					],
					"name": "setIDVeterinary",
					"outputs": [],
					"stateMutability": "nonpayable",
					"type": "function"
				},
				{
					"inputs": [
						{
							"internalType": "string",
							"name": "_observation",
							"type": "string"
						}
					],
					"name": "setObservation",
					"outputs": [],
					"stateMutability": "nonpayable",
					"type": "function"
				},
				{
					"inputs": [
						{
							"internalType": "int256",
							"name": "_idBovine",
							"type": "int256"
						},
						{
							"internalType": "int256",
							"name": "_idVeterinary",
							"type": "int256"
						},
						{
							"internalType": "string",
							"name": "_appointmentDate",
							"type": "string"
						}
					],
					"name": "updateAppointment",
					"outputs": [],
					"stateMutability": "nonpayable",
					"type": "function"
				}
			],
			"devdoc": {
				"kind": "dev",
				"methods": {},
				"version": 1
			},
			"evm": {
				"assembly": "    /* \"contracts/Appointment.sol\":71:2160  contract Appointment{\r... */\n  mstore(0x40, 0x80)\n    /* \"contracts/Appointment.sol\":253:657  constructor(int _idBovine,int _idVeterinary, string memory _appointmentDate, string memory _appointmentType, string memory _cost, \r... */\n  callvalue\n  dup1\n  iszero\n  tag_1\n  jumpi\n  0x00\n  dup1\n  revert\ntag_1:\n  pop\n  mload(0x40)\n  sub(codesize, bytecodeSize)\n  dup1\n  bytecodeSize\n  dup4\n  codecopy\n  dup2\n  dup2\n  add\n  0x40\n  mstore\n  dup2\n  add\n  swap1\n  tag_2\n  swap2\n  swap1\n  tag_3\n  jump\t// in\ntag_2:\n    /* \"contracts/Appointment.sol\":451:460  _idBovine */\n  dup6\n    /* \"contracts/Appointment.sol\":440:448  idBovine */\n  0x00\n    /* \"contracts/Appointment.sol\":440:460  idBovine = _idBovine */\n  dup2\n  swap1\n  sstore\n  pop\n    /* \"contracts/Appointment.sol\":486:499  _idVeterinary */\n  dup5\n    /* \"contracts/Appointment.sol\":471:483  idVeterinary */\n  0x01\n    /* \"contracts/Appointment.sol\":471:499  idVeterinary = _idVeterinary */\n  dup2\n  swap1\n  sstore\n  pop\n    /* \"contracts/Appointment.sol\":528:544  _appointmentDate */\n  dup4\n    /* \"contracts/Appointment.sol\":510:525  appointmentDate */\n  0x02\n    /* \"contracts/Appointment.sol\":510:544  appointmentDate = _appointmentDate */\n  swap1\n  dup1\n  mload\n  swap1\n  0x20\n  add\n  swap1\n  tag_6\n  swap3\n  swap2\n  swap1\n  tag_7\n  jump\t// in\ntag_6:\n  pop\n    /* \"contracts/Appointment.sol\":573:589  _appointmentType */\n  dup3\n    /* \"contracts/Appointment.sol\":555:570  appointmentType */\n  0x03\n    /* \"contracts/Appointment.sol\":555:589  appointmentType = _appointmentType */\n  swap1\n  dup1\n  mload\n  swap1\n  0x20\n  add\n  swap1\n  tag_8\n  swap3\n  swap2\n  swap1\n  tag_7\n  jump\t// in\ntag_8:\n  pop\n    /* \"contracts/Appointment.sol\":607:612  _cost */\n  dup2\n    /* \"contracts/Appointment.sol\":600:604  cost */\n  0x04\n    /* \"contracts/Appointment.sol\":600:612  cost = _cost */\n  swap1\n  dup1\n  mload\n  swap1\n  0x20\n  add\n  swap1\n  tag_9\n  swap3\n  swap2\n  swap1\n  tag_7\n  jump\t// in\ntag_9:\n  pop\n    /* \"contracts/Appointment.sol\":637:649  _observation */\n  dup1\n    /* \"contracts/Appointment.sol\":623:634  observation */\n  0x05\n    /* \"contracts/Appointment.sol\":623:649  observation = _observation */\n  swap1\n  dup1\n  mload\n  swap1\n  0x20\n  add\n  swap1\n  tag_10\n  swap3\n  swap2\n  swap1\n  tag_7\n  jump\t// in\ntag_10:\n  pop\n    /* \"contracts/Appointment.sol\":253:657  constructor(int _idBovine,int _idVeterinary, string memory _appointmentDate, string memory _appointmentType, string memory _cost, \r... */\n  pop\n  pop\n  pop\n  pop\n  pop\n  pop\n    /* \"contracts/Appointment.sol\":71:2160  contract Appointment{\r... */\n  jump(tag_11)\ntag_7:\n  dup3\n  dup1\n  sload\n  tag_12\n  swap1\n  tag_13\n  jump\t// in\ntag_12:\n  swap1\n  0x00\n  mstore\n  keccak256(0x00, 0x20)\n  swap1\n  0x1f\n  add\n  0x20\n  swap1\n  div\n  dup2\n  add\n  swap3\n  dup3\n  tag_15\n  jumpi\n  0x00\n  dup6\n  sstore\n  jump(tag_14)\ntag_15:\n  dup3\n  0x1f\n  lt\n  tag_16\n  jumpi\n  dup1\n  mload\n  not(0xff)\n  and\n  dup4\n  dup1\n  add\n  or\n  dup6\n  sstore\n  jump(tag_14)\ntag_16:\n  dup3\n  dup1\n  add\n  0x01\n  add\n  dup6\n  sstore\n  dup3\n  iszero\n  tag_14\n  jumpi\n  swap2\n  dup3\n  add\ntag_17:\n  dup3\n  dup2\n  gt\n  iszero\n  tag_18\n  jumpi\n  dup3\n  mload\n  dup3\n  sstore\n  swap2\n  0x20\n  add\n  swap2\n  swap1\n  0x01\n  add\n  swap1\n  jump(tag_17)\ntag_18:\ntag_14:\n  pop\n  swap1\n  pop\n  tag_19\n  swap2\n  swap1\n  tag_20\n  jump\t// in\ntag_19:\n  pop\n  swap1\n  jump\t// out\ntag_20:\ntag_21:\n  dup1\n  dup3\n  gt\n  iszero\n  tag_22\n  jumpi\n  0x00\n  dup2\n  0x00\n  swap1\n  sstore\n  pop\n  0x01\n  add\n  jump(tag_21)\ntag_22:\n  pop\n  swap1\n  jump\t// out\n    /* \"#utility.yul\":7:428   */\ntag_24:\n    /* \"#utility.yul\":96:101   */\n  0x00\n    /* \"#utility.yul\":121:187   */\n  tag_26\n    /* \"#utility.yul\":137:186   */\n  tag_27\n    /* \"#utility.yul\":179:185   */\n  dup5\n    /* \"#utility.yul\":137:186   */\n  tag_28\n  jump\t// in\ntag_27:\n    /* \"#utility.yul\":121:187   */\n  tag_29\n  jump\t// in\ntag_26:\n    /* \"#utility.yul\":112:187   */\n  swap1\n  pop\n    /* \"#utility.yul\":210:216   */\n  dup3\n    /* \"#utility.yul\":203:208   */\n  dup2\n    /* \"#utility.yul\":196:217   */\n  mstore\n    /* \"#utility.yul\":248:252   */\n  0x20\n    /* \"#utility.yul\":241:246   */\n  dup2\n    /* \"#utility.yul\":237:253   */\n  add\n    /* \"#utility.yul\":286:289   */\n  dup5\n    /* \"#utility.yul\":277:283   */\n  dup5\n    /* \"#utility.yul\":272:275   */\n  dup5\n    /* \"#utility.yul\":268:284   */\n  add\n    /* \"#utility.yul\":265:290   */\n  gt\n    /* \"#utility.yul\":262:374   */\n  iszero\n  tag_30\n  jumpi\n    /* \"#utility.yul\":293:372   */\n  tag_31\n  tag_32\n  jump\t// in\ntag_31:\n    /* \"#utility.yul\":262:374   */\ntag_30:\n    /* \"#utility.yul\":383:422   */\n  tag_33\n    /* \"#utility.yul\":415:421   */\n  dup5\n    /* \"#utility.yul\":410:413   */\n  dup3\n    /* \"#utility.yul\":405:408   */\n  dup6\n    /* \"#utility.yul\":383:422   */\n  tag_34\n  jump\t// in\ntag_33:\n    /* \"#utility.yul\":102:428   */\n  pop\n    /* \"#utility.yul\":7:428   */\n  swap4\n  swap3\n  pop\n  pop\n  pop\n  jump\t// out\n    /* \"#utility.yul\":434:575   */\ntag_35:\n    /* \"#utility.yul\":490:495   */\n  0x00\n    /* \"#utility.yul\":521:527   */\n  dup2\n    /* \"#utility.yul\":515:528   */\n  mload\n    /* \"#utility.yul\":506:528   */\n  swap1\n  pop\n    /* \"#utility.yul\":537:569   */\n  tag_37\n    /* \"#utility.yul\":563:568   */\n  dup2\n    /* \"#utility.yul\":537:569   */\n  tag_38\n  jump\t// in\ntag_37:\n    /* \"#utility.yul\":434:575   */\n  swap3\n  swap2\n  pop\n  pop\n  jump\t// out\n    /* \"#utility.yul\":595:950   */\ntag_39:\n    /* \"#utility.yul\":662:667   */\n  0x00\n    /* \"#utility.yul\":711:714   */\n  dup3\n    /* \"#utility.yul\":704:708   */\n  0x1f\n    /* \"#utility.yul\":696:702   */\n  dup4\n    /* \"#utility.yul\":692:709   */\n  add\n    /* \"#utility.yul\":688:715   */\n  slt\n    /* \"#utility.yul\":678:800   */\n  tag_41\n  jumpi\n    /* \"#utility.yul\":719:798   */\n  tag_42\n  tag_43\n  jump\t// in\ntag_42:\n    /* \"#utility.yul\":678:800   */\ntag_41:\n    /* \"#utility.yul\":829:835   */\n  dup2\n    /* \"#utility.yul\":823:836   */\n  mload\n    /* \"#utility.yul\":854:944   */\n  tag_44\n    /* \"#utility.yul\":940:943   */\n  dup5\n    /* \"#utility.yul\":932:938   */\n  dup3\n    /* \"#utility.yul\":925:929   */\n  0x20\n    /* \"#utility.yul\":917:923   */\n  dup7\n    /* \"#utility.yul\":913:930   */\n  add\n    /* \"#utility.yul\":854:944   */\n  tag_24\n  jump\t// in\ntag_44:\n    /* \"#utility.yul\":845:944   */\n  swap2\n  pop\n    /* \"#utility.yul\":668:950   */\n  pop\n    /* \"#utility.yul\":595:950   */\n  swap3\n  swap2\n  pop\n  pop\n  jump\t// out\n    /* \"#utility.yul\":956:2778   */\ntag_3:\n    /* \"#utility.yul\":1109:1115   */\n  0x00\n    /* \"#utility.yul\":1117:1123   */\n  dup1\n    /* \"#utility.yul\":1125:1131   */\n  0x00\n    /* \"#utility.yul\":1133:1139   */\n  dup1\n    /* \"#utility.yul\":1141:1147   */\n  0x00\n    /* \"#utility.yul\":1149:1155   */\n  dup1\n    /* \"#utility.yul\":1198:1201   */\n  0xc0\n    /* \"#utility.yul\":1186:1195   */\n  dup8\n    /* \"#utility.yul\":1177:1184   */\n  dup10\n    /* \"#utility.yul\":1173:1196   */\n  sub\n    /* \"#utility.yul\":1169:1202   */\n  slt\n    /* \"#utility.yul\":1166:1286   */\n  iszero\n  tag_46\n  jumpi\n    /* \"#utility.yul\":1205:1284   */\n  tag_47\n  tag_48\n  jump\t// in\ntag_47:\n    /* \"#utility.yul\":1166:1286   */\ntag_46:\n    /* \"#utility.yul\":1325:1326   */\n  0x00\n    /* \"#utility.yul\":1350:1413   */\n  tag_49\n    /* \"#utility.yul\":1405:1412   */\n  dup10\n    /* \"#utility.yul\":1396:1402   */\n  dup3\n    /* \"#utility.yul\":1385:1394   */\n  dup11\n    /* \"#utility.yul\":1381:1403   */\n  add\n    /* \"#utility.yul\":1350:1413   */\n  tag_35\n  jump\t// in\ntag_49:\n    /* \"#utility.yul\":1340:1413   */\n  swap7\n  pop\n    /* \"#utility.yul\":1296:1423   */\n  pop\n    /* \"#utility.yul\":1462:1464   */\n  0x20\n    /* \"#utility.yul\":1488:1551   */\n  tag_50\n    /* \"#utility.yul\":1543:1550   */\n  dup10\n    /* \"#utility.yul\":1534:1540   */\n  dup3\n    /* \"#utility.yul\":1523:1532   */\n  dup11\n    /* \"#utility.yul\":1519:1541   */\n  add\n    /* \"#utility.yul\":1488:1551   */\n  tag_35\n  jump\t// in\ntag_50:\n    /* \"#utility.yul\":1478:1551   */\n  swap6\n  pop\n    /* \"#utility.yul\":1433:1561   */\n  pop\n    /* \"#utility.yul\":1621:1623   */\n  0x40\n    /* \"#utility.yul\":1610:1619   */\n  dup8\n    /* \"#utility.yul\":1606:1624   */\n  add\n    /* \"#utility.yul\":1600:1625   */\n  mload\n    /* \"#utility.yul\":1652:1670   */\n  0xffffffffffffffff\n    /* \"#utility.yul\":1644:1650   */\n  dup2\n    /* \"#utility.yul\":1641:1671   */\n  gt\n    /* \"#utility.yul\":1638:1755   */\n  iszero\n  tag_51\n  jumpi\n    /* \"#utility.yul\":1674:1753   */\n  tag_52\n  tag_53\n  jump\t// in\ntag_52:\n    /* \"#utility.yul\":1638:1755   */\ntag_51:\n    /* \"#utility.yul\":1779:1853   */\n  tag_54\n    /* \"#utility.yul\":1845:1852   */\n  dup10\n    /* \"#utility.yul\":1836:1842   */\n  dup3\n    /* \"#utility.yul\":1825:1834   */\n  dup11\n    /* \"#utility.yul\":1821:1843   */\n  add\n    /* \"#utility.yul\":1779:1853   */\n  tag_39\n  jump\t// in\ntag_54:\n    /* \"#utility.yul\":1769:1853   */\n  swap5\n  pop\n    /* \"#utility.yul\":1571:1863   */\n  pop\n    /* \"#utility.yul\":1923:1925   */\n  0x60\n    /* \"#utility.yul\":1912:1921   */\n  dup8\n    /* \"#utility.yul\":1908:1926   */\n  add\n    /* \"#utility.yul\":1902:1927   */\n  mload\n    /* \"#utility.yul\":1954:1972   */\n  0xffffffffffffffff\n    /* \"#utility.yul\":1946:1952   */\n  dup2\n    /* \"#utility.yul\":1943:1973   */\n  gt\n    /* \"#utility.yul\":1940:2057   */\n  iszero\n  tag_55\n  jumpi\n    /* \"#utility.yul\":1976:2055   */\n  tag_56\n  tag_53\n  jump\t// in\ntag_56:\n    /* \"#utility.yul\":1940:2057   */\ntag_55:\n    /* \"#utility.yul\":2081:2155   */\n  tag_57\n    /* \"#utility.yul\":2147:2154   */\n  dup10\n    /* \"#utility.yul\":2138:2144   */\n  dup3\n    /* \"#utility.yul\":2127:2136   */\n  dup11\n    /* \"#utility.yul\":2123:2145   */\n  add\n    /* \"#utility.yul\":2081:2155   */\n  tag_39\n  jump\t// in\ntag_57:\n    /* \"#utility.yul\":2071:2155   */\n  swap4\n  pop\n    /* \"#utility.yul\":1873:2165   */\n  pop\n    /* \"#utility.yul\":2225:2228   */\n  0x80\n    /* \"#utility.yul\":2214:2223   */\n  dup8\n    /* \"#utility.yul\":2210:2229   */\n  add\n    /* \"#utility.yul\":2204:2230   */\n  mload\n    /* \"#utility.yul\":2257:2275   */\n  0xffffffffffffffff\n    /* \"#utility.yul\":2249:2255   */\n  dup2\n    /* \"#utility.yul\":2246:2276   */\n  gt\n    /* \"#utility.yul\":2243:2360   */\n  iszero\n  tag_58\n  jumpi\n    /* \"#utility.yul\":2279:2358   */\n  tag_59\n  tag_53\n  jump\t// in\ntag_59:\n    /* \"#utility.yul\":2243:2360   */\ntag_58:\n    /* \"#utility.yul\":2384:2458   */\n  tag_60\n    /* \"#utility.yul\":2450:2457   */\n  dup10\n    /* \"#utility.yul\":2441:2447   */\n  dup3\n    /* \"#utility.yul\":2430:2439   */\n  dup11\n    /* \"#utility.yul\":2426:2448   */\n  add\n    /* \"#utility.yul\":2384:2458   */\n  tag_39\n  jump\t// in\ntag_60:\n    /* \"#utility.yul\":2374:2458   */\n  swap3\n  pop\n    /* \"#utility.yul\":2175:2468   */\n  pop\n    /* \"#utility.yul\":2528:2531   */\n  0xa0\n    /* \"#utility.yul\":2517:2526   */\n  dup8\n    /* \"#utility.yul\":2513:2532   */\n  add\n    /* \"#utility.yul\":2507:2533   */\n  mload\n    /* \"#utility.yul\":2560:2578   */\n  0xffffffffffffffff\n    /* \"#utility.yul\":2552:2558   */\n  dup2\n    /* \"#utility.yul\":2549:2579   */\n  gt\n    /* \"#utility.yul\":2546:2663   */\n  iszero\n  tag_61\n  jumpi\n    /* \"#utility.yul\":2582:2661   */\n  tag_62\n  tag_53\n  jump\t// in\ntag_62:\n    /* \"#utility.yul\":2546:2663   */\ntag_61:\n    /* \"#utility.yul\":2687:2761   */\n  tag_63\n    /* \"#utility.yul\":2753:2760   */\n  dup10\n    /* \"#utility.yul\":2744:2750   */\n  dup3\n    /* \"#utility.yul\":2733:2742   */\n  dup11\n    /* \"#utility.yul\":2729:2751   */\n  add\n    /* \"#utility.yul\":2687:2761   */\n  tag_39\n  jump\t// in\ntag_63:\n    /* \"#utility.yul\":2677:2761   */\n  swap2\n  pop\n    /* \"#utility.yul\":2478:2771   */\n  pop\n    /* \"#utility.yul\":956:2778   */\n  swap3\n  swap6\n  pop\n  swap3\n  swap6\n  pop\n  swap3\n  swap6\n  jump\t// out\n    /* \"#utility.yul\":2784:2913   */\ntag_29:\n    /* \"#utility.yul\":2818:2824   */\n  0x00\n    /* \"#utility.yul\":2845:2865   */\n  tag_65\n  tag_66\n  jump\t// in\ntag_65:\n    /* \"#utility.yul\":2835:2865   */\n  swap1\n  pop\n    /* \"#utility.yul\":2874:2907   */\n  tag_67\n    /* \"#utility.yul\":2902:2906   */\n  dup3\n    /* \"#utility.yul\":2894:2900   */\n  dup3\n    /* \"#utility.yul\":2874:2907   */\n  tag_68\n  jump\t// in\ntag_67:\n    /* \"#utility.yul\":2784:2913   */\n  swap2\n  swap1\n  pop\n  jump\t// out\n    /* \"#utility.yul\":2919:2994   */\ntag_66:\n    /* \"#utility.yul\":2952:2958   */\n  0x00\n    /* \"#utility.yul\":2985:2987   */\n  0x40\n    /* \"#utility.yul\":2979:2988   */\n  mload\n    /* \"#utility.yul\":2969:2988   */\n  swap1\n  pop\n    /* \"#utility.yul\":2919:2994   */\n  swap1\n  jump\t// out\n    /* \"#utility.yul\":3000:3308   */\ntag_28:\n    /* \"#utility.yul\":3062:3066   */\n  0x00\n    /* \"#utility.yul\":3152:3170   */\n  0xffffffffffffffff\n    /* \"#utility.yul\":3144:3150   */\n  dup3\n    /* \"#utility.yul\":3141:3171   */\n  gt\n    /* \"#utility.yul\":3138:3194   */\n  iszero\n  tag_71\n  jumpi\n    /* \"#utility.yul\":3174:3192   */\n  tag_72\n  tag_73\n  jump\t// in\ntag_72:\n    /* \"#utility.yul\":3138:3194   */\ntag_71:\n    /* \"#utility.yul\":3212:3241   */\n  tag_74\n    /* \"#utility.yul\":3234:3240   */\n  dup3\n    /* \"#utility.yul\":3212:3241   */\n  tag_75\n  jump\t// in\ntag_74:\n    /* \"#utility.yul\":3204:3241   */\n  swap1\n  pop\n    /* \"#utility.yul\":3296:3300   */\n  0x20\n    /* \"#utility.yul\":3290:3294   */\n  dup2\n    /* \"#utility.yul\":3286:3301   */\n  add\n    /* \"#utility.yul\":3278:3301   */\n  swap1\n  pop\n    /* \"#utility.yul\":3000:3308   */\n  swap2\n  swap1\n  pop\n  jump\t// out\n    /* \"#utility.yul\":3314:3390   */\ntag_76:\n    /* \"#utility.yul\":3350:3357   */\n  0x00\n    /* \"#utility.yul\":3379:3384   */\n  dup2\n    /* \"#utility.yul\":3368:3384   */\n  swap1\n  pop\n    /* \"#utility.yul\":3314:3390   */\n  swap2\n  swap1\n  pop\n  jump\t// out\n    /* \"#utility.yul\":3396:3703   */\ntag_34:\n    /* \"#utility.yul\":3464:3465   */\n  0x00\n    /* \"#utility.yul\":3474:3587   */\ntag_79:\n    /* \"#utility.yul\":3488:3494   */\n  dup4\n    /* \"#utility.yul\":3485:3486   */\n  dup2\n    /* \"#utility.yul\":3482:3495   */\n  lt\n    /* \"#utility.yul\":3474:3587   */\n  iszero\n  tag_81\n  jumpi\n    /* \"#utility.yul\":3573:3574   */\n  dup1\n    /* \"#utility.yul\":3568:3571   */\n  dup3\n    /* \"#utility.yul\":3564:3575   */\n  add\n    /* \"#utility.yul\":3558:3576   */\n  mload\n    /* \"#utility.yul\":3554:3555   */\n  dup2\n    /* \"#utility.yul\":3549:3552   */\n  dup5\n    /* \"#utility.yul\":3545:3556   */\n  add\n    /* \"#utility.yul\":3538:3577   */\n  mstore\n    /* \"#utility.yul\":3510:3512   */\n  0x20\n    /* \"#utility.yul\":3507:3508   */\n  dup2\n    /* \"#utility.yul\":3503:3513   */\n  add\n    /* \"#utility.yul\":3498:3513   */\n  swap1\n  pop\n    /* \"#utility.yul\":3474:3587   */\n  jump(tag_79)\ntag_81:\n    /* \"#utility.yul\":3605:3611   */\n  dup4\n    /* \"#utility.yul\":3602:3603   */\n  dup2\n    /* \"#utility.yul\":3599:3612   */\n  gt\n    /* \"#utility.yul\":3596:3697   */\n  iszero\n  tag_82\n  jumpi\n    /* \"#utility.yul\":3685:3686   */\n  0x00\n    /* \"#utility.yul\":3676:3682   */\n  dup5\n    /* \"#utility.yul\":3671:3674   */\n  dup5\n    /* \"#utility.yul\":3667:3683   */\n  add\n    /* \"#utility.yul\":3660:3687   */\n  mstore\n    /* \"#utility.yul\":3596:3697   */\ntag_82:\n    /* \"#utility.yul\":3445:3703   */\n  pop\n    /* \"#utility.yul\":3396:3703   */\n  pop\n  pop\n  pop\n  jump\t// out\n    /* \"#utility.yul\":3709:4029   */\ntag_13:\n    /* \"#utility.yul\":3753:3759   */\n  0x00\n    /* \"#utility.yul\":3790:3791   */\n  0x02\n    /* \"#utility.yul\":3784:3788   */\n  dup3\n    /* \"#utility.yul\":3780:3792   */\n  div\n    /* \"#utility.yul\":3770:3792   */\n  swap1\n  pop\n    /* \"#utility.yul\":3837:3838   */\n  0x01\n    /* \"#utility.yul\":3831:3835   */\n  dup3\n    /* \"#utility.yul\":3827:3839   */\n  and\n    /* \"#utility.yul\":3858:3876   */\n  dup1\n    /* \"#utility.yul\":3848:3929   */\n  tag_84\n  jumpi\n    /* \"#utility.yul\":3914:3918   */\n  0x7f\n    /* \"#utility.yul\":3906:3912   */\n  dup3\n    /* \"#utility.yul\":3902:3919   */\n  and\n    /* \"#utility.yul\":3892:3919   */\n  swap2\n  pop\n    /* \"#utility.yul\":3848:3929   */\ntag_84:\n    /* \"#utility.yul\":3976:3978   */\n  0x20\n    /* \"#utility.yul\":3968:3974   */\n  dup3\n    /* \"#utility.yul\":3965:3979   */\n  lt\n    /* \"#utility.yul\":3945:3963   */\n  dup2\n    /* \"#utility.yul\":3942:3980   */\n  eq\n    /* \"#utility.yul\":3939:4023   */\n  iszero\n  tag_85\n  jumpi\n    /* \"#utility.yul\":3995:4013   */\n  tag_86\n  tag_87\n  jump\t// in\ntag_86:\n    /* \"#utility.yul\":3939:4023   */\ntag_85:\n    /* \"#utility.yul\":3760:4029   */\n  pop\n    /* \"#utility.yul\":3709:4029   */\n  swap2\n  swap1\n  pop\n  jump\t// out\n    /* \"#utility.yul\":4035:4316   */\ntag_68:\n    /* \"#utility.yul\":4118:4145   */\n  tag_89\n    /* \"#utility.yul\":4140:4144   */\n  dup3\n    /* \"#utility.yul\":4118:4145   */\n  tag_75\n  jump\t// in\ntag_89:\n    /* \"#utility.yul\":4110:4116   */\n  dup2\n    /* \"#utility.yul\":4106:4146   */\n  add\n    /* \"#utility.yul\":4248:4254   */\n  dup2\n    /* \"#utility.yul\":4236:4246   */\n  dup2\n    /* \"#utility.yul\":4233:4255   */\n  lt\n    /* \"#utility.yul\":4212:4230   */\n  0xffffffffffffffff\n    /* \"#utility.yul\":4200:4210   */\n  dup3\n    /* \"#utility.yul\":4197:4231   */\n  gt\n    /* \"#utility.yul\":4194:4256   */\n  or\n    /* \"#utility.yul\":4191:4279   */\n  iszero\n  tag_90\n  jumpi\n    /* \"#utility.yul\":4259:4277   */\n  tag_91\n  tag_73\n  jump\t// in\ntag_91:\n    /* \"#utility.yul\":4191:4279   */\ntag_90:\n    /* \"#utility.yul\":4299:4309   */\n  dup1\n    /* \"#utility.yul\":4295:4297   */\n  0x40\n    /* \"#utility.yul\":4288:4310   */\n  mstore\n    /* \"#utility.yul\":4078:4316   */\n  pop\n    /* \"#utility.yul\":4035:4316   */\n  pop\n  pop\n  jump\t// out\n    /* \"#utility.yul\":4322:4502   */\ntag_87:\n    /* \"#utility.yul\":4370:4447   */\n  0x4e487b7100000000000000000000000000000000000000000000000000000000\n    /* \"#utility.yul\":4367:4368   */\n  0x00\n    /* \"#utility.yul\":4360:4448   */\n  mstore\n    /* \"#utility.yul\":4467:4471   */\n  0x22\n    /* \"#utility.yul\":4464:4465   */\n  0x04\n    /* \"#utility.yul\":4457:4472   */\n  mstore\n    /* \"#utility.yul\":4491:4495   */\n  0x24\n    /* \"#utility.yul\":4488:4489   */\n  0x00\n    /* \"#utility.yul\":4481:4496   */\n  revert\n    /* \"#utility.yul\":4508:4688   */\ntag_73:\n    /* \"#utility.yul\":4556:4633   */\n  0x4e487b7100000000000000000000000000000000000000000000000000000000\n    /* \"#utility.yul\":4553:4554   */\n  0x00\n    /* \"#utility.yul\":4546:4634   */\n  mstore\n    /* \"#utility.yul\":4653:4657   */\n  0x41\n    /* \"#utility.yul\":4650:4651   */\n  0x04\n    /* \"#utility.yul\":4643:4658   */\n  mstore\n    /* \"#utility.yul\":4677:4681   */\n  0x24\n    /* \"#utility.yul\":4674:4675   */\n  0x00\n    /* \"#utility.yul\":4667:4682   */\n  revert\n    /* \"#utility.yul\":4694:4811   */\ntag_43:\n    /* \"#utility.yul\":4803:4804   */\n  0x00\n    /* \"#utility.yul\":4800:4801   */\n  dup1\n    /* \"#utility.yul\":4793:4805   */\n  revert\n    /* \"#utility.yul\":4817:4934   */\ntag_32:\n    /* \"#utility.yul\":4926:4927   */\n  0x00\n    /* \"#utility.yul\":4923:4924   */\n  dup1\n    /* \"#utility.yul\":4916:4928   */\n  revert\n    /* \"#utility.yul\":4940:5057   */\ntag_53:\n    /* \"#utility.yul\":5049:5050   */\n  0x00\n    /* \"#utility.yul\":5046:5047   */\n  dup1\n    /* \"#utility.yul\":5039:5051   */\n  revert\n    /* \"#utility.yul\":5063:5180   */\ntag_48:\n    /* \"#utility.yul\":5172:5173   */\n  0x00\n    /* \"#utility.yul\":5169:5170   */\n  dup1\n    /* \"#utility.yul\":5162:5174   */\n  revert\n    /* \"#utility.yul\":5186:5288   */\ntag_75:\n    /* \"#utility.yul\":5227:5233   */\n  0x00\n    /* \"#utility.yul\":5278:5280   */\n  0x1f\n    /* \"#utility.yul\":5274:5281   */\n  not\n    /* \"#utility.yul\":5269:5271   */\n  0x1f\n    /* \"#utility.yul\":5262:5267   */\n  dup4\n    /* \"#utility.yul\":5258:5272   */\n  add\n    /* \"#utility.yul\":5254:5282   */\n  and\n    /* \"#utility.yul\":5244:5282   */\n  swap1\n  pop\n    /* \"#utility.yul\":5186:5288   */\n  swap2\n  swap1\n  pop\n  jump\t// out\n    /* \"#utility.yul\":5294:5414   */\ntag_38:\n    /* \"#utility.yul\":5366:5389   */\n  tag_100\n    /* \"#utility.yul\":5383:5388   */\n  dup2\n    /* \"#utility.yul\":5366:5389   */\n  tag_76\n  jump\t// in\ntag_100:\n    /* \"#utility.yul\":5359:5364   */\n  dup2\n    /* \"#utility.yul\":5356:5390   */\n  eq\n    /* \"#utility.yul\":5346:5408   */\n  tag_101\n  jumpi\n    /* \"#utility.yul\":5404:5405   */\n  0x00\n    /* \"#utility.yul\":5401:5402   */\n  dup1\n    /* \"#utility.yul\":5394:5406   */\n  revert\n    /* \"#utility.yul\":5346:5408   */\ntag_101:\n    /* \"#utility.yul\":5294:5414   */\n  pop\n  jump\t// out\n    /* \"contracts/Appointment.sol\":71:2160  contract Appointment{\r... */\ntag_11:\n  dataSize(sub_0)\n  dup1\n  dataOffset(sub_0)\n  0x00\n  codecopy\n  0x00\n  return\nstop\n\nsub_0: assembly {\n        /* \"contracts/Appointment.sol\":71:2160  contract Appointment{\r... */\n      mstore(0x40, 0x80)\n      callvalue\n      dup1\n      iszero\n      tag_1\n      jumpi\n      0x00\n      dup1\n      revert\n    tag_1:\n      pop\n      jumpi(tag_2, lt(calldatasize, 0x04))\n      shr(0xe0, calldataload(0x00))\n      dup1\n      0x54cc2739\n      gt\n      tag_16\n      jumpi\n      dup1\n      0x6e97e4a8\n      gt\n      tag_17\n      jumpi\n      dup1\n      0x6e97e4a8\n      eq\n      tag_12\n      jumpi\n      dup1\n      0x98f52bd7\n      eq\n      tag_13\n      jumpi\n      dup1\n      0xad8f8d95\n      eq\n      tag_14\n      jumpi\n      dup1\n      0xbd3e19d4\n      eq\n      tag_15\n      jumpi\n      jump(tag_2)\n    tag_17:\n      dup1\n      0x54cc2739\n      eq\n      tag_9\n      jumpi\n      dup1\n      0x58a1bb32\n      eq\n      tag_10\n      jumpi\n      dup1\n      0x6b2b1ab9\n      eq\n      tag_11\n      jumpi\n      jump(tag_2)\n    tag_16:\n      dup1\n      0x077a2972\n      eq\n      tag_3\n      jumpi\n      dup1\n      0x0a550ef3\n      eq\n      tag_4\n      jumpi\n      dup1\n      0x2b843201\n      eq\n      tag_5\n      jumpi\n      dup1\n      0x2e25fa47\n      eq\n      tag_6\n      jumpi\n      dup1\n      0x3c38ec09\n      eq\n      tag_7\n      jumpi\n      dup1\n      0x40cfd635\n      eq\n      tag_8\n      jumpi\n    tag_2:\n      0x00\n      dup1\n      revert\n        /* \"contracts/Appointment.sol\":1182:1273  function getIDVeterinary() public view returns (int) {\r... */\n    tag_3:\n      tag_18\n      tag_19\n      jump\t// in\n    tag_18:\n      mload(0x40)\n      tag_20\n      swap2\n      swap1\n      tag_21\n      jump\t// in\n    tag_20:\n      mload(0x40)\n      dup1\n      swap2\n      sub\n      swap1\n      return\n        /* \"contracts/Appointment.sol\":985:1068  function getIDBovine() public view returns (int) {\r... */\n    tag_4:\n      tag_22\n      tag_23\n      jump\t// in\n    tag_22:\n      mload(0x40)\n      tag_24\n      swap2\n      swap1\n      tag_21\n      jump\t// in\n    tag_24:\n      mload(0x40)\n      dup1\n      swap2\n      sub\n      swap1\n      return\n        /* \"contracts/Appointment.sol\":1409:1516  function getAppointmentDate() public view returns (string memory) {\r... */\n    tag_5:\n      tag_25\n      tag_26\n      jump\t// in\n    tag_25:\n      mload(0x40)\n      tag_27\n      swap2\n      swap1\n      tag_28\n      jump\t// in\n    tag_27:\n      mload(0x40)\n      dup1\n      swap2\n      sub\n      swap1\n      return\n        /* \"contracts/Appointment.sol\":1946:2050  function setObservation(string memory _observation) public {\r... */\n    tag_6:\n      tag_29\n      0x04\n      dup1\n      calldatasize\n      sub\n      dup2\n      add\n      swap1\n      tag_30\n      swap2\n      swap1\n      tag_31\n      jump\t// in\n    tag_30:\n      tag_32\n      jump\t// in\n    tag_29:\n      stop\n        /* \"contracts/Appointment.sol\":895:977  function setIDBovine(int _idBovine) public {\r... */\n    tag_7:\n      tag_33\n      0x04\n      dup1\n      calldatasize\n      sub\n      dup2\n      add\n      swap1\n      tag_34\n      swap2\n      swap1\n      tag_35\n      jump\t// in\n    tag_34:\n      tag_36\n      jump\t// in\n    tag_33:\n      stop\n        /* \"contracts/Appointment.sol\":665:887  function updateAppointment(int _idBovine,int _idVeterinary, string memory _appointmentDate) public {\r... */\n    tag_8:\n      tag_37\n      0x04\n      dup1\n      calldatasize\n      sub\n      dup2\n      add\n      swap1\n      tag_38\n      swap2\n      swap1\n      tag_39\n      jump\t// in\n    tag_38:\n      tag_40\n      jump\t// in\n    tag_37:\n      stop\n        /* \"contracts/Appointment.sol\":1654:1761  function getAppointmentType() public view returns (string memory) {\r... */\n    tag_9:\n      tag_41\n      tag_42\n      jump\t// in\n    tag_41:\n      mload(0x40)\n      tag_43\n      swap2\n      swap1\n      tag_28\n      jump\t// in\n    tag_43:\n      mload(0x40)\n      dup1\n      swap2\n      sub\n      swap1\n      return\n        /* \"contracts/Appointment.sol\":1526:1646  function setAppointmentType(string memory _appointmentType) public {\r... */\n    tag_10:\n      tag_44\n      0x04\n      dup1\n      calldatasize\n      sub\n      dup2\n      add\n      swap1\n      tag_45\n      swap2\n      swap1\n      tag_31\n      jump\t// in\n    tag_45:\n      tag_46\n      jump\t// in\n    tag_44:\n      stop\n        /* \"contracts/Appointment.sol\":2058:2157  function getObservation() public view returns (string memory) {\r... */\n    tag_11:\n      tag_47\n      tag_48\n      jump\t// in\n    tag_47:\n      mload(0x40)\n      tag_49\n      swap2\n      swap1\n      tag_28\n      jump\t// in\n    tag_49:\n      mload(0x40)\n      dup1\n      swap2\n      sub\n      swap1\n      return\n        /* \"contracts/Appointment.sol\":1769:1845  function setCost(string memory _cost) public {\r... */\n    tag_12:\n      tag_50\n      0x04\n      dup1\n      calldatasize\n      sub\n      dup2\n      add\n      swap1\n      tag_51\n      swap2\n      swap1\n      tag_31\n      jump\t// in\n    tag_51:\n      tag_52\n      jump\t// in\n    tag_50:\n      stop\n        /* \"contracts/Appointment.sol\":1281:1401  function setAppointmentDate(string memory _appointmentDate) public {\r... */\n    tag_13:\n      tag_53\n      0x04\n      dup1\n      calldatasize\n      sub\n      dup2\n      add\n      swap1\n      tag_54\n      swap2\n      swap1\n      tag_31\n      jump\t// in\n    tag_54:\n      tag_55\n      jump\t// in\n    tag_53:\n      stop\n        /* \"contracts/Appointment.sol\":1076:1174  function setIDVeterinary(int _idVeterinary) public {\r... */\n    tag_14:\n      tag_56\n      0x04\n      dup1\n      calldatasize\n      sub\n      dup2\n      add\n      swap1\n      tag_57\n      swap2\n      swap1\n      tag_35\n      jump\t// in\n    tag_57:\n      tag_58\n      jump\t// in\n    tag_56:\n      stop\n        /* \"contracts/Appointment.sol\":1853:1938  function getCost() public view returns (string memory) {\r... */\n    tag_15:\n      tag_59\n      tag_60\n      jump\t// in\n    tag_59:\n      mload(0x40)\n      tag_61\n      swap2\n      swap1\n      tag_28\n      jump\t// in\n    tag_61:\n      mload(0x40)\n      dup1\n      swap2\n      sub\n      swap1\n      return\n        /* \"contracts/Appointment.sol\":1182:1273  function getIDVeterinary() public view returns (int) {\r... */\n    tag_19:\n        /* \"contracts/Appointment.sol\":1230:1233  int */\n      0x00\n        /* \"contracts/Appointment.sol\":1253:1265  idVeterinary */\n      sload(0x01)\n        /* \"contracts/Appointment.sol\":1246:1265  return idVeterinary */\n      swap1\n      pop\n        /* \"contracts/Appointment.sol\":1182:1273  function getIDVeterinary() public view returns (int) {\r... */\n      swap1\n      jump\t// out\n        /* \"contracts/Appointment.sol\":985:1068  function getIDBovine() public view returns (int) {\r... */\n    tag_23:\n        /* \"contracts/Appointment.sol\":1029:1032  int */\n      0x00\n        /* \"contracts/Appointment.sol\":1052:1060  idBovine */\n      dup1\n      sload\n        /* \"contracts/Appointment.sol\":1045:1060  return idBovine */\n      swap1\n      pop\n        /* \"contracts/Appointment.sol\":985:1068  function getIDBovine() public view returns (int) {\r... */\n      swap1\n      jump\t// out\n        /* \"contracts/Appointment.sol\":1409:1516  function getAppointmentDate() public view returns (string memory) {\r... */\n    tag_26:\n        /* \"contracts/Appointment.sol\":1460:1473  string memory */\n      0x60\n        /* \"contracts/Appointment.sol\":1493:1508  appointmentDate */\n      0x02\n        /* \"contracts/Appointment.sol\":1486:1508  return appointmentDate */\n      dup1\n      sload\n      tag_65\n      swap1\n      tag_66\n      jump\t// in\n    tag_65:\n      dup1\n      0x1f\n      add\n      0x20\n      dup1\n      swap2\n      div\n      mul\n      0x20\n      add\n      mload(0x40)\n      swap1\n      dup2\n      add\n      0x40\n      mstore\n      dup1\n      swap3\n      swap2\n      swap1\n      dup2\n      dup2\n      mstore\n      0x20\n      add\n      dup3\n      dup1\n      sload\n      tag_67\n      swap1\n      tag_66\n      jump\t// in\n    tag_67:\n      dup1\n      iszero\n      tag_68\n      jumpi\n      dup1\n      0x1f\n      lt\n      tag_69\n      jumpi\n      0x0100\n      dup1\n      dup4\n      sload\n      div\n      mul\n      dup4\n      mstore\n      swap2\n      0x20\n      add\n      swap2\n      jump(tag_68)\n    tag_69:\n      dup3\n      add\n      swap2\n      swap1\n      0x00\n      mstore\n      keccak256(0x00, 0x20)\n      swap1\n    tag_70:\n      dup2\n      sload\n      dup2\n      mstore\n      swap1\n      0x01\n      add\n      swap1\n      0x20\n      add\n      dup1\n      dup4\n      gt\n      tag_70\n      jumpi\n      dup3\n      swap1\n      sub\n      0x1f\n      and\n      dup3\n      add\n      swap2\n    tag_68:\n      pop\n      pop\n      pop\n      pop\n      pop\n      swap1\n      pop\n        /* \"contracts/Appointment.sol\":1409:1516  function getAppointmentDate() public view returns (string memory) {\r... */\n      swap1\n      jump\t// out\n        /* \"contracts/Appointment.sol\":1946:2050  function setObservation(string memory _observation) public {\r... */\n    tag_32:\n        /* \"contracts/Appointment.sol\":2030:2042  _observation */\n      dup1\n        /* \"contracts/Appointment.sol\":2016:2027  observation */\n      0x05\n        /* \"contracts/Appointment.sol\":2016:2042  observation = _observation */\n      swap1\n      dup1\n      mload\n      swap1\n      0x20\n      add\n      swap1\n      tag_72\n      swap3\n      swap2\n      swap1\n      tag_73\n      jump\t// in\n    tag_72:\n      pop\n        /* \"contracts/Appointment.sol\":1946:2050  function setObservation(string memory _observation) public {\r... */\n      pop\n      jump\t// out\n        /* \"contracts/Appointment.sol\":895:977  function setIDBovine(int _idBovine) public {\r... */\n    tag_36:\n        /* \"contracts/Appointment.sol\":960:969  _idBovine */\n      dup1\n        /* \"contracts/Appointment.sol\":949:957  idBovine */\n      0x00\n        /* \"contracts/Appointment.sol\":949:969  idBovine = _idBovine */\n      dup2\n      swap1\n      sstore\n      pop\n        /* \"contracts/Appointment.sol\":895:977  function setIDBovine(int _idBovine) public {\r... */\n      pop\n      jump\t// out\n        /* \"contracts/Appointment.sol\":665:887  function updateAppointment(int _idBovine,int _idVeterinary, string memory _appointmentDate) public {\r... */\n    tag_40:\n        /* \"contracts/Appointment.sol\":786:795  _idBovine */\n      dup3\n        /* \"contracts/Appointment.sol\":775:783  idBovine */\n      0x00\n        /* \"contracts/Appointment.sol\":775:795  idBovine = _idBovine */\n      dup2\n      swap1\n      sstore\n      pop\n        /* \"contracts/Appointment.sol\":821:834  _idVeterinary */\n      dup2\n        /* \"contracts/Appointment.sol\":806:818  idVeterinary */\n      0x01\n        /* \"contracts/Appointment.sol\":806:834  idVeterinary = _idVeterinary */\n      dup2\n      swap1\n      sstore\n      pop\n        /* \"contracts/Appointment.sol\":863:879  _appointmentDate */\n      dup1\n        /* \"contracts/Appointment.sol\":845:860  appointmentDate */\n      0x02\n        /* \"contracts/Appointment.sol\":845:879  appointmentDate = _appointmentDate */\n      swap1\n      dup1\n      mload\n      swap1\n      0x20\n      add\n      swap1\n      tag_76\n      swap3\n      swap2\n      swap1\n      tag_73\n      jump\t// in\n    tag_76:\n      pop\n        /* \"contracts/Appointment.sol\":665:887  function updateAppointment(int _idBovine,int _idVeterinary, string memory _appointmentDate) public {\r... */\n      pop\n      pop\n      pop\n      jump\t// out\n        /* \"contracts/Appointment.sol\":1654:1761  function getAppointmentType() public view returns (string memory) {\r... */\n    tag_42:\n        /* \"contracts/Appointment.sol\":1705:1718  string memory */\n      0x60\n        /* \"contracts/Appointment.sol\":1738:1753  appointmentType */\n      0x03\n        /* \"contracts/Appointment.sol\":1731:1753  return appointmentType */\n      dup1\n      sload\n      tag_78\n      swap1\n      tag_66\n      jump\t// in\n    tag_78:\n      dup1\n      0x1f\n      add\n      0x20\n      dup1\n      swap2\n      div\n      mul\n      0x20\n      add\n      mload(0x40)\n      swap1\n      dup2\n      add\n      0x40\n      mstore\n      dup1\n      swap3\n      swap2\n      swap1\n      dup2\n      dup2\n      mstore\n      0x20\n      add\n      dup3\n      dup1\n      sload\n      tag_79\n      swap1\n      tag_66\n      jump\t// in\n    tag_79:\n      dup1\n      iszero\n      tag_80\n      jumpi\n      dup1\n      0x1f\n      lt\n      tag_81\n      jumpi\n      0x0100\n      dup1\n      dup4\n      sload\n      div\n      mul\n      dup4\n      mstore\n      swap2\n      0x20\n      add\n      swap2\n      jump(tag_80)\n    tag_81:\n      dup3\n      add\n      swap2\n      swap1\n      0x00\n      mstore\n      keccak256(0x00, 0x20)\n      swap1\n    tag_82:\n      dup2\n      sload\n      dup2\n      mstore\n      swap1\n      0x01\n      add\n      swap1\n      0x20\n      add\n      dup1\n      dup4\n      gt\n      tag_82\n      jumpi\n      dup3\n      swap1\n      sub\n      0x1f\n      and\n      dup3\n      add\n      swap2\n    tag_80:\n      pop\n      pop\n      pop\n      pop\n      pop\n      swap1\n      pop\n        /* \"contracts/Appointment.sol\":1654:1761  function getAppointmentType() public view returns (string memory) {\r... */\n      swap1\n      jump\t// out\n        /* \"contracts/Appointment.sol\":1526:1646  function setAppointmentType(string memory _appointmentType) public {\r... */\n    tag_46:\n        /* \"contracts/Appointment.sol\":1622:1638  _appointmentType */\n      dup1\n        /* \"contracts/Appointment.sol\":1604:1619  appointmentType */\n      0x03\n        /* \"contracts/Appointment.sol\":1604:1638  appointmentType = _appointmentType */\n      swap1\n      dup1\n      mload\n      swap1\n      0x20\n      add\n      swap1\n      tag_84\n      swap3\n      swap2\n      swap1\n      tag_73\n      jump\t// in\n    tag_84:\n      pop\n        /* \"contracts/Appointment.sol\":1526:1646  function setAppointmentType(string memory _appointmentType) public {\r... */\n      pop\n      jump\t// out\n        /* \"contracts/Appointment.sol\":2058:2157  function getObservation() public view returns (string memory) {\r... */\n    tag_48:\n        /* \"contracts/Appointment.sol\":2105:2118  string memory */\n      0x60\n        /* \"contracts/Appointment.sol\":2138:2149  observation */\n      0x05\n        /* \"contracts/Appointment.sol\":2131:2149  return observation */\n      dup1\n      sload\n      tag_86\n      swap1\n      tag_66\n      jump\t// in\n    tag_86:\n      dup1\n      0x1f\n      add\n      0x20\n      dup1\n      swap2\n      div\n      mul\n      0x20\n      add\n      mload(0x40)\n      swap1\n      dup2\n      add\n      0x40\n      mstore\n      dup1\n      swap3\n      swap2\n      swap1\n      dup2\n      dup2\n      mstore\n      0x20\n      add\n      dup3\n      dup1\n      sload\n      tag_87\n      swap1\n      tag_66\n      jump\t// in\n    tag_87:\n      dup1\n      iszero\n      tag_88\n      jumpi\n      dup1\n      0x1f\n      lt\n      tag_89\n      jumpi\n      0x0100\n      dup1\n      dup4\n      sload\n      div\n      mul\n      dup4\n      mstore\n      swap2\n      0x20\n      add\n      swap2\n      jump(tag_88)\n    tag_89:\n      dup3\n      add\n      swap2\n      swap1\n      0x00\n      mstore\n      keccak256(0x00, 0x20)\n      swap1\n    tag_90:\n      dup2\n      sload\n      dup2\n      mstore\n      swap1\n      0x01\n      add\n      swap1\n      0x20\n      add\n      dup1\n      dup4\n      gt\n      tag_90\n      jumpi\n      dup3\n      swap1\n      sub\n      0x1f\n      and\n      dup3\n      add\n      swap2\n    tag_88:\n      pop\n      pop\n      pop\n      pop\n      pop\n      swap1\n      pop\n        /* \"contracts/Appointment.sol\":2058:2157  function getObservation() public view returns (string memory) {\r... */\n      swap1\n      jump\t// out\n        /* \"contracts/Appointment.sol\":1769:1845  function setCost(string memory _cost) public {\r... */\n    tag_52:\n        /* \"contracts/Appointment.sol\":1832:1837  _cost */\n      dup1\n        /* \"contracts/Appointment.sol\":1825:1829  cost */\n      0x04\n        /* \"contracts/Appointment.sol\":1825:1837  cost = _cost */\n      swap1\n      dup1\n      mload\n      swap1\n      0x20\n      add\n      swap1\n      tag_92\n      swap3\n      swap2\n      swap1\n      tag_73\n      jump\t// in\n    tag_92:\n      pop\n        /* \"contracts/Appointment.sol\":1769:1845  function setCost(string memory _cost) public {\r... */\n      pop\n      jump\t// out\n        /* \"contracts/Appointment.sol\":1281:1401  function setAppointmentDate(string memory _appointmentDate) public {\r... */\n    tag_55:\n        /* \"contracts/Appointment.sol\":1377:1393  _appointmentDate */\n      dup1\n        /* \"contracts/Appointment.sol\":1359:1374  appointmentDate */\n      0x02\n        /* \"contracts/Appointment.sol\":1359:1393  appointmentDate = _appointmentDate */\n      swap1\n      dup1\n      mload\n      swap1\n      0x20\n      add\n      swap1\n      tag_94\n      swap3\n      swap2\n      swap1\n      tag_73\n      jump\t// in\n    tag_94:\n      pop\n        /* \"contracts/Appointment.sol\":1281:1401  function setAppointmentDate(string memory _appointmentDate) public {\r... */\n      pop\n      jump\t// out\n        /* \"contracts/Appointment.sol\":1076:1174  function setIDVeterinary(int _idVeterinary) public {\r... */\n    tag_58:\n        /* \"contracts/Appointment.sol\":1153:1166  _idVeterinary */\n      dup1\n        /* \"contracts/Appointment.sol\":1138:1150  idVeterinary */\n      0x01\n        /* \"contracts/Appointment.sol\":1138:1166  idVeterinary = _idVeterinary */\n      dup2\n      swap1\n      sstore\n      pop\n        /* \"contracts/Appointment.sol\":1076:1174  function setIDVeterinary(int _idVeterinary) public {\r... */\n      pop\n      jump\t// out\n        /* \"contracts/Appointment.sol\":1853:1938  function getCost() public view returns (string memory) {\r... */\n    tag_60:\n        /* \"contracts/Appointment.sol\":1893:1906  string memory */\n      0x60\n        /* \"contracts/Appointment.sol\":1926:1930  cost */\n      0x04\n        /* \"contracts/Appointment.sol\":1919:1930  return cost */\n      dup1\n      sload\n      tag_97\n      swap1\n      tag_66\n      jump\t// in\n    tag_97:\n      dup1\n      0x1f\n      add\n      0x20\n      dup1\n      swap2\n      div\n      mul\n      0x20\n      add\n      mload(0x40)\n      swap1\n      dup2\n      add\n      0x40\n      mstore\n      dup1\n      swap3\n      swap2\n      swap1\n      dup2\n      dup2\n      mstore\n      0x20\n      add\n      dup3\n      dup1\n      sload\n      tag_98\n      swap1\n      tag_66\n      jump\t// in\n    tag_98:\n      dup1\n      iszero\n      tag_99\n      jumpi\n      dup1\n      0x1f\n      lt\n      tag_100\n      jumpi\n      0x0100\n      dup1\n      dup4\n      sload\n      div\n      mul\n      dup4\n      mstore\n      swap2\n      0x20\n      add\n      swap2\n      jump(tag_99)\n    tag_100:\n      dup3\n      add\n      swap2\n      swap1\n      0x00\n      mstore\n      keccak256(0x00, 0x20)\n      swap1\n    tag_101:\n      dup2\n      sload\n      dup2\n      mstore\n      swap1\n      0x01\n      add\n      swap1\n      0x20\n      add\n      dup1\n      dup4\n      gt\n      tag_101\n      jumpi\n      dup3\n      swap1\n      sub\n      0x1f\n      and\n      dup3\n      add\n      swap2\n    tag_99:\n      pop\n      pop\n      pop\n      pop\n      pop\n      swap1\n      pop\n        /* \"contracts/Appointment.sol\":1853:1938  function getCost() public view returns (string memory) {\r... */\n      swap1\n      jump\t// out\n    tag_73:\n      dup3\n      dup1\n      sload\n      tag_102\n      swap1\n      tag_66\n      jump\t// in\n    tag_102:\n      swap1\n      0x00\n      mstore\n      keccak256(0x00, 0x20)\n      swap1\n      0x1f\n      add\n      0x20\n      swap1\n      div\n      dup2\n      add\n      swap3\n      dup3\n      tag_104\n      jumpi\n      0x00\n      dup6\n      sstore\n      jump(tag_103)\n    tag_104:\n      dup3\n      0x1f\n      lt\n      tag_105\n      jumpi\n      dup1\n      mload\n      not(0xff)\n      and\n      dup4\n      dup1\n      add\n      or\n      dup6\n      sstore\n      jump(tag_103)\n    tag_105:\n      dup3\n      dup1\n      add\n      0x01\n      add\n      dup6\n      sstore\n      dup3\n      iszero\n      tag_103\n      jumpi\n      swap2\n      dup3\n      add\n    tag_106:\n      dup3\n      dup2\n      gt\n      iszero\n      tag_107\n      jumpi\n      dup3\n      mload\n      dup3\n      sstore\n      swap2\n      0x20\n      add\n      swap2\n      swap1\n      0x01\n      add\n      swap1\n      jump(tag_106)\n    tag_107:\n    tag_103:\n      pop\n      swap1\n      pop\n      tag_108\n      swap2\n      swap1\n      tag_109\n      jump\t// in\n    tag_108:\n      pop\n      swap1\n      jump\t// out\n    tag_109:\n    tag_110:\n      dup1\n      dup3\n      gt\n      iszero\n      tag_111\n      jumpi\n      0x00\n      dup2\n      0x00\n      swap1\n      sstore\n      pop\n      0x01\n      add\n      jump(tag_110)\n    tag_111:\n      pop\n      swap1\n      jump\t// out\n        /* \"#utility.yul\":7:419   */\n    tag_113:\n        /* \"#utility.yul\":85:90   */\n      0x00\n        /* \"#utility.yul\":110:176   */\n      tag_115\n        /* \"#utility.yul\":126:175   */\n      tag_116\n        /* \"#utility.yul\":168:174   */\n      dup5\n        /* \"#utility.yul\":126:175   */\n      tag_117\n      jump\t// in\n    tag_116:\n        /* \"#utility.yul\":110:176   */\n      tag_118\n      jump\t// in\n    tag_115:\n        /* \"#utility.yul\":101:176   */\n      swap1\n      pop\n        /* \"#utility.yul\":199:205   */\n      dup3\n        /* \"#utility.yul\":192:197   */\n      dup2\n        /* \"#utility.yul\":185:206   */\n      mstore\n        /* \"#utility.yul\":237:241   */\n      0x20\n        /* \"#utility.yul\":230:235   */\n      dup2\n        /* \"#utility.yul\":226:242   */\n      add\n        /* \"#utility.yul\":275:278   */\n      dup5\n        /* \"#utility.yul\":266:272   */\n      dup5\n        /* \"#utility.yul\":261:264   */\n      dup5\n        /* \"#utility.yul\":257:273   */\n      add\n        /* \"#utility.yul\":254:279   */\n      gt\n        /* \"#utility.yul\":251:363   */\n      iszero\n      tag_119\n      jumpi\n        /* \"#utility.yul\":282:361   */\n      tag_120\n      tag_121\n      jump\t// in\n    tag_120:\n        /* \"#utility.yul\":251:363   */\n    tag_119:\n        /* \"#utility.yul\":372:413   */\n      tag_122\n        /* \"#utility.yul\":406:412   */\n      dup5\n        /* \"#utility.yul\":401:404   */\n      dup3\n        /* \"#utility.yul\":396:399   */\n      dup6\n        /* \"#utility.yul\":372:413   */\n      tag_123\n      jump\t// in\n    tag_122:\n        /* \"#utility.yul\":91:419   */\n      pop\n        /* \"#utility.yul\":7:419   */\n      swap4\n      swap3\n      pop\n      pop\n      pop\n      jump\t// out\n        /* \"#utility.yul\":425:562   */\n    tag_124:\n        /* \"#utility.yul\":470:475   */\n      0x00\n        /* \"#utility.yul\":508:514   */\n      dup2\n        /* \"#utility.yul\":495:515   */\n      calldataload\n        /* \"#utility.yul\":486:515   */\n      swap1\n      pop\n        /* \"#utility.yul\":524:556   */\n      tag_126\n        /* \"#utility.yul\":550:555   */\n      dup2\n        /* \"#utility.yul\":524:556   */\n      tag_127\n      jump\t// in\n    tag_126:\n        /* \"#utility.yul\":425:562   */\n      swap3\n      swap2\n      pop\n      pop\n      jump\t// out\n        /* \"#utility.yul\":582:922   */\n    tag_128:\n        /* \"#utility.yul\":638:643   */\n      0x00\n        /* \"#utility.yul\":687:690   */\n      dup3\n        /* \"#utility.yul\":680:684   */\n      0x1f\n        /* \"#utility.yul\":672:678   */\n      dup4\n        /* \"#utility.yul\":668:685   */\n      add\n        /* \"#utility.yul\":664:691   */\n      slt\n        /* \"#utility.yul\":654:776   */\n      tag_130\n      jumpi\n        /* \"#utility.yul\":695:774   */\n      tag_131\n      tag_132\n      jump\t// in\n    tag_131:\n        /* \"#utility.yul\":654:776   */\n    tag_130:\n        /* \"#utility.yul\":812:818   */\n      dup2\n        /* \"#utility.yul\":799:819   */\n      calldataload\n        /* \"#utility.yul\":837:916   */\n      tag_133\n        /* \"#utility.yul\":912:915   */\n      dup5\n        /* \"#utility.yul\":904:910   */\n      dup3\n        /* \"#utility.yul\":897:901   */\n      0x20\n        /* \"#utility.yul\":889:895   */\n      dup7\n        /* \"#utility.yul\":885:902   */\n      add\n        /* \"#utility.yul\":837:916   */\n      tag_113\n      jump\t// in\n    tag_133:\n        /* \"#utility.yul\":828:916   */\n      swap2\n      pop\n        /* \"#utility.yul\":644:922   */\n      pop\n        /* \"#utility.yul\":582:922   */\n      swap3\n      swap2\n      pop\n      pop\n      jump\t// out\n        /* \"#utility.yul\":928:1255   */\n    tag_35:\n        /* \"#utility.yul\":986:992   */\n      0x00\n        /* \"#utility.yul\":1035:1037   */\n      0x20\n        /* \"#utility.yul\":1023:1032   */\n      dup3\n        /* \"#utility.yul\":1014:1021   */\n      dup5\n        /* \"#utility.yul\":1010:1033   */\n      sub\n        /* \"#utility.yul\":1006:1038   */\n      slt\n        /* \"#utility.yul\":1003:1122   */\n      iszero\n      tag_135\n      jumpi\n        /* \"#utility.yul\":1041:1120   */\n      tag_136\n      tag_137\n      jump\t// in\n    tag_136:\n        /* \"#utility.yul\":1003:1122   */\n    tag_135:\n        /* \"#utility.yul\":1161:1162   */\n      0x00\n        /* \"#utility.yul\":1186:1238   */\n      tag_138\n        /* \"#utility.yul\":1230:1237   */\n      dup5\n        /* \"#utility.yul\":1221:1227   */\n      dup3\n        /* \"#utility.yul\":1210:1219   */\n      dup6\n        /* \"#utility.yul\":1206:1228   */\n      add\n        /* \"#utility.yul\":1186:1238   */\n      tag_124\n      jump\t// in\n    tag_138:\n        /* \"#utility.yul\":1176:1238   */\n      swap2\n      pop\n        /* \"#utility.yul\":1132:1248   */\n      pop\n        /* \"#utility.yul\":928:1255   */\n      swap3\n      swap2\n      pop\n      pop\n      jump\t// out\n        /* \"#utility.yul\":1261:2056   */\n    tag_39:\n        /* \"#utility.yul\":1346:1352   */\n      0x00\n        /* \"#utility.yul\":1354:1360   */\n      dup1\n        /* \"#utility.yul\":1362:1368   */\n      0x00\n        /* \"#utility.yul\":1411:1413   */\n      0x60\n        /* \"#utility.yul\":1399:1408   */\n      dup5\n        /* \"#utility.yul\":1390:1397   */\n      dup7\n        /* \"#utility.yul\":1386:1409   */\n      sub\n        /* \"#utility.yul\":1382:1414   */\n      slt\n        /* \"#utility.yul\":1379:1498   */\n      iszero\n      tag_140\n      jumpi\n        /* \"#utility.yul\":1417:1496   */\n      tag_141\n      tag_137\n      jump\t// in\n    tag_141:\n        /* \"#utility.yul\":1379:1498   */\n    tag_140:\n        /* \"#utility.yul\":1537:1538   */\n      0x00\n        /* \"#utility.yul\":1562:1614   */\n      tag_142\n        /* \"#utility.yul\":1606:1613   */\n      dup7\n        /* \"#utility.yul\":1597:1603   */\n      dup3\n        /* \"#utility.yul\":1586:1595   */\n      dup8\n        /* \"#utility.yul\":1582:1604   */\n      add\n        /* \"#utility.yul\":1562:1614   */\n      tag_124\n      jump\t// in\n    tag_142:\n        /* \"#utility.yul\":1552:1614   */\n      swap4\n      pop\n        /* \"#utility.yul\":1508:1624   */\n      pop\n        /* \"#utility.yul\":1663:1665   */\n      0x20\n        /* \"#utility.yul\":1689:1741   */\n      tag_143\n        /* \"#utility.yul\":1733:1740   */\n      dup7\n        /* \"#utility.yul\":1724:1730   */\n      dup3\n        /* \"#utility.yul\":1713:1722   */\n      dup8\n        /* \"#utility.yul\":1709:1731   */\n      add\n        /* \"#utility.yul\":1689:1741   */\n      tag_124\n      jump\t// in\n    tag_143:\n        /* \"#utility.yul\":1679:1741   */\n      swap3\n      pop\n        /* \"#utility.yul\":1634:1751   */\n      pop\n        /* \"#utility.yul\":1818:1820   */\n      0x40\n        /* \"#utility.yul\":1807:1816   */\n      dup5\n        /* \"#utility.yul\":1803:1821   */\n      add\n        /* \"#utility.yul\":1790:1822   */\n      calldataload\n        /* \"#utility.yul\":1849:1867   */\n      0xffffffffffffffff\n        /* \"#utility.yul\":1841:1847   */\n      dup2\n        /* \"#utility.yul\":1838:1868   */\n      gt\n        /* \"#utility.yul\":1835:1952   */\n      iszero\n      tag_144\n      jumpi\n        /* \"#utility.yul\":1871:1950   */\n      tag_145\n      tag_146\n      jump\t// in\n    tag_145:\n        /* \"#utility.yul\":1835:1952   */\n    tag_144:\n        /* \"#utility.yul\":1976:2039   */\n      tag_147\n        /* \"#utility.yul\":2031:2038   */\n      dup7\n        /* \"#utility.yul\":2022:2028   */\n      dup3\n        /* \"#utility.yul\":2011:2020   */\n      dup8\n        /* \"#utility.yul\":2007:2029   */\n      add\n        /* \"#utility.yul\":1976:2039   */\n      tag_128\n      jump\t// in\n    tag_147:\n        /* \"#utility.yul\":1966:2039   */\n      swap2\n      pop\n        /* \"#utility.yul\":1761:2049   */\n      pop\n        /* \"#utility.yul\":1261:2056   */\n      swap3\n      pop\n      swap3\n      pop\n      swap3\n      jump\t// out\n        /* \"#utility.yul\":2062:2571   */\n    tag_31:\n        /* \"#utility.yul\":2131:2137   */\n      0x00\n        /* \"#utility.yul\":2180:2182   */\n      0x20\n        /* \"#utility.yul\":2168:2177   */\n      dup3\n        /* \"#utility.yul\":2159:2166   */\n      dup5\n        /* \"#utility.yul\":2155:2178   */\n      sub\n        /* \"#utility.yul\":2151:2183   */\n      slt\n        /* \"#utility.yul\":2148:2267   */\n      iszero\n      tag_149\n      jumpi\n        /* \"#utility.yul\":2186:2265   */\n      tag_150\n      tag_137\n      jump\t// in\n    tag_150:\n        /* \"#utility.yul\":2148:2267   */\n    tag_149:\n        /* \"#utility.yul\":2334:2335   */\n      0x00\n        /* \"#utility.yul\":2323:2332   */\n      dup3\n        /* \"#utility.yul\":2319:2336   */\n      add\n        /* \"#utility.yul\":2306:2337   */\n      calldataload\n        /* \"#utility.yul\":2364:2382   */\n      0xffffffffffffffff\n        /* \"#utility.yul\":2356:2362   */\n      dup2\n        /* \"#utility.yul\":2353:2383   */\n      gt\n        /* \"#utility.yul\":2350:2467   */\n      iszero\n      tag_151\n      jumpi\n        /* \"#utility.yul\":2386:2465   */\n      tag_152\n      tag_146\n      jump\t// in\n    tag_152:\n        /* \"#utility.yul\":2350:2467   */\n    tag_151:\n        /* \"#utility.yul\":2491:2554   */\n      tag_153\n        /* \"#utility.yul\":2546:2553   */\n      dup5\n        /* \"#utility.yul\":2537:2543   */\n      dup3\n        /* \"#utility.yul\":2526:2535   */\n      dup6\n        /* \"#utility.yul\":2522:2544   */\n      add\n        /* \"#utility.yul\":2491:2554   */\n      tag_128\n      jump\t// in\n    tag_153:\n        /* \"#utility.yul\":2481:2554   */\n      swap2\n      pop\n        /* \"#utility.yul\":2277:2564   */\n      pop\n        /* \"#utility.yul\":2062:2571   */\n      swap3\n      swap2\n      pop\n      pop\n      jump\t// out\n        /* \"#utility.yul\":2577:2692   */\n    tag_154:\n        /* \"#utility.yul\":2662:2685   */\n      tag_156\n        /* \"#utility.yul\":2679:2684   */\n      dup2\n        /* \"#utility.yul\":2662:2685   */\n      tag_157\n      jump\t// in\n    tag_156:\n        /* \"#utility.yul\":2657:2660   */\n      dup3\n        /* \"#utility.yul\":2650:2686   */\n      mstore\n        /* \"#utility.yul\":2577:2692   */\n      pop\n      pop\n      jump\t// out\n        /* \"#utility.yul\":2698:3062   */\n    tag_158:\n        /* \"#utility.yul\":2786:2789   */\n      0x00\n        /* \"#utility.yul\":2814:2853   */\n      tag_160\n        /* \"#utility.yul\":2847:2852   */\n      dup3\n        /* \"#utility.yul\":2814:2853   */\n      tag_161\n      jump\t// in\n    tag_160:\n        /* \"#utility.yul\":2869:2940   */\n      tag_162\n        /* \"#utility.yul\":2933:2939   */\n      dup2\n        /* \"#utility.yul\":2928:2931   */\n      dup6\n        /* \"#utility.yul\":2869:2940   */\n      tag_163\n      jump\t// in\n    tag_162:\n        /* \"#utility.yul\":2862:2940   */\n      swap4\n      pop\n        /* \"#utility.yul\":2949:3001   */\n      tag_164\n        /* \"#utility.yul\":2994:3000   */\n      dup2\n        /* \"#utility.yul\":2989:2992   */\n      dup6\n        /* \"#utility.yul\":2982:2986   */\n      0x20\n        /* \"#utility.yul\":2975:2980   */\n      dup7\n        /* \"#utility.yul\":2971:2987   */\n      add\n        /* \"#utility.yul\":2949:3001   */\n      tag_165\n      jump\t// in\n    tag_164:\n        /* \"#utility.yul\":3026:3055   */\n      tag_166\n        /* \"#utility.yul\":3048:3054   */\n      dup2\n        /* \"#utility.yul\":3026:3055   */\n      tag_167\n      jump\t// in\n    tag_166:\n        /* \"#utility.yul\":3021:3024   */\n      dup5\n        /* \"#utility.yul\":3017:3056   */\n      add\n        /* \"#utility.yul\":3010:3056   */\n      swap2\n      pop\n        /* \"#utility.yul\":2790:3062   */\n      pop\n        /* \"#utility.yul\":2698:3062   */\n      swap3\n      swap2\n      pop\n      pop\n      jump\t// out\n        /* \"#utility.yul\":3068:3286   */\n    tag_21:\n        /* \"#utility.yul\":3159:3163   */\n      0x00\n        /* \"#utility.yul\":3197:3199   */\n      0x20\n        /* \"#utility.yul\":3186:3195   */\n      dup3\n        /* \"#utility.yul\":3182:3200   */\n      add\n        /* \"#utility.yul\":3174:3200   */\n      swap1\n      pop\n        /* \"#utility.yul\":3210:3279   */\n      tag_169\n        /* \"#utility.yul\":3276:3277   */\n      0x00\n        /* \"#utility.yul\":3265:3274   */\n      dup4\n        /* \"#utility.yul\":3261:3278   */\n      add\n        /* \"#utility.yul\":3252:3258   */\n      dup5\n        /* \"#utility.yul\":3210:3279   */\n      tag_154\n      jump\t// in\n    tag_169:\n        /* \"#utility.yul\":3068:3286   */\n      swap3\n      swap2\n      pop\n      pop\n      jump\t// out\n        /* \"#utility.yul\":3292:3605   */\n    tag_28:\n        /* \"#utility.yul\":3405:3409   */\n      0x00\n        /* \"#utility.yul\":3443:3445   */\n      0x20\n        /* \"#utility.yul\":3432:3441   */\n      dup3\n        /* \"#utility.yul\":3428:3446   */\n      add\n        /* \"#utility.yul\":3420:3446   */\n      swap1\n      pop\n        /* \"#utility.yul\":3492:3501   */\n      dup2\n        /* \"#utility.yul\":3486:3490   */\n      dup2\n        /* \"#utility.yul\":3482:3502   */\n      sub\n        /* \"#utility.yul\":3478:3479   */\n      0x00\n        /* \"#utility.yul\":3467:3476   */\n      dup4\n        /* \"#utility.yul\":3463:3480   */\n      add\n        /* \"#utility.yul\":3456:3503   */\n      mstore\n        /* \"#utility.yul\":3520:3598   */\n      tag_171\n        /* \"#utility.yul\":3593:3597   */\n      dup2\n        /* \"#utility.yul\":3584:3590   */\n      dup5\n        /* \"#utility.yul\":3520:3598   */\n      tag_158\n      jump\t// in\n    tag_171:\n        /* \"#utility.yul\":3512:3598   */\n      swap1\n      pop\n        /* \"#utility.yul\":3292:3605   */\n      swap3\n      swap2\n      pop\n      pop\n      jump\t// out\n        /* \"#utility.yul\":3611:3740   */\n    tag_118:\n        /* \"#utility.yul\":3645:3651   */\n      0x00\n        /* \"#utility.yul\":3672:3692   */\n      tag_173\n      tag_174\n      jump\t// in\n    tag_173:\n        /* \"#utility.yul\":3662:3692   */\n      swap1\n      pop\n        /* \"#utility.yul\":3701:3734   */\n      tag_175\n        /* \"#utility.yul\":3729:3733   */\n      dup3\n        /* \"#utility.yul\":3721:3727   */\n      dup3\n        /* \"#utility.yul\":3701:3734   */\n      tag_176\n      jump\t// in\n    tag_175:\n        /* \"#utility.yul\":3611:3740   */\n      swap2\n      swap1\n      pop\n      jump\t// out\n        /* \"#utility.yul\":3746:3821   */\n    tag_174:\n        /* \"#utility.yul\":3779:3785   */\n      0x00\n        /* \"#utility.yul\":3812:3814   */\n      0x40\n        /* \"#utility.yul\":3806:3815   */\n      mload\n        /* \"#utility.yul\":3796:3815   */\n      swap1\n      pop\n        /* \"#utility.yul\":3746:3821   */\n      swap1\n      jump\t// out\n        /* \"#utility.yul\":3827:4135   */\n    tag_117:\n        /* \"#utility.yul\":3889:3893   */\n      0x00\n        /* \"#utility.yul\":3979:3997   */\n      0xffffffffffffffff\n        /* \"#utility.yul\":3971:3977   */\n      dup3\n        /* \"#utility.yul\":3968:3998   */\n      gt\n        /* \"#utility.yul\":3965:4021   */\n      iszero\n      tag_179\n      jumpi\n        /* \"#utility.yul\":4001:4019   */\n      tag_180\n      tag_181\n      jump\t// in\n    tag_180:\n        /* \"#utility.yul\":3965:4021   */\n    tag_179:\n        /* \"#utility.yul\":4039:4068   */\n      tag_182\n        /* \"#utility.yul\":4061:4067   */\n      dup3\n        /* \"#utility.yul\":4039:4068   */\n      tag_167\n      jump\t// in\n    tag_182:\n        /* \"#utility.yul\":4031:4068   */\n      swap1\n      pop\n        /* \"#utility.yul\":4123:4127   */\n      0x20\n        /* \"#utility.yul\":4117:4121   */\n      dup2\n        /* \"#utility.yul\":4113:4128   */\n      add\n        /* \"#utility.yul\":4105:4128   */\n      swap1\n      pop\n        /* \"#utility.yul\":3827:4135   */\n      swap2\n      swap1\n      pop\n      jump\t// out\n        /* \"#utility.yul\":4141:4240   */\n    tag_161:\n        /* \"#utility.yul\":4193:4199   */\n      0x00\n        /* \"#utility.yul\":4227:4232   */\n      dup2\n        /* \"#utility.yul\":4221:4233   */\n      mload\n        /* \"#utility.yul\":4211:4233   */\n      swap1\n      pop\n        /* \"#utility.yul\":4141:4240   */\n      swap2\n      swap1\n      pop\n      jump\t// out\n        /* \"#utility.yul\":4246:4415   */\n    tag_163:\n        /* \"#utility.yul\":4330:4341   */\n      0x00\n        /* \"#utility.yul\":4364:4370   */\n      dup3\n        /* \"#utility.yul\":4359:4362   */\n      dup3\n        /* \"#utility.yul\":4352:4371   */\n      mstore\n        /* \"#utility.yul\":4404:4408   */\n      0x20\n        /* \"#utility.yul\":4399:4402   */\n      dup3\n        /* \"#utility.yul\":4395:4409   */\n      add\n        /* \"#utility.yul\":4380:4409   */\n      swap1\n      pop\n        /* \"#utility.yul\":4246:4415   */\n      swap3\n      swap2\n      pop\n      pop\n      jump\t// out\n        /* \"#utility.yul\":4421:4497   */\n    tag_157:\n        /* \"#utility.yul\":4457:4464   */\n      0x00\n        /* \"#utility.yul\":4486:4491   */\n      dup2\n        /* \"#utility.yul\":4475:4491   */\n      swap1\n      pop\n        /* \"#utility.yul\":4421:4497   */\n      swap2\n      swap1\n      pop\n      jump\t// out\n        /* \"#utility.yul\":4503:4657   */\n    tag_123:\n        /* \"#utility.yul\":4587:4593   */\n      dup3\n        /* \"#utility.yul\":4582:4585   */\n      dup2\n        /* \"#utility.yul\":4577:4580   */\n      dup4\n        /* \"#utility.yul\":4564:4594   */\n      calldatacopy\n        /* \"#utility.yul\":4649:4650   */\n      0x00\n        /* \"#utility.yul\":4640:4646   */\n      dup4\n        /* \"#utility.yul\":4635:4638   */\n      dup4\n        /* \"#utility.yul\":4631:4647   */\n      add\n        /* \"#utility.yul\":4624:4651   */\n      mstore\n        /* \"#utility.yul\":4503:4657   */\n      pop\n      pop\n      pop\n      jump\t// out\n        /* \"#utility.yul\":4663:4970   */\n    tag_165:\n        /* \"#utility.yul\":4731:4732   */\n      0x00\n        /* \"#utility.yul\":4741:4854   */\n    tag_188:\n        /* \"#utility.yul\":4755:4761   */\n      dup4\n        /* \"#utility.yul\":4752:4753   */\n      dup2\n        /* \"#utility.yul\":4749:4762   */\n      lt\n        /* \"#utility.yul\":4741:4854   */\n      iszero\n      tag_190\n      jumpi\n        /* \"#utility.yul\":4840:4841   */\n      dup1\n        /* \"#utility.yul\":4835:4838   */\n      dup3\n        /* \"#utility.yul\":4831:4842   */\n      add\n        /* \"#utility.yul\":4825:4843   */\n      mload\n        /* \"#utility.yul\":4821:4822   */\n      dup2\n        /* \"#utility.yul\":4816:4819   */\n      dup5\n        /* \"#utility.yul\":4812:4823   */\n      add\n        /* \"#utility.yul\":4805:4844   */\n      mstore\n        /* \"#utility.yul\":4777:4779   */\n      0x20\n        /* \"#utility.yul\":4774:4775   */\n      dup2\n        /* \"#utility.yul\":4770:4780   */\n      add\n        /* \"#utility.yul\":4765:4780   */\n      swap1\n      pop\n        /* \"#utility.yul\":4741:4854   */\n      jump(tag_188)\n    tag_190:\n        /* \"#utility.yul\":4872:4878   */\n      dup4\n        /* \"#utility.yul\":4869:4870   */\n      dup2\n        /* \"#utility.yul\":4866:4879   */\n      gt\n        /* \"#utility.yul\":4863:4964   */\n      iszero\n      tag_191\n      jumpi\n        /* \"#utility.yul\":4952:4953   */\n      0x00\n        /* \"#utility.yul\":4943:4949   */\n      dup5\n        /* \"#utility.yul\":4938:4941   */\n      dup5\n        /* \"#utility.yul\":4934:4950   */\n      add\n        /* \"#utility.yul\":4927:4954   */\n      mstore\n        /* \"#utility.yul\":4863:4964   */\n    tag_191:\n        /* \"#utility.yul\":4712:4970   */\n      pop\n        /* \"#utility.yul\":4663:4970   */\n      pop\n      pop\n      pop\n      jump\t// out\n        /* \"#utility.yul\":4976:5296   */\n    tag_66:\n        /* \"#utility.yul\":5020:5026   */\n      0x00\n        /* \"#utility.yul\":5057:5058   */\n      0x02\n        /* \"#utility.yul\":5051:5055   */\n      dup3\n        /* \"#utility.yul\":5047:5059   */\n      div\n        /* \"#utility.yul\":5037:5059   */\n      swap1\n      pop\n        /* \"#utility.yul\":5104:5105   */\n      0x01\n        /* \"#utility.yul\":5098:5102   */\n      dup3\n        /* \"#utility.yul\":5094:5106   */\n      and\n        /* \"#utility.yul\":5125:5143   */\n      dup1\n        /* \"#utility.yul\":5115:5196   */\n      tag_193\n      jumpi\n        /* \"#utility.yul\":5181:5185   */\n      0x7f\n        /* \"#utility.yul\":5173:5179   */\n      dup3\n        /* \"#utility.yul\":5169:5186   */\n      and\n        /* \"#utility.yul\":5159:5186   */\n      swap2\n      pop\n        /* \"#utility.yul\":5115:5196   */\n    tag_193:\n        /* \"#utility.yul\":5243:5245   */\n      0x20\n        /* \"#utility.yul\":5235:5241   */\n      dup3\n        /* \"#utility.yul\":5232:5246   */\n      lt\n        /* \"#utility.yul\":5212:5230   */\n      dup2\n        /* \"#utility.yul\":5209:5247   */\n      eq\n        /* \"#utility.yul\":5206:5290   */\n      iszero\n      tag_194\n      jumpi\n        /* \"#utility.yul\":5262:5280   */\n      tag_195\n      tag_196\n      jump\t// in\n    tag_195:\n        /* \"#utility.yul\":5206:5290   */\n    tag_194:\n        /* \"#utility.yul\":5027:5296   */\n      pop\n        /* \"#utility.yul\":4976:5296   */\n      swap2\n      swap1\n      pop\n      jump\t// out\n        /* \"#utility.yul\":5302:5583   */\n    tag_176:\n        /* \"#utility.yul\":5385:5412   */\n      tag_198\n        /* \"#utility.yul\":5407:5411   */\n      dup3\n        /* \"#utility.yul\":5385:5412   */\n      tag_167\n      jump\t// in\n    tag_198:\n        /* \"#utility.yul\":5377:5383   */\n      dup2\n        /* \"#utility.yul\":5373:5413   */\n      add\n        /* \"#utility.yul\":5515:5521   */\n      dup2\n        /* \"#utility.yul\":5503:5513   */\n      dup2\n        /* \"#utility.yul\":5500:5522   */\n      lt\n        /* \"#utility.yul\":5479:5497   */\n      0xffffffffffffffff\n        /* \"#utility.yul\":5467:5477   */\n      dup3\n        /* \"#utility.yul\":5464:5498   */\n      gt\n        /* \"#utility.yul\":5461:5523   */\n      or\n        /* \"#utility.yul\":5458:5546   */\n      iszero\n      tag_199\n      jumpi\n        /* \"#utility.yul\":5526:5544   */\n      tag_200\n      tag_181\n      jump\t// in\n    tag_200:\n        /* \"#utility.yul\":5458:5546   */\n    tag_199:\n        /* \"#utility.yul\":5566:5576   */\n      dup1\n        /* \"#utility.yul\":5562:5564   */\n      0x40\n        /* \"#utility.yul\":5555:5577   */\n      mstore\n        /* \"#utility.yul\":5345:5583   */\n      pop\n        /* \"#utility.yul\":5302:5583   */\n      pop\n      pop\n      jump\t// out\n        /* \"#utility.yul\":5589:5769   */\n    tag_196:\n        /* \"#utility.yul\":5637:5714   */\n      0x4e487b7100000000000000000000000000000000000000000000000000000000\n        /* \"#utility.yul\":5634:5635   */\n      0x00\n        /* \"#utility.yul\":5627:5715   */\n      mstore\n        /* \"#utility.yul\":5734:5738   */\n      0x22\n        /* \"#utility.yul\":5731:5732   */\n      0x04\n        /* \"#utility.yul\":5724:5739   */\n      mstore\n        /* \"#utility.yul\":5758:5762   */\n      0x24\n        /* \"#utility.yul\":5755:5756   */\n      0x00\n        /* \"#utility.yul\":5748:5763   */\n      revert\n        /* \"#utility.yul\":5775:5955   */\n    tag_181:\n        /* \"#utility.yul\":5823:5900   */\n      0x4e487b7100000000000000000000000000000000000000000000000000000000\n        /* \"#utility.yul\":5820:5821   */\n      0x00\n        /* \"#utility.yul\":5813:5901   */\n      mstore\n        /* \"#utility.yul\":5920:5924   */\n      0x41\n        /* \"#utility.yul\":5917:5918   */\n      0x04\n        /* \"#utility.yul\":5910:5925   */\n      mstore\n        /* \"#utility.yul\":5944:5948   */\n      0x24\n        /* \"#utility.yul\":5941:5942   */\n      0x00\n        /* \"#utility.yul\":5934:5949   */\n      revert\n        /* \"#utility.yul\":5961:6078   */\n    tag_132:\n        /* \"#utility.yul\":6070:6071   */\n      0x00\n        /* \"#utility.yul\":6067:6068   */\n      dup1\n        /* \"#utility.yul\":6060:6072   */\n      revert\n        /* \"#utility.yul\":6084:6201   */\n    tag_121:\n        /* \"#utility.yul\":6193:6194   */\n      0x00\n        /* \"#utility.yul\":6190:6191   */\n      dup1\n        /* \"#utility.yul\":6183:6195   */\n      revert\n        /* \"#utility.yul\":6207:6324   */\n    tag_146:\n        /* \"#utility.yul\":6316:6317   */\n      0x00\n        /* \"#utility.yul\":6313:6314   */\n      dup1\n        /* \"#utility.yul\":6306:6318   */\n      revert\n        /* \"#utility.yul\":6330:6447   */\n    tag_137:\n        /* \"#utility.yul\":6439:6440   */\n      0x00\n        /* \"#utility.yul\":6436:6437   */\n      dup1\n        /* \"#utility.yul\":6429:6441   */\n      revert\n        /* \"#utility.yul\":6453:6555   */\n    tag_167:\n        /* \"#utility.yul\":6494:6500   */\n      0x00\n        /* \"#utility.yul\":6545:6547   */\n      0x1f\n        /* \"#utility.yul\":6541:6548   */\n      not\n        /* \"#utility.yul\":6536:6538   */\n      0x1f\n        /* \"#utility.yul\":6529:6534   */\n      dup4\n        /* \"#utility.yul\":6525:6539   */\n      add\n        /* \"#utility.yul\":6521:6549   */\n      and\n        /* \"#utility.yul\":6511:6549   */\n      swap1\n      pop\n        /* \"#utility.yul\":6453:6555   */\n      swap2\n      swap1\n      pop\n      jump\t// out\n        /* \"#utility.yul\":6561:6681   */\n    tag_127:\n        /* \"#utility.yul\":6633:6656   */\n      tag_209\n        /* \"#utility.yul\":6650:6655   */\n      dup2\n        /* \"#utility.yul\":6633:6656   */\n      tag_157\n      jump\t// in\n    tag_209:\n        /* \"#utility.yul\":6626:6631   */\n      dup2\n        /* \"#utility.yul\":6623:6657   */\n      eq\n        /* \"#utility.yul\":6613:6675   */\n      tag_210\n      jumpi\n        /* \"#utility.yul\":6671:6672   */\n      0x00\n        /* \"#utility.yul\":6668:6669   */\n      dup1\n        /* \"#utility.yul\":6661:6673   */\n      revert\n        /* \"#utility.yul\":6613:6675   */\n    tag_210:\n        /* \"#utility.yul\":6561:6681   */\n      pop\n      jump\t// out\n\n    auxdata: 0xa2646970667358221220f244bf1bc4ddfaac77df39641e227cc2479ea940c0dd7e89970ffd5751739b3964736f6c63430008070033\n}\n",
				"bytecode": {
					"linkReferences": {},
					"object": "60806040523480156200001157600080fd5b5060405162000e9a38038062000e9a8339818101604052810190620000379190620001fa565b856000819055508460018190555083600290805190602001906200005d929190620000b5565b50826003908051906020019062000076929190620000b5565b5081600490805190602001906200008f929190620000b5565b508060059080519060200190620000a8929190620000b5565b50505050505050620004ba565b828054620000c390620003b1565b90600052602060002090601f016020900481019282620000e7576000855562000133565b82601f106200010257805160ff191683800117855562000133565b8280016001018555821562000133579182015b828111156200013257825182559160200191906001019062000115565b5b50905062000142919062000146565b5090565b5b808211156200016157600081600090555060010162000147565b5090565b60006200017c62000176846200033b565b62000312565b9050828152602081018484840111156200019b576200019a62000480565b5b620001a88482856200037b565b509392505050565b600081519050620001c181620004a0565b92915050565b600082601f830112620001df57620001de6200047b565b5b8151620001f184826020860162000165565b91505092915050565b60008060008060008060c087890312156200021a57620002196200048a565b5b60006200022a89828a01620001b0565b96505060206200023d89828a01620001b0565b955050604087015167ffffffffffffffff81111562000261576200026062000485565b5b6200026f89828a01620001c7565b945050606087015167ffffffffffffffff81111562000293576200029262000485565b5b620002a189828a01620001c7565b935050608087015167ffffffffffffffff811115620002c557620002c462000485565b5b620002d389828a01620001c7565b92505060a087015167ffffffffffffffff811115620002f757620002f662000485565b5b6200030589828a01620001c7565b9150509295509295509295565b60006200031e62000331565b90506200032c8282620003e7565b919050565b6000604051905090565b600067ffffffffffffffff8211156200035957620003586200044c565b5b62000364826200048f565b9050602081019050919050565b6000819050919050565b60005b838110156200039b5780820151818401526020810190506200037e565b83811115620003ab576000848401525b50505050565b60006002820490506001821680620003ca57607f821691505b60208210811415620003e157620003e06200041d565b5b50919050565b620003f2826200048f565b810181811067ffffffffffffffff821117156200041457620004136200044c565b5b80604052505050565b7f4e487b7100000000000000000000000000000000000000000000000000000000600052602260045260246000fd5b7f4e487b7100000000000000000000000000000000000000000000000000000000600052604160045260246000fd5b600080fd5b600080fd5b600080fd5b600080fd5b6000601f19601f8301169050919050565b620004ab8162000371565b8114620004b757600080fd5b50565b6109d080620004ca6000396000f3fe608060405234801561001057600080fd5b50600436106100cf5760003560e01c806354cc27391161008c5780636e97e4a8116100665780636e97e4a8146101da57806398f52bd7146101f6578063ad8f8d9514610212578063bd3e19d41461022e576100cf565b806354cc27391461018257806358a1bb32146101a05780636b2b1ab9146101bc576100cf565b8063077a2972146100d45780630a550ef3146100f25780632b843201146101105780632e25fa471461012e5780633c38ec091461014a57806340cfd63514610166575b600080fd5b6100dc61024c565b6040516100e991906107a2565b60405180910390f35b6100fa610256565b60405161010791906107a2565b60405180910390f35b61011861025f565b60405161012591906107bd565b60405180910390f35b61014860048036038101906101439190610711565b6102f1565b005b610164600480360381019061015f9190610675565b61030b565b005b610180600480360381019061017b91906106a2565b610315565b005b61018a61033f565b60405161019791906107bd565b60405180910390f35b6101ba60048036038101906101b59190610711565b6103d1565b005b6101c46103eb565b6040516101d191906107bd565b60405180910390f35b6101f460048036038101906101ef9190610711565b61047d565b005b610210600480360381019061020b9190610711565b610497565b005b61022c60048036038101906102279190610675565b6104b1565b005b6102366104bb565b60405161024391906107bd565b60405180910390f35b6000600154905090565b60008054905090565b60606002805461026e9061089d565b80601f016020809104026020016040519081016040528092919081815260200182805461029a9061089d565b80156102e75780601f106102bc576101008083540402835291602001916102e7565b820191906000526020600020905b8154815290600101906020018083116102ca57829003601f168201915b5050505050905090565b806005908051906020019061030792919061054d565b5050565b8060008190555050565b8260008190555081600181905550806002908051906020019061033992919061054d565b50505050565b60606003805461034e9061089d565b80601f016020809104026020016040519081016040528092919081815260200182805461037a9061089d565b80156103c75780601f1061039c576101008083540402835291602001916103c7565b820191906000526020600020905b8154815290600101906020018083116103aa57829003601f168201915b5050505050905090565b80600390805190602001906103e792919061054d565b5050565b6060600580546103fa9061089d565b80601f01602080910402602001604051908101604052809291908181526020018280546104269061089d565b80156104735780601f1061044857610100808354040283529160200191610473565b820191906000526020600020905b81548152906001019060200180831161045657829003601f168201915b5050505050905090565b806004908051906020019061049392919061054d565b5050565b80600290805190602001906104ad92919061054d565b5050565b8060018190555050565b6060600480546104ca9061089d565b80601f01602080910402602001604051908101604052809291908181526020018280546104f69061089d565b80156105435780601f1061051857610100808354040283529160200191610543565b820191906000526020600020905b81548152906001019060200180831161052657829003601f168201915b5050505050905090565b8280546105599061089d565b90600052602060002090601f01602090048101928261057b57600085556105c2565b82601f1061059457805160ff19168380011785556105c2565b828001600101855582156105c2579182015b828111156105c15782518255916020019190600101906105a6565b5b5090506105cf91906105d3565b5090565b5b808211156105ec5760008160009055506001016105d4565b5090565b60006106036105fe84610804565b6107df565b90508281526020810184848401111561061f5761061e610963565b5b61062a84828561085b565b509392505050565b60008135905061064181610983565b92915050565b600082601f83011261065c5761065b61095e565b5b813561066c8482602086016105f0565b91505092915050565b60006020828403121561068b5761068a61096d565b5b600061069984828501610632565b91505092915050565b6000806000606084860312156106bb576106ba61096d565b5b60006106c986828701610632565b93505060206106da86828701610632565b925050604084013567ffffffffffffffff8111156106fb576106fa610968565b5b61070786828701610647565b9150509250925092565b6000602082840312156107275761072661096d565b5b600082013567ffffffffffffffff81111561074557610744610968565b5b61075184828501610647565b91505092915050565b61076381610851565b82525050565b600061077482610835565b61077e8185610840565b935061078e81856020860161086a565b61079781610972565b840191505092915050565b60006020820190506107b7600083018461075a565b92915050565b600060208201905081810360008301526107d78184610769565b905092915050565b60006107e96107fa565b90506107f582826108cf565b919050565b6000604051905090565b600067ffffffffffffffff82111561081f5761081e61092f565b5b61082882610972565b9050602081019050919050565b600081519050919050565b600082825260208201905092915050565b6000819050919050565b82818337600083830152505050565b60005b8381101561088857808201518184015260208101905061086d565b83811115610897576000848401525b50505050565b600060028204905060018216806108b557607f821691505b602082108114156108c9576108c8610900565b5b50919050565b6108d882610972565b810181811067ffffffffffffffff821117156108f7576108f661092f565b5b80604052505050565b7f4e487b7100000000000000000000000000000000000000000000000000000000600052602260045260246000fd5b7f4e487b7100000000000000000000000000000000000000000000000000000000600052604160045260246000fd5b600080fd5b600080fd5b600080fd5b600080fd5b6000601f19601f8301169050919050565b61098c81610851565b811461099757600080fd5b5056fea2646970667358221220f244bf1bc4ddfaac77df39641e227cc2479ea940c0dd7e89970ffd5751739b3964736f6c63430008070033",
					"opcodes": "PUSH1 0x80 PUSH1 0x40 MSTORE CALLVALUE DUP1 ISZERO PUSH3 0x11 JUMPI PUSH1 0x0 DUP1 REVERT JUMPDEST POP PUSH1 0x40 MLOAD PUSH3 0xE9A CODESIZE SUB DUP1 PUSH3 0xE9A DUP4 CODECOPY DUP2 DUP2 ADD PUSH1 0x40 MSTORE DUP2 ADD SWAP1 PUSH3 0x37 SWAP2 SWAP1 PUSH3 0x1FA JUMP JUMPDEST DUP6 PUSH1 0x0 DUP2 SWAP1 SSTORE POP DUP5 PUSH1 0x1 DUP2 SWAP1 SSTORE POP DUP4 PUSH1 0x2 SWAP1 DUP1 MLOAD SWAP1 PUSH1 0x20 ADD SWAP1 PUSH3 0x5D SWAP3 SWAP2 SWAP1 PUSH3 0xB5 JUMP JUMPDEST POP DUP3 PUSH1 0x3 SWAP1 DUP1 MLOAD SWAP1 PUSH1 0x20 ADD SWAP1 PUSH3 0x76 SWAP3 SWAP2 SWAP1 PUSH3 0xB5 JUMP JUMPDEST POP DUP2 PUSH1 0x4 SWAP1 DUP1 MLOAD SWAP1 PUSH1 0x20 ADD SWAP1 PUSH3 0x8F SWAP3 SWAP2 SWAP1 PUSH3 0xB5 JUMP JUMPDEST POP DUP1 PUSH1 0x5 SWAP1 DUP1 MLOAD SWAP1 PUSH1 0x20 ADD SWAP1 PUSH3 0xA8 SWAP3 SWAP2 SWAP1 PUSH3 0xB5 JUMP JUMPDEST POP POP POP POP POP POP POP PUSH3 0x4BA JUMP JUMPDEST DUP3 DUP1 SLOAD PUSH3 0xC3 SWAP1 PUSH3 0x3B1 JUMP JUMPDEST SWAP1 PUSH1 0x0 MSTORE PUSH1 0x20 PUSH1 0x0 KECCAK256 SWAP1 PUSH1 0x1F ADD PUSH1 0x20 SWAP1 DIV DUP2 ADD SWAP3 DUP3 PUSH3 0xE7 JUMPI PUSH1 0x0 DUP6 SSTORE PUSH3 0x133 JUMP JUMPDEST DUP3 PUSH1 0x1F LT PUSH3 0x102 JUMPI DUP1 MLOAD PUSH1 0xFF NOT AND DUP4 DUP1 ADD OR DUP6 SSTORE PUSH3 0x133 JUMP JUMPDEST DUP3 DUP1 ADD PUSH1 0x1 ADD DUP6 SSTORE DUP3 ISZERO PUSH3 0x133 JUMPI SWAP2 DUP3 ADD JUMPDEST DUP3 DUP2 GT ISZERO PUSH3 0x132 JUMPI DUP3 MLOAD DUP3 SSTORE SWAP2 PUSH1 0x20 ADD SWAP2 SWAP1 PUSH1 0x1 ADD SWAP1 PUSH3 0x115 JUMP JUMPDEST JUMPDEST POP SWAP1 POP PUSH3 0x142 SWAP2 SWAP1 PUSH3 0x146 JUMP JUMPDEST POP SWAP1 JUMP JUMPDEST JUMPDEST DUP1 DUP3 GT ISZERO PUSH3 0x161 JUMPI PUSH1 0x0 DUP2 PUSH1 0x0 SWAP1 SSTORE POP PUSH1 0x1 ADD PUSH3 0x147 JUMP JUMPDEST POP SWAP1 JUMP JUMPDEST PUSH1 0x0 PUSH3 0x17C PUSH3 0x176 DUP5 PUSH3 0x33B JUMP JUMPDEST PUSH3 0x312 JUMP JUMPDEST SWAP1 POP DUP3 DUP2 MSTORE PUSH1 0x20 DUP2 ADD DUP5 DUP5 DUP5 ADD GT ISZERO PUSH3 0x19B JUMPI PUSH3 0x19A PUSH3 0x480 JUMP JUMPDEST JUMPDEST PUSH3 0x1A8 DUP5 DUP3 DUP6 PUSH3 0x37B JUMP JUMPDEST POP SWAP4 SWAP3 POP POP POP JUMP JUMPDEST PUSH1 0x0 DUP2 MLOAD SWAP1 POP PUSH3 0x1C1 DUP2 PUSH3 0x4A0 JUMP JUMPDEST SWAP3 SWAP2 POP POP JUMP JUMPDEST PUSH1 0x0 DUP3 PUSH1 0x1F DUP4 ADD SLT PUSH3 0x1DF JUMPI PUSH3 0x1DE PUSH3 0x47B JUMP JUMPDEST JUMPDEST DUP2 MLOAD PUSH3 0x1F1 DUP5 DUP3 PUSH1 0x20 DUP7 ADD PUSH3 0x165 JUMP JUMPDEST SWAP2 POP POP SWAP3 SWAP2 POP POP JUMP JUMPDEST PUSH1 0x0 DUP1 PUSH1 0x0 DUP1 PUSH1 0x0 DUP1 PUSH1 0xC0 DUP8 DUP10 SUB SLT ISZERO PUSH3 0x21A JUMPI PUSH3 0x219 PUSH3 0x48A JUMP JUMPDEST JUMPDEST PUSH1 0x0 PUSH3 0x22A DUP10 DUP3 DUP11 ADD PUSH3 0x1B0 JUMP JUMPDEST SWAP7 POP POP PUSH1 0x20 PUSH3 0x23D DUP10 DUP3 DUP11 ADD PUSH3 0x1B0 JUMP JUMPDEST SWAP6 POP POP PUSH1 0x40 DUP8 ADD MLOAD PUSH8 0xFFFFFFFFFFFFFFFF DUP2 GT ISZERO PUSH3 0x261 JUMPI PUSH3 0x260 PUSH3 0x485 JUMP JUMPDEST JUMPDEST PUSH3 0x26F DUP10 DUP3 DUP11 ADD PUSH3 0x1C7 JUMP JUMPDEST SWAP5 POP POP PUSH1 0x60 DUP8 ADD MLOAD PUSH8 0xFFFFFFFFFFFFFFFF DUP2 GT ISZERO PUSH3 0x293 JUMPI PUSH3 0x292 PUSH3 0x485 JUMP JUMPDEST JUMPDEST PUSH3 0x2A1 DUP10 DUP3 DUP11 ADD PUSH3 0x1C7 JUMP JUMPDEST SWAP4 POP POP PUSH1 0x80 DUP8 ADD MLOAD PUSH8 0xFFFFFFFFFFFFFFFF DUP2 GT ISZERO PUSH3 0x2C5 JUMPI PUSH3 0x2C4 PUSH3 0x485 JUMP JUMPDEST JUMPDEST PUSH3 0x2D3 DUP10 DUP3 DUP11 ADD PUSH3 0x1C7 JUMP JUMPDEST SWAP3 POP POP PUSH1 0xA0 DUP8 ADD MLOAD PUSH8 0xFFFFFFFFFFFFFFFF DUP2 GT ISZERO PUSH3 0x2F7 JUMPI PUSH3 0x2F6 PUSH3 0x485 JUMP JUMPDEST JUMPDEST PUSH3 0x305 DUP10 DUP3 DUP11 ADD PUSH3 0x1C7 JUMP JUMPDEST SWAP2 POP POP SWAP3 SWAP6 POP SWAP3 SWAP6 POP SWAP3 SWAP6 JUMP JUMPDEST PUSH1 0x0 PUSH3 0x31E PUSH3 0x331 JUMP JUMPDEST SWAP1 POP PUSH3 0x32C DUP3 DUP3 PUSH3 0x3E7 JUMP JUMPDEST SWAP2 SWAP1 POP JUMP JUMPDEST PUSH1 0x0 PUSH1 0x40 MLOAD SWAP1 POP SWAP1 JUMP JUMPDEST PUSH1 0x0 PUSH8 0xFFFFFFFFFFFFFFFF DUP3 GT ISZERO PUSH3 0x359 JUMPI PUSH3 0x358 PUSH3 0x44C JUMP JUMPDEST JUMPDEST PUSH3 0x364 DUP3 PUSH3 0x48F JUMP JUMPDEST SWAP1 POP PUSH1 0x20 DUP2 ADD SWAP1 POP SWAP2 SWAP1 POP JUMP JUMPDEST PUSH1 0x0 DUP2 SWAP1 POP SWAP2 SWAP1 POP JUMP JUMPDEST PUSH1 0x0 JUMPDEST DUP4 DUP2 LT ISZERO PUSH3 0x39B JUMPI DUP1 DUP3 ADD MLOAD DUP2 DUP5 ADD MSTORE PUSH1 0x20 DUP2 ADD SWAP1 POP PUSH3 0x37E JUMP JUMPDEST DUP4 DUP2 GT ISZERO PUSH3 0x3AB JUMPI PUSH1 0x0 DUP5 DUP5 ADD MSTORE JUMPDEST POP POP POP POP JUMP JUMPDEST PUSH1 0x0 PUSH1 0x2 DUP3 DIV SWAP1 POP PUSH1 0x1 DUP3 AND DUP1 PUSH3 0x3CA JUMPI PUSH1 0x7F DUP3 AND SWAP2 POP JUMPDEST PUSH1 0x20 DUP3 LT DUP2 EQ ISZERO PUSH3 0x3E1 JUMPI PUSH3 0x3E0 PUSH3 0x41D JUMP JUMPDEST JUMPDEST POP SWAP2 SWAP1 POP JUMP JUMPDEST PUSH3 0x3F2 DUP3 PUSH3 0x48F JUMP JUMPDEST DUP2 ADD DUP2 DUP2 LT PUSH8 0xFFFFFFFFFFFFFFFF DUP3 GT OR ISZERO PUSH3 0x414 JUMPI PUSH3 0x413 PUSH3 0x44C JUMP JUMPDEST JUMPDEST DUP1 PUSH1 0x40 MSTORE POP POP POP JUMP JUMPDEST PUSH32 0x4E487B7100000000000000000000000000000000000000000000000000000000 PUSH1 0x0 MSTORE PUSH1 0x22 PUSH1 0x4 MSTORE PUSH1 0x24 PUSH1 0x0 REVERT JUMPDEST PUSH32 0x4E487B7100000000000000000000000000000000000000000000000000000000 PUSH1 0x0 MSTORE PUSH1 0x41 PUSH1 0x4 MSTORE PUSH1 0x24 PUSH1 0x0 REVERT JUMPDEST PUSH1 0x0 DUP1 REVERT JUMPDEST PUSH1 0x0 DUP1 REVERT JUMPDEST PUSH1 0x0 DUP1 REVERT JUMPDEST PUSH1 0x0 DUP1 REVERT JUMPDEST PUSH1 0x0 PUSH1 0x1F NOT PUSH1 0x1F DUP4 ADD AND SWAP1 POP SWAP2 SWAP1 POP JUMP JUMPDEST PUSH3 0x4AB DUP2 PUSH3 0x371 JUMP JUMPDEST DUP2 EQ PUSH3 0x4B7 JUMPI PUSH1 0x0 DUP1 REVERT JUMPDEST POP JUMP JUMPDEST PUSH2 0x9D0 DUP1 PUSH3 0x4CA PUSH1 0x0 CODECOPY PUSH1 0x0 RETURN INVALID PUSH1 0x80 PUSH1 0x40 MSTORE CALLVALUE DUP1 ISZERO PUSH2 0x10 JUMPI PUSH1 0x0 DUP1 REVERT JUMPDEST POP PUSH1 0x4 CALLDATASIZE LT PUSH2 0xCF JUMPI PUSH1 0x0 CALLDATALOAD PUSH1 0xE0 SHR DUP1 PUSH4 0x54CC2739 GT PUSH2 0x8C JUMPI DUP1 PUSH4 0x6E97E4A8 GT PUSH2 0x66 JUMPI DUP1 PUSH4 0x6E97E4A8 EQ PUSH2 0x1DA JUMPI DUP1 PUSH4 0x98F52BD7 EQ PUSH2 0x1F6 JUMPI DUP1 PUSH4 0xAD8F8D95 EQ PUSH2 0x212 JUMPI DUP1 PUSH4 0xBD3E19D4 EQ PUSH2 0x22E JUMPI PUSH2 0xCF JUMP JUMPDEST DUP1 PUSH4 0x54CC2739 EQ PUSH2 0x182 JUMPI DUP1 PUSH4 0x58A1BB32 EQ PUSH2 0x1A0 JUMPI DUP1 PUSH4 0x6B2B1AB9 EQ PUSH2 0x1BC JUMPI PUSH2 0xCF JUMP JUMPDEST DUP1 PUSH4 0x77A2972 EQ PUSH2 0xD4 JUMPI DUP1 PUSH4 0xA550EF3 EQ PUSH2 0xF2 JUMPI DUP1 PUSH4 0x2B843201 EQ PUSH2 0x110 JUMPI DUP1 PUSH4 0x2E25FA47 EQ PUSH2 0x12E JUMPI DUP1 PUSH4 0x3C38EC09 EQ PUSH2 0x14A JUMPI DUP1 PUSH4 0x40CFD635 EQ PUSH2 0x166 JUMPI JUMPDEST PUSH1 0x0 DUP1 REVERT JUMPDEST PUSH2 0xDC PUSH2 0x24C JUMP JUMPDEST PUSH1 0x40 MLOAD PUSH2 0xE9 SWAP2 SWAP1 PUSH2 0x7A2 JUMP JUMPDEST PUSH1 0x40 MLOAD DUP1 SWAP2 SUB SWAP1 RETURN JUMPDEST PUSH2 0xFA PUSH2 0x256 JUMP JUMPDEST PUSH1 0x40 MLOAD PUSH2 0x107 SWAP2 SWAP1 PUSH2 0x7A2 JUMP JUMPDEST PUSH1 0x40 MLOAD DUP1 SWAP2 SUB SWAP1 RETURN JUMPDEST PUSH2 0x118 PUSH2 0x25F JUMP JUMPDEST PUSH1 0x40 MLOAD PUSH2 0x125 SWAP2 SWAP1 PUSH2 0x7BD JUMP JUMPDEST PUSH1 0x40 MLOAD DUP1 SWAP2 SUB SWAP1 RETURN JUMPDEST PUSH2 0x148 PUSH1 0x4 DUP1 CALLDATASIZE SUB DUP2 ADD SWAP1 PUSH2 0x143 SWAP2 SWAP1 PUSH2 0x711 JUMP JUMPDEST PUSH2 0x2F1 JUMP JUMPDEST STOP JUMPDEST PUSH2 0x164 PUSH1 0x4 DUP1 CALLDATASIZE SUB DUP2 ADD SWAP1 PUSH2 0x15F SWAP2 SWAP1 PUSH2 0x675 JUMP JUMPDEST PUSH2 0x30B JUMP JUMPDEST STOP JUMPDEST PUSH2 0x180 PUSH1 0x4 DUP1 CALLDATASIZE SUB DUP2 ADD SWAP1 PUSH2 0x17B SWAP2 SWAP1 PUSH2 0x6A2 JUMP JUMPDEST PUSH2 0x315 JUMP JUMPDEST STOP JUMPDEST PUSH2 0x18A PUSH2 0x33F JUMP JUMPDEST PUSH1 0x40 MLOAD PUSH2 0x197 SWAP2 SWAP1 PUSH2 0x7BD JUMP JUMPDEST PUSH1 0x40 MLOAD DUP1 SWAP2 SUB SWAP1 RETURN JUMPDEST PUSH2 0x1BA PUSH1 0x4 DUP1 CALLDATASIZE SUB DUP2 ADD SWAP1 PUSH2 0x1B5 SWAP2 SWAP1 PUSH2 0x711 JUMP JUMPDEST PUSH2 0x3D1 JUMP JUMPDEST STOP JUMPDEST PUSH2 0x1C4 PUSH2 0x3EB JUMP JUMPDEST PUSH1 0x40 MLOAD PUSH2 0x1D1 SWAP2 SWAP1 PUSH2 0x7BD JUMP JUMPDEST PUSH1 0x40 MLOAD DUP1 SWAP2 SUB SWAP1 RETURN JUMPDEST PUSH2 0x1F4 PUSH1 0x4 DUP1 CALLDATASIZE SUB DUP2 ADD SWAP1 PUSH2 0x1EF SWAP2 SWAP1 PUSH2 0x711 JUMP JUMPDEST PUSH2 0x47D JUMP JUMPDEST STOP JUMPDEST PUSH2 0x210 PUSH1 0x4 DUP1 CALLDATASIZE SUB DUP2 ADD SWAP1 PUSH2 0x20B SWAP2 SWAP1 PUSH2 0x711 JUMP JUMPDEST PUSH2 0x497 JUMP JUMPDEST STOP JUMPDEST PUSH2 0x22C PUSH1 0x4 DUP1 CALLDATASIZE SUB DUP2 ADD SWAP1 PUSH2 0x227 SWAP2 SWAP1 PUSH2 0x675 JUMP JUMPDEST PUSH2 0x4B1 JUMP JUMPDEST STOP JUMPDEST PUSH2 0x236 PUSH2 0x4BB JUMP JUMPDEST PUSH1 0x40 MLOAD PUSH2 0x243 SWAP2 SWAP1 PUSH2 0x7BD JUMP JUMPDEST PUSH1 0x40 MLOAD DUP1 SWAP2 SUB SWAP1 RETURN JUMPDEST PUSH1 0x0 PUSH1 0x1 SLOAD SWAP1 POP SWAP1 JUMP JUMPDEST PUSH1 0x0 DUP1 SLOAD SWAP1 POP SWAP1 JUMP JUMPDEST PUSH1 0x60 PUSH1 0x2 DUP1 SLOAD PUSH2 0x26E SWAP1 PUSH2 0x89D JUMP JUMPDEST DUP1 PUSH1 0x1F ADD PUSH1 0x20 DUP1 SWAP2 DIV MUL PUSH1 0x20 ADD PUSH1 0x40 MLOAD SWAP1 DUP2 ADD PUSH1 0x40 MSTORE DUP1 SWAP3 SWAP2 SWAP1 DUP2 DUP2 MSTORE PUSH1 0x20 ADD DUP3 DUP1 SLOAD PUSH2 0x29A SWAP1 PUSH2 0x89D JUMP JUMPDEST DUP1 ISZERO PUSH2 0x2E7 JUMPI DUP1 PUSH1 0x1F LT PUSH2 0x2BC JUMPI PUSH2 0x100 DUP1 DUP4 SLOAD DIV MUL DUP4 MSTORE SWAP2 PUSH1 0x20 ADD SWAP2 PUSH2 0x2E7 JUMP JUMPDEST DUP3 ADD SWAP2 SWAP1 PUSH1 0x0 MSTORE PUSH1 0x20 PUSH1 0x0 KECCAK256 SWAP1 JUMPDEST DUP2 SLOAD DUP2 MSTORE SWAP1 PUSH1 0x1 ADD SWAP1 PUSH1 0x20 ADD DUP1 DUP4 GT PUSH2 0x2CA JUMPI DUP3 SWAP1 SUB PUSH1 0x1F AND DUP3 ADD SWAP2 JUMPDEST POP POP POP POP POP SWAP1 POP SWAP1 JUMP JUMPDEST DUP1 PUSH1 0x5 SWAP1 DUP1 MLOAD SWAP1 PUSH1 0x20 ADD SWAP1 PUSH2 0x307 SWAP3 SWAP2 SWAP1 PUSH2 0x54D JUMP JUMPDEST POP POP JUMP JUMPDEST DUP1 PUSH1 0x0 DUP2 SWAP1 SSTORE POP POP JUMP JUMPDEST DUP3 PUSH1 0x0 DUP2 SWAP1 SSTORE POP DUP2 PUSH1 0x1 DUP2 SWAP1 SSTORE POP DUP1 PUSH1 0x2 SWAP1 DUP1 MLOAD SWAP1 PUSH1 0x20 ADD SWAP1 PUSH2 0x339 SWAP3 SWAP2 SWAP1 PUSH2 0x54D JUMP JUMPDEST POP POP POP POP JUMP JUMPDEST PUSH1 0x60 PUSH1 0x3 DUP1 SLOAD PUSH2 0x34E SWAP1 PUSH2 0x89D JUMP JUMPDEST DUP1 PUSH1 0x1F ADD PUSH1 0x20 DUP1 SWAP2 DIV MUL PUSH1 0x20 ADD PUSH1 0x40 MLOAD SWAP1 DUP2 ADD PUSH1 0x40 MSTORE DUP1 SWAP3 SWAP2 SWAP1 DUP2 DUP2 MSTORE PUSH1 0x20 ADD DUP3 DUP1 SLOAD PUSH2 0x37A SWAP1 PUSH2 0x89D JUMP JUMPDEST DUP1 ISZERO PUSH2 0x3C7 JUMPI DUP1 PUSH1 0x1F LT PUSH2 0x39C JUMPI PUSH2 0x100 DUP1 DUP4 SLOAD DIV MUL DUP4 MSTORE SWAP2 PUSH1 0x20 ADD SWAP2 PUSH2 0x3C7 JUMP JUMPDEST DUP3 ADD SWAP2 SWAP1 PUSH1 0x0 MSTORE PUSH1 0x20 PUSH1 0x0 KECCAK256 SWAP1 JUMPDEST DUP2 SLOAD DUP2 MSTORE SWAP1 PUSH1 0x1 ADD SWAP1 PUSH1 0x20 ADD DUP1 DUP4 GT PUSH2 0x3AA JUMPI DUP3 SWAP1 SUB PUSH1 0x1F AND DUP3 ADD SWAP2 JUMPDEST POP POP POP POP POP SWAP1 POP SWAP1 JUMP JUMPDEST DUP1 PUSH1 0x3 SWAP1 DUP1 MLOAD SWAP1 PUSH1 0x20 ADD SWAP1 PUSH2 0x3E7 SWAP3 SWAP2 SWAP1 PUSH2 0x54D JUMP JUMPDEST POP POP JUMP JUMPDEST PUSH1 0x60 PUSH1 0x5 DUP1 SLOAD PUSH2 0x3FA SWAP1 PUSH2 0x89D JUMP JUMPDEST DUP1 PUSH1 0x1F ADD PUSH1 0x20 DUP1 SWAP2 DIV MUL PUSH1 0x20 ADD PUSH1 0x40 MLOAD SWAP1 DUP2 ADD PUSH1 0x40 MSTORE DUP1 SWAP3 SWAP2 SWAP1 DUP2 DUP2 MSTORE PUSH1 0x20 ADD DUP3 DUP1 SLOAD PUSH2 0x426 SWAP1 PUSH2 0x89D JUMP JUMPDEST DUP1 ISZERO PUSH2 0x473 JUMPI DUP1 PUSH1 0x1F LT PUSH2 0x448 JUMPI PUSH2 0x100 DUP1 DUP4 SLOAD DIV MUL DUP4 MSTORE SWAP2 PUSH1 0x20 ADD SWAP2 PUSH2 0x473 JUMP JUMPDEST DUP3 ADD SWAP2 SWAP1 PUSH1 0x0 MSTORE PUSH1 0x20 PUSH1 0x0 KECCAK256 SWAP1 JUMPDEST DUP2 SLOAD DUP2 MSTORE SWAP1 PUSH1 0x1 ADD SWAP1 PUSH1 0x20 ADD DUP1 DUP4 GT PUSH2 0x456 JUMPI DUP3 SWAP1 SUB PUSH1 0x1F AND DUP3 ADD SWAP2 JUMPDEST POP POP POP POP POP SWAP1 POP SWAP1 JUMP JUMPDEST DUP1 PUSH1 0x4 SWAP1 DUP1 MLOAD SWAP1 PUSH1 0x20 ADD SWAP1 PUSH2 0x493 SWAP3 SWAP2 SWAP1 PUSH2 0x54D JUMP JUMPDEST POP POP JUMP JUMPDEST DUP1 PUSH1 0x2 SWAP1 DUP1 MLOAD SWAP1 PUSH1 0x20 ADD SWAP1 PUSH2 0x4AD SWAP3 SWAP2 SWAP1 PUSH2 0x54D JUMP JUMPDEST POP POP JUMP JUMPDEST DUP1 PUSH1 0x1 DUP2 SWAP1 SSTORE POP POP JUMP JUMPDEST PUSH1 0x60 PUSH1 0x4 DUP1 SLOAD PUSH2 0x4CA SWAP1 PUSH2 0x89D JUMP JUMPDEST DUP1 PUSH1 0x1F ADD PUSH1 0x20 DUP1 SWAP2 DIV MUL PUSH1 0x20 ADD PUSH1 0x40 MLOAD SWAP1 DUP2 ADD PUSH1 0x40 MSTORE DUP1 SWAP3 SWAP2 SWAP1 DUP2 DUP2 MSTORE PUSH1 0x20 ADD DUP3 DUP1 SLOAD PUSH2 0x4F6 SWAP1 PUSH2 0x89D JUMP JUMPDEST DUP1 ISZERO PUSH2 0x543 JUMPI DUP1 PUSH1 0x1F LT PUSH2 0x518 JUMPI PUSH2 0x100 DUP1 DUP4 SLOAD DIV MUL DUP4 MSTORE SWAP2 PUSH1 0x20 ADD SWAP2 PUSH2 0x543 JUMP JUMPDEST DUP3 ADD SWAP2 SWAP1 PUSH1 0x0 MSTORE PUSH1 0x20 PUSH1 0x0 KECCAK256 SWAP1 JUMPDEST DUP2 SLOAD DUP2 MSTORE SWAP1 PUSH1 0x1 ADD SWAP1 PUSH1 0x20 ADD DUP1 DUP4 GT PUSH2 0x526 JUMPI DUP3 SWAP1 SUB PUSH1 0x1F AND DUP3 ADD SWAP2 JUMPDEST POP POP POP POP POP SWAP1 POP SWAP1 JUMP JUMPDEST DUP3 DUP1 SLOAD PUSH2 0x559 SWAP1 PUSH2 0x89D JUMP JUMPDEST SWAP1 PUSH1 0x0 MSTORE PUSH1 0x20 PUSH1 0x0 KECCAK256 SWAP1 PUSH1 0x1F ADD PUSH1 0x20 SWAP1 DIV DUP2 ADD SWAP3 DUP3 PUSH2 0x57B JUMPI PUSH1 0x0 DUP6 SSTORE PUSH2 0x5C2 JUMP JUMPDEST DUP3 PUSH1 0x1F LT PUSH2 0x594 JUMPI DUP1 MLOAD PUSH1 0xFF NOT AND DUP4 DUP1 ADD OR DUP6 SSTORE PUSH2 0x5C2 JUMP JUMPDEST DUP3 DUP1 ADD PUSH1 0x1 ADD DUP6 SSTORE DUP3 ISZERO PUSH2 0x5C2 JUMPI SWAP2 DUP3 ADD JUMPDEST DUP3 DUP2 GT ISZERO PUSH2 0x5C1 JUMPI DUP3 MLOAD DUP3 SSTORE SWAP2 PUSH1 0x20 ADD SWAP2 SWAP1 PUSH1 0x1 ADD SWAP1 PUSH2 0x5A6 JUMP JUMPDEST JUMPDEST POP SWAP1 POP PUSH2 0x5CF SWAP2 SWAP1 PUSH2 0x5D3 JUMP JUMPDEST POP SWAP1 JUMP JUMPDEST JUMPDEST DUP1 DUP3 GT ISZERO PUSH2 0x5EC JUMPI PUSH1 0x0 DUP2 PUSH1 0x0 SWAP1 SSTORE POP PUSH1 0x1 ADD PUSH2 0x5D4 JUMP JUMPDEST POP SWAP1 JUMP JUMPDEST PUSH1 0x0 PUSH2 0x603 PUSH2 0x5FE DUP5 PUSH2 0x804 JUMP JUMPDEST PUSH2 0x7DF JUMP JUMPDEST SWAP1 POP DUP3 DUP2 MSTORE PUSH1 0x20 DUP2 ADD DUP5 DUP5 DUP5 ADD GT ISZERO PUSH2 0x61F JUMPI PUSH2 0x61E PUSH2 0x963 JUMP JUMPDEST JUMPDEST PUSH2 0x62A DUP5 DUP3 DUP6 PUSH2 0x85B JUMP JUMPDEST POP SWAP4 SWAP3 POP POP POP JUMP JUMPDEST PUSH1 0x0 DUP2 CALLDATALOAD SWAP1 POP PUSH2 0x641 DUP2 PUSH2 0x983 JUMP JUMPDEST SWAP3 SWAP2 POP POP JUMP JUMPDEST PUSH1 0x0 DUP3 PUSH1 0x1F DUP4 ADD SLT PUSH2 0x65C JUMPI PUSH2 0x65B PUSH2 0x95E JUMP JUMPDEST JUMPDEST DUP2 CALLDATALOAD PUSH2 0x66C DUP5 DUP3 PUSH1 0x20 DUP7 ADD PUSH2 0x5F0 JUMP JUMPDEST SWAP2 POP POP SWAP3 SWAP2 POP POP JUMP JUMPDEST PUSH1 0x0 PUSH1 0x20 DUP3 DUP5 SUB SLT ISZERO PUSH2 0x68B JUMPI PUSH2 0x68A PUSH2 0x96D JUMP JUMPDEST JUMPDEST PUSH1 0x0 PUSH2 0x699 DUP5 DUP3 DUP6 ADD PUSH2 0x632 JUMP JUMPDEST SWAP2 POP POP SWAP3 SWAP2 POP POP JUMP JUMPDEST PUSH1 0x0 DUP1 PUSH1 0x0 PUSH1 0x60 DUP5 DUP7 SUB SLT ISZERO PUSH2 0x6BB JUMPI PUSH2 0x6BA PUSH2 0x96D JUMP JUMPDEST JUMPDEST PUSH1 0x0 PUSH2 0x6C9 DUP7 DUP3 DUP8 ADD PUSH2 0x632 JUMP JUMPDEST SWAP4 POP POP PUSH1 0x20 PUSH2 0x6DA DUP7 DUP3 DUP8 ADD PUSH2 0x632 JUMP JUMPDEST SWAP3 POP POP PUSH1 0x40 DUP5 ADD CALLDATALOAD PUSH8 0xFFFFFFFFFFFFFFFF DUP2 GT ISZERO PUSH2 0x6FB JUMPI PUSH2 0x6FA PUSH2 0x968 JUMP JUMPDEST JUMPDEST PUSH2 0x707 DUP7 DUP3 DUP8 ADD PUSH2 0x647 JUMP JUMPDEST SWAP2 POP POP SWAP3 POP SWAP3 POP SWAP3 JUMP JUMPDEST PUSH1 0x0 PUSH1 0x20 DUP3 DUP5 SUB SLT ISZERO PUSH2 0x727 JUMPI PUSH2 0x726 PUSH2 0x96D JUMP JUMPDEST JUMPDEST PUSH1 0x0 DUP3 ADD CALLDATALOAD PUSH8 0xFFFFFFFFFFFFFFFF DUP2 GT ISZERO PUSH2 0x745 JUMPI PUSH2 0x744 PUSH2 0x968 JUMP JUMPDEST JUMPDEST PUSH2 0x751 DUP5 DUP3 DUP6 ADD PUSH2 0x647 JUMP JUMPDEST SWAP2 POP POP SWAP3 SWAP2 POP POP JUMP JUMPDEST PUSH2 0x763 DUP2 PUSH2 0x851 JUMP JUMPDEST DUP3 MSTORE POP POP JUMP JUMPDEST PUSH1 0x0 PUSH2 0x774 DUP3 PUSH2 0x835 JUMP JUMPDEST PUSH2 0x77E DUP2 DUP6 PUSH2 0x840 JUMP JUMPDEST SWAP4 POP PUSH2 0x78E DUP2 DUP6 PUSH1 0x20 DUP7 ADD PUSH2 0x86A JUMP JUMPDEST PUSH2 0x797 DUP2 PUSH2 0x972 JUMP JUMPDEST DUP5 ADD SWAP2 POP POP SWAP3 SWAP2 POP POP JUMP JUMPDEST PUSH1 0x0 PUSH1 0x20 DUP3 ADD SWAP1 POP PUSH2 0x7B7 PUSH1 0x0 DUP4 ADD DUP5 PUSH2 0x75A JUMP JUMPDEST SWAP3 SWAP2 POP POP JUMP JUMPDEST PUSH1 0x0 PUSH1 0x20 DUP3 ADD SWAP1 POP DUP2 DUP2 SUB PUSH1 0x0 DUP4 ADD MSTORE PUSH2 0x7D7 DUP2 DUP5 PUSH2 0x769 JUMP JUMPDEST SWAP1 POP SWAP3 SWAP2 POP POP JUMP JUMPDEST PUSH1 0x0 PUSH2 0x7E9 PUSH2 0x7FA JUMP JUMPDEST SWAP1 POP PUSH2 0x7F5 DUP3 DUP3 PUSH2 0x8CF JUMP JUMPDEST SWAP2 SWAP1 POP JUMP JUMPDEST PUSH1 0x0 PUSH1 0x40 MLOAD SWAP1 POP SWAP1 JUMP JUMPDEST PUSH1 0x0 PUSH8 0xFFFFFFFFFFFFFFFF DUP3 GT ISZERO PUSH2 0x81F JUMPI PUSH2 0x81E PUSH2 0x92F JUMP JUMPDEST JUMPDEST PUSH2 0x828 DUP3 PUSH2 0x972 JUMP JUMPDEST SWAP1 POP PUSH1 0x20 DUP2 ADD SWAP1 POP SWAP2 SWAP1 POP JUMP JUMPDEST PUSH1 0x0 DUP2 MLOAD SWAP1 POP SWAP2 SWAP1 POP JUMP JUMPDEST PUSH1 0x0 DUP3 DUP3 MSTORE PUSH1 0x20 DUP3 ADD SWAP1 POP SWAP3 SWAP2 POP POP JUMP JUMPDEST PUSH1 0x0 DUP2 SWAP1 POP SWAP2 SWAP1 POP JUMP JUMPDEST DUP3 DUP2 DUP4 CALLDATACOPY PUSH1 0x0 DUP4 DUP4 ADD MSTORE POP POP POP JUMP JUMPDEST PUSH1 0x0 JUMPDEST DUP4 DUP2 LT ISZERO PUSH2 0x888 JUMPI DUP1 DUP3 ADD MLOAD DUP2 DUP5 ADD MSTORE PUSH1 0x20 DUP2 ADD SWAP1 POP PUSH2 0x86D JUMP JUMPDEST DUP4 DUP2 GT ISZERO PUSH2 0x897 JUMPI PUSH1 0x0 DUP5 DUP5 ADD MSTORE JUMPDEST POP POP POP POP JUMP JUMPDEST PUSH1 0x0 PUSH1 0x2 DUP3 DIV SWAP1 POP PUSH1 0x1 DUP3 AND DUP1 PUSH2 0x8B5 JUMPI PUSH1 0x7F DUP3 AND SWAP2 POP JUMPDEST PUSH1 0x20 DUP3 LT DUP2 EQ ISZERO PUSH2 0x8C9 JUMPI PUSH2 0x8C8 PUSH2 0x900 JUMP JUMPDEST JUMPDEST POP SWAP2 SWAP1 POP JUMP JUMPDEST PUSH2 0x8D8 DUP3 PUSH2 0x972 JUMP JUMPDEST DUP2 ADD DUP2 DUP2 LT PUSH8 0xFFFFFFFFFFFFFFFF DUP3 GT OR ISZERO PUSH2 0x8F7 JUMPI PUSH2 0x8F6 PUSH2 0x92F JUMP JUMPDEST JUMPDEST DUP1 PUSH1 0x40 MSTORE POP POP POP JUMP JUMPDEST PUSH32 0x4E487B7100000000000000000000000000000000000000000000000000000000 PUSH1 0x0 MSTORE PUSH1 0x22 PUSH1 0x4 MSTORE PUSH1 0x24 PUSH1 0x0 REVERT JUMPDEST PUSH32 0x4E487B7100000000000000000000000000000000000000000000000000000000 PUSH1 0x0 MSTORE PUSH1 0x41 PUSH1 0x4 MSTORE PUSH1 0x24 PUSH1 0x0 REVERT JUMPDEST PUSH1 0x0 DUP1 REVERT JUMPDEST PUSH1 0x0 DUP1 REVERT JUMPDEST PUSH1 0x0 DUP1 REVERT JUMPDEST PUSH1 0x0 DUP1 REVERT JUMPDEST PUSH1 0x0 PUSH1 0x1F NOT PUSH1 0x1F DUP4 ADD AND SWAP1 POP SWAP2 SWAP1 POP JUMP JUMPDEST PUSH2 0x98C DUP2 PUSH2 0x851 JUMP JUMPDEST DUP2 EQ PUSH2 0x997 JUMPI PUSH1 0x0 DUP1 REVERT JUMPDEST POP JUMP INVALID LOG2 PUSH5 0x6970667358 0x22 SLT KECCAK256 CALLCODE DIFFICULTY 0xBF SHL 0xC4 0xDD STATICCALL 0xAC PUSH24 0xDF39641E227CC2479EA940C0DD7E89970FFD5751739B3964 PUSH20 0x6F6C634300080700330000000000000000000000 "
				},
				"gasEstimates": {
					"creation": {
						"codeDepositCost": "502400",
						"executionCost": "infinite",
						"totalCost": "infinite"
					},
					"external": {
						"getAppointmentDate()": "infinite",
						"getAppointmentType()": "infinite",
						"getCost()": "infinite",
						"getIDBovine()": "2460",
						"getIDVeterinary()": "2438",
						"getObservation()": "infinite",
						"setAppointmentDate(string)": "infinite",
						"setAppointmentType(string)": "infinite",
						"setCost(string)": "infinite",
						"setIDBovine(int256)": "22609",
						"setIDVeterinary(int256)": "22586",
						"setObservation(string)": "infinite",
						"updateAppointment(int256,int256,string)": "infinite"
					}
				},
				"methodIdentifiers": {
					"getAppointmentDate()": "2b843201",
					"getAppointmentType()": "54cc2739",
					"getCost()": "bd3e19d4",
					"getIDBovine()": "0a550ef3",
					"getIDVeterinary()": "077a2972",
					"getObservation()": "6b2b1ab9",
					"setAppointmentDate(string)": "98f52bd7",
					"setAppointmentType(string)": "58a1bb32",
					"setCost(string)": "6e97e4a8",
					"setIDBovine(int256)": "3c38ec09",
					"setIDVeterinary(int256)": "ad8f8d95",
					"setObservation(string)": "2e25fa47",
					"updateAppointment(int256,int256,string)": "40cfd635"
				}
			},
			"storageLayout": {
				"storage": [
					{
						"astId": 3,
						"contract": "contracts/Appointment.sol:Appointment",
						"label": "idBovine",
						"offset": 0,
						"slot": "0",
						"type": "t_int256"
					},
					{
						"astId": 5,
						"contract": "contracts/Appointment.sol:Appointment",
						"label": "idVeterinary",
						"offset": 0,
						"slot": "1",
						"type": "t_int256"
					},
					{
						"astId": 7,
						"contract": "contracts/Appointment.sol:Appointment",
						"label": "appointmentDate",
						"offset": 0,
						"slot": "2",
						"type": "t_string_storage"
					},
					{
						"astId": 9,
						"contract": "contracts/Appointment.sol:Appointment",
						"label": "appointmentType",
						"offset": 0,
						"slot": "3",
						"type": "t_string_storage"
					},
					{
						"astId": 11,
						"contract": "contracts/Appointment.sol:Appointment",
						"label": "cost",
						"offset": 0,
						"slot": "4",
						"type": "t_string_storage"
					},
					{
						"astId": 13,
						"contract": "contracts/Appointment.sol:Appointment",
						"label": "observation",
						"offset": 0,
						"slot": "5",
						"type": "t_string_storage"
					}
				],
				"types": {
					"t_int256": {
						"encoding": "inplace",
						"label": "int256",
						"numberOfBytes": "32"
					},
					"t_string_storage": {
						"encoding": "bytes",
						"label": "string",
						"numberOfBytes": "32"
					}
				}
			},
			"userdoc": {
				"kind": "user",
				"methods": {},
				"version": 1
			}
		}
	}
}