{
	"contracts/Appointment.sol": {
		"Appointment": {
			"abi": [
				{
					"inputs": [
						{
							"internalType": "int256",
							"name": "_idBovine",
							"type": "int256"
						},
						{
							"internalType": "int256",
							"name": "_idVeterinary",
							"type": "int256"
						},
						{
							"internalType": "string",
							"name": "_appointmentDate",
							"type": "string"
						},
						{
							"internalType": "string",
							"name": "_appointmentType",
							"type": "string"
						},
						{
							"internalType": "string",
							"name": "_cost",
							"type": "string"
						},
						{
							"internalType": "string",
							"name": "_observation",
							"type": "string"
						}
					],
					"stateMutability": "nonpayable",
					"type": "constructor"
				},
				{
					"inputs": [],
					"name": "getAppointmentDate",
					"outputs": [
						{
							"internalType": "string",
							"name": "",
							"type": "string"
						}
					],
					"stateMutability": "view",
					"type": "function"
				},
				{
					"inputs": [],
					"name": "getAppointmentType",
					"outputs": [
						{
							"internalType": "string",
							"name": "",
							"type": "string"
						}
					],
					"stateMutability": "view",
					"type": "function"
				},
				{
					"inputs": [],
					"name": "getCost",
					"outputs": [
						{
							"internalType": "string",
							"name": "",
							"type": "string"
						}
					],
					"stateMutability": "view",
					"type": "function"
				},
				{
					"inputs": [],
					"name": "getIDBovine",
					"outputs": [
						{
							"internalType": "int256",
							"name": "",
							"type": "int256"
						}
					],
					"stateMutability": "view",
					"type": "function"
				},
				{
					"inputs": [],
					"name": "getIDVeterinary",
					"outputs": [
						{
							"internalType": "int256",
							"name": "",
							"type": "int256"
						}
					],
					"stateMutability": "view",
					"type": "function"
				},
				{
					"inputs": [],
					"name": "getObservation",
					"outputs": [
						{
							"internalType": "string",
							"name": "",
							"type": "string"
						}
					],
					"stateMutability": "view",
					"type": "function"
				},
				{
					"inputs": [
						{
							"internalType": "string",
							"name": "_appointmentDate",
							"type": "string"
						}
					],
					"name": "setAppointmentDate",
					"outputs": [],
					"stateMutability": "nonpayable",
					"type": "function"
				},
				{
					"inputs": [
						{
							"internalType": "string",
							"name": "_appointmentType",
							"type": "string"
						}
					],
					"name": "setAppointmentType",
					"outputs": [],
					"stateMutability": "nonpayable",
					"type": "function"
				},
				{
					"inputs": [
						{
							"internalType": "string",
							"name": "_cost",
							"type": "string"
						}
					],
					"name": "setCost",
					"outputs": [],
					"stateMutability": "nonpayable",
					"type": "function"
				},
				{
					"inputs": [
						{
							"internalType": "int256",
							"name": "_idBovine",
							"type": "int256"
						}
					],
					"name": "setIDBovine",
					"outputs": [],
					"stateMutability": "nonpayable",
					"type": "function"
				},
				{
					"inputs": [
						{
							"internalType": "int256",
							"name": "_idVeterinary",
							"type": "int256"
						}
					],
					"name": "setIDVeterinary",
					"outputs": [],
					"stateMutability": "nonpayable",
					"type": "function"
				},
				{
					"inputs": [
						{
							"internalType": "string",
							"name": "_observation",
							"type": "string"
						}
					],
					"name": "setObservation",
					"outputs": [],
					"stateMutability": "nonpayable",
					"type": "function"
				},
				{
					"inputs": [
						{
							"internalType": "int256",
							"name": "_idBovine",
							"type": "int256"
						},
						{
							"internalType": "int256",
							"name": "_idVeterinary",
							"type": "int256"
						},
						{
							"internalType": "string",
							"name": "_appointmentDate",
							"type": "string"
						},
						{
							"internalType": "string",
							"name": "_appointmentType",
							"type": "string"
						},
						{
							"internalType": "string",
							"name": "_cost",
							"type": "string"
						},
						{
							"internalType": "string",
							"name": "_observation",
							"type": "string"
						}
					],
					"name": "updateAppointment",
					"outputs": [],
					"stateMutability": "nonpayable",
					"type": "function"
				}
			],
			"devdoc": {
				"kind": "dev",
				"methods": {},
				"version": 1
			},
			"evm": {
				"assembly": "    /* \"contracts/Appointment.sol\":71:2379  contract Appointment{\r... */\n  mstore(0x40, 0x80)\n    /* \"contracts/Appointment.sol\":253:664  constructor(int _idBovine,int _idVeterinary, string memory _appointmentDate, string memory _appointmentType, string memory _cost, \r... */\n  callvalue\n  dup1\n  iszero\n  tag_1\n  jumpi\n  0x00\n  dup1\n  revert\ntag_1:\n  pop\n  mload(0x40)\n  sub(codesize, bytecodeSize)\n  dup1\n  bytecodeSize\n  dup4\n  codecopy\n  dup2\n  dup2\n  add\n  0x40\n  mstore\n  dup2\n  add\n  swap1\n  tag_2\n  swap2\n  swap1\n  tag_3\n  jump\t// in\ntag_2:\n    /* \"contracts/Appointment.sol\":458:467  _idBovine */\n  dup6\n    /* \"contracts/Appointment.sol\":447:455  idBovine */\n  0x00\n    /* \"contracts/Appointment.sol\":447:467  idBovine = _idBovine */\n  dup2\n  swap1\n  sstore\n  pop\n    /* \"contracts/Appointment.sol\":493:506  _idVeterinary */\n  dup5\n    /* \"contracts/Appointment.sol\":478:490  idVeterinary */\n  0x01\n    /* \"contracts/Appointment.sol\":478:506  idVeterinary = _idVeterinary */\n  dup2\n  swap1\n  sstore\n  pop\n    /* \"contracts/Appointment.sol\":535:551  _appointmentDate */\n  dup4\n    /* \"contracts/Appointment.sol\":517:532  appointmentDate */\n  0x02\n    /* \"contracts/Appointment.sol\":517:551  appointmentDate = _appointmentDate */\n  swap1\n  dup1\n  mload\n  swap1\n  0x20\n  add\n  swap1\n  tag_6\n  swap3\n  swap2\n  swap1\n  tag_7\n  jump\t// in\ntag_6:\n  pop\n    /* \"contracts/Appointment.sol\":580:596  _appointmentType */\n  dup3\n    /* \"contracts/Appointment.sol\":562:577  appointmentType */\n  0x03\n    /* \"contracts/Appointment.sol\":562:596  appointmentType = _appointmentType */\n  swap1\n  dup1\n  mload\n  swap1\n  0x20\n  add\n  swap1\n  tag_8\n  swap3\n  swap2\n  swap1\n  tag_7\n  jump\t// in\ntag_8:\n  pop\n    /* \"contracts/Appointment.sol\":614:619  _cost */\n  dup2\n    /* \"contracts/Appointment.sol\":607:611  cost */\n  0x04\n    /* \"contracts/Appointment.sol\":607:619  cost = _cost */\n  swap1\n  dup1\n  mload\n  swap1\n  0x20\n  add\n  swap1\n  tag_9\n  swap3\n  swap2\n  swap1\n  tag_7\n  jump\t// in\ntag_9:\n  pop\n    /* \"contracts/Appointment.sol\":644:656  _observation */\n  dup1\n    /* \"contracts/Appointment.sol\":630:641  observation */\n  0x05\n    /* \"contracts/Appointment.sol\":630:656  observation = _observation */\n  swap1\n  dup1\n  mload\n  swap1\n  0x20\n  add\n  swap1\n  tag_10\n  swap3\n  swap2\n  swap1\n  tag_7\n  jump\t// in\ntag_10:\n  pop\n    /* \"contracts/Appointment.sol\":253:664  constructor(int _idBovine,int _idVeterinary, string memory _appointmentDate, string memory _appointmentType, string memory _cost, \r... */\n  pop\n  pop\n  pop\n  pop\n  pop\n  pop\n    /* \"contracts/Appointment.sol\":71:2379  contract Appointment{\r... */\n  jump(tag_11)\ntag_7:\n  dup3\n  dup1\n  sload\n  tag_12\n  swap1\n  tag_13\n  jump\t// in\ntag_12:\n  swap1\n  0x00\n  mstore\n  keccak256(0x00, 0x20)\n  swap1\n  0x1f\n  add\n  0x20\n  swap1\n  div\n  dup2\n  add\n  swap3\n  dup3\n  tag_15\n  jumpi\n  0x00\n  dup6\n  sstore\n  jump(tag_14)\ntag_15:\n  dup3\n  0x1f\n  lt\n  tag_16\n  jumpi\n  dup1\n  mload\n  not(0xff)\n  and\n  dup4\n  dup1\n  add\n  or\n  dup6\n  sstore\n  jump(tag_14)\ntag_16:\n  dup3\n  dup1\n  add\n  0x01\n  add\n  dup6\n  sstore\n  dup3\n  iszero\n  tag_14\n  jumpi\n  swap2\n  dup3\n  add\ntag_17:\n  dup3\n  dup2\n  gt\n  iszero\n  tag_18\n  jumpi\n  dup3\n  mload\n  dup3\n  sstore\n  swap2\n  0x20\n  add\n  swap2\n  swap1\n  0x01\n  add\n  swap1\n  jump(tag_17)\ntag_18:\ntag_14:\n  pop\n  swap1\n  pop\n  tag_19\n  swap2\n  swap1\n  tag_20\n  jump\t// in\ntag_19:\n  pop\n  swap1\n  jump\t// out\ntag_20:\ntag_21:\n  dup1\n  dup3\n  gt\n  iszero\n  tag_22\n  jumpi\n  0x00\n  dup2\n  0x00\n  swap1\n  sstore\n  pop\n  0x01\n  add\n  jump(tag_21)\ntag_22:\n  pop\n  swap1\n  jump\t// out\n    /* \"#utility.yul\":7:428   */\ntag_24:\n    /* \"#utility.yul\":96:101   */\n  0x00\n    /* \"#utility.yul\":121:187   */\n  tag_26\n    /* \"#utility.yul\":137:186   */\n  tag_27\n    /* \"#utility.yul\":179:185   */\n  dup5\n    /* \"#utility.yul\":137:186   */\n  tag_28\n  jump\t// in\ntag_27:\n    /* \"#utility.yul\":121:187   */\n  tag_29\n  jump\t// in\ntag_26:\n    /* \"#utility.yul\":112:187   */\n  swap1\n  pop\n    /* \"#utility.yul\":210:216   */\n  dup3\n    /* \"#utility.yul\":203:208   */\n  dup2\n    /* \"#utility.yul\":196:217   */\n  mstore\n    /* \"#utility.yul\":248:252   */\n  0x20\n    /* \"#utility.yul\":241:246   */\n  dup2\n    /* \"#utility.yul\":237:253   */\n  add\n    /* \"#utility.yul\":286:289   */\n  dup5\n    /* \"#utility.yul\":277:283   */\n  dup5\n    /* \"#utility.yul\":272:275   */\n  dup5\n    /* \"#utility.yul\":268:284   */\n  add\n    /* \"#utility.yul\":265:290   */\n  gt\n    /* \"#utility.yul\":262:374   */\n  iszero\n  tag_30\n  jumpi\n    /* \"#utility.yul\":293:372   */\n  tag_31\n  tag_32\n  jump\t// in\ntag_31:\n    /* \"#utility.yul\":262:374   */\ntag_30:\n    /* \"#utility.yul\":383:422   */\n  tag_33\n    /* \"#utility.yul\":415:421   */\n  dup5\n    /* \"#utility.yul\":410:413   */\n  dup3\n    /* \"#utility.yul\":405:408   */\n  dup6\n    /* \"#utility.yul\":383:422   */\n  tag_34\n  jump\t// in\ntag_33:\n    /* \"#utility.yul\":102:428   */\n  pop\n    /* \"#utility.yul\":7:428   */\n  swap4\n  swap3\n  pop\n  pop\n  pop\n  jump\t// out\n    /* \"#utility.yul\":434:575   */\ntag_35:\n    /* \"#utility.yul\":490:495   */\n  0x00\n    /* \"#utility.yul\":521:527   */\n  dup2\n    /* \"#utility.yul\":515:528   */\n  mload\n    /* \"#utility.yul\":506:528   */\n  swap1\n  pop\n    /* \"#utility.yul\":537:569   */\n  tag_37\n    /* \"#utility.yul\":563:568   */\n  dup2\n    /* \"#utility.yul\":537:569   */\n  tag_38\n  jump\t// in\ntag_37:\n    /* \"#utility.yul\":434:575   */\n  swap3\n  swap2\n  pop\n  pop\n  jump\t// out\n    /* \"#utility.yul\":595:950   */\ntag_39:\n    /* \"#utility.yul\":662:667   */\n  0x00\n    /* \"#utility.yul\":711:714   */\n  dup3\n    /* \"#utility.yul\":704:708   */\n  0x1f\n    /* \"#utility.yul\":696:702   */\n  dup4\n    /* \"#utility.yul\":692:709   */\n  add\n    /* \"#utility.yul\":688:715   */\n  slt\n    /* \"#utility.yul\":678:800   */\n  tag_41\n  jumpi\n    /* \"#utility.yul\":719:798   */\n  tag_42\n  tag_43\n  jump\t// in\ntag_42:\n    /* \"#utility.yul\":678:800   */\ntag_41:\n    /* \"#utility.yul\":829:835   */\n  dup2\n    /* \"#utility.yul\":823:836   */\n  mload\n    /* \"#utility.yul\":854:944   */\n  tag_44\n    /* \"#utility.yul\":940:943   */\n  dup5\n    /* \"#utility.yul\":932:938   */\n  dup3\n    /* \"#utility.yul\":925:929   */\n  0x20\n    /* \"#utility.yul\":917:923   */\n  dup7\n    /* \"#utility.yul\":913:930   */\n  add\n    /* \"#utility.yul\":854:944   */\n  tag_24\n  jump\t// in\ntag_44:\n    /* \"#utility.yul\":845:944   */\n  swap2\n  pop\n    /* \"#utility.yul\":668:950   */\n  pop\n    /* \"#utility.yul\":595:950   */\n  swap3\n  swap2\n  pop\n  pop\n  jump\t// out\n    /* \"#utility.yul\":956:2778   */\ntag_3:\n    /* \"#utility.yul\":1109:1115   */\n  0x00\n    /* \"#utility.yul\":1117:1123   */\n  dup1\n    /* \"#utility.yul\":1125:1131   */\n  0x00\n    /* \"#utility.yul\":1133:1139   */\n  dup1\n    /* \"#utility.yul\":1141:1147   */\n  0x00\n    /* \"#utility.yul\":1149:1155   */\n  dup1\n    /* \"#utility.yul\":1198:1201   */\n  0xc0\n    /* \"#utility.yul\":1186:1195   */\n  dup8\n    /* \"#utility.yul\":1177:1184   */\n  dup10\n    /* \"#utility.yul\":1173:1196   */\n  sub\n    /* \"#utility.yul\":1169:1202   */\n  slt\n    /* \"#utility.yul\":1166:1286   */\n  iszero\n  tag_46\n  jumpi\n    /* \"#utility.yul\":1205:1284   */\n  tag_47\n  tag_48\n  jump\t// in\ntag_47:\n    /* \"#utility.yul\":1166:1286   */\ntag_46:\n    /* \"#utility.yul\":1325:1326   */\n  0x00\n    /* \"#utility.yul\":1350:1413   */\n  tag_49\n    /* \"#utility.yul\":1405:1412   */\n  dup10\n    /* \"#utility.yul\":1396:1402   */\n  dup3\n    /* \"#utility.yul\":1385:1394   */\n  dup11\n    /* \"#utility.yul\":1381:1403   */\n  add\n    /* \"#utility.yul\":1350:1413   */\n  tag_35\n  jump\t// in\ntag_49:\n    /* \"#utility.yul\":1340:1413   */\n  swap7\n  pop\n    /* \"#utility.yul\":1296:1423   */\n  pop\n    /* \"#utility.yul\":1462:1464   */\n  0x20\n    /* \"#utility.yul\":1488:1551   */\n  tag_50\n    /* \"#utility.yul\":1543:1550   */\n  dup10\n    /* \"#utility.yul\":1534:1540   */\n  dup3\n    /* \"#utility.yul\":1523:1532   */\n  dup11\n    /* \"#utility.yul\":1519:1541   */\n  add\n    /* \"#utility.yul\":1488:1551   */\n  tag_35\n  jump\t// in\ntag_50:\n    /* \"#utility.yul\":1478:1551   */\n  swap6\n  pop\n    /* \"#utility.yul\":1433:1561   */\n  pop\n    /* \"#utility.yul\":1621:1623   */\n  0x40\n    /* \"#utility.yul\":1610:1619   */\n  dup8\n    /* \"#utility.yul\":1606:1624   */\n  add\n    /* \"#utility.yul\":1600:1625   */\n  mload\n    /* \"#utility.yul\":1652:1670   */\n  0xffffffffffffffff\n    /* \"#utility.yul\":1644:1650   */\n  dup2\n    /* \"#utility.yul\":1641:1671   */\n  gt\n    /* \"#utility.yul\":1638:1755   */\n  iszero\n  tag_51\n  jumpi\n    /* \"#utility.yul\":1674:1753   */\n  tag_52\n  tag_53\n  jump\t// in\ntag_52:\n    /* \"#utility.yul\":1638:1755   */\ntag_51:\n    /* \"#utility.yul\":1779:1853   */\n  tag_54\n    /* \"#utility.yul\":1845:1852   */\n  dup10\n    /* \"#utility.yul\":1836:1842   */\n  dup3\n    /* \"#utility.yul\":1825:1834   */\n  dup11\n    /* \"#utility.yul\":1821:1843   */\n  add\n    /* \"#utility.yul\":1779:1853   */\n  tag_39\n  jump\t// in\ntag_54:\n    /* \"#utility.yul\":1769:1853   */\n  swap5\n  pop\n    /* \"#utility.yul\":1571:1863   */\n  pop\n    /* \"#utility.yul\":1923:1925   */\n  0x60\n    /* \"#utility.yul\":1912:1921   */\n  dup8\n    /* \"#utility.yul\":1908:1926   */\n  add\n    /* \"#utility.yul\":1902:1927   */\n  mload\n    /* \"#utility.yul\":1954:1972   */\n  0xffffffffffffffff\n    /* \"#utility.yul\":1946:1952   */\n  dup2\n    /* \"#utility.yul\":1943:1973   */\n  gt\n    /* \"#utility.yul\":1940:2057   */\n  iszero\n  tag_55\n  jumpi\n    /* \"#utility.yul\":1976:2055   */\n  tag_56\n  tag_53\n  jump\t// in\ntag_56:\n    /* \"#utility.yul\":1940:2057   */\ntag_55:\n    /* \"#utility.yul\":2081:2155   */\n  tag_57\n    /* \"#utility.yul\":2147:2154   */\n  dup10\n    /* \"#utility.yul\":2138:2144   */\n  dup3\n    /* \"#utility.yul\":2127:2136   */\n  dup11\n    /* \"#utility.yul\":2123:2145   */\n  add\n    /* \"#utility.yul\":2081:2155   */\n  tag_39\n  jump\t// in\ntag_57:\n    /* \"#utility.yul\":2071:2155   */\n  swap4\n  pop\n    /* \"#utility.yul\":1873:2165   */\n  pop\n    /* \"#utility.yul\":2225:2228   */\n  0x80\n    /* \"#utility.yul\":2214:2223   */\n  dup8\n    /* \"#utility.yul\":2210:2229   */\n  add\n    /* \"#utility.yul\":2204:2230   */\n  mload\n    /* \"#utility.yul\":2257:2275   */\n  0xffffffffffffffff\n    /* \"#utility.yul\":2249:2255   */\n  dup2\n    /* \"#utility.yul\":2246:2276   */\n  gt\n    /* \"#utility.yul\":2243:2360   */\n  iszero\n  tag_58\n  jumpi\n    /* \"#utility.yul\":2279:2358   */\n  tag_59\n  tag_53\n  jump\t// in\ntag_59:\n    /* \"#utility.yul\":2243:2360   */\ntag_58:\n    /* \"#utility.yul\":2384:2458   */\n  tag_60\n    /* \"#utility.yul\":2450:2457   */\n  dup10\n    /* \"#utility.yul\":2441:2447   */\n  dup3\n    /* \"#utility.yul\":2430:2439   */\n  dup11\n    /* \"#utility.yul\":2426:2448   */\n  add\n    /* \"#utility.yul\":2384:2458   */\n  tag_39\n  jump\t// in\ntag_60:\n    /* \"#utility.yul\":2374:2458   */\n  swap3\n  pop\n    /* \"#utility.yul\":2175:2468   */\n  pop\n    /* \"#utility.yul\":2528:2531   */\n  0xa0\n    /* \"#utility.yul\":2517:2526   */\n  dup8\n    /* \"#utility.yul\":2513:2532   */\n  add\n    /* \"#utility.yul\":2507:2533   */\n  mload\n    /* \"#utility.yul\":2560:2578   */\n  0xffffffffffffffff\n    /* \"#utility.yul\":2552:2558   */\n  dup2\n    /* \"#utility.yul\":2549:2579   */\n  gt\n    /* \"#utility.yul\":2546:2663   */\n  iszero\n  tag_61\n  jumpi\n    /* \"#utility.yul\":2582:2661   */\n  tag_62\n  tag_53\n  jump\t// in\ntag_62:\n    /* \"#utility.yul\":2546:2663   */\ntag_61:\n    /* \"#utility.yul\":2687:2761   */\n  tag_63\n    /* \"#utility.yul\":2753:2760   */\n  dup10\n    /* \"#utility.yul\":2744:2750   */\n  dup3\n    /* \"#utility.yul\":2733:2742   */\n  dup11\n    /* \"#utility.yul\":2729:2751   */\n  add\n    /* \"#utility.yul\":2687:2761   */\n  tag_39\n  jump\t// in\ntag_63:\n    /* \"#utility.yul\":2677:2761   */\n  swap2\n  pop\n    /* \"#utility.yul\":2478:2771   */\n  pop\n    /* \"#utility.yul\":956:2778   */\n  swap3\n  swap6\n  pop\n  swap3\n  swap6\n  pop\n  swap3\n  swap6\n  jump\t// out\n    /* \"#utility.yul\":2784:2913   */\ntag_29:\n    /* \"#utility.yul\":2818:2824   */\n  0x00\n    /* \"#utility.yul\":2845:2865   */\n  tag_65\n  tag_66\n  jump\t// in\ntag_65:\n    /* \"#utility.yul\":2835:2865   */\n  swap1\n  pop\n    /* \"#utility.yul\":2874:2907   */\n  tag_67\n    /* \"#utility.yul\":2902:2906   */\n  dup3\n    /* \"#utility.yul\":2894:2900   */\n  dup3\n    /* \"#utility.yul\":2874:2907   */\n  tag_68\n  jump\t// in\ntag_67:\n    /* \"#utility.yul\":2784:2913   */\n  swap2\n  swap1\n  pop\n  jump\t// out\n    /* \"#utility.yul\":2919:2994   */\ntag_66:\n    /* \"#utility.yul\":2952:2958   */\n  0x00\n    /* \"#utility.yul\":2985:2987   */\n  0x40\n    /* \"#utility.yul\":2979:2988   */\n  mload\n    /* \"#utility.yul\":2969:2988   */\n  swap1\n  pop\n    /* \"#utility.yul\":2919:2994   */\n  swap1\n  jump\t// out\n    /* \"#utility.yul\":3000:3308   */\ntag_28:\n    /* \"#utility.yul\":3062:3066   */\n  0x00\n    /* \"#utility.yul\":3152:3170   */\n  0xffffffffffffffff\n    /* \"#utility.yul\":3144:3150   */\n  dup3\n    /* \"#utility.yul\":3141:3171   */\n  gt\n    /* \"#utility.yul\":3138:3194   */\n  iszero\n  tag_71\n  jumpi\n    /* \"#utility.yul\":3174:3192   */\n  tag_72\n  tag_73\n  jump\t// in\ntag_72:\n    /* \"#utility.yul\":3138:3194   */\ntag_71:\n    /* \"#utility.yul\":3212:3241   */\n  tag_74\n    /* \"#utility.yul\":3234:3240   */\n  dup3\n    /* \"#utility.yul\":3212:3241   */\n  tag_75\n  jump\t// in\ntag_74:\n    /* \"#utility.yul\":3204:3241   */\n  swap1\n  pop\n    /* \"#utility.yul\":3296:3300   */\n  0x20\n    /* \"#utility.yul\":3290:3294   */\n  dup2\n    /* \"#utility.yul\":3286:3301   */\n  add\n    /* \"#utility.yul\":3278:3301   */\n  swap1\n  pop\n    /* \"#utility.yul\":3000:3308   */\n  swap2\n  swap1\n  pop\n  jump\t// out\n    /* \"#utility.yul\":3314:3390   */\ntag_76:\n    /* \"#utility.yul\":3350:3357   */\n  0x00\n    /* \"#utility.yul\":3379:3384   */\n  dup2\n    /* \"#utility.yul\":3368:3384   */\n  swap1\n  pop\n    /* \"#utility.yul\":3314:3390   */\n  swap2\n  swap1\n  pop\n  jump\t// out\n    /* \"#utility.yul\":3396:3703   */\ntag_34:\n    /* \"#utility.yul\":3464:3465   */\n  0x00\n    /* \"#utility.yul\":3474:3587   */\ntag_79:\n    /* \"#utility.yul\":3488:3494   */\n  dup4\n    /* \"#utility.yul\":3485:3486   */\n  dup2\n    /* \"#utility.yul\":3482:3495   */\n  lt\n    /* \"#utility.yul\":3474:3587   */\n  iszero\n  tag_81\n  jumpi\n    /* \"#utility.yul\":3573:3574   */\n  dup1\n    /* \"#utility.yul\":3568:3571   */\n  dup3\n    /* \"#utility.yul\":3564:3575   */\n  add\n    /* \"#utility.yul\":3558:3576   */\n  mload\n    /* \"#utility.yul\":3554:3555   */\n  dup2\n    /* \"#utility.yul\":3549:3552   */\n  dup5\n    /* \"#utility.yul\":3545:3556   */\n  add\n    /* \"#utility.yul\":3538:3577   */\n  mstore\n    /* \"#utility.yul\":3510:3512   */\n  0x20\n    /* \"#utility.yul\":3507:3508   */\n  dup2\n    /* \"#utility.yul\":3503:3513   */\n  add\n    /* \"#utility.yul\":3498:3513   */\n  swap1\n  pop\n    /* \"#utility.yul\":3474:3587   */\n  jump(tag_79)\ntag_81:\n    /* \"#utility.yul\":3605:3611   */\n  dup4\n    /* \"#utility.yul\":3602:3603   */\n  dup2\n    /* \"#utility.yul\":3599:3612   */\n  gt\n    /* \"#utility.yul\":3596:3697   */\n  iszero\n  tag_82\n  jumpi\n    /* \"#utility.yul\":3685:3686   */\n  0x00\n    /* \"#utility.yul\":3676:3682   */\n  dup5\n    /* \"#utility.yul\":3671:3674   */\n  dup5\n    /* \"#utility.yul\":3667:3683   */\n  add\n    /* \"#utility.yul\":3660:3687   */\n  mstore\n    /* \"#utility.yul\":3596:3697   */\ntag_82:\n    /* \"#utility.yul\":3445:3703   */\n  pop\n    /* \"#utility.yul\":3396:3703   */\n  pop\n  pop\n  pop\n  jump\t// out\n    /* \"#utility.yul\":3709:4029   */\ntag_13:\n    /* \"#utility.yul\":3753:3759   */\n  0x00\n    /* \"#utility.yul\":3790:3791   */\n  0x02\n    /* \"#utility.yul\":3784:3788   */\n  dup3\n    /* \"#utility.yul\":3780:3792   */\n  div\n    /* \"#utility.yul\":3770:3792   */\n  swap1\n  pop\n    /* \"#utility.yul\":3837:3838   */\n  0x01\n    /* \"#utility.yul\":3831:3835   */\n  dup3\n    /* \"#utility.yul\":3827:3839   */\n  and\n    /* \"#utility.yul\":3858:3876   */\n  dup1\n    /* \"#utility.yul\":3848:3929   */\n  tag_84\n  jumpi\n    /* \"#utility.yul\":3914:3918   */\n  0x7f\n    /* \"#utility.yul\":3906:3912   */\n  dup3\n    /* \"#utility.yul\":3902:3919   */\n  and\n    /* \"#utility.yul\":3892:3919   */\n  swap2\n  pop\n    /* \"#utility.yul\":3848:3929   */\ntag_84:\n    /* \"#utility.yul\":3976:3978   */\n  0x20\n    /* \"#utility.yul\":3968:3974   */\n  dup3\n    /* \"#utility.yul\":3965:3979   */\n  lt\n    /* \"#utility.yul\":3945:3963   */\n  dup2\n    /* \"#utility.yul\":3942:3980   */\n  eq\n    /* \"#utility.yul\":3939:4023   */\n  iszero\n  tag_85\n  jumpi\n    /* \"#utility.yul\":3995:4013   */\n  tag_86\n  tag_87\n  jump\t// in\ntag_86:\n    /* \"#utility.yul\":3939:4023   */\ntag_85:\n    /* \"#utility.yul\":3760:4029   */\n  pop\n    /* \"#utility.yul\":3709:4029   */\n  swap2\n  swap1\n  pop\n  jump\t// out\n    /* \"#utility.yul\":4035:4316   */\ntag_68:\n    /* \"#utility.yul\":4118:4145   */\n  tag_89\n    /* \"#utility.yul\":4140:4144   */\n  dup3\n    /* \"#utility.yul\":4118:4145   */\n  tag_75\n  jump\t// in\ntag_89:\n    /* \"#utility.yul\":4110:4116   */\n  dup2\n    /* \"#utility.yul\":4106:4146   */\n  add\n    /* \"#utility.yul\":4248:4254   */\n  dup2\n    /* \"#utility.yul\":4236:4246   */\n  dup2\n    /* \"#utility.yul\":4233:4255   */\n  lt\n    /* \"#utility.yul\":4212:4230   */\n  0xffffffffffffffff\n    /* \"#utility.yul\":4200:4210   */\n  dup3\n    /* \"#utility.yul\":4197:4231   */\n  gt\n    /* \"#utility.yul\":4194:4256   */\n  or\n    /* \"#utility.yul\":4191:4279   */\n  iszero\n  tag_90\n  jumpi\n    /* \"#utility.yul\":4259:4277   */\n  tag_91\n  tag_73\n  jump\t// in\ntag_91:\n    /* \"#utility.yul\":4191:4279   */\ntag_90:\n    /* \"#utility.yul\":4299:4309   */\n  dup1\n    /* \"#utility.yul\":4295:4297   */\n  0x40\n    /* \"#utility.yul\":4288:4310   */\n  mstore\n    /* \"#utility.yul\":4078:4316   */\n  pop\n    /* \"#utility.yul\":4035:4316   */\n  pop\n  pop\n  jump\t// out\n    /* \"#utility.yul\":4322:4502   */\ntag_87:\n    /* \"#utility.yul\":4370:4447   */\n  0x4e487b7100000000000000000000000000000000000000000000000000000000\n    /* \"#utility.yul\":4367:4368   */\n  0x00\n    /* \"#utility.yul\":4360:4448   */\n  mstore\n    /* \"#utility.yul\":4467:4471   */\n  0x22\n    /* \"#utility.yul\":4464:4465   */\n  0x04\n    /* \"#utility.yul\":4457:4472   */\n  mstore\n    /* \"#utility.yul\":4491:4495   */\n  0x24\n    /* \"#utility.yul\":4488:4489   */\n  0x00\n    /* \"#utility.yul\":4481:4496   */\n  revert\n    /* \"#utility.yul\":4508:4688   */\ntag_73:\n    /* \"#utility.yul\":4556:4633   */\n  0x4e487b7100000000000000000000000000000000000000000000000000000000\n    /* \"#utility.yul\":4553:4554   */\n  0x00\n    /* \"#utility.yul\":4546:4634   */\n  mstore\n    /* \"#utility.yul\":4653:4657   */\n  0x41\n    /* \"#utility.yul\":4650:4651   */\n  0x04\n    /* \"#utility.yul\":4643:4658   */\n  mstore\n    /* \"#utility.yul\":4677:4681   */\n  0x24\n    /* \"#utility.yul\":4674:4675   */\n  0x00\n    /* \"#utility.yul\":4667:4682   */\n  revert\n    /* \"#utility.yul\":4694:4811   */\ntag_43:\n    /* \"#utility.yul\":4803:4804   */\n  0x00\n    /* \"#utility.yul\":4800:4801   */\n  dup1\n    /* \"#utility.yul\":4793:4805   */\n  revert\n    /* \"#utility.yul\":4817:4934   */\ntag_32:\n    /* \"#utility.yul\":4926:4927   */\n  0x00\n    /* \"#utility.yul\":4923:4924   */\n  dup1\n    /* \"#utility.yul\":4916:4928   */\n  revert\n    /* \"#utility.yul\":4940:5057   */\ntag_53:\n    /* \"#utility.yul\":5049:5050   */\n  0x00\n    /* \"#utility.yul\":5046:5047   */\n  dup1\n    /* \"#utility.yul\":5039:5051   */\n  revert\n    /* \"#utility.yul\":5063:5180   */\ntag_48:\n    /* \"#utility.yul\":5172:5173   */\n  0x00\n    /* \"#utility.yul\":5169:5170   */\n  dup1\n    /* \"#utility.yul\":5162:5174   */\n  revert\n    /* \"#utility.yul\":5186:5288   */\ntag_75:\n    /* \"#utility.yul\":5227:5233   */\n  0x00\n    /* \"#utility.yul\":5278:5280   */\n  0x1f\n    /* \"#utility.yul\":5274:5281   */\n  not\n    /* \"#utility.yul\":5269:5271   */\n  0x1f\n    /* \"#utility.yul\":5262:5267   */\n  dup4\n    /* \"#utility.yul\":5258:5272   */\n  add\n    /* \"#utility.yul\":5254:5282   */\n  and\n    /* \"#utility.yul\":5244:5282   */\n  swap1\n  pop\n    /* \"#utility.yul\":5186:5288   */\n  swap2\n  swap1\n  pop\n  jump\t// out\n    /* \"#utility.yul\":5294:5414   */\ntag_38:\n    /* \"#utility.yul\":5366:5389   */\n  tag_100\n    /* \"#utility.yul\":5383:5388   */\n  dup2\n    /* \"#utility.yul\":5366:5389   */\n  tag_76\n  jump\t// in\ntag_100:\n    /* \"#utility.yul\":5359:5364   */\n  dup2\n    /* \"#utility.yul\":5356:5390   */\n  eq\n    /* \"#utility.yul\":5346:5408   */\n  tag_101\n  jumpi\n    /* \"#utility.yul\":5404:5405   */\n  0x00\n    /* \"#utility.yul\":5401:5402   */\n  dup1\n    /* \"#utility.yul\":5394:5406   */\n  revert\n    /* \"#utility.yul\":5346:5408   */\ntag_101:\n    /* \"#utility.yul\":5294:5414   */\n  pop\n  jump\t// out\n    /* \"contracts/Appointment.sol\":71:2379  contract Appointment{\r... */\ntag_11:\n  dataSize(sub_0)\n  dup1\n  dataOffset(sub_0)\n  0x00\n  codecopy\n  0x00\n  return\nstop\n\nsub_0: assembly {\n        /* \"contracts/Appointment.sol\":71:2379  contract Appointment{\r... */\n      mstore(0x40, 0x80)\n      callvalue\n      dup1\n      iszero\n      tag_1\n      jumpi\n      0x00\n      dup1\n      revert\n    tag_1:\n      pop\n      jumpi(tag_2, lt(calldatasize, 0x04))\n      shr(0xe0, calldataload(0x00))\n      dup1\n      0x54cc2739\n      gt\n      tag_16\n      jumpi\n      dup1\n      0x6e97e4a8\n      gt\n      tag_17\n      jumpi\n      dup1\n      0x6e97e4a8\n      eq\n      tag_12\n      jumpi\n      dup1\n      0x98f52bd7\n      eq\n      tag_13\n      jumpi\n      dup1\n      0xad8f8d95\n      eq\n      tag_14\n      jumpi\n      dup1\n      0xbd3e19d4\n      eq\n      tag_15\n      jumpi\n      jump(tag_2)\n    tag_17:\n      dup1\n      0x54cc2739\n      eq\n      tag_9\n      jumpi\n      dup1\n      0x58a1bb32\n      eq\n      tag_10\n      jumpi\n      dup1\n      0x6b2b1ab9\n      eq\n      tag_11\n      jumpi\n      jump(tag_2)\n    tag_16:\n      dup1\n      0x077a2972\n      eq\n      tag_3\n      jumpi\n      dup1\n      0x0a550ef3\n      eq\n      tag_4\n      jumpi\n      dup1\n      0x25d83277\n      eq\n      tag_5\n      jumpi\n      dup1\n      0x2b843201\n      eq\n      tag_6\n      jumpi\n      dup1\n      0x2e25fa47\n      eq\n      tag_7\n      jumpi\n      dup1\n      0x3c38ec09\n      eq\n      tag_8\n      jumpi\n    tag_2:\n      0x00\n      dup1\n      revert\n        /* \"contracts/Appointment.sol\":1401:1492  function getIDVeterinary() public view returns (int) {\r... */\n    tag_3:\n      tag_18\n      tag_19\n      jump\t// in\n    tag_18:\n      mload(0x40)\n      tag_20\n      swap2\n      swap1\n      tag_21\n      jump\t// in\n    tag_20:\n      mload(0x40)\n      dup1\n      swap2\n      sub\n      swap1\n      return\n        /* \"contracts/Appointment.sol\":1204:1287  function getIDBovine() public view returns (int) {\r... */\n    tag_4:\n      tag_22\n      tag_23\n      jump\t// in\n    tag_22:\n      mload(0x40)\n      tag_24\n      swap2\n      swap1\n      tag_21\n      jump\t// in\n    tag_24:\n      mload(0x40)\n      dup1\n      swap2\n      sub\n      swap1\n      return\n        /* \"contracts/Appointment.sol\":672:1106  function updateAppointment(int _idBovine,int _idVeterinary, string memory _appointmentDate, string memory _appointmentType, string memory _cost, \r... */\n    tag_5:\n      tag_25\n      0x04\n      dup1\n      calldatasize\n      sub\n      dup2\n      add\n      swap1\n      tag_26\n      swap2\n      swap1\n      tag_27\n      jump\t// in\n    tag_26:\n      tag_28\n      jump\t// in\n    tag_25:\n      stop\n        /* \"contracts/Appointment.sol\":1628:1735  function getAppointmentDate() public view returns (string memory) {\r... */\n    tag_6:\n      tag_29\n      tag_30\n      jump\t// in\n    tag_29:\n      mload(0x40)\n      tag_31\n      swap2\n      swap1\n      tag_32\n      jump\t// in\n    tag_31:\n      mload(0x40)\n      dup1\n      swap2\n      sub\n      swap1\n      return\n        /* \"contracts/Appointment.sol\":2165:2269  function setObservation(string memory _observation) public {\r... */\n    tag_7:\n      tag_33\n      0x04\n      dup1\n      calldatasize\n      sub\n      dup2\n      add\n      swap1\n      tag_34\n      swap2\n      swap1\n      tag_35\n      jump\t// in\n    tag_34:\n      tag_36\n      jump\t// in\n    tag_33:\n      stop\n        /* \"contracts/Appointment.sol\":1114:1196  function setIDBovine(int _idBovine) public {\r... */\n    tag_8:\n      tag_37\n      0x04\n      dup1\n      calldatasize\n      sub\n      dup2\n      add\n      swap1\n      tag_38\n      swap2\n      swap1\n      tag_39\n      jump\t// in\n    tag_38:\n      tag_40\n      jump\t// in\n    tag_37:\n      stop\n        /* \"contracts/Appointment.sol\":1873:1980  function getAppointmentType() public view returns (string memory) {\r... */\n    tag_9:\n      tag_41\n      tag_42\n      jump\t// in\n    tag_41:\n      mload(0x40)\n      tag_43\n      swap2\n      swap1\n      tag_32\n      jump\t// in\n    tag_43:\n      mload(0x40)\n      dup1\n      swap2\n      sub\n      swap1\n      return\n        /* \"contracts/Appointment.sol\":1745:1865  function setAppointmentType(string memory _appointmentType) public {\r... */\n    tag_10:\n      tag_44\n      0x04\n      dup1\n      calldatasize\n      sub\n      dup2\n      add\n      swap1\n      tag_45\n      swap2\n      swap1\n      tag_35\n      jump\t// in\n    tag_45:\n      tag_46\n      jump\t// in\n    tag_44:\n      stop\n        /* \"contracts/Appointment.sol\":2277:2376  function getObservation() public view returns (string memory) {\r... */\n    tag_11:\n      tag_47\n      tag_48\n      jump\t// in\n    tag_47:\n      mload(0x40)\n      tag_49\n      swap2\n      swap1\n      tag_32\n      jump\t// in\n    tag_49:\n      mload(0x40)\n      dup1\n      swap2\n      sub\n      swap1\n      return\n        /* \"contracts/Appointment.sol\":1988:2064  function setCost(string memory _cost) public {\r... */\n    tag_12:\n      tag_50\n      0x04\n      dup1\n      calldatasize\n      sub\n      dup2\n      add\n      swap1\n      tag_51\n      swap2\n      swap1\n      tag_35\n      jump\t// in\n    tag_51:\n      tag_52\n      jump\t// in\n    tag_50:\n      stop\n        /* \"contracts/Appointment.sol\":1500:1620  function setAppointmentDate(string memory _appointmentDate) public {\r... */\n    tag_13:\n      tag_53\n      0x04\n      dup1\n      calldatasize\n      sub\n      dup2\n      add\n      swap1\n      tag_54\n      swap2\n      swap1\n      tag_35\n      jump\t// in\n    tag_54:\n      tag_55\n      jump\t// in\n    tag_53:\n      stop\n        /* \"contracts/Appointment.sol\":1295:1393  function setIDVeterinary(int _idVeterinary) public {\r... */\n    tag_14:\n      tag_56\n      0x04\n      dup1\n      calldatasize\n      sub\n      dup2\n      add\n      swap1\n      tag_57\n      swap2\n      swap1\n      tag_39\n      jump\t// in\n    tag_57:\n      tag_58\n      jump\t// in\n    tag_56:\n      stop\n        /* \"contracts/Appointment.sol\":2072:2157  function getCost() public view returns (string memory) {\r... */\n    tag_15:\n      tag_59\n      tag_60\n      jump\t// in\n    tag_59:\n      mload(0x40)\n      tag_61\n      swap2\n      swap1\n      tag_32\n      jump\t// in\n    tag_61:\n      mload(0x40)\n      dup1\n      swap2\n      sub\n      swap1\n      return\n        /* \"contracts/Appointment.sol\":1401:1492  function getIDVeterinary() public view returns (int) {\r... */\n    tag_19:\n        /* \"contracts/Appointment.sol\":1449:1452  int */\n      0x00\n        /* \"contracts/Appointment.sol\":1472:1484  idVeterinary */\n      sload(0x01)\n        /* \"contracts/Appointment.sol\":1465:1484  return idVeterinary */\n      swap1\n      pop\n        /* \"contracts/Appointment.sol\":1401:1492  function getIDVeterinary() public view returns (int) {\r... */\n      swap1\n      jump\t// out\n        /* \"contracts/Appointment.sol\":1204:1287  function getIDBovine() public view returns (int) {\r... */\n    tag_23:\n        /* \"contracts/Appointment.sol\":1248:1251  int */\n      0x00\n        /* \"contracts/Appointment.sol\":1271:1279  idBovine */\n      dup1\n      sload\n        /* \"contracts/Appointment.sol\":1264:1279  return idBovine */\n      swap1\n      pop\n        /* \"contracts/Appointment.sol\":1204:1287  function getIDBovine() public view returns (int) {\r... */\n      swap1\n      jump\t// out\n        /* \"contracts/Appointment.sol\":672:1106  function updateAppointment(int _idBovine,int _idVeterinary, string memory _appointmentDate, string memory _appointmentType, string memory _cost, \r... */\n    tag_28:\n        /* \"contracts/Appointment.sol\":900:909  _idBovine */\n      dup6\n        /* \"contracts/Appointment.sol\":889:897  idBovine */\n      0x00\n        /* \"contracts/Appointment.sol\":889:909  idBovine = _idBovine */\n      dup2\n      swap1\n      sstore\n      pop\n        /* \"contracts/Appointment.sol\":935:948  _idVeterinary */\n      dup5\n        /* \"contracts/Appointment.sol\":920:932  idVeterinary */\n      0x01\n        /* \"contracts/Appointment.sol\":920:948  idVeterinary = _idVeterinary */\n      dup2\n      swap1\n      sstore\n      pop\n        /* \"contracts/Appointment.sol\":977:993  _appointmentDate */\n      dup4\n        /* \"contracts/Appointment.sol\":959:974  appointmentDate */\n      0x02\n        /* \"contracts/Appointment.sol\":959:993  appointmentDate = _appointmentDate */\n      swap1\n      dup1\n      mload\n      swap1\n      0x20\n      add\n      swap1\n      tag_65\n      swap3\n      swap2\n      swap1\n      tag_66\n      jump\t// in\n    tag_65:\n      pop\n        /* \"contracts/Appointment.sol\":1022:1038  _appointmentType */\n      dup3\n        /* \"contracts/Appointment.sol\":1004:1019  appointmentType */\n      0x03\n        /* \"contracts/Appointment.sol\":1004:1038  appointmentType = _appointmentType */\n      swap1\n      dup1\n      mload\n      swap1\n      0x20\n      add\n      swap1\n      tag_67\n      swap3\n      swap2\n      swap1\n      tag_66\n      jump\t// in\n    tag_67:\n      pop\n        /* \"contracts/Appointment.sol\":1056:1061  _cost */\n      dup2\n        /* \"contracts/Appointment.sol\":1049:1053  cost */\n      0x04\n        /* \"contracts/Appointment.sol\":1049:1061  cost = _cost */\n      swap1\n      dup1\n      mload\n      swap1\n      0x20\n      add\n      swap1\n      tag_68\n      swap3\n      swap2\n      swap1\n      tag_66\n      jump\t// in\n    tag_68:\n      pop\n        /* \"contracts/Appointment.sol\":1086:1098  _observation */\n      dup1\n        /* \"contracts/Appointment.sol\":1072:1083  observation */\n      0x05\n        /* \"contracts/Appointment.sol\":1072:1098  observation = _observation */\n      swap1\n      dup1\n      mload\n      swap1\n      0x20\n      add\n      swap1\n      tag_69\n      swap3\n      swap2\n      swap1\n      tag_66\n      jump\t// in\n    tag_69:\n      pop\n        /* \"contracts/Appointment.sol\":672:1106  function updateAppointment(int _idBovine,int _idVeterinary, string memory _appointmentDate, string memory _appointmentType, string memory _cost, \r... */\n      pop\n      pop\n      pop\n      pop\n      pop\n      pop\n      jump\t// out\n        /* \"contracts/Appointment.sol\":1628:1735  function getAppointmentDate() public view returns (string memory) {\r... */\n    tag_30:\n        /* \"contracts/Appointment.sol\":1679:1692  string memory */\n      0x60\n        /* \"contracts/Appointment.sol\":1712:1727  appointmentDate */\n      0x02\n        /* \"contracts/Appointment.sol\":1705:1727  return appointmentDate */\n      dup1\n      sload\n      tag_71\n      swap1\n      tag_72\n      jump\t// in\n    tag_71:\n      dup1\n      0x1f\n      add\n      0x20\n      dup1\n      swap2\n      div\n      mul\n      0x20\n      add\n      mload(0x40)\n      swap1\n      dup2\n      add\n      0x40\n      mstore\n      dup1\n      swap3\n      swap2\n      swap1\n      dup2\n      dup2\n      mstore\n      0x20\n      add\n      dup3\n      dup1\n      sload\n      tag_73\n      swap1\n      tag_72\n      jump\t// in\n    tag_73:\n      dup1\n      iszero\n      tag_74\n      jumpi\n      dup1\n      0x1f\n      lt\n      tag_75\n      jumpi\n      0x0100\n      dup1\n      dup4\n      sload\n      div\n      mul\n      dup4\n      mstore\n      swap2\n      0x20\n      add\n      swap2\n      jump(tag_74)\n    tag_75:\n      dup3\n      add\n      swap2\n      swap1\n      0x00\n      mstore\n      keccak256(0x00, 0x20)\n      swap1\n    tag_76:\n      dup2\n      sload\n      dup2\n      mstore\n      swap1\n      0x01\n      add\n      swap1\n      0x20\n      add\n      dup1\n      dup4\n      gt\n      tag_76\n      jumpi\n      dup3\n      swap1\n      sub\n      0x1f\n      and\n      dup3\n      add\n      swap2\n    tag_74:\n      pop\n      pop\n      pop\n      pop\n      pop\n      swap1\n      pop\n        /* \"contracts/Appointment.sol\":1628:1735  function getAppointmentDate() public view returns (string memory) {\r... */\n      swap1\n      jump\t// out\n        /* \"contracts/Appointment.sol\":2165:2269  function setObservation(string memory _observation) public {\r... */\n    tag_36:\n        /* \"contracts/Appointment.sol\":2249:2261  _observation */\n      dup1\n        /* \"contracts/Appointment.sol\":2235:2246  observation */\n      0x05\n        /* \"contracts/Appointment.sol\":2235:2261  observation = _observation */\n      swap1\n      dup1\n      mload\n      swap1\n      0x20\n      add\n      swap1\n      tag_78\n      swap3\n      swap2\n      swap1\n      tag_66\n      jump\t// in\n    tag_78:\n      pop\n        /* \"contracts/Appointment.sol\":2165:2269  function setObservation(string memory _observation) public {\r... */\n      pop\n      jump\t// out\n        /* \"contracts/Appointment.sol\":1114:1196  function setIDBovine(int _idBovine) public {\r... */\n    tag_40:\n        /* \"contracts/Appointment.sol\":1179:1188  _idBovine */\n      dup1\n        /* \"contracts/Appointment.sol\":1168:1176  idBovine */\n      0x00\n        /* \"contracts/Appointment.sol\":1168:1188  idBovine = _idBovine */\n      dup2\n      swap1\n      sstore\n      pop\n        /* \"contracts/Appointment.sol\":1114:1196  function setIDBovine(int _idBovine) public {\r... */\n      pop\n      jump\t// out\n        /* \"contracts/Appointment.sol\":1873:1980  function getAppointmentType() public view returns (string memory) {\r... */\n    tag_42:\n        /* \"contracts/Appointment.sol\":1924:1937  string memory */\n      0x60\n        /* \"contracts/Appointment.sol\":1957:1972  appointmentType */\n      0x03\n        /* \"contracts/Appointment.sol\":1950:1972  return appointmentType */\n      dup1\n      sload\n      tag_81\n      swap1\n      tag_72\n      jump\t// in\n    tag_81:\n      dup1\n      0x1f\n      add\n      0x20\n      dup1\n      swap2\n      div\n      mul\n      0x20\n      add\n      mload(0x40)\n      swap1\n      dup2\n      add\n      0x40\n      mstore\n      dup1\n      swap3\n      swap2\n      swap1\n      dup2\n      dup2\n      mstore\n      0x20\n      add\n      dup3\n      dup1\n      sload\n      tag_82\n      swap1\n      tag_72\n      jump\t// in\n    tag_82:\n      dup1\n      iszero\n      tag_83\n      jumpi\n      dup1\n      0x1f\n      lt\n      tag_84\n      jumpi\n      0x0100\n      dup1\n      dup4\n      sload\n      div\n      mul\n      dup4\n      mstore\n      swap2\n      0x20\n      add\n      swap2\n      jump(tag_83)\n    tag_84:\n      dup3\n      add\n      swap2\n      swap1\n      0x00\n      mstore\n      keccak256(0x00, 0x20)\n      swap1\n    tag_85:\n      dup2\n      sload\n      dup2\n      mstore\n      swap1\n      0x01\n      add\n      swap1\n      0x20\n      add\n      dup1\n      dup4\n      gt\n      tag_85\n      jumpi\n      dup3\n      swap1\n      sub\n      0x1f\n      and\n      dup3\n      add\n      swap2\n    tag_83:\n      pop\n      pop\n      pop\n      pop\n      pop\n      swap1\n      pop\n        /* \"contracts/Appointment.sol\":1873:1980  function getAppointmentType() public view returns (string memory) {\r... */\n      swap1\n      jump\t// out\n        /* \"contracts/Appointment.sol\":1745:1865  function setAppointmentType(string memory _appointmentType) public {\r... */\n    tag_46:\n        /* \"contracts/Appointment.sol\":1841:1857  _appointmentType */\n      dup1\n        /* \"contracts/Appointment.sol\":1823:1838  appointmentType */\n      0x03\n        /* \"contracts/Appointment.sol\":1823:1857  appointmentType = _appointmentType */\n      swap1\n      dup1\n      mload\n      swap1\n      0x20\n      add\n      swap1\n      tag_87\n      swap3\n      swap2\n      swap1\n      tag_66\n      jump\t// in\n    tag_87:\n      pop\n        /* \"contracts/Appointment.sol\":1745:1865  function setAppointmentType(string memory _appointmentType) public {\r... */\n      pop\n      jump\t// out\n        /* \"contracts/Appointment.sol\":2277:2376  function getObservation() public view returns (string memory) {\r... */\n    tag_48:\n        /* \"contracts/Appointment.sol\":2324:2337  string memory */\n      0x60\n        /* \"contracts/Appointment.sol\":2357:2368  observation */\n      0x05\n        /* \"contracts/Appointment.sol\":2350:2368  return observation */\n      dup1\n      sload\n      tag_89\n      swap1\n      tag_72\n      jump\t// in\n    tag_89:\n      dup1\n      0x1f\n      add\n      0x20\n      dup1\n      swap2\n      div\n      mul\n      0x20\n      add\n      mload(0x40)\n      swap1\n      dup2\n      add\n      0x40\n      mstore\n      dup1\n      swap3\n      swap2\n      swap1\n      dup2\n      dup2\n      mstore\n      0x20\n      add\n      dup3\n      dup1\n      sload\n      tag_90\n      swap1\n      tag_72\n      jump\t// in\n    tag_90:\n      dup1\n      iszero\n      tag_91\n      jumpi\n      dup1\n      0x1f\n      lt\n      tag_92\n      jumpi\n      0x0100\n      dup1\n      dup4\n      sload\n      div\n      mul\n      dup4\n      mstore\n      swap2\n      0x20\n      add\n      swap2\n      jump(tag_91)\n    tag_92:\n      dup3\n      add\n      swap2\n      swap1\n      0x00\n      mstore\n      keccak256(0x00, 0x20)\n      swap1\n    tag_93:\n      dup2\n      sload\n      dup2\n      mstore\n      swap1\n      0x01\n      add\n      swap1\n      0x20\n      add\n      dup1\n      dup4\n      gt\n      tag_93\n      jumpi\n      dup3\n      swap1\n      sub\n      0x1f\n      and\n      dup3\n      add\n      swap2\n    tag_91:\n      pop\n      pop\n      pop\n      pop\n      pop\n      swap1\n      pop\n        /* \"contracts/Appointment.sol\":2277:2376  function getObservation() public view returns (string memory) {\r... */\n      swap1\n      jump\t// out\n        /* \"contracts/Appointment.sol\":1988:2064  function setCost(string memory _cost) public {\r... */\n    tag_52:\n        /* \"contracts/Appointment.sol\":2051:2056  _cost */\n      dup1\n        /* \"contracts/Appointment.sol\":2044:2048  cost */\n      0x04\n        /* \"contracts/Appointment.sol\":2044:2056  cost = _cost */\n      swap1\n      dup1\n      mload\n      swap1\n      0x20\n      add\n      swap1\n      tag_95\n      swap3\n      swap2\n      swap1\n      tag_66\n      jump\t// in\n    tag_95:\n      pop\n        /* \"contracts/Appointment.sol\":1988:2064  function setCost(string memory _cost) public {\r... */\n      pop\n      jump\t// out\n        /* \"contracts/Appointment.sol\":1500:1620  function setAppointmentDate(string memory _appointmentDate) public {\r... */\n    tag_55:\n        /* \"contracts/Appointment.sol\":1596:1612  _appointmentDate */\n      dup1\n        /* \"contracts/Appointment.sol\":1578:1593  appointmentDate */\n      0x02\n        /* \"contracts/Appointment.sol\":1578:1612  appointmentDate = _appointmentDate */\n      swap1\n      dup1\n      mload\n      swap1\n      0x20\n      add\n      swap1\n      tag_97\n      swap3\n      swap2\n      swap1\n      tag_66\n      jump\t// in\n    tag_97:\n      pop\n        /* \"contracts/Appointment.sol\":1500:1620  function setAppointmentDate(string memory _appointmentDate) public {\r... */\n      pop\n      jump\t// out\n        /* \"contracts/Appointment.sol\":1295:1393  function setIDVeterinary(int _idVeterinary) public {\r... */\n    tag_58:\n        /* \"contracts/Appointment.sol\":1372:1385  _idVeterinary */\n      dup1\n        /* \"contracts/Appointment.sol\":1357:1369  idVeterinary */\n      0x01\n        /* \"contracts/Appointment.sol\":1357:1385  idVeterinary = _idVeterinary */\n      dup2\n      swap1\n      sstore\n      pop\n        /* \"contracts/Appointment.sol\":1295:1393  function setIDVeterinary(int _idVeterinary) public {\r... */\n      pop\n      jump\t// out\n        /* \"contracts/Appointment.sol\":2072:2157  function getCost() public view returns (string memory) {\r... */\n    tag_60:\n        /* \"contracts/Appointment.sol\":2112:2125  string memory */\n      0x60\n        /* \"contracts/Appointment.sol\":2145:2149  cost */\n      0x04\n        /* \"contracts/Appointment.sol\":2138:2149  return cost */\n      dup1\n      sload\n      tag_100\n      swap1\n      tag_72\n      jump\t// in\n    tag_100:\n      dup1\n      0x1f\n      add\n      0x20\n      dup1\n      swap2\n      div\n      mul\n      0x20\n      add\n      mload(0x40)\n      swap1\n      dup2\n      add\n      0x40\n      mstore\n      dup1\n      swap3\n      swap2\n      swap1\n      dup2\n      dup2\n      mstore\n      0x20\n      add\n      dup3\n      dup1\n      sload\n      tag_101\n      swap1\n      tag_72\n      jump\t// in\n    tag_101:\n      dup1\n      iszero\n      tag_102\n      jumpi\n      dup1\n      0x1f\n      lt\n      tag_103\n      jumpi\n      0x0100\n      dup1\n      dup4\n      sload\n      div\n      mul\n      dup4\n      mstore\n      swap2\n      0x20\n      add\n      swap2\n      jump(tag_102)\n    tag_103:\n      dup3\n      add\n      swap2\n      swap1\n      0x00\n      mstore\n      keccak256(0x00, 0x20)\n      swap1\n    tag_104:\n      dup2\n      sload\n      dup2\n      mstore\n      swap1\n      0x01\n      add\n      swap1\n      0x20\n      add\n      dup1\n      dup4\n      gt\n      tag_104\n      jumpi\n      dup3\n      swap1\n      sub\n      0x1f\n      and\n      dup3\n      add\n      swap2\n    tag_102:\n      pop\n      pop\n      pop\n      pop\n      pop\n      swap1\n      pop\n        /* \"contracts/Appointment.sol\":2072:2157  function getCost() public view returns (string memory) {\r... */\n      swap1\n      jump\t// out\n    tag_66:\n      dup3\n      dup1\n      sload\n      tag_105\n      swap1\n      tag_72\n      jump\t// in\n    tag_105:\n      swap1\n      0x00\n      mstore\n      keccak256(0x00, 0x20)\n      swap1\n      0x1f\n      add\n      0x20\n      swap1\n      div\n      dup2\n      add\n      swap3\n      dup3\n      tag_107\n      jumpi\n      0x00\n      dup6\n      sstore\n      jump(tag_106)\n    tag_107:\n      dup3\n      0x1f\n      lt\n      tag_108\n      jumpi\n      dup1\n      mload\n      not(0xff)\n      and\n      dup4\n      dup1\n      add\n      or\n      dup6\n      sstore\n      jump(tag_106)\n    tag_108:\n      dup3\n      dup1\n      add\n      0x01\n      add\n      dup6\n      sstore\n      dup3\n      iszero\n      tag_106\n      jumpi\n      swap2\n      dup3\n      add\n    tag_109:\n      dup3\n      dup2\n      gt\n      iszero\n      tag_110\n      jumpi\n      dup3\n      mload\n      dup3\n      sstore\n      swap2\n      0x20\n      add\n      swap2\n      swap1\n      0x01\n      add\n      swap1\n      jump(tag_109)\n    tag_110:\n    tag_106:\n      pop\n      swap1\n      pop\n      tag_111\n      swap2\n      swap1\n      tag_112\n      jump\t// in\n    tag_111:\n      pop\n      swap1\n      jump\t// out\n    tag_112:\n    tag_113:\n      dup1\n      dup3\n      gt\n      iszero\n      tag_114\n      jumpi\n      0x00\n      dup2\n      0x00\n      swap1\n      sstore\n      pop\n      0x01\n      add\n      jump(tag_113)\n    tag_114:\n      pop\n      swap1\n      jump\t// out\n        /* \"#utility.yul\":7:419   */\n    tag_116:\n        /* \"#utility.yul\":85:90   */\n      0x00\n        /* \"#utility.yul\":110:176   */\n      tag_118\n        /* \"#utility.yul\":126:175   */\n      tag_119\n        /* \"#utility.yul\":168:174   */\n      dup5\n        /* \"#utility.yul\":126:175   */\n      tag_120\n      jump\t// in\n    tag_119:\n        /* \"#utility.yul\":110:176   */\n      tag_121\n      jump\t// in\n    tag_118:\n        /* \"#utility.yul\":101:176   */\n      swap1\n      pop\n        /* \"#utility.yul\":199:205   */\n      dup3\n        /* \"#utility.yul\":192:197   */\n      dup2\n        /* \"#utility.yul\":185:206   */\n      mstore\n        /* \"#utility.yul\":237:241   */\n      0x20\n        /* \"#utility.yul\":230:235   */\n      dup2\n        /* \"#utility.yul\":226:242   */\n      add\n        /* \"#utility.yul\":275:278   */\n      dup5\n        /* \"#utility.yul\":266:272   */\n      dup5\n        /* \"#utility.yul\":261:264   */\n      dup5\n        /* \"#utility.yul\":257:273   */\n      add\n        /* \"#utility.yul\":254:279   */\n      gt\n        /* \"#utility.yul\":251:363   */\n      iszero\n      tag_122\n      jumpi\n        /* \"#utility.yul\":282:361   */\n      tag_123\n      tag_124\n      jump\t// in\n    tag_123:\n        /* \"#utility.yul\":251:363   */\n    tag_122:\n        /* \"#utility.yul\":372:413   */\n      tag_125\n        /* \"#utility.yul\":406:412   */\n      dup5\n        /* \"#utility.yul\":401:404   */\n      dup3\n        /* \"#utility.yul\":396:399   */\n      dup6\n        /* \"#utility.yul\":372:413   */\n      tag_126\n      jump\t// in\n    tag_125:\n        /* \"#utility.yul\":91:419   */\n      pop\n        /* \"#utility.yul\":7:419   */\n      swap4\n      swap3\n      pop\n      pop\n      pop\n      jump\t// out\n        /* \"#utility.yul\":425:562   */\n    tag_127:\n        /* \"#utility.yul\":470:475   */\n      0x00\n        /* \"#utility.yul\":508:514   */\n      dup2\n        /* \"#utility.yul\":495:515   */\n      calldataload\n        /* \"#utility.yul\":486:515   */\n      swap1\n      pop\n        /* \"#utility.yul\":524:556   */\n      tag_129\n        /* \"#utility.yul\":550:555   */\n      dup2\n        /* \"#utility.yul\":524:556   */\n      tag_130\n      jump\t// in\n    tag_129:\n        /* \"#utility.yul\":425:562   */\n      swap3\n      swap2\n      pop\n      pop\n      jump\t// out\n        /* \"#utility.yul\":582:922   */\n    tag_131:\n        /* \"#utility.yul\":638:643   */\n      0x00\n        /* \"#utility.yul\":687:690   */\n      dup3\n        /* \"#utility.yul\":680:684   */\n      0x1f\n        /* \"#utility.yul\":672:678   */\n      dup4\n        /* \"#utility.yul\":668:685   */\n      add\n        /* \"#utility.yul\":664:691   */\n      slt\n        /* \"#utility.yul\":654:776   */\n      tag_133\n      jumpi\n        /* \"#utility.yul\":695:774   */\n      tag_134\n      tag_135\n      jump\t// in\n    tag_134:\n        /* \"#utility.yul\":654:776   */\n    tag_133:\n        /* \"#utility.yul\":812:818   */\n      dup2\n        /* \"#utility.yul\":799:819   */\n      calldataload\n        /* \"#utility.yul\":837:916   */\n      tag_136\n        /* \"#utility.yul\":912:915   */\n      dup5\n        /* \"#utility.yul\":904:910   */\n      dup3\n        /* \"#utility.yul\":897:901   */\n      0x20\n        /* \"#utility.yul\":889:895   */\n      dup7\n        /* \"#utility.yul\":885:902   */\n      add\n        /* \"#utility.yul\":837:916   */\n      tag_116\n      jump\t// in\n    tag_136:\n        /* \"#utility.yul\":828:916   */\n      swap2\n      pop\n        /* \"#utility.yul\":644:922   */\n      pop\n        /* \"#utility.yul\":582:922   */\n      swap3\n      swap2\n      pop\n      pop\n      jump\t// out\n        /* \"#utility.yul\":928:1255   */\n    tag_39:\n        /* \"#utility.yul\":986:992   */\n      0x00\n        /* \"#utility.yul\":1035:1037   */\n      0x20\n        /* \"#utility.yul\":1023:1032   */\n      dup3\n        /* \"#utility.yul\":1014:1021   */\n      dup5\n        /* \"#utility.yul\":1010:1033   */\n      sub\n        /* \"#utility.yul\":1006:1038   */\n      slt\n        /* \"#utility.yul\":1003:1122   */\n      iszero\n      tag_138\n      jumpi\n        /* \"#utility.yul\":1041:1120   */\n      tag_139\n      tag_140\n      jump\t// in\n    tag_139:\n        /* \"#utility.yul\":1003:1122   */\n    tag_138:\n        /* \"#utility.yul\":1161:1162   */\n      0x00\n        /* \"#utility.yul\":1186:1238   */\n      tag_141\n        /* \"#utility.yul\":1230:1237   */\n      dup5\n        /* \"#utility.yul\":1221:1227   */\n      dup3\n        /* \"#utility.yul\":1210:1219   */\n      dup6\n        /* \"#utility.yul\":1206:1228   */\n      add\n        /* \"#utility.yul\":1186:1238   */\n      tag_127\n      jump\t// in\n    tag_141:\n        /* \"#utility.yul\":1176:1238   */\n      swap2\n      pop\n        /* \"#utility.yul\":1132:1248   */\n      pop\n        /* \"#utility.yul\":928:1255   */\n      swap3\n      swap2\n      pop\n      pop\n      jump\t// out\n        /* \"#utility.yul\":1261:3034   */\n    tag_27:\n        /* \"#utility.yul\":1403:1409   */\n      0x00\n        /* \"#utility.yul\":1411:1417   */\n      dup1\n        /* \"#utility.yul\":1419:1425   */\n      0x00\n        /* \"#utility.yul\":1427:1433   */\n      dup1\n        /* \"#utility.yul\":1435:1441   */\n      0x00\n        /* \"#utility.yul\":1443:1449   */\n      dup1\n        /* \"#utility.yul\":1492:1495   */\n      0xc0\n        /* \"#utility.yul\":1480:1489   */\n      dup8\n        /* \"#utility.yul\":1471:1478   */\n      dup10\n        /* \"#utility.yul\":1467:1490   */\n      sub\n        /* \"#utility.yul\":1463:1496   */\n      slt\n        /* \"#utility.yul\":1460:1580   */\n      iszero\n      tag_143\n      jumpi\n        /* \"#utility.yul\":1499:1578   */\n      tag_144\n      tag_140\n      jump\t// in\n    tag_144:\n        /* \"#utility.yul\":1460:1580   */\n    tag_143:\n        /* \"#utility.yul\":1619:1620   */\n      0x00\n        /* \"#utility.yul\":1644:1696   */\n      tag_145\n        /* \"#utility.yul\":1688:1695   */\n      dup10\n        /* \"#utility.yul\":1679:1685   */\n      dup3\n        /* \"#utility.yul\":1668:1677   */\n      dup11\n        /* \"#utility.yul\":1664:1686   */\n      add\n        /* \"#utility.yul\":1644:1696   */\n      tag_127\n      jump\t// in\n    tag_145:\n        /* \"#utility.yul\":1634:1696   */\n      swap7\n      pop\n        /* \"#utility.yul\":1590:1706   */\n      pop\n        /* \"#utility.yul\":1745:1747   */\n      0x20\n        /* \"#utility.yul\":1771:1823   */\n      tag_146\n        /* \"#utility.yul\":1815:1822   */\n      dup10\n        /* \"#utility.yul\":1806:1812   */\n      dup3\n        /* \"#utility.yul\":1795:1804   */\n      dup11\n        /* \"#utility.yul\":1791:1813   */\n      add\n        /* \"#utility.yul\":1771:1823   */\n      tag_127\n      jump\t// in\n    tag_146:\n        /* \"#utility.yul\":1761:1823   */\n      swap6\n      pop\n        /* \"#utility.yul\":1716:1833   */\n      pop\n        /* \"#utility.yul\":1900:1902   */\n      0x40\n        /* \"#utility.yul\":1889:1898   */\n      dup8\n        /* \"#utility.yul\":1885:1903   */\n      add\n        /* \"#utility.yul\":1872:1904   */\n      calldataload\n        /* \"#utility.yul\":1931:1949   */\n      0xffffffffffffffff\n        /* \"#utility.yul\":1923:1929   */\n      dup2\n        /* \"#utility.yul\":1920:1950   */\n      gt\n        /* \"#utility.yul\":1917:2034   */\n      iszero\n      tag_147\n      jumpi\n        /* \"#utility.yul\":1953:2032   */\n      tag_148\n      tag_149\n      jump\t// in\n    tag_148:\n        /* \"#utility.yul\":1917:2034   */\n    tag_147:\n        /* \"#utility.yul\":2058:2121   */\n      tag_150\n        /* \"#utility.yul\":2113:2120   */\n      dup10\n        /* \"#utility.yul\":2104:2110   */\n      dup3\n        /* \"#utility.yul\":2093:2102   */\n      dup11\n        /* \"#utility.yul\":2089:2111   */\n      add\n        /* \"#utility.yul\":2058:2121   */\n      tag_131\n      jump\t// in\n    tag_150:\n        /* \"#utility.yul\":2048:2121   */\n      swap5\n      pop\n        /* \"#utility.yul\":1843:2131   */\n      pop\n        /* \"#utility.yul\":2198:2200   */\n      0x60\n        /* \"#utility.yul\":2187:2196   */\n      dup8\n        /* \"#utility.yul\":2183:2201   */\n      add\n        /* \"#utility.yul\":2170:2202   */\n      calldataload\n        /* \"#utility.yul\":2229:2247   */\n      0xffffffffffffffff\n        /* \"#utility.yul\":2221:2227   */\n      dup2\n        /* \"#utility.yul\":2218:2248   */\n      gt\n        /* \"#utility.yul\":2215:2332   */\n      iszero\n      tag_151\n      jumpi\n        /* \"#utility.yul\":2251:2330   */\n      tag_152\n      tag_149\n      jump\t// in\n    tag_152:\n        /* \"#utility.yul\":2215:2332   */\n    tag_151:\n        /* \"#utility.yul\":2356:2419   */\n      tag_153\n        /* \"#utility.yul\":2411:2418   */\n      dup10\n        /* \"#utility.yul\":2402:2408   */\n      dup3\n        /* \"#utility.yul\":2391:2400   */\n      dup11\n        /* \"#utility.yul\":2387:2409   */\n      add\n        /* \"#utility.yul\":2356:2419   */\n      tag_131\n      jump\t// in\n    tag_153:\n        /* \"#utility.yul\":2346:2419   */\n      swap4\n      pop\n        /* \"#utility.yul\":2141:2429   */\n      pop\n        /* \"#utility.yul\":2496:2499   */\n      0x80\n        /* \"#utility.yul\":2485:2494   */\n      dup8\n        /* \"#utility.yul\":2481:2500   */\n      add\n        /* \"#utility.yul\":2468:2501   */\n      calldataload\n        /* \"#utility.yul\":2528:2546   */\n      0xffffffffffffffff\n        /* \"#utility.yul\":2520:2526   */\n      dup2\n        /* \"#utility.yul\":2517:2547   */\n      gt\n        /* \"#utility.yul\":2514:2631   */\n      iszero\n      tag_154\n      jumpi\n        /* \"#utility.yul\":2550:2629   */\n      tag_155\n      tag_149\n      jump\t// in\n    tag_155:\n        /* \"#utility.yul\":2514:2631   */\n    tag_154:\n        /* \"#utility.yul\":2655:2718   */\n      tag_156\n        /* \"#utility.yul\":2710:2717   */\n      dup10\n        /* \"#utility.yul\":2701:2707   */\n      dup3\n        /* \"#utility.yul\":2690:2699   */\n      dup11\n        /* \"#utility.yul\":2686:2708   */\n      add\n        /* \"#utility.yul\":2655:2718   */\n      tag_131\n      jump\t// in\n    tag_156:\n        /* \"#utility.yul\":2645:2718   */\n      swap3\n      pop\n        /* \"#utility.yul\":2439:2728   */\n      pop\n        /* \"#utility.yul\":2795:2798   */\n      0xa0\n        /* \"#utility.yul\":2784:2793   */\n      dup8\n        /* \"#utility.yul\":2780:2799   */\n      add\n        /* \"#utility.yul\":2767:2800   */\n      calldataload\n        /* \"#utility.yul\":2827:2845   */\n      0xffffffffffffffff\n        /* \"#utility.yul\":2819:2825   */\n      dup2\n        /* \"#utility.yul\":2816:2846   */\n      gt\n        /* \"#utility.yul\":2813:2930   */\n      iszero\n      tag_157\n      jumpi\n        /* \"#utility.yul\":2849:2928   */\n      tag_158\n      tag_149\n      jump\t// in\n    tag_158:\n        /* \"#utility.yul\":2813:2930   */\n    tag_157:\n        /* \"#utility.yul\":2954:3017   */\n      tag_159\n        /* \"#utility.yul\":3009:3016   */\n      dup10\n        /* \"#utility.yul\":3000:3006   */\n      dup3\n        /* \"#utility.yul\":2989:2998   */\n      dup11\n        /* \"#utility.yul\":2985:3007   */\n      add\n        /* \"#utility.yul\":2954:3017   */\n      tag_131\n      jump\t// in\n    tag_159:\n        /* \"#utility.yul\":2944:3017   */\n      swap2\n      pop\n        /* \"#utility.yul\":2738:3027   */\n      pop\n        /* \"#utility.yul\":1261:3034   */\n      swap3\n      swap6\n      pop\n      swap3\n      swap6\n      pop\n      swap3\n      swap6\n      jump\t// out\n        /* \"#utility.yul\":3040:3549   */\n    tag_35:\n        /* \"#utility.yul\":3109:3115   */\n      0x00\n        /* \"#utility.yul\":3158:3160   */\n      0x20\n        /* \"#utility.yul\":3146:3155   */\n      dup3\n        /* \"#utility.yul\":3137:3144   */\n      dup5\n        /* \"#utility.yul\":3133:3156   */\n      sub\n        /* \"#utility.yul\":3129:3161   */\n      slt\n        /* \"#utility.yul\":3126:3245   */\n      iszero\n      tag_161\n      jumpi\n        /* \"#utility.yul\":3164:3243   */\n      tag_162\n      tag_140\n      jump\t// in\n    tag_162:\n        /* \"#utility.yul\":3126:3245   */\n    tag_161:\n        /* \"#utility.yul\":3312:3313   */\n      0x00\n        /* \"#utility.yul\":3301:3310   */\n      dup3\n        /* \"#utility.yul\":3297:3314   */\n      add\n        /* \"#utility.yul\":3284:3315   */\n      calldataload\n        /* \"#utility.yul\":3342:3360   */\n      0xffffffffffffffff\n        /* \"#utility.yul\":3334:3340   */\n      dup2\n        /* \"#utility.yul\":3331:3361   */\n      gt\n        /* \"#utility.yul\":3328:3445   */\n      iszero\n      tag_163\n      jumpi\n        /* \"#utility.yul\":3364:3443   */\n      tag_164\n      tag_149\n      jump\t// in\n    tag_164:\n        /* \"#utility.yul\":3328:3445   */\n    tag_163:\n        /* \"#utility.yul\":3469:3532   */\n      tag_165\n        /* \"#utility.yul\":3524:3531   */\n      dup5\n        /* \"#utility.yul\":3515:3521   */\n      dup3\n        /* \"#utility.yul\":3504:3513   */\n      dup6\n        /* \"#utility.yul\":3500:3522   */\n      add\n        /* \"#utility.yul\":3469:3532   */\n      tag_131\n      jump\t// in\n    tag_165:\n        /* \"#utility.yul\":3459:3532   */\n      swap2\n      pop\n        /* \"#utility.yul\":3255:3542   */\n      pop\n        /* \"#utility.yul\":3040:3549   */\n      swap3\n      swap2\n      pop\n      pop\n      jump\t// out\n        /* \"#utility.yul\":3555:3670   */\n    tag_166:\n        /* \"#utility.yul\":3640:3663   */\n      tag_168\n        /* \"#utility.yul\":3657:3662   */\n      dup2\n        /* \"#utility.yul\":3640:3663   */\n      tag_169\n      jump\t// in\n    tag_168:\n        /* \"#utility.yul\":3635:3638   */\n      dup3\n        /* \"#utility.yul\":3628:3664   */\n      mstore\n        /* \"#utility.yul\":3555:3670   */\n      pop\n      pop\n      jump\t// out\n        /* \"#utility.yul\":3676:4040   */\n    tag_170:\n        /* \"#utility.yul\":3764:3767   */\n      0x00\n        /* \"#utility.yul\":3792:3831   */\n      tag_172\n        /* \"#utility.yul\":3825:3830   */\n      dup3\n        /* \"#utility.yul\":3792:3831   */\n      tag_173\n      jump\t// in\n    tag_172:\n        /* \"#utility.yul\":3847:3918   */\n      tag_174\n        /* \"#utility.yul\":3911:3917   */\n      dup2\n        /* \"#utility.yul\":3906:3909   */\n      dup6\n        /* \"#utility.yul\":3847:3918   */\n      tag_175\n      jump\t// in\n    tag_174:\n        /* \"#utility.yul\":3840:3918   */\n      swap4\n      pop\n        /* \"#utility.yul\":3927:3979   */\n      tag_176\n        /* \"#utility.yul\":3972:3978   */\n      dup2\n        /* \"#utility.yul\":3967:3970   */\n      dup6\n        /* \"#utility.yul\":3960:3964   */\n      0x20\n        /* \"#utility.yul\":3953:3958   */\n      dup7\n        /* \"#utility.yul\":3949:3965   */\n      add\n        /* \"#utility.yul\":3927:3979   */\n      tag_177\n      jump\t// in\n    tag_176:\n        /* \"#utility.yul\":4004:4033   */\n      tag_178\n        /* \"#utility.yul\":4026:4032   */\n      dup2\n        /* \"#utility.yul\":4004:4033   */\n      tag_179\n      jump\t// in\n    tag_178:\n        /* \"#utility.yul\":3999:4002   */\n      dup5\n        /* \"#utility.yul\":3995:4034   */\n      add\n        /* \"#utility.yul\":3988:4034   */\n      swap2\n      pop\n        /* \"#utility.yul\":3768:4040   */\n      pop\n        /* \"#utility.yul\":3676:4040   */\n      swap3\n      swap2\n      pop\n      pop\n      jump\t// out\n        /* \"#utility.yul\":4046:4264   */\n    tag_21:\n        /* \"#utility.yul\":4137:4141   */\n      0x00\n        /* \"#utility.yul\":4175:4177   */\n      0x20\n        /* \"#utility.yul\":4164:4173   */\n      dup3\n        /* \"#utility.yul\":4160:4178   */\n      add\n        /* \"#utility.yul\":4152:4178   */\n      swap1\n      pop\n        /* \"#utility.yul\":4188:4257   */\n      tag_181\n        /* \"#utility.yul\":4254:4255   */\n      0x00\n        /* \"#utility.yul\":4243:4252   */\n      dup4\n        /* \"#utility.yul\":4239:4256   */\n      add\n        /* \"#utility.yul\":4230:4236   */\n      dup5\n        /* \"#utility.yul\":4188:4257   */\n      tag_166\n      jump\t// in\n    tag_181:\n        /* \"#utility.yul\":4046:4264   */\n      swap3\n      swap2\n      pop\n      pop\n      jump\t// out\n        /* \"#utility.yul\":4270:4583   */\n    tag_32:\n        /* \"#utility.yul\":4383:4387   */\n      0x00\n        /* \"#utility.yul\":4421:4423   */\n      0x20\n        /* \"#utility.yul\":4410:4419   */\n      dup3\n        /* \"#utility.yul\":4406:4424   */\n      add\n        /* \"#utility.yul\":4398:4424   */\n      swap1\n      pop\n        /* \"#utility.yul\":4470:4479   */\n      dup2\n        /* \"#utility.yul\":4464:4468   */\n      dup2\n        /* \"#utility.yul\":4460:4480   */\n      sub\n        /* \"#utility.yul\":4456:4457   */\n      0x00\n        /* \"#utility.yul\":4445:4454   */\n      dup4\n        /* \"#utility.yul\":4441:4458   */\n      add\n        /* \"#utility.yul\":4434:4481   */\n      mstore\n        /* \"#utility.yul\":4498:4576   */\n      tag_183\n        /* \"#utility.yul\":4571:4575   */\n      dup2\n        /* \"#utility.yul\":4562:4568   */\n      dup5\n        /* \"#utility.yul\":4498:4576   */\n      tag_170\n      jump\t// in\n    tag_183:\n        /* \"#utility.yul\":4490:4576   */\n      swap1\n      pop\n        /* \"#utility.yul\":4270:4583   */\n      swap3\n      swap2\n      pop\n      pop\n      jump\t// out\n        /* \"#utility.yul\":4589:4718   */\n    tag_121:\n        /* \"#utility.yul\":4623:4629   */\n      0x00\n        /* \"#utility.yul\":4650:4670   */\n      tag_185\n      tag_186\n      jump\t// in\n    tag_185:\n        /* \"#utility.yul\":4640:4670   */\n      swap1\n      pop\n        /* \"#utility.yul\":4679:4712   */\n      tag_187\n        /* \"#utility.yul\":4707:4711   */\n      dup3\n        /* \"#utility.yul\":4699:4705   */\n      dup3\n        /* \"#utility.yul\":4679:4712   */\n      tag_188\n      jump\t// in\n    tag_187:\n        /* \"#utility.yul\":4589:4718   */\n      swap2\n      swap1\n      pop\n      jump\t// out\n        /* \"#utility.yul\":4724:4799   */\n    tag_186:\n        /* \"#utility.yul\":4757:4763   */\n      0x00\n        /* \"#utility.yul\":4790:4792   */\n      0x40\n        /* \"#utility.yul\":4784:4793   */\n      mload\n        /* \"#utility.yul\":4774:4793   */\n      swap1\n      pop\n        /* \"#utility.yul\":4724:4799   */\n      swap1\n      jump\t// out\n        /* \"#utility.yul\":4805:5113   */\n    tag_120:\n        /* \"#utility.yul\":4867:4871   */\n      0x00\n        /* \"#utility.yul\":4957:4975   */\n      0xffffffffffffffff\n        /* \"#utility.yul\":4949:4955   */\n      dup3\n        /* \"#utility.yul\":4946:4976   */\n      gt\n        /* \"#utility.yul\":4943:4999   */\n      iszero\n      tag_191\n      jumpi\n        /* \"#utility.yul\":4979:4997   */\n      tag_192\n      tag_193\n      jump\t// in\n    tag_192:\n        /* \"#utility.yul\":4943:4999   */\n    tag_191:\n        /* \"#utility.yul\":5017:5046   */\n      tag_194\n        /* \"#utility.yul\":5039:5045   */\n      dup3\n        /* \"#utility.yul\":5017:5046   */\n      tag_179\n      jump\t// in\n    tag_194:\n        /* \"#utility.yul\":5009:5046   */\n      swap1\n      pop\n        /* \"#utility.yul\":5101:5105   */\n      0x20\n        /* \"#utility.yul\":5095:5099   */\n      dup2\n        /* \"#utility.yul\":5091:5106   */\n      add\n        /* \"#utility.yul\":5083:5106   */\n      swap1\n      pop\n        /* \"#utility.yul\":4805:5113   */\n      swap2\n      swap1\n      pop\n      jump\t// out\n        /* \"#utility.yul\":5119:5218   */\n    tag_173:\n        /* \"#utility.yul\":5171:5177   */\n      0x00\n        /* \"#utility.yul\":5205:5210   */\n      dup2\n        /* \"#utility.yul\":5199:5211   */\n      mload\n        /* \"#utility.yul\":5189:5211   */\n      swap1\n      pop\n        /* \"#utility.yul\":5119:5218   */\n      swap2\n      swap1\n      pop\n      jump\t// out\n        /* \"#utility.yul\":5224:5393   */\n    tag_175:\n        /* \"#utility.yul\":5308:5319   */\n      0x00\n        /* \"#utility.yul\":5342:5348   */\n      dup3\n        /* \"#utility.yul\":5337:5340   */\n      dup3\n        /* \"#utility.yul\":5330:5349   */\n      mstore\n        /* \"#utility.yul\":5382:5386   */\n      0x20\n        /* \"#utility.yul\":5377:5380   */\n      dup3\n        /* \"#utility.yul\":5373:5387   */\n      add\n        /* \"#utility.yul\":5358:5387   */\n      swap1\n      pop\n        /* \"#utility.yul\":5224:5393   */\n      swap3\n      swap2\n      pop\n      pop\n      jump\t// out\n        /* \"#utility.yul\":5399:5475   */\n    tag_169:\n        /* \"#utility.yul\":5435:5442   */\n      0x00\n        /* \"#utility.yul\":5464:5469   */\n      dup2\n        /* \"#utility.yul\":5453:5469   */\n      swap1\n      pop\n        /* \"#utility.yul\":5399:5475   */\n      swap2\n      swap1\n      pop\n      jump\t// out\n        /* \"#utility.yul\":5481:5635   */\n    tag_126:\n        /* \"#utility.yul\":5565:5571   */\n      dup3\n        /* \"#utility.yul\":5560:5563   */\n      dup2\n        /* \"#utility.yul\":5555:5558   */\n      dup4\n        /* \"#utility.yul\":5542:5572   */\n      calldatacopy\n        /* \"#utility.yul\":5627:5628   */\n      0x00\n        /* \"#utility.yul\":5618:5624   */\n      dup4\n        /* \"#utility.yul\":5613:5616   */\n      dup4\n        /* \"#utility.yul\":5609:5625   */\n      add\n        /* \"#utility.yul\":5602:5629   */\n      mstore\n        /* \"#utility.yul\":5481:5635   */\n      pop\n      pop\n      pop\n      jump\t// out\n        /* \"#utility.yul\":5641:5948   */\n    tag_177:\n        /* \"#utility.yul\":5709:5710   */\n      0x00\n        /* \"#utility.yul\":5719:5832   */\n    tag_200:\n        /* \"#utility.yul\":5733:5739   */\n      dup4\n        /* \"#utility.yul\":5730:5731   */\n      dup2\n        /* \"#utility.yul\":5727:5740   */\n      lt\n        /* \"#utility.yul\":5719:5832   */\n      iszero\n      tag_202\n      jumpi\n        /* \"#utility.yul\":5818:5819   */\n      dup1\n        /* \"#utility.yul\":5813:5816   */\n      dup3\n        /* \"#utility.yul\":5809:5820   */\n      add\n        /* \"#utility.yul\":5803:5821   */\n      mload\n        /* \"#utility.yul\":5799:5800   */\n      dup2\n        /* \"#utility.yul\":5794:5797   */\n      dup5\n        /* \"#utility.yul\":5790:5801   */\n      add\n        /* \"#utility.yul\":5783:5822   */\n      mstore\n        /* \"#utility.yul\":5755:5757   */\n      0x20\n        /* \"#utility.yul\":5752:5753   */\n      dup2\n        /* \"#utility.yul\":5748:5758   */\n      add\n        /* \"#utility.yul\":5743:5758   */\n      swap1\n      pop\n        /* \"#utility.yul\":5719:5832   */\n      jump(tag_200)\n    tag_202:\n        /* \"#utility.yul\":5850:5856   */\n      dup4\n        /* \"#utility.yul\":5847:5848   */\n      dup2\n        /* \"#utility.yul\":5844:5857   */\n      gt\n        /* \"#utility.yul\":5841:5942   */\n      iszero\n      tag_203\n      jumpi\n        /* \"#utility.yul\":5930:5931   */\n      0x00\n        /* \"#utility.yul\":5921:5927   */\n      dup5\n        /* \"#utility.yul\":5916:5919   */\n      dup5\n        /* \"#utility.yul\":5912:5928   */\n      add\n        /* \"#utility.yul\":5905:5932   */\n      mstore\n        /* \"#utility.yul\":5841:5942   */\n    tag_203:\n        /* \"#utility.yul\":5690:5948   */\n      pop\n        /* \"#utility.yul\":5641:5948   */\n      pop\n      pop\n      pop\n      jump\t// out\n        /* \"#utility.yul\":5954:6274   */\n    tag_72:\n        /* \"#utility.yul\":5998:6004   */\n      0x00\n        /* \"#utility.yul\":6035:6036   */\n      0x02\n        /* \"#utility.yul\":6029:6033   */\n      dup3\n        /* \"#utility.yul\":6025:6037   */\n      div\n        /* \"#utility.yul\":6015:6037   */\n      swap1\n      pop\n        /* \"#utility.yul\":6082:6083   */\n      0x01\n        /* \"#utility.yul\":6076:6080   */\n      dup3\n        /* \"#utility.yul\":6072:6084   */\n      and\n        /* \"#utility.yul\":6103:6121   */\n      dup1\n        /* \"#utility.yul\":6093:6174   */\n      tag_205\n      jumpi\n        /* \"#utility.yul\":6159:6163   */\n      0x7f\n        /* \"#utility.yul\":6151:6157   */\n      dup3\n        /* \"#utility.yul\":6147:6164   */\n      and\n        /* \"#utility.yul\":6137:6164   */\n      swap2\n      pop\n        /* \"#utility.yul\":6093:6174   */\n    tag_205:\n        /* \"#utility.yul\":6221:6223   */\n      0x20\n        /* \"#utility.yul\":6213:6219   */\n      dup3\n        /* \"#utility.yul\":6210:6224   */\n      lt\n        /* \"#utility.yul\":6190:6208   */\n      dup2\n        /* \"#utility.yul\":6187:6225   */\n      eq\n        /* \"#utility.yul\":6184:6268   */\n      iszero\n      tag_206\n      jumpi\n        /* \"#utility.yul\":6240:6258   */\n      tag_207\n      tag_208\n      jump\t// in\n    tag_207:\n        /* \"#utility.yul\":6184:6268   */\n    tag_206:\n        /* \"#utility.yul\":6005:6274   */\n      pop\n        /* \"#utility.yul\":5954:6274   */\n      swap2\n      swap1\n      pop\n      jump\t// out\n        /* \"#utility.yul\":6280:6561   */\n    tag_188:\n        /* \"#utility.yul\":6363:6390   */\n      tag_210\n        /* \"#utility.yul\":6385:6389   */\n      dup3\n        /* \"#utility.yul\":6363:6390   */\n      tag_179\n      jump\t// in\n    tag_210:\n        /* \"#utility.yul\":6355:6361   */\n      dup2\n        /* \"#utility.yul\":6351:6391   */\n      add\n        /* \"#utility.yul\":6493:6499   */\n      dup2\n        /* \"#utility.yul\":6481:6491   */\n      dup2\n        /* \"#utility.yul\":6478:6500   */\n      lt\n        /* \"#utility.yul\":6457:6475   */\n      0xffffffffffffffff\n        /* \"#utility.yul\":6445:6455   */\n      dup3\n        /* \"#utility.yul\":6442:6476   */\n      gt\n        /* \"#utility.yul\":6439:6501   */\n      or\n        /* \"#utility.yul\":6436:6524   */\n      iszero\n      tag_211\n      jumpi\n        /* \"#utility.yul\":6504:6522   */\n      tag_212\n      tag_193\n      jump\t// in\n    tag_212:\n        /* \"#utility.yul\":6436:6524   */\n    tag_211:\n        /* \"#utility.yul\":6544:6554   */\n      dup1\n        /* \"#utility.yul\":6540:6542   */\n      0x40\n        /* \"#utility.yul\":6533:6555   */\n      mstore\n        /* \"#utility.yul\":6323:6561   */\n      pop\n        /* \"#utility.yul\":6280:6561   */\n      pop\n      pop\n      jump\t// out\n        /* \"#utility.yul\":6567:6747   */\n    tag_208:\n        /* \"#utility.yul\":6615:6692   */\n      0x4e487b7100000000000000000000000000000000000000000000000000000000\n        /* \"#utility.yul\":6612:6613   */\n      0x00\n        /* \"#utility.yul\":6605:6693   */\n      mstore\n        /* \"#utility.yul\":6712:6716   */\n      0x22\n        /* \"#utility.yul\":6709:6710   */\n      0x04\n        /* \"#utility.yul\":6702:6717   */\n      mstore\n        /* \"#utility.yul\":6736:6740   */\n      0x24\n        /* \"#utility.yul\":6733:6734   */\n      0x00\n        /* \"#utility.yul\":6726:6741   */\n      revert\n        /* \"#utility.yul\":6753:6933   */\n    tag_193:\n        /* \"#utility.yul\":6801:6878   */\n      0x4e487b7100000000000000000000000000000000000000000000000000000000\n        /* \"#utility.yul\":6798:6799   */\n      0x00\n        /* \"#utility.yul\":6791:6879   */\n      mstore\n        /* \"#utility.yul\":6898:6902   */\n      0x41\n        /* \"#utility.yul\":6895:6896   */\n      0x04\n        /* \"#utility.yul\":6888:6903   */\n      mstore\n        /* \"#utility.yul\":6922:6926   */\n      0x24\n        /* \"#utility.yul\":6919:6920   */\n      0x00\n        /* \"#utility.yul\":6912:6927   */\n      revert\n        /* \"#utility.yul\":6939:7056   */\n    tag_135:\n        /* \"#utility.yul\":7048:7049   */\n      0x00\n        /* \"#utility.yul\":7045:7046   */\n      dup1\n        /* \"#utility.yul\":7038:7050   */\n      revert\n        /* \"#utility.yul\":7062:7179   */\n    tag_124:\n        /* \"#utility.yul\":7171:7172   */\n      0x00\n        /* \"#utility.yul\":7168:7169   */\n      dup1\n        /* \"#utility.yul\":7161:7173   */\n      revert\n        /* \"#utility.yul\":7185:7302   */\n    tag_149:\n        /* \"#utility.yul\":7294:7295   */\n      0x00\n        /* \"#utility.yul\":7291:7292   */\n      dup1\n        /* \"#utility.yul\":7284:7296   */\n      revert\n        /* \"#utility.yul\":7308:7425   */\n    tag_140:\n        /* \"#utility.yul\":7417:7418   */\n      0x00\n        /* \"#utility.yul\":7414:7415   */\n      dup1\n        /* \"#utility.yul\":7407:7419   */\n      revert\n        /* \"#utility.yul\":7431:7533   */\n    tag_179:\n        /* \"#utility.yul\":7472:7478   */\n      0x00\n        /* \"#utility.yul\":7523:7525   */\n      0x1f\n        /* \"#utility.yul\":7519:7526   */\n      not\n        /* \"#utility.yul\":7514:7516   */\n      0x1f\n        /* \"#utility.yul\":7507:7512   */\n      dup4\n        /* \"#utility.yul\":7503:7517   */\n      add\n        /* \"#utility.yul\":7499:7527   */\n      and\n        /* \"#utility.yul\":7489:7527   */\n      swap1\n      pop\n        /* \"#utility.yul\":7431:7533   */\n      swap2\n      swap1\n      pop\n      jump\t// out\n        /* \"#utility.yul\":7539:7659   */\n    tag_130:\n        /* \"#utility.yul\":7611:7634   */\n      tag_221\n        /* \"#utility.yul\":7628:7633   */\n      dup2\n        /* \"#utility.yul\":7611:7634   */\n      tag_169\n      jump\t// in\n    tag_221:\n        /* \"#utility.yul\":7604:7609   */\n      dup2\n        /* \"#utility.yul\":7601:7635   */\n      eq\n        /* \"#utility.yul\":7591:7653   */\n      tag_222\n      jumpi\n        /* \"#utility.yul\":7649:7650   */\n      0x00\n        /* \"#utility.yul\":7646:7647   */\n      dup1\n        /* \"#utility.yul\":7639:7651   */\n      revert\n        /* \"#utility.yul\":7591:7653   */\n    tag_222:\n        /* \"#utility.yul\":7539:7659   */\n      pop\n      jump\t// out\n\n    auxdata: 0xa2646970667358221220e5038909f1f0b848cda30e6a9a5b24043114da8678cb660a78bbe1d6d973ed5a64736f6c63430008070033\n}\n",
				"bytecode": {
					"linkReferences": {},
					"object": "60806040523480156200001157600080fd5b5060405162000f7038038062000f708339818101604052810190620000379190620001fa565b856000819055508460018190555083600290805190602001906200005d929190620000b5565b50826003908051906020019062000076929190620000b5565b5081600490805190602001906200008f929190620000b5565b508060059080519060200190620000a8929190620000b5565b50505050505050620004ba565b828054620000c390620003b1565b90600052602060002090601f016020900481019282620000e7576000855562000133565b82601f106200010257805160ff191683800117855562000133565b8280016001018555821562000133579182015b828111156200013257825182559160200191906001019062000115565b5b50905062000142919062000146565b5090565b5b808211156200016157600081600090555060010162000147565b5090565b60006200017c62000176846200033b565b62000312565b9050828152602081018484840111156200019b576200019a62000480565b5b620001a88482856200037b565b509392505050565b600081519050620001c181620004a0565b92915050565b600082601f830112620001df57620001de6200047b565b5b8151620001f184826020860162000165565b91505092915050565b60008060008060008060c087890312156200021a57620002196200048a565b5b60006200022a89828a01620001b0565b96505060206200023d89828a01620001b0565b955050604087015167ffffffffffffffff81111562000261576200026062000485565b5b6200026f89828a01620001c7565b945050606087015167ffffffffffffffff81111562000293576200029262000485565b5b620002a189828a01620001c7565b935050608087015167ffffffffffffffff811115620002c557620002c462000485565b5b620002d389828a01620001c7565b92505060a087015167ffffffffffffffff811115620002f757620002f662000485565b5b6200030589828a01620001c7565b9150509295509295509295565b60006200031e62000331565b90506200032c8282620003e7565b919050565b6000604051905090565b600067ffffffffffffffff8211156200035957620003586200044c565b5b62000364826200048f565b9050602081019050919050565b6000819050919050565b60005b838110156200039b5780820151818401526020810190506200037e565b83811115620003ab576000848401525b50505050565b60006002820490506001821680620003ca57607f821691505b60208210811415620003e157620003e06200041d565b5b50919050565b620003f2826200048f565b810181811067ffffffffffffffff821117156200041457620004136200044c565b5b80604052505050565b7f4e487b7100000000000000000000000000000000000000000000000000000000600052602260045260246000fd5b7f4e487b7100000000000000000000000000000000000000000000000000000000600052604160045260246000fd5b600080fd5b600080fd5b600080fd5b600080fd5b6000601f19601f8301169050919050565b620004ab8162000371565b8114620004b757600080fd5b50565b610aa680620004ca6000396000f3fe608060405234801561001057600080fd5b50600436106100cf5760003560e01c806354cc27391161008c5780636e97e4a8116100665780636e97e4a8146101da57806398f52bd7146101f6578063ad8f8d9514610212578063bd3e19d41461022e576100cf565b806354cc27391461018257806358a1bb32146101a05780636b2b1ab9146101bc576100cf565b8063077a2972146100d45780630a550ef3146100f257806325d83277146101105780632b8432011461012c5780632e25fa471461014a5780633c38ec0914610166575b600080fd5b6100dc61024c565b6040516100e99190610878565b60405180910390f35b6100fa610256565b6040516101079190610878565b60405180910390f35b61012a600480360381019061012591906106ea565b61025f565b005b6101346102d1565b6040516101419190610893565b60405180910390f35b610164600480360381019061015f91906107e7565b610363565b005b610180600480360381019061017b91906106bd565b61037d565b005b61018a610387565b6040516101979190610893565b60405180910390f35b6101ba60048036038101906101b591906107e7565b610419565b005b6101c4610433565b6040516101d19190610893565b60405180910390f35b6101f460048036038101906101ef91906107e7565b6104c5565b005b610210600480360381019061020b91906107e7565b6104df565b005b61022c600480360381019061022791906106bd565b6104f9565b005b610236610503565b6040516102439190610893565b60405180910390f35b6000600154905090565b60008054905090565b85600081905550846001819055508360029080519060200190610283929190610595565b50826003908051906020019061029a929190610595565b5081600490805190602001906102b1929190610595565b5080600590805190602001906102c8929190610595565b50505050505050565b6060600280546102e090610973565b80601f016020809104026020016040519081016040528092919081815260200182805461030c90610973565b80156103595780601f1061032e57610100808354040283529160200191610359565b820191906000526020600020905b81548152906001019060200180831161033c57829003601f168201915b5050505050905090565b8060059080519060200190610379929190610595565b5050565b8060008190555050565b60606003805461039690610973565b80601f01602080910402602001604051908101604052809291908181526020018280546103c290610973565b801561040f5780601f106103e45761010080835404028352916020019161040f565b820191906000526020600020905b8154815290600101906020018083116103f257829003601f168201915b5050505050905090565b806003908051906020019061042f929190610595565b5050565b60606005805461044290610973565b80601f016020809104026020016040519081016040528092919081815260200182805461046e90610973565b80156104bb5780601f10610490576101008083540402835291602001916104bb565b820191906000526020600020905b81548152906001019060200180831161049e57829003601f168201915b5050505050905090565b80600490805190602001906104db929190610595565b5050565b80600290805190602001906104f5929190610595565b5050565b8060018190555050565b60606004805461051290610973565b80601f016020809104026020016040519081016040528092919081815260200182805461053e90610973565b801561058b5780601f106105605761010080835404028352916020019161058b565b820191906000526020600020905b81548152906001019060200180831161056e57829003601f168201915b5050505050905090565b8280546105a190610973565b90600052602060002090601f0160209004810192826105c3576000855561060a565b82601f106105dc57805160ff191683800117855561060a565b8280016001018555821561060a579182015b828111156106095782518255916020019190600101906105ee565b5b509050610617919061061b565b5090565b5b8082111561063457600081600090555060010161061c565b5090565b600061064b610646846108da565b6108b5565b90508281526020810184848401111561066757610666610a39565b5b610672848285610931565b509392505050565b60008135905061068981610a59565b92915050565b600082601f8301126106a4576106a3610a34565b5b81356106b4848260208601610638565b91505092915050565b6000602082840312156106d3576106d2610a43565b5b60006106e18482850161067a565b91505092915050565b60008060008060008060c0878903121561070757610706610a43565b5b600061071589828a0161067a565b965050602061072689828a0161067a565b955050604087013567ffffffffffffffff81111561074757610746610a3e565b5b61075389828a0161068f565b945050606087013567ffffffffffffffff81111561077457610773610a3e565b5b61078089828a0161068f565b935050608087013567ffffffffffffffff8111156107a1576107a0610a3e565b5b6107ad89828a0161068f565b92505060a087013567ffffffffffffffff8111156107ce576107cd610a3e565b5b6107da89828a0161068f565b9150509295509295509295565b6000602082840312156107fd576107fc610a43565b5b600082013567ffffffffffffffff81111561081b5761081a610a3e565b5b6108278482850161068f565b91505092915050565b61083981610927565b82525050565b600061084a8261090b565b6108548185610916565b9350610864818560208601610940565b61086d81610a48565b840191505092915050565b600060208201905061088d6000830184610830565b92915050565b600060208201905081810360008301526108ad818461083f565b905092915050565b60006108bf6108d0565b90506108cb82826109a5565b919050565b6000604051905090565b600067ffffffffffffffff8211156108f5576108f4610a05565b5b6108fe82610a48565b9050602081019050919050565b600081519050919050565b600082825260208201905092915050565b6000819050919050565b82818337600083830152505050565b60005b8381101561095e578082015181840152602081019050610943565b8381111561096d576000848401525b50505050565b6000600282049050600182168061098b57607f821691505b6020821081141561099f5761099e6109d6565b5b50919050565b6109ae82610a48565b810181811067ffffffffffffffff821117156109cd576109cc610a05565b5b80604052505050565b7f4e487b7100000000000000000000000000000000000000000000000000000000600052602260045260246000fd5b7f4e487b7100000000000000000000000000000000000000000000000000000000600052604160045260246000fd5b600080fd5b600080fd5b600080fd5b600080fd5b6000601f19601f8301169050919050565b610a6281610927565b8114610a6d57600080fd5b5056fea2646970667358221220e5038909f1f0b848cda30e6a9a5b24043114da8678cb660a78bbe1d6d973ed5a64736f6c63430008070033",
					"opcodes": "PUSH1 0x80 PUSH1 0x40 MSTORE CALLVALUE DUP1 ISZERO PUSH3 0x11 JUMPI PUSH1 0x0 DUP1 REVERT JUMPDEST POP PUSH1 0x40 MLOAD PUSH3 0xF70 CODESIZE SUB DUP1 PUSH3 0xF70 DUP4 CODECOPY DUP2 DUP2 ADD PUSH1 0x40 MSTORE DUP2 ADD SWAP1 PUSH3 0x37 SWAP2 SWAP1 PUSH3 0x1FA JUMP JUMPDEST DUP6 PUSH1 0x0 DUP2 SWAP1 SSTORE POP DUP5 PUSH1 0x1 DUP2 SWAP1 SSTORE POP DUP4 PUSH1 0x2 SWAP1 DUP1 MLOAD SWAP1 PUSH1 0x20 ADD SWAP1 PUSH3 0x5D SWAP3 SWAP2 SWAP1 PUSH3 0xB5 JUMP JUMPDEST POP DUP3 PUSH1 0x3 SWAP1 DUP1 MLOAD SWAP1 PUSH1 0x20 ADD SWAP1 PUSH3 0x76 SWAP3 SWAP2 SWAP1 PUSH3 0xB5 JUMP JUMPDEST POP DUP2 PUSH1 0x4 SWAP1 DUP1 MLOAD SWAP1 PUSH1 0x20 ADD SWAP1 PUSH3 0x8F SWAP3 SWAP2 SWAP1 PUSH3 0xB5 JUMP JUMPDEST POP DUP1 PUSH1 0x5 SWAP1 DUP1 MLOAD SWAP1 PUSH1 0x20 ADD SWAP1 PUSH3 0xA8 SWAP3 SWAP2 SWAP1 PUSH3 0xB5 JUMP JUMPDEST POP POP POP POP POP POP POP PUSH3 0x4BA JUMP JUMPDEST DUP3 DUP1 SLOAD PUSH3 0xC3 SWAP1 PUSH3 0x3B1 JUMP JUMPDEST SWAP1 PUSH1 0x0 MSTORE PUSH1 0x20 PUSH1 0x0 KECCAK256 SWAP1 PUSH1 0x1F ADD PUSH1 0x20 SWAP1 DIV DUP2 ADD SWAP3 DUP3 PUSH3 0xE7 JUMPI PUSH1 0x0 DUP6 SSTORE PUSH3 0x133 JUMP JUMPDEST DUP3 PUSH1 0x1F LT PUSH3 0x102 JUMPI DUP1 MLOAD PUSH1 0xFF NOT AND DUP4 DUP1 ADD OR DUP6 SSTORE PUSH3 0x133 JUMP JUMPDEST DUP3 DUP1 ADD PUSH1 0x1 ADD DUP6 SSTORE DUP3 ISZERO PUSH3 0x133 JUMPI SWAP2 DUP3 ADD JUMPDEST DUP3 DUP2 GT ISZERO PUSH3 0x132 JUMPI DUP3 MLOAD DUP3 SSTORE SWAP2 PUSH1 0x20 ADD SWAP2 SWAP1 PUSH1 0x1 ADD SWAP1 PUSH3 0x115 JUMP JUMPDEST JUMPDEST POP SWAP1 POP PUSH3 0x142 SWAP2 SWAP1 PUSH3 0x146 JUMP JUMPDEST POP SWAP1 JUMP JUMPDEST JUMPDEST DUP1 DUP3 GT ISZERO PUSH3 0x161 JUMPI PUSH1 0x0 DUP2 PUSH1 0x0 SWAP1 SSTORE POP PUSH1 0x1 ADD PUSH3 0x147 JUMP JUMPDEST POP SWAP1 JUMP JUMPDEST PUSH1 0x0 PUSH3 0x17C PUSH3 0x176 DUP5 PUSH3 0x33B JUMP JUMPDEST PUSH3 0x312 JUMP JUMPDEST SWAP1 POP DUP3 DUP2 MSTORE PUSH1 0x20 DUP2 ADD DUP5 DUP5 DUP5 ADD GT ISZERO PUSH3 0x19B JUMPI PUSH3 0x19A PUSH3 0x480 JUMP JUMPDEST JUMPDEST PUSH3 0x1A8 DUP5 DUP3 DUP6 PUSH3 0x37B JUMP JUMPDEST POP SWAP4 SWAP3 POP POP POP JUMP JUMPDEST PUSH1 0x0 DUP2 MLOAD SWAP1 POP PUSH3 0x1C1 DUP2 PUSH3 0x4A0 JUMP JUMPDEST SWAP3 SWAP2 POP POP JUMP JUMPDEST PUSH1 0x0 DUP3 PUSH1 0x1F DUP4 ADD SLT PUSH3 0x1DF JUMPI PUSH3 0x1DE PUSH3 0x47B JUMP JUMPDEST JUMPDEST DUP2 MLOAD PUSH3 0x1F1 DUP5 DUP3 PUSH1 0x20 DUP7 ADD PUSH3 0x165 JUMP JUMPDEST SWAP2 POP POP SWAP3 SWAP2 POP POP JUMP JUMPDEST PUSH1 0x0 DUP1 PUSH1 0x0 DUP1 PUSH1 0x0 DUP1 PUSH1 0xC0 DUP8 DUP10 SUB SLT ISZERO PUSH3 0x21A JUMPI PUSH3 0x219 PUSH3 0x48A JUMP JUMPDEST JUMPDEST PUSH1 0x0 PUSH3 0x22A DUP10 DUP3 DUP11 ADD PUSH3 0x1B0 JUMP JUMPDEST SWAP7 POP POP PUSH1 0x20 PUSH3 0x23D DUP10 DUP3 DUP11 ADD PUSH3 0x1B0 JUMP JUMPDEST SWAP6 POP POP PUSH1 0x40 DUP8 ADD MLOAD PUSH8 0xFFFFFFFFFFFFFFFF DUP2 GT ISZERO PUSH3 0x261 JUMPI PUSH3 0x260 PUSH3 0x485 JUMP JUMPDEST JUMPDEST PUSH3 0x26F DUP10 DUP3 DUP11 ADD PUSH3 0x1C7 JUMP JUMPDEST SWAP5 POP POP PUSH1 0x60 DUP8 ADD MLOAD PUSH8 0xFFFFFFFFFFFFFFFF DUP2 GT ISZERO PUSH3 0x293 JUMPI PUSH3 0x292 PUSH3 0x485 JUMP JUMPDEST JUMPDEST PUSH3 0x2A1 DUP10 DUP3 DUP11 ADD PUSH3 0x1C7 JUMP JUMPDEST SWAP4 POP POP PUSH1 0x80 DUP8 ADD MLOAD PUSH8 0xFFFFFFFFFFFFFFFF DUP2 GT ISZERO PUSH3 0x2C5 JUMPI PUSH3 0x2C4 PUSH3 0x485 JUMP JUMPDEST JUMPDEST PUSH3 0x2D3 DUP10 DUP3 DUP11 ADD PUSH3 0x1C7 JUMP JUMPDEST SWAP3 POP POP PUSH1 0xA0 DUP8 ADD MLOAD PUSH8 0xFFFFFFFFFFFFFFFF DUP2 GT ISZERO PUSH3 0x2F7 JUMPI PUSH3 0x2F6 PUSH3 0x485 JUMP JUMPDEST JUMPDEST PUSH3 0x305 DUP10 DUP3 DUP11 ADD PUSH3 0x1C7 JUMP JUMPDEST SWAP2 POP POP SWAP3 SWAP6 POP SWAP3 SWAP6 POP SWAP3 SWAP6 JUMP JUMPDEST PUSH1 0x0 PUSH3 0x31E PUSH3 0x331 JUMP JUMPDEST SWAP1 POP PUSH3 0x32C DUP3 DUP3 PUSH3 0x3E7 JUMP JUMPDEST SWAP2 SWAP1 POP JUMP JUMPDEST PUSH1 0x0 PUSH1 0x40 MLOAD SWAP1 POP SWAP1 JUMP JUMPDEST PUSH1 0x0 PUSH8 0xFFFFFFFFFFFFFFFF DUP3 GT ISZERO PUSH3 0x359 JUMPI PUSH3 0x358 PUSH3 0x44C JUMP JUMPDEST JUMPDEST PUSH3 0x364 DUP3 PUSH3 0x48F JUMP JUMPDEST SWAP1 POP PUSH1 0x20 DUP2 ADD SWAP1 POP SWAP2 SWAP1 POP JUMP JUMPDEST PUSH1 0x0 DUP2 SWAP1 POP SWAP2 SWAP1 POP JUMP JUMPDEST PUSH1 0x0 JUMPDEST DUP4 DUP2 LT ISZERO PUSH3 0x39B JUMPI DUP1 DUP3 ADD MLOAD DUP2 DUP5 ADD MSTORE PUSH1 0x20 DUP2 ADD SWAP1 POP PUSH3 0x37E JUMP JUMPDEST DUP4 DUP2 GT ISZERO PUSH3 0x3AB JUMPI PUSH1 0x0 DUP5 DUP5 ADD MSTORE JUMPDEST POP POP POP POP JUMP JUMPDEST PUSH1 0x0 PUSH1 0x2 DUP3 DIV SWAP1 POP PUSH1 0x1 DUP3 AND DUP1 PUSH3 0x3CA JUMPI PUSH1 0x7F DUP3 AND SWAP2 POP JUMPDEST PUSH1 0x20 DUP3 LT DUP2 EQ ISZERO PUSH3 0x3E1 JUMPI PUSH3 0x3E0 PUSH3 0x41D JUMP JUMPDEST JUMPDEST POP SWAP2 SWAP1 POP JUMP JUMPDEST PUSH3 0x3F2 DUP3 PUSH3 0x48F JUMP JUMPDEST DUP2 ADD DUP2 DUP2 LT PUSH8 0xFFFFFFFFFFFFFFFF DUP3 GT OR ISZERO PUSH3 0x414 JUMPI PUSH3 0x413 PUSH3 0x44C JUMP JUMPDEST JUMPDEST DUP1 PUSH1 0x40 MSTORE POP POP POP JUMP JUMPDEST PUSH32 0x4E487B7100000000000000000000000000000000000000000000000000000000 PUSH1 0x0 MSTORE PUSH1 0x22 PUSH1 0x4 MSTORE PUSH1 0x24 PUSH1 0x0 REVERT JUMPDEST PUSH32 0x4E487B7100000000000000000000000000000000000000000000000000000000 PUSH1 0x0 MSTORE PUSH1 0x41 PUSH1 0x4 MSTORE PUSH1 0x24 PUSH1 0x0 REVERT JUMPDEST PUSH1 0x0 DUP1 REVERT JUMPDEST PUSH1 0x0 DUP1 REVERT JUMPDEST PUSH1 0x0 DUP1 REVERT JUMPDEST PUSH1 0x0 DUP1 REVERT JUMPDEST PUSH1 0x0 PUSH1 0x1F NOT PUSH1 0x1F DUP4 ADD AND SWAP1 POP SWAP2 SWAP1 POP JUMP JUMPDEST PUSH3 0x4AB DUP2 PUSH3 0x371 JUMP JUMPDEST DUP2 EQ PUSH3 0x4B7 JUMPI PUSH1 0x0 DUP1 REVERT JUMPDEST POP JUMP JUMPDEST PUSH2 0xAA6 DUP1 PUSH3 0x4CA PUSH1 0x0 CODECOPY PUSH1 0x0 RETURN INVALID PUSH1 0x80 PUSH1 0x40 MSTORE CALLVALUE DUP1 ISZERO PUSH2 0x10 JUMPI PUSH1 0x0 DUP1 REVERT JUMPDEST POP PUSH1 0x4 CALLDATASIZE LT PUSH2 0xCF JUMPI PUSH1 0x0 CALLDATALOAD PUSH1 0xE0 SHR DUP1 PUSH4 0x54CC2739 GT PUSH2 0x8C JUMPI DUP1 PUSH4 0x6E97E4A8 GT PUSH2 0x66 JUMPI DUP1 PUSH4 0x6E97E4A8 EQ PUSH2 0x1DA JUMPI DUP1 PUSH4 0x98F52BD7 EQ PUSH2 0x1F6 JUMPI DUP1 PUSH4 0xAD8F8D95 EQ PUSH2 0x212 JUMPI DUP1 PUSH4 0xBD3E19D4 EQ PUSH2 0x22E JUMPI PUSH2 0xCF JUMP JUMPDEST DUP1 PUSH4 0x54CC2739 EQ PUSH2 0x182 JUMPI DUP1 PUSH4 0x58A1BB32 EQ PUSH2 0x1A0 JUMPI DUP1 PUSH4 0x6B2B1AB9 EQ PUSH2 0x1BC JUMPI PUSH2 0xCF JUMP JUMPDEST DUP1 PUSH4 0x77A2972 EQ PUSH2 0xD4 JUMPI DUP1 PUSH4 0xA550EF3 EQ PUSH2 0xF2 JUMPI DUP1 PUSH4 0x25D83277 EQ PUSH2 0x110 JUMPI DUP1 PUSH4 0x2B843201 EQ PUSH2 0x12C JUMPI DUP1 PUSH4 0x2E25FA47 EQ PUSH2 0x14A JUMPI DUP1 PUSH4 0x3C38EC09 EQ PUSH2 0x166 JUMPI JUMPDEST PUSH1 0x0 DUP1 REVERT JUMPDEST PUSH2 0xDC PUSH2 0x24C JUMP JUMPDEST PUSH1 0x40 MLOAD PUSH2 0xE9 SWAP2 SWAP1 PUSH2 0x878 JUMP JUMPDEST PUSH1 0x40 MLOAD DUP1 SWAP2 SUB SWAP1 RETURN JUMPDEST PUSH2 0xFA PUSH2 0x256 JUMP JUMPDEST PUSH1 0x40 MLOAD PUSH2 0x107 SWAP2 SWAP1 PUSH2 0x878 JUMP JUMPDEST PUSH1 0x40 MLOAD DUP1 SWAP2 SUB SWAP1 RETURN JUMPDEST PUSH2 0x12A PUSH1 0x4 DUP1 CALLDATASIZE SUB DUP2 ADD SWAP1 PUSH2 0x125 SWAP2 SWAP1 PUSH2 0x6EA JUMP JUMPDEST PUSH2 0x25F JUMP JUMPDEST STOP JUMPDEST PUSH2 0x134 PUSH2 0x2D1 JUMP JUMPDEST PUSH1 0x40 MLOAD PUSH2 0x141 SWAP2 SWAP1 PUSH2 0x893 JUMP JUMPDEST PUSH1 0x40 MLOAD DUP1 SWAP2 SUB SWAP1 RETURN JUMPDEST PUSH2 0x164 PUSH1 0x4 DUP1 CALLDATASIZE SUB DUP2 ADD SWAP1 PUSH2 0x15F SWAP2 SWAP1 PUSH2 0x7E7 JUMP JUMPDEST PUSH2 0x363 JUMP JUMPDEST STOP JUMPDEST PUSH2 0x180 PUSH1 0x4 DUP1 CALLDATASIZE SUB DUP2 ADD SWAP1 PUSH2 0x17B SWAP2 SWAP1 PUSH2 0x6BD JUMP JUMPDEST PUSH2 0x37D JUMP JUMPDEST STOP JUMPDEST PUSH2 0x18A PUSH2 0x387 JUMP JUMPDEST PUSH1 0x40 MLOAD PUSH2 0x197 SWAP2 SWAP1 PUSH2 0x893 JUMP JUMPDEST PUSH1 0x40 MLOAD DUP1 SWAP2 SUB SWAP1 RETURN JUMPDEST PUSH2 0x1BA PUSH1 0x4 DUP1 CALLDATASIZE SUB DUP2 ADD SWAP1 PUSH2 0x1B5 SWAP2 SWAP1 PUSH2 0x7E7 JUMP JUMPDEST PUSH2 0x419 JUMP JUMPDEST STOP JUMPDEST PUSH2 0x1C4 PUSH2 0x433 JUMP JUMPDEST PUSH1 0x40 MLOAD PUSH2 0x1D1 SWAP2 SWAP1 PUSH2 0x893 JUMP JUMPDEST PUSH1 0x40 MLOAD DUP1 SWAP2 SUB SWAP1 RETURN JUMPDEST PUSH2 0x1F4 PUSH1 0x4 DUP1 CALLDATASIZE SUB DUP2 ADD SWAP1 PUSH2 0x1EF SWAP2 SWAP1 PUSH2 0x7E7 JUMP JUMPDEST PUSH2 0x4C5 JUMP JUMPDEST STOP JUMPDEST PUSH2 0x210 PUSH1 0x4 DUP1 CALLDATASIZE SUB DUP2 ADD SWAP1 PUSH2 0x20B SWAP2 SWAP1 PUSH2 0x7E7 JUMP JUMPDEST PUSH2 0x4DF JUMP JUMPDEST STOP JUMPDEST PUSH2 0x22C PUSH1 0x4 DUP1 CALLDATASIZE SUB DUP2 ADD SWAP1 PUSH2 0x227 SWAP2 SWAP1 PUSH2 0x6BD JUMP JUMPDEST PUSH2 0x4F9 JUMP JUMPDEST STOP JUMPDEST PUSH2 0x236 PUSH2 0x503 JUMP JUMPDEST PUSH1 0x40 MLOAD PUSH2 0x243 SWAP2 SWAP1 PUSH2 0x893 JUMP JUMPDEST PUSH1 0x40 MLOAD DUP1 SWAP2 SUB SWAP1 RETURN JUMPDEST PUSH1 0x0 PUSH1 0x1 SLOAD SWAP1 POP SWAP1 JUMP JUMPDEST PUSH1 0x0 DUP1 SLOAD SWAP1 POP SWAP1 JUMP JUMPDEST DUP6 PUSH1 0x0 DUP2 SWAP1 SSTORE POP DUP5 PUSH1 0x1 DUP2 SWAP1 SSTORE POP DUP4 PUSH1 0x2 SWAP1 DUP1 MLOAD SWAP1 PUSH1 0x20 ADD SWAP1 PUSH2 0x283 SWAP3 SWAP2 SWAP1 PUSH2 0x595 JUMP JUMPDEST POP DUP3 PUSH1 0x3 SWAP1 DUP1 MLOAD SWAP1 PUSH1 0x20 ADD SWAP1 PUSH2 0x29A SWAP3 SWAP2 SWAP1 PUSH2 0x595 JUMP JUMPDEST POP DUP2 PUSH1 0x4 SWAP1 DUP1 MLOAD SWAP1 PUSH1 0x20 ADD SWAP1 PUSH2 0x2B1 SWAP3 SWAP2 SWAP1 PUSH2 0x595 JUMP JUMPDEST POP DUP1 PUSH1 0x5 SWAP1 DUP1 MLOAD SWAP1 PUSH1 0x20 ADD SWAP1 PUSH2 0x2C8 SWAP3 SWAP2 SWAP1 PUSH2 0x595 JUMP JUMPDEST POP POP POP POP POP POP POP JUMP JUMPDEST PUSH1 0x60 PUSH1 0x2 DUP1 SLOAD PUSH2 0x2E0 SWAP1 PUSH2 0x973 JUMP JUMPDEST DUP1 PUSH1 0x1F ADD PUSH1 0x20 DUP1 SWAP2 DIV MUL PUSH1 0x20 ADD PUSH1 0x40 MLOAD SWAP1 DUP2 ADD PUSH1 0x40 MSTORE DUP1 SWAP3 SWAP2 SWAP1 DUP2 DUP2 MSTORE PUSH1 0x20 ADD DUP3 DUP1 SLOAD PUSH2 0x30C SWAP1 PUSH2 0x973 JUMP JUMPDEST DUP1 ISZERO PUSH2 0x359 JUMPI DUP1 PUSH1 0x1F LT PUSH2 0x32E JUMPI PUSH2 0x100 DUP1 DUP4 SLOAD DIV MUL DUP4 MSTORE SWAP2 PUSH1 0x20 ADD SWAP2 PUSH2 0x359 JUMP JUMPDEST DUP3 ADD SWAP2 SWAP1 PUSH1 0x0 MSTORE PUSH1 0x20 PUSH1 0x0 KECCAK256 SWAP1 JUMPDEST DUP2 SLOAD DUP2 MSTORE SWAP1 PUSH1 0x1 ADD SWAP1 PUSH1 0x20 ADD DUP1 DUP4 GT PUSH2 0x33C JUMPI DUP3 SWAP1 SUB PUSH1 0x1F AND DUP3 ADD SWAP2 JUMPDEST POP POP POP POP POP SWAP1 POP SWAP1 JUMP JUMPDEST DUP1 PUSH1 0x5 SWAP1 DUP1 MLOAD SWAP1 PUSH1 0x20 ADD SWAP1 PUSH2 0x379 SWAP3 SWAP2 SWAP1 PUSH2 0x595 JUMP JUMPDEST POP POP JUMP JUMPDEST DUP1 PUSH1 0x0 DUP2 SWAP1 SSTORE POP POP JUMP JUMPDEST PUSH1 0x60 PUSH1 0x3 DUP1 SLOAD PUSH2 0x396 SWAP1 PUSH2 0x973 JUMP JUMPDEST DUP1 PUSH1 0x1F ADD PUSH1 0x20 DUP1 SWAP2 DIV MUL PUSH1 0x20 ADD PUSH1 0x40 MLOAD SWAP1 DUP2 ADD PUSH1 0x40 MSTORE DUP1 SWAP3 SWAP2 SWAP1 DUP2 DUP2 MSTORE PUSH1 0x20 ADD DUP3 DUP1 SLOAD PUSH2 0x3C2 SWAP1 PUSH2 0x973 JUMP JUMPDEST DUP1 ISZERO PUSH2 0x40F JUMPI DUP1 PUSH1 0x1F LT PUSH2 0x3E4 JUMPI PUSH2 0x100 DUP1 DUP4 SLOAD DIV MUL DUP4 MSTORE SWAP2 PUSH1 0x20 ADD SWAP2 PUSH2 0x40F JUMP JUMPDEST DUP3 ADD SWAP2 SWAP1 PUSH1 0x0 MSTORE PUSH1 0x20 PUSH1 0x0 KECCAK256 SWAP1 JUMPDEST DUP2 SLOAD DUP2 MSTORE SWAP1 PUSH1 0x1 ADD SWAP1 PUSH1 0x20 ADD DUP1 DUP4 GT PUSH2 0x3F2 JUMPI DUP3 SWAP1 SUB PUSH1 0x1F AND DUP3 ADD SWAP2 JUMPDEST POP POP POP POP POP SWAP1 POP SWAP1 JUMP JUMPDEST DUP1 PUSH1 0x3 SWAP1 DUP1 MLOAD SWAP1 PUSH1 0x20 ADD SWAP1 PUSH2 0x42F SWAP3 SWAP2 SWAP1 PUSH2 0x595 JUMP JUMPDEST POP POP JUMP JUMPDEST PUSH1 0x60 PUSH1 0x5 DUP1 SLOAD PUSH2 0x442 SWAP1 PUSH2 0x973 JUMP JUMPDEST DUP1 PUSH1 0x1F ADD PUSH1 0x20 DUP1 SWAP2 DIV MUL PUSH1 0x20 ADD PUSH1 0x40 MLOAD SWAP1 DUP2 ADD PUSH1 0x40 MSTORE DUP1 SWAP3 SWAP2 SWAP1 DUP2 DUP2 MSTORE PUSH1 0x20 ADD DUP3 DUP1 SLOAD PUSH2 0x46E SWAP1 PUSH2 0x973 JUMP JUMPDEST DUP1 ISZERO PUSH2 0x4BB JUMPI DUP1 PUSH1 0x1F LT PUSH2 0x490 JUMPI PUSH2 0x100 DUP1 DUP4 SLOAD DIV MUL DUP4 MSTORE SWAP2 PUSH1 0x20 ADD SWAP2 PUSH2 0x4BB JUMP JUMPDEST DUP3 ADD SWAP2 SWAP1 PUSH1 0x0 MSTORE PUSH1 0x20 PUSH1 0x0 KECCAK256 SWAP1 JUMPDEST DUP2 SLOAD DUP2 MSTORE SWAP1 PUSH1 0x1 ADD SWAP1 PUSH1 0x20 ADD DUP1 DUP4 GT PUSH2 0x49E JUMPI DUP3 SWAP1 SUB PUSH1 0x1F AND DUP3 ADD SWAP2 JUMPDEST POP POP POP POP POP SWAP1 POP SWAP1 JUMP JUMPDEST DUP1 PUSH1 0x4 SWAP1 DUP1 MLOAD SWAP1 PUSH1 0x20 ADD SWAP1 PUSH2 0x4DB SWAP3 SWAP2 SWAP1 PUSH2 0x595 JUMP JUMPDEST POP POP JUMP JUMPDEST DUP1 PUSH1 0x2 SWAP1 DUP1 MLOAD SWAP1 PUSH1 0x20 ADD SWAP1 PUSH2 0x4F5 SWAP3 SWAP2 SWAP1 PUSH2 0x595 JUMP JUMPDEST POP POP JUMP JUMPDEST DUP1 PUSH1 0x1 DUP2 SWAP1 SSTORE POP POP JUMP JUMPDEST PUSH1 0x60 PUSH1 0x4 DUP1 SLOAD PUSH2 0x512 SWAP1 PUSH2 0x973 JUMP JUMPDEST DUP1 PUSH1 0x1F ADD PUSH1 0x20 DUP1 SWAP2 DIV MUL PUSH1 0x20 ADD PUSH1 0x40 MLOAD SWAP1 DUP2 ADD PUSH1 0x40 MSTORE DUP1 SWAP3 SWAP2 SWAP1 DUP2 DUP2 MSTORE PUSH1 0x20 ADD DUP3 DUP1 SLOAD PUSH2 0x53E SWAP1 PUSH2 0x973 JUMP JUMPDEST DUP1 ISZERO PUSH2 0x58B JUMPI DUP1 PUSH1 0x1F LT PUSH2 0x560 JUMPI PUSH2 0x100 DUP1 DUP4 SLOAD DIV MUL DUP4 MSTORE SWAP2 PUSH1 0x20 ADD SWAP2 PUSH2 0x58B JUMP JUMPDEST DUP3 ADD SWAP2 SWAP1 PUSH1 0x0 MSTORE PUSH1 0x20 PUSH1 0x0 KECCAK256 SWAP1 JUMPDEST DUP2 SLOAD DUP2 MSTORE SWAP1 PUSH1 0x1 ADD SWAP1 PUSH1 0x20 ADD DUP1 DUP4 GT PUSH2 0x56E JUMPI DUP3 SWAP1 SUB PUSH1 0x1F AND DUP3 ADD SWAP2 JUMPDEST POP POP POP POP POP SWAP1 POP SWAP1 JUMP JUMPDEST DUP3 DUP1 SLOAD PUSH2 0x5A1 SWAP1 PUSH2 0x973 JUMP JUMPDEST SWAP1 PUSH1 0x0 MSTORE PUSH1 0x20 PUSH1 0x0 KECCAK256 SWAP1 PUSH1 0x1F ADD PUSH1 0x20 SWAP1 DIV DUP2 ADD SWAP3 DUP3 PUSH2 0x5C3 JUMPI PUSH1 0x0 DUP6 SSTORE PUSH2 0x60A JUMP JUMPDEST DUP3 PUSH1 0x1F LT PUSH2 0x5DC JUMPI DUP1 MLOAD PUSH1 0xFF NOT AND DUP4 DUP1 ADD OR DUP6 SSTORE PUSH2 0x60A JUMP JUMPDEST DUP3 DUP1 ADD PUSH1 0x1 ADD DUP6 SSTORE DUP3 ISZERO PUSH2 0x60A JUMPI SWAP2 DUP3 ADD JUMPDEST DUP3 DUP2 GT ISZERO PUSH2 0x609 JUMPI DUP3 MLOAD DUP3 SSTORE SWAP2 PUSH1 0x20 ADD SWAP2 SWAP1 PUSH1 0x1 ADD SWAP1 PUSH2 0x5EE JUMP JUMPDEST JUMPDEST POP SWAP1 POP PUSH2 0x617 SWAP2 SWAP1 PUSH2 0x61B JUMP JUMPDEST POP SWAP1 JUMP JUMPDEST JUMPDEST DUP1 DUP3 GT ISZERO PUSH2 0x634 JUMPI PUSH1 0x0 DUP2 PUSH1 0x0 SWAP1 SSTORE POP PUSH1 0x1 ADD PUSH2 0x61C JUMP JUMPDEST POP SWAP1 JUMP JUMPDEST PUSH1 0x0 PUSH2 0x64B PUSH2 0x646 DUP5 PUSH2 0x8DA JUMP JUMPDEST PUSH2 0x8B5 JUMP JUMPDEST SWAP1 POP DUP3 DUP2 MSTORE PUSH1 0x20 DUP2 ADD DUP5 DUP5 DUP5 ADD GT ISZERO PUSH2 0x667 JUMPI PUSH2 0x666 PUSH2 0xA39 JUMP JUMPDEST JUMPDEST PUSH2 0x672 DUP5 DUP3 DUP6 PUSH2 0x931 JUMP JUMPDEST POP SWAP4 SWAP3 POP POP POP JUMP JUMPDEST PUSH1 0x0 DUP2 CALLDATALOAD SWAP1 POP PUSH2 0x689 DUP2 PUSH2 0xA59 JUMP JUMPDEST SWAP3 SWAP2 POP POP JUMP JUMPDEST PUSH1 0x0 DUP3 PUSH1 0x1F DUP4 ADD SLT PUSH2 0x6A4 JUMPI PUSH2 0x6A3 PUSH2 0xA34 JUMP JUMPDEST JUMPDEST DUP2 CALLDATALOAD PUSH2 0x6B4 DUP5 DUP3 PUSH1 0x20 DUP7 ADD PUSH2 0x638 JUMP JUMPDEST SWAP2 POP POP SWAP3 SWAP2 POP POP JUMP JUMPDEST PUSH1 0x0 PUSH1 0x20 DUP3 DUP5 SUB SLT ISZERO PUSH2 0x6D3 JUMPI PUSH2 0x6D2 PUSH2 0xA43 JUMP JUMPDEST JUMPDEST PUSH1 0x0 PUSH2 0x6E1 DUP5 DUP3 DUP6 ADD PUSH2 0x67A JUMP JUMPDEST SWAP2 POP POP SWAP3 SWAP2 POP POP JUMP JUMPDEST PUSH1 0x0 DUP1 PUSH1 0x0 DUP1 PUSH1 0x0 DUP1 PUSH1 0xC0 DUP8 DUP10 SUB SLT ISZERO PUSH2 0x707 JUMPI PUSH2 0x706 PUSH2 0xA43 JUMP JUMPDEST JUMPDEST PUSH1 0x0 PUSH2 0x715 DUP10 DUP3 DUP11 ADD PUSH2 0x67A JUMP JUMPDEST SWAP7 POP POP PUSH1 0x20 PUSH2 0x726 DUP10 DUP3 DUP11 ADD PUSH2 0x67A JUMP JUMPDEST SWAP6 POP POP PUSH1 0x40 DUP8 ADD CALLDATALOAD PUSH8 0xFFFFFFFFFFFFFFFF DUP2 GT ISZERO PUSH2 0x747 JUMPI PUSH2 0x746 PUSH2 0xA3E JUMP JUMPDEST JUMPDEST PUSH2 0x753 DUP10 DUP3 DUP11 ADD PUSH2 0x68F JUMP JUMPDEST SWAP5 POP POP PUSH1 0x60 DUP8 ADD CALLDATALOAD PUSH8 0xFFFFFFFFFFFFFFFF DUP2 GT ISZERO PUSH2 0x774 JUMPI PUSH2 0x773 PUSH2 0xA3E JUMP JUMPDEST JUMPDEST PUSH2 0x780 DUP10 DUP3 DUP11 ADD PUSH2 0x68F JUMP JUMPDEST SWAP4 POP POP PUSH1 0x80 DUP8 ADD CALLDATALOAD PUSH8 0xFFFFFFFFFFFFFFFF DUP2 GT ISZERO PUSH2 0x7A1 JUMPI PUSH2 0x7A0 PUSH2 0xA3E JUMP JUMPDEST JUMPDEST PUSH2 0x7AD DUP10 DUP3 DUP11 ADD PUSH2 0x68F JUMP JUMPDEST SWAP3 POP POP PUSH1 0xA0 DUP8 ADD CALLDATALOAD PUSH8 0xFFFFFFFFFFFFFFFF DUP2 GT ISZERO PUSH2 0x7CE JUMPI PUSH2 0x7CD PUSH2 0xA3E JUMP JUMPDEST JUMPDEST PUSH2 0x7DA DUP10 DUP3 DUP11 ADD PUSH2 0x68F JUMP JUMPDEST SWAP2 POP POP SWAP3 SWAP6 POP SWAP3 SWAP6 POP SWAP3 SWAP6 JUMP JUMPDEST PUSH1 0x0 PUSH1 0x20 DUP3 DUP5 SUB SLT ISZERO PUSH2 0x7FD JUMPI PUSH2 0x7FC PUSH2 0xA43 JUMP JUMPDEST JUMPDEST PUSH1 0x0 DUP3 ADD CALLDATALOAD PUSH8 0xFFFFFFFFFFFFFFFF DUP2 GT ISZERO PUSH2 0x81B JUMPI PUSH2 0x81A PUSH2 0xA3E JUMP JUMPDEST JUMPDEST PUSH2 0x827 DUP5 DUP3 DUP6 ADD PUSH2 0x68F JUMP JUMPDEST SWAP2 POP POP SWAP3 SWAP2 POP POP JUMP JUMPDEST PUSH2 0x839 DUP2 PUSH2 0x927 JUMP JUMPDEST DUP3 MSTORE POP POP JUMP JUMPDEST PUSH1 0x0 PUSH2 0x84A DUP3 PUSH2 0x90B JUMP JUMPDEST PUSH2 0x854 DUP2 DUP6 PUSH2 0x916 JUMP JUMPDEST SWAP4 POP PUSH2 0x864 DUP2 DUP6 PUSH1 0x20 DUP7 ADD PUSH2 0x940 JUMP JUMPDEST PUSH2 0x86D DUP2 PUSH2 0xA48 JUMP JUMPDEST DUP5 ADD SWAP2 POP POP SWAP3 SWAP2 POP POP JUMP JUMPDEST PUSH1 0x0 PUSH1 0x20 DUP3 ADD SWAP1 POP PUSH2 0x88D PUSH1 0x0 DUP4 ADD DUP5 PUSH2 0x830 JUMP JUMPDEST SWAP3 SWAP2 POP POP JUMP JUMPDEST PUSH1 0x0 PUSH1 0x20 DUP3 ADD SWAP1 POP DUP2 DUP2 SUB PUSH1 0x0 DUP4 ADD MSTORE PUSH2 0x8AD DUP2 DUP5 PUSH2 0x83F JUMP JUMPDEST SWAP1 POP SWAP3 SWAP2 POP POP JUMP JUMPDEST PUSH1 0x0 PUSH2 0x8BF PUSH2 0x8D0 JUMP JUMPDEST SWAP1 POP PUSH2 0x8CB DUP3 DUP3 PUSH2 0x9A5 JUMP JUMPDEST SWAP2 SWAP1 POP JUMP JUMPDEST PUSH1 0x0 PUSH1 0x40 MLOAD SWAP1 POP SWAP1 JUMP JUMPDEST PUSH1 0x0 PUSH8 0xFFFFFFFFFFFFFFFF DUP3 GT ISZERO PUSH2 0x8F5 JUMPI PUSH2 0x8F4 PUSH2 0xA05 JUMP JUMPDEST JUMPDEST PUSH2 0x8FE DUP3 PUSH2 0xA48 JUMP JUMPDEST SWAP1 POP PUSH1 0x20 DUP2 ADD SWAP1 POP SWAP2 SWAP1 POP JUMP JUMPDEST PUSH1 0x0 DUP2 MLOAD SWAP1 POP SWAP2 SWAP1 POP JUMP JUMPDEST PUSH1 0x0 DUP3 DUP3 MSTORE PUSH1 0x20 DUP3 ADD SWAP1 POP SWAP3 SWAP2 POP POP JUMP JUMPDEST PUSH1 0x0 DUP2 SWAP1 POP SWAP2 SWAP1 POP JUMP JUMPDEST DUP3 DUP2 DUP4 CALLDATACOPY PUSH1 0x0 DUP4 DUP4 ADD MSTORE POP POP POP JUMP JUMPDEST PUSH1 0x0 JUMPDEST DUP4 DUP2 LT ISZERO PUSH2 0x95E JUMPI DUP1 DUP3 ADD MLOAD DUP2 DUP5 ADD MSTORE PUSH1 0x20 DUP2 ADD SWAP1 POP PUSH2 0x943 JUMP JUMPDEST DUP4 DUP2 GT ISZERO PUSH2 0x96D JUMPI PUSH1 0x0 DUP5 DUP5 ADD MSTORE JUMPDEST POP POP POP POP JUMP JUMPDEST PUSH1 0x0 PUSH1 0x2 DUP3 DIV SWAP1 POP PUSH1 0x1 DUP3 AND DUP1 PUSH2 0x98B JUMPI PUSH1 0x7F DUP3 AND SWAP2 POP JUMPDEST PUSH1 0x20 DUP3 LT DUP2 EQ ISZERO PUSH2 0x99F JUMPI PUSH2 0x99E PUSH2 0x9D6 JUMP JUMPDEST JUMPDEST POP SWAP2 SWAP1 POP JUMP JUMPDEST PUSH2 0x9AE DUP3 PUSH2 0xA48 JUMP JUMPDEST DUP2 ADD DUP2 DUP2 LT PUSH8 0xFFFFFFFFFFFFFFFF DUP3 GT OR ISZERO PUSH2 0x9CD JUMPI PUSH2 0x9CC PUSH2 0xA05 JUMP JUMPDEST JUMPDEST DUP1 PUSH1 0x40 MSTORE POP POP POP JUMP JUMPDEST PUSH32 0x4E487B7100000000000000000000000000000000000000000000000000000000 PUSH1 0x0 MSTORE PUSH1 0x22 PUSH1 0x4 MSTORE PUSH1 0x24 PUSH1 0x0 REVERT JUMPDEST PUSH32 0x4E487B7100000000000000000000000000000000000000000000000000000000 PUSH1 0x0 MSTORE PUSH1 0x41 PUSH1 0x4 MSTORE PUSH1 0x24 PUSH1 0x0 REVERT JUMPDEST PUSH1 0x0 DUP1 REVERT JUMPDEST PUSH1 0x0 DUP1 REVERT JUMPDEST PUSH1 0x0 DUP1 REVERT JUMPDEST PUSH1 0x0 DUP1 REVERT JUMPDEST PUSH1 0x0 PUSH1 0x1F NOT PUSH1 0x1F DUP4 ADD AND SWAP1 POP SWAP2 SWAP1 POP JUMP JUMPDEST PUSH2 0xA62 DUP2 PUSH2 0x927 JUMP JUMPDEST DUP2 EQ PUSH2 0xA6D JUMPI PUSH1 0x0 DUP1 REVERT JUMPDEST POP JUMP INVALID LOG2 PUSH5 0x6970667358 0x22 SLT KECCAK256 0xE5 SUB DUP10 MULMOD CALL CREATE 0xB8 BASEFEE 0xCD LOG3 0xE PUSH11 0x9A5B24043114DA8678CB66 EXP PUSH25 0xBBE1D6D973ED5A64736F6C6343000807003300000000000000 "
				},
				"gasEstimates": {
					"creation": {
						"codeDepositCost": "545200",
						"executionCost": "infinite",
						"totalCost": "infinite"
					},
					"external": {
						"getAppointmentDate()": "infinite",
						"getAppointmentType()": "infinite",
						"getCost()": "infinite",
						"getIDBovine()": "2460",
						"getIDVeterinary()": "2438",
						"getObservation()": "infinite",
						"setAppointmentDate(string)": "infinite",
						"setAppointmentType(string)": "infinite",
						"setCost(string)": "infinite",
						"setIDBovine(int256)": "22631",
						"setIDVeterinary(int256)": "22586",
						"setObservation(string)": "infinite",
						"updateAppointment(int256,int256,string,string,string,string)": "infinite"
					}
				},
				"methodIdentifiers": {
					"getAppointmentDate()": "2b843201",
					"getAppointmentType()": "54cc2739",
					"getCost()": "bd3e19d4",
					"getIDBovine()": "0a550ef3",
					"getIDVeterinary()": "077a2972",
					"getObservation()": "6b2b1ab9",
					"setAppointmentDate(string)": "98f52bd7",
					"setAppointmentType(string)": "58a1bb32",
					"setCost(string)": "6e97e4a8",
					"setIDBovine(int256)": "3c38ec09",
					"setIDVeterinary(int256)": "ad8f8d95",
					"setObservation(string)": "2e25fa47",
					"updateAppointment(int256,int256,string,string,string,string)": "25d83277"
				}
			},
			"storageLayout": {
				"storage": [
					{
						"astId": 3,
						"contract": "contracts/Appointment.sol:Appointment",
						"label": "idBovine",
						"offset": 0,
						"slot": "0",
						"type": "t_int256"
					},
					{
						"astId": 5,
						"contract": "contracts/Appointment.sol:Appointment",
						"label": "idVeterinary",
						"offset": 0,
						"slot": "1",
						"type": "t_int256"
					},
					{
						"astId": 7,
						"contract": "contracts/Appointment.sol:Appointment",
						"label": "appointmentDate",
						"offset": 0,
						"slot": "2",
						"type": "t_string_storage"
					},
					{
						"astId": 9,
						"contract": "contracts/Appointment.sol:Appointment",
						"label": "appointmentType",
						"offset": 0,
						"slot": "3",
						"type": "t_string_storage"
					},
					{
						"astId": 11,
						"contract": "contracts/Appointment.sol:Appointment",
						"label": "cost",
						"offset": 0,
						"slot": "4",
						"type": "t_string_storage"
					},
					{
						"astId": 13,
						"contract": "contracts/Appointment.sol:Appointment",
						"label": "observation",
						"offset": 0,
						"slot": "5",
						"type": "t_string_storage"
					}
				],
				"types": {
					"t_int256": {
						"encoding": "inplace",
						"label": "int256",
						"numberOfBytes": "32"
					},
					"t_string_storage": {
						"encoding": "bytes",
						"label": "string",
						"numberOfBytes": "32"
					}
				}
			},
			"userdoc": {
				"kind": "user",
				"methods": {},
				"version": 1
			}
		}
	}
}