{
	"contracts/Field.sol": {
		"Field": {
			"abi": [
				{
					"inputs": [
						{
							"internalType": "string",
							"name": "_fieldDescription",
							"type": "string"
						},
						{
							"internalType": "string",
							"name": "_latitude",
							"type": "string"
						},
						{
							"internalType": "string",
							"name": "_longitude",
							"type": "string"
						},
						{
							"internalType": "bool",
							"name": "_active",
							"type": "bool"
						},
						{
							"internalType": "string",
							"name": "_observation",
							"type": "string"
						}
					],
					"stateMutability": "nonpayable",
					"type": "constructor"
				},
				{
					"inputs": [],
					"name": "getActive",
					"outputs": [
						{
							"internalType": "bool",
							"name": "",
							"type": "bool"
						}
					],
					"stateMutability": "view",
					"type": "function"
				},
				{
					"inputs": [],
					"name": "getFieldDescription",
					"outputs": [
						{
							"internalType": "string",
							"name": "",
							"type": "string"
						}
					],
					"stateMutability": "view",
					"type": "function"
				},
				{
					"inputs": [],
					"name": "getLatitude",
					"outputs": [
						{
							"internalType": "string",
							"name": "",
							"type": "string"
						}
					],
					"stateMutability": "view",
					"type": "function"
				},
				{
					"inputs": [],
					"name": "getLongitude",
					"outputs": [
						{
							"internalType": "string",
							"name": "",
							"type": "string"
						}
					],
					"stateMutability": "view",
					"type": "function"
				},
				{
					"inputs": [],
					"name": "getObservation",
					"outputs": [
						{
							"internalType": "string",
							"name": "",
							"type": "string"
						}
					],
					"stateMutability": "view",
					"type": "function"
				},
				{
					"inputs": [
						{
							"internalType": "bool",
							"name": "_active",
							"type": "bool"
						}
					],
					"name": "setActive",
					"outputs": [],
					"stateMutability": "nonpayable",
					"type": "function"
				},
				{
					"inputs": [
						{
							"internalType": "string",
							"name": "_fieldDescription",
							"type": "string"
						}
					],
					"name": "setFieldDescription",
					"outputs": [],
					"stateMutability": "nonpayable",
					"type": "function"
				},
				{
					"inputs": [
						{
							"internalType": "string",
							"name": "_latitude",
							"type": "string"
						}
					],
					"name": "setLatitude",
					"outputs": [],
					"stateMutability": "nonpayable",
					"type": "function"
				},
				{
					"inputs": [
						{
							"internalType": "string",
							"name": "_longitude",
							"type": "string"
						}
					],
					"name": "setLongitude",
					"outputs": [],
					"stateMutability": "nonpayable",
					"type": "function"
				},
				{
					"inputs": [
						{
							"internalType": "string",
							"name": "_observation",
							"type": "string"
						}
					],
					"name": "setObservation",
					"outputs": [],
					"stateMutability": "nonpayable",
					"type": "function"
				},
				{
					"inputs": [
						{
							"internalType": "string",
							"name": "_fieldDescription",
							"type": "string"
						},
						{
							"internalType": "string",
							"name": "_latitude",
							"type": "string"
						},
						{
							"internalType": "string",
							"name": "_longitude",
							"type": "string"
						},
						{
							"internalType": "bool",
							"name": "_active",
							"type": "bool"
						},
						{
							"internalType": "string",
							"name": "_observation",
							"type": "string"
						}
					],
					"name": "updateField",
					"outputs": [],
					"stateMutability": "nonpayable",
					"type": "function"
				}
			],
			"devdoc": {
				"kind": "dev",
				"methods": {},
				"version": 1
			},
			"evm": {
				"assembly": "    /* \"contracts/Field.sol\":71:1985  contract Field{\r... */\n  mstore(0x40, 0x80)\n    /* \"contracts/Field.sol\":222:550  constructor(string memory _fieldDescription, string memory _latitude, string memory _longitude, bool _active, string memory _observation) public {\r... */\n  callvalue\n  dup1\n  iszero\n  tag_1\n  jumpi\n  0x00\n  dup1\n  revert\ntag_1:\n  pop\n  mload(0x40)\n  sub(codesize, bytecodeSize)\n  dup1\n  bytecodeSize\n  dup4\n  codecopy\n  dup2\n  dup2\n  add\n  0x40\n  mstore\n  dup2\n  add\n  swap1\n  tag_2\n  swap2\n  swap1\n  tag_3\n  jump\t// in\ntag_2:\n    /* \"contracts/Field.sol\":397:414  _fieldDescription */\n  dup5\n    /* \"contracts/Field.sol\":378:394  fieldDescription */\n  0x00\n    /* \"contracts/Field.sol\":378:414  fieldDescription = _fieldDescription */\n  swap1\n  dup1\n  mload\n  swap1\n  0x20\n  add\n  swap1\n  tag_6\n  swap3\n  swap2\n  swap1\n  tag_7\n  jump\t// in\ntag_6:\n  pop\n    /* \"contracts/Field.sol\":436:445  _latitude */\n  dup4\n    /* \"contracts/Field.sol\":425:433  latitude */\n  0x01\n    /* \"contracts/Field.sol\":425:445  latitude = _latitude */\n  swap1\n  dup1\n  mload\n  swap1\n  0x20\n  add\n  swap1\n  tag_8\n  swap3\n  swap2\n  swap1\n  tag_7\n  jump\t// in\ntag_8:\n  pop\n    /* \"contracts/Field.sol\":468:478  _longitude */\n  dup3\n    /* \"contracts/Field.sol\":456:465  longitude */\n  0x02\n    /* \"contracts/Field.sol\":456:478  longitude = _longitude */\n  swap1\n  dup1\n  mload\n  swap1\n  0x20\n  add\n  swap1\n  tag_9\n  swap3\n  swap2\n  swap1\n  tag_7\n  jump\t// in\ntag_9:\n  pop\n    /* \"contracts/Field.sol\":498:505  _active */\n  dup2\n    /* \"contracts/Field.sol\":489:495  active */\n  0x03\n  0x00\n    /* \"contracts/Field.sol\":489:505  active = _active */\n  0x0100\n  exp\n  dup2\n  sload\n  dup2\n  0xff\n  mul\n  not\n  and\n  swap1\n  dup4\n  iszero\n  iszero\n  mul\n  or\n  swap1\n  sstore\n  pop\n    /* \"contracts/Field.sol\":530:542  _observation */\n  dup1\n    /* \"contracts/Field.sol\":516:527  observation */\n  0x04\n    /* \"contracts/Field.sol\":516:542  observation = _observation */\n  swap1\n  dup1\n  mload\n  swap1\n  0x20\n  add\n  swap1\n  tag_10\n  swap3\n  swap2\n  swap1\n  tag_7\n  jump\t// in\ntag_10:\n  pop\n    /* \"contracts/Field.sol\":222:550  constructor(string memory _fieldDescription, string memory _latitude, string memory _longitude, bool _active, string memory _observation) public {\r... */\n  pop\n  pop\n  pop\n  pop\n  pop\n    /* \"contracts/Field.sol\":71:1985  contract Field{\r... */\n  jump(tag_11)\ntag_7:\n  dup3\n  dup1\n  sload\n  tag_12\n  swap1\n  tag_13\n  jump\t// in\ntag_12:\n  swap1\n  0x00\n  mstore\n  keccak256(0x00, 0x20)\n  swap1\n  0x1f\n  add\n  0x20\n  swap1\n  div\n  dup2\n  add\n  swap3\n  dup3\n  tag_15\n  jumpi\n  0x00\n  dup6\n  sstore\n  jump(tag_14)\ntag_15:\n  dup3\n  0x1f\n  lt\n  tag_16\n  jumpi\n  dup1\n  mload\n  not(0xff)\n  and\n  dup4\n  dup1\n  add\n  or\n  dup6\n  sstore\n  jump(tag_14)\ntag_16:\n  dup3\n  dup1\n  add\n  0x01\n  add\n  dup6\n  sstore\n  dup3\n  iszero\n  tag_14\n  jumpi\n  swap2\n  dup3\n  add\ntag_17:\n  dup3\n  dup2\n  gt\n  iszero\n  tag_18\n  jumpi\n  dup3\n  mload\n  dup3\n  sstore\n  swap2\n  0x20\n  add\n  swap2\n  swap1\n  0x01\n  add\n  swap1\n  jump(tag_17)\ntag_18:\ntag_14:\n  pop\n  swap1\n  pop\n  tag_19\n  swap2\n  swap1\n  tag_20\n  jump\t// in\ntag_19:\n  pop\n  swap1\n  jump\t// out\ntag_20:\ntag_21:\n  dup1\n  dup3\n  gt\n  iszero\n  tag_22\n  jumpi\n  0x00\n  dup2\n  0x00\n  swap1\n  sstore\n  pop\n  0x01\n  add\n  jump(tag_21)\ntag_22:\n  pop\n  swap1\n  jump\t// out\n    /* \"#utility.yul\":7:428   */\ntag_24:\n    /* \"#utility.yul\":96:101   */\n  0x00\n    /* \"#utility.yul\":121:187   */\n  tag_26\n    /* \"#utility.yul\":137:186   */\n  tag_27\n    /* \"#utility.yul\":179:185   */\n  dup5\n    /* \"#utility.yul\":137:186   */\n  tag_28\n  jump\t// in\ntag_27:\n    /* \"#utility.yul\":121:187   */\n  tag_29\n  jump\t// in\ntag_26:\n    /* \"#utility.yul\":112:187   */\n  swap1\n  pop\n    /* \"#utility.yul\":210:216   */\n  dup3\n    /* \"#utility.yul\":203:208   */\n  dup2\n    /* \"#utility.yul\":196:217   */\n  mstore\n    /* \"#utility.yul\":248:252   */\n  0x20\n    /* \"#utility.yul\":241:246   */\n  dup2\n    /* \"#utility.yul\":237:253   */\n  add\n    /* \"#utility.yul\":286:289   */\n  dup5\n    /* \"#utility.yul\":277:283   */\n  dup5\n    /* \"#utility.yul\":272:275   */\n  dup5\n    /* \"#utility.yul\":268:284   */\n  add\n    /* \"#utility.yul\":265:290   */\n  gt\n    /* \"#utility.yul\":262:374   */\n  iszero\n  tag_30\n  jumpi\n    /* \"#utility.yul\":293:372   */\n  tag_31\n  tag_32\n  jump\t// in\ntag_31:\n    /* \"#utility.yul\":262:374   */\ntag_30:\n    /* \"#utility.yul\":383:422   */\n  tag_33\n    /* \"#utility.yul\":415:421   */\n  dup5\n    /* \"#utility.yul\":410:413   */\n  dup3\n    /* \"#utility.yul\":405:408   */\n  dup6\n    /* \"#utility.yul\":383:422   */\n  tag_34\n  jump\t// in\ntag_33:\n    /* \"#utility.yul\":102:428   */\n  pop\n    /* \"#utility.yul\":7:428   */\n  swap4\n  swap3\n  pop\n  pop\n  pop\n  jump\t// out\n    /* \"#utility.yul\":434:571   */\ntag_35:\n    /* \"#utility.yul\":488:493   */\n  0x00\n    /* \"#utility.yul\":519:525   */\n  dup2\n    /* \"#utility.yul\":513:526   */\n  mload\n    /* \"#utility.yul\":504:526   */\n  swap1\n  pop\n    /* \"#utility.yul\":535:565   */\n  tag_37\n    /* \"#utility.yul\":559:564   */\n  dup2\n    /* \"#utility.yul\":535:565   */\n  tag_38\n  jump\t// in\ntag_37:\n    /* \"#utility.yul\":434:571   */\n  swap3\n  swap2\n  pop\n  pop\n  jump\t// out\n    /* \"#utility.yul\":591:946   */\ntag_39:\n    /* \"#utility.yul\":658:663   */\n  0x00\n    /* \"#utility.yul\":707:710   */\n  dup3\n    /* \"#utility.yul\":700:704   */\n  0x1f\n    /* \"#utility.yul\":692:698   */\n  dup4\n    /* \"#utility.yul\":688:705   */\n  add\n    /* \"#utility.yul\":684:711   */\n  slt\n    /* \"#utility.yul\":674:796   */\n  tag_41\n  jumpi\n    /* \"#utility.yul\":715:794   */\n  tag_42\n  tag_43\n  jump\t// in\ntag_42:\n    /* \"#utility.yul\":674:796   */\ntag_41:\n    /* \"#utility.yul\":825:831   */\n  dup2\n    /* \"#utility.yul\":819:832   */\n  mload\n    /* \"#utility.yul\":850:940   */\n  tag_44\n    /* \"#utility.yul\":936:939   */\n  dup5\n    /* \"#utility.yul\":928:934   */\n  dup3\n    /* \"#utility.yul\":921:925   */\n  0x20\n    /* \"#utility.yul\":913:919   */\n  dup7\n    /* \"#utility.yul\":909:926   */\n  add\n    /* \"#utility.yul\":850:940   */\n  tag_24\n  jump\t// in\ntag_44:\n    /* \"#utility.yul\":841:940   */\n  swap2\n  pop\n    /* \"#utility.yul\":664:946   */\n  pop\n    /* \"#utility.yul\":591:946   */\n  swap3\n  swap2\n  pop\n  pop\n  jump\t// out\n    /* \"#utility.yul\":952:2615   */\ntag_3:\n    /* \"#utility.yul\":1095:1101   */\n  0x00\n    /* \"#utility.yul\":1103:1109   */\n  dup1\n    /* \"#utility.yul\":1111:1117   */\n  0x00\n    /* \"#utility.yul\":1119:1125   */\n  dup1\n    /* \"#utility.yul\":1127:1133   */\n  0x00\n    /* \"#utility.yul\":1176:1179   */\n  0xa0\n    /* \"#utility.yul\":1164:1173   */\n  dup7\n    /* \"#utility.yul\":1155:1162   */\n  dup9\n    /* \"#utility.yul\":1151:1174   */\n  sub\n    /* \"#utility.yul\":1147:1180   */\n  slt\n    /* \"#utility.yul\":1144:1264   */\n  iszero\n  tag_46\n  jumpi\n    /* \"#utility.yul\":1183:1262   */\n  tag_47\n  tag_48\n  jump\t// in\ntag_47:\n    /* \"#utility.yul\":1144:1264   */\ntag_46:\n    /* \"#utility.yul\":1324:1325   */\n  0x00\n    /* \"#utility.yul\":1313:1322   */\n  dup7\n    /* \"#utility.yul\":1309:1326   */\n  add\n    /* \"#utility.yul\":1303:1327   */\n  mload\n    /* \"#utility.yul\":1354:1372   */\n  0xffffffffffffffff\n    /* \"#utility.yul\":1346:1352   */\n  dup2\n    /* \"#utility.yul\":1343:1373   */\n  gt\n    /* \"#utility.yul\":1340:1457   */\n  iszero\n  tag_49\n  jumpi\n    /* \"#utility.yul\":1376:1455   */\n  tag_50\n  tag_51\n  jump\t// in\ntag_50:\n    /* \"#utility.yul\":1340:1457   */\ntag_49:\n    /* \"#utility.yul\":1481:1555   */\n  tag_52\n    /* \"#utility.yul\":1547:1554   */\n  dup9\n    /* \"#utility.yul\":1538:1544   */\n  dup3\n    /* \"#utility.yul\":1527:1536   */\n  dup10\n    /* \"#utility.yul\":1523:1545   */\n  add\n    /* \"#utility.yul\":1481:1555   */\n  tag_39\n  jump\t// in\ntag_52:\n    /* \"#utility.yul\":1471:1555   */\n  swap6\n  pop\n    /* \"#utility.yul\":1274:1565   */\n  pop\n    /* \"#utility.yul\":1625:1627   */\n  0x20\n    /* \"#utility.yul\":1614:1623   */\n  dup7\n    /* \"#utility.yul\":1610:1628   */\n  add\n    /* \"#utility.yul\":1604:1629   */\n  mload\n    /* \"#utility.yul\":1656:1674   */\n  0xffffffffffffffff\n    /* \"#utility.yul\":1648:1654   */\n  dup2\n    /* \"#utility.yul\":1645:1675   */\n  gt\n    /* \"#utility.yul\":1642:1759   */\n  iszero\n  tag_53\n  jumpi\n    /* \"#utility.yul\":1678:1757   */\n  tag_54\n  tag_51\n  jump\t// in\ntag_54:\n    /* \"#utility.yul\":1642:1759   */\ntag_53:\n    /* \"#utility.yul\":1783:1857   */\n  tag_55\n    /* \"#utility.yul\":1849:1856   */\n  dup9\n    /* \"#utility.yul\":1840:1846   */\n  dup3\n    /* \"#utility.yul\":1829:1838   */\n  dup10\n    /* \"#utility.yul\":1825:1847   */\n  add\n    /* \"#utility.yul\":1783:1857   */\n  tag_39\n  jump\t// in\ntag_55:\n    /* \"#utility.yul\":1773:1857   */\n  swap5\n  pop\n    /* \"#utility.yul\":1575:1867   */\n  pop\n    /* \"#utility.yul\":1927:1929   */\n  0x40\n    /* \"#utility.yul\":1916:1925   */\n  dup7\n    /* \"#utility.yul\":1912:1930   */\n  add\n    /* \"#utility.yul\":1906:1931   */\n  mload\n    /* \"#utility.yul\":1958:1976   */\n  0xffffffffffffffff\n    /* \"#utility.yul\":1950:1956   */\n  dup2\n    /* \"#utility.yul\":1947:1977   */\n  gt\n    /* \"#utility.yul\":1944:2061   */\n  iszero\n  tag_56\n  jumpi\n    /* \"#utility.yul\":1980:2059   */\n  tag_57\n  tag_51\n  jump\t// in\ntag_57:\n    /* \"#utility.yul\":1944:2061   */\ntag_56:\n    /* \"#utility.yul\":2085:2159   */\n  tag_58\n    /* \"#utility.yul\":2151:2158   */\n  dup9\n    /* \"#utility.yul\":2142:2148   */\n  dup3\n    /* \"#utility.yul\":2131:2140   */\n  dup10\n    /* \"#utility.yul\":2127:2149   */\n  add\n    /* \"#utility.yul\":2085:2159   */\n  tag_39\n  jump\t// in\ntag_58:\n    /* \"#utility.yul\":2075:2159   */\n  swap4\n  pop\n    /* \"#utility.yul\":1877:2169   */\n  pop\n    /* \"#utility.yul\":2208:2210   */\n  0x60\n    /* \"#utility.yul\":2234:2295   */\n  tag_59\n    /* \"#utility.yul\":2287:2294   */\n  dup9\n    /* \"#utility.yul\":2278:2284   */\n  dup3\n    /* \"#utility.yul\":2267:2276   */\n  dup10\n    /* \"#utility.yul\":2263:2285   */\n  add\n    /* \"#utility.yul\":2234:2295   */\n  tag_35\n  jump\t// in\ntag_59:\n    /* \"#utility.yul\":2224:2295   */\n  swap3\n  pop\n    /* \"#utility.yul\":2179:2305   */\n  pop\n    /* \"#utility.yul\":2365:2368   */\n  0x80\n    /* \"#utility.yul\":2354:2363   */\n  dup7\n    /* \"#utility.yul\":2350:2369   */\n  add\n    /* \"#utility.yul\":2344:2370   */\n  mload\n    /* \"#utility.yul\":2397:2415   */\n  0xffffffffffffffff\n    /* \"#utility.yul\":2389:2395   */\n  dup2\n    /* \"#utility.yul\":2386:2416   */\n  gt\n    /* \"#utility.yul\":2383:2500   */\n  iszero\n  tag_60\n  jumpi\n    /* \"#utility.yul\":2419:2498   */\n  tag_61\n  tag_51\n  jump\t// in\ntag_61:\n    /* \"#utility.yul\":2383:2500   */\ntag_60:\n    /* \"#utility.yul\":2524:2598   */\n  tag_62\n    /* \"#utility.yul\":2590:2597   */\n  dup9\n    /* \"#utility.yul\":2581:2587   */\n  dup3\n    /* \"#utility.yul\":2570:2579   */\n  dup10\n    /* \"#utility.yul\":2566:2588   */\n  add\n    /* \"#utility.yul\":2524:2598   */\n  tag_39\n  jump\t// in\ntag_62:\n    /* \"#utility.yul\":2514:2598   */\n  swap2\n  pop\n    /* \"#utility.yul\":2315:2608   */\n  pop\n    /* \"#utility.yul\":952:2615   */\n  swap3\n  swap6\n  pop\n  swap3\n  swap6\n  swap1\n  swap4\n  pop\n  jump\t// out\n    /* \"#utility.yul\":2621:2750   */\ntag_29:\n    /* \"#utility.yul\":2655:2661   */\n  0x00\n    /* \"#utility.yul\":2682:2702   */\n  tag_64\n  tag_65\n  jump\t// in\ntag_64:\n    /* \"#utility.yul\":2672:2702   */\n  swap1\n  pop\n    /* \"#utility.yul\":2711:2744   */\n  tag_66\n    /* \"#utility.yul\":2739:2743   */\n  dup3\n    /* \"#utility.yul\":2731:2737   */\n  dup3\n    /* \"#utility.yul\":2711:2744   */\n  tag_67\n  jump\t// in\ntag_66:\n    /* \"#utility.yul\":2621:2750   */\n  swap2\n  swap1\n  pop\n  jump\t// out\n    /* \"#utility.yul\":2756:2831   */\ntag_65:\n    /* \"#utility.yul\":2789:2795   */\n  0x00\n    /* \"#utility.yul\":2822:2824   */\n  0x40\n    /* \"#utility.yul\":2816:2825   */\n  mload\n    /* \"#utility.yul\":2806:2825   */\n  swap1\n  pop\n    /* \"#utility.yul\":2756:2831   */\n  swap1\n  jump\t// out\n    /* \"#utility.yul\":2837:3145   */\ntag_28:\n    /* \"#utility.yul\":2899:2903   */\n  0x00\n    /* \"#utility.yul\":2989:3007   */\n  0xffffffffffffffff\n    /* \"#utility.yul\":2981:2987   */\n  dup3\n    /* \"#utility.yul\":2978:3008   */\n  gt\n    /* \"#utility.yul\":2975:3031   */\n  iszero\n  tag_70\n  jumpi\n    /* \"#utility.yul\":3011:3029   */\n  tag_71\n  tag_72\n  jump\t// in\ntag_71:\n    /* \"#utility.yul\":2975:3031   */\ntag_70:\n    /* \"#utility.yul\":3049:3078   */\n  tag_73\n    /* \"#utility.yul\":3071:3077   */\n  dup3\n    /* \"#utility.yul\":3049:3078   */\n  tag_74\n  jump\t// in\ntag_73:\n    /* \"#utility.yul\":3041:3078   */\n  swap1\n  pop\n    /* \"#utility.yul\":3133:3137   */\n  0x20\n    /* \"#utility.yul\":3127:3131   */\n  dup2\n    /* \"#utility.yul\":3123:3138   */\n  add\n    /* \"#utility.yul\":3115:3138   */\n  swap1\n  pop\n    /* \"#utility.yul\":2837:3145   */\n  swap2\n  swap1\n  pop\n  jump\t// out\n    /* \"#utility.yul\":3151:3241   */\ntag_75:\n    /* \"#utility.yul\":3185:3192   */\n  0x00\n    /* \"#utility.yul\":3228:3233   */\n  dup2\n    /* \"#utility.yul\":3221:3234   */\n  iszero\n    /* \"#utility.yul\":3214:3235   */\n  iszero\n    /* \"#utility.yul\":3203:3235   */\n  swap1\n  pop\n    /* \"#utility.yul\":3151:3241   */\n  swap2\n  swap1\n  pop\n  jump\t// out\n    /* \"#utility.yul\":3247:3554   */\ntag_34:\n    /* \"#utility.yul\":3315:3316   */\n  0x00\n    /* \"#utility.yul\":3325:3438   */\ntag_78:\n    /* \"#utility.yul\":3339:3345   */\n  dup4\n    /* \"#utility.yul\":3336:3337   */\n  dup2\n    /* \"#utility.yul\":3333:3346   */\n  lt\n    /* \"#utility.yul\":3325:3438   */\n  iszero\n  tag_80\n  jumpi\n    /* \"#utility.yul\":3424:3425   */\n  dup1\n    /* \"#utility.yul\":3419:3422   */\n  dup3\n    /* \"#utility.yul\":3415:3426   */\n  add\n    /* \"#utility.yul\":3409:3427   */\n  mload\n    /* \"#utility.yul\":3405:3406   */\n  dup2\n    /* \"#utility.yul\":3400:3403   */\n  dup5\n    /* \"#utility.yul\":3396:3407   */\n  add\n    /* \"#utility.yul\":3389:3428   */\n  mstore\n    /* \"#utility.yul\":3361:3363   */\n  0x20\n    /* \"#utility.yul\":3358:3359   */\n  dup2\n    /* \"#utility.yul\":3354:3364   */\n  add\n    /* \"#utility.yul\":3349:3364   */\n  swap1\n  pop\n    /* \"#utility.yul\":3325:3438   */\n  jump(tag_78)\ntag_80:\n    /* \"#utility.yul\":3456:3462   */\n  dup4\n    /* \"#utility.yul\":3453:3454   */\n  dup2\n    /* \"#utility.yul\":3450:3463   */\n  gt\n    /* \"#utility.yul\":3447:3548   */\n  iszero\n  tag_81\n  jumpi\n    /* \"#utility.yul\":3536:3537   */\n  0x00\n    /* \"#utility.yul\":3527:3533   */\n  dup5\n    /* \"#utility.yul\":3522:3525   */\n  dup5\n    /* \"#utility.yul\":3518:3534   */\n  add\n    /* \"#utility.yul\":3511:3538   */\n  mstore\n    /* \"#utility.yul\":3447:3548   */\ntag_81:\n    /* \"#utility.yul\":3296:3554   */\n  pop\n    /* \"#utility.yul\":3247:3554   */\n  pop\n  pop\n  pop\n  jump\t// out\n    /* \"#utility.yul\":3560:3880   */\ntag_13:\n    /* \"#utility.yul\":3604:3610   */\n  0x00\n    /* \"#utility.yul\":3641:3642   */\n  0x02\n    /* \"#utility.yul\":3635:3639   */\n  dup3\n    /* \"#utility.yul\":3631:3643   */\n  div\n    /* \"#utility.yul\":3621:3643   */\n  swap1\n  pop\n    /* \"#utility.yul\":3688:3689   */\n  0x01\n    /* \"#utility.yul\":3682:3686   */\n  dup3\n    /* \"#utility.yul\":3678:3690   */\n  and\n    /* \"#utility.yul\":3709:3727   */\n  dup1\n    /* \"#utility.yul\":3699:3780   */\n  tag_83\n  jumpi\n    /* \"#utility.yul\":3765:3769   */\n  0x7f\n    /* \"#utility.yul\":3757:3763   */\n  dup3\n    /* \"#utility.yul\":3753:3770   */\n  and\n    /* \"#utility.yul\":3743:3770   */\n  swap2\n  pop\n    /* \"#utility.yul\":3699:3780   */\ntag_83:\n    /* \"#utility.yul\":3827:3829   */\n  0x20\n    /* \"#utility.yul\":3819:3825   */\n  dup3\n    /* \"#utility.yul\":3816:3830   */\n  lt\n    /* \"#utility.yul\":3796:3814   */\n  dup2\n    /* \"#utility.yul\":3793:3831   */\n  eq\n    /* \"#utility.yul\":3790:3874   */\n  iszero\n  tag_84\n  jumpi\n    /* \"#utility.yul\":3846:3864   */\n  tag_85\n  tag_86\n  jump\t// in\ntag_85:\n    /* \"#utility.yul\":3790:3874   */\ntag_84:\n    /* \"#utility.yul\":3611:3880   */\n  pop\n    /* \"#utility.yul\":3560:3880   */\n  swap2\n  swap1\n  pop\n  jump\t// out\n    /* \"#utility.yul\":3886:4167   */\ntag_67:\n    /* \"#utility.yul\":3969:3996   */\n  tag_88\n    /* \"#utility.yul\":3991:3995   */\n  dup3\n    /* \"#utility.yul\":3969:3996   */\n  tag_74\n  jump\t// in\ntag_88:\n    /* \"#utility.yul\":3961:3967   */\n  dup2\n    /* \"#utility.yul\":3957:3997   */\n  add\n    /* \"#utility.yul\":4099:4105   */\n  dup2\n    /* \"#utility.yul\":4087:4097   */\n  dup2\n    /* \"#utility.yul\":4084:4106   */\n  lt\n    /* \"#utility.yul\":4063:4081   */\n  0xffffffffffffffff\n    /* \"#utility.yul\":4051:4061   */\n  dup3\n    /* \"#utility.yul\":4048:4082   */\n  gt\n    /* \"#utility.yul\":4045:4107   */\n  or\n    /* \"#utility.yul\":4042:4130   */\n  iszero\n  tag_89\n  jumpi\n    /* \"#utility.yul\":4110:4128   */\n  tag_90\n  tag_72\n  jump\t// in\ntag_90:\n    /* \"#utility.yul\":4042:4130   */\ntag_89:\n    /* \"#utility.yul\":4150:4160   */\n  dup1\n    /* \"#utility.yul\":4146:4148   */\n  0x40\n    /* \"#utility.yul\":4139:4161   */\n  mstore\n    /* \"#utility.yul\":3929:4167   */\n  pop\n    /* \"#utility.yul\":3886:4167   */\n  pop\n  pop\n  jump\t// out\n    /* \"#utility.yul\":4173:4353   */\ntag_86:\n    /* \"#utility.yul\":4221:4298   */\n  0x4e487b7100000000000000000000000000000000000000000000000000000000\n    /* \"#utility.yul\":4218:4219   */\n  0x00\n    /* \"#utility.yul\":4211:4299   */\n  mstore\n    /* \"#utility.yul\":4318:4322   */\n  0x22\n    /* \"#utility.yul\":4315:4316   */\n  0x04\n    /* \"#utility.yul\":4308:4323   */\n  mstore\n    /* \"#utility.yul\":4342:4346   */\n  0x24\n    /* \"#utility.yul\":4339:4340   */\n  0x00\n    /* \"#utility.yul\":4332:4347   */\n  revert\n    /* \"#utility.yul\":4359:4539   */\ntag_72:\n    /* \"#utility.yul\":4407:4484   */\n  0x4e487b7100000000000000000000000000000000000000000000000000000000\n    /* \"#utility.yul\":4404:4405   */\n  0x00\n    /* \"#utility.yul\":4397:4485   */\n  mstore\n    /* \"#utility.yul\":4504:4508   */\n  0x41\n    /* \"#utility.yul\":4501:4502   */\n  0x04\n    /* \"#utility.yul\":4494:4509   */\n  mstore\n    /* \"#utility.yul\":4528:4532   */\n  0x24\n    /* \"#utility.yul\":4525:4526   */\n  0x00\n    /* \"#utility.yul\":4518:4533   */\n  revert\n    /* \"#utility.yul\":4545:4662   */\ntag_43:\n    /* \"#utility.yul\":4654:4655   */\n  0x00\n    /* \"#utility.yul\":4651:4652   */\n  dup1\n    /* \"#utility.yul\":4644:4656   */\n  revert\n    /* \"#utility.yul\":4668:4785   */\ntag_32:\n    /* \"#utility.yul\":4777:4778   */\n  0x00\n    /* \"#utility.yul\":4774:4775   */\n  dup1\n    /* \"#utility.yul\":4767:4779   */\n  revert\n    /* \"#utility.yul\":4791:4908   */\ntag_51:\n    /* \"#utility.yul\":4900:4901   */\n  0x00\n    /* \"#utility.yul\":4897:4898   */\n  dup1\n    /* \"#utility.yul\":4890:4902   */\n  revert\n    /* \"#utility.yul\":4914:5031   */\ntag_48:\n    /* \"#utility.yul\":5023:5024   */\n  0x00\n    /* \"#utility.yul\":5020:5021   */\n  dup1\n    /* \"#utility.yul\":5013:5025   */\n  revert\n    /* \"#utility.yul\":5037:5139   */\ntag_74:\n    /* \"#utility.yul\":5078:5084   */\n  0x00\n    /* \"#utility.yul\":5129:5131   */\n  0x1f\n    /* \"#utility.yul\":5125:5132   */\n  not\n    /* \"#utility.yul\":5120:5122   */\n  0x1f\n    /* \"#utility.yul\":5113:5118   */\n  dup4\n    /* \"#utility.yul\":5109:5123   */\n  add\n    /* \"#utility.yul\":5105:5133   */\n  and\n    /* \"#utility.yul\":5095:5133   */\n  swap1\n  pop\n    /* \"#utility.yul\":5037:5139   */\n  swap2\n  swap1\n  pop\n  jump\t// out\n    /* \"#utility.yul\":5145:5261   */\ntag_38:\n    /* \"#utility.yul\":5215:5236   */\n  tag_99\n    /* \"#utility.yul\":5230:5235   */\n  dup2\n    /* \"#utility.yul\":5215:5236   */\n  tag_75\n  jump\t// in\ntag_99:\n    /* \"#utility.yul\":5208:5213   */\n  dup2\n    /* \"#utility.yul\":5205:5237   */\n  eq\n    /* \"#utility.yul\":5195:5255   */\n  tag_100\n  jumpi\n    /* \"#utility.yul\":5251:5252   */\n  0x00\n    /* \"#utility.yul\":5248:5249   */\n  dup1\n    /* \"#utility.yul\":5241:5253   */\n  revert\n    /* \"#utility.yul\":5195:5255   */\ntag_100:\n    /* \"#utility.yul\":5145:5261   */\n  pop\n  jump\t// out\n    /* \"contracts/Field.sol\":71:1985  contract Field{\r... */\ntag_11:\n  dataSize(sub_0)\n  dup1\n  dataOffset(sub_0)\n  0x00\n  codecopy\n  0x00\n  return\nstop\n\nsub_0: assembly {\n        /* \"contracts/Field.sol\":71:1985  contract Field{\r... */\n      mstore(0x40, 0x80)\n      callvalue\n      dup1\n      iszero\n      tag_1\n      jumpi\n      0x00\n      dup1\n      revert\n    tag_1:\n      pop\n      jumpi(tag_2, lt(calldatasize, 0x04))\n      shr(0xe0, calldataload(0x00))\n      dup1\n      0x7fd8454b\n      gt\n      tag_14\n      jumpi\n      dup1\n      0x7fd8454b\n      eq\n      tag_8\n      jumpi\n      dup1\n      0x91231eab\n      eq\n      tag_9\n      jumpi\n      dup1\n      0xacec338a\n      eq\n      tag_10\n      jumpi\n      dup1\n      0xae7b6bd9\n      eq\n      tag_11\n      jumpi\n      dup1\n      0xaf14363f\n      eq\n      tag_12\n      jumpi\n      dup1\n      0xfc20f51e\n      eq\n      tag_13\n      jumpi\n      jump(tag_2)\n    tag_14:\n      dup1\n      0x9ebb10\n      eq\n      tag_3\n      jumpi\n      dup1\n      0x2e25fa47\n      eq\n      tag_4\n      jumpi\n      dup1\n      0x55b72f38\n      eq\n      tag_5\n      jumpi\n      dup1\n      0x6b2b1ab9\n      eq\n      tag_6\n      jumpi\n      dup1\n      0x72d7e3da\n      eq\n      tag_7\n      jumpi\n    tag_2:\n      0x00\n      dup1\n      revert\n        /* \"contracts/Field.sol\":1672:1752  function getActive() public view returns (bool) {\r... */\n    tag_3:\n      tag_15\n      tag_16\n      jump\t// in\n    tag_15:\n      mload(0x40)\n      tag_17\n      swap2\n      swap1\n      tag_18\n      jump\t// in\n    tag_17:\n      mload(0x40)\n      dup1\n      swap2\n      sub\n      swap1\n      return\n        /* \"contracts/Field.sol\":1762:1866  function setObservation(string memory _observation) public {\r... */\n    tag_4:\n      tag_19\n      0x04\n      dup1\n      calldatasize\n      sub\n      dup2\n      add\n      swap1\n      tag_20\n      swap2\n      swap1\n      tag_21\n      jump\t// in\n    tag_20:\n      tag_22\n      jump\t// in\n    tag_19:\n      stop\n        /* \"contracts/Field.sol\":1486:1581  function getLongitude() public view returns (string memory) {\r... */\n    tag_5:\n      tag_23\n      tag_24\n      jump\t// in\n    tag_23:\n      mload(0x40)\n      tag_25\n      swap2\n      swap1\n      tag_26\n      jump\t// in\n    tag_25:\n      mload(0x40)\n      dup1\n      swap2\n      sub\n      swap1\n      return\n        /* \"contracts/Field.sol\":1874:1973  function getObservation() public view returns (string memory) {\r... */\n    tag_6:\n      tag_27\n      tag_28\n      jump\t// in\n    tag_27:\n      mload(0x40)\n      tag_29\n      swap2\n      swap1\n      tag_26\n      jump\t// in\n    tag_29:\n      mload(0x40)\n      dup1\n      swap2\n      sub\n      swap1\n      return\n        /* \"contracts/Field.sol\":1062:1171  function getFieldDescription() public view returns (string memory) {\r... */\n    tag_7:\n      tag_30\n      tag_31\n      jump\t// in\n    tag_30:\n      mload(0x40)\n      tag_32\n      swap2\n      swap1\n      tag_26\n      jump\t// in\n    tag_32:\n      mload(0x40)\n      dup1\n      swap2\n      sub\n      swap1\n      return\n        /* \"contracts/Field.sol\":1179:1271  function setLatitude(string memory _latitude) public {\r... */\n    tag_8:\n      tag_33\n      0x04\n      dup1\n      calldatasize\n      sub\n      dup2\n      add\n      swap1\n      tag_34\n      swap2\n      swap1\n      tag_21\n      jump\t// in\n    tag_34:\n      tag_35\n      jump\t// in\n    tag_33:\n      stop\n        /* \"contracts/Field.sol\":930:1054  function setFieldDescription(string memory _fieldDescription) public {\r... */\n    tag_9:\n      tag_36\n      0x04\n      dup1\n      calldatasize\n      sub\n      dup2\n      add\n      swap1\n      tag_37\n      swap2\n      swap1\n      tag_21\n      jump\t// in\n    tag_37:\n      tag_38\n      jump\t// in\n    tag_36:\n      stop\n        /* \"contracts/Field.sol\":1589:1664  function setActive(bool _active) public {\r... */\n    tag_10:\n      tag_39\n      0x04\n      dup1\n      calldatasize\n      sub\n      dup2\n      add\n      swap1\n      tag_40\n      swap2\n      swap1\n      tag_41\n      jump\t// in\n    tag_40:\n      tag_42\n      jump\t// in\n    tag_39:\n      stop\n        /* \"contracts/Field.sol\":1279:1372  function getLatitude() public view returns (string memory) {\r... */\n    tag_11:\n      tag_43\n      tag_44\n      jump\t// in\n    tag_43:\n      mload(0x40)\n      tag_45\n      swap2\n      swap1\n      tag_26\n      jump\t// in\n    tag_45:\n      mload(0x40)\n      dup1\n      swap2\n      sub\n      swap1\n      return\n        /* \"contracts/Field.sol\":1382:1478  function setLongitude(string memory _longitude) public {\r... */\n    tag_12:\n      tag_46\n      0x04\n      dup1\n      calldatasize\n      sub\n      dup2\n      add\n      swap1\n      tag_47\n      swap2\n      swap1\n      tag_21\n      jump\t// in\n    tag_47:\n      tag_48\n      jump\t// in\n    tag_46:\n      stop\n        /* \"contracts/Field.sol\":558:922  function updateField(string memory _fieldDescription, string memory _latitude, string memory _longitude, bool _active, \r... */\n    tag_13:\n      tag_49\n      0x04\n      dup1\n      calldatasize\n      sub\n      dup2\n      add\n      swap1\n      tag_50\n      swap2\n      swap1\n      tag_51\n      jump\t// in\n    tag_50:\n      tag_52\n      jump\t// in\n    tag_49:\n      stop\n        /* \"contracts/Field.sol\":1672:1752  function getActive() public view returns (bool) {\r... */\n    tag_16:\n        /* \"contracts/Field.sol\":1714:1718  bool */\n      0x00\n        /* \"contracts/Field.sol\":1738:1744  active */\n      0x03\n      0x00\n      swap1\n      sload\n      swap1\n      0x0100\n      exp\n      swap1\n      div\n      0xff\n      and\n        /* \"contracts/Field.sol\":1731:1744  return active */\n      swap1\n      pop\n        /* \"contracts/Field.sol\":1672:1752  function getActive() public view returns (bool) {\r... */\n      swap1\n      jump\t// out\n        /* \"contracts/Field.sol\":1762:1866  function setObservation(string memory _observation) public {\r... */\n    tag_22:\n        /* \"contracts/Field.sol\":1846:1858  _observation */\n      dup1\n        /* \"contracts/Field.sol\":1832:1843  observation */\n      0x04\n        /* \"contracts/Field.sol\":1832:1858  observation = _observation */\n      swap1\n      dup1\n      mload\n      swap1\n      0x20\n      add\n      swap1\n      tag_55\n      swap3\n      swap2\n      swap1\n      tag_56\n      jump\t// in\n    tag_55:\n      pop\n        /* \"contracts/Field.sol\":1762:1866  function setObservation(string memory _observation) public {\r... */\n      pop\n      jump\t// out\n        /* \"contracts/Field.sol\":1486:1581  function getLongitude() public view returns (string memory) {\r... */\n    tag_24:\n        /* \"contracts/Field.sol\":1531:1544  string memory */\n      0x60\n        /* \"contracts/Field.sol\":1564:1573  longitude */\n      0x02\n        /* \"contracts/Field.sol\":1557:1573  return longitude */\n      dup1\n      sload\n      tag_58\n      swap1\n      tag_59\n      jump\t// in\n    tag_58:\n      dup1\n      0x1f\n      add\n      0x20\n      dup1\n      swap2\n      div\n      mul\n      0x20\n      add\n      mload(0x40)\n      swap1\n      dup2\n      add\n      0x40\n      mstore\n      dup1\n      swap3\n      swap2\n      swap1\n      dup2\n      dup2\n      mstore\n      0x20\n      add\n      dup3\n      dup1\n      sload\n      tag_60\n      swap1\n      tag_59\n      jump\t// in\n    tag_60:\n      dup1\n      iszero\n      tag_61\n      jumpi\n      dup1\n      0x1f\n      lt\n      tag_62\n      jumpi\n      0x0100\n      dup1\n      dup4\n      sload\n      div\n      mul\n      dup4\n      mstore\n      swap2\n      0x20\n      add\n      swap2\n      jump(tag_61)\n    tag_62:\n      dup3\n      add\n      swap2\n      swap1\n      0x00\n      mstore\n      keccak256(0x00, 0x20)\n      swap1\n    tag_63:\n      dup2\n      sload\n      dup2\n      mstore\n      swap1\n      0x01\n      add\n      swap1\n      0x20\n      add\n      dup1\n      dup4\n      gt\n      tag_63\n      jumpi\n      dup3\n      swap1\n      sub\n      0x1f\n      and\n      dup3\n      add\n      swap2\n    tag_61:\n      pop\n      pop\n      pop\n      pop\n      pop\n      swap1\n      pop\n        /* \"contracts/Field.sol\":1486:1581  function getLongitude() public view returns (string memory) {\r... */\n      swap1\n      jump\t// out\n        /* \"contracts/Field.sol\":1874:1973  function getObservation() public view returns (string memory) {\r... */\n    tag_28:\n        /* \"contracts/Field.sol\":1921:1934  string memory */\n      0x60\n        /* \"contracts/Field.sol\":1954:1965  observation */\n      0x04\n        /* \"contracts/Field.sol\":1947:1965  return observation */\n      dup1\n      sload\n      tag_65\n      swap1\n      tag_59\n      jump\t// in\n    tag_65:\n      dup1\n      0x1f\n      add\n      0x20\n      dup1\n      swap2\n      div\n      mul\n      0x20\n      add\n      mload(0x40)\n      swap1\n      dup2\n      add\n      0x40\n      mstore\n      dup1\n      swap3\n      swap2\n      swap1\n      dup2\n      dup2\n      mstore\n      0x20\n      add\n      dup3\n      dup1\n      sload\n      tag_66\n      swap1\n      tag_59\n      jump\t// in\n    tag_66:\n      dup1\n      iszero\n      tag_67\n      jumpi\n      dup1\n      0x1f\n      lt\n      tag_68\n      jumpi\n      0x0100\n      dup1\n      dup4\n      sload\n      div\n      mul\n      dup4\n      mstore\n      swap2\n      0x20\n      add\n      swap2\n      jump(tag_67)\n    tag_68:\n      dup3\n      add\n      swap2\n      swap1\n      0x00\n      mstore\n      keccak256(0x00, 0x20)\n      swap1\n    tag_69:\n      dup2\n      sload\n      dup2\n      mstore\n      swap1\n      0x01\n      add\n      swap1\n      0x20\n      add\n      dup1\n      dup4\n      gt\n      tag_69\n      jumpi\n      dup3\n      swap1\n      sub\n      0x1f\n      and\n      dup3\n      add\n      swap2\n    tag_67:\n      pop\n      pop\n      pop\n      pop\n      pop\n      swap1\n      pop\n        /* \"contracts/Field.sol\":1874:1973  function getObservation() public view returns (string memory) {\r... */\n      swap1\n      jump\t// out\n        /* \"contracts/Field.sol\":1062:1171  function getFieldDescription() public view returns (string memory) {\r... */\n    tag_31:\n        /* \"contracts/Field.sol\":1114:1127  string memory */\n      0x60\n        /* \"contracts/Field.sol\":1147:1163  fieldDescription */\n      0x00\n        /* \"contracts/Field.sol\":1140:1163  return fieldDescription */\n      dup1\n      sload\n      tag_71\n      swap1\n      tag_59\n      jump\t// in\n    tag_71:\n      dup1\n      0x1f\n      add\n      0x20\n      dup1\n      swap2\n      div\n      mul\n      0x20\n      add\n      mload(0x40)\n      swap1\n      dup2\n      add\n      0x40\n      mstore\n      dup1\n      swap3\n      swap2\n      swap1\n      dup2\n      dup2\n      mstore\n      0x20\n      add\n      dup3\n      dup1\n      sload\n      tag_72\n      swap1\n      tag_59\n      jump\t// in\n    tag_72:\n      dup1\n      iszero\n      tag_73\n      jumpi\n      dup1\n      0x1f\n      lt\n      tag_74\n      jumpi\n      0x0100\n      dup1\n      dup4\n      sload\n      div\n      mul\n      dup4\n      mstore\n      swap2\n      0x20\n      add\n      swap2\n      jump(tag_73)\n    tag_74:\n      dup3\n      add\n      swap2\n      swap1\n      0x00\n      mstore\n      keccak256(0x00, 0x20)\n      swap1\n    tag_75:\n      dup2\n      sload\n      dup2\n      mstore\n      swap1\n      0x01\n      add\n      swap1\n      0x20\n      add\n      dup1\n      dup4\n      gt\n      tag_75\n      jumpi\n      dup3\n      swap1\n      sub\n      0x1f\n      and\n      dup3\n      add\n      swap2\n    tag_73:\n      pop\n      pop\n      pop\n      pop\n      pop\n      swap1\n      pop\n        /* \"contracts/Field.sol\":1062:1171  function getFieldDescription() public view returns (string memory) {\r... */\n      swap1\n      jump\t// out\n        /* \"contracts/Field.sol\":1179:1271  function setLatitude(string memory _latitude) public {\r... */\n    tag_35:\n        /* \"contracts/Field.sol\":1254:1263  _latitude */\n      dup1\n        /* \"contracts/Field.sol\":1243:1251  latitude */\n      0x01\n        /* \"contracts/Field.sol\":1243:1263  latitude = _latitude */\n      swap1\n      dup1\n      mload\n      swap1\n      0x20\n      add\n      swap1\n      tag_77\n      swap3\n      swap2\n      swap1\n      tag_56\n      jump\t// in\n    tag_77:\n      pop\n        /* \"contracts/Field.sol\":1179:1271  function setLatitude(string memory _latitude) public {\r... */\n      pop\n      jump\t// out\n        /* \"contracts/Field.sol\":930:1054  function setFieldDescription(string memory _fieldDescription) public {\r... */\n    tag_38:\n        /* \"contracts/Field.sol\":1029:1046  _fieldDescription */\n      dup1\n        /* \"contracts/Field.sol\":1010:1026  fieldDescription */\n      0x00\n        /* \"contracts/Field.sol\":1010:1046  fieldDescription = _fieldDescription */\n      swap1\n      dup1\n      mload\n      swap1\n      0x20\n      add\n      swap1\n      tag_79\n      swap3\n      swap2\n      swap1\n      tag_56\n      jump\t// in\n    tag_79:\n      pop\n        /* \"contracts/Field.sol\":930:1054  function setFieldDescription(string memory _fieldDescription) public {\r... */\n      pop\n      jump\t// out\n        /* \"contracts/Field.sol\":1589:1664  function setActive(bool _active) public {\r... */\n    tag_42:\n        /* \"contracts/Field.sol\":1649:1656  _active */\n      dup1\n        /* \"contracts/Field.sol\":1640:1646  active */\n      0x03\n      0x00\n        /* \"contracts/Field.sol\":1640:1656  active = _active */\n      0x0100\n      exp\n      dup2\n      sload\n      dup2\n      0xff\n      mul\n      not\n      and\n      swap1\n      dup4\n      iszero\n      iszero\n      mul\n      or\n      swap1\n      sstore\n      pop\n        /* \"contracts/Field.sol\":1589:1664  function setActive(bool _active) public {\r... */\n      pop\n      jump\t// out\n        /* \"contracts/Field.sol\":1279:1372  function getLatitude() public view returns (string memory) {\r... */\n    tag_44:\n        /* \"contracts/Field.sol\":1323:1336  string memory */\n      0x60\n        /* \"contracts/Field.sol\":1356:1364  latitude */\n      0x01\n        /* \"contracts/Field.sol\":1349:1364  return latitude */\n      dup1\n      sload\n      tag_82\n      swap1\n      tag_59\n      jump\t// in\n    tag_82:\n      dup1\n      0x1f\n      add\n      0x20\n      dup1\n      swap2\n      div\n      mul\n      0x20\n      add\n      mload(0x40)\n      swap1\n      dup2\n      add\n      0x40\n      mstore\n      dup1\n      swap3\n      swap2\n      swap1\n      dup2\n      dup2\n      mstore\n      0x20\n      add\n      dup3\n      dup1\n      sload\n      tag_83\n      swap1\n      tag_59\n      jump\t// in\n    tag_83:\n      dup1\n      iszero\n      tag_84\n      jumpi\n      dup1\n      0x1f\n      lt\n      tag_85\n      jumpi\n      0x0100\n      dup1\n      dup4\n      sload\n      div\n      mul\n      dup4\n      mstore\n      swap2\n      0x20\n      add\n      swap2\n      jump(tag_84)\n    tag_85:\n      dup3\n      add\n      swap2\n      swap1\n      0x00\n      mstore\n      keccak256(0x00, 0x20)\n      swap1\n    tag_86:\n      dup2\n      sload\n      dup2\n      mstore\n      swap1\n      0x01\n      add\n      swap1\n      0x20\n      add\n      dup1\n      dup4\n      gt\n      tag_86\n      jumpi\n      dup3\n      swap1\n      sub\n      0x1f\n      and\n      dup3\n      add\n      swap2\n    tag_84:\n      pop\n      pop\n      pop\n      pop\n      pop\n      swap1\n      pop\n        /* \"contracts/Field.sol\":1279:1372  function getLatitude() public view returns (string memory) {\r... */\n      swap1\n      jump\t// out\n        /* \"contracts/Field.sol\":1382:1478  function setLongitude(string memory _longitude) public {\r... */\n    tag_48:\n        /* \"contracts/Field.sol\":1460:1470  _longitude */\n      dup1\n        /* \"contracts/Field.sol\":1448:1457  longitude */\n      0x02\n        /* \"contracts/Field.sol\":1448:1470  longitude = _longitude */\n      swap1\n      dup1\n      mload\n      swap1\n      0x20\n      add\n      swap1\n      tag_88\n      swap3\n      swap2\n      swap1\n      tag_56\n      jump\t// in\n    tag_88:\n      pop\n        /* \"contracts/Field.sol\":1382:1478  function setLongitude(string memory _longitude) public {\r... */\n      pop\n      jump\t// out\n        /* \"contracts/Field.sol\":558:922  function updateField(string memory _fieldDescription, string memory _latitude, string memory _longitude, bool _active, \r... */\n    tag_52:\n        /* \"contracts/Field.sol\":769:786  _fieldDescription */\n      dup5\n        /* \"contracts/Field.sol\":750:766  fieldDescription */\n      0x00\n        /* \"contracts/Field.sol\":750:786  fieldDescription = _fieldDescription */\n      swap1\n      dup1\n      mload\n      swap1\n      0x20\n      add\n      swap1\n      tag_90\n      swap3\n      swap2\n      swap1\n      tag_56\n      jump\t// in\n    tag_90:\n      pop\n        /* \"contracts/Field.sol\":808:817  _latitude */\n      dup4\n        /* \"contracts/Field.sol\":797:805  latitude */\n      0x01\n        /* \"contracts/Field.sol\":797:817  latitude = _latitude */\n      swap1\n      dup1\n      mload\n      swap1\n      0x20\n      add\n      swap1\n      tag_91\n      swap3\n      swap2\n      swap1\n      tag_56\n      jump\t// in\n    tag_91:\n      pop\n        /* \"contracts/Field.sol\":840:850  _longitude */\n      dup3\n        /* \"contracts/Field.sol\":828:837  longitude */\n      0x02\n        /* \"contracts/Field.sol\":828:850  longitude = _longitude */\n      swap1\n      dup1\n      mload\n      swap1\n      0x20\n      add\n      swap1\n      tag_92\n      swap3\n      swap2\n      swap1\n      tag_56\n      jump\t// in\n    tag_92:\n      pop\n        /* \"contracts/Field.sol\":870:877  _active */\n      dup2\n        /* \"contracts/Field.sol\":861:867  active */\n      0x03\n      0x00\n        /* \"contracts/Field.sol\":861:877  active = _active */\n      0x0100\n      exp\n      dup2\n      sload\n      dup2\n      0xff\n      mul\n      not\n      and\n      swap1\n      dup4\n      iszero\n      iszero\n      mul\n      or\n      swap1\n      sstore\n      pop\n        /* \"contracts/Field.sol\":902:914  _observation */\n      dup1\n        /* \"contracts/Field.sol\":888:899  observation */\n      0x04\n        /* \"contracts/Field.sol\":888:914  observation = _observation */\n      swap1\n      dup1\n      mload\n      swap1\n      0x20\n      add\n      swap1\n      tag_93\n      swap3\n      swap2\n      swap1\n      tag_56\n      jump\t// in\n    tag_93:\n      pop\n        /* \"contracts/Field.sol\":558:922  function updateField(string memory _fieldDescription, string memory _latitude, string memory _longitude, bool _active, \r... */\n      pop\n      pop\n      pop\n      pop\n      pop\n      jump\t// out\n    tag_56:\n      dup3\n      dup1\n      sload\n      tag_94\n      swap1\n      tag_59\n      jump\t// in\n    tag_94:\n      swap1\n      0x00\n      mstore\n      keccak256(0x00, 0x20)\n      swap1\n      0x1f\n      add\n      0x20\n      swap1\n      div\n      dup2\n      add\n      swap3\n      dup3\n      tag_96\n      jumpi\n      0x00\n      dup6\n      sstore\n      jump(tag_95)\n    tag_96:\n      dup3\n      0x1f\n      lt\n      tag_97\n      jumpi\n      dup1\n      mload\n      not(0xff)\n      and\n      dup4\n      dup1\n      add\n      or\n      dup6\n      sstore\n      jump(tag_95)\n    tag_97:\n      dup3\n      dup1\n      add\n      0x01\n      add\n      dup6\n      sstore\n      dup3\n      iszero\n      tag_95\n      jumpi\n      swap2\n      dup3\n      add\n    tag_98:\n      dup3\n      dup2\n      gt\n      iszero\n      tag_99\n      jumpi\n      dup3\n      mload\n      dup3\n      sstore\n      swap2\n      0x20\n      add\n      swap2\n      swap1\n      0x01\n      add\n      swap1\n      jump(tag_98)\n    tag_99:\n    tag_95:\n      pop\n      swap1\n      pop\n      tag_100\n      swap2\n      swap1\n      tag_101\n      jump\t// in\n    tag_100:\n      pop\n      swap1\n      jump\t// out\n    tag_101:\n    tag_102:\n      dup1\n      dup3\n      gt\n      iszero\n      tag_103\n      jumpi\n      0x00\n      dup2\n      0x00\n      swap1\n      sstore\n      pop\n      0x01\n      add\n      jump(tag_102)\n    tag_103:\n      pop\n      swap1\n      jump\t// out\n        /* \"#utility.yul\":7:419   */\n    tag_105:\n        /* \"#utility.yul\":85:90   */\n      0x00\n        /* \"#utility.yul\":110:176   */\n      tag_107\n        /* \"#utility.yul\":126:175   */\n      tag_108\n        /* \"#utility.yul\":168:174   */\n      dup5\n        /* \"#utility.yul\":126:175   */\n      tag_109\n      jump\t// in\n    tag_108:\n        /* \"#utility.yul\":110:176   */\n      tag_110\n      jump\t// in\n    tag_107:\n        /* \"#utility.yul\":101:176   */\n      swap1\n      pop\n        /* \"#utility.yul\":199:205   */\n      dup3\n        /* \"#utility.yul\":192:197   */\n      dup2\n        /* \"#utility.yul\":185:206   */\n      mstore\n        /* \"#utility.yul\":237:241   */\n      0x20\n        /* \"#utility.yul\":230:235   */\n      dup2\n        /* \"#utility.yul\":226:242   */\n      add\n        /* \"#utility.yul\":275:278   */\n      dup5\n        /* \"#utility.yul\":266:272   */\n      dup5\n        /* \"#utility.yul\":261:264   */\n      dup5\n        /* \"#utility.yul\":257:273   */\n      add\n        /* \"#utility.yul\":254:279   */\n      gt\n        /* \"#utility.yul\":251:363   */\n      iszero\n      tag_111\n      jumpi\n        /* \"#utility.yul\":282:361   */\n      tag_112\n      tag_113\n      jump\t// in\n    tag_112:\n        /* \"#utility.yul\":251:363   */\n    tag_111:\n        /* \"#utility.yul\":372:413   */\n      tag_114\n        /* \"#utility.yul\":406:412   */\n      dup5\n        /* \"#utility.yul\":401:404   */\n      dup3\n        /* \"#utility.yul\":396:399   */\n      dup6\n        /* \"#utility.yul\":372:413   */\n      tag_115\n      jump\t// in\n    tag_114:\n        /* \"#utility.yul\":91:419   */\n      pop\n        /* \"#utility.yul\":7:419   */\n      swap4\n      swap3\n      pop\n      pop\n      pop\n      jump\t// out\n        /* \"#utility.yul\":425:558   */\n    tag_116:\n        /* \"#utility.yul\":468:473   */\n      0x00\n        /* \"#utility.yul\":506:512   */\n      dup2\n        /* \"#utility.yul\":493:513   */\n      calldataload\n        /* \"#utility.yul\":484:513   */\n      swap1\n      pop\n        /* \"#utility.yul\":522:552   */\n      tag_118\n        /* \"#utility.yul\":546:551   */\n      dup2\n        /* \"#utility.yul\":522:552   */\n      tag_119\n      jump\t// in\n    tag_118:\n        /* \"#utility.yul\":425:558   */\n      swap3\n      swap2\n      pop\n      pop\n      jump\t// out\n        /* \"#utility.yul\":578:918   */\n    tag_120:\n        /* \"#utility.yul\":634:639   */\n      0x00\n        /* \"#utility.yul\":683:686   */\n      dup3\n        /* \"#utility.yul\":676:680   */\n      0x1f\n        /* \"#utility.yul\":668:674   */\n      dup4\n        /* \"#utility.yul\":664:681   */\n      add\n        /* \"#utility.yul\":660:687   */\n      slt\n        /* \"#utility.yul\":650:772   */\n      tag_122\n      jumpi\n        /* \"#utility.yul\":691:770   */\n      tag_123\n      tag_124\n      jump\t// in\n    tag_123:\n        /* \"#utility.yul\":650:772   */\n    tag_122:\n        /* \"#utility.yul\":808:814   */\n      dup2\n        /* \"#utility.yul\":795:815   */\n      calldataload\n        /* \"#utility.yul\":833:912   */\n      tag_125\n        /* \"#utility.yul\":908:911   */\n      dup5\n        /* \"#utility.yul\":900:906   */\n      dup3\n        /* \"#utility.yul\":893:897   */\n      0x20\n        /* \"#utility.yul\":885:891   */\n      dup7\n        /* \"#utility.yul\":881:898   */\n      add\n        /* \"#utility.yul\":833:912   */\n      tag_105\n      jump\t// in\n    tag_125:\n        /* \"#utility.yul\":824:912   */\n      swap2\n      pop\n        /* \"#utility.yul\":640:918   */\n      pop\n        /* \"#utility.yul\":578:918   */\n      swap3\n      swap2\n      pop\n      pop\n      jump\t// out\n        /* \"#utility.yul\":924:1247   */\n    tag_41:\n        /* \"#utility.yul\":980:986   */\n      0x00\n        /* \"#utility.yul\":1029:1031   */\n      0x20\n        /* \"#utility.yul\":1017:1026   */\n      dup3\n        /* \"#utility.yul\":1008:1015   */\n      dup5\n        /* \"#utility.yul\":1004:1027   */\n      sub\n        /* \"#utility.yul\":1000:1032   */\n      slt\n        /* \"#utility.yul\":997:1116   */\n      iszero\n      tag_127\n      jumpi\n        /* \"#utility.yul\":1035:1114   */\n      tag_128\n      tag_129\n      jump\t// in\n    tag_128:\n        /* \"#utility.yul\":997:1116   */\n    tag_127:\n        /* \"#utility.yul\":1155:1156   */\n      0x00\n        /* \"#utility.yul\":1180:1230   */\n      tag_130\n        /* \"#utility.yul\":1222:1229   */\n      dup5\n        /* \"#utility.yul\":1213:1219   */\n      dup3\n        /* \"#utility.yul\":1202:1211   */\n      dup6\n        /* \"#utility.yul\":1198:1220   */\n      add\n        /* \"#utility.yul\":1180:1230   */\n      tag_116\n      jump\t// in\n    tag_130:\n        /* \"#utility.yul\":1170:1230   */\n      swap2\n      pop\n        /* \"#utility.yul\":1126:1240   */\n      pop\n        /* \"#utility.yul\":924:1247   */\n      swap3\n      swap2\n      pop\n      pop\n      jump\t// out\n        /* \"#utility.yul\":1253:1762   */\n    tag_21:\n        /* \"#utility.yul\":1322:1328   */\n      0x00\n        /* \"#utility.yul\":1371:1373   */\n      0x20\n        /* \"#utility.yul\":1359:1368   */\n      dup3\n        /* \"#utility.yul\":1350:1357   */\n      dup5\n        /* \"#utility.yul\":1346:1369   */\n      sub\n        /* \"#utility.yul\":1342:1374   */\n      slt\n        /* \"#utility.yul\":1339:1458   */\n      iszero\n      tag_132\n      jumpi\n        /* \"#utility.yul\":1377:1456   */\n      tag_133\n      tag_129\n      jump\t// in\n    tag_133:\n        /* \"#utility.yul\":1339:1458   */\n    tag_132:\n        /* \"#utility.yul\":1525:1526   */\n      0x00\n        /* \"#utility.yul\":1514:1523   */\n      dup3\n        /* \"#utility.yul\":1510:1527   */\n      add\n        /* \"#utility.yul\":1497:1528   */\n      calldataload\n        /* \"#utility.yul\":1555:1573   */\n      0xffffffffffffffff\n        /* \"#utility.yul\":1547:1553   */\n      dup2\n        /* \"#utility.yul\":1544:1574   */\n      gt\n        /* \"#utility.yul\":1541:1658   */\n      iszero\n      tag_134\n      jumpi\n        /* \"#utility.yul\":1577:1656   */\n      tag_135\n      tag_136\n      jump\t// in\n    tag_135:\n        /* \"#utility.yul\":1541:1658   */\n    tag_134:\n        /* \"#utility.yul\":1682:1745   */\n      tag_137\n        /* \"#utility.yul\":1737:1744   */\n      dup5\n        /* \"#utility.yul\":1728:1734   */\n      dup3\n        /* \"#utility.yul\":1717:1726   */\n      dup6\n        /* \"#utility.yul\":1713:1735   */\n      add\n        /* \"#utility.yul\":1682:1745   */\n      tag_120\n      jump\t// in\n    tag_137:\n        /* \"#utility.yul\":1672:1745   */\n      swap2\n      pop\n        /* \"#utility.yul\":1468:1755   */\n      pop\n        /* \"#utility.yul\":1253:1762   */\n      swap3\n      swap2\n      pop\n      pop\n      jump\t// out\n        /* \"#utility.yul\":1768:3393   */\n    tag_51:\n        /* \"#utility.yul\":1900:1906   */\n      0x00\n        /* \"#utility.yul\":1908:1914   */\n      dup1\n        /* \"#utility.yul\":1916:1922   */\n      0x00\n        /* \"#utility.yul\":1924:1930   */\n      dup1\n        /* \"#utility.yul\":1932:1938   */\n      0x00\n        /* \"#utility.yul\":1981:1984   */\n      0xa0\n        /* \"#utility.yul\":1969:1978   */\n      dup7\n        /* \"#utility.yul\":1960:1967   */\n      dup9\n        /* \"#utility.yul\":1956:1979   */\n      sub\n        /* \"#utility.yul\":1952:1985   */\n      slt\n        /* \"#utility.yul\":1949:2069   */\n      iszero\n      tag_139\n      jumpi\n        /* \"#utility.yul\":1988:2067   */\n      tag_140\n      tag_129\n      jump\t// in\n    tag_140:\n        /* \"#utility.yul\":1949:2069   */\n    tag_139:\n        /* \"#utility.yul\":2136:2137   */\n      0x00\n        /* \"#utility.yul\":2125:2134   */\n      dup7\n        /* \"#utility.yul\":2121:2138   */\n      add\n        /* \"#utility.yul\":2108:2139   */\n      calldataload\n        /* \"#utility.yul\":2166:2184   */\n      0xffffffffffffffff\n        /* \"#utility.yul\":2158:2164   */\n      dup2\n        /* \"#utility.yul\":2155:2185   */\n      gt\n        /* \"#utility.yul\":2152:2269   */\n      iszero\n      tag_141\n      jumpi\n        /* \"#utility.yul\":2188:2267   */\n      tag_142\n      tag_136\n      jump\t// in\n    tag_142:\n        /* \"#utility.yul\":2152:2269   */\n    tag_141:\n        /* \"#utility.yul\":2293:2356   */\n      tag_143\n        /* \"#utility.yul\":2348:2355   */\n      dup9\n        /* \"#utility.yul\":2339:2345   */\n      dup3\n        /* \"#utility.yul\":2328:2337   */\n      dup10\n        /* \"#utility.yul\":2324:2346   */\n      add\n        /* \"#utility.yul\":2293:2356   */\n      tag_120\n      jump\t// in\n    tag_143:\n        /* \"#utility.yul\":2283:2356   */\n      swap6\n      pop\n        /* \"#utility.yul\":2079:2366   */\n      pop\n        /* \"#utility.yul\":2433:2435   */\n      0x20\n        /* \"#utility.yul\":2422:2431   */\n      dup7\n        /* \"#utility.yul\":2418:2436   */\n      add\n        /* \"#utility.yul\":2405:2437   */\n      calldataload\n        /* \"#utility.yul\":2464:2482   */\n      0xffffffffffffffff\n        /* \"#utility.yul\":2456:2462   */\n      dup2\n        /* \"#utility.yul\":2453:2483   */\n      gt\n        /* \"#utility.yul\":2450:2567   */\n      iszero\n      tag_144\n      jumpi\n        /* \"#utility.yul\":2486:2565   */\n      tag_145\n      tag_136\n      jump\t// in\n    tag_145:\n        /* \"#utility.yul\":2450:2567   */\n    tag_144:\n        /* \"#utility.yul\":2591:2654   */\n      tag_146\n        /* \"#utility.yul\":2646:2653   */\n      dup9\n        /* \"#utility.yul\":2637:2643   */\n      dup3\n        /* \"#utility.yul\":2626:2635   */\n      dup10\n        /* \"#utility.yul\":2622:2644   */\n      add\n        /* \"#utility.yul\":2591:2654   */\n      tag_120\n      jump\t// in\n    tag_146:\n        /* \"#utility.yul\":2581:2654   */\n      swap5\n      pop\n        /* \"#utility.yul\":2376:2664   */\n      pop\n        /* \"#utility.yul\":2731:2733   */\n      0x40\n        /* \"#utility.yul\":2720:2729   */\n      dup7\n        /* \"#utility.yul\":2716:2734   */\n      add\n        /* \"#utility.yul\":2703:2735   */\n      calldataload\n        /* \"#utility.yul\":2762:2780   */\n      0xffffffffffffffff\n        /* \"#utility.yul\":2754:2760   */\n      dup2\n        /* \"#utility.yul\":2751:2781   */\n      gt\n        /* \"#utility.yul\":2748:2865   */\n      iszero\n      tag_147\n      jumpi\n        /* \"#utility.yul\":2784:2863   */\n      tag_148\n      tag_136\n      jump\t// in\n    tag_148:\n        /* \"#utility.yul\":2748:2865   */\n    tag_147:\n        /* \"#utility.yul\":2889:2952   */\n      tag_149\n        /* \"#utility.yul\":2944:2951   */\n      dup9\n        /* \"#utility.yul\":2935:2941   */\n      dup3\n        /* \"#utility.yul\":2924:2933   */\n      dup10\n        /* \"#utility.yul\":2920:2942   */\n      add\n        /* \"#utility.yul\":2889:2952   */\n      tag_120\n      jump\t// in\n    tag_149:\n        /* \"#utility.yul\":2879:2952   */\n      swap4\n      pop\n        /* \"#utility.yul\":2674:2962   */\n      pop\n        /* \"#utility.yul\":3001:3003   */\n      0x60\n        /* \"#utility.yul\":3027:3077   */\n      tag_150\n        /* \"#utility.yul\":3069:3076   */\n      dup9\n        /* \"#utility.yul\":3060:3066   */\n      dup3\n        /* \"#utility.yul\":3049:3058   */\n      dup10\n        /* \"#utility.yul\":3045:3067   */\n      add\n        /* \"#utility.yul\":3027:3077   */\n      tag_116\n      jump\t// in\n    tag_150:\n        /* \"#utility.yul\":3017:3077   */\n      swap3\n      pop\n        /* \"#utility.yul\":2972:3087   */\n      pop\n        /* \"#utility.yul\":3154:3157   */\n      0x80\n        /* \"#utility.yul\":3143:3152   */\n      dup7\n        /* \"#utility.yul\":3139:3158   */\n      add\n        /* \"#utility.yul\":3126:3159   */\n      calldataload\n        /* \"#utility.yul\":3186:3204   */\n      0xffffffffffffffff\n        /* \"#utility.yul\":3178:3184   */\n      dup2\n        /* \"#utility.yul\":3175:3205   */\n      gt\n        /* \"#utility.yul\":3172:3289   */\n      iszero\n      tag_151\n      jumpi\n        /* \"#utility.yul\":3208:3287   */\n      tag_152\n      tag_136\n      jump\t// in\n    tag_152:\n        /* \"#utility.yul\":3172:3289   */\n    tag_151:\n        /* \"#utility.yul\":3313:3376   */\n      tag_153\n        /* \"#utility.yul\":3368:3375   */\n      dup9\n        /* \"#utility.yul\":3359:3365   */\n      dup3\n        /* \"#utility.yul\":3348:3357   */\n      dup10\n        /* \"#utility.yul\":3344:3366   */\n      add\n        /* \"#utility.yul\":3313:3376   */\n      tag_120\n      jump\t// in\n    tag_153:\n        /* \"#utility.yul\":3303:3376   */\n      swap2\n      pop\n        /* \"#utility.yul\":3097:3386   */\n      pop\n        /* \"#utility.yul\":1768:3393   */\n      swap3\n      swap6\n      pop\n      swap3\n      swap6\n      swap1\n      swap4\n      pop\n      jump\t// out\n        /* \"#utility.yul\":3399:3508   */\n    tag_154:\n        /* \"#utility.yul\":3480:3501   */\n      tag_156\n        /* \"#utility.yul\":3495:3500   */\n      dup2\n        /* \"#utility.yul\":3480:3501   */\n      tag_157\n      jump\t// in\n    tag_156:\n        /* \"#utility.yul\":3475:3478   */\n      dup3\n        /* \"#utility.yul\":3468:3502   */\n      mstore\n        /* \"#utility.yul\":3399:3508   */\n      pop\n      pop\n      jump\t// out\n        /* \"#utility.yul\":3514:3878   */\n    tag_158:\n        /* \"#utility.yul\":3602:3605   */\n      0x00\n        /* \"#utility.yul\":3630:3669   */\n      tag_160\n        /* \"#utility.yul\":3663:3668   */\n      dup3\n        /* \"#utility.yul\":3630:3669   */\n      tag_161\n      jump\t// in\n    tag_160:\n        /* \"#utility.yul\":3685:3756   */\n      tag_162\n        /* \"#utility.yul\":3749:3755   */\n      dup2\n        /* \"#utility.yul\":3744:3747   */\n      dup6\n        /* \"#utility.yul\":3685:3756   */\n      tag_163\n      jump\t// in\n    tag_162:\n        /* \"#utility.yul\":3678:3756   */\n      swap4\n      pop\n        /* \"#utility.yul\":3765:3817   */\n      tag_164\n        /* \"#utility.yul\":3810:3816   */\n      dup2\n        /* \"#utility.yul\":3805:3808   */\n      dup6\n        /* \"#utility.yul\":3798:3802   */\n      0x20\n        /* \"#utility.yul\":3791:3796   */\n      dup7\n        /* \"#utility.yul\":3787:3803   */\n      add\n        /* \"#utility.yul\":3765:3817   */\n      tag_165\n      jump\t// in\n    tag_164:\n        /* \"#utility.yul\":3842:3871   */\n      tag_166\n        /* \"#utility.yul\":3864:3870   */\n      dup2\n        /* \"#utility.yul\":3842:3871   */\n      tag_167\n      jump\t// in\n    tag_166:\n        /* \"#utility.yul\":3837:3840   */\n      dup5\n        /* \"#utility.yul\":3833:3872   */\n      add\n        /* \"#utility.yul\":3826:3872   */\n      swap2\n      pop\n        /* \"#utility.yul\":3606:3878   */\n      pop\n        /* \"#utility.yul\":3514:3878   */\n      swap3\n      swap2\n      pop\n      pop\n      jump\t// out\n        /* \"#utility.yul\":3884:4094   */\n    tag_18:\n        /* \"#utility.yul\":3971:3975   */\n      0x00\n        /* \"#utility.yul\":4009:4011   */\n      0x20\n        /* \"#utility.yul\":3998:4007   */\n      dup3\n        /* \"#utility.yul\":3994:4012   */\n      add\n        /* \"#utility.yul\":3986:4012   */\n      swap1\n      pop\n        /* \"#utility.yul\":4022:4087   */\n      tag_169\n        /* \"#utility.yul\":4084:4085   */\n      0x00\n        /* \"#utility.yul\":4073:4082   */\n      dup4\n        /* \"#utility.yul\":4069:4086   */\n      add\n        /* \"#utility.yul\":4060:4066   */\n      dup5\n        /* \"#utility.yul\":4022:4087   */\n      tag_154\n      jump\t// in\n    tag_169:\n        /* \"#utility.yul\":3884:4094   */\n      swap3\n      swap2\n      pop\n      pop\n      jump\t// out\n        /* \"#utility.yul\":4100:4413   */\n    tag_26:\n        /* \"#utility.yul\":4213:4217   */\n      0x00\n        /* \"#utility.yul\":4251:4253   */\n      0x20\n        /* \"#utility.yul\":4240:4249   */\n      dup3\n        /* \"#utility.yul\":4236:4254   */\n      add\n        /* \"#utility.yul\":4228:4254   */\n      swap1\n      pop\n        /* \"#utility.yul\":4300:4309   */\n      dup2\n        /* \"#utility.yul\":4294:4298   */\n      dup2\n        /* \"#utility.yul\":4290:4310   */\n      sub\n        /* \"#utility.yul\":4286:4287   */\n      0x00\n        /* \"#utility.yul\":4275:4284   */\n      dup4\n        /* \"#utility.yul\":4271:4288   */\n      add\n        /* \"#utility.yul\":4264:4311   */\n      mstore\n        /* \"#utility.yul\":4328:4406   */\n      tag_171\n        /* \"#utility.yul\":4401:4405   */\n      dup2\n        /* \"#utility.yul\":4392:4398   */\n      dup5\n        /* \"#utility.yul\":4328:4406   */\n      tag_158\n      jump\t// in\n    tag_171:\n        /* \"#utility.yul\":4320:4406   */\n      swap1\n      pop\n        /* \"#utility.yul\":4100:4413   */\n      swap3\n      swap2\n      pop\n      pop\n      jump\t// out\n        /* \"#utility.yul\":4419:4548   */\n    tag_110:\n        /* \"#utility.yul\":4453:4459   */\n      0x00\n        /* \"#utility.yul\":4480:4500   */\n      tag_173\n      tag_174\n      jump\t// in\n    tag_173:\n        /* \"#utility.yul\":4470:4500   */\n      swap1\n      pop\n        /* \"#utility.yul\":4509:4542   */\n      tag_175\n        /* \"#utility.yul\":4537:4541   */\n      dup3\n        /* \"#utility.yul\":4529:4535   */\n      dup3\n        /* \"#utility.yul\":4509:4542   */\n      tag_176\n      jump\t// in\n    tag_175:\n        /* \"#utility.yul\":4419:4548   */\n      swap2\n      swap1\n      pop\n      jump\t// out\n        /* \"#utility.yul\":4554:4629   */\n    tag_174:\n        /* \"#utility.yul\":4587:4593   */\n      0x00\n        /* \"#utility.yul\":4620:4622   */\n      0x40\n        /* \"#utility.yul\":4614:4623   */\n      mload\n        /* \"#utility.yul\":4604:4623   */\n      swap1\n      pop\n        /* \"#utility.yul\":4554:4629   */\n      swap1\n      jump\t// out\n        /* \"#utility.yul\":4635:4943   */\n    tag_109:\n        /* \"#utility.yul\":4697:4701   */\n      0x00\n        /* \"#utility.yul\":4787:4805   */\n      0xffffffffffffffff\n        /* \"#utility.yul\":4779:4785   */\n      dup3\n        /* \"#utility.yul\":4776:4806   */\n      gt\n        /* \"#utility.yul\":4773:4829   */\n      iszero\n      tag_179\n      jumpi\n        /* \"#utility.yul\":4809:4827   */\n      tag_180\n      tag_181\n      jump\t// in\n    tag_180:\n        /* \"#utility.yul\":4773:4829   */\n    tag_179:\n        /* \"#utility.yul\":4847:4876   */\n      tag_182\n        /* \"#utility.yul\":4869:4875   */\n      dup3\n        /* \"#utility.yul\":4847:4876   */\n      tag_167\n      jump\t// in\n    tag_182:\n        /* \"#utility.yul\":4839:4876   */\n      swap1\n      pop\n        /* \"#utility.yul\":4931:4935   */\n      0x20\n        /* \"#utility.yul\":4925:4929   */\n      dup2\n        /* \"#utility.yul\":4921:4936   */\n      add\n        /* \"#utility.yul\":4913:4936   */\n      swap1\n      pop\n        /* \"#utility.yul\":4635:4943   */\n      swap2\n      swap1\n      pop\n      jump\t// out\n        /* \"#utility.yul\":4949:5048   */\n    tag_161:\n        /* \"#utility.yul\":5001:5007   */\n      0x00\n        /* \"#utility.yul\":5035:5040   */\n      dup2\n        /* \"#utility.yul\":5029:5041   */\n      mload\n        /* \"#utility.yul\":5019:5041   */\n      swap1\n      pop\n        /* \"#utility.yul\":4949:5048   */\n      swap2\n      swap1\n      pop\n      jump\t// out\n        /* \"#utility.yul\":5054:5223   */\n    tag_163:\n        /* \"#utility.yul\":5138:5149   */\n      0x00\n        /* \"#utility.yul\":5172:5178   */\n      dup3\n        /* \"#utility.yul\":5167:5170   */\n      dup3\n        /* \"#utility.yul\":5160:5179   */\n      mstore\n        /* \"#utility.yul\":5212:5216   */\n      0x20\n        /* \"#utility.yul\":5207:5210   */\n      dup3\n        /* \"#utility.yul\":5203:5217   */\n      add\n        /* \"#utility.yul\":5188:5217   */\n      swap1\n      pop\n        /* \"#utility.yul\":5054:5223   */\n      swap3\n      swap2\n      pop\n      pop\n      jump\t// out\n        /* \"#utility.yul\":5229:5319   */\n    tag_157:\n        /* \"#utility.yul\":5263:5270   */\n      0x00\n        /* \"#utility.yul\":5306:5311   */\n      dup2\n        /* \"#utility.yul\":5299:5312   */\n      iszero\n        /* \"#utility.yul\":5292:5313   */\n      iszero\n        /* \"#utility.yul\":5281:5313   */\n      swap1\n      pop\n        /* \"#utility.yul\":5229:5319   */\n      swap2\n      swap1\n      pop\n      jump\t// out\n        /* \"#utility.yul\":5325:5479   */\n    tag_115:\n        /* \"#utility.yul\":5409:5415   */\n      dup3\n        /* \"#utility.yul\":5404:5407   */\n      dup2\n        /* \"#utility.yul\":5399:5402   */\n      dup4\n        /* \"#utility.yul\":5386:5416   */\n      calldatacopy\n        /* \"#utility.yul\":5471:5472   */\n      0x00\n        /* \"#utility.yul\":5462:5468   */\n      dup4\n        /* \"#utility.yul\":5457:5460   */\n      dup4\n        /* \"#utility.yul\":5453:5469   */\n      add\n        /* \"#utility.yul\":5446:5473   */\n      mstore\n        /* \"#utility.yul\":5325:5479   */\n      pop\n      pop\n      pop\n      jump\t// out\n        /* \"#utility.yul\":5485:5792   */\n    tag_165:\n        /* \"#utility.yul\":5553:5554   */\n      0x00\n        /* \"#utility.yul\":5563:5676   */\n    tag_188:\n        /* \"#utility.yul\":5577:5583   */\n      dup4\n        /* \"#utility.yul\":5574:5575   */\n      dup2\n        /* \"#utility.yul\":5571:5584   */\n      lt\n        /* \"#utility.yul\":5563:5676   */\n      iszero\n      tag_190\n      jumpi\n        /* \"#utility.yul\":5662:5663   */\n      dup1\n        /* \"#utility.yul\":5657:5660   */\n      dup3\n        /* \"#utility.yul\":5653:5664   */\n      add\n        /* \"#utility.yul\":5647:5665   */\n      mload\n        /* \"#utility.yul\":5643:5644   */\n      dup2\n        /* \"#utility.yul\":5638:5641   */\n      dup5\n        /* \"#utility.yul\":5634:5645   */\n      add\n        /* \"#utility.yul\":5627:5666   */\n      mstore\n        /* \"#utility.yul\":5599:5601   */\n      0x20\n        /* \"#utility.yul\":5596:5597   */\n      dup2\n        /* \"#utility.yul\":5592:5602   */\n      add\n        /* \"#utility.yul\":5587:5602   */\n      swap1\n      pop\n        /* \"#utility.yul\":5563:5676   */\n      jump(tag_188)\n    tag_190:\n        /* \"#utility.yul\":5694:5700   */\n      dup4\n        /* \"#utility.yul\":5691:5692   */\n      dup2\n        /* \"#utility.yul\":5688:5701   */\n      gt\n        /* \"#utility.yul\":5685:5786   */\n      iszero\n      tag_191\n      jumpi\n        /* \"#utility.yul\":5774:5775   */\n      0x00\n        /* \"#utility.yul\":5765:5771   */\n      dup5\n        /* \"#utility.yul\":5760:5763   */\n      dup5\n        /* \"#utility.yul\":5756:5772   */\n      add\n        /* \"#utility.yul\":5749:5776   */\n      mstore\n        /* \"#utility.yul\":5685:5786   */\n    tag_191:\n        /* \"#utility.yul\":5534:5792   */\n      pop\n        /* \"#utility.yul\":5485:5792   */\n      pop\n      pop\n      pop\n      jump\t// out\n        /* \"#utility.yul\":5798:6118   */\n    tag_59:\n        /* \"#utility.yul\":5842:5848   */\n      0x00\n        /* \"#utility.yul\":5879:5880   */\n      0x02\n        /* \"#utility.yul\":5873:5877   */\n      dup3\n        /* \"#utility.yul\":5869:5881   */\n      div\n        /* \"#utility.yul\":5859:5881   */\n      swap1\n      pop\n        /* \"#utility.yul\":5926:5927   */\n      0x01\n        /* \"#utility.yul\":5920:5924   */\n      dup3\n        /* \"#utility.yul\":5916:5928   */\n      and\n        /* \"#utility.yul\":5947:5965   */\n      dup1\n        /* \"#utility.yul\":5937:6018   */\n      tag_193\n      jumpi\n        /* \"#utility.yul\":6003:6007   */\n      0x7f\n        /* \"#utility.yul\":5995:6001   */\n      dup3\n        /* \"#utility.yul\":5991:6008   */\n      and\n        /* \"#utility.yul\":5981:6008   */\n      swap2\n      pop\n        /* \"#utility.yul\":5937:6018   */\n    tag_193:\n        /* \"#utility.yul\":6065:6067   */\n      0x20\n        /* \"#utility.yul\":6057:6063   */\n      dup3\n        /* \"#utility.yul\":6054:6068   */\n      lt\n        /* \"#utility.yul\":6034:6052   */\n      dup2\n        /* \"#utility.yul\":6031:6069   */\n      eq\n        /* \"#utility.yul\":6028:6112   */\n      iszero\n      tag_194\n      jumpi\n        /* \"#utility.yul\":6084:6102   */\n      tag_195\n      tag_196\n      jump\t// in\n    tag_195:\n        /* \"#utility.yul\":6028:6112   */\n    tag_194:\n        /* \"#utility.yul\":5849:6118   */\n      pop\n        /* \"#utility.yul\":5798:6118   */\n      swap2\n      swap1\n      pop\n      jump\t// out\n        /* \"#utility.yul\":6124:6405   */\n    tag_176:\n        /* \"#utility.yul\":6207:6234   */\n      tag_198\n        /* \"#utility.yul\":6229:6233   */\n      dup3\n        /* \"#utility.yul\":6207:6234   */\n      tag_167\n      jump\t// in\n    tag_198:\n        /* \"#utility.yul\":6199:6205   */\n      dup2\n        /* \"#utility.yul\":6195:6235   */\n      add\n        /* \"#utility.yul\":6337:6343   */\n      dup2\n        /* \"#utility.yul\":6325:6335   */\n      dup2\n        /* \"#utility.yul\":6322:6344   */\n      lt\n        /* \"#utility.yul\":6301:6319   */\n      0xffffffffffffffff\n        /* \"#utility.yul\":6289:6299   */\n      dup3\n        /* \"#utility.yul\":6286:6320   */\n      gt\n        /* \"#utility.yul\":6283:6345   */\n      or\n        /* \"#utility.yul\":6280:6368   */\n      iszero\n      tag_199\n      jumpi\n        /* \"#utility.yul\":6348:6366   */\n      tag_200\n      tag_181\n      jump\t// in\n    tag_200:\n        /* \"#utility.yul\":6280:6368   */\n    tag_199:\n        /* \"#utility.yul\":6388:6398   */\n      dup1\n        /* \"#utility.yul\":6384:6386   */\n      0x40\n        /* \"#utility.yul\":6377:6399   */\n      mstore\n        /* \"#utility.yul\":6167:6405   */\n      pop\n        /* \"#utility.yul\":6124:6405   */\n      pop\n      pop\n      jump\t// out\n        /* \"#utility.yul\":6411:6591   */\n    tag_196:\n        /* \"#utility.yul\":6459:6536   */\n      0x4e487b7100000000000000000000000000000000000000000000000000000000\n        /* \"#utility.yul\":6456:6457   */\n      0x00\n        /* \"#utility.yul\":6449:6537   */\n      mstore\n        /* \"#utility.yul\":6556:6560   */\n      0x22\n        /* \"#utility.yul\":6553:6554   */\n      0x04\n        /* \"#utility.yul\":6546:6561   */\n      mstore\n        /* \"#utility.yul\":6580:6584   */\n      0x24\n        /* \"#utility.yul\":6577:6578   */\n      0x00\n        /* \"#utility.yul\":6570:6585   */\n      revert\n        /* \"#utility.yul\":6597:6777   */\n    tag_181:\n        /* \"#utility.yul\":6645:6722   */\n      0x4e487b7100000000000000000000000000000000000000000000000000000000\n        /* \"#utility.yul\":6642:6643   */\n      0x00\n        /* \"#utility.yul\":6635:6723   */\n      mstore\n        /* \"#utility.yul\":6742:6746   */\n      0x41\n        /* \"#utility.yul\":6739:6740   */\n      0x04\n        /* \"#utility.yul\":6732:6747   */\n      mstore\n        /* \"#utility.yul\":6766:6770   */\n      0x24\n        /* \"#utility.yul\":6763:6764   */\n      0x00\n        /* \"#utility.yul\":6756:6771   */\n      revert\n        /* \"#utility.yul\":6783:6900   */\n    tag_124:\n        /* \"#utility.yul\":6892:6893   */\n      0x00\n        /* \"#utility.yul\":6889:6890   */\n      dup1\n        /* \"#utility.yul\":6882:6894   */\n      revert\n        /* \"#utility.yul\":6906:7023   */\n    tag_113:\n        /* \"#utility.yul\":7015:7016   */\n      0x00\n        /* \"#utility.yul\":7012:7013   */\n      dup1\n        /* \"#utility.yul\":7005:7017   */\n      revert\n        /* \"#utility.yul\":7029:7146   */\n    tag_136:\n        /* \"#utility.yul\":7138:7139   */\n      0x00\n        /* \"#utility.yul\":7135:7136   */\n      dup1\n        /* \"#utility.yul\":7128:7140   */\n      revert\n        /* \"#utility.yul\":7152:7269   */\n    tag_129:\n        /* \"#utility.yul\":7261:7262   */\n      0x00\n        /* \"#utility.yul\":7258:7259   */\n      dup1\n        /* \"#utility.yul\":7251:7263   */\n      revert\n        /* \"#utility.yul\":7275:7377   */\n    tag_167:\n        /* \"#utility.yul\":7316:7322   */\n      0x00\n        /* \"#utility.yul\":7367:7369   */\n      0x1f\n        /* \"#utility.yul\":7363:7370   */\n      not\n        /* \"#utility.yul\":7358:7360   */\n      0x1f\n        /* \"#utility.yul\":7351:7356   */\n      dup4\n        /* \"#utility.yul\":7347:7361   */\n      add\n        /* \"#utility.yul\":7343:7371   */\n      and\n        /* \"#utility.yul\":7333:7371   */\n      swap1\n      pop\n        /* \"#utility.yul\":7275:7377   */\n      swap2\n      swap1\n      pop\n      jump\t// out\n        /* \"#utility.yul\":7383:7499   */\n    tag_119:\n        /* \"#utility.yul\":7453:7474   */\n      tag_209\n        /* \"#utility.yul\":7468:7473   */\n      dup2\n        /* \"#utility.yul\":7453:7474   */\n      tag_157\n      jump\t// in\n    tag_209:\n        /* \"#utility.yul\":7446:7451   */\n      dup2\n        /* \"#utility.yul\":7443:7475   */\n      eq\n        /* \"#utility.yul\":7433:7493   */\n      tag_210\n      jumpi\n        /* \"#utility.yul\":7489:7490   */\n      0x00\n        /* \"#utility.yul\":7486:7487   */\n      dup1\n        /* \"#utility.yul\":7479:7491   */\n      revert\n        /* \"#utility.yul\":7433:7493   */\n    tag_210:\n        /* \"#utility.yul\":7383:7499   */\n      pop\n      jump\t// out\n\n    auxdata: 0xa264697066735822122069f858056236b4cfb99573fa8420b7ccad1e4cbfb8bc646208dc1559be46a0dd64736f6c63430008070033\n}\n",
				"bytecode": {
					"linkReferences": {},
					"object": "60806040523480156200001157600080fd5b5060405162000f1038038062000f10833981810160405281019062000037919062000205565b84600090805190602001906200004f929190620000c0565b50836001908051906020019062000068929190620000c0565b50826002908051906020019062000081929190620000c0565b5081600360006101000a81548160ff0219169083151502179055508060049080519060200190620000b4929190620000c0565b505050505050620004b3565b828054620000ce90620003aa565b90600052602060002090601f016020900481019282620000f257600085556200013e565b82601f106200010d57805160ff19168380011785556200013e565b828001600101855582156200013e579182015b828111156200013d57825182559160200191906001019062000120565b5b5090506200014d919062000151565b5090565b5b808211156200016c57600081600090555060010162000152565b5090565b600062000187620001818462000332565b62000309565b905082815260208101848484011115620001a657620001a562000479565b5b620001b384828562000374565b509392505050565b600081519050620001cc8162000499565b92915050565b600082601f830112620001ea57620001e962000474565b5b8151620001fc84826020860162000170565b91505092915050565b600080600080600060a0868803121562000224576200022362000483565b5b600086015167ffffffffffffffff8111156200024557620002446200047e565b5b6200025388828901620001d2565b955050602086015167ffffffffffffffff8111156200027757620002766200047e565b5b6200028588828901620001d2565b945050604086015167ffffffffffffffff811115620002a957620002a86200047e565b5b620002b788828901620001d2565b9350506060620002ca88828901620001bb565b925050608086015167ffffffffffffffff811115620002ee57620002ed6200047e565b5b620002fc88828901620001d2565b9150509295509295909350565b60006200031562000328565b9050620003238282620003e0565b919050565b6000604051905090565b600067ffffffffffffffff82111562000350576200034f62000445565b5b6200035b8262000488565b9050602081019050919050565b60008115159050919050565b60005b838110156200039457808201518184015260208101905062000377565b83811115620003a4576000848401525b50505050565b60006002820490506001821680620003c357607f821691505b60208210811415620003da57620003d962000416565b5b50919050565b620003eb8262000488565b810181811067ffffffffffffffff821117156200040d576200040c62000445565b5b80604052505050565b7f4e487b7100000000000000000000000000000000000000000000000000000000600052602260045260246000fd5b7f4e487b7100000000000000000000000000000000000000000000000000000000600052604160045260246000fd5b600080fd5b600080fd5b600080fd5b600080fd5b6000601f19601f8301169050919050565b620004a48162000368565b8114620004b057600080fd5b50565b610a4d80620004c36000396000f3fe608060405234801561001057600080fd5b50600436106100a85760003560e01c80637fd8454b116100715780637fd8454b1461014157806391231eab1461015d578063acec338a14610179578063ae7b6bd914610195578063af14363f146101b3578063fc20f51e146101cf576100a8565b80629ebb10146100ad5780632e25fa47146100cb57806355b72f38146100e75780636b2b1ab91461010557806372d7e3da14610123575b600080fd5b6100b56101eb565b6040516100c2919061081d565b60405180910390f35b6100e560048036038101906100e091906106a1565b610202565b005b6100ef61021c565b6040516100fc9190610838565b60405180910390f35b61010d6102ae565b60405161011a9190610838565b60405180910390f35b61012b610340565b6040516101389190610838565b60405180910390f35b61015b600480360381019061015691906106a1565b6103d2565b005b610177600480360381019061017291906106a1565b6103ec565b005b610193600480360381019061018e9190610674565b610406565b005b61019d610423565b6040516101aa9190610838565b60405180910390f35b6101cd60048036038101906101c891906106a1565b6104b5565b005b6101e960048036038101906101e491906106ea565b6104cf565b005b6000600360009054906101000a900460ff16905090565b806004908051906020019061021892919061054c565b5050565b60606002805461022b9061091a565b80601f01602080910402602001604051908101604052809291908181526020018280546102579061091a565b80156102a45780601f10610279576101008083540402835291602001916102a4565b820191906000526020600020905b81548152906001019060200180831161028757829003601f168201915b5050505050905090565b6060600480546102bd9061091a565b80601f01602080910402602001604051908101604052809291908181526020018280546102e99061091a565b80156103365780601f1061030b57610100808354040283529160200191610336565b820191906000526020600020905b81548152906001019060200180831161031957829003601f168201915b5050505050905090565b60606000805461034f9061091a565b80601f016020809104026020016040519081016040528092919081815260200182805461037b9061091a565b80156103c85780601f1061039d576101008083540402835291602001916103c8565b820191906000526020600020905b8154815290600101906020018083116103ab57829003601f168201915b5050505050905090565b80600190805190602001906103e892919061054c565b5050565b806000908051906020019061040292919061054c565b5050565b80600360006101000a81548160ff02191690831515021790555050565b6060600180546104329061091a565b80601f016020809104026020016040519081016040528092919081815260200182805461045e9061091a565b80156104ab5780601f10610480576101008083540402835291602001916104ab565b820191906000526020600020905b81548152906001019060200180831161048e57829003601f168201915b5050505050905090565b80600290805190602001906104cb92919061054c565b5050565b84600090805190602001906104e592919061054c565b5083600190805190602001906104fc92919061054c565b50826002908051906020019061051392919061054c565b5081600360006101000a81548160ff021916908315150217905550806004908051906020019061054492919061054c565b505050505050565b8280546105589061091a565b90600052602060002090601f01602090048101928261057a57600085556105c1565b82601f1061059357805160ff19168380011785556105c1565b828001600101855582156105c1579182015b828111156105c05782518255916020019190600101906105a5565b5b5090506105ce91906105d2565b5090565b5b808211156105eb5760008160009055506001016105d3565b5090565b60006106026105fd8461087f565b61085a565b90508281526020810184848401111561061e5761061d6109e0565b5b6106298482856108d8565b509392505050565b60008135905061064081610a00565b92915050565b600082601f83011261065b5761065a6109db565b5b813561066b8482602086016105ef565b91505092915050565b60006020828403121561068a576106896109ea565b5b600061069884828501610631565b91505092915050565b6000602082840312156106b7576106b66109ea565b5b600082013567ffffffffffffffff8111156106d5576106d46109e5565b5b6106e184828501610646565b91505092915050565b600080600080600060a08688031215610706576107056109ea565b5b600086013567ffffffffffffffff811115610724576107236109e5565b5b61073088828901610646565b955050602086013567ffffffffffffffff811115610751576107506109e5565b5b61075d88828901610646565b945050604086013567ffffffffffffffff81111561077e5761077d6109e5565b5b61078a88828901610646565b935050606061079b88828901610631565b925050608086013567ffffffffffffffff8111156107bc576107bb6109e5565b5b6107c888828901610646565b9150509295509295909350565b6107de816108cc565b82525050565b60006107ef826108b0565b6107f981856108bb565b93506108098185602086016108e7565b610812816109ef565b840191505092915050565b600060208201905061083260008301846107d5565b92915050565b6000602082019050818103600083015261085281846107e4565b905092915050565b6000610864610875565b9050610870828261094c565b919050565b6000604051905090565b600067ffffffffffffffff82111561089a576108996109ac565b5b6108a3826109ef565b9050602081019050919050565b600081519050919050565b600082825260208201905092915050565b60008115159050919050565b82818337600083830152505050565b60005b838110156109055780820151818401526020810190506108ea565b83811115610914576000848401525b50505050565b6000600282049050600182168061093257607f821691505b602082108114156109465761094561097d565b5b50919050565b610955826109ef565b810181811067ffffffffffffffff82111715610974576109736109ac565b5b80604052505050565b7f4e487b7100000000000000000000000000000000000000000000000000000000600052602260045260246000fd5b7f4e487b7100000000000000000000000000000000000000000000000000000000600052604160045260246000fd5b600080fd5b600080fd5b600080fd5b600080fd5b6000601f19601f8301169050919050565b610a09816108cc565b8114610a1457600080fd5b5056fea264697066735822122069f858056236b4cfb99573fa8420b7ccad1e4cbfb8bc646208dc1559be46a0dd64736f6c63430008070033",
					"opcodes": "PUSH1 0x80 PUSH1 0x40 MSTORE CALLVALUE DUP1 ISZERO PUSH3 0x11 JUMPI PUSH1 0x0 DUP1 REVERT JUMPDEST POP PUSH1 0x40 MLOAD PUSH3 0xF10 CODESIZE SUB DUP1 PUSH3 0xF10 DUP4 CODECOPY DUP2 DUP2 ADD PUSH1 0x40 MSTORE DUP2 ADD SWAP1 PUSH3 0x37 SWAP2 SWAP1 PUSH3 0x205 JUMP JUMPDEST DUP5 PUSH1 0x0 SWAP1 DUP1 MLOAD SWAP1 PUSH1 0x20 ADD SWAP1 PUSH3 0x4F SWAP3 SWAP2 SWAP1 PUSH3 0xC0 JUMP JUMPDEST POP DUP4 PUSH1 0x1 SWAP1 DUP1 MLOAD SWAP1 PUSH1 0x20 ADD SWAP1 PUSH3 0x68 SWAP3 SWAP2 SWAP1 PUSH3 0xC0 JUMP JUMPDEST POP DUP3 PUSH1 0x2 SWAP1 DUP1 MLOAD SWAP1 PUSH1 0x20 ADD SWAP1 PUSH3 0x81 SWAP3 SWAP2 SWAP1 PUSH3 0xC0 JUMP JUMPDEST POP DUP2 PUSH1 0x3 PUSH1 0x0 PUSH2 0x100 EXP DUP2 SLOAD DUP2 PUSH1 0xFF MUL NOT AND SWAP1 DUP4 ISZERO ISZERO MUL OR SWAP1 SSTORE POP DUP1 PUSH1 0x4 SWAP1 DUP1 MLOAD SWAP1 PUSH1 0x20 ADD SWAP1 PUSH3 0xB4 SWAP3 SWAP2 SWAP1 PUSH3 0xC0 JUMP JUMPDEST POP POP POP POP POP POP PUSH3 0x4B3 JUMP JUMPDEST DUP3 DUP1 SLOAD PUSH3 0xCE SWAP1 PUSH3 0x3AA JUMP JUMPDEST SWAP1 PUSH1 0x0 MSTORE PUSH1 0x20 PUSH1 0x0 KECCAK256 SWAP1 PUSH1 0x1F ADD PUSH1 0x20 SWAP1 DIV DUP2 ADD SWAP3 DUP3 PUSH3 0xF2 JUMPI PUSH1 0x0 DUP6 SSTORE PUSH3 0x13E JUMP JUMPDEST DUP3 PUSH1 0x1F LT PUSH3 0x10D JUMPI DUP1 MLOAD PUSH1 0xFF NOT AND DUP4 DUP1 ADD OR DUP6 SSTORE PUSH3 0x13E JUMP JUMPDEST DUP3 DUP1 ADD PUSH1 0x1 ADD DUP6 SSTORE DUP3 ISZERO PUSH3 0x13E JUMPI SWAP2 DUP3 ADD JUMPDEST DUP3 DUP2 GT ISZERO PUSH3 0x13D JUMPI DUP3 MLOAD DUP3 SSTORE SWAP2 PUSH1 0x20 ADD SWAP2 SWAP1 PUSH1 0x1 ADD SWAP1 PUSH3 0x120 JUMP JUMPDEST JUMPDEST POP SWAP1 POP PUSH3 0x14D SWAP2 SWAP1 PUSH3 0x151 JUMP JUMPDEST POP SWAP1 JUMP JUMPDEST JUMPDEST DUP1 DUP3 GT ISZERO PUSH3 0x16C JUMPI PUSH1 0x0 DUP2 PUSH1 0x0 SWAP1 SSTORE POP PUSH1 0x1 ADD PUSH3 0x152 JUMP JUMPDEST POP SWAP1 JUMP JUMPDEST PUSH1 0x0 PUSH3 0x187 PUSH3 0x181 DUP5 PUSH3 0x332 JUMP JUMPDEST PUSH3 0x309 JUMP JUMPDEST SWAP1 POP DUP3 DUP2 MSTORE PUSH1 0x20 DUP2 ADD DUP5 DUP5 DUP5 ADD GT ISZERO PUSH3 0x1A6 JUMPI PUSH3 0x1A5 PUSH3 0x479 JUMP JUMPDEST JUMPDEST PUSH3 0x1B3 DUP5 DUP3 DUP6 PUSH3 0x374 JUMP JUMPDEST POP SWAP4 SWAP3 POP POP POP JUMP JUMPDEST PUSH1 0x0 DUP2 MLOAD SWAP1 POP PUSH3 0x1CC DUP2 PUSH3 0x499 JUMP JUMPDEST SWAP3 SWAP2 POP POP JUMP JUMPDEST PUSH1 0x0 DUP3 PUSH1 0x1F DUP4 ADD SLT PUSH3 0x1EA JUMPI PUSH3 0x1E9 PUSH3 0x474 JUMP JUMPDEST JUMPDEST DUP2 MLOAD PUSH3 0x1FC DUP5 DUP3 PUSH1 0x20 DUP7 ADD PUSH3 0x170 JUMP JUMPDEST SWAP2 POP POP SWAP3 SWAP2 POP POP JUMP JUMPDEST PUSH1 0x0 DUP1 PUSH1 0x0 DUP1 PUSH1 0x0 PUSH1 0xA0 DUP7 DUP9 SUB SLT ISZERO PUSH3 0x224 JUMPI PUSH3 0x223 PUSH3 0x483 JUMP JUMPDEST JUMPDEST PUSH1 0x0 DUP7 ADD MLOAD PUSH8 0xFFFFFFFFFFFFFFFF DUP2 GT ISZERO PUSH3 0x245 JUMPI PUSH3 0x244 PUSH3 0x47E JUMP JUMPDEST JUMPDEST PUSH3 0x253 DUP9 DUP3 DUP10 ADD PUSH3 0x1D2 JUMP JUMPDEST SWAP6 POP POP PUSH1 0x20 DUP7 ADD MLOAD PUSH8 0xFFFFFFFFFFFFFFFF DUP2 GT ISZERO PUSH3 0x277 JUMPI PUSH3 0x276 PUSH3 0x47E JUMP JUMPDEST JUMPDEST PUSH3 0x285 DUP9 DUP3 DUP10 ADD PUSH3 0x1D2 JUMP JUMPDEST SWAP5 POP POP PUSH1 0x40 DUP7 ADD MLOAD PUSH8 0xFFFFFFFFFFFFFFFF DUP2 GT ISZERO PUSH3 0x2A9 JUMPI PUSH3 0x2A8 PUSH3 0x47E JUMP JUMPDEST JUMPDEST PUSH3 0x2B7 DUP9 DUP3 DUP10 ADD PUSH3 0x1D2 JUMP JUMPDEST SWAP4 POP POP PUSH1 0x60 PUSH3 0x2CA DUP9 DUP3 DUP10 ADD PUSH3 0x1BB JUMP JUMPDEST SWAP3 POP POP PUSH1 0x80 DUP7 ADD MLOAD PUSH8 0xFFFFFFFFFFFFFFFF DUP2 GT ISZERO PUSH3 0x2EE JUMPI PUSH3 0x2ED PUSH3 0x47E JUMP JUMPDEST JUMPDEST PUSH3 0x2FC DUP9 DUP3 DUP10 ADD PUSH3 0x1D2 JUMP JUMPDEST SWAP2 POP POP SWAP3 SWAP6 POP SWAP3 SWAP6 SWAP1 SWAP4 POP JUMP JUMPDEST PUSH1 0x0 PUSH3 0x315 PUSH3 0x328 JUMP JUMPDEST SWAP1 POP PUSH3 0x323 DUP3 DUP3 PUSH3 0x3E0 JUMP JUMPDEST SWAP2 SWAP1 POP JUMP JUMPDEST PUSH1 0x0 PUSH1 0x40 MLOAD SWAP1 POP SWAP1 JUMP JUMPDEST PUSH1 0x0 PUSH8 0xFFFFFFFFFFFFFFFF DUP3 GT ISZERO PUSH3 0x350 JUMPI PUSH3 0x34F PUSH3 0x445 JUMP JUMPDEST JUMPDEST PUSH3 0x35B DUP3 PUSH3 0x488 JUMP JUMPDEST SWAP1 POP PUSH1 0x20 DUP2 ADD SWAP1 POP SWAP2 SWAP1 POP JUMP JUMPDEST PUSH1 0x0 DUP2 ISZERO ISZERO SWAP1 POP SWAP2 SWAP1 POP JUMP JUMPDEST PUSH1 0x0 JUMPDEST DUP4 DUP2 LT ISZERO PUSH3 0x394 JUMPI DUP1 DUP3 ADD MLOAD DUP2 DUP5 ADD MSTORE PUSH1 0x20 DUP2 ADD SWAP1 POP PUSH3 0x377 JUMP JUMPDEST DUP4 DUP2 GT ISZERO PUSH3 0x3A4 JUMPI PUSH1 0x0 DUP5 DUP5 ADD MSTORE JUMPDEST POP POP POP POP JUMP JUMPDEST PUSH1 0x0 PUSH1 0x2 DUP3 DIV SWAP1 POP PUSH1 0x1 DUP3 AND DUP1 PUSH3 0x3C3 JUMPI PUSH1 0x7F DUP3 AND SWAP2 POP JUMPDEST PUSH1 0x20 DUP3 LT DUP2 EQ ISZERO PUSH3 0x3DA JUMPI PUSH3 0x3D9 PUSH3 0x416 JUMP JUMPDEST JUMPDEST POP SWAP2 SWAP1 POP JUMP JUMPDEST PUSH3 0x3EB DUP3 PUSH3 0x488 JUMP JUMPDEST DUP2 ADD DUP2 DUP2 LT PUSH8 0xFFFFFFFFFFFFFFFF DUP3 GT OR ISZERO PUSH3 0x40D JUMPI PUSH3 0x40C PUSH3 0x445 JUMP JUMPDEST JUMPDEST DUP1 PUSH1 0x40 MSTORE POP POP POP JUMP JUMPDEST PUSH32 0x4E487B7100000000000000000000000000000000000000000000000000000000 PUSH1 0x0 MSTORE PUSH1 0x22 PUSH1 0x4 MSTORE PUSH1 0x24 PUSH1 0x0 REVERT JUMPDEST PUSH32 0x4E487B7100000000000000000000000000000000000000000000000000000000 PUSH1 0x0 MSTORE PUSH1 0x41 PUSH1 0x4 MSTORE PUSH1 0x24 PUSH1 0x0 REVERT JUMPDEST PUSH1 0x0 DUP1 REVERT JUMPDEST PUSH1 0x0 DUP1 REVERT JUMPDEST PUSH1 0x0 DUP1 REVERT JUMPDEST PUSH1 0x0 DUP1 REVERT JUMPDEST PUSH1 0x0 PUSH1 0x1F NOT PUSH1 0x1F DUP4 ADD AND SWAP1 POP SWAP2 SWAP1 POP JUMP JUMPDEST PUSH3 0x4A4 DUP2 PUSH3 0x368 JUMP JUMPDEST DUP2 EQ PUSH3 0x4B0 JUMPI PUSH1 0x0 DUP1 REVERT JUMPDEST POP JUMP JUMPDEST PUSH2 0xA4D DUP1 PUSH3 0x4C3 PUSH1 0x0 CODECOPY PUSH1 0x0 RETURN INVALID PUSH1 0x80 PUSH1 0x40 MSTORE CALLVALUE DUP1 ISZERO PUSH2 0x10 JUMPI PUSH1 0x0 DUP1 REVERT JUMPDEST POP PUSH1 0x4 CALLDATASIZE LT PUSH2 0xA8 JUMPI PUSH1 0x0 CALLDATALOAD PUSH1 0xE0 SHR DUP1 PUSH4 0x7FD8454B GT PUSH2 0x71 JUMPI DUP1 PUSH4 0x7FD8454B EQ PUSH2 0x141 JUMPI DUP1 PUSH4 0x91231EAB EQ PUSH2 0x15D JUMPI DUP1 PUSH4 0xACEC338A EQ PUSH2 0x179 JUMPI DUP1 PUSH4 0xAE7B6BD9 EQ PUSH2 0x195 JUMPI DUP1 PUSH4 0xAF14363F EQ PUSH2 0x1B3 JUMPI DUP1 PUSH4 0xFC20F51E EQ PUSH2 0x1CF JUMPI PUSH2 0xA8 JUMP JUMPDEST DUP1 PUSH3 0x9EBB10 EQ PUSH2 0xAD JUMPI DUP1 PUSH4 0x2E25FA47 EQ PUSH2 0xCB JUMPI DUP1 PUSH4 0x55B72F38 EQ PUSH2 0xE7 JUMPI DUP1 PUSH4 0x6B2B1AB9 EQ PUSH2 0x105 JUMPI DUP1 PUSH4 0x72D7E3DA EQ PUSH2 0x123 JUMPI JUMPDEST PUSH1 0x0 DUP1 REVERT JUMPDEST PUSH2 0xB5 PUSH2 0x1EB JUMP JUMPDEST PUSH1 0x40 MLOAD PUSH2 0xC2 SWAP2 SWAP1 PUSH2 0x81D JUMP JUMPDEST PUSH1 0x40 MLOAD DUP1 SWAP2 SUB SWAP1 RETURN JUMPDEST PUSH2 0xE5 PUSH1 0x4 DUP1 CALLDATASIZE SUB DUP2 ADD SWAP1 PUSH2 0xE0 SWAP2 SWAP1 PUSH2 0x6A1 JUMP JUMPDEST PUSH2 0x202 JUMP JUMPDEST STOP JUMPDEST PUSH2 0xEF PUSH2 0x21C JUMP JUMPDEST PUSH1 0x40 MLOAD PUSH2 0xFC SWAP2 SWAP1 PUSH2 0x838 JUMP JUMPDEST PUSH1 0x40 MLOAD DUP1 SWAP2 SUB SWAP1 RETURN JUMPDEST PUSH2 0x10D PUSH2 0x2AE JUMP JUMPDEST PUSH1 0x40 MLOAD PUSH2 0x11A SWAP2 SWAP1 PUSH2 0x838 JUMP JUMPDEST PUSH1 0x40 MLOAD DUP1 SWAP2 SUB SWAP1 RETURN JUMPDEST PUSH2 0x12B PUSH2 0x340 JUMP JUMPDEST PUSH1 0x40 MLOAD PUSH2 0x138 SWAP2 SWAP1 PUSH2 0x838 JUMP JUMPDEST PUSH1 0x40 MLOAD DUP1 SWAP2 SUB SWAP1 RETURN JUMPDEST PUSH2 0x15B PUSH1 0x4 DUP1 CALLDATASIZE SUB DUP2 ADD SWAP1 PUSH2 0x156 SWAP2 SWAP1 PUSH2 0x6A1 JUMP JUMPDEST PUSH2 0x3D2 JUMP JUMPDEST STOP JUMPDEST PUSH2 0x177 PUSH1 0x4 DUP1 CALLDATASIZE SUB DUP2 ADD SWAP1 PUSH2 0x172 SWAP2 SWAP1 PUSH2 0x6A1 JUMP JUMPDEST PUSH2 0x3EC JUMP JUMPDEST STOP JUMPDEST PUSH2 0x193 PUSH1 0x4 DUP1 CALLDATASIZE SUB DUP2 ADD SWAP1 PUSH2 0x18E SWAP2 SWAP1 PUSH2 0x674 JUMP JUMPDEST PUSH2 0x406 JUMP JUMPDEST STOP JUMPDEST PUSH2 0x19D PUSH2 0x423 JUMP JUMPDEST PUSH1 0x40 MLOAD PUSH2 0x1AA SWAP2 SWAP1 PUSH2 0x838 JUMP JUMPDEST PUSH1 0x40 MLOAD DUP1 SWAP2 SUB SWAP1 RETURN JUMPDEST PUSH2 0x1CD PUSH1 0x4 DUP1 CALLDATASIZE SUB DUP2 ADD SWAP1 PUSH2 0x1C8 SWAP2 SWAP1 PUSH2 0x6A1 JUMP JUMPDEST PUSH2 0x4B5 JUMP JUMPDEST STOP JUMPDEST PUSH2 0x1E9 PUSH1 0x4 DUP1 CALLDATASIZE SUB DUP2 ADD SWAP1 PUSH2 0x1E4 SWAP2 SWAP1 PUSH2 0x6EA JUMP JUMPDEST PUSH2 0x4CF JUMP JUMPDEST STOP JUMPDEST PUSH1 0x0 PUSH1 0x3 PUSH1 0x0 SWAP1 SLOAD SWAP1 PUSH2 0x100 EXP SWAP1 DIV PUSH1 0xFF AND SWAP1 POP SWAP1 JUMP JUMPDEST DUP1 PUSH1 0x4 SWAP1 DUP1 MLOAD SWAP1 PUSH1 0x20 ADD SWAP1 PUSH2 0x218 SWAP3 SWAP2 SWAP1 PUSH2 0x54C JUMP JUMPDEST POP POP JUMP JUMPDEST PUSH1 0x60 PUSH1 0x2 DUP1 SLOAD PUSH2 0x22B SWAP1 PUSH2 0x91A JUMP JUMPDEST DUP1 PUSH1 0x1F ADD PUSH1 0x20 DUP1 SWAP2 DIV MUL PUSH1 0x20 ADD PUSH1 0x40 MLOAD SWAP1 DUP2 ADD PUSH1 0x40 MSTORE DUP1 SWAP3 SWAP2 SWAP1 DUP2 DUP2 MSTORE PUSH1 0x20 ADD DUP3 DUP1 SLOAD PUSH2 0x257 SWAP1 PUSH2 0x91A JUMP JUMPDEST DUP1 ISZERO PUSH2 0x2A4 JUMPI DUP1 PUSH1 0x1F LT PUSH2 0x279 JUMPI PUSH2 0x100 DUP1 DUP4 SLOAD DIV MUL DUP4 MSTORE SWAP2 PUSH1 0x20 ADD SWAP2 PUSH2 0x2A4 JUMP JUMPDEST DUP3 ADD SWAP2 SWAP1 PUSH1 0x0 MSTORE PUSH1 0x20 PUSH1 0x0 KECCAK256 SWAP1 JUMPDEST DUP2 SLOAD DUP2 MSTORE SWAP1 PUSH1 0x1 ADD SWAP1 PUSH1 0x20 ADD DUP1 DUP4 GT PUSH2 0x287 JUMPI DUP3 SWAP1 SUB PUSH1 0x1F AND DUP3 ADD SWAP2 JUMPDEST POP POP POP POP POP SWAP1 POP SWAP1 JUMP JUMPDEST PUSH1 0x60 PUSH1 0x4 DUP1 SLOAD PUSH2 0x2BD SWAP1 PUSH2 0x91A JUMP JUMPDEST DUP1 PUSH1 0x1F ADD PUSH1 0x20 DUP1 SWAP2 DIV MUL PUSH1 0x20 ADD PUSH1 0x40 MLOAD SWAP1 DUP2 ADD PUSH1 0x40 MSTORE DUP1 SWAP3 SWAP2 SWAP1 DUP2 DUP2 MSTORE PUSH1 0x20 ADD DUP3 DUP1 SLOAD PUSH2 0x2E9 SWAP1 PUSH2 0x91A JUMP JUMPDEST DUP1 ISZERO PUSH2 0x336 JUMPI DUP1 PUSH1 0x1F LT PUSH2 0x30B JUMPI PUSH2 0x100 DUP1 DUP4 SLOAD DIV MUL DUP4 MSTORE SWAP2 PUSH1 0x20 ADD SWAP2 PUSH2 0x336 JUMP JUMPDEST DUP3 ADD SWAP2 SWAP1 PUSH1 0x0 MSTORE PUSH1 0x20 PUSH1 0x0 KECCAK256 SWAP1 JUMPDEST DUP2 SLOAD DUP2 MSTORE SWAP1 PUSH1 0x1 ADD SWAP1 PUSH1 0x20 ADD DUP1 DUP4 GT PUSH2 0x319 JUMPI DUP3 SWAP1 SUB PUSH1 0x1F AND DUP3 ADD SWAP2 JUMPDEST POP POP POP POP POP SWAP1 POP SWAP1 JUMP JUMPDEST PUSH1 0x60 PUSH1 0x0 DUP1 SLOAD PUSH2 0x34F SWAP1 PUSH2 0x91A JUMP JUMPDEST DUP1 PUSH1 0x1F ADD PUSH1 0x20 DUP1 SWAP2 DIV MUL PUSH1 0x20 ADD PUSH1 0x40 MLOAD SWAP1 DUP2 ADD PUSH1 0x40 MSTORE DUP1 SWAP3 SWAP2 SWAP1 DUP2 DUP2 MSTORE PUSH1 0x20 ADD DUP3 DUP1 SLOAD PUSH2 0x37B SWAP1 PUSH2 0x91A JUMP JUMPDEST DUP1 ISZERO PUSH2 0x3C8 JUMPI DUP1 PUSH1 0x1F LT PUSH2 0x39D JUMPI PUSH2 0x100 DUP1 DUP4 SLOAD DIV MUL DUP4 MSTORE SWAP2 PUSH1 0x20 ADD SWAP2 PUSH2 0x3C8 JUMP JUMPDEST DUP3 ADD SWAP2 SWAP1 PUSH1 0x0 MSTORE PUSH1 0x20 PUSH1 0x0 KECCAK256 SWAP1 JUMPDEST DUP2 SLOAD DUP2 MSTORE SWAP1 PUSH1 0x1 ADD SWAP1 PUSH1 0x20 ADD DUP1 DUP4 GT PUSH2 0x3AB JUMPI DUP3 SWAP1 SUB PUSH1 0x1F AND DUP3 ADD SWAP2 JUMPDEST POP POP POP POP POP SWAP1 POP SWAP1 JUMP JUMPDEST DUP1 PUSH1 0x1 SWAP1 DUP1 MLOAD SWAP1 PUSH1 0x20 ADD SWAP1 PUSH2 0x3E8 SWAP3 SWAP2 SWAP1 PUSH2 0x54C JUMP JUMPDEST POP POP JUMP JUMPDEST DUP1 PUSH1 0x0 SWAP1 DUP1 MLOAD SWAP1 PUSH1 0x20 ADD SWAP1 PUSH2 0x402 SWAP3 SWAP2 SWAP1 PUSH2 0x54C JUMP JUMPDEST POP POP JUMP JUMPDEST DUP1 PUSH1 0x3 PUSH1 0x0 PUSH2 0x100 EXP DUP2 SLOAD DUP2 PUSH1 0xFF MUL NOT AND SWAP1 DUP4 ISZERO ISZERO MUL OR SWAP1 SSTORE POP POP JUMP JUMPDEST PUSH1 0x60 PUSH1 0x1 DUP1 SLOAD PUSH2 0x432 SWAP1 PUSH2 0x91A JUMP JUMPDEST DUP1 PUSH1 0x1F ADD PUSH1 0x20 DUP1 SWAP2 DIV MUL PUSH1 0x20 ADD PUSH1 0x40 MLOAD SWAP1 DUP2 ADD PUSH1 0x40 MSTORE DUP1 SWAP3 SWAP2 SWAP1 DUP2 DUP2 MSTORE PUSH1 0x20 ADD DUP3 DUP1 SLOAD PUSH2 0x45E SWAP1 PUSH2 0x91A JUMP JUMPDEST DUP1 ISZERO PUSH2 0x4AB JUMPI DUP1 PUSH1 0x1F LT PUSH2 0x480 JUMPI PUSH2 0x100 DUP1 DUP4 SLOAD DIV MUL DUP4 MSTORE SWAP2 PUSH1 0x20 ADD SWAP2 PUSH2 0x4AB JUMP JUMPDEST DUP3 ADD SWAP2 SWAP1 PUSH1 0x0 MSTORE PUSH1 0x20 PUSH1 0x0 KECCAK256 SWAP1 JUMPDEST DUP2 SLOAD DUP2 MSTORE SWAP1 PUSH1 0x1 ADD SWAP1 PUSH1 0x20 ADD DUP1 DUP4 GT PUSH2 0x48E JUMPI DUP3 SWAP1 SUB PUSH1 0x1F AND DUP3 ADD SWAP2 JUMPDEST POP POP POP POP POP SWAP1 POP SWAP1 JUMP JUMPDEST DUP1 PUSH1 0x2 SWAP1 DUP1 MLOAD SWAP1 PUSH1 0x20 ADD SWAP1 PUSH2 0x4CB SWAP3 SWAP2 SWAP1 PUSH2 0x54C JUMP JUMPDEST POP POP JUMP JUMPDEST DUP5 PUSH1 0x0 SWAP1 DUP1 MLOAD SWAP1 PUSH1 0x20 ADD SWAP1 PUSH2 0x4E5 SWAP3 SWAP2 SWAP1 PUSH2 0x54C JUMP JUMPDEST POP DUP4 PUSH1 0x1 SWAP1 DUP1 MLOAD SWAP1 PUSH1 0x20 ADD SWAP1 PUSH2 0x4FC SWAP3 SWAP2 SWAP1 PUSH2 0x54C JUMP JUMPDEST POP DUP3 PUSH1 0x2 SWAP1 DUP1 MLOAD SWAP1 PUSH1 0x20 ADD SWAP1 PUSH2 0x513 SWAP3 SWAP2 SWAP1 PUSH2 0x54C JUMP JUMPDEST POP DUP2 PUSH1 0x3 PUSH1 0x0 PUSH2 0x100 EXP DUP2 SLOAD DUP2 PUSH1 0xFF MUL NOT AND SWAP1 DUP4 ISZERO ISZERO MUL OR SWAP1 SSTORE POP DUP1 PUSH1 0x4 SWAP1 DUP1 MLOAD SWAP1 PUSH1 0x20 ADD SWAP1 PUSH2 0x544 SWAP3 SWAP2 SWAP1 PUSH2 0x54C JUMP JUMPDEST POP POP POP POP POP POP JUMP JUMPDEST DUP3 DUP1 SLOAD PUSH2 0x558 SWAP1 PUSH2 0x91A JUMP JUMPDEST SWAP1 PUSH1 0x0 MSTORE PUSH1 0x20 PUSH1 0x0 KECCAK256 SWAP1 PUSH1 0x1F ADD PUSH1 0x20 SWAP1 DIV DUP2 ADD SWAP3 DUP3 PUSH2 0x57A JUMPI PUSH1 0x0 DUP6 SSTORE PUSH2 0x5C1 JUMP JUMPDEST DUP3 PUSH1 0x1F LT PUSH2 0x593 JUMPI DUP1 MLOAD PUSH1 0xFF NOT AND DUP4 DUP1 ADD OR DUP6 SSTORE PUSH2 0x5C1 JUMP JUMPDEST DUP3 DUP1 ADD PUSH1 0x1 ADD DUP6 SSTORE DUP3 ISZERO PUSH2 0x5C1 JUMPI SWAP2 DUP3 ADD JUMPDEST DUP3 DUP2 GT ISZERO PUSH2 0x5C0 JUMPI DUP3 MLOAD DUP3 SSTORE SWAP2 PUSH1 0x20 ADD SWAP2 SWAP1 PUSH1 0x1 ADD SWAP1 PUSH2 0x5A5 JUMP JUMPDEST JUMPDEST POP SWAP1 POP PUSH2 0x5CE SWAP2 SWAP1 PUSH2 0x5D2 JUMP JUMPDEST POP SWAP1 JUMP JUMPDEST JUMPDEST DUP1 DUP3 GT ISZERO PUSH2 0x5EB JUMPI PUSH1 0x0 DUP2 PUSH1 0x0 SWAP1 SSTORE POP PUSH1 0x1 ADD PUSH2 0x5D3 JUMP JUMPDEST POP SWAP1 JUMP JUMPDEST PUSH1 0x0 PUSH2 0x602 PUSH2 0x5FD DUP5 PUSH2 0x87F JUMP JUMPDEST PUSH2 0x85A JUMP JUMPDEST SWAP1 POP DUP3 DUP2 MSTORE PUSH1 0x20 DUP2 ADD DUP5 DUP5 DUP5 ADD GT ISZERO PUSH2 0x61E JUMPI PUSH2 0x61D PUSH2 0x9E0 JUMP JUMPDEST JUMPDEST PUSH2 0x629 DUP5 DUP3 DUP6 PUSH2 0x8D8 JUMP JUMPDEST POP SWAP4 SWAP3 POP POP POP JUMP JUMPDEST PUSH1 0x0 DUP2 CALLDATALOAD SWAP1 POP PUSH2 0x640 DUP2 PUSH2 0xA00 JUMP JUMPDEST SWAP3 SWAP2 POP POP JUMP JUMPDEST PUSH1 0x0 DUP3 PUSH1 0x1F DUP4 ADD SLT PUSH2 0x65B JUMPI PUSH2 0x65A PUSH2 0x9DB JUMP JUMPDEST JUMPDEST DUP2 CALLDATALOAD PUSH2 0x66B DUP5 DUP3 PUSH1 0x20 DUP7 ADD PUSH2 0x5EF JUMP JUMPDEST SWAP2 POP POP SWAP3 SWAP2 POP POP JUMP JUMPDEST PUSH1 0x0 PUSH1 0x20 DUP3 DUP5 SUB SLT ISZERO PUSH2 0x68A JUMPI PUSH2 0x689 PUSH2 0x9EA JUMP JUMPDEST JUMPDEST PUSH1 0x0 PUSH2 0x698 DUP5 DUP3 DUP6 ADD PUSH2 0x631 JUMP JUMPDEST SWAP2 POP POP SWAP3 SWAP2 POP POP JUMP JUMPDEST PUSH1 0x0 PUSH1 0x20 DUP3 DUP5 SUB SLT ISZERO PUSH2 0x6B7 JUMPI PUSH2 0x6B6 PUSH2 0x9EA JUMP JUMPDEST JUMPDEST PUSH1 0x0 DUP3 ADD CALLDATALOAD PUSH8 0xFFFFFFFFFFFFFFFF DUP2 GT ISZERO PUSH2 0x6D5 JUMPI PUSH2 0x6D4 PUSH2 0x9E5 JUMP JUMPDEST JUMPDEST PUSH2 0x6E1 DUP5 DUP3 DUP6 ADD PUSH2 0x646 JUMP JUMPDEST SWAP2 POP POP SWAP3 SWAP2 POP POP JUMP JUMPDEST PUSH1 0x0 DUP1 PUSH1 0x0 DUP1 PUSH1 0x0 PUSH1 0xA0 DUP7 DUP9 SUB SLT ISZERO PUSH2 0x706 JUMPI PUSH2 0x705 PUSH2 0x9EA JUMP JUMPDEST JUMPDEST PUSH1 0x0 DUP7 ADD CALLDATALOAD PUSH8 0xFFFFFFFFFFFFFFFF DUP2 GT ISZERO PUSH2 0x724 JUMPI PUSH2 0x723 PUSH2 0x9E5 JUMP JUMPDEST JUMPDEST PUSH2 0x730 DUP9 DUP3 DUP10 ADD PUSH2 0x646 JUMP JUMPDEST SWAP6 POP POP PUSH1 0x20 DUP7 ADD CALLDATALOAD PUSH8 0xFFFFFFFFFFFFFFFF DUP2 GT ISZERO PUSH2 0x751 JUMPI PUSH2 0x750 PUSH2 0x9E5 JUMP JUMPDEST JUMPDEST PUSH2 0x75D DUP9 DUP3 DUP10 ADD PUSH2 0x646 JUMP JUMPDEST SWAP5 POP POP PUSH1 0x40 DUP7 ADD CALLDATALOAD PUSH8 0xFFFFFFFFFFFFFFFF DUP2 GT ISZERO PUSH2 0x77E JUMPI PUSH2 0x77D PUSH2 0x9E5 JUMP JUMPDEST JUMPDEST PUSH2 0x78A DUP9 DUP3 DUP10 ADD PUSH2 0x646 JUMP JUMPDEST SWAP4 POP POP PUSH1 0x60 PUSH2 0x79B DUP9 DUP3 DUP10 ADD PUSH2 0x631 JUMP JUMPDEST SWAP3 POP POP PUSH1 0x80 DUP7 ADD CALLDATALOAD PUSH8 0xFFFFFFFFFFFFFFFF DUP2 GT ISZERO PUSH2 0x7BC JUMPI PUSH2 0x7BB PUSH2 0x9E5 JUMP JUMPDEST JUMPDEST PUSH2 0x7C8 DUP9 DUP3 DUP10 ADD PUSH2 0x646 JUMP JUMPDEST SWAP2 POP POP SWAP3 SWAP6 POP SWAP3 SWAP6 SWAP1 SWAP4 POP JUMP JUMPDEST PUSH2 0x7DE DUP2 PUSH2 0x8CC JUMP JUMPDEST DUP3 MSTORE POP POP JUMP JUMPDEST PUSH1 0x0 PUSH2 0x7EF DUP3 PUSH2 0x8B0 JUMP JUMPDEST PUSH2 0x7F9 DUP2 DUP6 PUSH2 0x8BB JUMP JUMPDEST SWAP4 POP PUSH2 0x809 DUP2 DUP6 PUSH1 0x20 DUP7 ADD PUSH2 0x8E7 JUMP JUMPDEST PUSH2 0x812 DUP2 PUSH2 0x9EF JUMP JUMPDEST DUP5 ADD SWAP2 POP POP SWAP3 SWAP2 POP POP JUMP JUMPDEST PUSH1 0x0 PUSH1 0x20 DUP3 ADD SWAP1 POP PUSH2 0x832 PUSH1 0x0 DUP4 ADD DUP5 PUSH2 0x7D5 JUMP JUMPDEST SWAP3 SWAP2 POP POP JUMP JUMPDEST PUSH1 0x0 PUSH1 0x20 DUP3 ADD SWAP1 POP DUP2 DUP2 SUB PUSH1 0x0 DUP4 ADD MSTORE PUSH2 0x852 DUP2 DUP5 PUSH2 0x7E4 JUMP JUMPDEST SWAP1 POP SWAP3 SWAP2 POP POP JUMP JUMPDEST PUSH1 0x0 PUSH2 0x864 PUSH2 0x875 JUMP JUMPDEST SWAP1 POP PUSH2 0x870 DUP3 DUP3 PUSH2 0x94C JUMP JUMPDEST SWAP2 SWAP1 POP JUMP JUMPDEST PUSH1 0x0 PUSH1 0x40 MLOAD SWAP1 POP SWAP1 JUMP JUMPDEST PUSH1 0x0 PUSH8 0xFFFFFFFFFFFFFFFF DUP3 GT ISZERO PUSH2 0x89A JUMPI PUSH2 0x899 PUSH2 0x9AC JUMP JUMPDEST JUMPDEST PUSH2 0x8A3 DUP3 PUSH2 0x9EF JUMP JUMPDEST SWAP1 POP PUSH1 0x20 DUP2 ADD SWAP1 POP SWAP2 SWAP1 POP JUMP JUMPDEST PUSH1 0x0 DUP2 MLOAD SWAP1 POP SWAP2 SWAP1 POP JUMP JUMPDEST PUSH1 0x0 DUP3 DUP3 MSTORE PUSH1 0x20 DUP3 ADD SWAP1 POP SWAP3 SWAP2 POP POP JUMP JUMPDEST PUSH1 0x0 DUP2 ISZERO ISZERO SWAP1 POP SWAP2 SWAP1 POP JUMP JUMPDEST DUP3 DUP2 DUP4 CALLDATACOPY PUSH1 0x0 DUP4 DUP4 ADD MSTORE POP POP POP JUMP JUMPDEST PUSH1 0x0 JUMPDEST DUP4 DUP2 LT ISZERO PUSH2 0x905 JUMPI DUP1 DUP3 ADD MLOAD DUP2 DUP5 ADD MSTORE PUSH1 0x20 DUP2 ADD SWAP1 POP PUSH2 0x8EA JUMP JUMPDEST DUP4 DUP2 GT ISZERO PUSH2 0x914 JUMPI PUSH1 0x0 DUP5 DUP5 ADD MSTORE JUMPDEST POP POP POP POP JUMP JUMPDEST PUSH1 0x0 PUSH1 0x2 DUP3 DIV SWAP1 POP PUSH1 0x1 DUP3 AND DUP1 PUSH2 0x932 JUMPI PUSH1 0x7F DUP3 AND SWAP2 POP JUMPDEST PUSH1 0x20 DUP3 LT DUP2 EQ ISZERO PUSH2 0x946 JUMPI PUSH2 0x945 PUSH2 0x97D JUMP JUMPDEST JUMPDEST POP SWAP2 SWAP1 POP JUMP JUMPDEST PUSH2 0x955 DUP3 PUSH2 0x9EF JUMP JUMPDEST DUP2 ADD DUP2 DUP2 LT PUSH8 0xFFFFFFFFFFFFFFFF DUP3 GT OR ISZERO PUSH2 0x974 JUMPI PUSH2 0x973 PUSH2 0x9AC JUMP JUMPDEST JUMPDEST DUP1 PUSH1 0x40 MSTORE POP POP POP JUMP JUMPDEST PUSH32 0x4E487B7100000000000000000000000000000000000000000000000000000000 PUSH1 0x0 MSTORE PUSH1 0x22 PUSH1 0x4 MSTORE PUSH1 0x24 PUSH1 0x0 REVERT JUMPDEST PUSH32 0x4E487B7100000000000000000000000000000000000000000000000000000000 PUSH1 0x0 MSTORE PUSH1 0x41 PUSH1 0x4 MSTORE PUSH1 0x24 PUSH1 0x0 REVERT JUMPDEST PUSH1 0x0 DUP1 REVERT JUMPDEST PUSH1 0x0 DUP1 REVERT JUMPDEST PUSH1 0x0 DUP1 REVERT JUMPDEST PUSH1 0x0 DUP1 REVERT JUMPDEST PUSH1 0x0 PUSH1 0x1F NOT PUSH1 0x1F DUP4 ADD AND SWAP1 POP SWAP2 SWAP1 POP JUMP JUMPDEST PUSH2 0xA09 DUP2 PUSH2 0x8CC JUMP JUMPDEST DUP2 EQ PUSH2 0xA14 JUMPI PUSH1 0x0 DUP1 REVERT JUMPDEST POP JUMP INVALID LOG2 PUSH5 0x6970667358 0x22 SLT KECCAK256 PUSH10 0xF858056236B4CFB99573 STATICCALL DUP5 KECCAK256 0xB7 0xCC 0xAD 0x1E 0x4C 0xBF 0xB8 0xBC PUSH5 0x6208DC1559 0xBE CHAINID LOG0 0xDD PUSH5 0x736F6C6343 STOP ADDMOD SMOD STOP CALLER "
				},
				"gasEstimates": {
					"creation": {
						"codeDepositCost": "527400",
						"executionCost": "infinite",
						"totalCost": "infinite"
					},
					"external": {
						"getActive()": "2480",
						"getFieldDescription()": "infinite",
						"getLatitude()": "infinite",
						"getLongitude()": "infinite",
						"getObservation()": "infinite",
						"setActive(bool)": "24723",
						"setFieldDescription(string)": "infinite",
						"setLatitude(string)": "infinite",
						"setLongitude(string)": "infinite",
						"setObservation(string)": "infinite",
						"updateField(string,string,string,bool,string)": "infinite"
					}
				},
				"methodIdentifiers": {
					"getActive()": "009ebb10",
					"getFieldDescription()": "72d7e3da",
					"getLatitude()": "ae7b6bd9",
					"getLongitude()": "55b72f38",
					"getObservation()": "6b2b1ab9",
					"setActive(bool)": "acec338a",
					"setFieldDescription(string)": "91231eab",
					"setLatitude(string)": "7fd8454b",
					"setLongitude(string)": "af14363f",
					"setObservation(string)": "2e25fa47",
					"updateField(string,string,string,bool,string)": "fc20f51e"
				}
			},
			"storageLayout": {
				"storage": [
					{
						"astId": 3,
						"contract": "contracts/Field.sol:Field",
						"label": "fieldDescription",
						"offset": 0,
						"slot": "0",
						"type": "t_string_storage"
					},
					{
						"astId": 5,
						"contract": "contracts/Field.sol:Field",
						"label": "latitude",
						"offset": 0,
						"slot": "1",
						"type": "t_string_storage"
					},
					{
						"astId": 7,
						"contract": "contracts/Field.sol:Field",
						"label": "longitude",
						"offset": 0,
						"slot": "2",
						"type": "t_string_storage"
					},
					{
						"astId": 9,
						"contract": "contracts/Field.sol:Field",
						"label": "active",
						"offset": 0,
						"slot": "3",
						"type": "t_bool"
					},
					{
						"astId": 11,
						"contract": "contracts/Field.sol:Field",
						"label": "observation",
						"offset": 0,
						"slot": "4",
						"type": "t_string_storage"
					}
				],
				"types": {
					"t_bool": {
						"encoding": "inplace",
						"label": "bool",
						"numberOfBytes": "1"
					},
					"t_string_storage": {
						"encoding": "bytes",
						"label": "string",
						"numberOfBytes": "32"
					}
				}
			},
			"userdoc": {
				"kind": "user",
				"methods": {},
				"version": 1
			}
		}
	}
}