{
	"contracts/Bovine.sol": {
		"Bovine": {
			"abi": [
				{
					"inputs": [
						{
							"internalType": "string",
							"name": "_idOwner",
							"type": "string"
						},
						{
							"internalType": "int256",
							"name": "_idField",
							"type": "int256"
						},
						{
							"internalType": "int256",
							"name": "_serialNumber",
							"type": "int256"
						},
						{
							"internalType": "string",
							"name": "_birthDate",
							"type": "string"
						},
						{
							"internalType": "bool",
							"name": "_active",
							"type": "bool"
						},
						{
							"internalType": "string",
							"name": "_observation",
							"type": "string"
						},
						{
							"internalType": "int256",
							"name": "_idBovineParentOne",
							"type": "int256"
						},
						{
							"internalType": "int256",
							"name": "_idBovineParent2",
							"type": "int256"
						},
						{
							"internalType": "bool",
							"name": "_gender",
							"type": "bool"
						}
					],
					"stateMutability": "nonpayable",
					"type": "constructor"
				},
				{
					"inputs": [],
					"name": "getActive",
					"outputs": [
						{
							"internalType": "bool",
							"name": "",
							"type": "bool"
						}
					],
					"stateMutability": "view",
					"type": "function"
				},
				{
					"inputs": [],
					"name": "getBirthDate",
					"outputs": [
						{
							"internalType": "string",
							"name": "",
							"type": "string"
						}
					],
					"stateMutability": "view",
					"type": "function"
				},
				{
					"inputs": [],
					"name": "getGender",
					"outputs": [
						{
							"internalType": "bool",
							"name": "",
							"type": "bool"
						}
					],
					"stateMutability": "view",
					"type": "function"
				},
				{
					"inputs": [],
					"name": "getIDBovineParentOne",
					"outputs": [
						{
							"internalType": "int256",
							"name": "",
							"type": "int256"
						}
					],
					"stateMutability": "view",
					"type": "function"
				},
				{
					"inputs": [],
					"name": "getIDBovineParentTwo",
					"outputs": [
						{
							"internalType": "int256",
							"name": "",
							"type": "int256"
						}
					],
					"stateMutability": "view",
					"type": "function"
				},
				{
					"inputs": [],
					"name": "getIDField",
					"outputs": [
						{
							"internalType": "int256",
							"name": "",
							"type": "int256"
						}
					],
					"stateMutability": "view",
					"type": "function"
				},
				{
					"inputs": [],
					"name": "getIDOwner",
					"outputs": [
						{
							"internalType": "string",
							"name": "",
							"type": "string"
						}
					],
					"stateMutability": "view",
					"type": "function"
				},
				{
					"inputs": [],
					"name": "getObservation",
					"outputs": [
						{
							"internalType": "string",
							"name": "",
							"type": "string"
						}
					],
					"stateMutability": "view",
					"type": "function"
				},
				{
					"inputs": [],
					"name": "getSerialNumber",
					"outputs": [
						{
							"internalType": "int256",
							"name": "",
							"type": "int256"
						}
					],
					"stateMutability": "view",
					"type": "function"
				},
				{
					"inputs": [
						{
							"internalType": "bool",
							"name": "_active",
							"type": "bool"
						}
					],
					"name": "setActive",
					"outputs": [],
					"stateMutability": "nonpayable",
					"type": "function"
				},
				{
					"inputs": [
						{
							"internalType": "string",
							"name": "_birthDate",
							"type": "string"
						}
					],
					"name": "setBirthDate",
					"outputs": [],
					"stateMutability": "nonpayable",
					"type": "function"
				},
				{
					"inputs": [
						{
							"internalType": "bool",
							"name": "_gender",
							"type": "bool"
						}
					],
					"name": "setGender",
					"outputs": [],
					"stateMutability": "nonpayable",
					"type": "function"
				},
				{
					"inputs": [
						{
							"internalType": "int256",
							"name": "_idBovineParentOne",
							"type": "int256"
						}
					],
					"name": "setIDBovineParentOne",
					"outputs": [],
					"stateMutability": "nonpayable",
					"type": "function"
				},
				{
					"inputs": [
						{
							"internalType": "int256",
							"name": "_idBovineParentTwo",
							"type": "int256"
						}
					],
					"name": "setIDBovineParentTwo",
					"outputs": [],
					"stateMutability": "nonpayable",
					"type": "function"
				},
				{
					"inputs": [
						{
							"internalType": "int256",
							"name": "_idField",
							"type": "int256"
						}
					],
					"name": "setIDField",
					"outputs": [],
					"stateMutability": "nonpayable",
					"type": "function"
				},
				{
					"inputs": [
						{
							"internalType": "string",
							"name": "_idOwner",
							"type": "string"
						}
					],
					"name": "setIDOwner",
					"outputs": [],
					"stateMutability": "nonpayable",
					"type": "function"
				},
				{
					"inputs": [
						{
							"internalType": "string",
							"name": "_observation",
							"type": "string"
						}
					],
					"name": "setObservation",
					"outputs": [],
					"stateMutability": "nonpayable",
					"type": "function"
				},
				{
					"inputs": [
						{
							"internalType": "int256",
							"name": "_serialNumber",
							"type": "int256"
						}
					],
					"name": "setSerialNumber",
					"outputs": [],
					"stateMutability": "nonpayable",
					"type": "function"
				},
				{
					"inputs": [
						{
							"internalType": "string",
							"name": "_idOwner",
							"type": "string"
						},
						{
							"internalType": "int256",
							"name": "_idField",
							"type": "int256"
						},
						{
							"internalType": "bool",
							"name": "_active",
							"type": "bool"
						}
					],
					"name": "setUpdate",
					"outputs": [],
					"stateMutability": "nonpayable",
					"type": "function"
				}
			],
			"devdoc": {
				"kind": "dev",
				"methods": {},
				"version": 1
			},
			"evm": {
				"assembly": "    /* \"contracts/Bovine.sol\":71:2862  contract Bovine {\r... */\n  mstore(0x40, 0x80)\n    /* \"contracts/Bovine.sol\":324:863  constructor(string memory _idOwner, int _idField, int _serialNumber, string memory _birthDate, bool _active, string memory _observation, \r... */\n  callvalue\n  dup1\n  iszero\n  tag_1\n  jumpi\n  0x00\n  dup1\n  revert\ntag_1:\n  pop\n  mload(0x40)\n  sub(codesize, bytecodeSize)\n  dup1\n  bytecodeSize\n  dup4\n  codecopy\n  dup2\n  dup2\n  add\n  0x40\n  mstore\n  dup2\n  add\n  swap1\n  tag_2\n  swap2\n  swap1\n  tag_3\n  jump\t// in\ntag_2:\n    /* \"contracts/Bovine.sol\":560:568  _idOwner */\n  dup9\n    /* \"contracts/Bovine.sol\":550:557  idOwner */\n  0x00\n    /* \"contracts/Bovine.sol\":550:568  idOwner = _idOwner */\n  swap1\n  dup1\n  mload\n  swap1\n  0x20\n  add\n  swap1\n  tag_6\n  swap3\n  swap2\n  swap1\n  tag_7\n  jump\t// in\ntag_6:\n  pop\n    /* \"contracts/Bovine.sol\":589:597  _idField */\n  dup8\n    /* \"contracts/Bovine.sol\":579:586  idField */\n  0x01\n    /* \"contracts/Bovine.sol\":579:597  idField = _idField */\n  dup2\n  swap1\n  sstore\n  pop\n    /* \"contracts/Bovine.sol\":623:636  _serialNumber */\n  dup7\n    /* \"contracts/Bovine.sol\":608:620  serialNumber */\n  0x02\n    /* \"contracts/Bovine.sol\":608:636  serialNumber = _serialNumber */\n  dup2\n  swap1\n  sstore\n  pop\n    /* \"contracts/Bovine.sol\":659:669  _birthDate */\n  dup6\n    /* \"contracts/Bovine.sol\":647:656  birthDate */\n  0x03\n    /* \"contracts/Bovine.sol\":647:669  birthDate = _birthDate */\n  swap1\n  dup1\n  mload\n  swap1\n  0x20\n  add\n  swap1\n  tag_8\n  swap3\n  swap2\n  swap1\n  tag_7\n  jump\t// in\ntag_8:\n  pop\n    /* \"contracts/Bovine.sol\":689:696  _active */\n  dup5\n    /* \"contracts/Bovine.sol\":680:686  active */\n  0x04\n  0x00\n    /* \"contracts/Bovine.sol\":680:696  active = _active */\n  0x0100\n  exp\n  dup2\n  sload\n  dup2\n  0xff\n  mul\n  not\n  and\n  swap1\n  dup4\n  iszero\n  iszero\n  mul\n  or\n  swap1\n  sstore\n  pop\n    /* \"contracts/Bovine.sol\":721:733  _observation */\n  dup4\n    /* \"contracts/Bovine.sol\":707:718  observation */\n  0x05\n    /* \"contracts/Bovine.sol\":707:733  observation = _observation */\n  swap1\n  dup1\n  mload\n  swap1\n  0x20\n  add\n  swap1\n  tag_9\n  swap3\n  swap2\n  swap1\n  tag_7\n  jump\t// in\ntag_9:\n  pop\n    /* \"contracts/Bovine.sol\":764:781  idBovineParentOne */\n  sload(0x06)\n    /* \"contracts/Bovine.sol\":744:761  idBovineParentOne */\n  0x06\n    /* \"contracts/Bovine.sol\":744:781  idBovineParentOne = idBovineParentOne */\n  dup2\n  swap1\n  sstore\n  pop\n    /* \"contracts/Bovine.sol\":812:828  _idBovineParent2 */\n  dup2\n    /* \"contracts/Bovine.sol\":792:809  idBovineParentTwo */\n  0x07\n    /* \"contracts/Bovine.sol\":792:828  idBovineParentTwo = _idBovineParent2 */\n  dup2\n  swap1\n  sstore\n  pop\n    /* \"contracts/Bovine.sol\":848:855  _gender */\n  dup1\n    /* \"contracts/Bovine.sol\":839:845  gender */\n  0x08\n  0x00\n    /* \"contracts/Bovine.sol\":839:855  gender = _gender */\n  0x0100\n  exp\n  dup2\n  sload\n  dup2\n  0xff\n  mul\n  not\n  and\n  swap1\n  dup4\n  iszero\n  iszero\n  mul\n  or\n  swap1\n  sstore\n  pop\n    /* \"contracts/Bovine.sol\":324:863  constructor(string memory _idOwner, int _idField, int _serialNumber, string memory _birthDate, bool _active, string memory _observation, \r... */\n  pop\n  pop\n  pop\n  pop\n  pop\n  pop\n  pop\n  pop\n  pop\n    /* \"contracts/Bovine.sol\":71:2862  contract Bovine {\r... */\n  jump(tag_10)\ntag_7:\n  dup3\n  dup1\n  sload\n  tag_11\n  swap1\n  tag_12\n  jump\t// in\ntag_11:\n  swap1\n  0x00\n  mstore\n  keccak256(0x00, 0x20)\n  swap1\n  0x1f\n  add\n  0x20\n  swap1\n  div\n  dup2\n  add\n  swap3\n  dup3\n  tag_14\n  jumpi\n  0x00\n  dup6\n  sstore\n  jump(tag_13)\ntag_14:\n  dup3\n  0x1f\n  lt\n  tag_15\n  jumpi\n  dup1\n  mload\n  not(0xff)\n  and\n  dup4\n  dup1\n  add\n  or\n  dup6\n  sstore\n  jump(tag_13)\ntag_15:\n  dup3\n  dup1\n  add\n  0x01\n  add\n  dup6\n  sstore\n  dup3\n  iszero\n  tag_13\n  jumpi\n  swap2\n  dup3\n  add\ntag_16:\n  dup3\n  dup2\n  gt\n  iszero\n  tag_17\n  jumpi\n  dup3\n  mload\n  dup3\n  sstore\n  swap2\n  0x20\n  add\n  swap2\n  swap1\n  0x01\n  add\n  swap1\n  jump(tag_16)\ntag_17:\ntag_13:\n  pop\n  swap1\n  pop\n  tag_18\n  swap2\n  swap1\n  tag_19\n  jump\t// in\ntag_18:\n  pop\n  swap1\n  jump\t// out\ntag_19:\ntag_20:\n  dup1\n  dup3\n  gt\n  iszero\n  tag_21\n  jumpi\n  0x00\n  dup2\n  0x00\n  swap1\n  sstore\n  pop\n  0x01\n  add\n  jump(tag_20)\ntag_21:\n  pop\n  swap1\n  jump\t// out\n    /* \"#utility.yul\":7:428   */\ntag_23:\n    /* \"#utility.yul\":96:101   */\n  0x00\n    /* \"#utility.yul\":121:187   */\n  tag_25\n    /* \"#utility.yul\":137:186   */\n  tag_26\n    /* \"#utility.yul\":179:185   */\n  dup5\n    /* \"#utility.yul\":137:186   */\n  tag_27\n  jump\t// in\ntag_26:\n    /* \"#utility.yul\":121:187   */\n  tag_28\n  jump\t// in\ntag_25:\n    /* \"#utility.yul\":112:187   */\n  swap1\n  pop\n    /* \"#utility.yul\":210:216   */\n  dup3\n    /* \"#utility.yul\":203:208   */\n  dup2\n    /* \"#utility.yul\":196:217   */\n  mstore\n    /* \"#utility.yul\":248:252   */\n  0x20\n    /* \"#utility.yul\":241:246   */\n  dup2\n    /* \"#utility.yul\":237:253   */\n  add\n    /* \"#utility.yul\":286:289   */\n  dup5\n    /* \"#utility.yul\":277:283   */\n  dup5\n    /* \"#utility.yul\":272:275   */\n  dup5\n    /* \"#utility.yul\":268:284   */\n  add\n    /* \"#utility.yul\":265:290   */\n  gt\n    /* \"#utility.yul\":262:374   */\n  iszero\n  tag_29\n  jumpi\n    /* \"#utility.yul\":293:372   */\n  tag_30\n  tag_31\n  jump\t// in\ntag_30:\n    /* \"#utility.yul\":262:374   */\ntag_29:\n    /* \"#utility.yul\":383:422   */\n  tag_32\n    /* \"#utility.yul\":415:421   */\n  dup5\n    /* \"#utility.yul\":410:413   */\n  dup3\n    /* \"#utility.yul\":405:408   */\n  dup6\n    /* \"#utility.yul\":383:422   */\n  tag_33\n  jump\t// in\ntag_32:\n    /* \"#utility.yul\":102:428   */\n  pop\n    /* \"#utility.yul\":7:428   */\n  swap4\n  swap3\n  pop\n  pop\n  pop\n  jump\t// out\n    /* \"#utility.yul\":434:571   */\ntag_34:\n    /* \"#utility.yul\":488:493   */\n  0x00\n    /* \"#utility.yul\":519:525   */\n  dup2\n    /* \"#utility.yul\":513:526   */\n  mload\n    /* \"#utility.yul\":504:526   */\n  swap1\n  pop\n    /* \"#utility.yul\":535:565   */\n  tag_36\n    /* \"#utility.yul\":559:564   */\n  dup2\n    /* \"#utility.yul\":535:565   */\n  tag_37\n  jump\t// in\ntag_36:\n    /* \"#utility.yul\":434:571   */\n  swap3\n  swap2\n  pop\n  pop\n  jump\t// out\n    /* \"#utility.yul\":577:718   */\ntag_38:\n    /* \"#utility.yul\":633:638   */\n  0x00\n    /* \"#utility.yul\":664:670   */\n  dup2\n    /* \"#utility.yul\":658:671   */\n  mload\n    /* \"#utility.yul\":649:671   */\n  swap1\n  pop\n    /* \"#utility.yul\":680:712   */\n  tag_40\n    /* \"#utility.yul\":706:711   */\n  dup2\n    /* \"#utility.yul\":680:712   */\n  tag_41\n  jump\t// in\ntag_40:\n    /* \"#utility.yul\":577:718   */\n  swap3\n  swap2\n  pop\n  pop\n  jump\t// out\n    /* \"#utility.yul\":738:1093   */\ntag_42:\n    /* \"#utility.yul\":805:810   */\n  0x00\n    /* \"#utility.yul\":854:857   */\n  dup3\n    /* \"#utility.yul\":847:851   */\n  0x1f\n    /* \"#utility.yul\":839:845   */\n  dup4\n    /* \"#utility.yul\":835:852   */\n  add\n    /* \"#utility.yul\":831:858   */\n  slt\n    /* \"#utility.yul\":821:943   */\n  tag_44\n  jumpi\n    /* \"#utility.yul\":862:941   */\n  tag_45\n  tag_46\n  jump\t// in\ntag_45:\n    /* \"#utility.yul\":821:943   */\ntag_44:\n    /* \"#utility.yul\":972:978   */\n  dup2\n    /* \"#utility.yul\":966:979   */\n  mload\n    /* \"#utility.yul\":997:1087   */\n  tag_47\n    /* \"#utility.yul\":1083:1086   */\n  dup5\n    /* \"#utility.yul\":1075:1081   */\n  dup3\n    /* \"#utility.yul\":1068:1072   */\n  0x20\n    /* \"#utility.yul\":1060:1066   */\n  dup7\n    /* \"#utility.yul\":1056:1073   */\n  add\n    /* \"#utility.yul\":997:1087   */\n  tag_23\n  jump\t// in\ntag_47:\n    /* \"#utility.yul\":988:1087   */\n  swap2\n  pop\n    /* \"#utility.yul\":811:1093   */\n  pop\n    /* \"#utility.yul\":738:1093   */\n  swap3\n  swap2\n  pop\n  pop\n  jump\t// out\n    /* \"#utility.yul\":1099:3203   */\ntag_3:\n    /* \"#utility.yul\":1261:1267   */\n  0x00\n    /* \"#utility.yul\":1269:1275   */\n  dup1\n    /* \"#utility.yul\":1277:1283   */\n  0x00\n    /* \"#utility.yul\":1285:1291   */\n  dup1\n    /* \"#utility.yul\":1293:1299   */\n  0x00\n    /* \"#utility.yul\":1301:1307   */\n  dup1\n    /* \"#utility.yul\":1309:1315   */\n  0x00\n    /* \"#utility.yul\":1317:1323   */\n  dup1\n    /* \"#utility.yul\":1325:1331   */\n  0x00\n    /* \"#utility.yul\":1374:1377   */\n  0x0120\n    /* \"#utility.yul\":1362:1371   */\n  dup11\n    /* \"#utility.yul\":1353:1360   */\n  dup13\n    /* \"#utility.yul\":1349:1372   */\n  sub\n    /* \"#utility.yul\":1345:1378   */\n  slt\n    /* \"#utility.yul\":1342:1462   */\n  iszero\n  tag_49\n  jumpi\n    /* \"#utility.yul\":1381:1460   */\n  tag_50\n  tag_51\n  jump\t// in\ntag_50:\n    /* \"#utility.yul\":1342:1462   */\ntag_49:\n    /* \"#utility.yul\":1522:1523   */\n  0x00\n    /* \"#utility.yul\":1511:1520   */\n  dup11\n    /* \"#utility.yul\":1507:1524   */\n  add\n    /* \"#utility.yul\":1501:1525   */\n  mload\n    /* \"#utility.yul\":1552:1570   */\n  0xffffffffffffffff\n    /* \"#utility.yul\":1544:1550   */\n  dup2\n    /* \"#utility.yul\":1541:1571   */\n  gt\n    /* \"#utility.yul\":1538:1655   */\n  iszero\n  tag_52\n  jumpi\n    /* \"#utility.yul\":1574:1653   */\n  tag_53\n  tag_54\n  jump\t// in\ntag_53:\n    /* \"#utility.yul\":1538:1655   */\ntag_52:\n    /* \"#utility.yul\":1679:1753   */\n  tag_55\n    /* \"#utility.yul\":1745:1752   */\n  dup13\n    /* \"#utility.yul\":1736:1742   */\n  dup3\n    /* \"#utility.yul\":1725:1734   */\n  dup14\n    /* \"#utility.yul\":1721:1743   */\n  add\n    /* \"#utility.yul\":1679:1753   */\n  tag_42\n  jump\t// in\ntag_55:\n    /* \"#utility.yul\":1669:1753   */\n  swap10\n  pop\n    /* \"#utility.yul\":1472:1763   */\n  pop\n    /* \"#utility.yul\":1802:1804   */\n  0x20\n    /* \"#utility.yul\":1828:1891   */\n  tag_56\n    /* \"#utility.yul\":1883:1890   */\n  dup13\n    /* \"#utility.yul\":1874:1880   */\n  dup3\n    /* \"#utility.yul\":1863:1872   */\n  dup14\n    /* \"#utility.yul\":1859:1881   */\n  add\n    /* \"#utility.yul\":1828:1891   */\n  tag_38\n  jump\t// in\ntag_56:\n    /* \"#utility.yul\":1818:1891   */\n  swap9\n  pop\n    /* \"#utility.yul\":1773:1901   */\n  pop\n    /* \"#utility.yul\":1940:1942   */\n  0x40\n    /* \"#utility.yul\":1966:2029   */\n  tag_57\n    /* \"#utility.yul\":2021:2028   */\n  dup13\n    /* \"#utility.yul\":2012:2018   */\n  dup3\n    /* \"#utility.yul\":2001:2010   */\n  dup14\n    /* \"#utility.yul\":1997:2019   */\n  add\n    /* \"#utility.yul\":1966:2029   */\n  tag_38\n  jump\t// in\ntag_57:\n    /* \"#utility.yul\":1956:2029   */\n  swap8\n  pop\n    /* \"#utility.yul\":1911:2039   */\n  pop\n    /* \"#utility.yul\":2099:2101   */\n  0x60\n    /* \"#utility.yul\":2088:2097   */\n  dup11\n    /* \"#utility.yul\":2084:2102   */\n  add\n    /* \"#utility.yul\":2078:2103   */\n  mload\n    /* \"#utility.yul\":2130:2148   */\n  0xffffffffffffffff\n    /* \"#utility.yul\":2122:2128   */\n  dup2\n    /* \"#utility.yul\":2119:2149   */\n  gt\n    /* \"#utility.yul\":2116:2233   */\n  iszero\n  tag_58\n  jumpi\n    /* \"#utility.yul\":2152:2231   */\n  tag_59\n  tag_54\n  jump\t// in\ntag_59:\n    /* \"#utility.yul\":2116:2233   */\ntag_58:\n    /* \"#utility.yul\":2257:2331   */\n  tag_60\n    /* \"#utility.yul\":2323:2330   */\n  dup13\n    /* \"#utility.yul\":2314:2320   */\n  dup3\n    /* \"#utility.yul\":2303:2312   */\n  dup14\n    /* \"#utility.yul\":2299:2321   */\n  add\n    /* \"#utility.yul\":2257:2331   */\n  tag_42\n  jump\t// in\ntag_60:\n    /* \"#utility.yul\":2247:2331   */\n  swap7\n  pop\n    /* \"#utility.yul\":2049:2341   */\n  pop\n    /* \"#utility.yul\":2380:2383   */\n  0x80\n    /* \"#utility.yul\":2407:2468   */\n  tag_61\n    /* \"#utility.yul\":2460:2467   */\n  dup13\n    /* \"#utility.yul\":2451:2457   */\n  dup3\n    /* \"#utility.yul\":2440:2449   */\n  dup14\n    /* \"#utility.yul\":2436:2458   */\n  add\n    /* \"#utility.yul\":2407:2468   */\n  tag_34\n  jump\t// in\ntag_61:\n    /* \"#utility.yul\":2397:2468   */\n  swap6\n  pop\n    /* \"#utility.yul\":2351:2478   */\n  pop\n    /* \"#utility.yul\":2538:2541   */\n  0xa0\n    /* \"#utility.yul\":2527:2536   */\n  dup11\n    /* \"#utility.yul\":2523:2542   */\n  add\n    /* \"#utility.yul\":2517:2543   */\n  mload\n    /* \"#utility.yul\":2570:2588   */\n  0xffffffffffffffff\n    /* \"#utility.yul\":2562:2568   */\n  dup2\n    /* \"#utility.yul\":2559:2589   */\n  gt\n    /* \"#utility.yul\":2556:2673   */\n  iszero\n  tag_62\n  jumpi\n    /* \"#utility.yul\":2592:2671   */\n  tag_63\n  tag_54\n  jump\t// in\ntag_63:\n    /* \"#utility.yul\":2556:2673   */\ntag_62:\n    /* \"#utility.yul\":2697:2771   */\n  tag_64\n    /* \"#utility.yul\":2763:2770   */\n  dup13\n    /* \"#utility.yul\":2754:2760   */\n  dup3\n    /* \"#utility.yul\":2743:2752   */\n  dup14\n    /* \"#utility.yul\":2739:2761   */\n  add\n    /* \"#utility.yul\":2697:2771   */\n  tag_42\n  jump\t// in\ntag_64:\n    /* \"#utility.yul\":2687:2771   */\n  swap5\n  pop\n    /* \"#utility.yul\":2488:2781   */\n  pop\n    /* \"#utility.yul\":2820:2823   */\n  0xc0\n    /* \"#utility.yul\":2847:2910   */\n  tag_65\n    /* \"#utility.yul\":2902:2909   */\n  dup13\n    /* \"#utility.yul\":2893:2899   */\n  dup3\n    /* \"#utility.yul\":2882:2891   */\n  dup14\n    /* \"#utility.yul\":2878:2900   */\n  add\n    /* \"#utility.yul\":2847:2910   */\n  tag_38\n  jump\t// in\ntag_65:\n    /* \"#utility.yul\":2837:2910   */\n  swap4\n  pop\n    /* \"#utility.yul\":2791:2920   */\n  pop\n    /* \"#utility.yul\":2959:2962   */\n  0xe0\n    /* \"#utility.yul\":2986:3049   */\n  tag_66\n    /* \"#utility.yul\":3041:3048   */\n  dup13\n    /* \"#utility.yul\":3032:3038   */\n  dup3\n    /* \"#utility.yul\":3021:3030   */\n  dup14\n    /* \"#utility.yul\":3017:3039   */\n  add\n    /* \"#utility.yul\":2986:3049   */\n  tag_38\n  jump\t// in\ntag_66:\n    /* \"#utility.yul\":2976:3049   */\n  swap3\n  pop\n    /* \"#utility.yul\":2930:3059   */\n  pop\n    /* \"#utility.yul\":3098:3101   */\n  0x0100\n    /* \"#utility.yul\":3125:3186   */\n  tag_67\n    /* \"#utility.yul\":3178:3185   */\n  dup13\n    /* \"#utility.yul\":3169:3175   */\n  dup3\n    /* \"#utility.yul\":3158:3167   */\n  dup14\n    /* \"#utility.yul\":3154:3176   */\n  add\n    /* \"#utility.yul\":3125:3186   */\n  tag_34\n  jump\t// in\ntag_67:\n    /* \"#utility.yul\":3115:3186   */\n  swap2\n  pop\n    /* \"#utility.yul\":3069:3196   */\n  pop\n    /* \"#utility.yul\":1099:3203   */\n  swap3\n  swap6\n  swap9\n  pop\n  swap3\n  swap6\n  swap9\n  pop\n  swap3\n  swap6\n  swap9\n  jump\t// out\n    /* \"#utility.yul\":3209:3338   */\ntag_28:\n    /* \"#utility.yul\":3243:3249   */\n  0x00\n    /* \"#utility.yul\":3270:3290   */\n  tag_69\n  tag_70\n  jump\t// in\ntag_69:\n    /* \"#utility.yul\":3260:3290   */\n  swap1\n  pop\n    /* \"#utility.yul\":3299:3332   */\n  tag_71\n    /* \"#utility.yul\":3327:3331   */\n  dup3\n    /* \"#utility.yul\":3319:3325   */\n  dup3\n    /* \"#utility.yul\":3299:3332   */\n  tag_72\n  jump\t// in\ntag_71:\n    /* \"#utility.yul\":3209:3338   */\n  swap2\n  swap1\n  pop\n  jump\t// out\n    /* \"#utility.yul\":3344:3419   */\ntag_70:\n    /* \"#utility.yul\":3377:3383   */\n  0x00\n    /* \"#utility.yul\":3410:3412   */\n  0x40\n    /* \"#utility.yul\":3404:3413   */\n  mload\n    /* \"#utility.yul\":3394:3413   */\n  swap1\n  pop\n    /* \"#utility.yul\":3344:3419   */\n  swap1\n  jump\t// out\n    /* \"#utility.yul\":3425:3733   */\ntag_27:\n    /* \"#utility.yul\":3487:3491   */\n  0x00\n    /* \"#utility.yul\":3577:3595   */\n  0xffffffffffffffff\n    /* \"#utility.yul\":3569:3575   */\n  dup3\n    /* \"#utility.yul\":3566:3596   */\n  gt\n    /* \"#utility.yul\":3563:3619   */\n  iszero\n  tag_75\n  jumpi\n    /* \"#utility.yul\":3599:3617   */\n  tag_76\n  tag_77\n  jump\t// in\ntag_76:\n    /* \"#utility.yul\":3563:3619   */\ntag_75:\n    /* \"#utility.yul\":3637:3666   */\n  tag_78\n    /* \"#utility.yul\":3659:3665   */\n  dup3\n    /* \"#utility.yul\":3637:3666   */\n  tag_79\n  jump\t// in\ntag_78:\n    /* \"#utility.yul\":3629:3666   */\n  swap1\n  pop\n    /* \"#utility.yul\":3721:3725   */\n  0x20\n    /* \"#utility.yul\":3715:3719   */\n  dup2\n    /* \"#utility.yul\":3711:3726   */\n  add\n    /* \"#utility.yul\":3703:3726   */\n  swap1\n  pop\n    /* \"#utility.yul\":3425:3733   */\n  swap2\n  swap1\n  pop\n  jump\t// out\n    /* \"#utility.yul\":3739:3829   */\ntag_80:\n    /* \"#utility.yul\":3773:3780   */\n  0x00\n    /* \"#utility.yul\":3816:3821   */\n  dup2\n    /* \"#utility.yul\":3809:3822   */\n  iszero\n    /* \"#utility.yul\":3802:3823   */\n  iszero\n    /* \"#utility.yul\":3791:3823   */\n  swap1\n  pop\n    /* \"#utility.yul\":3739:3829   */\n  swap2\n  swap1\n  pop\n  jump\t// out\n    /* \"#utility.yul\":3835:3911   */\ntag_82:\n    /* \"#utility.yul\":3871:3878   */\n  0x00\n    /* \"#utility.yul\":3900:3905   */\n  dup2\n    /* \"#utility.yul\":3889:3905   */\n  swap1\n  pop\n    /* \"#utility.yul\":3835:3911   */\n  swap2\n  swap1\n  pop\n  jump\t// out\n    /* \"#utility.yul\":3917:4224   */\ntag_33:\n    /* \"#utility.yul\":3985:3986   */\n  0x00\n    /* \"#utility.yul\":3995:4108   */\ntag_85:\n    /* \"#utility.yul\":4009:4015   */\n  dup4\n    /* \"#utility.yul\":4006:4007   */\n  dup2\n    /* \"#utility.yul\":4003:4016   */\n  lt\n    /* \"#utility.yul\":3995:4108   */\n  iszero\n  tag_87\n  jumpi\n    /* \"#utility.yul\":4094:4095   */\n  dup1\n    /* \"#utility.yul\":4089:4092   */\n  dup3\n    /* \"#utility.yul\":4085:4096   */\n  add\n    /* \"#utility.yul\":4079:4097   */\n  mload\n    /* \"#utility.yul\":4075:4076   */\n  dup2\n    /* \"#utility.yul\":4070:4073   */\n  dup5\n    /* \"#utility.yul\":4066:4077   */\n  add\n    /* \"#utility.yul\":4059:4098   */\n  mstore\n    /* \"#utility.yul\":4031:4033   */\n  0x20\n    /* \"#utility.yul\":4028:4029   */\n  dup2\n    /* \"#utility.yul\":4024:4034   */\n  add\n    /* \"#utility.yul\":4019:4034   */\n  swap1\n  pop\n    /* \"#utility.yul\":3995:4108   */\n  jump(tag_85)\ntag_87:\n    /* \"#utility.yul\":4126:4132   */\n  dup4\n    /* \"#utility.yul\":4123:4124   */\n  dup2\n    /* \"#utility.yul\":4120:4133   */\n  gt\n    /* \"#utility.yul\":4117:4218   */\n  iszero\n  tag_88\n  jumpi\n    /* \"#utility.yul\":4206:4207   */\n  0x00\n    /* \"#utility.yul\":4197:4203   */\n  dup5\n    /* \"#utility.yul\":4192:4195   */\n  dup5\n    /* \"#utility.yul\":4188:4204   */\n  add\n    /* \"#utility.yul\":4181:4208   */\n  mstore\n    /* \"#utility.yul\":4117:4218   */\ntag_88:\n    /* \"#utility.yul\":3966:4224   */\n  pop\n    /* \"#utility.yul\":3917:4224   */\n  pop\n  pop\n  pop\n  jump\t// out\n    /* \"#utility.yul\":4230:4550   */\ntag_12:\n    /* \"#utility.yul\":4274:4280   */\n  0x00\n    /* \"#utility.yul\":4311:4312   */\n  0x02\n    /* \"#utility.yul\":4305:4309   */\n  dup3\n    /* \"#utility.yul\":4301:4313   */\n  div\n    /* \"#utility.yul\":4291:4313   */\n  swap1\n  pop\n    /* \"#utility.yul\":4358:4359   */\n  0x01\n    /* \"#utility.yul\":4352:4356   */\n  dup3\n    /* \"#utility.yul\":4348:4360   */\n  and\n    /* \"#utility.yul\":4379:4397   */\n  dup1\n    /* \"#utility.yul\":4369:4450   */\n  tag_90\n  jumpi\n    /* \"#utility.yul\":4435:4439   */\n  0x7f\n    /* \"#utility.yul\":4427:4433   */\n  dup3\n    /* \"#utility.yul\":4423:4440   */\n  and\n    /* \"#utility.yul\":4413:4440   */\n  swap2\n  pop\n    /* \"#utility.yul\":4369:4450   */\ntag_90:\n    /* \"#utility.yul\":4497:4499   */\n  0x20\n    /* \"#utility.yul\":4489:4495   */\n  dup3\n    /* \"#utility.yul\":4486:4500   */\n  lt\n    /* \"#utility.yul\":4466:4484   */\n  dup2\n    /* \"#utility.yul\":4463:4501   */\n  eq\n    /* \"#utility.yul\":4460:4544   */\n  iszero\n  tag_91\n  jumpi\n    /* \"#utility.yul\":4516:4534   */\n  tag_92\n  tag_93\n  jump\t// in\ntag_92:\n    /* \"#utility.yul\":4460:4544   */\ntag_91:\n    /* \"#utility.yul\":4281:4550   */\n  pop\n    /* \"#utility.yul\":4230:4550   */\n  swap2\n  swap1\n  pop\n  jump\t// out\n    /* \"#utility.yul\":4556:4837   */\ntag_72:\n    /* \"#utility.yul\":4639:4666   */\n  tag_95\n    /* \"#utility.yul\":4661:4665   */\n  dup3\n    /* \"#utility.yul\":4639:4666   */\n  tag_79\n  jump\t// in\ntag_95:\n    /* \"#utility.yul\":4631:4637   */\n  dup2\n    /* \"#utility.yul\":4627:4667   */\n  add\n    /* \"#utility.yul\":4769:4775   */\n  dup2\n    /* \"#utility.yul\":4757:4767   */\n  dup2\n    /* \"#utility.yul\":4754:4776   */\n  lt\n    /* \"#utility.yul\":4733:4751   */\n  0xffffffffffffffff\n    /* \"#utility.yul\":4721:4731   */\n  dup3\n    /* \"#utility.yul\":4718:4752   */\n  gt\n    /* \"#utility.yul\":4715:4777   */\n  or\n    /* \"#utility.yul\":4712:4800   */\n  iszero\n  tag_96\n  jumpi\n    /* \"#utility.yul\":4780:4798   */\n  tag_97\n  tag_77\n  jump\t// in\ntag_97:\n    /* \"#utility.yul\":4712:4800   */\ntag_96:\n    /* \"#utility.yul\":4820:4830   */\n  dup1\n    /* \"#utility.yul\":4816:4818   */\n  0x40\n    /* \"#utility.yul\":4809:4831   */\n  mstore\n    /* \"#utility.yul\":4599:4837   */\n  pop\n    /* \"#utility.yul\":4556:4837   */\n  pop\n  pop\n  jump\t// out\n    /* \"#utility.yul\":4843:5023   */\ntag_93:\n    /* \"#utility.yul\":4891:4968   */\n  0x4e487b7100000000000000000000000000000000000000000000000000000000\n    /* \"#utility.yul\":4888:4889   */\n  0x00\n    /* \"#utility.yul\":4881:4969   */\n  mstore\n    /* \"#utility.yul\":4988:4992   */\n  0x22\n    /* \"#utility.yul\":4985:4986   */\n  0x04\n    /* \"#utility.yul\":4978:4993   */\n  mstore\n    /* \"#utility.yul\":5012:5016   */\n  0x24\n    /* \"#utility.yul\":5009:5010   */\n  0x00\n    /* \"#utility.yul\":5002:5017   */\n  revert\n    /* \"#utility.yul\":5029:5209   */\ntag_77:\n    /* \"#utility.yul\":5077:5154   */\n  0x4e487b7100000000000000000000000000000000000000000000000000000000\n    /* \"#utility.yul\":5074:5075   */\n  0x00\n    /* \"#utility.yul\":5067:5155   */\n  mstore\n    /* \"#utility.yul\":5174:5178   */\n  0x41\n    /* \"#utility.yul\":5171:5172   */\n  0x04\n    /* \"#utility.yul\":5164:5179   */\n  mstore\n    /* \"#utility.yul\":5198:5202   */\n  0x24\n    /* \"#utility.yul\":5195:5196   */\n  0x00\n    /* \"#utility.yul\":5188:5203   */\n  revert\n    /* \"#utility.yul\":5215:5332   */\ntag_46:\n    /* \"#utility.yul\":5324:5325   */\n  0x00\n    /* \"#utility.yul\":5321:5322   */\n  dup1\n    /* \"#utility.yul\":5314:5326   */\n  revert\n    /* \"#utility.yul\":5338:5455   */\ntag_31:\n    /* \"#utility.yul\":5447:5448   */\n  0x00\n    /* \"#utility.yul\":5444:5445   */\n  dup1\n    /* \"#utility.yul\":5437:5449   */\n  revert\n    /* \"#utility.yul\":5461:5578   */\ntag_54:\n    /* \"#utility.yul\":5570:5571   */\n  0x00\n    /* \"#utility.yul\":5567:5568   */\n  dup1\n    /* \"#utility.yul\":5560:5572   */\n  revert\n    /* \"#utility.yul\":5584:5701   */\ntag_51:\n    /* \"#utility.yul\":5693:5694   */\n  0x00\n    /* \"#utility.yul\":5690:5691   */\n  dup1\n    /* \"#utility.yul\":5683:5695   */\n  revert\n    /* \"#utility.yul\":5707:5809   */\ntag_79:\n    /* \"#utility.yul\":5748:5754   */\n  0x00\n    /* \"#utility.yul\":5799:5801   */\n  0x1f\n    /* \"#utility.yul\":5795:5802   */\n  not\n    /* \"#utility.yul\":5790:5792   */\n  0x1f\n    /* \"#utility.yul\":5783:5788   */\n  dup4\n    /* \"#utility.yul\":5779:5793   */\n  add\n    /* \"#utility.yul\":5775:5803   */\n  and\n    /* \"#utility.yul\":5765:5803   */\n  swap1\n  pop\n    /* \"#utility.yul\":5707:5809   */\n  swap2\n  swap1\n  pop\n  jump\t// out\n    /* \"#utility.yul\":5815:5931   */\ntag_37:\n    /* \"#utility.yul\":5885:5906   */\n  tag_106\n    /* \"#utility.yul\":5900:5905   */\n  dup2\n    /* \"#utility.yul\":5885:5906   */\n  tag_80\n  jump\t// in\ntag_106:\n    /* \"#utility.yul\":5878:5883   */\n  dup2\n    /* \"#utility.yul\":5875:5907   */\n  eq\n    /* \"#utility.yul\":5865:5925   */\n  tag_107\n  jumpi\n    /* \"#utility.yul\":5921:5922   */\n  0x00\n    /* \"#utility.yul\":5918:5919   */\n  dup1\n    /* \"#utility.yul\":5911:5923   */\n  revert\n    /* \"#utility.yul\":5865:5925   */\ntag_107:\n    /* \"#utility.yul\":5815:5931   */\n  pop\n  jump\t// out\n    /* \"#utility.yul\":5937:6057   */\ntag_41:\n    /* \"#utility.yul\":6009:6032   */\n  tag_109\n    /* \"#utility.yul\":6026:6031   */\n  dup2\n    /* \"#utility.yul\":6009:6032   */\n  tag_82\n  jump\t// in\ntag_109:\n    /* \"#utility.yul\":6002:6007   */\n  dup2\n    /* \"#utility.yul\":5999:6033   */\n  eq\n    /* \"#utility.yul\":5989:6051   */\n  tag_110\n  jumpi\n    /* \"#utility.yul\":6047:6048   */\n  0x00\n    /* \"#utility.yul\":6044:6045   */\n  dup1\n    /* \"#utility.yul\":6037:6049   */\n  revert\n    /* \"#utility.yul\":5989:6051   */\ntag_110:\n    /* \"#utility.yul\":5937:6057   */\n  pop\n  jump\t// out\n    /* \"contracts/Bovine.sol\":71:2862  contract Bovine {\r... */\ntag_10:\n  dataSize(sub_0)\n  dup1\n  dataOffset(sub_0)\n  0x00\n  codecopy\n  0x00\n  return\nstop\n\nsub_0: assembly {\n        /* \"contracts/Bovine.sol\":71:2862  contract Bovine {\r... */\n      mstore(0x40, 0x80)\n      callvalue\n      dup1\n      iszero\n      tag_1\n      jumpi\n      0x00\n      dup1\n      revert\n    tag_1:\n      pop\n      jumpi(tag_2, lt(calldatasize, 0x04))\n      shr(0xe0, calldataload(0x00))\n      dup1\n      0x73f4ca43\n      gt\n      tag_22\n      jumpi\n      dup1\n      0xc56aa356\n      gt\n      tag_23\n      jumpi\n      dup1\n      0xc56aa356\n      eq\n      tag_17\n      jumpi\n      dup1\n      0xd92be7f6\n      eq\n      tag_18\n      jumpi\n      dup1\n      0xe20225d7\n      eq\n      tag_19\n      jumpi\n      dup1\n      0xea60994e\n      eq\n      tag_20\n      jumpi\n      dup1\n      0xf80af7c9\n      eq\n      tag_21\n      jumpi\n      jump(tag_2)\n    tag_23:\n      dup1\n      0x73f4ca43\n      eq\n      tag_12\n      jumpi\n      dup1\n      0x76aaff9f\n      eq\n      tag_13\n      jumpi\n      dup1\n      0x7c38a8c3\n      eq\n      tag_14\n      jumpi\n      dup1\n      0xacec338a\n      eq\n      tag_15\n      jumpi\n      dup1\n      0xc16a836b\n      eq\n      tag_16\n      jumpi\n      jump(tag_2)\n    tag_22:\n      dup1\n      0x2e25fa47\n      gt\n      tag_24\n      jumpi\n      dup1\n      0x2e25fa47\n      eq\n      tag_7\n      jumpi\n      dup1\n      0x3097ba90\n      eq\n      tag_8\n      jumpi\n      dup1\n      0x49c0af60\n      eq\n      tag_9\n      jumpi\n      dup1\n      0x4e3764fe\n      eq\n      tag_10\n      jumpi\n      dup1\n      0x6b2b1ab9\n      eq\n      tag_11\n      jumpi\n      jump(tag_2)\n    tag_24:\n      dup1\n      0x9ebb10\n      eq\n      tag_3\n      jumpi\n      dup1\n      0x0932a1aa\n      eq\n      tag_4\n      jumpi\n      dup1\n      0x2461109e\n      eq\n      tag_5\n      jumpi\n      dup1\n      0x2d79838a\n      eq\n      tag_6\n      jumpi\n    tag_2:\n      0x00\n      dup1\n      revert\n        /* \"contracts/Bovine.sol\":1919:1999  function getActive() public view returns (bool) {\r... */\n    tag_3:\n      tag_25\n      tag_26\n      jump\t// in\n    tag_25:\n      mload(0x40)\n      tag_27\n      swap2\n      swap1\n      tag_28\n      jump\t// in\n    tag_27:\n      mload(0x40)\n      dup1\n      swap2\n      sub\n      swap1\n      return\n        /* \"contracts/Bovine.sol\":1050:1138  function setIDOwner(string memory _idOwner) public {\r... */\n    tag_4:\n      tag_29\n      0x04\n      dup1\n      calldatasize\n      sub\n      dup2\n      add\n      swap1\n      tag_30\n      swap2\n      swap1\n      tag_31\n      jump\t// in\n    tag_30:\n      tag_32\n      jump\t// in\n    tag_29:\n      stop\n        /* \"contracts/Bovine.sol\":2696:2771  function setGender(bool _gender) public {\r... */\n    tag_5:\n      tag_33\n      0x04\n      dup1\n      calldatasize\n      sub\n      dup2\n      add\n      swap1\n      tag_34\n      swap2\n      swap1\n      tag_35\n      jump\t// in\n    tag_34:\n      tag_36\n      jump\t// in\n    tag_33:\n      stop\n        /* \"contracts/Bovine.sol\":1526:1617  function getSerialNumber() public view returns (int) {\r... */\n    tag_6:\n      tag_37\n      tag_38\n      jump\t// in\n    tag_37:\n      mload(0x40)\n      tag_39\n      swap2\n      swap1\n      tag_40\n      jump\t// in\n    tag_39:\n      mload(0x40)\n      dup1\n      swap2\n      sub\n      swap1\n      return\n        /* \"contracts/Bovine.sol\":2007:2111  function setObservation(string memory _observation) public {\r... */\n    tag_7:\n      tag_41\n      0x04\n      dup1\n      calldatasize\n      sub\n      dup2\n      add\n      swap1\n      tag_42\n      swap2\n      swap1\n      tag_31\n      jump\t// in\n    tag_42:\n      tag_43\n      jump\t// in\n    tag_41:\n      stop\n        /* \"contracts/Bovine.sol\":1420:1518  function setSerialNumber(int _serialNumber) public {\r... */\n    tag_8:\n      tag_44\n      0x04\n      dup1\n      calldatasize\n      sub\n      dup2\n      add\n      swap1\n      tag_45\n      swap2\n      swap1\n      tag_46\n      jump\t// in\n    tag_45:\n      tag_47\n      jump\t// in\n    tag_44:\n      stop\n        /* \"contracts/Bovine.sol\":1331:1412  function getIDField() public view returns (int) {\r... */\n    tag_9:\n      tag_48\n      tag_49\n      jump\t// in\n    tag_48:\n      mload(0x40)\n      tag_50\n      swap2\n      swap1\n      tag_40\n      jump\t// in\n    tag_50:\n      mload(0x40)\n      dup1\n      swap2\n      sub\n      swap1\n      return\n        /* \"contracts/Bovine.sol\":2461:2579  function setIDBovineParentTwo(int _idBovineParentTwo) public {\r... */\n    tag_10:\n      tag_51\n      0x04\n      dup1\n      calldatasize\n      sub\n      dup2\n      add\n      swap1\n      tag_52\n      swap2\n      swap1\n      tag_46\n      jump\t// in\n    tag_52:\n      tag_53\n      jump\t// in\n    tag_51:\n      stop\n        /* \"contracts/Bovine.sol\":2119:2218  function getObservation() public view returns (string memory) {\r... */\n    tag_11:\n      tag_54\n      tag_55\n      jump\t// in\n    tag_54:\n      mload(0x40)\n      tag_56\n      swap2\n      swap1\n      tag_57\n      jump\t// in\n    tag_56:\n      mload(0x40)\n      dup1\n      swap2\n      sub\n      swap1\n      return\n        /* \"contracts/Bovine.sol\":2587:2688  function getIDBovineParentTwo() public view returns (int) {\r... */\n    tag_12:\n      tag_58\n      tag_59\n      jump\t// in\n    tag_58:\n      mload(0x40)\n      tag_60\n      swap2\n      swap1\n      tag_40\n      jump\t// in\n    tag_60:\n      mload(0x40)\n      dup1\n      swap2\n      sub\n      swap1\n      return\n        /* \"contracts/Bovine.sol\":1245:1323  function setIDField(int _idField) public {\r... */\n    tag_13:\n      tag_61\n      0x04\n      dup1\n      calldatasize\n      sub\n      dup2\n      add\n      swap1\n      tag_62\n      swap2\n      swap1\n      tag_46\n      jump\t// in\n    tag_62:\n      tag_63\n      jump\t// in\n    tag_61:\n      stop\n        /* \"contracts/Bovine.sol\":2779:2859  function getGender() public view returns (bool) {\r... */\n    tag_14:\n      tag_64\n      tag_65\n      jump\t// in\n    tag_64:\n      mload(0x40)\n      tag_66\n      swap2\n      swap1\n      tag_28\n      jump\t// in\n    tag_66:\n      mload(0x40)\n      dup1\n      swap2\n      sub\n      swap1\n      return\n        /* \"contracts/Bovine.sol\":1836:1911  function setActive(bool _active) public {\r... */\n    tag_15:\n      tag_67\n      0x04\n      dup1\n      calldatasize\n      sub\n      dup2\n      add\n      swap1\n      tag_68\n      swap2\n      swap1\n      tag_35\n      jump\t// in\n    tag_68:\n      tag_69\n      jump\t// in\n    tag_67:\n      stop\n        /* \"contracts/Bovine.sol\":1733:1828  function getBirthDate() public view returns (string memory) {\r... */\n    tag_16:\n      tag_70\n      tag_71\n      jump\t// in\n    tag_70:\n      mload(0x40)\n      tag_72\n      swap2\n      swap1\n      tag_57\n      jump\t// in\n    tag_72:\n      mload(0x40)\n      dup1\n      swap2\n      sub\n      swap1\n      return\n        /* \"contracts/Bovine.sol\":2352:2453  function getIDBovineParentOne() public view returns (int) {\r... */\n    tag_17:\n      tag_73\n      tag_74\n      jump\t// in\n    tag_73:\n      mload(0x40)\n      tag_75\n      swap2\n      swap1\n      tag_40\n      jump\t// in\n    tag_75:\n      mload(0x40)\n      dup1\n      swap2\n      sub\n      swap1\n      return\n        /* \"contracts/Bovine.sol\":1629:1725  function setBirthDate(string memory _birthDate) public {\r... */\n    tag_18:\n      tag_76\n      0x04\n      dup1\n      calldatasize\n      sub\n      dup2\n      add\n      swap1\n      tag_77\n      swap2\n      swap1\n      tag_31\n      jump\t// in\n    tag_77:\n      tag_78\n      jump\t// in\n    tag_76:\n      stop\n        /* \"contracts/Bovine.sol\":871:1042  function setUpdate(string memory _idOwner, int _idField, bool _active) public {\r... */\n    tag_19:\n      tag_79\n      0x04\n      dup1\n      calldatasize\n      sub\n      dup2\n      add\n      swap1\n      tag_80\n      swap2\n      swap1\n      tag_81\n      jump\t// in\n    tag_80:\n      tag_82\n      jump\t// in\n    tag_79:\n      stop\n        /* \"contracts/Bovine.sol\":1146:1237  function getIDOwner() public view returns (string memory) {\r... */\n    tag_20:\n      tag_83\n      tag_84\n      jump\t// in\n    tag_83:\n      mload(0x40)\n      tag_85\n      swap2\n      swap1\n      tag_57\n      jump\t// in\n    tag_85:\n      mload(0x40)\n      dup1\n      swap2\n      sub\n      swap1\n      return\n        /* \"contracts/Bovine.sol\":2226:2344  function setIDBovineParentOne(int _idBovineParentOne) public {\r... */\n    tag_21:\n      tag_86\n      0x04\n      dup1\n      calldatasize\n      sub\n      dup2\n      add\n      swap1\n      tag_87\n      swap2\n      swap1\n      tag_46\n      jump\t// in\n    tag_87:\n      tag_88\n      jump\t// in\n    tag_86:\n      stop\n        /* \"contracts/Bovine.sol\":1919:1999  function getActive() public view returns (bool) {\r... */\n    tag_26:\n        /* \"contracts/Bovine.sol\":1961:1965  bool */\n      0x00\n        /* \"contracts/Bovine.sol\":1985:1991  active */\n      0x04\n      0x00\n      swap1\n      sload\n      swap1\n      0x0100\n      exp\n      swap1\n      div\n      0xff\n      and\n        /* \"contracts/Bovine.sol\":1978:1991  return active */\n      swap1\n      pop\n        /* \"contracts/Bovine.sol\":1919:1999  function getActive() public view returns (bool) {\r... */\n      swap1\n      jump\t// out\n        /* \"contracts/Bovine.sol\":1050:1138  function setIDOwner(string memory _idOwner) public {\r... */\n    tag_32:\n        /* \"contracts/Bovine.sol\":1122:1130  _idOwner */\n      dup1\n        /* \"contracts/Bovine.sol\":1112:1119  idOwner */\n      0x00\n        /* \"contracts/Bovine.sol\":1112:1130  idOwner = _idOwner */\n      swap1\n      dup1\n      mload\n      swap1\n      0x20\n      add\n      swap1\n      tag_91\n      swap3\n      swap2\n      swap1\n      tag_92\n      jump\t// in\n    tag_91:\n      pop\n        /* \"contracts/Bovine.sol\":1050:1138  function setIDOwner(string memory _idOwner) public {\r... */\n      pop\n      jump\t// out\n        /* \"contracts/Bovine.sol\":2696:2771  function setGender(bool _gender) public {\r... */\n    tag_36:\n        /* \"contracts/Bovine.sol\":2756:2763  _gender */\n      dup1\n        /* \"contracts/Bovine.sol\":2747:2753  gender */\n      0x08\n      0x00\n        /* \"contracts/Bovine.sol\":2747:2763  gender = _gender */\n      0x0100\n      exp\n      dup2\n      sload\n      dup2\n      0xff\n      mul\n      not\n      and\n      swap1\n      dup4\n      iszero\n      iszero\n      mul\n      or\n      swap1\n      sstore\n      pop\n        /* \"contracts/Bovine.sol\":2696:2771  function setGender(bool _gender) public {\r... */\n      pop\n      jump\t// out\n        /* \"contracts/Bovine.sol\":1526:1617  function getSerialNumber() public view returns (int) {\r... */\n    tag_38:\n        /* \"contracts/Bovine.sol\":1574:1577  int */\n      0x00\n        /* \"contracts/Bovine.sol\":1597:1609  serialNumber */\n      sload(0x02)\n        /* \"contracts/Bovine.sol\":1590:1609  return serialNumber */\n      swap1\n      pop\n        /* \"contracts/Bovine.sol\":1526:1617  function getSerialNumber() public view returns (int) {\r... */\n      swap1\n      jump\t// out\n        /* \"contracts/Bovine.sol\":2007:2111  function setObservation(string memory _observation) public {\r... */\n    tag_43:\n        /* \"contracts/Bovine.sol\":2091:2103  _observation */\n      dup1\n        /* \"contracts/Bovine.sol\":2077:2088  observation */\n      0x05\n        /* \"contracts/Bovine.sol\":2077:2103  observation = _observation */\n      swap1\n      dup1\n      mload\n      swap1\n      0x20\n      add\n      swap1\n      tag_96\n      swap3\n      swap2\n      swap1\n      tag_92\n      jump\t// in\n    tag_96:\n      pop\n        /* \"contracts/Bovine.sol\":2007:2111  function setObservation(string memory _observation) public {\r... */\n      pop\n      jump\t// out\n        /* \"contracts/Bovine.sol\":1420:1518  function setSerialNumber(int _serialNumber) public {\r... */\n    tag_47:\n        /* \"contracts/Bovine.sol\":1497:1510  _serialNumber */\n      dup1\n        /* \"contracts/Bovine.sol\":1482:1494  serialNumber */\n      0x02\n        /* \"contracts/Bovine.sol\":1482:1510  serialNumber = _serialNumber */\n      dup2\n      swap1\n      sstore\n      pop\n        /* \"contracts/Bovine.sol\":1420:1518  function setSerialNumber(int _serialNumber) public {\r... */\n      pop\n      jump\t// out\n        /* \"contracts/Bovine.sol\":1331:1412  function getIDField() public view returns (int) {\r... */\n    tag_49:\n        /* \"contracts/Bovine.sol\":1374:1377  int */\n      0x00\n        /* \"contracts/Bovine.sol\":1397:1404  idField */\n      sload(0x01)\n        /* \"contracts/Bovine.sol\":1390:1404  return idField */\n      swap1\n      pop\n        /* \"contracts/Bovine.sol\":1331:1412  function getIDField() public view returns (int) {\r... */\n      swap1\n      jump\t// out\n        /* \"contracts/Bovine.sol\":2461:2579  function setIDBovineParentTwo(int _idBovineParentTwo) public {\r... */\n    tag_53:\n        /* \"contracts/Bovine.sol\":2553:2571  _idBovineParentTwo */\n      dup1\n        /* \"contracts/Bovine.sol\":2533:2550  idBovineParentTwo */\n      0x07\n        /* \"contracts/Bovine.sol\":2533:2571  idBovineParentTwo = _idBovineParentTwo */\n      dup2\n      swap1\n      sstore\n      pop\n        /* \"contracts/Bovine.sol\":2461:2579  function setIDBovineParentTwo(int _idBovineParentTwo) public {\r... */\n      pop\n      jump\t// out\n        /* \"contracts/Bovine.sol\":2119:2218  function getObservation() public view returns (string memory) {\r... */\n    tag_55:\n        /* \"contracts/Bovine.sol\":2166:2179  string memory */\n      0x60\n        /* \"contracts/Bovine.sol\":2199:2210  observation */\n      0x05\n        /* \"contracts/Bovine.sol\":2192:2210  return observation */\n      dup1\n      sload\n      tag_101\n      swap1\n      tag_102\n      jump\t// in\n    tag_101:\n      dup1\n      0x1f\n      add\n      0x20\n      dup1\n      swap2\n      div\n      mul\n      0x20\n      add\n      mload(0x40)\n      swap1\n      dup2\n      add\n      0x40\n      mstore\n      dup1\n      swap3\n      swap2\n      swap1\n      dup2\n      dup2\n      mstore\n      0x20\n      add\n      dup3\n      dup1\n      sload\n      tag_103\n      swap1\n      tag_102\n      jump\t// in\n    tag_103:\n      dup1\n      iszero\n      tag_104\n      jumpi\n      dup1\n      0x1f\n      lt\n      tag_105\n      jumpi\n      0x0100\n      dup1\n      dup4\n      sload\n      div\n      mul\n      dup4\n      mstore\n      swap2\n      0x20\n      add\n      swap2\n      jump(tag_104)\n    tag_105:\n      dup3\n      add\n      swap2\n      swap1\n      0x00\n      mstore\n      keccak256(0x00, 0x20)\n      swap1\n    tag_106:\n      dup2\n      sload\n      dup2\n      mstore\n      swap1\n      0x01\n      add\n      swap1\n      0x20\n      add\n      dup1\n      dup4\n      gt\n      tag_106\n      jumpi\n      dup3\n      swap1\n      sub\n      0x1f\n      and\n      dup3\n      add\n      swap2\n    tag_104:\n      pop\n      pop\n      pop\n      pop\n      pop\n      swap1\n      pop\n        /* \"contracts/Bovine.sol\":2119:2218  function getObservation() public view returns (string memory) {\r... */\n      swap1\n      jump\t// out\n        /* \"contracts/Bovine.sol\":2587:2688  function getIDBovineParentTwo() public view returns (int) {\r... */\n    tag_59:\n        /* \"contracts/Bovine.sol\":2640:2643  int */\n      0x00\n        /* \"contracts/Bovine.sol\":2663:2680  idBovineParentTwo */\n      sload(0x07)\n        /* \"contracts/Bovine.sol\":2656:2680  return idBovineParentTwo */\n      swap1\n      pop\n        /* \"contracts/Bovine.sol\":2587:2688  function getIDBovineParentTwo() public view returns (int) {\r... */\n      swap1\n      jump\t// out\n        /* \"contracts/Bovine.sol\":1245:1323  function setIDField(int _idField) public {\r... */\n    tag_63:\n        /* \"contracts/Bovine.sol\":1307:1315  _idField */\n      dup1\n        /* \"contracts/Bovine.sol\":1297:1304  idField */\n      0x01\n        /* \"contracts/Bovine.sol\":1297:1315  idField = _idField */\n      dup2\n      swap1\n      sstore\n      pop\n        /* \"contracts/Bovine.sol\":1245:1323  function setIDField(int _idField) public {\r... */\n      pop\n      jump\t// out\n        /* \"contracts/Bovine.sol\":2779:2859  function getGender() public view returns (bool) {\r... */\n    tag_65:\n        /* \"contracts/Bovine.sol\":2821:2825  bool */\n      0x00\n        /* \"contracts/Bovine.sol\":2845:2851  gender */\n      0x08\n      0x00\n      swap1\n      sload\n      swap1\n      0x0100\n      exp\n      swap1\n      div\n      0xff\n      and\n        /* \"contracts/Bovine.sol\":2838:2851  return gender */\n      swap1\n      pop\n        /* \"contracts/Bovine.sol\":2779:2859  function getGender() public view returns (bool) {\r... */\n      swap1\n      jump\t// out\n        /* \"contracts/Bovine.sol\":1836:1911  function setActive(bool _active) public {\r... */\n    tag_69:\n        /* \"contracts/Bovine.sol\":1896:1903  _active */\n      dup1\n        /* \"contracts/Bovine.sol\":1887:1893  active */\n      0x04\n      0x00\n        /* \"contracts/Bovine.sol\":1887:1903  active = _active */\n      0x0100\n      exp\n      dup2\n      sload\n      dup2\n      0xff\n      mul\n      not\n      and\n      swap1\n      dup4\n      iszero\n      iszero\n      mul\n      or\n      swap1\n      sstore\n      pop\n        /* \"contracts/Bovine.sol\":1836:1911  function setActive(bool _active) public {\r... */\n      pop\n      jump\t// out\n        /* \"contracts/Bovine.sol\":1733:1828  function getBirthDate() public view returns (string memory) {\r... */\n    tag_71:\n        /* \"contracts/Bovine.sol\":1778:1791  string memory */\n      0x60\n        /* \"contracts/Bovine.sol\":1811:1820  birthDate */\n      0x03\n        /* \"contracts/Bovine.sol\":1804:1820  return birthDate */\n      dup1\n      sload\n      tag_112\n      swap1\n      tag_102\n      jump\t// in\n    tag_112:\n      dup1\n      0x1f\n      add\n      0x20\n      dup1\n      swap2\n      div\n      mul\n      0x20\n      add\n      mload(0x40)\n      swap1\n      dup2\n      add\n      0x40\n      mstore\n      dup1\n      swap3\n      swap2\n      swap1\n      dup2\n      dup2\n      mstore\n      0x20\n      add\n      dup3\n      dup1\n      sload\n      tag_113\n      swap1\n      tag_102\n      jump\t// in\n    tag_113:\n      dup1\n      iszero\n      tag_114\n      jumpi\n      dup1\n      0x1f\n      lt\n      tag_115\n      jumpi\n      0x0100\n      dup1\n      dup4\n      sload\n      div\n      mul\n      dup4\n      mstore\n      swap2\n      0x20\n      add\n      swap2\n      jump(tag_114)\n    tag_115:\n      dup3\n      add\n      swap2\n      swap1\n      0x00\n      mstore\n      keccak256(0x00, 0x20)\n      swap1\n    tag_116:\n      dup2\n      sload\n      dup2\n      mstore\n      swap1\n      0x01\n      add\n      swap1\n      0x20\n      add\n      dup1\n      dup4\n      gt\n      tag_116\n      jumpi\n      dup3\n      swap1\n      sub\n      0x1f\n      and\n      dup3\n      add\n      swap2\n    tag_114:\n      pop\n      pop\n      pop\n      pop\n      pop\n      swap1\n      pop\n        /* \"contracts/Bovine.sol\":1733:1828  function getBirthDate() public view returns (string memory) {\r... */\n      swap1\n      jump\t// out\n        /* \"contracts/Bovine.sol\":2352:2453  function getIDBovineParentOne() public view returns (int) {\r... */\n    tag_74:\n        /* \"contracts/Bovine.sol\":2405:2408  int */\n      0x00\n        /* \"contracts/Bovine.sol\":2428:2445  idBovineParentOne */\n      sload(0x06)\n        /* \"contracts/Bovine.sol\":2421:2445  return idBovineParentOne */\n      swap1\n      pop\n        /* \"contracts/Bovine.sol\":2352:2453  function getIDBovineParentOne() public view returns (int) {\r... */\n      swap1\n      jump\t// out\n        /* \"contracts/Bovine.sol\":1629:1725  function setBirthDate(string memory _birthDate) public {\r... */\n    tag_78:\n        /* \"contracts/Bovine.sol\":1707:1717  _birthDate */\n      dup1\n        /* \"contracts/Bovine.sol\":1695:1704  birthDate */\n      0x03\n        /* \"contracts/Bovine.sol\":1695:1717  birthDate = _birthDate */\n      swap1\n      dup1\n      mload\n      swap1\n      0x20\n      add\n      swap1\n      tag_119\n      swap3\n      swap2\n      swap1\n      tag_92\n      jump\t// in\n    tag_119:\n      pop\n        /* \"contracts/Bovine.sol\":1629:1725  function setBirthDate(string memory _birthDate) public {\r... */\n      pop\n      jump\t// out\n        /* \"contracts/Bovine.sol\":871:1042  function setUpdate(string memory _idOwner, int _idField, bool _active) public {\r... */\n    tag_82:\n        /* \"contracts/Bovine.sol\":970:978  _idOwner */\n      dup3\n        /* \"contracts/Bovine.sol\":960:967  idOwner */\n      0x00\n        /* \"contracts/Bovine.sol\":960:978  idOwner = _idOwner */\n      swap1\n      dup1\n      mload\n      swap1\n      0x20\n      add\n      swap1\n      tag_121\n      swap3\n      swap2\n      swap1\n      tag_92\n      jump\t// in\n    tag_121:\n      pop\n        /* \"contracts/Bovine.sol\":999:1007  _idField */\n      dup2\n        /* \"contracts/Bovine.sol\":989:996  idField */\n      0x01\n        /* \"contracts/Bovine.sol\":989:1007  idField = _idField */\n      dup2\n      swap1\n      sstore\n      pop\n        /* \"contracts/Bovine.sol\":1027:1034  _active */\n      dup1\n        /* \"contracts/Bovine.sol\":1018:1024  active */\n      0x04\n      0x00\n        /* \"contracts/Bovine.sol\":1018:1034  active = _active */\n      0x0100\n      exp\n      dup2\n      sload\n      dup2\n      0xff\n      mul\n      not\n      and\n      swap1\n      dup4\n      iszero\n      iszero\n      mul\n      or\n      swap1\n      sstore\n      pop\n        /* \"contracts/Bovine.sol\":871:1042  function setUpdate(string memory _idOwner, int _idField, bool _active) public {\r... */\n      pop\n      pop\n      pop\n      jump\t// out\n        /* \"contracts/Bovine.sol\":1146:1237  function getIDOwner() public view returns (string memory) {\r... */\n    tag_84:\n        /* \"contracts/Bovine.sol\":1189:1202  string memory */\n      0x60\n        /* \"contracts/Bovine.sol\":1222:1229  idOwner */\n      0x00\n        /* \"contracts/Bovine.sol\":1215:1229  return idOwner */\n      dup1\n      sload\n      tag_123\n      swap1\n      tag_102\n      jump\t// in\n    tag_123:\n      dup1\n      0x1f\n      add\n      0x20\n      dup1\n      swap2\n      div\n      mul\n      0x20\n      add\n      mload(0x40)\n      swap1\n      dup2\n      add\n      0x40\n      mstore\n      dup1\n      swap3\n      swap2\n      swap1\n      dup2\n      dup2\n      mstore\n      0x20\n      add\n      dup3\n      dup1\n      sload\n      tag_124\n      swap1\n      tag_102\n      jump\t// in\n    tag_124:\n      dup1\n      iszero\n      tag_125\n      jumpi\n      dup1\n      0x1f\n      lt\n      tag_126\n      jumpi\n      0x0100\n      dup1\n      dup4\n      sload\n      div\n      mul\n      dup4\n      mstore\n      swap2\n      0x20\n      add\n      swap2\n      jump(tag_125)\n    tag_126:\n      dup3\n      add\n      swap2\n      swap1\n      0x00\n      mstore\n      keccak256(0x00, 0x20)\n      swap1\n    tag_127:\n      dup2\n      sload\n      dup2\n      mstore\n      swap1\n      0x01\n      add\n      swap1\n      0x20\n      add\n      dup1\n      dup4\n      gt\n      tag_127\n      jumpi\n      dup3\n      swap1\n      sub\n      0x1f\n      and\n      dup3\n      add\n      swap2\n    tag_125:\n      pop\n      pop\n      pop\n      pop\n      pop\n      swap1\n      pop\n        /* \"contracts/Bovine.sol\":1146:1237  function getIDOwner() public view returns (string memory) {\r... */\n      swap1\n      jump\t// out\n        /* \"contracts/Bovine.sol\":2226:2344  function setIDBovineParentOne(int _idBovineParentOne) public {\r... */\n    tag_88:\n        /* \"contracts/Bovine.sol\":2318:2336  _idBovineParentOne */\n      dup1\n        /* \"contracts/Bovine.sol\":2298:2315  idBovineParentOne */\n      0x06\n        /* \"contracts/Bovine.sol\":2298:2336  idBovineParentOne = _idBovineParentOne */\n      dup2\n      swap1\n      sstore\n      pop\n        /* \"contracts/Bovine.sol\":2226:2344  function setIDBovineParentOne(int _idBovineParentOne) public {\r... */\n      pop\n      jump\t// out\n    tag_92:\n      dup3\n      dup1\n      sload\n      tag_129\n      swap1\n      tag_102\n      jump\t// in\n    tag_129:\n      swap1\n      0x00\n      mstore\n      keccak256(0x00, 0x20)\n      swap1\n      0x1f\n      add\n      0x20\n      swap1\n      div\n      dup2\n      add\n      swap3\n      dup3\n      tag_131\n      jumpi\n      0x00\n      dup6\n      sstore\n      jump(tag_130)\n    tag_131:\n      dup3\n      0x1f\n      lt\n      tag_132\n      jumpi\n      dup1\n      mload\n      not(0xff)\n      and\n      dup4\n      dup1\n      add\n      or\n      dup6\n      sstore\n      jump(tag_130)\n    tag_132:\n      dup3\n      dup1\n      add\n      0x01\n      add\n      dup6\n      sstore\n      dup3\n      iszero\n      tag_130\n      jumpi\n      swap2\n      dup3\n      add\n    tag_133:\n      dup3\n      dup2\n      gt\n      iszero\n      tag_134\n      jumpi\n      dup3\n      mload\n      dup3\n      sstore\n      swap2\n      0x20\n      add\n      swap2\n      swap1\n      0x01\n      add\n      swap1\n      jump(tag_133)\n    tag_134:\n    tag_130:\n      pop\n      swap1\n      pop\n      tag_135\n      swap2\n      swap1\n      tag_136\n      jump\t// in\n    tag_135:\n      pop\n      swap1\n      jump\t// out\n    tag_136:\n    tag_137:\n      dup1\n      dup3\n      gt\n      iszero\n      tag_138\n      jumpi\n      0x00\n      dup2\n      0x00\n      swap1\n      sstore\n      pop\n      0x01\n      add\n      jump(tag_137)\n    tag_138:\n      pop\n      swap1\n      jump\t// out\n        /* \"#utility.yul\":7:419   */\n    tag_140:\n        /* \"#utility.yul\":85:90   */\n      0x00\n        /* \"#utility.yul\":110:176   */\n      tag_142\n        /* \"#utility.yul\":126:175   */\n      tag_143\n        /* \"#utility.yul\":168:174   */\n      dup5\n        /* \"#utility.yul\":126:175   */\n      tag_144\n      jump\t// in\n    tag_143:\n        /* \"#utility.yul\":110:176   */\n      tag_145\n      jump\t// in\n    tag_142:\n        /* \"#utility.yul\":101:176   */\n      swap1\n      pop\n        /* \"#utility.yul\":199:205   */\n      dup3\n        /* \"#utility.yul\":192:197   */\n      dup2\n        /* \"#utility.yul\":185:206   */\n      mstore\n        /* \"#utility.yul\":237:241   */\n      0x20\n        /* \"#utility.yul\":230:235   */\n      dup2\n        /* \"#utility.yul\":226:242   */\n      add\n        /* \"#utility.yul\":275:278   */\n      dup5\n        /* \"#utility.yul\":266:272   */\n      dup5\n        /* \"#utility.yul\":261:264   */\n      dup5\n        /* \"#utility.yul\":257:273   */\n      add\n        /* \"#utility.yul\":254:279   */\n      gt\n        /* \"#utility.yul\":251:363   */\n      iszero\n      tag_146\n      jumpi\n        /* \"#utility.yul\":282:361   */\n      tag_147\n      tag_148\n      jump\t// in\n    tag_147:\n        /* \"#utility.yul\":251:363   */\n    tag_146:\n        /* \"#utility.yul\":372:413   */\n      tag_149\n        /* \"#utility.yul\":406:412   */\n      dup5\n        /* \"#utility.yul\":401:404   */\n      dup3\n        /* \"#utility.yul\":396:399   */\n      dup6\n        /* \"#utility.yul\":372:413   */\n      tag_150\n      jump\t// in\n    tag_149:\n        /* \"#utility.yul\":91:419   */\n      pop\n        /* \"#utility.yul\":7:419   */\n      swap4\n      swap3\n      pop\n      pop\n      pop\n      jump\t// out\n        /* \"#utility.yul\":425:558   */\n    tag_151:\n        /* \"#utility.yul\":468:473   */\n      0x00\n        /* \"#utility.yul\":506:512   */\n      dup2\n        /* \"#utility.yul\":493:513   */\n      calldataload\n        /* \"#utility.yul\":484:513   */\n      swap1\n      pop\n        /* \"#utility.yul\":522:552   */\n      tag_153\n        /* \"#utility.yul\":546:551   */\n      dup2\n        /* \"#utility.yul\":522:552   */\n      tag_154\n      jump\t// in\n    tag_153:\n        /* \"#utility.yul\":425:558   */\n      swap3\n      swap2\n      pop\n      pop\n      jump\t// out\n        /* \"#utility.yul\":564:701   */\n    tag_155:\n        /* \"#utility.yul\":609:614   */\n      0x00\n        /* \"#utility.yul\":647:653   */\n      dup2\n        /* \"#utility.yul\":634:654   */\n      calldataload\n        /* \"#utility.yul\":625:654   */\n      swap1\n      pop\n        /* \"#utility.yul\":663:695   */\n      tag_157\n        /* \"#utility.yul\":689:694   */\n      dup2\n        /* \"#utility.yul\":663:695   */\n      tag_158\n      jump\t// in\n    tag_157:\n        /* \"#utility.yul\":564:701   */\n      swap3\n      swap2\n      pop\n      pop\n      jump\t// out\n        /* \"#utility.yul\":721:1061   */\n    tag_159:\n        /* \"#utility.yul\":777:782   */\n      0x00\n        /* \"#utility.yul\":826:829   */\n      dup3\n        /* \"#utility.yul\":819:823   */\n      0x1f\n        /* \"#utility.yul\":811:817   */\n      dup4\n        /* \"#utility.yul\":807:824   */\n      add\n        /* \"#utility.yul\":803:830   */\n      slt\n        /* \"#utility.yul\":793:915   */\n      tag_161\n      jumpi\n        /* \"#utility.yul\":834:913   */\n      tag_162\n      tag_163\n      jump\t// in\n    tag_162:\n        /* \"#utility.yul\":793:915   */\n    tag_161:\n        /* \"#utility.yul\":951:957   */\n      dup2\n        /* \"#utility.yul\":938:958   */\n      calldataload\n        /* \"#utility.yul\":976:1055   */\n      tag_164\n        /* \"#utility.yul\":1051:1054   */\n      dup5\n        /* \"#utility.yul\":1043:1049   */\n      dup3\n        /* \"#utility.yul\":1036:1040   */\n      0x20\n        /* \"#utility.yul\":1028:1034   */\n      dup7\n        /* \"#utility.yul\":1024:1041   */\n      add\n        /* \"#utility.yul\":976:1055   */\n      tag_140\n      jump\t// in\n    tag_164:\n        /* \"#utility.yul\":967:1055   */\n      swap2\n      pop\n        /* \"#utility.yul\":783:1061   */\n      pop\n        /* \"#utility.yul\":721:1061   */\n      swap3\n      swap2\n      pop\n      pop\n      jump\t// out\n        /* \"#utility.yul\":1067:1390   */\n    tag_35:\n        /* \"#utility.yul\":1123:1129   */\n      0x00\n        /* \"#utility.yul\":1172:1174   */\n      0x20\n        /* \"#utility.yul\":1160:1169   */\n      dup3\n        /* \"#utility.yul\":1151:1158   */\n      dup5\n        /* \"#utility.yul\":1147:1170   */\n      sub\n        /* \"#utility.yul\":1143:1175   */\n      slt\n        /* \"#utility.yul\":1140:1259   */\n      iszero\n      tag_166\n      jumpi\n        /* \"#utility.yul\":1178:1257   */\n      tag_167\n      tag_168\n      jump\t// in\n    tag_167:\n        /* \"#utility.yul\":1140:1259   */\n    tag_166:\n        /* \"#utility.yul\":1298:1299   */\n      0x00\n        /* \"#utility.yul\":1323:1373   */\n      tag_169\n        /* \"#utility.yul\":1365:1372   */\n      dup5\n        /* \"#utility.yul\":1356:1362   */\n      dup3\n        /* \"#utility.yul\":1345:1354   */\n      dup6\n        /* \"#utility.yul\":1341:1363   */\n      add\n        /* \"#utility.yul\":1323:1373   */\n      tag_151\n      jump\t// in\n    tag_169:\n        /* \"#utility.yul\":1313:1373   */\n      swap2\n      pop\n        /* \"#utility.yul\":1269:1383   */\n      pop\n        /* \"#utility.yul\":1067:1390   */\n      swap3\n      swap2\n      pop\n      pop\n      jump\t// out\n        /* \"#utility.yul\":1396:1723   */\n    tag_46:\n        /* \"#utility.yul\":1454:1460   */\n      0x00\n        /* \"#utility.yul\":1503:1505   */\n      0x20\n        /* \"#utility.yul\":1491:1500   */\n      dup3\n        /* \"#utility.yul\":1482:1489   */\n      dup5\n        /* \"#utility.yul\":1478:1501   */\n      sub\n        /* \"#utility.yul\":1474:1506   */\n      slt\n        /* \"#utility.yul\":1471:1590   */\n      iszero\n      tag_171\n      jumpi\n        /* \"#utility.yul\":1509:1588   */\n      tag_172\n      tag_168\n      jump\t// in\n    tag_172:\n        /* \"#utility.yul\":1471:1590   */\n    tag_171:\n        /* \"#utility.yul\":1629:1630   */\n      0x00\n        /* \"#utility.yul\":1654:1706   */\n      tag_173\n        /* \"#utility.yul\":1698:1705   */\n      dup5\n        /* \"#utility.yul\":1689:1695   */\n      dup3\n        /* \"#utility.yul\":1678:1687   */\n      dup6\n        /* \"#utility.yul\":1674:1696   */\n      add\n        /* \"#utility.yul\":1654:1706   */\n      tag_155\n      jump\t// in\n    tag_173:\n        /* \"#utility.yul\":1644:1706   */\n      swap2\n      pop\n        /* \"#utility.yul\":1600:1716   */\n      pop\n        /* \"#utility.yul\":1396:1723   */\n      swap3\n      swap2\n      pop\n      pop\n      jump\t// out\n        /* \"#utility.yul\":1729:2238   */\n    tag_31:\n        /* \"#utility.yul\":1798:1804   */\n      0x00\n        /* \"#utility.yul\":1847:1849   */\n      0x20\n        /* \"#utility.yul\":1835:1844   */\n      dup3\n        /* \"#utility.yul\":1826:1833   */\n      dup5\n        /* \"#utility.yul\":1822:1845   */\n      sub\n        /* \"#utility.yul\":1818:1850   */\n      slt\n        /* \"#utility.yul\":1815:1934   */\n      iszero\n      tag_175\n      jumpi\n        /* \"#utility.yul\":1853:1932   */\n      tag_176\n      tag_168\n      jump\t// in\n    tag_176:\n        /* \"#utility.yul\":1815:1934   */\n    tag_175:\n        /* \"#utility.yul\":2001:2002   */\n      0x00\n        /* \"#utility.yul\":1990:1999   */\n      dup3\n        /* \"#utility.yul\":1986:2003   */\n      add\n        /* \"#utility.yul\":1973:2004   */\n      calldataload\n        /* \"#utility.yul\":2031:2049   */\n      0xffffffffffffffff\n        /* \"#utility.yul\":2023:2029   */\n      dup2\n        /* \"#utility.yul\":2020:2050   */\n      gt\n        /* \"#utility.yul\":2017:2134   */\n      iszero\n      tag_177\n      jumpi\n        /* \"#utility.yul\":2053:2132   */\n      tag_178\n      tag_179\n      jump\t// in\n    tag_178:\n        /* \"#utility.yul\":2017:2134   */\n    tag_177:\n        /* \"#utility.yul\":2158:2221   */\n      tag_180\n        /* \"#utility.yul\":2213:2220   */\n      dup5\n        /* \"#utility.yul\":2204:2210   */\n      dup3\n        /* \"#utility.yul\":2193:2202   */\n      dup6\n        /* \"#utility.yul\":2189:2211   */\n      add\n        /* \"#utility.yul\":2158:2221   */\n      tag_159\n      jump\t// in\n    tag_180:\n        /* \"#utility.yul\":2148:2221   */\n      swap2\n      pop\n        /* \"#utility.yul\":1944:2231   */\n      pop\n        /* \"#utility.yul\":1729:2238   */\n      swap3\n      swap2\n      pop\n      pop\n      jump\t// out\n        /* \"#utility.yul\":2244:3035   */\n    tag_81:\n        /* \"#utility.yul\":2327:2333   */\n      0x00\n        /* \"#utility.yul\":2335:2341   */\n      dup1\n        /* \"#utility.yul\":2343:2349   */\n      0x00\n        /* \"#utility.yul\":2392:2394   */\n      0x60\n        /* \"#utility.yul\":2380:2389   */\n      dup5\n        /* \"#utility.yul\":2371:2378   */\n      dup7\n        /* \"#utility.yul\":2367:2390   */\n      sub\n        /* \"#utility.yul\":2363:2395   */\n      slt\n        /* \"#utility.yul\":2360:2479   */\n      iszero\n      tag_182\n      jumpi\n        /* \"#utility.yul\":2398:2477   */\n      tag_183\n      tag_168\n      jump\t// in\n    tag_183:\n        /* \"#utility.yul\":2360:2479   */\n    tag_182:\n        /* \"#utility.yul\":2546:2547   */\n      0x00\n        /* \"#utility.yul\":2535:2544   */\n      dup5\n        /* \"#utility.yul\":2531:2548   */\n      add\n        /* \"#utility.yul\":2518:2549   */\n      calldataload\n        /* \"#utility.yul\":2576:2594   */\n      0xffffffffffffffff\n        /* \"#utility.yul\":2568:2574   */\n      dup2\n        /* \"#utility.yul\":2565:2595   */\n      gt\n        /* \"#utility.yul\":2562:2679   */\n      iszero\n      tag_184\n      jumpi\n        /* \"#utility.yul\":2598:2677   */\n      tag_185\n      tag_179\n      jump\t// in\n    tag_185:\n        /* \"#utility.yul\":2562:2679   */\n    tag_184:\n        /* \"#utility.yul\":2703:2766   */\n      tag_186\n        /* \"#utility.yul\":2758:2765   */\n      dup7\n        /* \"#utility.yul\":2749:2755   */\n      dup3\n        /* \"#utility.yul\":2738:2747   */\n      dup8\n        /* \"#utility.yul\":2734:2756   */\n      add\n        /* \"#utility.yul\":2703:2766   */\n      tag_159\n      jump\t// in\n    tag_186:\n        /* \"#utility.yul\":2693:2766   */\n      swap4\n      pop\n        /* \"#utility.yul\":2489:2776   */\n      pop\n        /* \"#utility.yul\":2815:2817   */\n      0x20\n        /* \"#utility.yul\":2841:2893   */\n      tag_187\n        /* \"#utility.yul\":2885:2892   */\n      dup7\n        /* \"#utility.yul\":2876:2882   */\n      dup3\n        /* \"#utility.yul\":2865:2874   */\n      dup8\n        /* \"#utility.yul\":2861:2883   */\n      add\n        /* \"#utility.yul\":2841:2893   */\n      tag_155\n      jump\t// in\n    tag_187:\n        /* \"#utility.yul\":2831:2893   */\n      swap3\n      pop\n        /* \"#utility.yul\":2786:2903   */\n      pop\n        /* \"#utility.yul\":2942:2944   */\n      0x40\n        /* \"#utility.yul\":2968:3018   */\n      tag_188\n        /* \"#utility.yul\":3010:3017   */\n      dup7\n        /* \"#utility.yul\":3001:3007   */\n      dup3\n        /* \"#utility.yul\":2990:2999   */\n      dup8\n        /* \"#utility.yul\":2986:3008   */\n      add\n        /* \"#utility.yul\":2968:3018   */\n      tag_151\n      jump\t// in\n    tag_188:\n        /* \"#utility.yul\":2958:3018   */\n      swap2\n      pop\n        /* \"#utility.yul\":2913:3028   */\n      pop\n        /* \"#utility.yul\":2244:3035   */\n      swap3\n      pop\n      swap3\n      pop\n      swap3\n      jump\t// out\n        /* \"#utility.yul\":3041:3150   */\n    tag_189:\n        /* \"#utility.yul\":3122:3143   */\n      tag_191\n        /* \"#utility.yul\":3137:3142   */\n      dup2\n        /* \"#utility.yul\":3122:3143   */\n      tag_192\n      jump\t// in\n    tag_191:\n        /* \"#utility.yul\":3117:3120   */\n      dup3\n        /* \"#utility.yul\":3110:3144   */\n      mstore\n        /* \"#utility.yul\":3041:3150   */\n      pop\n      pop\n      jump\t// out\n        /* \"#utility.yul\":3156:3271   */\n    tag_193:\n        /* \"#utility.yul\":3241:3264   */\n      tag_195\n        /* \"#utility.yul\":3258:3263   */\n      dup2\n        /* \"#utility.yul\":3241:3264   */\n      tag_196\n      jump\t// in\n    tag_195:\n        /* \"#utility.yul\":3236:3239   */\n      dup3\n        /* \"#utility.yul\":3229:3265   */\n      mstore\n        /* \"#utility.yul\":3156:3271   */\n      pop\n      pop\n      jump\t// out\n        /* \"#utility.yul\":3277:3641   */\n    tag_197:\n        /* \"#utility.yul\":3365:3368   */\n      0x00\n        /* \"#utility.yul\":3393:3432   */\n      tag_199\n        /* \"#utility.yul\":3426:3431   */\n      dup3\n        /* \"#utility.yul\":3393:3432   */\n      tag_200\n      jump\t// in\n    tag_199:\n        /* \"#utility.yul\":3448:3519   */\n      tag_201\n        /* \"#utility.yul\":3512:3518   */\n      dup2\n        /* \"#utility.yul\":3507:3510   */\n      dup6\n        /* \"#utility.yul\":3448:3519   */\n      tag_202\n      jump\t// in\n    tag_201:\n        /* \"#utility.yul\":3441:3519   */\n      swap4\n      pop\n        /* \"#utility.yul\":3528:3580   */\n      tag_203\n        /* \"#utility.yul\":3573:3579   */\n      dup2\n        /* \"#utility.yul\":3568:3571   */\n      dup6\n        /* \"#utility.yul\":3561:3565   */\n      0x20\n        /* \"#utility.yul\":3554:3559   */\n      dup7\n        /* \"#utility.yul\":3550:3566   */\n      add\n        /* \"#utility.yul\":3528:3580   */\n      tag_204\n      jump\t// in\n    tag_203:\n        /* \"#utility.yul\":3605:3634   */\n      tag_205\n        /* \"#utility.yul\":3627:3633   */\n      dup2\n        /* \"#utility.yul\":3605:3634   */\n      tag_206\n      jump\t// in\n    tag_205:\n        /* \"#utility.yul\":3600:3603   */\n      dup5\n        /* \"#utility.yul\":3596:3635   */\n      add\n        /* \"#utility.yul\":3589:3635   */\n      swap2\n      pop\n        /* \"#utility.yul\":3369:3641   */\n      pop\n        /* \"#utility.yul\":3277:3641   */\n      swap3\n      swap2\n      pop\n      pop\n      jump\t// out\n        /* \"#utility.yul\":3647:3857   */\n    tag_28:\n        /* \"#utility.yul\":3734:3738   */\n      0x00\n        /* \"#utility.yul\":3772:3774   */\n      0x20\n        /* \"#utility.yul\":3761:3770   */\n      dup3\n        /* \"#utility.yul\":3757:3775   */\n      add\n        /* \"#utility.yul\":3749:3775   */\n      swap1\n      pop\n        /* \"#utility.yul\":3785:3850   */\n      tag_208\n        /* \"#utility.yul\":3847:3848   */\n      0x00\n        /* \"#utility.yul\":3836:3845   */\n      dup4\n        /* \"#utility.yul\":3832:3849   */\n      add\n        /* \"#utility.yul\":3823:3829   */\n      dup5\n        /* \"#utility.yul\":3785:3850   */\n      tag_189\n      jump\t// in\n    tag_208:\n        /* \"#utility.yul\":3647:3857   */\n      swap3\n      swap2\n      pop\n      pop\n      jump\t// out\n        /* \"#utility.yul\":3863:4081   */\n    tag_40:\n        /* \"#utility.yul\":3954:3958   */\n      0x00\n        /* \"#utility.yul\":3992:3994   */\n      0x20\n        /* \"#utility.yul\":3981:3990   */\n      dup3\n        /* \"#utility.yul\":3977:3995   */\n      add\n        /* \"#utility.yul\":3969:3995   */\n      swap1\n      pop\n        /* \"#utility.yul\":4005:4074   */\n      tag_210\n        /* \"#utility.yul\":4071:4072   */\n      0x00\n        /* \"#utility.yul\":4060:4069   */\n      dup4\n        /* \"#utility.yul\":4056:4073   */\n      add\n        /* \"#utility.yul\":4047:4053   */\n      dup5\n        /* \"#utility.yul\":4005:4074   */\n      tag_193\n      jump\t// in\n    tag_210:\n        /* \"#utility.yul\":3863:4081   */\n      swap3\n      swap2\n      pop\n      pop\n      jump\t// out\n        /* \"#utility.yul\":4087:4400   */\n    tag_57:\n        /* \"#utility.yul\":4200:4204   */\n      0x00\n        /* \"#utility.yul\":4238:4240   */\n      0x20\n        /* \"#utility.yul\":4227:4236   */\n      dup3\n        /* \"#utility.yul\":4223:4241   */\n      add\n        /* \"#utility.yul\":4215:4241   */\n      swap1\n      pop\n        /* \"#utility.yul\":4287:4296   */\n      dup2\n        /* \"#utility.yul\":4281:4285   */\n      dup2\n        /* \"#utility.yul\":4277:4297   */\n      sub\n        /* \"#utility.yul\":4273:4274   */\n      0x00\n        /* \"#utility.yul\":4262:4271   */\n      dup4\n        /* \"#utility.yul\":4258:4275   */\n      add\n        /* \"#utility.yul\":4251:4298   */\n      mstore\n        /* \"#utility.yul\":4315:4393   */\n      tag_212\n        /* \"#utility.yul\":4388:4392   */\n      dup2\n        /* \"#utility.yul\":4379:4385   */\n      dup5\n        /* \"#utility.yul\":4315:4393   */\n      tag_197\n      jump\t// in\n    tag_212:\n        /* \"#utility.yul\":4307:4393   */\n      swap1\n      pop\n        /* \"#utility.yul\":4087:4400   */\n      swap3\n      swap2\n      pop\n      pop\n      jump\t// out\n        /* \"#utility.yul\":4406:4535   */\n    tag_145:\n        /* \"#utility.yul\":4440:4446   */\n      0x00\n        /* \"#utility.yul\":4467:4487   */\n      tag_214\n      tag_215\n      jump\t// in\n    tag_214:\n        /* \"#utility.yul\":4457:4487   */\n      swap1\n      pop\n        /* \"#utility.yul\":4496:4529   */\n      tag_216\n        /* \"#utility.yul\":4524:4528   */\n      dup3\n        /* \"#utility.yul\":4516:4522   */\n      dup3\n        /* \"#utility.yul\":4496:4529   */\n      tag_217\n      jump\t// in\n    tag_216:\n        /* \"#utility.yul\":4406:4535   */\n      swap2\n      swap1\n      pop\n      jump\t// out\n        /* \"#utility.yul\":4541:4616   */\n    tag_215:\n        /* \"#utility.yul\":4574:4580   */\n      0x00\n        /* \"#utility.yul\":4607:4609   */\n      0x40\n        /* \"#utility.yul\":4601:4610   */\n      mload\n        /* \"#utility.yul\":4591:4610   */\n      swap1\n      pop\n        /* \"#utility.yul\":4541:4616   */\n      swap1\n      jump\t// out\n        /* \"#utility.yul\":4622:4930   */\n    tag_144:\n        /* \"#utility.yul\":4684:4688   */\n      0x00\n        /* \"#utility.yul\":4774:4792   */\n      0xffffffffffffffff\n        /* \"#utility.yul\":4766:4772   */\n      dup3\n        /* \"#utility.yul\":4763:4793   */\n      gt\n        /* \"#utility.yul\":4760:4816   */\n      iszero\n      tag_220\n      jumpi\n        /* \"#utility.yul\":4796:4814   */\n      tag_221\n      tag_222\n      jump\t// in\n    tag_221:\n        /* \"#utility.yul\":4760:4816   */\n    tag_220:\n        /* \"#utility.yul\":4834:4863   */\n      tag_223\n        /* \"#utility.yul\":4856:4862   */\n      dup3\n        /* \"#utility.yul\":4834:4863   */\n      tag_206\n      jump\t// in\n    tag_223:\n        /* \"#utility.yul\":4826:4863   */\n      swap1\n      pop\n        /* \"#utility.yul\":4918:4922   */\n      0x20\n        /* \"#utility.yul\":4912:4916   */\n      dup2\n        /* \"#utility.yul\":4908:4923   */\n      add\n        /* \"#utility.yul\":4900:4923   */\n      swap1\n      pop\n        /* \"#utility.yul\":4622:4930   */\n      swap2\n      swap1\n      pop\n      jump\t// out\n        /* \"#utility.yul\":4936:5035   */\n    tag_200:\n        /* \"#utility.yul\":4988:4994   */\n      0x00\n        /* \"#utility.yul\":5022:5027   */\n      dup2\n        /* \"#utility.yul\":5016:5028   */\n      mload\n        /* \"#utility.yul\":5006:5028   */\n      swap1\n      pop\n        /* \"#utility.yul\":4936:5035   */\n      swap2\n      swap1\n      pop\n      jump\t// out\n        /* \"#utility.yul\":5041:5210   */\n    tag_202:\n        /* \"#utility.yul\":5125:5136   */\n      0x00\n        /* \"#utility.yul\":5159:5165   */\n      dup3\n        /* \"#utility.yul\":5154:5157   */\n      dup3\n        /* \"#utility.yul\":5147:5166   */\n      mstore\n        /* \"#utility.yul\":5199:5203   */\n      0x20\n        /* \"#utility.yul\":5194:5197   */\n      dup3\n        /* \"#utility.yul\":5190:5204   */\n      add\n        /* \"#utility.yul\":5175:5204   */\n      swap1\n      pop\n        /* \"#utility.yul\":5041:5210   */\n      swap3\n      swap2\n      pop\n      pop\n      jump\t// out\n        /* \"#utility.yul\":5216:5306   */\n    tag_192:\n        /* \"#utility.yul\":5250:5257   */\n      0x00\n        /* \"#utility.yul\":5293:5298   */\n      dup2\n        /* \"#utility.yul\":5286:5299   */\n      iszero\n        /* \"#utility.yul\":5279:5300   */\n      iszero\n        /* \"#utility.yul\":5268:5300   */\n      swap1\n      pop\n        /* \"#utility.yul\":5216:5306   */\n      swap2\n      swap1\n      pop\n      jump\t// out\n        /* \"#utility.yul\":5312:5388   */\n    tag_196:\n        /* \"#utility.yul\":5348:5355   */\n      0x00\n        /* \"#utility.yul\":5377:5382   */\n      dup2\n        /* \"#utility.yul\":5366:5382   */\n      swap1\n      pop\n        /* \"#utility.yul\":5312:5388   */\n      swap2\n      swap1\n      pop\n      jump\t// out\n        /* \"#utility.yul\":5394:5548   */\n    tag_150:\n        /* \"#utility.yul\":5478:5484   */\n      dup3\n        /* \"#utility.yul\":5473:5476   */\n      dup2\n        /* \"#utility.yul\":5468:5471   */\n      dup4\n        /* \"#utility.yul\":5455:5485   */\n      calldatacopy\n        /* \"#utility.yul\":5540:5541   */\n      0x00\n        /* \"#utility.yul\":5531:5537   */\n      dup4\n        /* \"#utility.yul\":5526:5529   */\n      dup4\n        /* \"#utility.yul\":5522:5538   */\n      add\n        /* \"#utility.yul\":5515:5542   */\n      mstore\n        /* \"#utility.yul\":5394:5548   */\n      pop\n      pop\n      pop\n      jump\t// out\n        /* \"#utility.yul\":5554:5861   */\n    tag_204:\n        /* \"#utility.yul\":5622:5623   */\n      0x00\n        /* \"#utility.yul\":5632:5745   */\n    tag_230:\n        /* \"#utility.yul\":5646:5652   */\n      dup4\n        /* \"#utility.yul\":5643:5644   */\n      dup2\n        /* \"#utility.yul\":5640:5653   */\n      lt\n        /* \"#utility.yul\":5632:5745   */\n      iszero\n      tag_232\n      jumpi\n        /* \"#utility.yul\":5731:5732   */\n      dup1\n        /* \"#utility.yul\":5726:5729   */\n      dup3\n        /* \"#utility.yul\":5722:5733   */\n      add\n        /* \"#utility.yul\":5716:5734   */\n      mload\n        /* \"#utility.yul\":5712:5713   */\n      dup2\n        /* \"#utility.yul\":5707:5710   */\n      dup5\n        /* \"#utility.yul\":5703:5714   */\n      add\n        /* \"#utility.yul\":5696:5735   */\n      mstore\n        /* \"#utility.yul\":5668:5670   */\n      0x20\n        /* \"#utility.yul\":5665:5666   */\n      dup2\n        /* \"#utility.yul\":5661:5671   */\n      add\n        /* \"#utility.yul\":5656:5671   */\n      swap1\n      pop\n        /* \"#utility.yul\":5632:5745   */\n      jump(tag_230)\n    tag_232:\n        /* \"#utility.yul\":5763:5769   */\n      dup4\n        /* \"#utility.yul\":5760:5761   */\n      dup2\n        /* \"#utility.yul\":5757:5770   */\n      gt\n        /* \"#utility.yul\":5754:5855   */\n      iszero\n      tag_233\n      jumpi\n        /* \"#utility.yul\":5843:5844   */\n      0x00\n        /* \"#utility.yul\":5834:5840   */\n      dup5\n        /* \"#utility.yul\":5829:5832   */\n      dup5\n        /* \"#utility.yul\":5825:5841   */\n      add\n        /* \"#utility.yul\":5818:5845   */\n      mstore\n        /* \"#utility.yul\":5754:5855   */\n    tag_233:\n        /* \"#utility.yul\":5603:5861   */\n      pop\n        /* \"#utility.yul\":5554:5861   */\n      pop\n      pop\n      pop\n      jump\t// out\n        /* \"#utility.yul\":5867:6187   */\n    tag_102:\n        /* \"#utility.yul\":5911:5917   */\n      0x00\n        /* \"#utility.yul\":5948:5949   */\n      0x02\n        /* \"#utility.yul\":5942:5946   */\n      dup3\n        /* \"#utility.yul\":5938:5950   */\n      div\n        /* \"#utility.yul\":5928:5950   */\n      swap1\n      pop\n        /* \"#utility.yul\":5995:5996   */\n      0x01\n        /* \"#utility.yul\":5989:5993   */\n      dup3\n        /* \"#utility.yul\":5985:5997   */\n      and\n        /* \"#utility.yul\":6016:6034   */\n      dup1\n        /* \"#utility.yul\":6006:6087   */\n      tag_235\n      jumpi\n        /* \"#utility.yul\":6072:6076   */\n      0x7f\n        /* \"#utility.yul\":6064:6070   */\n      dup3\n        /* \"#utility.yul\":6060:6077   */\n      and\n        /* \"#utility.yul\":6050:6077   */\n      swap2\n      pop\n        /* \"#utility.yul\":6006:6087   */\n    tag_235:\n        /* \"#utility.yul\":6134:6136   */\n      0x20\n        /* \"#utility.yul\":6126:6132   */\n      dup3\n        /* \"#utility.yul\":6123:6137   */\n      lt\n        /* \"#utility.yul\":6103:6121   */\n      dup2\n        /* \"#utility.yul\":6100:6138   */\n      eq\n        /* \"#utility.yul\":6097:6181   */\n      iszero\n      tag_236\n      jumpi\n        /* \"#utility.yul\":6153:6171   */\n      tag_237\n      tag_238\n      jump\t// in\n    tag_237:\n        /* \"#utility.yul\":6097:6181   */\n    tag_236:\n        /* \"#utility.yul\":5918:6187   */\n      pop\n        /* \"#utility.yul\":5867:6187   */\n      swap2\n      swap1\n      pop\n      jump\t// out\n        /* \"#utility.yul\":6193:6474   */\n    tag_217:\n        /* \"#utility.yul\":6276:6303   */\n      tag_240\n        /* \"#utility.yul\":6298:6302   */\n      dup3\n        /* \"#utility.yul\":6276:6303   */\n      tag_206\n      jump\t// in\n    tag_240:\n        /* \"#utility.yul\":6268:6274   */\n      dup2\n        /* \"#utility.yul\":6264:6304   */\n      add\n        /* \"#utility.yul\":6406:6412   */\n      dup2\n        /* \"#utility.yul\":6394:6404   */\n      dup2\n        /* \"#utility.yul\":6391:6413   */\n      lt\n        /* \"#utility.yul\":6370:6388   */\n      0xffffffffffffffff\n        /* \"#utility.yul\":6358:6368   */\n      dup3\n        /* \"#utility.yul\":6355:6389   */\n      gt\n        /* \"#utility.yul\":6352:6414   */\n      or\n        /* \"#utility.yul\":6349:6437   */\n      iszero\n      tag_241\n      jumpi\n        /* \"#utility.yul\":6417:6435   */\n      tag_242\n      tag_222\n      jump\t// in\n    tag_242:\n        /* \"#utility.yul\":6349:6437   */\n    tag_241:\n        /* \"#utility.yul\":6457:6467   */\n      dup1\n        /* \"#utility.yul\":6453:6455   */\n      0x40\n        /* \"#utility.yul\":6446:6468   */\n      mstore\n        /* \"#utility.yul\":6236:6474   */\n      pop\n        /* \"#utility.yul\":6193:6474   */\n      pop\n      pop\n      jump\t// out\n        /* \"#utility.yul\":6480:6660   */\n    tag_238:\n        /* \"#utility.yul\":6528:6605   */\n      0x4e487b7100000000000000000000000000000000000000000000000000000000\n        /* \"#utility.yul\":6525:6526   */\n      0x00\n        /* \"#utility.yul\":6518:6606   */\n      mstore\n        /* \"#utility.yul\":6625:6629   */\n      0x22\n        /* \"#utility.yul\":6622:6623   */\n      0x04\n        /* \"#utility.yul\":6615:6630   */\n      mstore\n        /* \"#utility.yul\":6649:6653   */\n      0x24\n        /* \"#utility.yul\":6646:6647   */\n      0x00\n        /* \"#utility.yul\":6639:6654   */\n      revert\n        /* \"#utility.yul\":6666:6846   */\n    tag_222:\n        /* \"#utility.yul\":6714:6791   */\n      0x4e487b7100000000000000000000000000000000000000000000000000000000\n        /* \"#utility.yul\":6711:6712   */\n      0x00\n        /* \"#utility.yul\":6704:6792   */\n      mstore\n        /* \"#utility.yul\":6811:6815   */\n      0x41\n        /* \"#utility.yul\":6808:6809   */\n      0x04\n        /* \"#utility.yul\":6801:6816   */\n      mstore\n        /* \"#utility.yul\":6835:6839   */\n      0x24\n        /* \"#utility.yul\":6832:6833   */\n      0x00\n        /* \"#utility.yul\":6825:6840   */\n      revert\n        /* \"#utility.yul\":6852:6969   */\n    tag_163:\n        /* \"#utility.yul\":6961:6962   */\n      0x00\n        /* \"#utility.yul\":6958:6959   */\n      dup1\n        /* \"#utility.yul\":6951:6963   */\n      revert\n        /* \"#utility.yul\":6975:7092   */\n    tag_148:\n        /* \"#utility.yul\":7084:7085   */\n      0x00\n        /* \"#utility.yul\":7081:7082   */\n      dup1\n        /* \"#utility.yul\":7074:7086   */\n      revert\n        /* \"#utility.yul\":7098:7215   */\n    tag_179:\n        /* \"#utility.yul\":7207:7208   */\n      0x00\n        /* \"#utility.yul\":7204:7205   */\n      dup1\n        /* \"#utility.yul\":7197:7209   */\n      revert\n        /* \"#utility.yul\":7221:7338   */\n    tag_168:\n        /* \"#utility.yul\":7330:7331   */\n      0x00\n        /* \"#utility.yul\":7327:7328   */\n      dup1\n        /* \"#utility.yul\":7320:7332   */\n      revert\n        /* \"#utility.yul\":7344:7446   */\n    tag_206:\n        /* \"#utility.yul\":7385:7391   */\n      0x00\n        /* \"#utility.yul\":7436:7438   */\n      0x1f\n        /* \"#utility.yul\":7432:7439   */\n      not\n        /* \"#utility.yul\":7427:7429   */\n      0x1f\n        /* \"#utility.yul\":7420:7425   */\n      dup4\n        /* \"#utility.yul\":7416:7430   */\n      add\n        /* \"#utility.yul\":7412:7440   */\n      and\n        /* \"#utility.yul\":7402:7440   */\n      swap1\n      pop\n        /* \"#utility.yul\":7344:7446   */\n      swap2\n      swap1\n      pop\n      jump\t// out\n        /* \"#utility.yul\":7452:7568   */\n    tag_154:\n        /* \"#utility.yul\":7522:7543   */\n      tag_251\n        /* \"#utility.yul\":7537:7542   */\n      dup2\n        /* \"#utility.yul\":7522:7543   */\n      tag_192\n      jump\t// in\n    tag_251:\n        /* \"#utility.yul\":7515:7520   */\n      dup2\n        /* \"#utility.yul\":7512:7544   */\n      eq\n        /* \"#utility.yul\":7502:7562   */\n      tag_252\n      jumpi\n        /* \"#utility.yul\":7558:7559   */\n      0x00\n        /* \"#utility.yul\":7555:7556   */\n      dup1\n        /* \"#utility.yul\":7548:7560   */\n      revert\n        /* \"#utility.yul\":7502:7562   */\n    tag_252:\n        /* \"#utility.yul\":7452:7568   */\n      pop\n      jump\t// out\n        /* \"#utility.yul\":7574:7694   */\n    tag_158:\n        /* \"#utility.yul\":7646:7669   */\n      tag_254\n        /* \"#utility.yul\":7663:7668   */\n      dup2\n        /* \"#utility.yul\":7646:7669   */\n      tag_196\n      jump\t// in\n    tag_254:\n        /* \"#utility.yul\":7639:7644   */\n      dup2\n        /* \"#utility.yul\":7636:7670   */\n      eq\n        /* \"#utility.yul\":7626:7688   */\n      tag_255\n      jumpi\n        /* \"#utility.yul\":7684:7685   */\n      0x00\n        /* \"#utility.yul\":7681:7682   */\n      dup1\n        /* \"#utility.yul\":7674:7686   */\n      revert\n        /* \"#utility.yul\":7626:7688   */\n    tag_255:\n        /* \"#utility.yul\":7574:7694   */\n      pop\n      jump\t// out\n\n    auxdata: 0xa26469706673582212201ad6b59753035ae7e36478d92f8abf24bd7f12952cb3f4ccbd7927c44549c9a064736f6c63430008070033\n}\n",
				"bytecode": {
					"linkReferences": {},
					"object": "60806040523480156200001157600080fd5b50604051620010af380380620010af83398181016040528101906200003791906200023f565b88600090805190602001906200004f929190620000e3565b508760018190555086600281905550856003908051906020019062000076929190620000e3565b5084600460006101000a81548160ff0219169083151502179055508360059080519060200190620000a9929190620000e3565b506006546006819055508160078190555080600860006101000a81548160ff02191690831515021790555050505050505050505062000549565b828054620000f19062000426565b90600052602060002090601f01602090048101928262000115576000855562000161565b82601f106200013057805160ff191683800117855562000161565b8280016001018555821562000161579182015b828111156200016057825182559160200191906001019062000143565b5b50905062000170919062000174565b5090565b5b808211156200018f57600081600090555060010162000175565b5090565b6000620001aa620001a484620003a4565b6200037b565b905082815260208101848484011115620001c957620001c8620004f5565b5b620001d6848285620003f0565b509392505050565b600081519050620001ef8162000515565b92915050565b60008151905062000206816200052f565b92915050565b600082601f830112620002245762000223620004f0565b5b81516200023684826020860162000193565b91505092915050565b60008060008060008060008060006101208a8c031215620002655762000264620004ff565b5b60008a015167ffffffffffffffff811115620002865762000285620004fa565b5b620002948c828d016200020c565b9950506020620002a78c828d01620001f5565b9850506040620002ba8c828d01620001f5565b97505060608a015167ffffffffffffffff811115620002de57620002dd620004fa565b5b620002ec8c828d016200020c565b9650506080620002ff8c828d01620001de565b95505060a08a015167ffffffffffffffff811115620003235762000322620004fa565b5b620003318c828d016200020c565b94505060c0620003448c828d01620001f5565b93505060e0620003578c828d01620001f5565b9250506101006200036b8c828d01620001de565b9150509295985092959850929598565b6000620003876200039a565b90506200039582826200045c565b919050565b6000604051905090565b600067ffffffffffffffff821115620003c257620003c1620004c1565b5b620003cd8262000504565b9050602081019050919050565b60008115159050919050565b6000819050919050565b60005b8381101562000410578082015181840152602081019050620003f3565b8381111562000420576000848401525b50505050565b600060028204905060018216806200043f57607f821691505b6020821081141562000456576200045562000492565b5b50919050565b620004678262000504565b810181811067ffffffffffffffff82111715620004895762000488620004c1565b5b80604052505050565b7f4e487b7100000000000000000000000000000000000000000000000000000000600052602260045260246000fd5b7f4e487b7100000000000000000000000000000000000000000000000000000000600052604160045260246000fd5b600080fd5b600080fd5b600080fd5b600080fd5b6000601f19601f8301169050919050565b6200052081620003da565b81146200052c57600080fd5b50565b6200053a81620003e6565b81146200054657600080fd5b50565b610b5680620005596000396000f3fe608060405234801561001057600080fd5b50600436106101205760003560e01c806373f4ca43116100ad578063c56aa35611610071578063c56aa356146102bb578063d92be7f6146102d9578063e20225d7146102f5578063ea60994e14610311578063f80af7c91461032f57610120565b806373f4ca431461022957806376aaff9f146102475780637c38a8c314610263578063acec338a14610281578063c16a836b1461029d57610120565b80632e25fa47116100f45780632e25fa47146101995780633097ba90146101b557806349c0af60146101d15780634e3764fe146101ef5780636b2b1ab91461020b57610120565b80629ebb10146101255780630932a1aa146101435780632461109e1461015f5780632d79838a1461017b575b600080fd5b61012d61034b565b60405161013a91906108ea565b60405180910390f35b61015d600480360381019061015891906107db565b610362565b005b61017960048036038101906101749190610781565b61037c565b005b610183610399565b6040516101909190610905565b60405180910390f35b6101b360048036038101906101ae91906107db565b6103a3565b005b6101cf60048036038101906101ca91906107ae565b6103bd565b005b6101d96103c7565b6040516101e69190610905565b60405180910390f35b610209600480360381019061020491906107ae565b6103d1565b005b6102136103db565b6040516102209190610920565b60405180910390f35b61023161046d565b60405161023e9190610905565b60405180910390f35b610261600480360381019061025c91906107ae565b610477565b005b61026b610481565b60405161027891906108ea565b60405180910390f35b61029b60048036038101906102969190610781565b610498565b005b6102a56104b5565b6040516102b29190610920565b60405180910390f35b6102c3610547565b6040516102d09190610905565b60405180910390f35b6102f360048036038101906102ee91906107db565b610551565b005b61030f600480360381019061030a9190610824565b61056b565b005b6103196105a8565b6040516103269190610920565b60405180910390f35b610349600480360381019061034491906107ae565b61063a565b005b6000600460009054906101000a900460ff16905090565b8060009080519060200190610378929190610644565b5050565b80600860006101000a81548160ff02191690831515021790555050565b6000600254905090565b80600590805190602001906103b9929190610644565b5050565b8060028190555050565b6000600154905090565b8060078190555050565b6060600580546103ea90610a0c565b80601f016020809104026020016040519081016040528092919081815260200182805461041690610a0c565b80156104635780601f1061043857610100808354040283529160200191610463565b820191906000526020600020905b81548152906001019060200180831161044657829003601f168201915b5050505050905090565b6000600754905090565b8060018190555050565b6000600860009054906101000a900460ff16905090565b80600460006101000a81548160ff02191690831515021790555050565b6060600380546104c490610a0c565b80601f01602080910402602001604051908101604052809291908181526020018280546104f090610a0c565b801561053d5780601f106105125761010080835404028352916020019161053d565b820191906000526020600020905b81548152906001019060200180831161052057829003601f168201915b5050505050905090565b6000600654905090565b8060039080519060200190610567929190610644565b5050565b8260009080519060200190610581929190610644565b508160018190555080600460006101000a81548160ff021916908315150217905550505050565b6060600080546105b790610a0c565b80601f01602080910402602001604051908101604052809291908181526020018280546105e390610a0c565b80156106305780601f1061060557610100808354040283529160200191610630565b820191906000526020600020905b81548152906001019060200180831161061357829003601f168201915b5050505050905090565b8060068190555050565b82805461065090610a0c565b90600052602060002090601f01602090048101928261067257600085556106b9565b82601f1061068b57805160ff19168380011785556106b9565b828001600101855582156106b9579182015b828111156106b857825182559160200191906001019061069d565b5b5090506106c691906106ca565b5090565b5b808211156106e35760008160009055506001016106cb565b5090565b60006106fa6106f584610967565b610942565b90508281526020810184848401111561071657610715610ad2565b5b6107218482856109ca565b509392505050565b60008135905061073881610af2565b92915050565b60008135905061074d81610b09565b92915050565b600082601f83011261076857610767610acd565b5b81356107788482602086016106e7565b91505092915050565b60006020828403121561079757610796610adc565b5b60006107a584828501610729565b91505092915050565b6000602082840312156107c4576107c3610adc565b5b60006107d28482850161073e565b91505092915050565b6000602082840312156107f1576107f0610adc565b5b600082013567ffffffffffffffff81111561080f5761080e610ad7565b5b61081b84828501610753565b91505092915050565b60008060006060848603121561083d5761083c610adc565b5b600084013567ffffffffffffffff81111561085b5761085a610ad7565b5b61086786828701610753565b93505060206108788682870161073e565b925050604061088986828701610729565b9150509250925092565b61089c816109b4565b82525050565b6108ab816109c0565b82525050565b60006108bc82610998565b6108c681856109a3565b93506108d68185602086016109d9565b6108df81610ae1565b840191505092915050565b60006020820190506108ff6000830184610893565b92915050565b600060208201905061091a60008301846108a2565b92915050565b6000602082019050818103600083015261093a81846108b1565b905092915050565b600061094c61095d565b90506109588282610a3e565b919050565b6000604051905090565b600067ffffffffffffffff82111561098257610981610a9e565b5b61098b82610ae1565b9050602081019050919050565b600081519050919050565b600082825260208201905092915050565b60008115159050919050565b6000819050919050565b82818337600083830152505050565b60005b838110156109f75780820151818401526020810190506109dc565b83811115610a06576000848401525b50505050565b60006002820490506001821680610a2457607f821691505b60208210811415610a3857610a37610a6f565b5b50919050565b610a4782610ae1565b810181811067ffffffffffffffff82111715610a6657610a65610a9e565b5b80604052505050565b7f4e487b7100000000000000000000000000000000000000000000000000000000600052602260045260246000fd5b7f4e487b7100000000000000000000000000000000000000000000000000000000600052604160045260246000fd5b600080fd5b600080fd5b600080fd5b600080fd5b6000601f19601f8301169050919050565b610afb816109b4565b8114610b0657600080fd5b50565b610b12816109c0565b8114610b1d57600080fd5b5056fea26469706673582212201ad6b59753035ae7e36478d92f8abf24bd7f12952cb3f4ccbd7927c44549c9a064736f6c63430008070033",
					"opcodes": "PUSH1 0x80 PUSH1 0x40 MSTORE CALLVALUE DUP1 ISZERO PUSH3 0x11 JUMPI PUSH1 0x0 DUP1 REVERT JUMPDEST POP PUSH1 0x40 MLOAD PUSH3 0x10AF CODESIZE SUB DUP1 PUSH3 0x10AF DUP4 CODECOPY DUP2 DUP2 ADD PUSH1 0x40 MSTORE DUP2 ADD SWAP1 PUSH3 0x37 SWAP2 SWAP1 PUSH3 0x23F JUMP JUMPDEST DUP9 PUSH1 0x0 SWAP1 DUP1 MLOAD SWAP1 PUSH1 0x20 ADD SWAP1 PUSH3 0x4F SWAP3 SWAP2 SWAP1 PUSH3 0xE3 JUMP JUMPDEST POP DUP8 PUSH1 0x1 DUP2 SWAP1 SSTORE POP DUP7 PUSH1 0x2 DUP2 SWAP1 SSTORE POP DUP6 PUSH1 0x3 SWAP1 DUP1 MLOAD SWAP1 PUSH1 0x20 ADD SWAP1 PUSH3 0x76 SWAP3 SWAP2 SWAP1 PUSH3 0xE3 JUMP JUMPDEST POP DUP5 PUSH1 0x4 PUSH1 0x0 PUSH2 0x100 EXP DUP2 SLOAD DUP2 PUSH1 0xFF MUL NOT AND SWAP1 DUP4 ISZERO ISZERO MUL OR SWAP1 SSTORE POP DUP4 PUSH1 0x5 SWAP1 DUP1 MLOAD SWAP1 PUSH1 0x20 ADD SWAP1 PUSH3 0xA9 SWAP3 SWAP2 SWAP1 PUSH3 0xE3 JUMP JUMPDEST POP PUSH1 0x6 SLOAD PUSH1 0x6 DUP2 SWAP1 SSTORE POP DUP2 PUSH1 0x7 DUP2 SWAP1 SSTORE POP DUP1 PUSH1 0x8 PUSH1 0x0 PUSH2 0x100 EXP DUP2 SLOAD DUP2 PUSH1 0xFF MUL NOT AND SWAP1 DUP4 ISZERO ISZERO MUL OR SWAP1 SSTORE POP POP POP POP POP POP POP POP POP POP PUSH3 0x549 JUMP JUMPDEST DUP3 DUP1 SLOAD PUSH3 0xF1 SWAP1 PUSH3 0x426 JUMP JUMPDEST SWAP1 PUSH1 0x0 MSTORE PUSH1 0x20 PUSH1 0x0 KECCAK256 SWAP1 PUSH1 0x1F ADD PUSH1 0x20 SWAP1 DIV DUP2 ADD SWAP3 DUP3 PUSH3 0x115 JUMPI PUSH1 0x0 DUP6 SSTORE PUSH3 0x161 JUMP JUMPDEST DUP3 PUSH1 0x1F LT PUSH3 0x130 JUMPI DUP1 MLOAD PUSH1 0xFF NOT AND DUP4 DUP1 ADD OR DUP6 SSTORE PUSH3 0x161 JUMP JUMPDEST DUP3 DUP1 ADD PUSH1 0x1 ADD DUP6 SSTORE DUP3 ISZERO PUSH3 0x161 JUMPI SWAP2 DUP3 ADD JUMPDEST DUP3 DUP2 GT ISZERO PUSH3 0x160 JUMPI DUP3 MLOAD DUP3 SSTORE SWAP2 PUSH1 0x20 ADD SWAP2 SWAP1 PUSH1 0x1 ADD SWAP1 PUSH3 0x143 JUMP JUMPDEST JUMPDEST POP SWAP1 POP PUSH3 0x170 SWAP2 SWAP1 PUSH3 0x174 JUMP JUMPDEST POP SWAP1 JUMP JUMPDEST JUMPDEST DUP1 DUP3 GT ISZERO PUSH3 0x18F JUMPI PUSH1 0x0 DUP2 PUSH1 0x0 SWAP1 SSTORE POP PUSH1 0x1 ADD PUSH3 0x175 JUMP JUMPDEST POP SWAP1 JUMP JUMPDEST PUSH1 0x0 PUSH3 0x1AA PUSH3 0x1A4 DUP5 PUSH3 0x3A4 JUMP JUMPDEST PUSH3 0x37B JUMP JUMPDEST SWAP1 POP DUP3 DUP2 MSTORE PUSH1 0x20 DUP2 ADD DUP5 DUP5 DUP5 ADD GT ISZERO PUSH3 0x1C9 JUMPI PUSH3 0x1C8 PUSH3 0x4F5 JUMP JUMPDEST JUMPDEST PUSH3 0x1D6 DUP5 DUP3 DUP6 PUSH3 0x3F0 JUMP JUMPDEST POP SWAP4 SWAP3 POP POP POP JUMP JUMPDEST PUSH1 0x0 DUP2 MLOAD SWAP1 POP PUSH3 0x1EF DUP2 PUSH3 0x515 JUMP JUMPDEST SWAP3 SWAP2 POP POP JUMP JUMPDEST PUSH1 0x0 DUP2 MLOAD SWAP1 POP PUSH3 0x206 DUP2 PUSH3 0x52F JUMP JUMPDEST SWAP3 SWAP2 POP POP JUMP JUMPDEST PUSH1 0x0 DUP3 PUSH1 0x1F DUP4 ADD SLT PUSH3 0x224 JUMPI PUSH3 0x223 PUSH3 0x4F0 JUMP JUMPDEST JUMPDEST DUP2 MLOAD PUSH3 0x236 DUP5 DUP3 PUSH1 0x20 DUP7 ADD PUSH3 0x193 JUMP JUMPDEST SWAP2 POP POP SWAP3 SWAP2 POP POP JUMP JUMPDEST PUSH1 0x0 DUP1 PUSH1 0x0 DUP1 PUSH1 0x0 DUP1 PUSH1 0x0 DUP1 PUSH1 0x0 PUSH2 0x120 DUP11 DUP13 SUB SLT ISZERO PUSH3 0x265 JUMPI PUSH3 0x264 PUSH3 0x4FF JUMP JUMPDEST JUMPDEST PUSH1 0x0 DUP11 ADD MLOAD PUSH8 0xFFFFFFFFFFFFFFFF DUP2 GT ISZERO PUSH3 0x286 JUMPI PUSH3 0x285 PUSH3 0x4FA JUMP JUMPDEST JUMPDEST PUSH3 0x294 DUP13 DUP3 DUP14 ADD PUSH3 0x20C JUMP JUMPDEST SWAP10 POP POP PUSH1 0x20 PUSH3 0x2A7 DUP13 DUP3 DUP14 ADD PUSH3 0x1F5 JUMP JUMPDEST SWAP9 POP POP PUSH1 0x40 PUSH3 0x2BA DUP13 DUP3 DUP14 ADD PUSH3 0x1F5 JUMP JUMPDEST SWAP8 POP POP PUSH1 0x60 DUP11 ADD MLOAD PUSH8 0xFFFFFFFFFFFFFFFF DUP2 GT ISZERO PUSH3 0x2DE JUMPI PUSH3 0x2DD PUSH3 0x4FA JUMP JUMPDEST JUMPDEST PUSH3 0x2EC DUP13 DUP3 DUP14 ADD PUSH3 0x20C JUMP JUMPDEST SWAP7 POP POP PUSH1 0x80 PUSH3 0x2FF DUP13 DUP3 DUP14 ADD PUSH3 0x1DE JUMP JUMPDEST SWAP6 POP POP PUSH1 0xA0 DUP11 ADD MLOAD PUSH8 0xFFFFFFFFFFFFFFFF DUP2 GT ISZERO PUSH3 0x323 JUMPI PUSH3 0x322 PUSH3 0x4FA JUMP JUMPDEST JUMPDEST PUSH3 0x331 DUP13 DUP3 DUP14 ADD PUSH3 0x20C JUMP JUMPDEST SWAP5 POP POP PUSH1 0xC0 PUSH3 0x344 DUP13 DUP3 DUP14 ADD PUSH3 0x1F5 JUMP JUMPDEST SWAP4 POP POP PUSH1 0xE0 PUSH3 0x357 DUP13 DUP3 DUP14 ADD PUSH3 0x1F5 JUMP JUMPDEST SWAP3 POP POP PUSH2 0x100 PUSH3 0x36B DUP13 DUP3 DUP14 ADD PUSH3 0x1DE JUMP JUMPDEST SWAP2 POP POP SWAP3 SWAP6 SWAP9 POP SWAP3 SWAP6 SWAP9 POP SWAP3 SWAP6 SWAP9 JUMP JUMPDEST PUSH1 0x0 PUSH3 0x387 PUSH3 0x39A JUMP JUMPDEST SWAP1 POP PUSH3 0x395 DUP3 DUP3 PUSH3 0x45C JUMP JUMPDEST SWAP2 SWAP1 POP JUMP JUMPDEST PUSH1 0x0 PUSH1 0x40 MLOAD SWAP1 POP SWAP1 JUMP JUMPDEST PUSH1 0x0 PUSH8 0xFFFFFFFFFFFFFFFF DUP3 GT ISZERO PUSH3 0x3C2 JUMPI PUSH3 0x3C1 PUSH3 0x4C1 JUMP JUMPDEST JUMPDEST PUSH3 0x3CD DUP3 PUSH3 0x504 JUMP JUMPDEST SWAP1 POP PUSH1 0x20 DUP2 ADD SWAP1 POP SWAP2 SWAP1 POP JUMP JUMPDEST PUSH1 0x0 DUP2 ISZERO ISZERO SWAP1 POP SWAP2 SWAP1 POP JUMP JUMPDEST PUSH1 0x0 DUP2 SWAP1 POP SWAP2 SWAP1 POP JUMP JUMPDEST PUSH1 0x0 JUMPDEST DUP4 DUP2 LT ISZERO PUSH3 0x410 JUMPI DUP1 DUP3 ADD MLOAD DUP2 DUP5 ADD MSTORE PUSH1 0x20 DUP2 ADD SWAP1 POP PUSH3 0x3F3 JUMP JUMPDEST DUP4 DUP2 GT ISZERO PUSH3 0x420 JUMPI PUSH1 0x0 DUP5 DUP5 ADD MSTORE JUMPDEST POP POP POP POP JUMP JUMPDEST PUSH1 0x0 PUSH1 0x2 DUP3 DIV SWAP1 POP PUSH1 0x1 DUP3 AND DUP1 PUSH3 0x43F JUMPI PUSH1 0x7F DUP3 AND SWAP2 POP JUMPDEST PUSH1 0x20 DUP3 LT DUP2 EQ ISZERO PUSH3 0x456 JUMPI PUSH3 0x455 PUSH3 0x492 JUMP JUMPDEST JUMPDEST POP SWAP2 SWAP1 POP JUMP JUMPDEST PUSH3 0x467 DUP3 PUSH3 0x504 JUMP JUMPDEST DUP2 ADD DUP2 DUP2 LT PUSH8 0xFFFFFFFFFFFFFFFF DUP3 GT OR ISZERO PUSH3 0x489 JUMPI PUSH3 0x488 PUSH3 0x4C1 JUMP JUMPDEST JUMPDEST DUP1 PUSH1 0x40 MSTORE POP POP POP JUMP JUMPDEST PUSH32 0x4E487B7100000000000000000000000000000000000000000000000000000000 PUSH1 0x0 MSTORE PUSH1 0x22 PUSH1 0x4 MSTORE PUSH1 0x24 PUSH1 0x0 REVERT JUMPDEST PUSH32 0x4E487B7100000000000000000000000000000000000000000000000000000000 PUSH1 0x0 MSTORE PUSH1 0x41 PUSH1 0x4 MSTORE PUSH1 0x24 PUSH1 0x0 REVERT JUMPDEST PUSH1 0x0 DUP1 REVERT JUMPDEST PUSH1 0x0 DUP1 REVERT JUMPDEST PUSH1 0x0 DUP1 REVERT JUMPDEST PUSH1 0x0 DUP1 REVERT JUMPDEST PUSH1 0x0 PUSH1 0x1F NOT PUSH1 0x1F DUP4 ADD AND SWAP1 POP SWAP2 SWAP1 POP JUMP JUMPDEST PUSH3 0x520 DUP2 PUSH3 0x3DA JUMP JUMPDEST DUP2 EQ PUSH3 0x52C JUMPI PUSH1 0x0 DUP1 REVERT JUMPDEST POP JUMP JUMPDEST PUSH3 0x53A DUP2 PUSH3 0x3E6 JUMP JUMPDEST DUP2 EQ PUSH3 0x546 JUMPI PUSH1 0x0 DUP1 REVERT JUMPDEST POP JUMP JUMPDEST PUSH2 0xB56 DUP1 PUSH3 0x559 PUSH1 0x0 CODECOPY PUSH1 0x0 RETURN INVALID PUSH1 0x80 PUSH1 0x40 MSTORE CALLVALUE DUP1 ISZERO PUSH2 0x10 JUMPI PUSH1 0x0 DUP1 REVERT JUMPDEST POP PUSH1 0x4 CALLDATASIZE LT PUSH2 0x120 JUMPI PUSH1 0x0 CALLDATALOAD PUSH1 0xE0 SHR DUP1 PUSH4 0x73F4CA43 GT PUSH2 0xAD JUMPI DUP1 PUSH4 0xC56AA356 GT PUSH2 0x71 JUMPI DUP1 PUSH4 0xC56AA356 EQ PUSH2 0x2BB JUMPI DUP1 PUSH4 0xD92BE7F6 EQ PUSH2 0x2D9 JUMPI DUP1 PUSH4 0xE20225D7 EQ PUSH2 0x2F5 JUMPI DUP1 PUSH4 0xEA60994E EQ PUSH2 0x311 JUMPI DUP1 PUSH4 0xF80AF7C9 EQ PUSH2 0x32F JUMPI PUSH2 0x120 JUMP JUMPDEST DUP1 PUSH4 0x73F4CA43 EQ PUSH2 0x229 JUMPI DUP1 PUSH4 0x76AAFF9F EQ PUSH2 0x247 JUMPI DUP1 PUSH4 0x7C38A8C3 EQ PUSH2 0x263 JUMPI DUP1 PUSH4 0xACEC338A EQ PUSH2 0x281 JUMPI DUP1 PUSH4 0xC16A836B EQ PUSH2 0x29D JUMPI PUSH2 0x120 JUMP JUMPDEST DUP1 PUSH4 0x2E25FA47 GT PUSH2 0xF4 JUMPI DUP1 PUSH4 0x2E25FA47 EQ PUSH2 0x199 JUMPI DUP1 PUSH4 0x3097BA90 EQ PUSH2 0x1B5 JUMPI DUP1 PUSH4 0x49C0AF60 EQ PUSH2 0x1D1 JUMPI DUP1 PUSH4 0x4E3764FE EQ PUSH2 0x1EF JUMPI DUP1 PUSH4 0x6B2B1AB9 EQ PUSH2 0x20B JUMPI PUSH2 0x120 JUMP JUMPDEST DUP1 PUSH3 0x9EBB10 EQ PUSH2 0x125 JUMPI DUP1 PUSH4 0x932A1AA EQ PUSH2 0x143 JUMPI DUP1 PUSH4 0x2461109E EQ PUSH2 0x15F JUMPI DUP1 PUSH4 0x2D79838A EQ PUSH2 0x17B JUMPI JUMPDEST PUSH1 0x0 DUP1 REVERT JUMPDEST PUSH2 0x12D PUSH2 0x34B JUMP JUMPDEST PUSH1 0x40 MLOAD PUSH2 0x13A SWAP2 SWAP1 PUSH2 0x8EA JUMP JUMPDEST PUSH1 0x40 MLOAD DUP1 SWAP2 SUB SWAP1 RETURN JUMPDEST PUSH2 0x15D PUSH1 0x4 DUP1 CALLDATASIZE SUB DUP2 ADD SWAP1 PUSH2 0x158 SWAP2 SWAP1 PUSH2 0x7DB JUMP JUMPDEST PUSH2 0x362 JUMP JUMPDEST STOP JUMPDEST PUSH2 0x179 PUSH1 0x4 DUP1 CALLDATASIZE SUB DUP2 ADD SWAP1 PUSH2 0x174 SWAP2 SWAP1 PUSH2 0x781 JUMP JUMPDEST PUSH2 0x37C JUMP JUMPDEST STOP JUMPDEST PUSH2 0x183 PUSH2 0x399 JUMP JUMPDEST PUSH1 0x40 MLOAD PUSH2 0x190 SWAP2 SWAP1 PUSH2 0x905 JUMP JUMPDEST PUSH1 0x40 MLOAD DUP1 SWAP2 SUB SWAP1 RETURN JUMPDEST PUSH2 0x1B3 PUSH1 0x4 DUP1 CALLDATASIZE SUB DUP2 ADD SWAP1 PUSH2 0x1AE SWAP2 SWAP1 PUSH2 0x7DB JUMP JUMPDEST PUSH2 0x3A3 JUMP JUMPDEST STOP JUMPDEST PUSH2 0x1CF PUSH1 0x4 DUP1 CALLDATASIZE SUB DUP2 ADD SWAP1 PUSH2 0x1CA SWAP2 SWAP1 PUSH2 0x7AE JUMP JUMPDEST PUSH2 0x3BD JUMP JUMPDEST STOP JUMPDEST PUSH2 0x1D9 PUSH2 0x3C7 JUMP JUMPDEST PUSH1 0x40 MLOAD PUSH2 0x1E6 SWAP2 SWAP1 PUSH2 0x905 JUMP JUMPDEST PUSH1 0x40 MLOAD DUP1 SWAP2 SUB SWAP1 RETURN JUMPDEST PUSH2 0x209 PUSH1 0x4 DUP1 CALLDATASIZE SUB DUP2 ADD SWAP1 PUSH2 0x204 SWAP2 SWAP1 PUSH2 0x7AE JUMP JUMPDEST PUSH2 0x3D1 JUMP JUMPDEST STOP JUMPDEST PUSH2 0x213 PUSH2 0x3DB JUMP JUMPDEST PUSH1 0x40 MLOAD PUSH2 0x220 SWAP2 SWAP1 PUSH2 0x920 JUMP JUMPDEST PUSH1 0x40 MLOAD DUP1 SWAP2 SUB SWAP1 RETURN JUMPDEST PUSH2 0x231 PUSH2 0x46D JUMP JUMPDEST PUSH1 0x40 MLOAD PUSH2 0x23E SWAP2 SWAP1 PUSH2 0x905 JUMP JUMPDEST PUSH1 0x40 MLOAD DUP1 SWAP2 SUB SWAP1 RETURN JUMPDEST PUSH2 0x261 PUSH1 0x4 DUP1 CALLDATASIZE SUB DUP2 ADD SWAP1 PUSH2 0x25C SWAP2 SWAP1 PUSH2 0x7AE JUMP JUMPDEST PUSH2 0x477 JUMP JUMPDEST STOP JUMPDEST PUSH2 0x26B PUSH2 0x481 JUMP JUMPDEST PUSH1 0x40 MLOAD PUSH2 0x278 SWAP2 SWAP1 PUSH2 0x8EA JUMP JUMPDEST PUSH1 0x40 MLOAD DUP1 SWAP2 SUB SWAP1 RETURN JUMPDEST PUSH2 0x29B PUSH1 0x4 DUP1 CALLDATASIZE SUB DUP2 ADD SWAP1 PUSH2 0x296 SWAP2 SWAP1 PUSH2 0x781 JUMP JUMPDEST PUSH2 0x498 JUMP JUMPDEST STOP JUMPDEST PUSH2 0x2A5 PUSH2 0x4B5 JUMP JUMPDEST PUSH1 0x40 MLOAD PUSH2 0x2B2 SWAP2 SWAP1 PUSH2 0x920 JUMP JUMPDEST PUSH1 0x40 MLOAD DUP1 SWAP2 SUB SWAP1 RETURN JUMPDEST PUSH2 0x2C3 PUSH2 0x547 JUMP JUMPDEST PUSH1 0x40 MLOAD PUSH2 0x2D0 SWAP2 SWAP1 PUSH2 0x905 JUMP JUMPDEST PUSH1 0x40 MLOAD DUP1 SWAP2 SUB SWAP1 RETURN JUMPDEST PUSH2 0x2F3 PUSH1 0x4 DUP1 CALLDATASIZE SUB DUP2 ADD SWAP1 PUSH2 0x2EE SWAP2 SWAP1 PUSH2 0x7DB JUMP JUMPDEST PUSH2 0x551 JUMP JUMPDEST STOP JUMPDEST PUSH2 0x30F PUSH1 0x4 DUP1 CALLDATASIZE SUB DUP2 ADD SWAP1 PUSH2 0x30A SWAP2 SWAP1 PUSH2 0x824 JUMP JUMPDEST PUSH2 0x56B JUMP JUMPDEST STOP JUMPDEST PUSH2 0x319 PUSH2 0x5A8 JUMP JUMPDEST PUSH1 0x40 MLOAD PUSH2 0x326 SWAP2 SWAP1 PUSH2 0x920 JUMP JUMPDEST PUSH1 0x40 MLOAD DUP1 SWAP2 SUB SWAP1 RETURN JUMPDEST PUSH2 0x349 PUSH1 0x4 DUP1 CALLDATASIZE SUB DUP2 ADD SWAP1 PUSH2 0x344 SWAP2 SWAP1 PUSH2 0x7AE JUMP JUMPDEST PUSH2 0x63A JUMP JUMPDEST STOP JUMPDEST PUSH1 0x0 PUSH1 0x4 PUSH1 0x0 SWAP1 SLOAD SWAP1 PUSH2 0x100 EXP SWAP1 DIV PUSH1 0xFF AND SWAP1 POP SWAP1 JUMP JUMPDEST DUP1 PUSH1 0x0 SWAP1 DUP1 MLOAD SWAP1 PUSH1 0x20 ADD SWAP1 PUSH2 0x378 SWAP3 SWAP2 SWAP1 PUSH2 0x644 JUMP JUMPDEST POP POP JUMP JUMPDEST DUP1 PUSH1 0x8 PUSH1 0x0 PUSH2 0x100 EXP DUP2 SLOAD DUP2 PUSH1 0xFF MUL NOT AND SWAP1 DUP4 ISZERO ISZERO MUL OR SWAP1 SSTORE POP POP JUMP JUMPDEST PUSH1 0x0 PUSH1 0x2 SLOAD SWAP1 POP SWAP1 JUMP JUMPDEST DUP1 PUSH1 0x5 SWAP1 DUP1 MLOAD SWAP1 PUSH1 0x20 ADD SWAP1 PUSH2 0x3B9 SWAP3 SWAP2 SWAP1 PUSH2 0x644 JUMP JUMPDEST POP POP JUMP JUMPDEST DUP1 PUSH1 0x2 DUP2 SWAP1 SSTORE POP POP JUMP JUMPDEST PUSH1 0x0 PUSH1 0x1 SLOAD SWAP1 POP SWAP1 JUMP JUMPDEST DUP1 PUSH1 0x7 DUP2 SWAP1 SSTORE POP POP JUMP JUMPDEST PUSH1 0x60 PUSH1 0x5 DUP1 SLOAD PUSH2 0x3EA SWAP1 PUSH2 0xA0C JUMP JUMPDEST DUP1 PUSH1 0x1F ADD PUSH1 0x20 DUP1 SWAP2 DIV MUL PUSH1 0x20 ADD PUSH1 0x40 MLOAD SWAP1 DUP2 ADD PUSH1 0x40 MSTORE DUP1 SWAP3 SWAP2 SWAP1 DUP2 DUP2 MSTORE PUSH1 0x20 ADD DUP3 DUP1 SLOAD PUSH2 0x416 SWAP1 PUSH2 0xA0C JUMP JUMPDEST DUP1 ISZERO PUSH2 0x463 JUMPI DUP1 PUSH1 0x1F LT PUSH2 0x438 JUMPI PUSH2 0x100 DUP1 DUP4 SLOAD DIV MUL DUP4 MSTORE SWAP2 PUSH1 0x20 ADD SWAP2 PUSH2 0x463 JUMP JUMPDEST DUP3 ADD SWAP2 SWAP1 PUSH1 0x0 MSTORE PUSH1 0x20 PUSH1 0x0 KECCAK256 SWAP1 JUMPDEST DUP2 SLOAD DUP2 MSTORE SWAP1 PUSH1 0x1 ADD SWAP1 PUSH1 0x20 ADD DUP1 DUP4 GT PUSH2 0x446 JUMPI DUP3 SWAP1 SUB PUSH1 0x1F AND DUP3 ADD SWAP2 JUMPDEST POP POP POP POP POP SWAP1 POP SWAP1 JUMP JUMPDEST PUSH1 0x0 PUSH1 0x7 SLOAD SWAP1 POP SWAP1 JUMP JUMPDEST DUP1 PUSH1 0x1 DUP2 SWAP1 SSTORE POP POP JUMP JUMPDEST PUSH1 0x0 PUSH1 0x8 PUSH1 0x0 SWAP1 SLOAD SWAP1 PUSH2 0x100 EXP SWAP1 DIV PUSH1 0xFF AND SWAP1 POP SWAP1 JUMP JUMPDEST DUP1 PUSH1 0x4 PUSH1 0x0 PUSH2 0x100 EXP DUP2 SLOAD DUP2 PUSH1 0xFF MUL NOT AND SWAP1 DUP4 ISZERO ISZERO MUL OR SWAP1 SSTORE POP POP JUMP JUMPDEST PUSH1 0x60 PUSH1 0x3 DUP1 SLOAD PUSH2 0x4C4 SWAP1 PUSH2 0xA0C JUMP JUMPDEST DUP1 PUSH1 0x1F ADD PUSH1 0x20 DUP1 SWAP2 DIV MUL PUSH1 0x20 ADD PUSH1 0x40 MLOAD SWAP1 DUP2 ADD PUSH1 0x40 MSTORE DUP1 SWAP3 SWAP2 SWAP1 DUP2 DUP2 MSTORE PUSH1 0x20 ADD DUP3 DUP1 SLOAD PUSH2 0x4F0 SWAP1 PUSH2 0xA0C JUMP JUMPDEST DUP1 ISZERO PUSH2 0x53D JUMPI DUP1 PUSH1 0x1F LT PUSH2 0x512 JUMPI PUSH2 0x100 DUP1 DUP4 SLOAD DIV MUL DUP4 MSTORE SWAP2 PUSH1 0x20 ADD SWAP2 PUSH2 0x53D JUMP JUMPDEST DUP3 ADD SWAP2 SWAP1 PUSH1 0x0 MSTORE PUSH1 0x20 PUSH1 0x0 KECCAK256 SWAP1 JUMPDEST DUP2 SLOAD DUP2 MSTORE SWAP1 PUSH1 0x1 ADD SWAP1 PUSH1 0x20 ADD DUP1 DUP4 GT PUSH2 0x520 JUMPI DUP3 SWAP1 SUB PUSH1 0x1F AND DUP3 ADD SWAP2 JUMPDEST POP POP POP POP POP SWAP1 POP SWAP1 JUMP JUMPDEST PUSH1 0x0 PUSH1 0x6 SLOAD SWAP1 POP SWAP1 JUMP JUMPDEST DUP1 PUSH1 0x3 SWAP1 DUP1 MLOAD SWAP1 PUSH1 0x20 ADD SWAP1 PUSH2 0x567 SWAP3 SWAP2 SWAP1 PUSH2 0x644 JUMP JUMPDEST POP POP JUMP JUMPDEST DUP3 PUSH1 0x0 SWAP1 DUP1 MLOAD SWAP1 PUSH1 0x20 ADD SWAP1 PUSH2 0x581 SWAP3 SWAP2 SWAP1 PUSH2 0x644 JUMP JUMPDEST POP DUP2 PUSH1 0x1 DUP2 SWAP1 SSTORE POP DUP1 PUSH1 0x4 PUSH1 0x0 PUSH2 0x100 EXP DUP2 SLOAD DUP2 PUSH1 0xFF MUL NOT AND SWAP1 DUP4 ISZERO ISZERO MUL OR SWAP1 SSTORE POP POP POP POP JUMP JUMPDEST PUSH1 0x60 PUSH1 0x0 DUP1 SLOAD PUSH2 0x5B7 SWAP1 PUSH2 0xA0C JUMP JUMPDEST DUP1 PUSH1 0x1F ADD PUSH1 0x20 DUP1 SWAP2 DIV MUL PUSH1 0x20 ADD PUSH1 0x40 MLOAD SWAP1 DUP2 ADD PUSH1 0x40 MSTORE DUP1 SWAP3 SWAP2 SWAP1 DUP2 DUP2 MSTORE PUSH1 0x20 ADD DUP3 DUP1 SLOAD PUSH2 0x5E3 SWAP1 PUSH2 0xA0C JUMP JUMPDEST DUP1 ISZERO PUSH2 0x630 JUMPI DUP1 PUSH1 0x1F LT PUSH2 0x605 JUMPI PUSH2 0x100 DUP1 DUP4 SLOAD DIV MUL DUP4 MSTORE SWAP2 PUSH1 0x20 ADD SWAP2 PUSH2 0x630 JUMP JUMPDEST DUP3 ADD SWAP2 SWAP1 PUSH1 0x0 MSTORE PUSH1 0x20 PUSH1 0x0 KECCAK256 SWAP1 JUMPDEST DUP2 SLOAD DUP2 MSTORE SWAP1 PUSH1 0x1 ADD SWAP1 PUSH1 0x20 ADD DUP1 DUP4 GT PUSH2 0x613 JUMPI DUP3 SWAP1 SUB PUSH1 0x1F AND DUP3 ADD SWAP2 JUMPDEST POP POP POP POP POP SWAP1 POP SWAP1 JUMP JUMPDEST DUP1 PUSH1 0x6 DUP2 SWAP1 SSTORE POP POP JUMP JUMPDEST DUP3 DUP1 SLOAD PUSH2 0x650 SWAP1 PUSH2 0xA0C JUMP JUMPDEST SWAP1 PUSH1 0x0 MSTORE PUSH1 0x20 PUSH1 0x0 KECCAK256 SWAP1 PUSH1 0x1F ADD PUSH1 0x20 SWAP1 DIV DUP2 ADD SWAP3 DUP3 PUSH2 0x672 JUMPI PUSH1 0x0 DUP6 SSTORE PUSH2 0x6B9 JUMP JUMPDEST DUP3 PUSH1 0x1F LT PUSH2 0x68B JUMPI DUP1 MLOAD PUSH1 0xFF NOT AND DUP4 DUP1 ADD OR DUP6 SSTORE PUSH2 0x6B9 JUMP JUMPDEST DUP3 DUP1 ADD PUSH1 0x1 ADD DUP6 SSTORE DUP3 ISZERO PUSH2 0x6B9 JUMPI SWAP2 DUP3 ADD JUMPDEST DUP3 DUP2 GT ISZERO PUSH2 0x6B8 JUMPI DUP3 MLOAD DUP3 SSTORE SWAP2 PUSH1 0x20 ADD SWAP2 SWAP1 PUSH1 0x1 ADD SWAP1 PUSH2 0x69D JUMP JUMPDEST JUMPDEST POP SWAP1 POP PUSH2 0x6C6 SWAP2 SWAP1 PUSH2 0x6CA JUMP JUMPDEST POP SWAP1 JUMP JUMPDEST JUMPDEST DUP1 DUP3 GT ISZERO PUSH2 0x6E3 JUMPI PUSH1 0x0 DUP2 PUSH1 0x0 SWAP1 SSTORE POP PUSH1 0x1 ADD PUSH2 0x6CB JUMP JUMPDEST POP SWAP1 JUMP JUMPDEST PUSH1 0x0 PUSH2 0x6FA PUSH2 0x6F5 DUP5 PUSH2 0x967 JUMP JUMPDEST PUSH2 0x942 JUMP JUMPDEST SWAP1 POP DUP3 DUP2 MSTORE PUSH1 0x20 DUP2 ADD DUP5 DUP5 DUP5 ADD GT ISZERO PUSH2 0x716 JUMPI PUSH2 0x715 PUSH2 0xAD2 JUMP JUMPDEST JUMPDEST PUSH2 0x721 DUP5 DUP3 DUP6 PUSH2 0x9CA JUMP JUMPDEST POP SWAP4 SWAP3 POP POP POP JUMP JUMPDEST PUSH1 0x0 DUP2 CALLDATALOAD SWAP1 POP PUSH2 0x738 DUP2 PUSH2 0xAF2 JUMP JUMPDEST SWAP3 SWAP2 POP POP JUMP JUMPDEST PUSH1 0x0 DUP2 CALLDATALOAD SWAP1 POP PUSH2 0x74D DUP2 PUSH2 0xB09 JUMP JUMPDEST SWAP3 SWAP2 POP POP JUMP JUMPDEST PUSH1 0x0 DUP3 PUSH1 0x1F DUP4 ADD SLT PUSH2 0x768 JUMPI PUSH2 0x767 PUSH2 0xACD JUMP JUMPDEST JUMPDEST DUP2 CALLDATALOAD PUSH2 0x778 DUP5 DUP3 PUSH1 0x20 DUP7 ADD PUSH2 0x6E7 JUMP JUMPDEST SWAP2 POP POP SWAP3 SWAP2 POP POP JUMP JUMPDEST PUSH1 0x0 PUSH1 0x20 DUP3 DUP5 SUB SLT ISZERO PUSH2 0x797 JUMPI PUSH2 0x796 PUSH2 0xADC JUMP JUMPDEST JUMPDEST PUSH1 0x0 PUSH2 0x7A5 DUP5 DUP3 DUP6 ADD PUSH2 0x729 JUMP JUMPDEST SWAP2 POP POP SWAP3 SWAP2 POP POP JUMP JUMPDEST PUSH1 0x0 PUSH1 0x20 DUP3 DUP5 SUB SLT ISZERO PUSH2 0x7C4 JUMPI PUSH2 0x7C3 PUSH2 0xADC JUMP JUMPDEST JUMPDEST PUSH1 0x0 PUSH2 0x7D2 DUP5 DUP3 DUP6 ADD PUSH2 0x73E JUMP JUMPDEST SWAP2 POP POP SWAP3 SWAP2 POP POP JUMP JUMPDEST PUSH1 0x0 PUSH1 0x20 DUP3 DUP5 SUB SLT ISZERO PUSH2 0x7F1 JUMPI PUSH2 0x7F0 PUSH2 0xADC JUMP JUMPDEST JUMPDEST PUSH1 0x0 DUP3 ADD CALLDATALOAD PUSH8 0xFFFFFFFFFFFFFFFF DUP2 GT ISZERO PUSH2 0x80F JUMPI PUSH2 0x80E PUSH2 0xAD7 JUMP JUMPDEST JUMPDEST PUSH2 0x81B DUP5 DUP3 DUP6 ADD PUSH2 0x753 JUMP JUMPDEST SWAP2 POP POP SWAP3 SWAP2 POP POP JUMP JUMPDEST PUSH1 0x0 DUP1 PUSH1 0x0 PUSH1 0x60 DUP5 DUP7 SUB SLT ISZERO PUSH2 0x83D JUMPI PUSH2 0x83C PUSH2 0xADC JUMP JUMPDEST JUMPDEST PUSH1 0x0 DUP5 ADD CALLDATALOAD PUSH8 0xFFFFFFFFFFFFFFFF DUP2 GT ISZERO PUSH2 0x85B JUMPI PUSH2 0x85A PUSH2 0xAD7 JUMP JUMPDEST JUMPDEST PUSH2 0x867 DUP7 DUP3 DUP8 ADD PUSH2 0x753 JUMP JUMPDEST SWAP4 POP POP PUSH1 0x20 PUSH2 0x878 DUP7 DUP3 DUP8 ADD PUSH2 0x73E JUMP JUMPDEST SWAP3 POP POP PUSH1 0x40 PUSH2 0x889 DUP7 DUP3 DUP8 ADD PUSH2 0x729 JUMP JUMPDEST SWAP2 POP POP SWAP3 POP SWAP3 POP SWAP3 JUMP JUMPDEST PUSH2 0x89C DUP2 PUSH2 0x9B4 JUMP JUMPDEST DUP3 MSTORE POP POP JUMP JUMPDEST PUSH2 0x8AB DUP2 PUSH2 0x9C0 JUMP JUMPDEST DUP3 MSTORE POP POP JUMP JUMPDEST PUSH1 0x0 PUSH2 0x8BC DUP3 PUSH2 0x998 JUMP JUMPDEST PUSH2 0x8C6 DUP2 DUP6 PUSH2 0x9A3 JUMP JUMPDEST SWAP4 POP PUSH2 0x8D6 DUP2 DUP6 PUSH1 0x20 DUP7 ADD PUSH2 0x9D9 JUMP JUMPDEST PUSH2 0x8DF DUP2 PUSH2 0xAE1 JUMP JUMPDEST DUP5 ADD SWAP2 POP POP SWAP3 SWAP2 POP POP JUMP JUMPDEST PUSH1 0x0 PUSH1 0x20 DUP3 ADD SWAP1 POP PUSH2 0x8FF PUSH1 0x0 DUP4 ADD DUP5 PUSH2 0x893 JUMP JUMPDEST SWAP3 SWAP2 POP POP JUMP JUMPDEST PUSH1 0x0 PUSH1 0x20 DUP3 ADD SWAP1 POP PUSH2 0x91A PUSH1 0x0 DUP4 ADD DUP5 PUSH2 0x8A2 JUMP JUMPDEST SWAP3 SWAP2 POP POP JUMP JUMPDEST PUSH1 0x0 PUSH1 0x20 DUP3 ADD SWAP1 POP DUP2 DUP2 SUB PUSH1 0x0 DUP4 ADD MSTORE PUSH2 0x93A DUP2 DUP5 PUSH2 0x8B1 JUMP JUMPDEST SWAP1 POP SWAP3 SWAP2 POP POP JUMP JUMPDEST PUSH1 0x0 PUSH2 0x94C PUSH2 0x95D JUMP JUMPDEST SWAP1 POP PUSH2 0x958 DUP3 DUP3 PUSH2 0xA3E JUMP JUMPDEST SWAP2 SWAP1 POP JUMP JUMPDEST PUSH1 0x0 PUSH1 0x40 MLOAD SWAP1 POP SWAP1 JUMP JUMPDEST PUSH1 0x0 PUSH8 0xFFFFFFFFFFFFFFFF DUP3 GT ISZERO PUSH2 0x982 JUMPI PUSH2 0x981 PUSH2 0xA9E JUMP JUMPDEST JUMPDEST PUSH2 0x98B DUP3 PUSH2 0xAE1 JUMP JUMPDEST SWAP1 POP PUSH1 0x20 DUP2 ADD SWAP1 POP SWAP2 SWAP1 POP JUMP JUMPDEST PUSH1 0x0 DUP2 MLOAD SWAP1 POP SWAP2 SWAP1 POP JUMP JUMPDEST PUSH1 0x0 DUP3 DUP3 MSTORE PUSH1 0x20 DUP3 ADD SWAP1 POP SWAP3 SWAP2 POP POP JUMP JUMPDEST PUSH1 0x0 DUP2 ISZERO ISZERO SWAP1 POP SWAP2 SWAP1 POP JUMP JUMPDEST PUSH1 0x0 DUP2 SWAP1 POP SWAP2 SWAP1 POP JUMP JUMPDEST DUP3 DUP2 DUP4 CALLDATACOPY PUSH1 0x0 DUP4 DUP4 ADD MSTORE POP POP POP JUMP JUMPDEST PUSH1 0x0 JUMPDEST DUP4 DUP2 LT ISZERO PUSH2 0x9F7 JUMPI DUP1 DUP3 ADD MLOAD DUP2 DUP5 ADD MSTORE PUSH1 0x20 DUP2 ADD SWAP1 POP PUSH2 0x9DC JUMP JUMPDEST DUP4 DUP2 GT ISZERO PUSH2 0xA06 JUMPI PUSH1 0x0 DUP5 DUP5 ADD MSTORE JUMPDEST POP POP POP POP JUMP JUMPDEST PUSH1 0x0 PUSH1 0x2 DUP3 DIV SWAP1 POP PUSH1 0x1 DUP3 AND DUP1 PUSH2 0xA24 JUMPI PUSH1 0x7F DUP3 AND SWAP2 POP JUMPDEST PUSH1 0x20 DUP3 LT DUP2 EQ ISZERO PUSH2 0xA38 JUMPI PUSH2 0xA37 PUSH2 0xA6F JUMP JUMPDEST JUMPDEST POP SWAP2 SWAP1 POP JUMP JUMPDEST PUSH2 0xA47 DUP3 PUSH2 0xAE1 JUMP JUMPDEST DUP2 ADD DUP2 DUP2 LT PUSH8 0xFFFFFFFFFFFFFFFF DUP3 GT OR ISZERO PUSH2 0xA66 JUMPI PUSH2 0xA65 PUSH2 0xA9E JUMP JUMPDEST JUMPDEST DUP1 PUSH1 0x40 MSTORE POP POP POP JUMP JUMPDEST PUSH32 0x4E487B7100000000000000000000000000000000000000000000000000000000 PUSH1 0x0 MSTORE PUSH1 0x22 PUSH1 0x4 MSTORE PUSH1 0x24 PUSH1 0x0 REVERT JUMPDEST PUSH32 0x4E487B7100000000000000000000000000000000000000000000000000000000 PUSH1 0x0 MSTORE PUSH1 0x41 PUSH1 0x4 MSTORE PUSH1 0x24 PUSH1 0x0 REVERT JUMPDEST PUSH1 0x0 DUP1 REVERT JUMPDEST PUSH1 0x0 DUP1 REVERT JUMPDEST PUSH1 0x0 DUP1 REVERT JUMPDEST PUSH1 0x0 DUP1 REVERT JUMPDEST PUSH1 0x0 PUSH1 0x1F NOT PUSH1 0x1F DUP4 ADD AND SWAP1 POP SWAP2 SWAP1 POP JUMP JUMPDEST PUSH2 0xAFB DUP2 PUSH2 0x9B4 JUMP JUMPDEST DUP2 EQ PUSH2 0xB06 JUMPI PUSH1 0x0 DUP1 REVERT JUMPDEST POP JUMP JUMPDEST PUSH2 0xB12 DUP2 PUSH2 0x9C0 JUMP JUMPDEST DUP2 EQ PUSH2 0xB1D JUMPI PUSH1 0x0 DUP1 REVERT JUMPDEST POP JUMP INVALID LOG2 PUSH5 0x6970667358 0x22 SLT KECCAK256 BYTE 0xD6 0xB5 SWAP8 MSTORE8 SUB GAS 0xE7 0xE3 PUSH5 0x78D92F8ABF 0x24 0xBD PUSH32 0x12952CB3F4CCBD7927C44549C9A064736F6C6343000807003300000000000000 "
				},
				"gasEstimates": {
					"creation": {
						"codeDepositCost": "580400",
						"executionCost": "infinite",
						"totalCost": "infinite"
					},
					"external": {
						"getActive()": "2503",
						"getBirthDate()": "infinite",
						"getGender()": "2546",
						"getIDBovineParentOne()": "2459",
						"getIDBovineParentTwo()": "2460",
						"getIDField()": "2504",
						"getIDOwner()": "infinite",
						"getObservation()": "infinite",
						"getSerialNumber()": "2527",
						"setActive(bool)": "24768",
						"setBirthDate(string)": "infinite",
						"setGender(bool)": "24747",
						"setIDBovineParentOne(int256)": "22630",
						"setIDBovineParentTwo(int256)": "22609",
						"setIDField(int256)": "22565",
						"setIDOwner(string)": "infinite",
						"setObservation(string)": "infinite",
						"setSerialNumber(int256)": "22565",
						"setUpdate(string,int256,bool)": "infinite"
					}
				},
				"methodIdentifiers": {
					"getActive()": "009ebb10",
					"getBirthDate()": "c16a836b",
					"getGender()": "7c38a8c3",
					"getIDBovineParentOne()": "c56aa356",
					"getIDBovineParentTwo()": "73f4ca43",
					"getIDField()": "49c0af60",
					"getIDOwner()": "ea60994e",
					"getObservation()": "6b2b1ab9",
					"getSerialNumber()": "2d79838a",
					"setActive(bool)": "acec338a",
					"setBirthDate(string)": "d92be7f6",
					"setGender(bool)": "2461109e",
					"setIDBovineParentOne(int256)": "f80af7c9",
					"setIDBovineParentTwo(int256)": "4e3764fe",
					"setIDField(int256)": "76aaff9f",
					"setIDOwner(string)": "0932a1aa",
					"setObservation(string)": "2e25fa47",
					"setSerialNumber(int256)": "3097ba90",
					"setUpdate(string,int256,bool)": "e20225d7"
				}
			},
			"storageLayout": {
				"storage": [
					{
						"astId": 3,
						"contract": "contracts/Bovine.sol:Bovine",
						"label": "idOwner",
						"offset": 0,
						"slot": "0",
						"type": "t_string_storage"
					},
					{
						"astId": 5,
						"contract": "contracts/Bovine.sol:Bovine",
						"label": "idField",
						"offset": 0,
						"slot": "1",
						"type": "t_int256"
					},
					{
						"astId": 7,
						"contract": "contracts/Bovine.sol:Bovine",
						"label": "serialNumber",
						"offset": 0,
						"slot": "2",
						"type": "t_int256"
					},
					{
						"astId": 9,
						"contract": "contracts/Bovine.sol:Bovine",
						"label": "birthDate",
						"offset": 0,
						"slot": "3",
						"type": "t_string_storage"
					},
					{
						"astId": 11,
						"contract": "contracts/Bovine.sol:Bovine",
						"label": "active",
						"offset": 0,
						"slot": "4",
						"type": "t_bool"
					},
					{
						"astId": 13,
						"contract": "contracts/Bovine.sol:Bovine",
						"label": "observation",
						"offset": 0,
						"slot": "5",
						"type": "t_string_storage"
					},
					{
						"astId": 15,
						"contract": "contracts/Bovine.sol:Bovine",
						"label": "idBovineParentOne",
						"offset": 0,
						"slot": "6",
						"type": "t_int256"
					},
					{
						"astId": 17,
						"contract": "contracts/Bovine.sol:Bovine",
						"label": "idBovineParentTwo",
						"offset": 0,
						"slot": "7",
						"type": "t_int256"
					},
					{
						"astId": 19,
						"contract": "contracts/Bovine.sol:Bovine",
						"label": "gender",
						"offset": 0,
						"slot": "8",
						"type": "t_bool"
					}
				],
				"types": {
					"t_bool": {
						"encoding": "inplace",
						"label": "bool",
						"numberOfBytes": "1"
					},
					"t_int256": {
						"encoding": "inplace",
						"label": "int256",
						"numberOfBytes": "32"
					},
					"t_string_storage": {
						"encoding": "bytes",
						"label": "string",
						"numberOfBytes": "32"
					}
				}
			},
			"userdoc": {
				"kind": "user",
				"methods": {},
				"version": 1
			}
		}
	}
}