{
	"contracts/Field.sol": {
		"Field": {
			"abi": [
				{
					"inputs": [
						{
							"internalType": "string",
							"name": "_fieldDescription",
							"type": "string"
						},
						{
							"internalType": "string",
							"name": "_latitude",
							"type": "string"
						},
						{
							"internalType": "string",
							"name": "_longitude",
							"type": "string"
						},
						{
							"internalType": "bool",
							"name": "_active",
							"type": "bool"
						},
						{
							"internalType": "string",
							"name": "_observation",
							"type": "string"
						}
					],
					"stateMutability": "nonpayable",
					"type": "constructor"
				},
				{
					"inputs": [],
					"name": "getActive",
					"outputs": [
						{
							"internalType": "bool",
							"name": "",
							"type": "bool"
						}
					],
					"stateMutability": "view",
					"type": "function"
				},
				{
					"inputs": [],
					"name": "getFieldDescription",
					"outputs": [
						{
							"internalType": "string",
							"name": "",
							"type": "string"
						}
					],
					"stateMutability": "view",
					"type": "function"
				},
				{
					"inputs": [],
					"name": "getLatitude",
					"outputs": [
						{
							"internalType": "string",
							"name": "",
							"type": "string"
						}
					],
					"stateMutability": "view",
					"type": "function"
				},
				{
					"inputs": [],
					"name": "getLongitude",
					"outputs": [
						{
							"internalType": "string",
							"name": "",
							"type": "string"
						}
					],
					"stateMutability": "view",
					"type": "function"
				},
				{
					"inputs": [],
					"name": "getObservation",
					"outputs": [
						{
							"internalType": "string",
							"name": "",
							"type": "string"
						}
					],
					"stateMutability": "view",
					"type": "function"
				},
				{
					"inputs": [
						{
							"internalType": "bool",
							"name": "_active",
							"type": "bool"
						}
					],
					"name": "setActive",
					"outputs": [],
					"stateMutability": "nonpayable",
					"type": "function"
				},
				{
					"inputs": [
						{
							"internalType": "string",
							"name": "_fieldDescription",
							"type": "string"
						}
					],
					"name": "setFieldDescription",
					"outputs": [],
					"stateMutability": "nonpayable",
					"type": "function"
				},
				{
					"inputs": [
						{
							"internalType": "string",
							"name": "_latitude",
							"type": "string"
						}
					],
					"name": "setLatitude",
					"outputs": [],
					"stateMutability": "nonpayable",
					"type": "function"
				},
				{
					"inputs": [
						{
							"internalType": "string",
							"name": "_longitude",
							"type": "string"
						}
					],
					"name": "setLongitude",
					"outputs": [],
					"stateMutability": "nonpayable",
					"type": "function"
				},
				{
					"inputs": [
						{
							"internalType": "string",
							"name": "_observation",
							"type": "string"
						}
					],
					"name": "setObservation",
					"outputs": [],
					"stateMutability": "nonpayable",
					"type": "function"
				},
				{
					"inputs": [
						{
							"internalType": "string",
							"name": "_fieldDescription",
							"type": "string"
						},
						{
							"internalType": "string",
							"name": "_latitude",
							"type": "string"
						},
						{
							"internalType": "string",
							"name": "_longitude",
							"type": "string"
						},
						{
							"internalType": "bool",
							"name": "_active",
							"type": "bool"
						}
					],
					"name": "updateField",
					"outputs": [],
					"stateMutability": "nonpayable",
					"type": "function"
				}
			],
			"devdoc": {
				"kind": "dev",
				"methods": {},
				"version": 1
			},
			"evm": {
				"assembly": "    /* \"contracts/Field.sol\":71:1893  contract Field{\r... */\n  mstore(0x40, 0x80)\n    /* \"contracts/Field.sol\":222:550  constructor(string memory _fieldDescription, string memory _latitude, string memory _longitude, bool _active, string memory _observation) public {\r... */\n  callvalue\n  dup1\n  iszero\n  tag_1\n  jumpi\n  0x00\n  dup1\n  revert\ntag_1:\n  pop\n  mload(0x40)\n  sub(codesize, bytecodeSize)\n  dup1\n  bytecodeSize\n  dup4\n  codecopy\n  dup2\n  dup2\n  add\n  0x40\n  mstore\n  dup2\n  add\n  swap1\n  tag_2\n  swap2\n  swap1\n  tag_3\n  jump\t// in\ntag_2:\n    /* \"contracts/Field.sol\":397:414  _fieldDescription */\n  dup5\n    /* \"contracts/Field.sol\":378:394  fieldDescription */\n  0x00\n    /* \"contracts/Field.sol\":378:414  fieldDescription = _fieldDescription */\n  swap1\n  dup1\n  mload\n  swap1\n  0x20\n  add\n  swap1\n  tag_6\n  swap3\n  swap2\n  swap1\n  tag_7\n  jump\t// in\ntag_6:\n  pop\n    /* \"contracts/Field.sol\":436:445  _latitude */\n  dup4\n    /* \"contracts/Field.sol\":425:433  latitude */\n  0x01\n    /* \"contracts/Field.sol\":425:445  latitude = _latitude */\n  swap1\n  dup1\n  mload\n  swap1\n  0x20\n  add\n  swap1\n  tag_8\n  swap3\n  swap2\n  swap1\n  tag_7\n  jump\t// in\ntag_8:\n  pop\n    /* \"contracts/Field.sol\":468:478  _longitude */\n  dup3\n    /* \"contracts/Field.sol\":456:465  longitude */\n  0x02\n    /* \"contracts/Field.sol\":456:478  longitude = _longitude */\n  swap1\n  dup1\n  mload\n  swap1\n  0x20\n  add\n  swap1\n  tag_9\n  swap3\n  swap2\n  swap1\n  tag_7\n  jump\t// in\ntag_9:\n  pop\n    /* \"contracts/Field.sol\":498:505  _active */\n  dup2\n    /* \"contracts/Field.sol\":489:495  active */\n  0x03\n  0x00\n    /* \"contracts/Field.sol\":489:505  active = _active */\n  0x0100\n  exp\n  dup2\n  sload\n  dup2\n  0xff\n  mul\n  not\n  and\n  swap1\n  dup4\n  iszero\n  iszero\n  mul\n  or\n  swap1\n  sstore\n  pop\n    /* \"contracts/Field.sol\":530:542  _observation */\n  dup1\n    /* \"contracts/Field.sol\":516:527  observation */\n  0x04\n    /* \"contracts/Field.sol\":516:542  observation = _observation */\n  swap1\n  dup1\n  mload\n  swap1\n  0x20\n  add\n  swap1\n  tag_10\n  swap3\n  swap2\n  swap1\n  tag_7\n  jump\t// in\ntag_10:\n  pop\n    /* \"contracts/Field.sol\":222:550  constructor(string memory _fieldDescription, string memory _latitude, string memory _longitude, bool _active, string memory _observation) public {\r... */\n  pop\n  pop\n  pop\n  pop\n  pop\n    /* \"contracts/Field.sol\":71:1893  contract Field{\r... */\n  jump(tag_11)\ntag_7:\n  dup3\n  dup1\n  sload\n  tag_12\n  swap1\n  tag_13\n  jump\t// in\ntag_12:\n  swap1\n  0x00\n  mstore\n  keccak256(0x00, 0x20)\n  swap1\n  0x1f\n  add\n  0x20\n  swap1\n  div\n  dup2\n  add\n  swap3\n  dup3\n  tag_15\n  jumpi\n  0x00\n  dup6\n  sstore\n  jump(tag_14)\ntag_15:\n  dup3\n  0x1f\n  lt\n  tag_16\n  jumpi\n  dup1\n  mload\n  not(0xff)\n  and\n  dup4\n  dup1\n  add\n  or\n  dup6\n  sstore\n  jump(tag_14)\ntag_16:\n  dup3\n  dup1\n  add\n  0x01\n  add\n  dup6\n  sstore\n  dup3\n  iszero\n  tag_14\n  jumpi\n  swap2\n  dup3\n  add\ntag_17:\n  dup3\n  dup2\n  gt\n  iszero\n  tag_18\n  jumpi\n  dup3\n  mload\n  dup3\n  sstore\n  swap2\n  0x20\n  add\n  swap2\n  swap1\n  0x01\n  add\n  swap1\n  jump(tag_17)\ntag_18:\ntag_14:\n  pop\n  swap1\n  pop\n  tag_19\n  swap2\n  swap1\n  tag_20\n  jump\t// in\ntag_19:\n  pop\n  swap1\n  jump\t// out\ntag_20:\ntag_21:\n  dup1\n  dup3\n  gt\n  iszero\n  tag_22\n  jumpi\n  0x00\n  dup2\n  0x00\n  swap1\n  sstore\n  pop\n  0x01\n  add\n  jump(tag_21)\ntag_22:\n  pop\n  swap1\n  jump\t// out\n    /* \"#utility.yul\":7:428   */\ntag_24:\n    /* \"#utility.yul\":96:101   */\n  0x00\n    /* \"#utility.yul\":121:187   */\n  tag_26\n    /* \"#utility.yul\":137:186   */\n  tag_27\n    /* \"#utility.yul\":179:185   */\n  dup5\n    /* \"#utility.yul\":137:186   */\n  tag_28\n  jump\t// in\ntag_27:\n    /* \"#utility.yul\":121:187   */\n  tag_29\n  jump\t// in\ntag_26:\n    /* \"#utility.yul\":112:187   */\n  swap1\n  pop\n    /* \"#utility.yul\":210:216   */\n  dup3\n    /* \"#utility.yul\":203:208   */\n  dup2\n    /* \"#utility.yul\":196:217   */\n  mstore\n    /* \"#utility.yul\":248:252   */\n  0x20\n    /* \"#utility.yul\":241:246   */\n  dup2\n    /* \"#utility.yul\":237:253   */\n  add\n    /* \"#utility.yul\":286:289   */\n  dup5\n    /* \"#utility.yul\":277:283   */\n  dup5\n    /* \"#utility.yul\":272:275   */\n  dup5\n    /* \"#utility.yul\":268:284   */\n  add\n    /* \"#utility.yul\":265:290   */\n  gt\n    /* \"#utility.yul\":262:374   */\n  iszero\n  tag_30\n  jumpi\n    /* \"#utility.yul\":293:372   */\n  tag_31\n  tag_32\n  jump\t// in\ntag_31:\n    /* \"#utility.yul\":262:374   */\ntag_30:\n    /* \"#utility.yul\":383:422   */\n  tag_33\n    /* \"#utility.yul\":415:421   */\n  dup5\n    /* \"#utility.yul\":410:413   */\n  dup3\n    /* \"#utility.yul\":405:408   */\n  dup6\n    /* \"#utility.yul\":383:422   */\n  tag_34\n  jump\t// in\ntag_33:\n    /* \"#utility.yul\":102:428   */\n  pop\n    /* \"#utility.yul\":7:428   */\n  swap4\n  swap3\n  pop\n  pop\n  pop\n  jump\t// out\n    /* \"#utility.yul\":434:571   */\ntag_35:\n    /* \"#utility.yul\":488:493   */\n  0x00\n    /* \"#utility.yul\":519:525   */\n  dup2\n    /* \"#utility.yul\":513:526   */\n  mload\n    /* \"#utility.yul\":504:526   */\n  swap1\n  pop\n    /* \"#utility.yul\":535:565   */\n  tag_37\n    /* \"#utility.yul\":559:564   */\n  dup2\n    /* \"#utility.yul\":535:565   */\n  tag_38\n  jump\t// in\ntag_37:\n    /* \"#utility.yul\":434:571   */\n  swap3\n  swap2\n  pop\n  pop\n  jump\t// out\n    /* \"#utility.yul\":591:946   */\ntag_39:\n    /* \"#utility.yul\":658:663   */\n  0x00\n    /* \"#utility.yul\":707:710   */\n  dup3\n    /* \"#utility.yul\":700:704   */\n  0x1f\n    /* \"#utility.yul\":692:698   */\n  dup4\n    /* \"#utility.yul\":688:705   */\n  add\n    /* \"#utility.yul\":684:711   */\n  slt\n    /* \"#utility.yul\":674:796   */\n  tag_41\n  jumpi\n    /* \"#utility.yul\":715:794   */\n  tag_42\n  tag_43\n  jump\t// in\ntag_42:\n    /* \"#utility.yul\":674:796   */\ntag_41:\n    /* \"#utility.yul\":825:831   */\n  dup2\n    /* \"#utility.yul\":819:832   */\n  mload\n    /* \"#utility.yul\":850:940   */\n  tag_44\n    /* \"#utility.yul\":936:939   */\n  dup5\n    /* \"#utility.yul\":928:934   */\n  dup3\n    /* \"#utility.yul\":921:925   */\n  0x20\n    /* \"#utility.yul\":913:919   */\n  dup7\n    /* \"#utility.yul\":909:926   */\n  add\n    /* \"#utility.yul\":850:940   */\n  tag_24\n  jump\t// in\ntag_44:\n    /* \"#utility.yul\":841:940   */\n  swap2\n  pop\n    /* \"#utility.yul\":664:946   */\n  pop\n    /* \"#utility.yul\":591:946   */\n  swap3\n  swap2\n  pop\n  pop\n  jump\t// out\n    /* \"#utility.yul\":952:2615   */\ntag_3:\n    /* \"#utility.yul\":1095:1101   */\n  0x00\n    /* \"#utility.yul\":1103:1109   */\n  dup1\n    /* \"#utility.yul\":1111:1117   */\n  0x00\n    /* \"#utility.yul\":1119:1125   */\n  dup1\n    /* \"#utility.yul\":1127:1133   */\n  0x00\n    /* \"#utility.yul\":1176:1179   */\n  0xa0\n    /* \"#utility.yul\":1164:1173   */\n  dup7\n    /* \"#utility.yul\":1155:1162   */\n  dup9\n    /* \"#utility.yul\":1151:1174   */\n  sub\n    /* \"#utility.yul\":1147:1180   */\n  slt\n    /* \"#utility.yul\":1144:1264   */\n  iszero\n  tag_46\n  jumpi\n    /* \"#utility.yul\":1183:1262   */\n  tag_47\n  tag_48\n  jump\t// in\ntag_47:\n    /* \"#utility.yul\":1144:1264   */\ntag_46:\n    /* \"#utility.yul\":1324:1325   */\n  0x00\n    /* \"#utility.yul\":1313:1322   */\n  dup7\n    /* \"#utility.yul\":1309:1326   */\n  add\n    /* \"#utility.yul\":1303:1327   */\n  mload\n    /* \"#utility.yul\":1354:1372   */\n  0xffffffffffffffff\n    /* \"#utility.yul\":1346:1352   */\n  dup2\n    /* \"#utility.yul\":1343:1373   */\n  gt\n    /* \"#utility.yul\":1340:1457   */\n  iszero\n  tag_49\n  jumpi\n    /* \"#utility.yul\":1376:1455   */\n  tag_50\n  tag_51\n  jump\t// in\ntag_50:\n    /* \"#utility.yul\":1340:1457   */\ntag_49:\n    /* \"#utility.yul\":1481:1555   */\n  tag_52\n    /* \"#utility.yul\":1547:1554   */\n  dup9\n    /* \"#utility.yul\":1538:1544   */\n  dup3\n    /* \"#utility.yul\":1527:1536   */\n  dup10\n    /* \"#utility.yul\":1523:1545   */\n  add\n    /* \"#utility.yul\":1481:1555   */\n  tag_39\n  jump\t// in\ntag_52:\n    /* \"#utility.yul\":1471:1555   */\n  swap6\n  pop\n    /* \"#utility.yul\":1274:1565   */\n  pop\n    /* \"#utility.yul\":1625:1627   */\n  0x20\n    /* \"#utility.yul\":1614:1623   */\n  dup7\n    /* \"#utility.yul\":1610:1628   */\n  add\n    /* \"#utility.yul\":1604:1629   */\n  mload\n    /* \"#utility.yul\":1656:1674   */\n  0xffffffffffffffff\n    /* \"#utility.yul\":1648:1654   */\n  dup2\n    /* \"#utility.yul\":1645:1675   */\n  gt\n    /* \"#utility.yul\":1642:1759   */\n  iszero\n  tag_53\n  jumpi\n    /* \"#utility.yul\":1678:1757   */\n  tag_54\n  tag_51\n  jump\t// in\ntag_54:\n    /* \"#utility.yul\":1642:1759   */\ntag_53:\n    /* \"#utility.yul\":1783:1857   */\n  tag_55\n    /* \"#utility.yul\":1849:1856   */\n  dup9\n    /* \"#utility.yul\":1840:1846   */\n  dup3\n    /* \"#utility.yul\":1829:1838   */\n  dup10\n    /* \"#utility.yul\":1825:1847   */\n  add\n    /* \"#utility.yul\":1783:1857   */\n  tag_39\n  jump\t// in\ntag_55:\n    /* \"#utility.yul\":1773:1857   */\n  swap5\n  pop\n    /* \"#utility.yul\":1575:1867   */\n  pop\n    /* \"#utility.yul\":1927:1929   */\n  0x40\n    /* \"#utility.yul\":1916:1925   */\n  dup7\n    /* \"#utility.yul\":1912:1930   */\n  add\n    /* \"#utility.yul\":1906:1931   */\n  mload\n    /* \"#utility.yul\":1958:1976   */\n  0xffffffffffffffff\n    /* \"#utility.yul\":1950:1956   */\n  dup2\n    /* \"#utility.yul\":1947:1977   */\n  gt\n    /* \"#utility.yul\":1944:2061   */\n  iszero\n  tag_56\n  jumpi\n    /* \"#utility.yul\":1980:2059   */\n  tag_57\n  tag_51\n  jump\t// in\ntag_57:\n    /* \"#utility.yul\":1944:2061   */\ntag_56:\n    /* \"#utility.yul\":2085:2159   */\n  tag_58\n    /* \"#utility.yul\":2151:2158   */\n  dup9\n    /* \"#utility.yul\":2142:2148   */\n  dup3\n    /* \"#utility.yul\":2131:2140   */\n  dup10\n    /* \"#utility.yul\":2127:2149   */\n  add\n    /* \"#utility.yul\":2085:2159   */\n  tag_39\n  jump\t// in\ntag_58:\n    /* \"#utility.yul\":2075:2159   */\n  swap4\n  pop\n    /* \"#utility.yul\":1877:2169   */\n  pop\n    /* \"#utility.yul\":2208:2210   */\n  0x60\n    /* \"#utility.yul\":2234:2295   */\n  tag_59\n    /* \"#utility.yul\":2287:2294   */\n  dup9\n    /* \"#utility.yul\":2278:2284   */\n  dup3\n    /* \"#utility.yul\":2267:2276   */\n  dup10\n    /* \"#utility.yul\":2263:2285   */\n  add\n    /* \"#utility.yul\":2234:2295   */\n  tag_35\n  jump\t// in\ntag_59:\n    /* \"#utility.yul\":2224:2295   */\n  swap3\n  pop\n    /* \"#utility.yul\":2179:2305   */\n  pop\n    /* \"#utility.yul\":2365:2368   */\n  0x80\n    /* \"#utility.yul\":2354:2363   */\n  dup7\n    /* \"#utility.yul\":2350:2369   */\n  add\n    /* \"#utility.yul\":2344:2370   */\n  mload\n    /* \"#utility.yul\":2397:2415   */\n  0xffffffffffffffff\n    /* \"#utility.yul\":2389:2395   */\n  dup2\n    /* \"#utility.yul\":2386:2416   */\n  gt\n    /* \"#utility.yul\":2383:2500   */\n  iszero\n  tag_60\n  jumpi\n    /* \"#utility.yul\":2419:2498   */\n  tag_61\n  tag_51\n  jump\t// in\ntag_61:\n    /* \"#utility.yul\":2383:2500   */\ntag_60:\n    /* \"#utility.yul\":2524:2598   */\n  tag_62\n    /* \"#utility.yul\":2590:2597   */\n  dup9\n    /* \"#utility.yul\":2581:2587   */\n  dup3\n    /* \"#utility.yul\":2570:2579   */\n  dup10\n    /* \"#utility.yul\":2566:2588   */\n  add\n    /* \"#utility.yul\":2524:2598   */\n  tag_39\n  jump\t// in\ntag_62:\n    /* \"#utility.yul\":2514:2598   */\n  swap2\n  pop\n    /* \"#utility.yul\":2315:2608   */\n  pop\n    /* \"#utility.yul\":952:2615   */\n  swap3\n  swap6\n  pop\n  swap3\n  swap6\n  swap1\n  swap4\n  pop\n  jump\t// out\n    /* \"#utility.yul\":2621:2750   */\ntag_29:\n    /* \"#utility.yul\":2655:2661   */\n  0x00\n    /* \"#utility.yul\":2682:2702   */\n  tag_64\n  tag_65\n  jump\t// in\ntag_64:\n    /* \"#utility.yul\":2672:2702   */\n  swap1\n  pop\n    /* \"#utility.yul\":2711:2744   */\n  tag_66\n    /* \"#utility.yul\":2739:2743   */\n  dup3\n    /* \"#utility.yul\":2731:2737   */\n  dup3\n    /* \"#utility.yul\":2711:2744   */\n  tag_67\n  jump\t// in\ntag_66:\n    /* \"#utility.yul\":2621:2750   */\n  swap2\n  swap1\n  pop\n  jump\t// out\n    /* \"#utility.yul\":2756:2831   */\ntag_65:\n    /* \"#utility.yul\":2789:2795   */\n  0x00\n    /* \"#utility.yul\":2822:2824   */\n  0x40\n    /* \"#utility.yul\":2816:2825   */\n  mload\n    /* \"#utility.yul\":2806:2825   */\n  swap1\n  pop\n    /* \"#utility.yul\":2756:2831   */\n  swap1\n  jump\t// out\n    /* \"#utility.yul\":2837:3145   */\ntag_28:\n    /* \"#utility.yul\":2899:2903   */\n  0x00\n    /* \"#utility.yul\":2989:3007   */\n  0xffffffffffffffff\n    /* \"#utility.yul\":2981:2987   */\n  dup3\n    /* \"#utility.yul\":2978:3008   */\n  gt\n    /* \"#utility.yul\":2975:3031   */\n  iszero\n  tag_70\n  jumpi\n    /* \"#utility.yul\":3011:3029   */\n  tag_71\n  tag_72\n  jump\t// in\ntag_71:\n    /* \"#utility.yul\":2975:3031   */\ntag_70:\n    /* \"#utility.yul\":3049:3078   */\n  tag_73\n    /* \"#utility.yul\":3071:3077   */\n  dup3\n    /* \"#utility.yul\":3049:3078   */\n  tag_74\n  jump\t// in\ntag_73:\n    /* \"#utility.yul\":3041:3078   */\n  swap1\n  pop\n    /* \"#utility.yul\":3133:3137   */\n  0x20\n    /* \"#utility.yul\":3127:3131   */\n  dup2\n    /* \"#utility.yul\":3123:3138   */\n  add\n    /* \"#utility.yul\":3115:3138   */\n  swap1\n  pop\n    /* \"#utility.yul\":2837:3145   */\n  swap2\n  swap1\n  pop\n  jump\t// out\n    /* \"#utility.yul\":3151:3241   */\ntag_75:\n    /* \"#utility.yul\":3185:3192   */\n  0x00\n    /* \"#utility.yul\":3228:3233   */\n  dup2\n    /* \"#utility.yul\":3221:3234   */\n  iszero\n    /* \"#utility.yul\":3214:3235   */\n  iszero\n    /* \"#utility.yul\":3203:3235   */\n  swap1\n  pop\n    /* \"#utility.yul\":3151:3241   */\n  swap2\n  swap1\n  pop\n  jump\t// out\n    /* \"#utility.yul\":3247:3554   */\ntag_34:\n    /* \"#utility.yul\":3315:3316   */\n  0x00\n    /* \"#utility.yul\":3325:3438   */\ntag_78:\n    /* \"#utility.yul\":3339:3345   */\n  dup4\n    /* \"#utility.yul\":3336:3337   */\n  dup2\n    /* \"#utility.yul\":3333:3346   */\n  lt\n    /* \"#utility.yul\":3325:3438   */\n  iszero\n  tag_80\n  jumpi\n    /* \"#utility.yul\":3424:3425   */\n  dup1\n    /* \"#utility.yul\":3419:3422   */\n  dup3\n    /* \"#utility.yul\":3415:3426   */\n  add\n    /* \"#utility.yul\":3409:3427   */\n  mload\n    /* \"#utility.yul\":3405:3406   */\n  dup2\n    /* \"#utility.yul\":3400:3403   */\n  dup5\n    /* \"#utility.yul\":3396:3407   */\n  add\n    /* \"#utility.yul\":3389:3428   */\n  mstore\n    /* \"#utility.yul\":3361:3363   */\n  0x20\n    /* \"#utility.yul\":3358:3359   */\n  dup2\n    /* \"#utility.yul\":3354:3364   */\n  add\n    /* \"#utility.yul\":3349:3364   */\n  swap1\n  pop\n    /* \"#utility.yul\":3325:3438   */\n  jump(tag_78)\ntag_80:\n    /* \"#utility.yul\":3456:3462   */\n  dup4\n    /* \"#utility.yul\":3453:3454   */\n  dup2\n    /* \"#utility.yul\":3450:3463   */\n  gt\n    /* \"#utility.yul\":3447:3548   */\n  iszero\n  tag_81\n  jumpi\n    /* \"#utility.yul\":3536:3537   */\n  0x00\n    /* \"#utility.yul\":3527:3533   */\n  dup5\n    /* \"#utility.yul\":3522:3525   */\n  dup5\n    /* \"#utility.yul\":3518:3534   */\n  add\n    /* \"#utility.yul\":3511:3538   */\n  mstore\n    /* \"#utility.yul\":3447:3548   */\ntag_81:\n    /* \"#utility.yul\":3296:3554   */\n  pop\n    /* \"#utility.yul\":3247:3554   */\n  pop\n  pop\n  pop\n  jump\t// out\n    /* \"#utility.yul\":3560:3880   */\ntag_13:\n    /* \"#utility.yul\":3604:3610   */\n  0x00\n    /* \"#utility.yul\":3641:3642   */\n  0x02\n    /* \"#utility.yul\":3635:3639   */\n  dup3\n    /* \"#utility.yul\":3631:3643   */\n  div\n    /* \"#utility.yul\":3621:3643   */\n  swap1\n  pop\n    /* \"#utility.yul\":3688:3689   */\n  0x01\n    /* \"#utility.yul\":3682:3686   */\n  dup3\n    /* \"#utility.yul\":3678:3690   */\n  and\n    /* \"#utility.yul\":3709:3727   */\n  dup1\n    /* \"#utility.yul\":3699:3780   */\n  tag_83\n  jumpi\n    /* \"#utility.yul\":3765:3769   */\n  0x7f\n    /* \"#utility.yul\":3757:3763   */\n  dup3\n    /* \"#utility.yul\":3753:3770   */\n  and\n    /* \"#utility.yul\":3743:3770   */\n  swap2\n  pop\n    /* \"#utility.yul\":3699:3780   */\ntag_83:\n    /* \"#utility.yul\":3827:3829   */\n  0x20\n    /* \"#utility.yul\":3819:3825   */\n  dup3\n    /* \"#utility.yul\":3816:3830   */\n  lt\n    /* \"#utility.yul\":3796:3814   */\n  dup2\n    /* \"#utility.yul\":3793:3831   */\n  eq\n    /* \"#utility.yul\":3790:3874   */\n  iszero\n  tag_84\n  jumpi\n    /* \"#utility.yul\":3846:3864   */\n  tag_85\n  tag_86\n  jump\t// in\ntag_85:\n    /* \"#utility.yul\":3790:3874   */\ntag_84:\n    /* \"#utility.yul\":3611:3880   */\n  pop\n    /* \"#utility.yul\":3560:3880   */\n  swap2\n  swap1\n  pop\n  jump\t// out\n    /* \"#utility.yul\":3886:4167   */\ntag_67:\n    /* \"#utility.yul\":3969:3996   */\n  tag_88\n    /* \"#utility.yul\":3991:3995   */\n  dup3\n    /* \"#utility.yul\":3969:3996   */\n  tag_74\n  jump\t// in\ntag_88:\n    /* \"#utility.yul\":3961:3967   */\n  dup2\n    /* \"#utility.yul\":3957:3997   */\n  add\n    /* \"#utility.yul\":4099:4105   */\n  dup2\n    /* \"#utility.yul\":4087:4097   */\n  dup2\n    /* \"#utility.yul\":4084:4106   */\n  lt\n    /* \"#utility.yul\":4063:4081   */\n  0xffffffffffffffff\n    /* \"#utility.yul\":4051:4061   */\n  dup3\n    /* \"#utility.yul\":4048:4082   */\n  gt\n    /* \"#utility.yul\":4045:4107   */\n  or\n    /* \"#utility.yul\":4042:4130   */\n  iszero\n  tag_89\n  jumpi\n    /* \"#utility.yul\":4110:4128   */\n  tag_90\n  tag_72\n  jump\t// in\ntag_90:\n    /* \"#utility.yul\":4042:4130   */\ntag_89:\n    /* \"#utility.yul\":4150:4160   */\n  dup1\n    /* \"#utility.yul\":4146:4148   */\n  0x40\n    /* \"#utility.yul\":4139:4161   */\n  mstore\n    /* \"#utility.yul\":3929:4167   */\n  pop\n    /* \"#utility.yul\":3886:4167   */\n  pop\n  pop\n  jump\t// out\n    /* \"#utility.yul\":4173:4353   */\ntag_86:\n    /* \"#utility.yul\":4221:4298   */\n  0x4e487b7100000000000000000000000000000000000000000000000000000000\n    /* \"#utility.yul\":4218:4219   */\n  0x00\n    /* \"#utility.yul\":4211:4299   */\n  mstore\n    /* \"#utility.yul\":4318:4322   */\n  0x22\n    /* \"#utility.yul\":4315:4316   */\n  0x04\n    /* \"#utility.yul\":4308:4323   */\n  mstore\n    /* \"#utility.yul\":4342:4346   */\n  0x24\n    /* \"#utility.yul\":4339:4340   */\n  0x00\n    /* \"#utility.yul\":4332:4347   */\n  revert\n    /* \"#utility.yul\":4359:4539   */\ntag_72:\n    /* \"#utility.yul\":4407:4484   */\n  0x4e487b7100000000000000000000000000000000000000000000000000000000\n    /* \"#utility.yul\":4404:4405   */\n  0x00\n    /* \"#utility.yul\":4397:4485   */\n  mstore\n    /* \"#utility.yul\":4504:4508   */\n  0x41\n    /* \"#utility.yul\":4501:4502   */\n  0x04\n    /* \"#utility.yul\":4494:4509   */\n  mstore\n    /* \"#utility.yul\":4528:4532   */\n  0x24\n    /* \"#utility.yul\":4525:4526   */\n  0x00\n    /* \"#utility.yul\":4518:4533   */\n  revert\n    /* \"#utility.yul\":4545:4662   */\ntag_43:\n    /* \"#utility.yul\":4654:4655   */\n  0x00\n    /* \"#utility.yul\":4651:4652   */\n  dup1\n    /* \"#utility.yul\":4644:4656   */\n  revert\n    /* \"#utility.yul\":4668:4785   */\ntag_32:\n    /* \"#utility.yul\":4777:4778   */\n  0x00\n    /* \"#utility.yul\":4774:4775   */\n  dup1\n    /* \"#utility.yul\":4767:4779   */\n  revert\n    /* \"#utility.yul\":4791:4908   */\ntag_51:\n    /* \"#utility.yul\":4900:4901   */\n  0x00\n    /* \"#utility.yul\":4897:4898   */\n  dup1\n    /* \"#utility.yul\":4890:4902   */\n  revert\n    /* \"#utility.yul\":4914:5031   */\ntag_48:\n    /* \"#utility.yul\":5023:5024   */\n  0x00\n    /* \"#utility.yul\":5020:5021   */\n  dup1\n    /* \"#utility.yul\":5013:5025   */\n  revert\n    /* \"#utility.yul\":5037:5139   */\ntag_74:\n    /* \"#utility.yul\":5078:5084   */\n  0x00\n    /* \"#utility.yul\":5129:5131   */\n  0x1f\n    /* \"#utility.yul\":5125:5132   */\n  not\n    /* \"#utility.yul\":5120:5122   */\n  0x1f\n    /* \"#utility.yul\":5113:5118   */\n  dup4\n    /* \"#utility.yul\":5109:5123   */\n  add\n    /* \"#utility.yul\":5105:5133   */\n  and\n    /* \"#utility.yul\":5095:5133   */\n  swap1\n  pop\n    /* \"#utility.yul\":5037:5139   */\n  swap2\n  swap1\n  pop\n  jump\t// out\n    /* \"#utility.yul\":5145:5261   */\ntag_38:\n    /* \"#utility.yul\":5215:5236   */\n  tag_99\n    /* \"#utility.yul\":5230:5235   */\n  dup2\n    /* \"#utility.yul\":5215:5236   */\n  tag_75\n  jump\t// in\ntag_99:\n    /* \"#utility.yul\":5208:5213   */\n  dup2\n    /* \"#utility.yul\":5205:5237   */\n  eq\n    /* \"#utility.yul\":5195:5255   */\n  tag_100\n  jumpi\n    /* \"#utility.yul\":5251:5252   */\n  0x00\n    /* \"#utility.yul\":5248:5249   */\n  dup1\n    /* \"#utility.yul\":5241:5253   */\n  revert\n    /* \"#utility.yul\":5195:5255   */\ntag_100:\n    /* \"#utility.yul\":5145:5261   */\n  pop\n  jump\t// out\n    /* \"contracts/Field.sol\":71:1893  contract Field{\r... */\ntag_11:\n  dataSize(sub_0)\n  dup1\n  dataOffset(sub_0)\n  0x00\n  codecopy\n  0x00\n  return\nstop\n\nsub_0: assembly {\n        /* \"contracts/Field.sol\":71:1893  contract Field{\r... */\n      mstore(0x40, 0x80)\n      callvalue\n      dup1\n      iszero\n      tag_1\n      jumpi\n      0x00\n      dup1\n      revert\n    tag_1:\n      pop\n      jumpi(tag_2, lt(calldatasize, 0x04))\n      shr(0xe0, calldataload(0x00))\n      dup1\n      0x72d7e3da\n      gt\n      tag_14\n      jumpi\n      dup1\n      0x72d7e3da\n      eq\n      tag_8\n      jumpi\n      dup1\n      0x7fd8454b\n      eq\n      tag_9\n      jumpi\n      dup1\n      0x91231eab\n      eq\n      tag_10\n      jumpi\n      dup1\n      0xacec338a\n      eq\n      tag_11\n      jumpi\n      dup1\n      0xae7b6bd9\n      eq\n      tag_12\n      jumpi\n      dup1\n      0xaf14363f\n      eq\n      tag_13\n      jumpi\n      jump(tag_2)\n    tag_14:\n      dup1\n      0x9ebb10\n      eq\n      tag_3\n      jumpi\n      dup1\n      0x2e25fa47\n      eq\n      tag_4\n      jumpi\n      dup1\n      0x55b72f38\n      eq\n      tag_5\n      jumpi\n      dup1\n      0x61937300\n      eq\n      tag_6\n      jumpi\n      dup1\n      0x6b2b1ab9\n      eq\n      tag_7\n      jumpi\n    tag_2:\n      0x00\n      dup1\n      revert\n        /* \"contracts/Field.sol\":1580:1660  function getActive() public view returns (bool) {\r... */\n    tag_3:\n      tag_15\n      tag_16\n      jump\t// in\n    tag_15:\n      mload(0x40)\n      tag_17\n      swap2\n      swap1\n      tag_18\n      jump\t// in\n    tag_17:\n      mload(0x40)\n      dup1\n      swap2\n      sub\n      swap1\n      return\n        /* \"contracts/Field.sol\":1670:1774  function setObservation(string memory _observation) public {\r... */\n    tag_4:\n      tag_19\n      0x04\n      dup1\n      calldatasize\n      sub\n      dup2\n      add\n      swap1\n      tag_20\n      swap2\n      swap1\n      tag_21\n      jump\t// in\n    tag_20:\n      tag_22\n      jump\t// in\n    tag_19:\n      stop\n        /* \"contracts/Field.sol\":1394:1489  function getLongitude() public view returns (string memory) {\r... */\n    tag_5:\n      tag_23\n      tag_24\n      jump\t// in\n    tag_23:\n      mload(0x40)\n      tag_25\n      swap2\n      swap1\n      tag_26\n      jump\t// in\n    tag_25:\n      mload(0x40)\n      dup1\n      swap2\n      sub\n      swap1\n      return\n        /* \"contracts/Field.sol\":558:830  function updateField(string memory _fieldDescription, string memory _latitude, string memory _longitude, bool _active) public {\r... */\n    tag_6:\n      tag_27\n      0x04\n      dup1\n      calldatasize\n      sub\n      dup2\n      add\n      swap1\n      tag_28\n      swap2\n      swap1\n      tag_29\n      jump\t// in\n    tag_28:\n      tag_30\n      jump\t// in\n    tag_27:\n      stop\n        /* \"contracts/Field.sol\":1782:1881  function getObservation() public view returns (string memory) {\r... */\n    tag_7:\n      tag_31\n      tag_32\n      jump\t// in\n    tag_31:\n      mload(0x40)\n      tag_33\n      swap2\n      swap1\n      tag_26\n      jump\t// in\n    tag_33:\n      mload(0x40)\n      dup1\n      swap2\n      sub\n      swap1\n      return\n        /* \"contracts/Field.sol\":970:1079  function getFieldDescription() public view returns (string memory) {\r... */\n    tag_8:\n      tag_34\n      tag_35\n      jump\t// in\n    tag_34:\n      mload(0x40)\n      tag_36\n      swap2\n      swap1\n      tag_26\n      jump\t// in\n    tag_36:\n      mload(0x40)\n      dup1\n      swap2\n      sub\n      swap1\n      return\n        /* \"contracts/Field.sol\":1087:1179  function setLatitude(string memory _latitude) public {\r... */\n    tag_9:\n      tag_37\n      0x04\n      dup1\n      calldatasize\n      sub\n      dup2\n      add\n      swap1\n      tag_38\n      swap2\n      swap1\n      tag_21\n      jump\t// in\n    tag_38:\n      tag_39\n      jump\t// in\n    tag_37:\n      stop\n        /* \"contracts/Field.sol\":838:962  function setFieldDescription(string memory _fieldDescription) public {\r... */\n    tag_10:\n      tag_40\n      0x04\n      dup1\n      calldatasize\n      sub\n      dup2\n      add\n      swap1\n      tag_41\n      swap2\n      swap1\n      tag_21\n      jump\t// in\n    tag_41:\n      tag_42\n      jump\t// in\n    tag_40:\n      stop\n        /* \"contracts/Field.sol\":1497:1572  function setActive(bool _active) public {\r... */\n    tag_11:\n      tag_43\n      0x04\n      dup1\n      calldatasize\n      sub\n      dup2\n      add\n      swap1\n      tag_44\n      swap2\n      swap1\n      tag_45\n      jump\t// in\n    tag_44:\n      tag_46\n      jump\t// in\n    tag_43:\n      stop\n        /* \"contracts/Field.sol\":1187:1280  function getLatitude() public view returns (string memory) {\r... */\n    tag_12:\n      tag_47\n      tag_48\n      jump\t// in\n    tag_47:\n      mload(0x40)\n      tag_49\n      swap2\n      swap1\n      tag_26\n      jump\t// in\n    tag_49:\n      mload(0x40)\n      dup1\n      swap2\n      sub\n      swap1\n      return\n        /* \"contracts/Field.sol\":1290:1386  function setLongitude(string memory _longitude) public {\r... */\n    tag_13:\n      tag_50\n      0x04\n      dup1\n      calldatasize\n      sub\n      dup2\n      add\n      swap1\n      tag_51\n      swap2\n      swap1\n      tag_21\n      jump\t// in\n    tag_51:\n      tag_52\n      jump\t// in\n    tag_50:\n      stop\n        /* \"contracts/Field.sol\":1580:1660  function getActive() public view returns (bool) {\r... */\n    tag_16:\n        /* \"contracts/Field.sol\":1622:1626  bool */\n      0x00\n        /* \"contracts/Field.sol\":1646:1652  active */\n      0x03\n      0x00\n      swap1\n      sload\n      swap1\n      0x0100\n      exp\n      swap1\n      div\n      0xff\n      and\n        /* \"contracts/Field.sol\":1639:1652  return active */\n      swap1\n      pop\n        /* \"contracts/Field.sol\":1580:1660  function getActive() public view returns (bool) {\r... */\n      swap1\n      jump\t// out\n        /* \"contracts/Field.sol\":1670:1774  function setObservation(string memory _observation) public {\r... */\n    tag_22:\n        /* \"contracts/Field.sol\":1754:1766  _observation */\n      dup1\n        /* \"contracts/Field.sol\":1740:1751  observation */\n      0x04\n        /* \"contracts/Field.sol\":1740:1766  observation = _observation */\n      swap1\n      dup1\n      mload\n      swap1\n      0x20\n      add\n      swap1\n      tag_55\n      swap3\n      swap2\n      swap1\n      tag_56\n      jump\t// in\n    tag_55:\n      pop\n        /* \"contracts/Field.sol\":1670:1774  function setObservation(string memory _observation) public {\r... */\n      pop\n      jump\t// out\n        /* \"contracts/Field.sol\":1394:1489  function getLongitude() public view returns (string memory) {\r... */\n    tag_24:\n        /* \"contracts/Field.sol\":1439:1452  string memory */\n      0x60\n        /* \"contracts/Field.sol\":1472:1481  longitude */\n      0x02\n        /* \"contracts/Field.sol\":1465:1481  return longitude */\n      dup1\n      sload\n      tag_58\n      swap1\n      tag_59\n      jump\t// in\n    tag_58:\n      dup1\n      0x1f\n      add\n      0x20\n      dup1\n      swap2\n      div\n      mul\n      0x20\n      add\n      mload(0x40)\n      swap1\n      dup2\n      add\n      0x40\n      mstore\n      dup1\n      swap3\n      swap2\n      swap1\n      dup2\n      dup2\n      mstore\n      0x20\n      add\n      dup3\n      dup1\n      sload\n      tag_60\n      swap1\n      tag_59\n      jump\t// in\n    tag_60:\n      dup1\n      iszero\n      tag_61\n      jumpi\n      dup1\n      0x1f\n      lt\n      tag_62\n      jumpi\n      0x0100\n      dup1\n      dup4\n      sload\n      div\n      mul\n      dup4\n      mstore\n      swap2\n      0x20\n      add\n      swap2\n      jump(tag_61)\n    tag_62:\n      dup3\n      add\n      swap2\n      swap1\n      0x00\n      mstore\n      keccak256(0x00, 0x20)\n      swap1\n    tag_63:\n      dup2\n      sload\n      dup2\n      mstore\n      swap1\n      0x01\n      add\n      swap1\n      0x20\n      add\n      dup1\n      dup4\n      gt\n      tag_63\n      jumpi\n      dup3\n      swap1\n      sub\n      0x1f\n      and\n      dup3\n      add\n      swap2\n    tag_61:\n      pop\n      pop\n      pop\n      pop\n      pop\n      swap1\n      pop\n        /* \"contracts/Field.sol\":1394:1489  function getLongitude() public view returns (string memory) {\r... */\n      swap1\n      jump\t// out\n        /* \"contracts/Field.sol\":558:830  function updateField(string memory _fieldDescription, string memory _latitude, string memory _longitude, bool _active) public {\r... */\n    tag_30:\n        /* \"contracts/Field.sol\":714:731  _fieldDescription */\n      dup4\n        /* \"contracts/Field.sol\":695:711  fieldDescription */\n      0x00\n        /* \"contracts/Field.sol\":695:731  fieldDescription = _fieldDescription */\n      swap1\n      dup1\n      mload\n      swap1\n      0x20\n      add\n      swap1\n      tag_65\n      swap3\n      swap2\n      swap1\n      tag_56\n      jump\t// in\n    tag_65:\n      pop\n        /* \"contracts/Field.sol\":753:762  _latitude */\n      dup3\n        /* \"contracts/Field.sol\":742:750  latitude */\n      0x01\n        /* \"contracts/Field.sol\":742:762  latitude = _latitude */\n      swap1\n      dup1\n      mload\n      swap1\n      0x20\n      add\n      swap1\n      tag_66\n      swap3\n      swap2\n      swap1\n      tag_56\n      jump\t// in\n    tag_66:\n      pop\n        /* \"contracts/Field.sol\":785:795  _longitude */\n      dup2\n        /* \"contracts/Field.sol\":773:782  longitude */\n      0x02\n        /* \"contracts/Field.sol\":773:795  longitude = _longitude */\n      swap1\n      dup1\n      mload\n      swap1\n      0x20\n      add\n      swap1\n      tag_67\n      swap3\n      swap2\n      swap1\n      tag_56\n      jump\t// in\n    tag_67:\n      pop\n        /* \"contracts/Field.sol\":815:822  _active */\n      dup1\n        /* \"contracts/Field.sol\":806:812  active */\n      0x03\n      0x00\n        /* \"contracts/Field.sol\":806:822  active = _active */\n      0x0100\n      exp\n      dup2\n      sload\n      dup2\n      0xff\n      mul\n      not\n      and\n      swap1\n      dup4\n      iszero\n      iszero\n      mul\n      or\n      swap1\n      sstore\n      pop\n        /* \"contracts/Field.sol\":558:830  function updateField(string memory _fieldDescription, string memory _latitude, string memory _longitude, bool _active) public {\r... */\n      pop\n      pop\n      pop\n      pop\n      jump\t// out\n        /* \"contracts/Field.sol\":1782:1881  function getObservation() public view returns (string memory) {\r... */\n    tag_32:\n        /* \"contracts/Field.sol\":1829:1842  string memory */\n      0x60\n        /* \"contracts/Field.sol\":1862:1873  observation */\n      0x04\n        /* \"contracts/Field.sol\":1855:1873  return observation */\n      dup1\n      sload\n      tag_69\n      swap1\n      tag_59\n      jump\t// in\n    tag_69:\n      dup1\n      0x1f\n      add\n      0x20\n      dup1\n      swap2\n      div\n      mul\n      0x20\n      add\n      mload(0x40)\n      swap1\n      dup2\n      add\n      0x40\n      mstore\n      dup1\n      swap3\n      swap2\n      swap1\n      dup2\n      dup2\n      mstore\n      0x20\n      add\n      dup3\n      dup1\n      sload\n      tag_70\n      swap1\n      tag_59\n      jump\t// in\n    tag_70:\n      dup1\n      iszero\n      tag_71\n      jumpi\n      dup1\n      0x1f\n      lt\n      tag_72\n      jumpi\n      0x0100\n      dup1\n      dup4\n      sload\n      div\n      mul\n      dup4\n      mstore\n      swap2\n      0x20\n      add\n      swap2\n      jump(tag_71)\n    tag_72:\n      dup3\n      add\n      swap2\n      swap1\n      0x00\n      mstore\n      keccak256(0x00, 0x20)\n      swap1\n    tag_73:\n      dup2\n      sload\n      dup2\n      mstore\n      swap1\n      0x01\n      add\n      swap1\n      0x20\n      add\n      dup1\n      dup4\n      gt\n      tag_73\n      jumpi\n      dup3\n      swap1\n      sub\n      0x1f\n      and\n      dup3\n      add\n      swap2\n    tag_71:\n      pop\n      pop\n      pop\n      pop\n      pop\n      swap1\n      pop\n        /* \"contracts/Field.sol\":1782:1881  function getObservation() public view returns (string memory) {\r... */\n      swap1\n      jump\t// out\n        /* \"contracts/Field.sol\":970:1079  function getFieldDescription() public view returns (string memory) {\r... */\n    tag_35:\n        /* \"contracts/Field.sol\":1022:1035  string memory */\n      0x60\n        /* \"contracts/Field.sol\":1055:1071  fieldDescription */\n      0x00\n        /* \"contracts/Field.sol\":1048:1071  return fieldDescription */\n      dup1\n      sload\n      tag_75\n      swap1\n      tag_59\n      jump\t// in\n    tag_75:\n      dup1\n      0x1f\n      add\n      0x20\n      dup1\n      swap2\n      div\n      mul\n      0x20\n      add\n      mload(0x40)\n      swap1\n      dup2\n      add\n      0x40\n      mstore\n      dup1\n      swap3\n      swap2\n      swap1\n      dup2\n      dup2\n      mstore\n      0x20\n      add\n      dup3\n      dup1\n      sload\n      tag_76\n      swap1\n      tag_59\n      jump\t// in\n    tag_76:\n      dup1\n      iszero\n      tag_77\n      jumpi\n      dup1\n      0x1f\n      lt\n      tag_78\n      jumpi\n      0x0100\n      dup1\n      dup4\n      sload\n      div\n      mul\n      dup4\n      mstore\n      swap2\n      0x20\n      add\n      swap2\n      jump(tag_77)\n    tag_78:\n      dup3\n      add\n      swap2\n      swap1\n      0x00\n      mstore\n      keccak256(0x00, 0x20)\n      swap1\n    tag_79:\n      dup2\n      sload\n      dup2\n      mstore\n      swap1\n      0x01\n      add\n      swap1\n      0x20\n      add\n      dup1\n      dup4\n      gt\n      tag_79\n      jumpi\n      dup3\n      swap1\n      sub\n      0x1f\n      and\n      dup3\n      add\n      swap2\n    tag_77:\n      pop\n      pop\n      pop\n      pop\n      pop\n      swap1\n      pop\n        /* \"contracts/Field.sol\":970:1079  function getFieldDescription() public view returns (string memory) {\r... */\n      swap1\n      jump\t// out\n        /* \"contracts/Field.sol\":1087:1179  function setLatitude(string memory _latitude) public {\r... */\n    tag_39:\n        /* \"contracts/Field.sol\":1162:1171  _latitude */\n      dup1\n        /* \"contracts/Field.sol\":1151:1159  latitude */\n      0x01\n        /* \"contracts/Field.sol\":1151:1171  latitude = _latitude */\n      swap1\n      dup1\n      mload\n      swap1\n      0x20\n      add\n      swap1\n      tag_81\n      swap3\n      swap2\n      swap1\n      tag_56\n      jump\t// in\n    tag_81:\n      pop\n        /* \"contracts/Field.sol\":1087:1179  function setLatitude(string memory _latitude) public {\r... */\n      pop\n      jump\t// out\n        /* \"contracts/Field.sol\":838:962  function setFieldDescription(string memory _fieldDescription) public {\r... */\n    tag_42:\n        /* \"contracts/Field.sol\":937:954  _fieldDescription */\n      dup1\n        /* \"contracts/Field.sol\":918:934  fieldDescription */\n      0x00\n        /* \"contracts/Field.sol\":918:954  fieldDescription = _fieldDescription */\n      swap1\n      dup1\n      mload\n      swap1\n      0x20\n      add\n      swap1\n      tag_83\n      swap3\n      swap2\n      swap1\n      tag_56\n      jump\t// in\n    tag_83:\n      pop\n        /* \"contracts/Field.sol\":838:962  function setFieldDescription(string memory _fieldDescription) public {\r... */\n      pop\n      jump\t// out\n        /* \"contracts/Field.sol\":1497:1572  function setActive(bool _active) public {\r... */\n    tag_46:\n        /* \"contracts/Field.sol\":1557:1564  _active */\n      dup1\n        /* \"contracts/Field.sol\":1548:1554  active */\n      0x03\n      0x00\n        /* \"contracts/Field.sol\":1548:1564  active = _active */\n      0x0100\n      exp\n      dup2\n      sload\n      dup2\n      0xff\n      mul\n      not\n      and\n      swap1\n      dup4\n      iszero\n      iszero\n      mul\n      or\n      swap1\n      sstore\n      pop\n        /* \"contracts/Field.sol\":1497:1572  function setActive(bool _active) public {\r... */\n      pop\n      jump\t// out\n        /* \"contracts/Field.sol\":1187:1280  function getLatitude() public view returns (string memory) {\r... */\n    tag_48:\n        /* \"contracts/Field.sol\":1231:1244  string memory */\n      0x60\n        /* \"contracts/Field.sol\":1264:1272  latitude */\n      0x01\n        /* \"contracts/Field.sol\":1257:1272  return latitude */\n      dup1\n      sload\n      tag_86\n      swap1\n      tag_59\n      jump\t// in\n    tag_86:\n      dup1\n      0x1f\n      add\n      0x20\n      dup1\n      swap2\n      div\n      mul\n      0x20\n      add\n      mload(0x40)\n      swap1\n      dup2\n      add\n      0x40\n      mstore\n      dup1\n      swap3\n      swap2\n      swap1\n      dup2\n      dup2\n      mstore\n      0x20\n      add\n      dup3\n      dup1\n      sload\n      tag_87\n      swap1\n      tag_59\n      jump\t// in\n    tag_87:\n      dup1\n      iszero\n      tag_88\n      jumpi\n      dup1\n      0x1f\n      lt\n      tag_89\n      jumpi\n      0x0100\n      dup1\n      dup4\n      sload\n      div\n      mul\n      dup4\n      mstore\n      swap2\n      0x20\n      add\n      swap2\n      jump(tag_88)\n    tag_89:\n      dup3\n      add\n      swap2\n      swap1\n      0x00\n      mstore\n      keccak256(0x00, 0x20)\n      swap1\n    tag_90:\n      dup2\n      sload\n      dup2\n      mstore\n      swap1\n      0x01\n      add\n      swap1\n      0x20\n      add\n      dup1\n      dup4\n      gt\n      tag_90\n      jumpi\n      dup3\n      swap1\n      sub\n      0x1f\n      and\n      dup3\n      add\n      swap2\n    tag_88:\n      pop\n      pop\n      pop\n      pop\n      pop\n      swap1\n      pop\n        /* \"contracts/Field.sol\":1187:1280  function getLatitude() public view returns (string memory) {\r... */\n      swap1\n      jump\t// out\n        /* \"contracts/Field.sol\":1290:1386  function setLongitude(string memory _longitude) public {\r... */\n    tag_52:\n        /* \"contracts/Field.sol\":1368:1378  _longitude */\n      dup1\n        /* \"contracts/Field.sol\":1356:1365  longitude */\n      0x02\n        /* \"contracts/Field.sol\":1356:1378  longitude = _longitude */\n      swap1\n      dup1\n      mload\n      swap1\n      0x20\n      add\n      swap1\n      tag_92\n      swap3\n      swap2\n      swap1\n      tag_56\n      jump\t// in\n    tag_92:\n      pop\n        /* \"contracts/Field.sol\":1290:1386  function setLongitude(string memory _longitude) public {\r... */\n      pop\n      jump\t// out\n    tag_56:\n      dup3\n      dup1\n      sload\n      tag_93\n      swap1\n      tag_59\n      jump\t// in\n    tag_93:\n      swap1\n      0x00\n      mstore\n      keccak256(0x00, 0x20)\n      swap1\n      0x1f\n      add\n      0x20\n      swap1\n      div\n      dup2\n      add\n      swap3\n      dup3\n      tag_95\n      jumpi\n      0x00\n      dup6\n      sstore\n      jump(tag_94)\n    tag_95:\n      dup3\n      0x1f\n      lt\n      tag_96\n      jumpi\n      dup1\n      mload\n      not(0xff)\n      and\n      dup4\n      dup1\n      add\n      or\n      dup6\n      sstore\n      jump(tag_94)\n    tag_96:\n      dup3\n      dup1\n      add\n      0x01\n      add\n      dup6\n      sstore\n      dup3\n      iszero\n      tag_94\n      jumpi\n      swap2\n      dup3\n      add\n    tag_97:\n      dup3\n      dup2\n      gt\n      iszero\n      tag_98\n      jumpi\n      dup3\n      mload\n      dup3\n      sstore\n      swap2\n      0x20\n      add\n      swap2\n      swap1\n      0x01\n      add\n      swap1\n      jump(tag_97)\n    tag_98:\n    tag_94:\n      pop\n      swap1\n      pop\n      tag_99\n      swap2\n      swap1\n      tag_100\n      jump\t// in\n    tag_99:\n      pop\n      swap1\n      jump\t// out\n    tag_100:\n    tag_101:\n      dup1\n      dup3\n      gt\n      iszero\n      tag_102\n      jumpi\n      0x00\n      dup2\n      0x00\n      swap1\n      sstore\n      pop\n      0x01\n      add\n      jump(tag_101)\n    tag_102:\n      pop\n      swap1\n      jump\t// out\n        /* \"#utility.yul\":7:419   */\n    tag_104:\n        /* \"#utility.yul\":85:90   */\n      0x00\n        /* \"#utility.yul\":110:176   */\n      tag_106\n        /* \"#utility.yul\":126:175   */\n      tag_107\n        /* \"#utility.yul\":168:174   */\n      dup5\n        /* \"#utility.yul\":126:175   */\n      tag_108\n      jump\t// in\n    tag_107:\n        /* \"#utility.yul\":110:176   */\n      tag_109\n      jump\t// in\n    tag_106:\n        /* \"#utility.yul\":101:176   */\n      swap1\n      pop\n        /* \"#utility.yul\":199:205   */\n      dup3\n        /* \"#utility.yul\":192:197   */\n      dup2\n        /* \"#utility.yul\":185:206   */\n      mstore\n        /* \"#utility.yul\":237:241   */\n      0x20\n        /* \"#utility.yul\":230:235   */\n      dup2\n        /* \"#utility.yul\":226:242   */\n      add\n        /* \"#utility.yul\":275:278   */\n      dup5\n        /* \"#utility.yul\":266:272   */\n      dup5\n        /* \"#utility.yul\":261:264   */\n      dup5\n        /* \"#utility.yul\":257:273   */\n      add\n        /* \"#utility.yul\":254:279   */\n      gt\n        /* \"#utility.yul\":251:363   */\n      iszero\n      tag_110\n      jumpi\n        /* \"#utility.yul\":282:361   */\n      tag_111\n      tag_112\n      jump\t// in\n    tag_111:\n        /* \"#utility.yul\":251:363   */\n    tag_110:\n        /* \"#utility.yul\":372:413   */\n      tag_113\n        /* \"#utility.yul\":406:412   */\n      dup5\n        /* \"#utility.yul\":401:404   */\n      dup3\n        /* \"#utility.yul\":396:399   */\n      dup6\n        /* \"#utility.yul\":372:413   */\n      tag_114\n      jump\t// in\n    tag_113:\n        /* \"#utility.yul\":91:419   */\n      pop\n        /* \"#utility.yul\":7:419   */\n      swap4\n      swap3\n      pop\n      pop\n      pop\n      jump\t// out\n        /* \"#utility.yul\":425:558   */\n    tag_115:\n        /* \"#utility.yul\":468:473   */\n      0x00\n        /* \"#utility.yul\":506:512   */\n      dup2\n        /* \"#utility.yul\":493:513   */\n      calldataload\n        /* \"#utility.yul\":484:513   */\n      swap1\n      pop\n        /* \"#utility.yul\":522:552   */\n      tag_117\n        /* \"#utility.yul\":546:551   */\n      dup2\n        /* \"#utility.yul\":522:552   */\n      tag_118\n      jump\t// in\n    tag_117:\n        /* \"#utility.yul\":425:558   */\n      swap3\n      swap2\n      pop\n      pop\n      jump\t// out\n        /* \"#utility.yul\":578:918   */\n    tag_119:\n        /* \"#utility.yul\":634:639   */\n      0x00\n        /* \"#utility.yul\":683:686   */\n      dup3\n        /* \"#utility.yul\":676:680   */\n      0x1f\n        /* \"#utility.yul\":668:674   */\n      dup4\n        /* \"#utility.yul\":664:681   */\n      add\n        /* \"#utility.yul\":660:687   */\n      slt\n        /* \"#utility.yul\":650:772   */\n      tag_121\n      jumpi\n        /* \"#utility.yul\":691:770   */\n      tag_122\n      tag_123\n      jump\t// in\n    tag_122:\n        /* \"#utility.yul\":650:772   */\n    tag_121:\n        /* \"#utility.yul\":808:814   */\n      dup2\n        /* \"#utility.yul\":795:815   */\n      calldataload\n        /* \"#utility.yul\":833:912   */\n      tag_124\n        /* \"#utility.yul\":908:911   */\n      dup5\n        /* \"#utility.yul\":900:906   */\n      dup3\n        /* \"#utility.yul\":893:897   */\n      0x20\n        /* \"#utility.yul\":885:891   */\n      dup7\n        /* \"#utility.yul\":881:898   */\n      add\n        /* \"#utility.yul\":833:912   */\n      tag_104\n      jump\t// in\n    tag_124:\n        /* \"#utility.yul\":824:912   */\n      swap2\n      pop\n        /* \"#utility.yul\":640:918   */\n      pop\n        /* \"#utility.yul\":578:918   */\n      swap3\n      swap2\n      pop\n      pop\n      jump\t// out\n        /* \"#utility.yul\":924:1247   */\n    tag_45:\n        /* \"#utility.yul\":980:986   */\n      0x00\n        /* \"#utility.yul\":1029:1031   */\n      0x20\n        /* \"#utility.yul\":1017:1026   */\n      dup3\n        /* \"#utility.yul\":1008:1015   */\n      dup5\n        /* \"#utility.yul\":1004:1027   */\n      sub\n        /* \"#utility.yul\":1000:1032   */\n      slt\n        /* \"#utility.yul\":997:1116   */\n      iszero\n      tag_126\n      jumpi\n        /* \"#utility.yul\":1035:1114   */\n      tag_127\n      tag_128\n      jump\t// in\n    tag_127:\n        /* \"#utility.yul\":997:1116   */\n    tag_126:\n        /* \"#utility.yul\":1155:1156   */\n      0x00\n        /* \"#utility.yul\":1180:1230   */\n      tag_129\n        /* \"#utility.yul\":1222:1229   */\n      dup5\n        /* \"#utility.yul\":1213:1219   */\n      dup3\n        /* \"#utility.yul\":1202:1211   */\n      dup6\n        /* \"#utility.yul\":1198:1220   */\n      add\n        /* \"#utility.yul\":1180:1230   */\n      tag_115\n      jump\t// in\n    tag_129:\n        /* \"#utility.yul\":1170:1230   */\n      swap2\n      pop\n        /* \"#utility.yul\":1126:1240   */\n      pop\n        /* \"#utility.yul\":924:1247   */\n      swap3\n      swap2\n      pop\n      pop\n      jump\t// out\n        /* \"#utility.yul\":1253:1762   */\n    tag_21:\n        /* \"#utility.yul\":1322:1328   */\n      0x00\n        /* \"#utility.yul\":1371:1373   */\n      0x20\n        /* \"#utility.yul\":1359:1368   */\n      dup3\n        /* \"#utility.yul\":1350:1357   */\n      dup5\n        /* \"#utility.yul\":1346:1369   */\n      sub\n        /* \"#utility.yul\":1342:1374   */\n      slt\n        /* \"#utility.yul\":1339:1458   */\n      iszero\n      tag_131\n      jumpi\n        /* \"#utility.yul\":1377:1456   */\n      tag_132\n      tag_128\n      jump\t// in\n    tag_132:\n        /* \"#utility.yul\":1339:1458   */\n    tag_131:\n        /* \"#utility.yul\":1525:1526   */\n      0x00\n        /* \"#utility.yul\":1514:1523   */\n      dup3\n        /* \"#utility.yul\":1510:1527   */\n      add\n        /* \"#utility.yul\":1497:1528   */\n      calldataload\n        /* \"#utility.yul\":1555:1573   */\n      0xffffffffffffffff\n        /* \"#utility.yul\":1547:1553   */\n      dup2\n        /* \"#utility.yul\":1544:1574   */\n      gt\n        /* \"#utility.yul\":1541:1658   */\n      iszero\n      tag_133\n      jumpi\n        /* \"#utility.yul\":1577:1656   */\n      tag_134\n      tag_135\n      jump\t// in\n    tag_134:\n        /* \"#utility.yul\":1541:1658   */\n    tag_133:\n        /* \"#utility.yul\":1682:1745   */\n      tag_136\n        /* \"#utility.yul\":1737:1744   */\n      dup5\n        /* \"#utility.yul\":1728:1734   */\n      dup3\n        /* \"#utility.yul\":1717:1726   */\n      dup6\n        /* \"#utility.yul\":1713:1735   */\n      add\n        /* \"#utility.yul\":1682:1745   */\n      tag_119\n      jump\t// in\n    tag_136:\n        /* \"#utility.yul\":1672:1745   */\n      swap2\n      pop\n        /* \"#utility.yul\":1468:1755   */\n      pop\n        /* \"#utility.yul\":1253:1762   */\n      swap3\n      swap2\n      pop\n      pop\n      jump\t// out\n        /* \"#utility.yul\":1768:3067   */\n    tag_29:\n        /* \"#utility.yul\":1881:1887   */\n      0x00\n        /* \"#utility.yul\":1889:1895   */\n      dup1\n        /* \"#utility.yul\":1897:1903   */\n      0x00\n        /* \"#utility.yul\":1905:1911   */\n      dup1\n        /* \"#utility.yul\":1954:1957   */\n      0x80\n        /* \"#utility.yul\":1942:1951   */\n      dup6\n        /* \"#utility.yul\":1933:1940   */\n      dup8\n        /* \"#utility.yul\":1929:1952   */\n      sub\n        /* \"#utility.yul\":1925:1958   */\n      slt\n        /* \"#utility.yul\":1922:2042   */\n      iszero\n      tag_138\n      jumpi\n        /* \"#utility.yul\":1961:2040   */\n      tag_139\n      tag_128\n      jump\t// in\n    tag_139:\n        /* \"#utility.yul\":1922:2042   */\n    tag_138:\n        /* \"#utility.yul\":2109:2110   */\n      0x00\n        /* \"#utility.yul\":2098:2107   */\n      dup6\n        /* \"#utility.yul\":2094:2111   */\n      add\n        /* \"#utility.yul\":2081:2112   */\n      calldataload\n        /* \"#utility.yul\":2139:2157   */\n      0xffffffffffffffff\n        /* \"#utility.yul\":2131:2137   */\n      dup2\n        /* \"#utility.yul\":2128:2158   */\n      gt\n        /* \"#utility.yul\":2125:2242   */\n      iszero\n      tag_140\n      jumpi\n        /* \"#utility.yul\":2161:2240   */\n      tag_141\n      tag_135\n      jump\t// in\n    tag_141:\n        /* \"#utility.yul\":2125:2242   */\n    tag_140:\n        /* \"#utility.yul\":2266:2329   */\n      tag_142\n        /* \"#utility.yul\":2321:2328   */\n      dup8\n        /* \"#utility.yul\":2312:2318   */\n      dup3\n        /* \"#utility.yul\":2301:2310   */\n      dup9\n        /* \"#utility.yul\":2297:2319   */\n      add\n        /* \"#utility.yul\":2266:2329   */\n      tag_119\n      jump\t// in\n    tag_142:\n        /* \"#utility.yul\":2256:2329   */\n      swap5\n      pop\n        /* \"#utility.yul\":2052:2339   */\n      pop\n        /* \"#utility.yul\":2406:2408   */\n      0x20\n        /* \"#utility.yul\":2395:2404   */\n      dup6\n        /* \"#utility.yul\":2391:2409   */\n      add\n        /* \"#utility.yul\":2378:2410   */\n      calldataload\n        /* \"#utility.yul\":2437:2455   */\n      0xffffffffffffffff\n        /* \"#utility.yul\":2429:2435   */\n      dup2\n        /* \"#utility.yul\":2426:2456   */\n      gt\n        /* \"#utility.yul\":2423:2540   */\n      iszero\n      tag_143\n      jumpi\n        /* \"#utility.yul\":2459:2538   */\n      tag_144\n      tag_135\n      jump\t// in\n    tag_144:\n        /* \"#utility.yul\":2423:2540   */\n    tag_143:\n        /* \"#utility.yul\":2564:2627   */\n      tag_145\n        /* \"#utility.yul\":2619:2626   */\n      dup8\n        /* \"#utility.yul\":2610:2616   */\n      dup3\n        /* \"#utility.yul\":2599:2608   */\n      dup9\n        /* \"#utility.yul\":2595:2617   */\n      add\n        /* \"#utility.yul\":2564:2627   */\n      tag_119\n      jump\t// in\n    tag_145:\n        /* \"#utility.yul\":2554:2627   */\n      swap4\n      pop\n        /* \"#utility.yul\":2349:2637   */\n      pop\n        /* \"#utility.yul\":2704:2706   */\n      0x40\n        /* \"#utility.yul\":2693:2702   */\n      dup6\n        /* \"#utility.yul\":2689:2707   */\n      add\n        /* \"#utility.yul\":2676:2708   */\n      calldataload\n        /* \"#utility.yul\":2735:2753   */\n      0xffffffffffffffff\n        /* \"#utility.yul\":2727:2733   */\n      dup2\n        /* \"#utility.yul\":2724:2754   */\n      gt\n        /* \"#utility.yul\":2721:2838   */\n      iszero\n      tag_146\n      jumpi\n        /* \"#utility.yul\":2757:2836   */\n      tag_147\n      tag_135\n      jump\t// in\n    tag_147:\n        /* \"#utility.yul\":2721:2838   */\n    tag_146:\n        /* \"#utility.yul\":2862:2925   */\n      tag_148\n        /* \"#utility.yul\":2917:2924   */\n      dup8\n        /* \"#utility.yul\":2908:2914   */\n      dup3\n        /* \"#utility.yul\":2897:2906   */\n      dup9\n        /* \"#utility.yul\":2893:2915   */\n      add\n        /* \"#utility.yul\":2862:2925   */\n      tag_119\n      jump\t// in\n    tag_148:\n        /* \"#utility.yul\":2852:2925   */\n      swap3\n      pop\n        /* \"#utility.yul\":2647:2935   */\n      pop\n        /* \"#utility.yul\":2974:2976   */\n      0x60\n        /* \"#utility.yul\":3000:3050   */\n      tag_149\n        /* \"#utility.yul\":3042:3049   */\n      dup8\n        /* \"#utility.yul\":3033:3039   */\n      dup3\n        /* \"#utility.yul\":3022:3031   */\n      dup9\n        /* \"#utility.yul\":3018:3040   */\n      add\n        /* \"#utility.yul\":3000:3050   */\n      tag_115\n      jump\t// in\n    tag_149:\n        /* \"#utility.yul\":2990:3050   */\n      swap2\n      pop\n        /* \"#utility.yul\":2945:3060   */\n      pop\n        /* \"#utility.yul\":1768:3067   */\n      swap3\n      swap6\n      swap2\n      swap5\n      pop\n      swap3\n      pop\n      jump\t// out\n        /* \"#utility.yul\":3073:3182   */\n    tag_150:\n        /* \"#utility.yul\":3154:3175   */\n      tag_152\n        /* \"#utility.yul\":3169:3174   */\n      dup2\n        /* \"#utility.yul\":3154:3175   */\n      tag_153\n      jump\t// in\n    tag_152:\n        /* \"#utility.yul\":3149:3152   */\n      dup3\n        /* \"#utility.yul\":3142:3176   */\n      mstore\n        /* \"#utility.yul\":3073:3182   */\n      pop\n      pop\n      jump\t// out\n        /* \"#utility.yul\":3188:3552   */\n    tag_154:\n        /* \"#utility.yul\":3276:3279   */\n      0x00\n        /* \"#utility.yul\":3304:3343   */\n      tag_156\n        /* \"#utility.yul\":3337:3342   */\n      dup3\n        /* \"#utility.yul\":3304:3343   */\n      tag_157\n      jump\t// in\n    tag_156:\n        /* \"#utility.yul\":3359:3430   */\n      tag_158\n        /* \"#utility.yul\":3423:3429   */\n      dup2\n        /* \"#utility.yul\":3418:3421   */\n      dup6\n        /* \"#utility.yul\":3359:3430   */\n      tag_159\n      jump\t// in\n    tag_158:\n        /* \"#utility.yul\":3352:3430   */\n      swap4\n      pop\n        /* \"#utility.yul\":3439:3491   */\n      tag_160\n        /* \"#utility.yul\":3484:3490   */\n      dup2\n        /* \"#utility.yul\":3479:3482   */\n      dup6\n        /* \"#utility.yul\":3472:3476   */\n      0x20\n        /* \"#utility.yul\":3465:3470   */\n      dup7\n        /* \"#utility.yul\":3461:3477   */\n      add\n        /* \"#utility.yul\":3439:3491   */\n      tag_161\n      jump\t// in\n    tag_160:\n        /* \"#utility.yul\":3516:3545   */\n      tag_162\n        /* \"#utility.yul\":3538:3544   */\n      dup2\n        /* \"#utility.yul\":3516:3545   */\n      tag_163\n      jump\t// in\n    tag_162:\n        /* \"#utility.yul\":3511:3514   */\n      dup5\n        /* \"#utility.yul\":3507:3546   */\n      add\n        /* \"#utility.yul\":3500:3546   */\n      swap2\n      pop\n        /* \"#utility.yul\":3280:3552   */\n      pop\n        /* \"#utility.yul\":3188:3552   */\n      swap3\n      swap2\n      pop\n      pop\n      jump\t// out\n        /* \"#utility.yul\":3558:3768   */\n    tag_18:\n        /* \"#utility.yul\":3645:3649   */\n      0x00\n        /* \"#utility.yul\":3683:3685   */\n      0x20\n        /* \"#utility.yul\":3672:3681   */\n      dup3\n        /* \"#utility.yul\":3668:3686   */\n      add\n        /* \"#utility.yul\":3660:3686   */\n      swap1\n      pop\n        /* \"#utility.yul\":3696:3761   */\n      tag_165\n        /* \"#utility.yul\":3758:3759   */\n      0x00\n        /* \"#utility.yul\":3747:3756   */\n      dup4\n        /* \"#utility.yul\":3743:3760   */\n      add\n        /* \"#utility.yul\":3734:3740   */\n      dup5\n        /* \"#utility.yul\":3696:3761   */\n      tag_150\n      jump\t// in\n    tag_165:\n        /* \"#utility.yul\":3558:3768   */\n      swap3\n      swap2\n      pop\n      pop\n      jump\t// out\n        /* \"#utility.yul\":3774:4087   */\n    tag_26:\n        /* \"#utility.yul\":3887:3891   */\n      0x00\n        /* \"#utility.yul\":3925:3927   */\n      0x20\n        /* \"#utility.yul\":3914:3923   */\n      dup3\n        /* \"#utility.yul\":3910:3928   */\n      add\n        /* \"#utility.yul\":3902:3928   */\n      swap1\n      pop\n        /* \"#utility.yul\":3974:3983   */\n      dup2\n        /* \"#utility.yul\":3968:3972   */\n      dup2\n        /* \"#utility.yul\":3964:3984   */\n      sub\n        /* \"#utility.yul\":3960:3961   */\n      0x00\n        /* \"#utility.yul\":3949:3958   */\n      dup4\n        /* \"#utility.yul\":3945:3962   */\n      add\n        /* \"#utility.yul\":3938:3985   */\n      mstore\n        /* \"#utility.yul\":4002:4080   */\n      tag_167\n        /* \"#utility.yul\":4075:4079   */\n      dup2\n        /* \"#utility.yul\":4066:4072   */\n      dup5\n        /* \"#utility.yul\":4002:4080   */\n      tag_154\n      jump\t// in\n    tag_167:\n        /* \"#utility.yul\":3994:4080   */\n      swap1\n      pop\n        /* \"#utility.yul\":3774:4087   */\n      swap3\n      swap2\n      pop\n      pop\n      jump\t// out\n        /* \"#utility.yul\":4093:4222   */\n    tag_109:\n        /* \"#utility.yul\":4127:4133   */\n      0x00\n        /* \"#utility.yul\":4154:4174   */\n      tag_169\n      tag_170\n      jump\t// in\n    tag_169:\n        /* \"#utility.yul\":4144:4174   */\n      swap1\n      pop\n        /* \"#utility.yul\":4183:4216   */\n      tag_171\n        /* \"#utility.yul\":4211:4215   */\n      dup3\n        /* \"#utility.yul\":4203:4209   */\n      dup3\n        /* \"#utility.yul\":4183:4216   */\n      tag_172\n      jump\t// in\n    tag_171:\n        /* \"#utility.yul\":4093:4222   */\n      swap2\n      swap1\n      pop\n      jump\t// out\n        /* \"#utility.yul\":4228:4303   */\n    tag_170:\n        /* \"#utility.yul\":4261:4267   */\n      0x00\n        /* \"#utility.yul\":4294:4296   */\n      0x40\n        /* \"#utility.yul\":4288:4297   */\n      mload\n        /* \"#utility.yul\":4278:4297   */\n      swap1\n      pop\n        /* \"#utility.yul\":4228:4303   */\n      swap1\n      jump\t// out\n        /* \"#utility.yul\":4309:4617   */\n    tag_108:\n        /* \"#utility.yul\":4371:4375   */\n      0x00\n        /* \"#utility.yul\":4461:4479   */\n      0xffffffffffffffff\n        /* \"#utility.yul\":4453:4459   */\n      dup3\n        /* \"#utility.yul\":4450:4480   */\n      gt\n        /* \"#utility.yul\":4447:4503   */\n      iszero\n      tag_175\n      jumpi\n        /* \"#utility.yul\":4483:4501   */\n      tag_176\n      tag_177\n      jump\t// in\n    tag_176:\n        /* \"#utility.yul\":4447:4503   */\n    tag_175:\n        /* \"#utility.yul\":4521:4550   */\n      tag_178\n        /* \"#utility.yul\":4543:4549   */\n      dup3\n        /* \"#utility.yul\":4521:4550   */\n      tag_163\n      jump\t// in\n    tag_178:\n        /* \"#utility.yul\":4513:4550   */\n      swap1\n      pop\n        /* \"#utility.yul\":4605:4609   */\n      0x20\n        /* \"#utility.yul\":4599:4603   */\n      dup2\n        /* \"#utility.yul\":4595:4610   */\n      add\n        /* \"#utility.yul\":4587:4610   */\n      swap1\n      pop\n        /* \"#utility.yul\":4309:4617   */\n      swap2\n      swap1\n      pop\n      jump\t// out\n        /* \"#utility.yul\":4623:4722   */\n    tag_157:\n        /* \"#utility.yul\":4675:4681   */\n      0x00\n        /* \"#utility.yul\":4709:4714   */\n      dup2\n        /* \"#utility.yul\":4703:4715   */\n      mload\n        /* \"#utility.yul\":4693:4715   */\n      swap1\n      pop\n        /* \"#utility.yul\":4623:4722   */\n      swap2\n      swap1\n      pop\n      jump\t// out\n        /* \"#utility.yul\":4728:4897   */\n    tag_159:\n        /* \"#utility.yul\":4812:4823   */\n      0x00\n        /* \"#utility.yul\":4846:4852   */\n      dup3\n        /* \"#utility.yul\":4841:4844   */\n      dup3\n        /* \"#utility.yul\":4834:4853   */\n      mstore\n        /* \"#utility.yul\":4886:4890   */\n      0x20\n        /* \"#utility.yul\":4881:4884   */\n      dup3\n        /* \"#utility.yul\":4877:4891   */\n      add\n        /* \"#utility.yul\":4862:4891   */\n      swap1\n      pop\n        /* \"#utility.yul\":4728:4897   */\n      swap3\n      swap2\n      pop\n      pop\n      jump\t// out\n        /* \"#utility.yul\":4903:4993   */\n    tag_153:\n        /* \"#utility.yul\":4937:4944   */\n      0x00\n        /* \"#utility.yul\":4980:4985   */\n      dup2\n        /* \"#utility.yul\":4973:4986   */\n      iszero\n        /* \"#utility.yul\":4966:4987   */\n      iszero\n        /* \"#utility.yul\":4955:4987   */\n      swap1\n      pop\n        /* \"#utility.yul\":4903:4993   */\n      swap2\n      swap1\n      pop\n      jump\t// out\n        /* \"#utility.yul\":4999:5153   */\n    tag_114:\n        /* \"#utility.yul\":5083:5089   */\n      dup3\n        /* \"#utility.yul\":5078:5081   */\n      dup2\n        /* \"#utility.yul\":5073:5076   */\n      dup4\n        /* \"#utility.yul\":5060:5090   */\n      calldatacopy\n        /* \"#utility.yul\":5145:5146   */\n      0x00\n        /* \"#utility.yul\":5136:5142   */\n      dup4\n        /* \"#utility.yul\":5131:5134   */\n      dup4\n        /* \"#utility.yul\":5127:5143   */\n      add\n        /* \"#utility.yul\":5120:5147   */\n      mstore\n        /* \"#utility.yul\":4999:5153   */\n      pop\n      pop\n      pop\n      jump\t// out\n        /* \"#utility.yul\":5159:5466   */\n    tag_161:\n        /* \"#utility.yul\":5227:5228   */\n      0x00\n        /* \"#utility.yul\":5237:5350   */\n    tag_184:\n        /* \"#utility.yul\":5251:5257   */\n      dup4\n        /* \"#utility.yul\":5248:5249   */\n      dup2\n        /* \"#utility.yul\":5245:5258   */\n      lt\n        /* \"#utility.yul\":5237:5350   */\n      iszero\n      tag_186\n      jumpi\n        /* \"#utility.yul\":5336:5337   */\n      dup1\n        /* \"#utility.yul\":5331:5334   */\n      dup3\n        /* \"#utility.yul\":5327:5338   */\n      add\n        /* \"#utility.yul\":5321:5339   */\n      mload\n        /* \"#utility.yul\":5317:5318   */\n      dup2\n        /* \"#utility.yul\":5312:5315   */\n      dup5\n        /* \"#utility.yul\":5308:5319   */\n      add\n        /* \"#utility.yul\":5301:5340   */\n      mstore\n        /* \"#utility.yul\":5273:5275   */\n      0x20\n        /* \"#utility.yul\":5270:5271   */\n      dup2\n        /* \"#utility.yul\":5266:5276   */\n      add\n        /* \"#utility.yul\":5261:5276   */\n      swap1\n      pop\n        /* \"#utility.yul\":5237:5350   */\n      jump(tag_184)\n    tag_186:\n        /* \"#utility.yul\":5368:5374   */\n      dup4\n        /* \"#utility.yul\":5365:5366   */\n      dup2\n        /* \"#utility.yul\":5362:5375   */\n      gt\n        /* \"#utility.yul\":5359:5460   */\n      iszero\n      tag_187\n      jumpi\n        /* \"#utility.yul\":5448:5449   */\n      0x00\n        /* \"#utility.yul\":5439:5445   */\n      dup5\n        /* \"#utility.yul\":5434:5437   */\n      dup5\n        /* \"#utility.yul\":5430:5446   */\n      add\n        /* \"#utility.yul\":5423:5450   */\n      mstore\n        /* \"#utility.yul\":5359:5460   */\n    tag_187:\n        /* \"#utility.yul\":5208:5466   */\n      pop\n        /* \"#utility.yul\":5159:5466   */\n      pop\n      pop\n      pop\n      jump\t// out\n        /* \"#utility.yul\":5472:5792   */\n    tag_59:\n        /* \"#utility.yul\":5516:5522   */\n      0x00\n        /* \"#utility.yul\":5553:5554   */\n      0x02\n        /* \"#utility.yul\":5547:5551   */\n      dup3\n        /* \"#utility.yul\":5543:5555   */\n      div\n        /* \"#utility.yul\":5533:5555   */\n      swap1\n      pop\n        /* \"#utility.yul\":5600:5601   */\n      0x01\n        /* \"#utility.yul\":5594:5598   */\n      dup3\n        /* \"#utility.yul\":5590:5602   */\n      and\n        /* \"#utility.yul\":5621:5639   */\n      dup1\n        /* \"#utility.yul\":5611:5692   */\n      tag_189\n      jumpi\n        /* \"#utility.yul\":5677:5681   */\n      0x7f\n        /* \"#utility.yul\":5669:5675   */\n      dup3\n        /* \"#utility.yul\":5665:5682   */\n      and\n        /* \"#utility.yul\":5655:5682   */\n      swap2\n      pop\n        /* \"#utility.yul\":5611:5692   */\n    tag_189:\n        /* \"#utility.yul\":5739:5741   */\n      0x20\n        /* \"#utility.yul\":5731:5737   */\n      dup3\n        /* \"#utility.yul\":5728:5742   */\n      lt\n        /* \"#utility.yul\":5708:5726   */\n      dup2\n        /* \"#utility.yul\":5705:5743   */\n      eq\n        /* \"#utility.yul\":5702:5786   */\n      iszero\n      tag_190\n      jumpi\n        /* \"#utility.yul\":5758:5776   */\n      tag_191\n      tag_192\n      jump\t// in\n    tag_191:\n        /* \"#utility.yul\":5702:5786   */\n    tag_190:\n        /* \"#utility.yul\":5523:5792   */\n      pop\n        /* \"#utility.yul\":5472:5792   */\n      swap2\n      swap1\n      pop\n      jump\t// out\n        /* \"#utility.yul\":5798:6079   */\n    tag_172:\n        /* \"#utility.yul\":5881:5908   */\n      tag_194\n        /* \"#utility.yul\":5903:5907   */\n      dup3\n        /* \"#utility.yul\":5881:5908   */\n      tag_163\n      jump\t// in\n    tag_194:\n        /* \"#utility.yul\":5873:5879   */\n      dup2\n        /* \"#utility.yul\":5869:5909   */\n      add\n        /* \"#utility.yul\":6011:6017   */\n      dup2\n        /* \"#utility.yul\":5999:6009   */\n      dup2\n        /* \"#utility.yul\":5996:6018   */\n      lt\n        /* \"#utility.yul\":5975:5993   */\n      0xffffffffffffffff\n        /* \"#utility.yul\":5963:5973   */\n      dup3\n        /* \"#utility.yul\":5960:5994   */\n      gt\n        /* \"#utility.yul\":5957:6019   */\n      or\n        /* \"#utility.yul\":5954:6042   */\n      iszero\n      tag_195\n      jumpi\n        /* \"#utility.yul\":6022:6040   */\n      tag_196\n      tag_177\n      jump\t// in\n    tag_196:\n        /* \"#utility.yul\":5954:6042   */\n    tag_195:\n        /* \"#utility.yul\":6062:6072   */\n      dup1\n        /* \"#utility.yul\":6058:6060   */\n      0x40\n        /* \"#utility.yul\":6051:6073   */\n      mstore\n        /* \"#utility.yul\":5841:6079   */\n      pop\n        /* \"#utility.yul\":5798:6079   */\n      pop\n      pop\n      jump\t// out\n        /* \"#utility.yul\":6085:6265   */\n    tag_192:\n        /* \"#utility.yul\":6133:6210   */\n      0x4e487b7100000000000000000000000000000000000000000000000000000000\n        /* \"#utility.yul\":6130:6131   */\n      0x00\n        /* \"#utility.yul\":6123:6211   */\n      mstore\n        /* \"#utility.yul\":6230:6234   */\n      0x22\n        /* \"#utility.yul\":6227:6228   */\n      0x04\n        /* \"#utility.yul\":6220:6235   */\n      mstore\n        /* \"#utility.yul\":6254:6258   */\n      0x24\n        /* \"#utility.yul\":6251:6252   */\n      0x00\n        /* \"#utility.yul\":6244:6259   */\n      revert\n        /* \"#utility.yul\":6271:6451   */\n    tag_177:\n        /* \"#utility.yul\":6319:6396   */\n      0x4e487b7100000000000000000000000000000000000000000000000000000000\n        /* \"#utility.yul\":6316:6317   */\n      0x00\n        /* \"#utility.yul\":6309:6397   */\n      mstore\n        /* \"#utility.yul\":6416:6420   */\n      0x41\n        /* \"#utility.yul\":6413:6414   */\n      0x04\n        /* \"#utility.yul\":6406:6421   */\n      mstore\n        /* \"#utility.yul\":6440:6444   */\n      0x24\n        /* \"#utility.yul\":6437:6438   */\n      0x00\n        /* \"#utility.yul\":6430:6445   */\n      revert\n        /* \"#utility.yul\":6457:6574   */\n    tag_123:\n        /* \"#utility.yul\":6566:6567   */\n      0x00\n        /* \"#utility.yul\":6563:6564   */\n      dup1\n        /* \"#utility.yul\":6556:6568   */\n      revert\n        /* \"#utility.yul\":6580:6697   */\n    tag_112:\n        /* \"#utility.yul\":6689:6690   */\n      0x00\n        /* \"#utility.yul\":6686:6687   */\n      dup1\n        /* \"#utility.yul\":6679:6691   */\n      revert\n        /* \"#utility.yul\":6703:6820   */\n    tag_135:\n        /* \"#utility.yul\":6812:6813   */\n      0x00\n        /* \"#utility.yul\":6809:6810   */\n      dup1\n        /* \"#utility.yul\":6802:6814   */\n      revert\n        /* \"#utility.yul\":6826:6943   */\n    tag_128:\n        /* \"#utility.yul\":6935:6936   */\n      0x00\n        /* \"#utility.yul\":6932:6933   */\n      dup1\n        /* \"#utility.yul\":6925:6937   */\n      revert\n        /* \"#utility.yul\":6949:7051   */\n    tag_163:\n        /* \"#utility.yul\":6990:6996   */\n      0x00\n        /* \"#utility.yul\":7041:7043   */\n      0x1f\n        /* \"#utility.yul\":7037:7044   */\n      not\n        /* \"#utility.yul\":7032:7034   */\n      0x1f\n        /* \"#utility.yul\":7025:7030   */\n      dup4\n        /* \"#utility.yul\":7021:7035   */\n      add\n        /* \"#utility.yul\":7017:7045   */\n      and\n        /* \"#utility.yul\":7007:7045   */\n      swap1\n      pop\n        /* \"#utility.yul\":6949:7051   */\n      swap2\n      swap1\n      pop\n      jump\t// out\n        /* \"#utility.yul\":7057:7173   */\n    tag_118:\n        /* \"#utility.yul\":7127:7148   */\n      tag_205\n        /* \"#utility.yul\":7142:7147   */\n      dup2\n        /* \"#utility.yul\":7127:7148   */\n      tag_153\n      jump\t// in\n    tag_205:\n        /* \"#utility.yul\":7120:7125   */\n      dup2\n        /* \"#utility.yul\":7117:7149   */\n      eq\n        /* \"#utility.yul\":7107:7167   */\n      tag_206\n      jumpi\n        /* \"#utility.yul\":7163:7164   */\n      0x00\n        /* \"#utility.yul\":7160:7161   */\n      dup1\n        /* \"#utility.yul\":7153:7165   */\n      revert\n        /* \"#utility.yul\":7107:7167   */\n    tag_206:\n        /* \"#utility.yul\":7057:7173   */\n      pop\n      jump\t// out\n\n    auxdata: 0xa26469706673582212201966ba019d72468f35031aab690a486a0d3eafe3e64861e5ce4a7516c1b45de264736f6c63430008070033\n}\n",
				"bytecode": {
					"linkReferences": {},
					"object": "60806040523480156200001157600080fd5b5060405162000ec838038062000ec8833981810160405281019062000037919062000205565b84600090805190602001906200004f929190620000c0565b50836001908051906020019062000068929190620000c0565b50826002908051906020019062000081929190620000c0565b5081600360006101000a81548160ff0219169083151502179055508060049080519060200190620000b4929190620000c0565b505050505050620004b3565b828054620000ce90620003aa565b90600052602060002090601f016020900481019282620000f257600085556200013e565b82601f106200010d57805160ff19168380011785556200013e565b828001600101855582156200013e579182015b828111156200013d57825182559160200191906001019062000120565b5b5090506200014d919062000151565b5090565b5b808211156200016c57600081600090555060010162000152565b5090565b600062000187620001818462000332565b62000309565b905082815260208101848484011115620001a657620001a562000479565b5b620001b384828562000374565b509392505050565b600081519050620001cc8162000499565b92915050565b600082601f830112620001ea57620001e962000474565b5b8151620001fc84826020860162000170565b91505092915050565b600080600080600060a0868803121562000224576200022362000483565b5b600086015167ffffffffffffffff8111156200024557620002446200047e565b5b6200025388828901620001d2565b955050602086015167ffffffffffffffff8111156200027757620002766200047e565b5b6200028588828901620001d2565b945050604086015167ffffffffffffffff811115620002a957620002a86200047e565b5b620002b788828901620001d2565b9350506060620002ca88828901620001bb565b925050608086015167ffffffffffffffff811115620002ee57620002ed6200047e565b5b620002fc88828901620001d2565b9150509295509295909350565b60006200031562000328565b9050620003238282620003e0565b919050565b6000604051905090565b600067ffffffffffffffff82111562000350576200034f62000445565b5b6200035b8262000488565b9050602081019050919050565b60008115159050919050565b60005b838110156200039457808201518184015260208101905062000377565b83811115620003a4576000848401525b50505050565b60006002820490506001821680620003c357607f821691505b60208210811415620003da57620003d962000416565b5b50919050565b620003eb8262000488565b810181811067ffffffffffffffff821117156200040d576200040c62000445565b5b80604052505050565b7f4e487b7100000000000000000000000000000000000000000000000000000000600052602260045260246000fd5b7f4e487b7100000000000000000000000000000000000000000000000000000000600052604160045260246000fd5b600080fd5b600080fd5b600080fd5b600080fd5b6000601f19601f8301169050919050565b620004a48162000368565b8114620004b057600080fd5b50565b610a0580620004c36000396000f3fe608060405234801561001057600080fd5b50600436106100a85760003560e01c806372d7e3da1161007157806372d7e3da1461013f5780637fd8454b1461015d57806391231eab14610179578063acec338a14610195578063ae7b6bd9146101b1578063af14363f146101cf576100a8565b80629ebb10146100ad5780632e25fa47146100cb57806355b72f38146100e757806361937300146101055780636b2b1ab914610121575b600080fd5b6100b56101eb565b6040516100c291906107d5565b60405180910390f35b6100e560048036038101906100e09190610689565b610202565b005b6100ef61021c565b6040516100fc91906107f0565b60405180910390f35b61011f600480360381019061011a91906106d2565b6102ae565b005b610129610313565b60405161013691906107f0565b60405180910390f35b6101476103a5565b60405161015491906107f0565b60405180910390f35b61017760048036038101906101729190610689565b610437565b005b610193600480360381019061018e9190610689565b610451565b005b6101af60048036038101906101aa919061065c565b61046b565b005b6101b9610488565b6040516101c691906107f0565b60405180910390f35b6101e960048036038101906101e49190610689565b61051a565b005b6000600360009054906101000a900460ff16905090565b8060049080519060200190610218929190610534565b5050565b60606002805461022b906108d2565b80601f0160208091040260200160405190810160405280929190818152602001828054610257906108d2565b80156102a45780601f10610279576101008083540402835291602001916102a4565b820191906000526020600020905b81548152906001019060200180831161028757829003601f168201915b5050505050905090565b83600090805190602001906102c4929190610534565b5082600190805190602001906102db929190610534565b5081600290805190602001906102f2929190610534565b5080600360006101000a81548160ff02191690831515021790555050505050565b606060048054610322906108d2565b80601f016020809104026020016040519081016040528092919081815260200182805461034e906108d2565b801561039b5780601f106103705761010080835404028352916020019161039b565b820191906000526020600020905b81548152906001019060200180831161037e57829003601f168201915b5050505050905090565b6060600080546103b4906108d2565b80601f01602080910402602001604051908101604052809291908181526020018280546103e0906108d2565b801561042d5780601f106104025761010080835404028352916020019161042d565b820191906000526020600020905b81548152906001019060200180831161041057829003601f168201915b5050505050905090565b806001908051906020019061044d929190610534565b5050565b8060009080519060200190610467929190610534565b5050565b80600360006101000a81548160ff02191690831515021790555050565b606060018054610497906108d2565b80601f01602080910402602001604051908101604052809291908181526020018280546104c3906108d2565b80156105105780601f106104e557610100808354040283529160200191610510565b820191906000526020600020905b8154815290600101906020018083116104f357829003601f168201915b5050505050905090565b8060029080519060200190610530929190610534565b5050565b828054610540906108d2565b90600052602060002090601f01602090048101928261056257600085556105a9565b82601f1061057b57805160ff19168380011785556105a9565b828001600101855582156105a9579182015b828111156105a857825182559160200191906001019061058d565b5b5090506105b691906105ba565b5090565b5b808211156105d35760008160009055506001016105bb565b5090565b60006105ea6105e584610837565b610812565b90508281526020810184848401111561060657610605610998565b5b610611848285610890565b509392505050565b600081359050610628816109b8565b92915050565b600082601f83011261064357610642610993565b5b81356106538482602086016105d7565b91505092915050565b600060208284031215610672576106716109a2565b5b600061068084828501610619565b91505092915050565b60006020828403121561069f5761069e6109a2565b5b600082013567ffffffffffffffff8111156106bd576106bc61099d565b5b6106c98482850161062e565b91505092915050565b600080600080608085870312156106ec576106eb6109a2565b5b600085013567ffffffffffffffff81111561070a5761070961099d565b5b6107168782880161062e565b945050602085013567ffffffffffffffff8111156107375761073661099d565b5b6107438782880161062e565b935050604085013567ffffffffffffffff8111156107645761076361099d565b5b6107708782880161062e565b925050606061078187828801610619565b91505092959194509250565b61079681610884565b82525050565b60006107a782610868565b6107b18185610873565b93506107c181856020860161089f565b6107ca816109a7565b840191505092915050565b60006020820190506107ea600083018461078d565b92915050565b6000602082019050818103600083015261080a818461079c565b905092915050565b600061081c61082d565b90506108288282610904565b919050565b6000604051905090565b600067ffffffffffffffff82111561085257610851610964565b5b61085b826109a7565b9050602081019050919050565b600081519050919050565b600082825260208201905092915050565b60008115159050919050565b82818337600083830152505050565b60005b838110156108bd5780820151818401526020810190506108a2565b838111156108cc576000848401525b50505050565b600060028204905060018216806108ea57607f821691505b602082108114156108fe576108fd610935565b5b50919050565b61090d826109a7565b810181811067ffffffffffffffff8211171561092c5761092b610964565b5b80604052505050565b7f4e487b7100000000000000000000000000000000000000000000000000000000600052602260045260246000fd5b7f4e487b7100000000000000000000000000000000000000000000000000000000600052604160045260246000fd5b600080fd5b600080fd5b600080fd5b600080fd5b6000601f19601f8301169050919050565b6109c181610884565b81146109cc57600080fd5b5056fea26469706673582212201966ba019d72468f35031aab690a486a0d3eafe3e64861e5ce4a7516c1b45de264736f6c63430008070033",
					"opcodes": "PUSH1 0x80 PUSH1 0x40 MSTORE CALLVALUE DUP1 ISZERO PUSH3 0x11 JUMPI PUSH1 0x0 DUP1 REVERT JUMPDEST POP PUSH1 0x40 MLOAD PUSH3 0xEC8 CODESIZE SUB DUP1 PUSH3 0xEC8 DUP4 CODECOPY DUP2 DUP2 ADD PUSH1 0x40 MSTORE DUP2 ADD SWAP1 PUSH3 0x37 SWAP2 SWAP1 PUSH3 0x205 JUMP JUMPDEST DUP5 PUSH1 0x0 SWAP1 DUP1 MLOAD SWAP1 PUSH1 0x20 ADD SWAP1 PUSH3 0x4F SWAP3 SWAP2 SWAP1 PUSH3 0xC0 JUMP JUMPDEST POP DUP4 PUSH1 0x1 SWAP1 DUP1 MLOAD SWAP1 PUSH1 0x20 ADD SWAP1 PUSH3 0x68 SWAP3 SWAP2 SWAP1 PUSH3 0xC0 JUMP JUMPDEST POP DUP3 PUSH1 0x2 SWAP1 DUP1 MLOAD SWAP1 PUSH1 0x20 ADD SWAP1 PUSH3 0x81 SWAP3 SWAP2 SWAP1 PUSH3 0xC0 JUMP JUMPDEST POP DUP2 PUSH1 0x3 PUSH1 0x0 PUSH2 0x100 EXP DUP2 SLOAD DUP2 PUSH1 0xFF MUL NOT AND SWAP1 DUP4 ISZERO ISZERO MUL OR SWAP1 SSTORE POP DUP1 PUSH1 0x4 SWAP1 DUP1 MLOAD SWAP1 PUSH1 0x20 ADD SWAP1 PUSH3 0xB4 SWAP3 SWAP2 SWAP1 PUSH3 0xC0 JUMP JUMPDEST POP POP POP POP POP POP PUSH3 0x4B3 JUMP JUMPDEST DUP3 DUP1 SLOAD PUSH3 0xCE SWAP1 PUSH3 0x3AA JUMP JUMPDEST SWAP1 PUSH1 0x0 MSTORE PUSH1 0x20 PUSH1 0x0 KECCAK256 SWAP1 PUSH1 0x1F ADD PUSH1 0x20 SWAP1 DIV DUP2 ADD SWAP3 DUP3 PUSH3 0xF2 JUMPI PUSH1 0x0 DUP6 SSTORE PUSH3 0x13E JUMP JUMPDEST DUP3 PUSH1 0x1F LT PUSH3 0x10D JUMPI DUP1 MLOAD PUSH1 0xFF NOT AND DUP4 DUP1 ADD OR DUP6 SSTORE PUSH3 0x13E JUMP JUMPDEST DUP3 DUP1 ADD PUSH1 0x1 ADD DUP6 SSTORE DUP3 ISZERO PUSH3 0x13E JUMPI SWAP2 DUP3 ADD JUMPDEST DUP3 DUP2 GT ISZERO PUSH3 0x13D JUMPI DUP3 MLOAD DUP3 SSTORE SWAP2 PUSH1 0x20 ADD SWAP2 SWAP1 PUSH1 0x1 ADD SWAP1 PUSH3 0x120 JUMP JUMPDEST JUMPDEST POP SWAP1 POP PUSH3 0x14D SWAP2 SWAP1 PUSH3 0x151 JUMP JUMPDEST POP SWAP1 JUMP JUMPDEST JUMPDEST DUP1 DUP3 GT ISZERO PUSH3 0x16C JUMPI PUSH1 0x0 DUP2 PUSH1 0x0 SWAP1 SSTORE POP PUSH1 0x1 ADD PUSH3 0x152 JUMP JUMPDEST POP SWAP1 JUMP JUMPDEST PUSH1 0x0 PUSH3 0x187 PUSH3 0x181 DUP5 PUSH3 0x332 JUMP JUMPDEST PUSH3 0x309 JUMP JUMPDEST SWAP1 POP DUP3 DUP2 MSTORE PUSH1 0x20 DUP2 ADD DUP5 DUP5 DUP5 ADD GT ISZERO PUSH3 0x1A6 JUMPI PUSH3 0x1A5 PUSH3 0x479 JUMP JUMPDEST JUMPDEST PUSH3 0x1B3 DUP5 DUP3 DUP6 PUSH3 0x374 JUMP JUMPDEST POP SWAP4 SWAP3 POP POP POP JUMP JUMPDEST PUSH1 0x0 DUP2 MLOAD SWAP1 POP PUSH3 0x1CC DUP2 PUSH3 0x499 JUMP JUMPDEST SWAP3 SWAP2 POP POP JUMP JUMPDEST PUSH1 0x0 DUP3 PUSH1 0x1F DUP4 ADD SLT PUSH3 0x1EA JUMPI PUSH3 0x1E9 PUSH3 0x474 JUMP JUMPDEST JUMPDEST DUP2 MLOAD PUSH3 0x1FC DUP5 DUP3 PUSH1 0x20 DUP7 ADD PUSH3 0x170 JUMP JUMPDEST SWAP2 POP POP SWAP3 SWAP2 POP POP JUMP JUMPDEST PUSH1 0x0 DUP1 PUSH1 0x0 DUP1 PUSH1 0x0 PUSH1 0xA0 DUP7 DUP9 SUB SLT ISZERO PUSH3 0x224 JUMPI PUSH3 0x223 PUSH3 0x483 JUMP JUMPDEST JUMPDEST PUSH1 0x0 DUP7 ADD MLOAD PUSH8 0xFFFFFFFFFFFFFFFF DUP2 GT ISZERO PUSH3 0x245 JUMPI PUSH3 0x244 PUSH3 0x47E JUMP JUMPDEST JUMPDEST PUSH3 0x253 DUP9 DUP3 DUP10 ADD PUSH3 0x1D2 JUMP JUMPDEST SWAP6 POP POP PUSH1 0x20 DUP7 ADD MLOAD PUSH8 0xFFFFFFFFFFFFFFFF DUP2 GT ISZERO PUSH3 0x277 JUMPI PUSH3 0x276 PUSH3 0x47E JUMP JUMPDEST JUMPDEST PUSH3 0x285 DUP9 DUP3 DUP10 ADD PUSH3 0x1D2 JUMP JUMPDEST SWAP5 POP POP PUSH1 0x40 DUP7 ADD MLOAD PUSH8 0xFFFFFFFFFFFFFFFF DUP2 GT ISZERO PUSH3 0x2A9 JUMPI PUSH3 0x2A8 PUSH3 0x47E JUMP JUMPDEST JUMPDEST PUSH3 0x2B7 DUP9 DUP3 DUP10 ADD PUSH3 0x1D2 JUMP JUMPDEST SWAP4 POP POP PUSH1 0x60 PUSH3 0x2CA DUP9 DUP3 DUP10 ADD PUSH3 0x1BB JUMP JUMPDEST SWAP3 POP POP PUSH1 0x80 DUP7 ADD MLOAD PUSH8 0xFFFFFFFFFFFFFFFF DUP2 GT ISZERO PUSH3 0x2EE JUMPI PUSH3 0x2ED PUSH3 0x47E JUMP JUMPDEST JUMPDEST PUSH3 0x2FC DUP9 DUP3 DUP10 ADD PUSH3 0x1D2 JUMP JUMPDEST SWAP2 POP POP SWAP3 SWAP6 POP SWAP3 SWAP6 SWAP1 SWAP4 POP JUMP JUMPDEST PUSH1 0x0 PUSH3 0x315 PUSH3 0x328 JUMP JUMPDEST SWAP1 POP PUSH3 0x323 DUP3 DUP3 PUSH3 0x3E0 JUMP JUMPDEST SWAP2 SWAP1 POP JUMP JUMPDEST PUSH1 0x0 PUSH1 0x40 MLOAD SWAP1 POP SWAP1 JUMP JUMPDEST PUSH1 0x0 PUSH8 0xFFFFFFFFFFFFFFFF DUP3 GT ISZERO PUSH3 0x350 JUMPI PUSH3 0x34F PUSH3 0x445 JUMP JUMPDEST JUMPDEST PUSH3 0x35B DUP3 PUSH3 0x488 JUMP JUMPDEST SWAP1 POP PUSH1 0x20 DUP2 ADD SWAP1 POP SWAP2 SWAP1 POP JUMP JUMPDEST PUSH1 0x0 DUP2 ISZERO ISZERO SWAP1 POP SWAP2 SWAP1 POP JUMP JUMPDEST PUSH1 0x0 JUMPDEST DUP4 DUP2 LT ISZERO PUSH3 0x394 JUMPI DUP1 DUP3 ADD MLOAD DUP2 DUP5 ADD MSTORE PUSH1 0x20 DUP2 ADD SWAP1 POP PUSH3 0x377 JUMP JUMPDEST DUP4 DUP2 GT ISZERO PUSH3 0x3A4 JUMPI PUSH1 0x0 DUP5 DUP5 ADD MSTORE JUMPDEST POP POP POP POP JUMP JUMPDEST PUSH1 0x0 PUSH1 0x2 DUP3 DIV SWAP1 POP PUSH1 0x1 DUP3 AND DUP1 PUSH3 0x3C3 JUMPI PUSH1 0x7F DUP3 AND SWAP2 POP JUMPDEST PUSH1 0x20 DUP3 LT DUP2 EQ ISZERO PUSH3 0x3DA JUMPI PUSH3 0x3D9 PUSH3 0x416 JUMP JUMPDEST JUMPDEST POP SWAP2 SWAP1 POP JUMP JUMPDEST PUSH3 0x3EB DUP3 PUSH3 0x488 JUMP JUMPDEST DUP2 ADD DUP2 DUP2 LT PUSH8 0xFFFFFFFFFFFFFFFF DUP3 GT OR ISZERO PUSH3 0x40D JUMPI PUSH3 0x40C PUSH3 0x445 JUMP JUMPDEST JUMPDEST DUP1 PUSH1 0x40 MSTORE POP POP POP JUMP JUMPDEST PUSH32 0x4E487B7100000000000000000000000000000000000000000000000000000000 PUSH1 0x0 MSTORE PUSH1 0x22 PUSH1 0x4 MSTORE PUSH1 0x24 PUSH1 0x0 REVERT JUMPDEST PUSH32 0x4E487B7100000000000000000000000000000000000000000000000000000000 PUSH1 0x0 MSTORE PUSH1 0x41 PUSH1 0x4 MSTORE PUSH1 0x24 PUSH1 0x0 REVERT JUMPDEST PUSH1 0x0 DUP1 REVERT JUMPDEST PUSH1 0x0 DUP1 REVERT JUMPDEST PUSH1 0x0 DUP1 REVERT JUMPDEST PUSH1 0x0 DUP1 REVERT JUMPDEST PUSH1 0x0 PUSH1 0x1F NOT PUSH1 0x1F DUP4 ADD AND SWAP1 POP SWAP2 SWAP1 POP JUMP JUMPDEST PUSH3 0x4A4 DUP2 PUSH3 0x368 JUMP JUMPDEST DUP2 EQ PUSH3 0x4B0 JUMPI PUSH1 0x0 DUP1 REVERT JUMPDEST POP JUMP JUMPDEST PUSH2 0xA05 DUP1 PUSH3 0x4C3 PUSH1 0x0 CODECOPY PUSH1 0x0 RETURN INVALID PUSH1 0x80 PUSH1 0x40 MSTORE CALLVALUE DUP1 ISZERO PUSH2 0x10 JUMPI PUSH1 0x0 DUP1 REVERT JUMPDEST POP PUSH1 0x4 CALLDATASIZE LT PUSH2 0xA8 JUMPI PUSH1 0x0 CALLDATALOAD PUSH1 0xE0 SHR DUP1 PUSH4 0x72D7E3DA GT PUSH2 0x71 JUMPI DUP1 PUSH4 0x72D7E3DA EQ PUSH2 0x13F JUMPI DUP1 PUSH4 0x7FD8454B EQ PUSH2 0x15D JUMPI DUP1 PUSH4 0x91231EAB EQ PUSH2 0x179 JUMPI DUP1 PUSH4 0xACEC338A EQ PUSH2 0x195 JUMPI DUP1 PUSH4 0xAE7B6BD9 EQ PUSH2 0x1B1 JUMPI DUP1 PUSH4 0xAF14363F EQ PUSH2 0x1CF JUMPI PUSH2 0xA8 JUMP JUMPDEST DUP1 PUSH3 0x9EBB10 EQ PUSH2 0xAD JUMPI DUP1 PUSH4 0x2E25FA47 EQ PUSH2 0xCB JUMPI DUP1 PUSH4 0x55B72F38 EQ PUSH2 0xE7 JUMPI DUP1 PUSH4 0x61937300 EQ PUSH2 0x105 JUMPI DUP1 PUSH4 0x6B2B1AB9 EQ PUSH2 0x121 JUMPI JUMPDEST PUSH1 0x0 DUP1 REVERT JUMPDEST PUSH2 0xB5 PUSH2 0x1EB JUMP JUMPDEST PUSH1 0x40 MLOAD PUSH2 0xC2 SWAP2 SWAP1 PUSH2 0x7D5 JUMP JUMPDEST PUSH1 0x40 MLOAD DUP1 SWAP2 SUB SWAP1 RETURN JUMPDEST PUSH2 0xE5 PUSH1 0x4 DUP1 CALLDATASIZE SUB DUP2 ADD SWAP1 PUSH2 0xE0 SWAP2 SWAP1 PUSH2 0x689 JUMP JUMPDEST PUSH2 0x202 JUMP JUMPDEST STOP JUMPDEST PUSH2 0xEF PUSH2 0x21C JUMP JUMPDEST PUSH1 0x40 MLOAD PUSH2 0xFC SWAP2 SWAP1 PUSH2 0x7F0 JUMP JUMPDEST PUSH1 0x40 MLOAD DUP1 SWAP2 SUB SWAP1 RETURN JUMPDEST PUSH2 0x11F PUSH1 0x4 DUP1 CALLDATASIZE SUB DUP2 ADD SWAP1 PUSH2 0x11A SWAP2 SWAP1 PUSH2 0x6D2 JUMP JUMPDEST PUSH2 0x2AE JUMP JUMPDEST STOP JUMPDEST PUSH2 0x129 PUSH2 0x313 JUMP JUMPDEST PUSH1 0x40 MLOAD PUSH2 0x136 SWAP2 SWAP1 PUSH2 0x7F0 JUMP JUMPDEST PUSH1 0x40 MLOAD DUP1 SWAP2 SUB SWAP1 RETURN JUMPDEST PUSH2 0x147 PUSH2 0x3A5 JUMP JUMPDEST PUSH1 0x40 MLOAD PUSH2 0x154 SWAP2 SWAP1 PUSH2 0x7F0 JUMP JUMPDEST PUSH1 0x40 MLOAD DUP1 SWAP2 SUB SWAP1 RETURN JUMPDEST PUSH2 0x177 PUSH1 0x4 DUP1 CALLDATASIZE SUB DUP2 ADD SWAP1 PUSH2 0x172 SWAP2 SWAP1 PUSH2 0x689 JUMP JUMPDEST PUSH2 0x437 JUMP JUMPDEST STOP JUMPDEST PUSH2 0x193 PUSH1 0x4 DUP1 CALLDATASIZE SUB DUP2 ADD SWAP1 PUSH2 0x18E SWAP2 SWAP1 PUSH2 0x689 JUMP JUMPDEST PUSH2 0x451 JUMP JUMPDEST STOP JUMPDEST PUSH2 0x1AF PUSH1 0x4 DUP1 CALLDATASIZE SUB DUP2 ADD SWAP1 PUSH2 0x1AA SWAP2 SWAP1 PUSH2 0x65C JUMP JUMPDEST PUSH2 0x46B JUMP JUMPDEST STOP JUMPDEST PUSH2 0x1B9 PUSH2 0x488 JUMP JUMPDEST PUSH1 0x40 MLOAD PUSH2 0x1C6 SWAP2 SWAP1 PUSH2 0x7F0 JUMP JUMPDEST PUSH1 0x40 MLOAD DUP1 SWAP2 SUB SWAP1 RETURN JUMPDEST PUSH2 0x1E9 PUSH1 0x4 DUP1 CALLDATASIZE SUB DUP2 ADD SWAP1 PUSH2 0x1E4 SWAP2 SWAP1 PUSH2 0x689 JUMP JUMPDEST PUSH2 0x51A JUMP JUMPDEST STOP JUMPDEST PUSH1 0x0 PUSH1 0x3 PUSH1 0x0 SWAP1 SLOAD SWAP1 PUSH2 0x100 EXP SWAP1 DIV PUSH1 0xFF AND SWAP1 POP SWAP1 JUMP JUMPDEST DUP1 PUSH1 0x4 SWAP1 DUP1 MLOAD SWAP1 PUSH1 0x20 ADD SWAP1 PUSH2 0x218 SWAP3 SWAP2 SWAP1 PUSH2 0x534 JUMP JUMPDEST POP POP JUMP JUMPDEST PUSH1 0x60 PUSH1 0x2 DUP1 SLOAD PUSH2 0x22B SWAP1 PUSH2 0x8D2 JUMP JUMPDEST DUP1 PUSH1 0x1F ADD PUSH1 0x20 DUP1 SWAP2 DIV MUL PUSH1 0x20 ADD PUSH1 0x40 MLOAD SWAP1 DUP2 ADD PUSH1 0x40 MSTORE DUP1 SWAP3 SWAP2 SWAP1 DUP2 DUP2 MSTORE PUSH1 0x20 ADD DUP3 DUP1 SLOAD PUSH2 0x257 SWAP1 PUSH2 0x8D2 JUMP JUMPDEST DUP1 ISZERO PUSH2 0x2A4 JUMPI DUP1 PUSH1 0x1F LT PUSH2 0x279 JUMPI PUSH2 0x100 DUP1 DUP4 SLOAD DIV MUL DUP4 MSTORE SWAP2 PUSH1 0x20 ADD SWAP2 PUSH2 0x2A4 JUMP JUMPDEST DUP3 ADD SWAP2 SWAP1 PUSH1 0x0 MSTORE PUSH1 0x20 PUSH1 0x0 KECCAK256 SWAP1 JUMPDEST DUP2 SLOAD DUP2 MSTORE SWAP1 PUSH1 0x1 ADD SWAP1 PUSH1 0x20 ADD DUP1 DUP4 GT PUSH2 0x287 JUMPI DUP3 SWAP1 SUB PUSH1 0x1F AND DUP3 ADD SWAP2 JUMPDEST POP POP POP POP POP SWAP1 POP SWAP1 JUMP JUMPDEST DUP4 PUSH1 0x0 SWAP1 DUP1 MLOAD SWAP1 PUSH1 0x20 ADD SWAP1 PUSH2 0x2C4 SWAP3 SWAP2 SWAP1 PUSH2 0x534 JUMP JUMPDEST POP DUP3 PUSH1 0x1 SWAP1 DUP1 MLOAD SWAP1 PUSH1 0x20 ADD SWAP1 PUSH2 0x2DB SWAP3 SWAP2 SWAP1 PUSH2 0x534 JUMP JUMPDEST POP DUP2 PUSH1 0x2 SWAP1 DUP1 MLOAD SWAP1 PUSH1 0x20 ADD SWAP1 PUSH2 0x2F2 SWAP3 SWAP2 SWAP1 PUSH2 0x534 JUMP JUMPDEST POP DUP1 PUSH1 0x3 PUSH1 0x0 PUSH2 0x100 EXP DUP2 SLOAD DUP2 PUSH1 0xFF MUL NOT AND SWAP1 DUP4 ISZERO ISZERO MUL OR SWAP1 SSTORE POP POP POP POP POP JUMP JUMPDEST PUSH1 0x60 PUSH1 0x4 DUP1 SLOAD PUSH2 0x322 SWAP1 PUSH2 0x8D2 JUMP JUMPDEST DUP1 PUSH1 0x1F ADD PUSH1 0x20 DUP1 SWAP2 DIV MUL PUSH1 0x20 ADD PUSH1 0x40 MLOAD SWAP1 DUP2 ADD PUSH1 0x40 MSTORE DUP1 SWAP3 SWAP2 SWAP1 DUP2 DUP2 MSTORE PUSH1 0x20 ADD DUP3 DUP1 SLOAD PUSH2 0x34E SWAP1 PUSH2 0x8D2 JUMP JUMPDEST DUP1 ISZERO PUSH2 0x39B JUMPI DUP1 PUSH1 0x1F LT PUSH2 0x370 JUMPI PUSH2 0x100 DUP1 DUP4 SLOAD DIV MUL DUP4 MSTORE SWAP2 PUSH1 0x20 ADD SWAP2 PUSH2 0x39B JUMP JUMPDEST DUP3 ADD SWAP2 SWAP1 PUSH1 0x0 MSTORE PUSH1 0x20 PUSH1 0x0 KECCAK256 SWAP1 JUMPDEST DUP2 SLOAD DUP2 MSTORE SWAP1 PUSH1 0x1 ADD SWAP1 PUSH1 0x20 ADD DUP1 DUP4 GT PUSH2 0x37E JUMPI DUP3 SWAP1 SUB PUSH1 0x1F AND DUP3 ADD SWAP2 JUMPDEST POP POP POP POP POP SWAP1 POP SWAP1 JUMP JUMPDEST PUSH1 0x60 PUSH1 0x0 DUP1 SLOAD PUSH2 0x3B4 SWAP1 PUSH2 0x8D2 JUMP JUMPDEST DUP1 PUSH1 0x1F ADD PUSH1 0x20 DUP1 SWAP2 DIV MUL PUSH1 0x20 ADD PUSH1 0x40 MLOAD SWAP1 DUP2 ADD PUSH1 0x40 MSTORE DUP1 SWAP3 SWAP2 SWAP1 DUP2 DUP2 MSTORE PUSH1 0x20 ADD DUP3 DUP1 SLOAD PUSH2 0x3E0 SWAP1 PUSH2 0x8D2 JUMP JUMPDEST DUP1 ISZERO PUSH2 0x42D JUMPI DUP1 PUSH1 0x1F LT PUSH2 0x402 JUMPI PUSH2 0x100 DUP1 DUP4 SLOAD DIV MUL DUP4 MSTORE SWAP2 PUSH1 0x20 ADD SWAP2 PUSH2 0x42D JUMP JUMPDEST DUP3 ADD SWAP2 SWAP1 PUSH1 0x0 MSTORE PUSH1 0x20 PUSH1 0x0 KECCAK256 SWAP1 JUMPDEST DUP2 SLOAD DUP2 MSTORE SWAP1 PUSH1 0x1 ADD SWAP1 PUSH1 0x20 ADD DUP1 DUP4 GT PUSH2 0x410 JUMPI DUP3 SWAP1 SUB PUSH1 0x1F AND DUP3 ADD SWAP2 JUMPDEST POP POP POP POP POP SWAP1 POP SWAP1 JUMP JUMPDEST DUP1 PUSH1 0x1 SWAP1 DUP1 MLOAD SWAP1 PUSH1 0x20 ADD SWAP1 PUSH2 0x44D SWAP3 SWAP2 SWAP1 PUSH2 0x534 JUMP JUMPDEST POP POP JUMP JUMPDEST DUP1 PUSH1 0x0 SWAP1 DUP1 MLOAD SWAP1 PUSH1 0x20 ADD SWAP1 PUSH2 0x467 SWAP3 SWAP2 SWAP1 PUSH2 0x534 JUMP JUMPDEST POP POP JUMP JUMPDEST DUP1 PUSH1 0x3 PUSH1 0x0 PUSH2 0x100 EXP DUP2 SLOAD DUP2 PUSH1 0xFF MUL NOT AND SWAP1 DUP4 ISZERO ISZERO MUL OR SWAP1 SSTORE POP POP JUMP JUMPDEST PUSH1 0x60 PUSH1 0x1 DUP1 SLOAD PUSH2 0x497 SWAP1 PUSH2 0x8D2 JUMP JUMPDEST DUP1 PUSH1 0x1F ADD PUSH1 0x20 DUP1 SWAP2 DIV MUL PUSH1 0x20 ADD PUSH1 0x40 MLOAD SWAP1 DUP2 ADD PUSH1 0x40 MSTORE DUP1 SWAP3 SWAP2 SWAP1 DUP2 DUP2 MSTORE PUSH1 0x20 ADD DUP3 DUP1 SLOAD PUSH2 0x4C3 SWAP1 PUSH2 0x8D2 JUMP JUMPDEST DUP1 ISZERO PUSH2 0x510 JUMPI DUP1 PUSH1 0x1F LT PUSH2 0x4E5 JUMPI PUSH2 0x100 DUP1 DUP4 SLOAD DIV MUL DUP4 MSTORE SWAP2 PUSH1 0x20 ADD SWAP2 PUSH2 0x510 JUMP JUMPDEST DUP3 ADD SWAP2 SWAP1 PUSH1 0x0 MSTORE PUSH1 0x20 PUSH1 0x0 KECCAK256 SWAP1 JUMPDEST DUP2 SLOAD DUP2 MSTORE SWAP1 PUSH1 0x1 ADD SWAP1 PUSH1 0x20 ADD DUP1 DUP4 GT PUSH2 0x4F3 JUMPI DUP3 SWAP1 SUB PUSH1 0x1F AND DUP3 ADD SWAP2 JUMPDEST POP POP POP POP POP SWAP1 POP SWAP1 JUMP JUMPDEST DUP1 PUSH1 0x2 SWAP1 DUP1 MLOAD SWAP1 PUSH1 0x20 ADD SWAP1 PUSH2 0x530 SWAP3 SWAP2 SWAP1 PUSH2 0x534 JUMP JUMPDEST POP POP JUMP JUMPDEST DUP3 DUP1 SLOAD PUSH2 0x540 SWAP1 PUSH2 0x8D2 JUMP JUMPDEST SWAP1 PUSH1 0x0 MSTORE PUSH1 0x20 PUSH1 0x0 KECCAK256 SWAP1 PUSH1 0x1F ADD PUSH1 0x20 SWAP1 DIV DUP2 ADD SWAP3 DUP3 PUSH2 0x562 JUMPI PUSH1 0x0 DUP6 SSTORE PUSH2 0x5A9 JUMP JUMPDEST DUP3 PUSH1 0x1F LT PUSH2 0x57B JUMPI DUP1 MLOAD PUSH1 0xFF NOT AND DUP4 DUP1 ADD OR DUP6 SSTORE PUSH2 0x5A9 JUMP JUMPDEST DUP3 DUP1 ADD PUSH1 0x1 ADD DUP6 SSTORE DUP3 ISZERO PUSH2 0x5A9 JUMPI SWAP2 DUP3 ADD JUMPDEST DUP3 DUP2 GT ISZERO PUSH2 0x5A8 JUMPI DUP3 MLOAD DUP3 SSTORE SWAP2 PUSH1 0x20 ADD SWAP2 SWAP1 PUSH1 0x1 ADD SWAP1 PUSH2 0x58D JUMP JUMPDEST JUMPDEST POP SWAP1 POP PUSH2 0x5B6 SWAP2 SWAP1 PUSH2 0x5BA JUMP JUMPDEST POP SWAP1 JUMP JUMPDEST JUMPDEST DUP1 DUP3 GT ISZERO PUSH2 0x5D3 JUMPI PUSH1 0x0 DUP2 PUSH1 0x0 SWAP1 SSTORE POP PUSH1 0x1 ADD PUSH2 0x5BB JUMP JUMPDEST POP SWAP1 JUMP JUMPDEST PUSH1 0x0 PUSH2 0x5EA PUSH2 0x5E5 DUP5 PUSH2 0x837 JUMP JUMPDEST PUSH2 0x812 JUMP JUMPDEST SWAP1 POP DUP3 DUP2 MSTORE PUSH1 0x20 DUP2 ADD DUP5 DUP5 DUP5 ADD GT ISZERO PUSH2 0x606 JUMPI PUSH2 0x605 PUSH2 0x998 JUMP JUMPDEST JUMPDEST PUSH2 0x611 DUP5 DUP3 DUP6 PUSH2 0x890 JUMP JUMPDEST POP SWAP4 SWAP3 POP POP POP JUMP JUMPDEST PUSH1 0x0 DUP2 CALLDATALOAD SWAP1 POP PUSH2 0x628 DUP2 PUSH2 0x9B8 JUMP JUMPDEST SWAP3 SWAP2 POP POP JUMP JUMPDEST PUSH1 0x0 DUP3 PUSH1 0x1F DUP4 ADD SLT PUSH2 0x643 JUMPI PUSH2 0x642 PUSH2 0x993 JUMP JUMPDEST JUMPDEST DUP2 CALLDATALOAD PUSH2 0x653 DUP5 DUP3 PUSH1 0x20 DUP7 ADD PUSH2 0x5D7 JUMP JUMPDEST SWAP2 POP POP SWAP3 SWAP2 POP POP JUMP JUMPDEST PUSH1 0x0 PUSH1 0x20 DUP3 DUP5 SUB SLT ISZERO PUSH2 0x672 JUMPI PUSH2 0x671 PUSH2 0x9A2 JUMP JUMPDEST JUMPDEST PUSH1 0x0 PUSH2 0x680 DUP5 DUP3 DUP6 ADD PUSH2 0x619 JUMP JUMPDEST SWAP2 POP POP SWAP3 SWAP2 POP POP JUMP JUMPDEST PUSH1 0x0 PUSH1 0x20 DUP3 DUP5 SUB SLT ISZERO PUSH2 0x69F JUMPI PUSH2 0x69E PUSH2 0x9A2 JUMP JUMPDEST JUMPDEST PUSH1 0x0 DUP3 ADD CALLDATALOAD PUSH8 0xFFFFFFFFFFFFFFFF DUP2 GT ISZERO PUSH2 0x6BD JUMPI PUSH2 0x6BC PUSH2 0x99D JUMP JUMPDEST JUMPDEST PUSH2 0x6C9 DUP5 DUP3 DUP6 ADD PUSH2 0x62E JUMP JUMPDEST SWAP2 POP POP SWAP3 SWAP2 POP POP JUMP JUMPDEST PUSH1 0x0 DUP1 PUSH1 0x0 DUP1 PUSH1 0x80 DUP6 DUP8 SUB SLT ISZERO PUSH2 0x6EC JUMPI PUSH2 0x6EB PUSH2 0x9A2 JUMP JUMPDEST JUMPDEST PUSH1 0x0 DUP6 ADD CALLDATALOAD PUSH8 0xFFFFFFFFFFFFFFFF DUP2 GT ISZERO PUSH2 0x70A JUMPI PUSH2 0x709 PUSH2 0x99D JUMP JUMPDEST JUMPDEST PUSH2 0x716 DUP8 DUP3 DUP9 ADD PUSH2 0x62E JUMP JUMPDEST SWAP5 POP POP PUSH1 0x20 DUP6 ADD CALLDATALOAD PUSH8 0xFFFFFFFFFFFFFFFF DUP2 GT ISZERO PUSH2 0x737 JUMPI PUSH2 0x736 PUSH2 0x99D JUMP JUMPDEST JUMPDEST PUSH2 0x743 DUP8 DUP3 DUP9 ADD PUSH2 0x62E JUMP JUMPDEST SWAP4 POP POP PUSH1 0x40 DUP6 ADD CALLDATALOAD PUSH8 0xFFFFFFFFFFFFFFFF DUP2 GT ISZERO PUSH2 0x764 JUMPI PUSH2 0x763 PUSH2 0x99D JUMP JUMPDEST JUMPDEST PUSH2 0x770 DUP8 DUP3 DUP9 ADD PUSH2 0x62E JUMP JUMPDEST SWAP3 POP POP PUSH1 0x60 PUSH2 0x781 DUP8 DUP3 DUP9 ADD PUSH2 0x619 JUMP JUMPDEST SWAP2 POP POP SWAP3 SWAP6 SWAP2 SWAP5 POP SWAP3 POP JUMP JUMPDEST PUSH2 0x796 DUP2 PUSH2 0x884 JUMP JUMPDEST DUP3 MSTORE POP POP JUMP JUMPDEST PUSH1 0x0 PUSH2 0x7A7 DUP3 PUSH2 0x868 JUMP JUMPDEST PUSH2 0x7B1 DUP2 DUP6 PUSH2 0x873 JUMP JUMPDEST SWAP4 POP PUSH2 0x7C1 DUP2 DUP6 PUSH1 0x20 DUP7 ADD PUSH2 0x89F JUMP JUMPDEST PUSH2 0x7CA DUP2 PUSH2 0x9A7 JUMP JUMPDEST DUP5 ADD SWAP2 POP POP SWAP3 SWAP2 POP POP JUMP JUMPDEST PUSH1 0x0 PUSH1 0x20 DUP3 ADD SWAP1 POP PUSH2 0x7EA PUSH1 0x0 DUP4 ADD DUP5 PUSH2 0x78D JUMP JUMPDEST SWAP3 SWAP2 POP POP JUMP JUMPDEST PUSH1 0x0 PUSH1 0x20 DUP3 ADD SWAP1 POP DUP2 DUP2 SUB PUSH1 0x0 DUP4 ADD MSTORE PUSH2 0x80A DUP2 DUP5 PUSH2 0x79C JUMP JUMPDEST SWAP1 POP SWAP3 SWAP2 POP POP JUMP JUMPDEST PUSH1 0x0 PUSH2 0x81C PUSH2 0x82D JUMP JUMPDEST SWAP1 POP PUSH2 0x828 DUP3 DUP3 PUSH2 0x904 JUMP JUMPDEST SWAP2 SWAP1 POP JUMP JUMPDEST PUSH1 0x0 PUSH1 0x40 MLOAD SWAP1 POP SWAP1 JUMP JUMPDEST PUSH1 0x0 PUSH8 0xFFFFFFFFFFFFFFFF DUP3 GT ISZERO PUSH2 0x852 JUMPI PUSH2 0x851 PUSH2 0x964 JUMP JUMPDEST JUMPDEST PUSH2 0x85B DUP3 PUSH2 0x9A7 JUMP JUMPDEST SWAP1 POP PUSH1 0x20 DUP2 ADD SWAP1 POP SWAP2 SWAP1 POP JUMP JUMPDEST PUSH1 0x0 DUP2 MLOAD SWAP1 POP SWAP2 SWAP1 POP JUMP JUMPDEST PUSH1 0x0 DUP3 DUP3 MSTORE PUSH1 0x20 DUP3 ADD SWAP1 POP SWAP3 SWAP2 POP POP JUMP JUMPDEST PUSH1 0x0 DUP2 ISZERO ISZERO SWAP1 POP SWAP2 SWAP1 POP JUMP JUMPDEST DUP3 DUP2 DUP4 CALLDATACOPY PUSH1 0x0 DUP4 DUP4 ADD MSTORE POP POP POP JUMP JUMPDEST PUSH1 0x0 JUMPDEST DUP4 DUP2 LT ISZERO PUSH2 0x8BD JUMPI DUP1 DUP3 ADD MLOAD DUP2 DUP5 ADD MSTORE PUSH1 0x20 DUP2 ADD SWAP1 POP PUSH2 0x8A2 JUMP JUMPDEST DUP4 DUP2 GT ISZERO PUSH2 0x8CC JUMPI PUSH1 0x0 DUP5 DUP5 ADD MSTORE JUMPDEST POP POP POP POP JUMP JUMPDEST PUSH1 0x0 PUSH1 0x2 DUP3 DIV SWAP1 POP PUSH1 0x1 DUP3 AND DUP1 PUSH2 0x8EA JUMPI PUSH1 0x7F DUP3 AND SWAP2 POP JUMPDEST PUSH1 0x20 DUP3 LT DUP2 EQ ISZERO PUSH2 0x8FE JUMPI PUSH2 0x8FD PUSH2 0x935 JUMP JUMPDEST JUMPDEST POP SWAP2 SWAP1 POP JUMP JUMPDEST PUSH2 0x90D DUP3 PUSH2 0x9A7 JUMP JUMPDEST DUP2 ADD DUP2 DUP2 LT PUSH8 0xFFFFFFFFFFFFFFFF DUP3 GT OR ISZERO PUSH2 0x92C JUMPI PUSH2 0x92B PUSH2 0x964 JUMP JUMPDEST JUMPDEST DUP1 PUSH1 0x40 MSTORE POP POP POP JUMP JUMPDEST PUSH32 0x4E487B7100000000000000000000000000000000000000000000000000000000 PUSH1 0x0 MSTORE PUSH1 0x22 PUSH1 0x4 MSTORE PUSH1 0x24 PUSH1 0x0 REVERT JUMPDEST PUSH32 0x4E487B7100000000000000000000000000000000000000000000000000000000 PUSH1 0x0 MSTORE PUSH1 0x41 PUSH1 0x4 MSTORE PUSH1 0x24 PUSH1 0x0 REVERT JUMPDEST PUSH1 0x0 DUP1 REVERT JUMPDEST PUSH1 0x0 DUP1 REVERT JUMPDEST PUSH1 0x0 DUP1 REVERT JUMPDEST PUSH1 0x0 DUP1 REVERT JUMPDEST PUSH1 0x0 PUSH1 0x1F NOT PUSH1 0x1F DUP4 ADD AND SWAP1 POP SWAP2 SWAP1 POP JUMP JUMPDEST PUSH2 0x9C1 DUP2 PUSH2 0x884 JUMP JUMPDEST DUP2 EQ PUSH2 0x9CC JUMPI PUSH1 0x0 DUP1 REVERT JUMPDEST POP JUMP INVALID LOG2 PUSH5 0x6970667358 0x22 SLT KECCAK256 NOT PUSH7 0xBA019D72468F35 SUB BYTE 0xAB PUSH10 0xA486A0D3EAFE3E64861 0xE5 0xCE 0x4A PUSH22 0x16C1B45DE264736F6C63430008070033000000000000 "
				},
				"gasEstimates": {
					"creation": {
						"codeDepositCost": "513000",
						"executionCost": "infinite",
						"totalCost": "infinite"
					},
					"external": {
						"getActive()": "2480",
						"getFieldDescription()": "infinite",
						"getLatitude()": "infinite",
						"getLongitude()": "infinite",
						"getObservation()": "infinite",
						"setActive(bool)": "24745",
						"setFieldDescription(string)": "infinite",
						"setLatitude(string)": "infinite",
						"setLongitude(string)": "infinite",
						"setObservation(string)": "infinite",
						"updateField(string,string,string,bool)": "infinite"
					}
				},
				"methodIdentifiers": {
					"getActive()": "009ebb10",
					"getFieldDescription()": "72d7e3da",
					"getLatitude()": "ae7b6bd9",
					"getLongitude()": "55b72f38",
					"getObservation()": "6b2b1ab9",
					"setActive(bool)": "acec338a",
					"setFieldDescription(string)": "91231eab",
					"setLatitude(string)": "7fd8454b",
					"setLongitude(string)": "af14363f",
					"setObservation(string)": "2e25fa47",
					"updateField(string,string,string,bool)": "61937300"
				}
			},
			"storageLayout": {
				"storage": [
					{
						"astId": 3,
						"contract": "contracts/Field.sol:Field",
						"label": "fieldDescription",
						"offset": 0,
						"slot": "0",
						"type": "t_string_storage"
					},
					{
						"astId": 5,
						"contract": "contracts/Field.sol:Field",
						"label": "latitude",
						"offset": 0,
						"slot": "1",
						"type": "t_string_storage"
					},
					{
						"astId": 7,
						"contract": "contracts/Field.sol:Field",
						"label": "longitude",
						"offset": 0,
						"slot": "2",
						"type": "t_string_storage"
					},
					{
						"astId": 9,
						"contract": "contracts/Field.sol:Field",
						"label": "active",
						"offset": 0,
						"slot": "3",
						"type": "t_bool"
					},
					{
						"astId": 11,
						"contract": "contracts/Field.sol:Field",
						"label": "observation",
						"offset": 0,
						"slot": "4",
						"type": "t_string_storage"
					}
				],
				"types": {
					"t_bool": {
						"encoding": "inplace",
						"label": "bool",
						"numberOfBytes": "1"
					},
					"t_string_storage": {
						"encoding": "bytes",
						"label": "string",
						"numberOfBytes": "32"
					}
				}
			},
			"userdoc": {
				"kind": "user",
				"methods": {},
				"version": 1
			}
		}
	}
}