{
	"data": {
		"bytecode": {
			"linkReferences": {},
			"object": "60806040523480156200001157600080fd5b5060405162000cdc38038062000cdc8339818101604052810190620000379190620001d6565b85600081905550846001819055508360028190555082600390805190602001906200006492919062000091565b508160048190555080600590805190602001906200008492919062000091565b5050505050505062000458565b8280546200009f906200034f565b90600052602060002090601f016020900481019282620000c357600085556200010f565b82601f10620000de57805160ff19168380011785556200010f565b828001600101855582156200010f579182015b828111156200010e578251825591602001919060010190620000f1565b5b5090506200011e919062000122565b5090565b5b808211156200013d57600081600090555060010162000123565b5090565b6000620001586200015284620002d9565b620002b0565b9050828152602081018484840111156200017757620001766200041e565b5b6200018484828562000319565b509392505050565b600082601f830112620001a457620001a362000419565b5b8151620001b684826020860162000141565b91505092915050565b600081519050620001d0816200043e565b92915050565b60008060008060008060c08789031215620001f657620001f562000428565b5b60006200020689828a01620001bf565b96505060206200021989828a01620001bf565b95505060406200022c89828a01620001bf565b945050606087015167ffffffffffffffff81111562000250576200024f62000423565b5b6200025e89828a016200018c565b93505060806200027189828a01620001bf565b92505060a087015167ffffffffffffffff81111562000295576200029462000423565b5b620002a389828a016200018c565b9150509295509295509295565b6000620002bc620002cf565b9050620002ca828262000385565b919050565b6000604051905090565b600067ffffffffffffffff821115620002f757620002f6620003ea565b5b62000302826200042d565b9050602081019050919050565b6000819050919050565b60005b83811015620003395780820151818401526020810190506200031c565b8381111562000349576000848401525b50505050565b600060028204905060018216806200036857607f821691505b602082108114156200037f576200037e620003bb565b5b50919050565b62000390826200042d565b810181811067ffffffffffffffff82111715620003b257620003b1620003ea565b5b80604052505050565b7f4e487b7100000000000000000000000000000000000000000000000000000000600052602260045260246000fd5b7f4e487b7100000000000000000000000000000000000000000000000000000000600052604160045260246000fd5b600080fd5b600080fd5b600080fd5b600080fd5b6000601f19601f8301169050919050565b62000449816200030f565b81146200045557600080fd5b50565b61087480620004686000396000f3fe608060405234801561001057600080fd5b50600436106100cf5760003560e01c806358a1bb321161008c578063a1414bfb11610066578063a1414bfb146101d8578063bd3e19d4146101f4578063c2d64e7314610212578063cd3f7cc014610230576100cf565b806358a1bb32146101825780636b2b1ab91461019e57806391769b47146101bc576100cf565b80630a550ef3146100d45780632b843201146100f25780632e25fa4714610110578063433d1e681461012c57806344a0d68a1461014857806354cc273914610164575b600080fd5b6100dc61024c565b6040516100e99190610668565b60405180910390f35b6100fa610255565b6040516101079190610668565b60405180910390f35b61012a60048036038101906101259190610535565b61025f565b005b6101466004803603810190610141919061057e565b610279565b005b610162600480360381019061015d919061057e565b610283565b005b61016c61028d565b6040516101799190610646565b60405180910390f35b61019c60048036038101906101979190610535565b61031f565b005b6101a6610339565b6040516101b39190610646565b60405180910390f35b6101d660048036038101906101d1919061057e565b6103cb565b005b6101f260048036038101906101ed919061057e565b6103d5565b005b6101fc6103df565b6040516102099190610668565b60405180910390f35b61021a6103e9565b6040516102279190610668565b60405180910390f35b61024a600480360381019061024591906105ab565b6103f3565b005b60008054905090565b6000600254905090565b806005908051906020019061027592919061040d565b5050565b8060018190555050565b8060048190555050565b60606003805461029c90610741565b80601f01602080910402602001604051908101604052809291908181526020018280546102c890610741565b80156103155780601f106102ea57610100808354040283529160200191610315565b820191906000526020600020905b8154815290600101906020018083116102f857829003601f168201915b5050505050905090565b806003908051906020019061033592919061040d565b5050565b60606005805461034890610741565b80601f016020809104026020016040519081016040528092919081815260200182805461037490610741565b80156103c15780601f10610396576101008083540402835291602001916103c1565b820191906000526020600020905b8154815290600101906020018083116103a457829003601f168201915b5050505050905090565b8060028190555050565b8060008190555050565b6000600454905090565b6000600154905090565b826000819055508160018190555080600281905550505050565b82805461041990610741565b90600052602060002090601f01602090048101928261043b5760008555610482565b82601f1061045457805160ff1916838001178555610482565b82800160010185558215610482579182015b82811115610481578251825591602001919060010190610466565b5b50905061048f9190610493565b5090565b5b808211156104ac576000816000905550600101610494565b5090565b60006104c36104be846106a8565b610683565b9050828152602081018484840111156104df576104de610807565b5b6104ea8482856106ff565b509392505050565b600082601f83011261050757610506610802565b5b81356105178482602086016104b0565b91505092915050565b60008135905061052f81610827565b92915050565b60006020828403121561054b5761054a610811565b5b600082013567ffffffffffffffff8111156105695761056861080c565b5b610575848285016104f2565b91505092915050565b60006020828403121561059457610593610811565b5b60006105a284828501610520565b91505092915050565b6000806000606084860312156105c4576105c3610811565b5b60006105d286828701610520565b93505060206105e386828701610520565b92505060406105f486828701610520565b9150509250925092565b6000610609826106d9565b61061381856106e4565b935061062381856020860161070e565b61062c81610816565b840191505092915050565b610640816106f5565b82525050565b6000602082019050818103600083015261066081846105fe565b905092915050565b600060208201905061067d6000830184610637565b92915050565b600061068d61069e565b90506106998282610773565b919050565b6000604051905090565b600067ffffffffffffffff8211156106c3576106c26107d3565b5b6106cc82610816565b9050602081019050919050565b600081519050919050565b600082825260208201905092915050565b6000819050919050565b82818337600083830152505050565b60005b8381101561072c578082015181840152602081019050610711565b8381111561073b576000848401525b50505050565b6000600282049050600182168061075957607f821691505b6020821081141561076d5761076c6107a4565b5b50919050565b61077c82610816565b810181811067ffffffffffffffff8211171561079b5761079a6107d3565b5b80604052505050565b7f4e487b7100000000000000000000000000000000000000000000000000000000600052602260045260246000fd5b7f4e487b7100000000000000000000000000000000000000000000000000000000600052604160045260246000fd5b600080fd5b600080fd5b600080fd5b600080fd5b6000601f19601f8301169050919050565b610830816106f5565b811461083b57600080fd5b5056fea2646970667358221220bd13526ecb5e9a2ce268f2d8db5442292d43108ca8416c452698532b71e7983b64736f6c63430008070033",
			"opcodes": "PUSH1 0x80 PUSH1 0x40 MSTORE CALLVALUE DUP1 ISZERO PUSH3 0x11 JUMPI PUSH1 0x0 DUP1 REVERT JUMPDEST POP PUSH1 0x40 MLOAD PUSH3 0xCDC CODESIZE SUB DUP1 PUSH3 0xCDC DUP4 CODECOPY DUP2 DUP2 ADD PUSH1 0x40 MSTORE DUP2 ADD SWAP1 PUSH3 0x37 SWAP2 SWAP1 PUSH3 0x1D6 JUMP JUMPDEST DUP6 PUSH1 0x0 DUP2 SWAP1 SSTORE POP DUP5 PUSH1 0x1 DUP2 SWAP1 SSTORE POP DUP4 PUSH1 0x2 DUP2 SWAP1 SSTORE POP DUP3 PUSH1 0x3 SWAP1 DUP1 MLOAD SWAP1 PUSH1 0x20 ADD SWAP1 PUSH3 0x64 SWAP3 SWAP2 SWAP1 PUSH3 0x91 JUMP JUMPDEST POP DUP2 PUSH1 0x4 DUP2 SWAP1 SSTORE POP DUP1 PUSH1 0x5 SWAP1 DUP1 MLOAD SWAP1 PUSH1 0x20 ADD SWAP1 PUSH3 0x84 SWAP3 SWAP2 SWAP1 PUSH3 0x91 JUMP JUMPDEST POP POP POP POP POP POP POP PUSH3 0x458 JUMP JUMPDEST DUP3 DUP1 SLOAD PUSH3 0x9F SWAP1 PUSH3 0x34F JUMP JUMPDEST SWAP1 PUSH1 0x0 MSTORE PUSH1 0x20 PUSH1 0x0 KECCAK256 SWAP1 PUSH1 0x1F ADD PUSH1 0x20 SWAP1 DIV DUP2 ADD SWAP3 DUP3 PUSH3 0xC3 JUMPI PUSH1 0x0 DUP6 SSTORE PUSH3 0x10F JUMP JUMPDEST DUP3 PUSH1 0x1F LT PUSH3 0xDE JUMPI DUP1 MLOAD PUSH1 0xFF NOT AND DUP4 DUP1 ADD OR DUP6 SSTORE PUSH3 0x10F JUMP JUMPDEST DUP3 DUP1 ADD PUSH1 0x1 ADD DUP6 SSTORE DUP3 ISZERO PUSH3 0x10F JUMPI SWAP2 DUP3 ADD JUMPDEST DUP3 DUP2 GT ISZERO PUSH3 0x10E JUMPI DUP3 MLOAD DUP3 SSTORE SWAP2 PUSH1 0x20 ADD SWAP2 SWAP1 PUSH1 0x1 ADD SWAP1 PUSH3 0xF1 JUMP JUMPDEST JUMPDEST POP SWAP1 POP PUSH3 0x11E SWAP2 SWAP1 PUSH3 0x122 JUMP JUMPDEST POP SWAP1 JUMP JUMPDEST JUMPDEST DUP1 DUP3 GT ISZERO PUSH3 0x13D JUMPI PUSH1 0x0 DUP2 PUSH1 0x0 SWAP1 SSTORE POP PUSH1 0x1 ADD PUSH3 0x123 JUMP JUMPDEST POP SWAP1 JUMP JUMPDEST PUSH1 0x0 PUSH3 0x158 PUSH3 0x152 DUP5 PUSH3 0x2D9 JUMP JUMPDEST PUSH3 0x2B0 JUMP JUMPDEST SWAP1 POP DUP3 DUP2 MSTORE PUSH1 0x20 DUP2 ADD DUP5 DUP5 DUP5 ADD GT ISZERO PUSH3 0x177 JUMPI PUSH3 0x176 PUSH3 0x41E JUMP JUMPDEST JUMPDEST PUSH3 0x184 DUP5 DUP3 DUP6 PUSH3 0x319 JUMP JUMPDEST POP SWAP4 SWAP3 POP POP POP JUMP JUMPDEST PUSH1 0x0 DUP3 PUSH1 0x1F DUP4 ADD SLT PUSH3 0x1A4 JUMPI PUSH3 0x1A3 PUSH3 0x419 JUMP JUMPDEST JUMPDEST DUP2 MLOAD PUSH3 0x1B6 DUP5 DUP3 PUSH1 0x20 DUP7 ADD PUSH3 0x141 JUMP JUMPDEST SWAP2 POP POP SWAP3 SWAP2 POP POP JUMP JUMPDEST PUSH1 0x0 DUP2 MLOAD SWAP1 POP PUSH3 0x1D0 DUP2 PUSH3 0x43E JUMP JUMPDEST SWAP3 SWAP2 POP POP JUMP JUMPDEST PUSH1 0x0 DUP1 PUSH1 0x0 DUP1 PUSH1 0x0 DUP1 PUSH1 0xC0 DUP8 DUP10 SUB SLT ISZERO PUSH3 0x1F6 JUMPI PUSH3 0x1F5 PUSH3 0x428 JUMP JUMPDEST JUMPDEST PUSH1 0x0 PUSH3 0x206 DUP10 DUP3 DUP11 ADD PUSH3 0x1BF JUMP JUMPDEST SWAP7 POP POP PUSH1 0x20 PUSH3 0x219 DUP10 DUP3 DUP11 ADD PUSH3 0x1BF JUMP JUMPDEST SWAP6 POP POP PUSH1 0x40 PUSH3 0x22C DUP10 DUP3 DUP11 ADD PUSH3 0x1BF JUMP JUMPDEST SWAP5 POP POP PUSH1 0x60 DUP8 ADD MLOAD PUSH8 0xFFFFFFFFFFFFFFFF DUP2 GT ISZERO PUSH3 0x250 JUMPI PUSH3 0x24F PUSH3 0x423 JUMP JUMPDEST JUMPDEST PUSH3 0x25E DUP10 DUP3 DUP11 ADD PUSH3 0x18C JUMP JUMPDEST SWAP4 POP POP PUSH1 0x80 PUSH3 0x271 DUP10 DUP3 DUP11 ADD PUSH3 0x1BF JUMP JUMPDEST SWAP3 POP POP PUSH1 0xA0 DUP8 ADD MLOAD PUSH8 0xFFFFFFFFFFFFFFFF DUP2 GT ISZERO PUSH3 0x295 JUMPI PUSH3 0x294 PUSH3 0x423 JUMP JUMPDEST JUMPDEST PUSH3 0x2A3 DUP10 DUP3 DUP11 ADD PUSH3 0x18C JUMP JUMPDEST SWAP2 POP POP SWAP3 SWAP6 POP SWAP3 SWAP6 POP SWAP3 SWAP6 JUMP JUMPDEST PUSH1 0x0 PUSH3 0x2BC PUSH3 0x2CF JUMP JUMPDEST SWAP1 POP PUSH3 0x2CA DUP3 DUP3 PUSH3 0x385 JUMP JUMPDEST SWAP2 SWAP1 POP JUMP JUMPDEST PUSH1 0x0 PUSH1 0x40 MLOAD SWAP1 POP SWAP1 JUMP JUMPDEST PUSH1 0x0 PUSH8 0xFFFFFFFFFFFFFFFF DUP3 GT ISZERO PUSH3 0x2F7 JUMPI PUSH3 0x2F6 PUSH3 0x3EA JUMP JUMPDEST JUMPDEST PUSH3 0x302 DUP3 PUSH3 0x42D JUMP JUMPDEST SWAP1 POP PUSH1 0x20 DUP2 ADD SWAP1 POP SWAP2 SWAP1 POP JUMP JUMPDEST PUSH1 0x0 DUP2 SWAP1 POP SWAP2 SWAP1 POP JUMP JUMPDEST PUSH1 0x0 JUMPDEST DUP4 DUP2 LT ISZERO PUSH3 0x339 JUMPI DUP1 DUP3 ADD MLOAD DUP2 DUP5 ADD MSTORE PUSH1 0x20 DUP2 ADD SWAP1 POP PUSH3 0x31C JUMP JUMPDEST DUP4 DUP2 GT ISZERO PUSH3 0x349 JUMPI PUSH1 0x0 DUP5 DUP5 ADD MSTORE JUMPDEST POP POP POP POP JUMP JUMPDEST PUSH1 0x0 PUSH1 0x2 DUP3 DIV SWAP1 POP PUSH1 0x1 DUP3 AND DUP1 PUSH3 0x368 JUMPI PUSH1 0x7F DUP3 AND SWAP2 POP JUMPDEST PUSH1 0x20 DUP3 LT DUP2 EQ ISZERO PUSH3 0x37F JUMPI PUSH3 0x37E PUSH3 0x3BB JUMP JUMPDEST JUMPDEST POP SWAP2 SWAP1 POP JUMP JUMPDEST PUSH3 0x390 DUP3 PUSH3 0x42D JUMP JUMPDEST DUP2 ADD DUP2 DUP2 LT PUSH8 0xFFFFFFFFFFFFFFFF DUP3 GT OR ISZERO PUSH3 0x3B2 JUMPI PUSH3 0x3B1 PUSH3 0x3EA JUMP JUMPDEST JUMPDEST DUP1 PUSH1 0x40 MSTORE POP POP POP JUMP JUMPDEST PUSH32 0x4E487B7100000000000000000000000000000000000000000000000000000000 PUSH1 0x0 MSTORE PUSH1 0x22 PUSH1 0x4 MSTORE PUSH1 0x24 PUSH1 0x0 REVERT JUMPDEST PUSH32 0x4E487B7100000000000000000000000000000000000000000000000000000000 PUSH1 0x0 MSTORE PUSH1 0x41 PUSH1 0x4 MSTORE PUSH1 0x24 PUSH1 0x0 REVERT JUMPDEST PUSH1 0x0 DUP1 REVERT JUMPDEST PUSH1 0x0 DUP1 REVERT JUMPDEST PUSH1 0x0 DUP1 REVERT JUMPDEST PUSH1 0x0 DUP1 REVERT JUMPDEST PUSH1 0x0 PUSH1 0x1F NOT PUSH1 0x1F DUP4 ADD AND SWAP1 POP SWAP2 SWAP1 POP JUMP JUMPDEST PUSH3 0x449 DUP2 PUSH3 0x30F JUMP JUMPDEST DUP2 EQ PUSH3 0x455 JUMPI PUSH1 0x0 DUP1 REVERT JUMPDEST POP JUMP JUMPDEST PUSH2 0x874 DUP1 PUSH3 0x468 PUSH1 0x0 CODECOPY PUSH1 0x0 RETURN INVALID PUSH1 0x80 PUSH1 0x40 MSTORE CALLVALUE DUP1 ISZERO PUSH2 0x10 JUMPI PUSH1 0x0 DUP1 REVERT JUMPDEST POP PUSH1 0x4 CALLDATASIZE LT PUSH2 0xCF JUMPI PUSH1 0x0 CALLDATALOAD PUSH1 0xE0 SHR DUP1 PUSH4 0x58A1BB32 GT PUSH2 0x8C JUMPI DUP1 PUSH4 0xA1414BFB GT PUSH2 0x66 JUMPI DUP1 PUSH4 0xA1414BFB EQ PUSH2 0x1D8 JUMPI DUP1 PUSH4 0xBD3E19D4 EQ PUSH2 0x1F4 JUMPI DUP1 PUSH4 0xC2D64E73 EQ PUSH2 0x212 JUMPI DUP1 PUSH4 0xCD3F7CC0 EQ PUSH2 0x230 JUMPI PUSH2 0xCF JUMP JUMPDEST DUP1 PUSH4 0x58A1BB32 EQ PUSH2 0x182 JUMPI DUP1 PUSH4 0x6B2B1AB9 EQ PUSH2 0x19E JUMPI DUP1 PUSH4 0x91769B47 EQ PUSH2 0x1BC JUMPI PUSH2 0xCF JUMP JUMPDEST DUP1 PUSH4 0xA550EF3 EQ PUSH2 0xD4 JUMPI DUP1 PUSH4 0x2B843201 EQ PUSH2 0xF2 JUMPI DUP1 PUSH4 0x2E25FA47 EQ PUSH2 0x110 JUMPI DUP1 PUSH4 0x433D1E68 EQ PUSH2 0x12C JUMPI DUP1 PUSH4 0x44A0D68A EQ PUSH2 0x148 JUMPI DUP1 PUSH4 0x54CC2739 EQ PUSH2 0x164 JUMPI JUMPDEST PUSH1 0x0 DUP1 REVERT JUMPDEST PUSH2 0xDC PUSH2 0x24C JUMP JUMPDEST PUSH1 0x40 MLOAD PUSH2 0xE9 SWAP2 SWAP1 PUSH2 0x668 JUMP JUMPDEST PUSH1 0x40 MLOAD DUP1 SWAP2 SUB SWAP1 RETURN JUMPDEST PUSH2 0xFA PUSH2 0x255 JUMP JUMPDEST PUSH1 0x40 MLOAD PUSH2 0x107 SWAP2 SWAP1 PUSH2 0x668 JUMP JUMPDEST PUSH1 0x40 MLOAD DUP1 SWAP2 SUB SWAP1 RETURN JUMPDEST PUSH2 0x12A PUSH1 0x4 DUP1 CALLDATASIZE SUB DUP2 ADD SWAP1 PUSH2 0x125 SWAP2 SWAP1 PUSH2 0x535 JUMP JUMPDEST PUSH2 0x25F JUMP JUMPDEST STOP JUMPDEST PUSH2 0x146 PUSH1 0x4 DUP1 CALLDATASIZE SUB DUP2 ADD SWAP1 PUSH2 0x141 SWAP2 SWAP1 PUSH2 0x57E JUMP JUMPDEST PUSH2 0x279 JUMP JUMPDEST STOP JUMPDEST PUSH2 0x162 PUSH1 0x4 DUP1 CALLDATASIZE SUB DUP2 ADD SWAP1 PUSH2 0x15D SWAP2 SWAP1 PUSH2 0x57E JUMP JUMPDEST PUSH2 0x283 JUMP JUMPDEST STOP JUMPDEST PUSH2 0x16C PUSH2 0x28D JUMP JUMPDEST PUSH1 0x40 MLOAD PUSH2 0x179 SWAP2 SWAP1 PUSH2 0x646 JUMP JUMPDEST PUSH1 0x40 MLOAD DUP1 SWAP2 SUB SWAP1 RETURN JUMPDEST PUSH2 0x19C PUSH1 0x4 DUP1 CALLDATASIZE SUB DUP2 ADD SWAP1 PUSH2 0x197 SWAP2 SWAP1 PUSH2 0x535 JUMP JUMPDEST PUSH2 0x31F JUMP JUMPDEST STOP JUMPDEST PUSH2 0x1A6 PUSH2 0x339 JUMP JUMPDEST PUSH1 0x40 MLOAD PUSH2 0x1B3 SWAP2 SWAP1 PUSH2 0x646 JUMP JUMPDEST PUSH1 0x40 MLOAD DUP1 SWAP2 SUB SWAP1 RETURN JUMPDEST PUSH2 0x1D6 PUSH1 0x4 DUP1 CALLDATASIZE SUB DUP2 ADD SWAP1 PUSH2 0x1D1 SWAP2 SWAP1 PUSH2 0x57E JUMP JUMPDEST PUSH2 0x3CB JUMP JUMPDEST STOP JUMPDEST PUSH2 0x1F2 PUSH1 0x4 DUP1 CALLDATASIZE SUB DUP2 ADD SWAP1 PUSH2 0x1ED SWAP2 SWAP1 PUSH2 0x57E JUMP JUMPDEST PUSH2 0x3D5 JUMP JUMPDEST STOP JUMPDEST PUSH2 0x1FC PUSH2 0x3DF JUMP JUMPDEST PUSH1 0x40 MLOAD PUSH2 0x209 SWAP2 SWAP1 PUSH2 0x668 JUMP JUMPDEST PUSH1 0x40 MLOAD DUP1 SWAP2 SUB SWAP1 RETURN JUMPDEST PUSH2 0x21A PUSH2 0x3E9 JUMP JUMPDEST PUSH1 0x40 MLOAD PUSH2 0x227 SWAP2 SWAP1 PUSH2 0x668 JUMP JUMPDEST PUSH1 0x40 MLOAD DUP1 SWAP2 SUB SWAP1 RETURN JUMPDEST PUSH2 0x24A PUSH1 0x4 DUP1 CALLDATASIZE SUB DUP2 ADD SWAP1 PUSH2 0x245 SWAP2 SWAP1 PUSH2 0x5AB JUMP JUMPDEST PUSH2 0x3F3 JUMP JUMPDEST STOP JUMPDEST PUSH1 0x0 DUP1 SLOAD SWAP1 POP SWAP1 JUMP JUMPDEST PUSH1 0x0 PUSH1 0x2 SLOAD SWAP1 POP SWAP1 JUMP JUMPDEST DUP1 PUSH1 0x5 SWAP1 DUP1 MLOAD SWAP1 PUSH1 0x20 ADD SWAP1 PUSH2 0x275 SWAP3 SWAP2 SWAP1 PUSH2 0x40D JUMP JUMPDEST POP POP JUMP JUMPDEST DUP1 PUSH1 0x1 DUP2 SWAP1 SSTORE POP POP JUMP JUMPDEST DUP1 PUSH1 0x4 DUP2 SWAP1 SSTORE POP POP JUMP JUMPDEST PUSH1 0x60 PUSH1 0x3 DUP1 SLOAD PUSH2 0x29C SWAP1 PUSH2 0x741 JUMP JUMPDEST DUP1 PUSH1 0x1F ADD PUSH1 0x20 DUP1 SWAP2 DIV MUL PUSH1 0x20 ADD PUSH1 0x40 MLOAD SWAP1 DUP2 ADD PUSH1 0x40 MSTORE DUP1 SWAP3 SWAP2 SWAP1 DUP2 DUP2 MSTORE PUSH1 0x20 ADD DUP3 DUP1 SLOAD PUSH2 0x2C8 SWAP1 PUSH2 0x741 JUMP JUMPDEST DUP1 ISZERO PUSH2 0x315 JUMPI DUP1 PUSH1 0x1F LT PUSH2 0x2EA JUMPI PUSH2 0x100 DUP1 DUP4 SLOAD DIV MUL DUP4 MSTORE SWAP2 PUSH1 0x20 ADD SWAP2 PUSH2 0x315 JUMP JUMPDEST DUP3 ADD SWAP2 SWAP1 PUSH1 0x0 MSTORE PUSH1 0x20 PUSH1 0x0 KECCAK256 SWAP1 JUMPDEST DUP2 SLOAD DUP2 MSTORE SWAP1 PUSH1 0x1 ADD SWAP1 PUSH1 0x20 ADD DUP1 DUP4 GT PUSH2 0x2F8 JUMPI DUP3 SWAP1 SUB PUSH1 0x1F AND DUP3 ADD SWAP2 JUMPDEST POP POP POP POP POP SWAP1 POP SWAP1 JUMP JUMPDEST DUP1 PUSH1 0x3 SWAP1 DUP1 MLOAD SWAP1 PUSH1 0x20 ADD SWAP1 PUSH2 0x335 SWAP3 SWAP2 SWAP1 PUSH2 0x40D JUMP JUMPDEST POP POP JUMP JUMPDEST PUSH1 0x60 PUSH1 0x5 DUP1 SLOAD PUSH2 0x348 SWAP1 PUSH2 0x741 JUMP JUMPDEST DUP1 PUSH1 0x1F ADD PUSH1 0x20 DUP1 SWAP2 DIV MUL PUSH1 0x20 ADD PUSH1 0x40 MLOAD SWAP1 DUP2 ADD PUSH1 0x40 MSTORE DUP1 SWAP3 SWAP2 SWAP1 DUP2 DUP2 MSTORE PUSH1 0x20 ADD DUP3 DUP1 SLOAD PUSH2 0x374 SWAP1 PUSH2 0x741 JUMP JUMPDEST DUP1 ISZERO PUSH2 0x3C1 JUMPI DUP1 PUSH1 0x1F LT PUSH2 0x396 JUMPI PUSH2 0x100 DUP1 DUP4 SLOAD DIV MUL DUP4 MSTORE SWAP2 PUSH1 0x20 ADD SWAP2 PUSH2 0x3C1 JUMP JUMPDEST DUP3 ADD SWAP2 SWAP1 PUSH1 0x0 MSTORE PUSH1 0x20 PUSH1 0x0 KECCAK256 SWAP1 JUMPDEST DUP2 SLOAD DUP2 MSTORE SWAP1 PUSH1 0x1 ADD SWAP1 PUSH1 0x20 ADD DUP1 DUP4 GT PUSH2 0x3A4 JUMPI DUP3 SWAP1 SUB PUSH1 0x1F AND DUP3 ADD SWAP2 JUMPDEST POP POP POP POP POP SWAP1 POP SWAP1 JUMP JUMPDEST DUP1 PUSH1 0x2 DUP2 SWAP1 SSTORE POP POP JUMP JUMPDEST DUP1 PUSH1 0x0 DUP2 SWAP1 SSTORE POP POP JUMP JUMPDEST PUSH1 0x0 PUSH1 0x4 SLOAD SWAP1 POP SWAP1 JUMP JUMPDEST PUSH1 0x0 PUSH1 0x1 SLOAD SWAP1 POP SWAP1 JUMP JUMPDEST DUP3 PUSH1 0x0 DUP2 SWAP1 SSTORE POP DUP2 PUSH1 0x1 DUP2 SWAP1 SSTORE POP DUP1 PUSH1 0x2 DUP2 SWAP1 SSTORE POP POP POP POP JUMP JUMPDEST DUP3 DUP1 SLOAD PUSH2 0x419 SWAP1 PUSH2 0x741 JUMP JUMPDEST SWAP1 PUSH1 0x0 MSTORE PUSH1 0x20 PUSH1 0x0 KECCAK256 SWAP1 PUSH1 0x1F ADD PUSH1 0x20 SWAP1 DIV DUP2 ADD SWAP3 DUP3 PUSH2 0x43B JUMPI PUSH1 0x0 DUP6 SSTORE PUSH2 0x482 JUMP JUMPDEST DUP3 PUSH1 0x1F LT PUSH2 0x454 JUMPI DUP1 MLOAD PUSH1 0xFF NOT AND DUP4 DUP1 ADD OR DUP6 SSTORE PUSH2 0x482 JUMP JUMPDEST DUP3 DUP1 ADD PUSH1 0x1 ADD DUP6 SSTORE DUP3 ISZERO PUSH2 0x482 JUMPI SWAP2 DUP3 ADD JUMPDEST DUP3 DUP2 GT ISZERO PUSH2 0x481 JUMPI DUP3 MLOAD DUP3 SSTORE SWAP2 PUSH1 0x20 ADD SWAP2 SWAP1 PUSH1 0x1 ADD SWAP1 PUSH2 0x466 JUMP JUMPDEST JUMPDEST POP SWAP1 POP PUSH2 0x48F SWAP2 SWAP1 PUSH2 0x493 JUMP JUMPDEST POP SWAP1 JUMP JUMPDEST JUMPDEST DUP1 DUP3 GT ISZERO PUSH2 0x4AC JUMPI PUSH1 0x0 DUP2 PUSH1 0x0 SWAP1 SSTORE POP PUSH1 0x1 ADD PUSH2 0x494 JUMP JUMPDEST POP SWAP1 JUMP JUMPDEST PUSH1 0x0 PUSH2 0x4C3 PUSH2 0x4BE DUP5 PUSH2 0x6A8 JUMP JUMPDEST PUSH2 0x683 JUMP JUMPDEST SWAP1 POP DUP3 DUP2 MSTORE PUSH1 0x20 DUP2 ADD DUP5 DUP5 DUP5 ADD GT ISZERO PUSH2 0x4DF JUMPI PUSH2 0x4DE PUSH2 0x807 JUMP JUMPDEST JUMPDEST PUSH2 0x4EA DUP5 DUP3 DUP6 PUSH2 0x6FF JUMP JUMPDEST POP SWAP4 SWAP3 POP POP POP JUMP JUMPDEST PUSH1 0x0 DUP3 PUSH1 0x1F DUP4 ADD SLT PUSH2 0x507 JUMPI PUSH2 0x506 PUSH2 0x802 JUMP JUMPDEST JUMPDEST DUP2 CALLDATALOAD PUSH2 0x517 DUP5 DUP3 PUSH1 0x20 DUP7 ADD PUSH2 0x4B0 JUMP JUMPDEST SWAP2 POP POP SWAP3 SWAP2 POP POP JUMP JUMPDEST PUSH1 0x0 DUP2 CALLDATALOAD SWAP1 POP PUSH2 0x52F DUP2 PUSH2 0x827 JUMP JUMPDEST SWAP3 SWAP2 POP POP JUMP JUMPDEST PUSH1 0x0 PUSH1 0x20 DUP3 DUP5 SUB SLT ISZERO PUSH2 0x54B JUMPI PUSH2 0x54A PUSH2 0x811 JUMP JUMPDEST JUMPDEST PUSH1 0x0 DUP3 ADD CALLDATALOAD PUSH8 0xFFFFFFFFFFFFFFFF DUP2 GT ISZERO PUSH2 0x569 JUMPI PUSH2 0x568 PUSH2 0x80C JUMP JUMPDEST JUMPDEST PUSH2 0x575 DUP5 DUP3 DUP6 ADD PUSH2 0x4F2 JUMP JUMPDEST SWAP2 POP POP SWAP3 SWAP2 POP POP JUMP JUMPDEST PUSH1 0x0 PUSH1 0x20 DUP3 DUP5 SUB SLT ISZERO PUSH2 0x594 JUMPI PUSH2 0x593 PUSH2 0x811 JUMP JUMPDEST JUMPDEST PUSH1 0x0 PUSH2 0x5A2 DUP5 DUP3 DUP6 ADD PUSH2 0x520 JUMP JUMPDEST SWAP2 POP POP SWAP3 SWAP2 POP POP JUMP JUMPDEST PUSH1 0x0 DUP1 PUSH1 0x0 PUSH1 0x60 DUP5 DUP7 SUB SLT ISZERO PUSH2 0x5C4 JUMPI PUSH2 0x5C3 PUSH2 0x811 JUMP JUMPDEST JUMPDEST PUSH1 0x0 PUSH2 0x5D2 DUP7 DUP3 DUP8 ADD PUSH2 0x520 JUMP JUMPDEST SWAP4 POP POP PUSH1 0x20 PUSH2 0x5E3 DUP7 DUP3 DUP8 ADD PUSH2 0x520 JUMP JUMPDEST SWAP3 POP POP PUSH1 0x40 PUSH2 0x5F4 DUP7 DUP3 DUP8 ADD PUSH2 0x520 JUMP JUMPDEST SWAP2 POP POP SWAP3 POP SWAP3 POP SWAP3 JUMP JUMPDEST PUSH1 0x0 PUSH2 0x609 DUP3 PUSH2 0x6D9 JUMP JUMPDEST PUSH2 0x613 DUP2 DUP6 PUSH2 0x6E4 JUMP JUMPDEST SWAP4 POP PUSH2 0x623 DUP2 DUP6 PUSH1 0x20 DUP7 ADD PUSH2 0x70E JUMP JUMPDEST PUSH2 0x62C DUP2 PUSH2 0x816 JUMP JUMPDEST DUP5 ADD SWAP2 POP POP SWAP3 SWAP2 POP POP JUMP JUMPDEST PUSH2 0x640 DUP2 PUSH2 0x6F5 JUMP JUMPDEST DUP3 MSTORE POP POP JUMP JUMPDEST PUSH1 0x0 PUSH1 0x20 DUP3 ADD SWAP1 POP DUP2 DUP2 SUB PUSH1 0x0 DUP4 ADD MSTORE PUSH2 0x660 DUP2 DUP5 PUSH2 0x5FE JUMP JUMPDEST SWAP1 POP SWAP3 SWAP2 POP POP JUMP JUMPDEST PUSH1 0x0 PUSH1 0x20 DUP3 ADD SWAP1 POP PUSH2 0x67D PUSH1 0x0 DUP4 ADD DUP5 PUSH2 0x637 JUMP JUMPDEST SWAP3 SWAP2 POP POP JUMP JUMPDEST PUSH1 0x0 PUSH2 0x68D PUSH2 0x69E JUMP JUMPDEST SWAP1 POP PUSH2 0x699 DUP3 DUP3 PUSH2 0x773 JUMP JUMPDEST SWAP2 SWAP1 POP JUMP JUMPDEST PUSH1 0x0 PUSH1 0x40 MLOAD SWAP1 POP SWAP1 JUMP JUMPDEST PUSH1 0x0 PUSH8 0xFFFFFFFFFFFFFFFF DUP3 GT ISZERO PUSH2 0x6C3 JUMPI PUSH2 0x6C2 PUSH2 0x7D3 JUMP JUMPDEST JUMPDEST PUSH2 0x6CC DUP3 PUSH2 0x816 JUMP JUMPDEST SWAP1 POP PUSH1 0x20 DUP2 ADD SWAP1 POP SWAP2 SWAP1 POP JUMP JUMPDEST PUSH1 0x0 DUP2 MLOAD SWAP1 POP SWAP2 SWAP1 POP JUMP JUMPDEST PUSH1 0x0 DUP3 DUP3 MSTORE PUSH1 0x20 DUP3 ADD SWAP1 POP SWAP3 SWAP2 POP POP JUMP JUMPDEST PUSH1 0x0 DUP2 SWAP1 POP SWAP2 SWAP1 POP JUMP JUMPDEST DUP3 DUP2 DUP4 CALLDATACOPY PUSH1 0x0 DUP4 DUP4 ADD MSTORE POP POP POP JUMP JUMPDEST PUSH1 0x0 JUMPDEST DUP4 DUP2 LT ISZERO PUSH2 0x72C JUMPI DUP1 DUP3 ADD MLOAD DUP2 DUP5 ADD MSTORE PUSH1 0x20 DUP2 ADD SWAP1 POP PUSH2 0x711 JUMP JUMPDEST DUP4 DUP2 GT ISZERO PUSH2 0x73B JUMPI PUSH1 0x0 DUP5 DUP5 ADD MSTORE JUMPDEST POP POP POP POP JUMP JUMPDEST PUSH1 0x0 PUSH1 0x2 DUP3 DIV SWAP1 POP PUSH1 0x1 DUP3 AND DUP1 PUSH2 0x759 JUMPI PUSH1 0x7F DUP3 AND SWAP2 POP JUMPDEST PUSH1 0x20 DUP3 LT DUP2 EQ ISZERO PUSH2 0x76D JUMPI PUSH2 0x76C PUSH2 0x7A4 JUMP JUMPDEST JUMPDEST POP SWAP2 SWAP1 POP JUMP JUMPDEST PUSH2 0x77C DUP3 PUSH2 0x816 JUMP JUMPDEST DUP2 ADD DUP2 DUP2 LT PUSH8 0xFFFFFFFFFFFFFFFF DUP3 GT OR ISZERO PUSH2 0x79B JUMPI PUSH2 0x79A PUSH2 0x7D3 JUMP JUMPDEST JUMPDEST DUP1 PUSH1 0x40 MSTORE POP POP POP JUMP JUMPDEST PUSH32 0x4E487B7100000000000000000000000000000000000000000000000000000000 PUSH1 0x0 MSTORE PUSH1 0x22 PUSH1 0x4 MSTORE PUSH1 0x24 PUSH1 0x0 REVERT JUMPDEST PUSH32 0x4E487B7100000000000000000000000000000000000000000000000000000000 PUSH1 0x0 MSTORE PUSH1 0x41 PUSH1 0x4 MSTORE PUSH1 0x24 PUSH1 0x0 REVERT JUMPDEST PUSH1 0x0 DUP1 REVERT JUMPDEST PUSH1 0x0 DUP1 REVERT JUMPDEST PUSH1 0x0 DUP1 REVERT JUMPDEST PUSH1 0x0 DUP1 REVERT JUMPDEST PUSH1 0x0 PUSH1 0x1F NOT PUSH1 0x1F DUP4 ADD AND SWAP1 POP SWAP2 SWAP1 POP JUMP JUMPDEST PUSH2 0x830 DUP2 PUSH2 0x6F5 JUMP JUMPDEST DUP2 EQ PUSH2 0x83B JUMPI PUSH1 0x0 DUP1 REVERT JUMPDEST POP JUMP INVALID LOG2 PUSH5 0x6970667358 0x22 SLT KECCAK256 0xBD SGT MSTORE PUSH15 0xCB5E9A2CE268F2D8DB5442292D4310 DUP13 0xA8 COINBASE PUSH13 0x452698532B71E7983B64736F6C PUSH4 0x43000807 STOP CALLER "
		},
		"gasEstimates": {
			"creation": {
				"codeDepositCost": "432800",
				"executionCost": "infinite",
				"totalCost": "infinite"
			},
			"external": {
				"getAppointmentDate()": "2460",
				"getAppointmentType()": "infinite",
				"getCost()": "2481",
				"getIDBovine()": "2438",
				"getIDUser()": "2503",
				"getObservation()": "infinite",
				"setAppointmentDate(uint256)": "22587",
				"setAppointmentType(string)": "infinite",
				"setCost(uint256)": "22609",
				"setIDBovine(uint256)": "22542",
				"setIDUser(uint256)": "22587",
				"setObservation(string)": "infinite",
				"setUpdate(uint256,uint256,uint256)": "infinite"
			}
		},
		"methodIdentifiers": {
			"getAppointmentDate()": "2b843201",
			"getAppointmentType()": "54cc2739",
			"getCost()": "bd3e19d4",
			"getIDBovine()": "0a550ef3",
			"getIDUser()": "c2d64e73",
			"getObservation()": "6b2b1ab9",
			"setAppointmentDate(uint256)": "91769b47",
			"setAppointmentType(string)": "58a1bb32",
			"setCost(uint256)": "44a0d68a",
			"setIDBovine(uint256)": "a1414bfb",
			"setIDUser(uint256)": "433d1e68",
			"setObservation(string)": "2e25fa47",
			"setUpdate(uint256,uint256,uint256)": "cd3f7cc0"
		}
	},
	"abi": [
		{
			"inputs": [
				{
					"internalType": "uint256",
					"name": "_idBovine",
					"type": "uint256"
				},
				{
					"internalType": "uint256",
					"name": "_idUser",
					"type": "uint256"
				},
				{
					"internalType": "uint256",
					"name": "_appointmentDate",
					"type": "uint256"
				},
				{
					"internalType": "string",
					"name": "_appointmentType",
					"type": "string"
				},
				{
					"internalType": "uint256",
					"name": "_cost",
					"type": "uint256"
				},
				{
					"internalType": "string",
					"name": "_observation",
					"type": "string"
				}
			],
			"stateMutability": "nonpayable",
			"type": "constructor"
		},
		{
			"inputs": [],
			"name": "getAppointmentDate",
			"outputs": [
				{
					"internalType": "uint256",
					"name": "",
					"type": "uint256"
				}
			],
			"stateMutability": "view",
			"type": "function"
		},
		{
			"inputs": [],
			"name": "getAppointmentType",
			"outputs": [
				{
					"internalType": "string",
					"name": "",
					"type": "string"
				}
			],
			"stateMutability": "view",
			"type": "function"
		},
		{
			"inputs": [],
			"name": "getCost",
			"outputs": [
				{
					"internalType": "uint256",
					"name": "",
					"type": "uint256"
				}
			],
			"stateMutability": "view",
			"type": "function"
		},
		{
			"inputs": [],
			"name": "getIDBovine",
			"outputs": [
				{
					"internalType": "uint256",
					"name": "",
					"type": "uint256"
				}
			],
			"stateMutability": "view",
			"type": "function"
		},
		{
			"inputs": [],
			"name": "getIDUser",
			"outputs": [
				{
					"internalType": "uint256",
					"name": "",
					"type": "uint256"
				}
			],
			"stateMutability": "view",
			"type": "function"
		},
		{
			"inputs": [],
			"name": "getObservation",
			"outputs": [
				{
					"internalType": "string",
					"name": "",
					"type": "string"
				}
			],
			"stateMutability": "view",
			"type": "function"
		},
		{
			"inputs": [
				{
					"internalType": "uint256",
					"name": "_appointmentDate",
					"type": "uint256"
				}
			],
			"name": "setAppointmentDate",
			"outputs": [],
			"stateMutability": "nonpayable",
			"type": "function"
		},
		{
			"inputs": [
				{
					"internalType": "string",
					"name": "_appointmentType",
					"type": "string"
				}
			],
			"name": "setAppointmentType",
			"outputs": [],
			"stateMutability": "nonpayable",
			"type": "function"
		},
		{
			"inputs": [
				{
					"internalType": "uint256",
					"name": "_cost",
					"type": "uint256"
				}
			],
			"name": "setCost",
			"outputs": [],
			"stateMutability": "nonpayable",
			"type": "function"
		},
		{
			"inputs": [
				{
					"internalType": "uint256",
					"name": "_idBovine",
					"type": "uint256"
				}
			],
			"name": "setIDBovine",
			"outputs": [],
			"stateMutability": "nonpayable",
			"type": "function"
		},
		{
			"inputs": [
				{
					"internalType": "uint256",
					"name": "_idUser",
					"type": "uint256"
				}
			],
			"name": "setIDUser",
			"outputs": [],
			"stateMutability": "nonpayable",
			"type": "function"
		},
		{
			"inputs": [
				{
					"internalType": "string",
					"name": "_observation",
					"type": "string"
				}
			],
			"name": "setObservation",
			"outputs": [],
			"stateMutability": "nonpayable",
			"type": "function"
		},
		{
			"inputs": [
				{
					"internalType": "uint256",
					"name": "_idBovine",
					"type": "uint256"
				},
				{
					"internalType": "uint256",
					"name": "_idUser",
					"type": "uint256"
				},
				{
					"internalType": "uint256",
					"name": "_appointmentDate",
					"type": "uint256"
				}
			],
			"name": "setUpdate",
			"outputs": [],
			"stateMutability": "nonpayable",
			"type": "function"
		}
	]
}