{
	"data": {
		"bytecode": {
			"linkReferences": {},
			"object": "60806040523480156200001157600080fd5b50604051620010693803806200106983398181016040528101906200003791906200021f565b85600090805190602001906200004f929190620000da565b50846001908051906020019062000068929190620000da565b50836002908051906020019062000081929190620000da565b5082600360006101000a81548160ff0219169083151502179055508160049080519060200190620000b4929190620000da565b508060059080519060200190620000cd929190620000da565b5050505050505062000500565b828054620000e890620003f7565b90600052602060002090601f0160209004810192826200010c576000855562000158565b82601f106200012757805160ff191683800117855562000158565b8280016001018555821562000158579182015b82811115620001575782518255916020019190600101906200013a565b5b5090506200016791906200016b565b5090565b5b80821115620001865760008160009055506001016200016c565b5090565b6000620001a16200019b846200037f565b62000356565b905082815260208101848484011115620001c057620001bf620004c6565b5b620001cd848285620003c1565b509392505050565b600081519050620001e681620004e6565b92915050565b600082601f830112620002045762000203620004c1565b5b8151620002168482602086016200018a565b91505092915050565b60008060008060008060c087890312156200023f576200023e620004d0565b5b600087015167ffffffffffffffff81111562000260576200025f620004cb565b5b6200026e89828a01620001ec565b965050602087015167ffffffffffffffff811115620002925762000291620004cb565b5b620002a089828a01620001ec565b955050604087015167ffffffffffffffff811115620002c457620002c3620004cb565b5b620002d289828a01620001ec565b9450506060620002e589828a01620001d5565b935050608087015167ffffffffffffffff811115620003095762000308620004cb565b5b6200031789828a01620001ec565b92505060a087015167ffffffffffffffff8111156200033b576200033a620004cb565b5b6200034989828a01620001ec565b9150509295509295509295565b60006200036262000375565b90506200037082826200042d565b919050565b6000604051905090565b600067ffffffffffffffff8211156200039d576200039c62000492565b5b620003a882620004d5565b9050602081019050919050565b60008115159050919050565b60005b83811015620003e1578082015181840152602081019050620003c4565b83811115620003f1576000848401525b50505050565b600060028204905060018216806200041057607f821691505b6020821081141562000427576200042662000463565b5b50919050565b6200043882620004d5565b810181811067ffffffffffffffff821117156200045a576200045962000492565b5b80604052505050565b7f4e487b7100000000000000000000000000000000000000000000000000000000600052602260045260246000fd5b7f4e487b7100000000000000000000000000000000000000000000000000000000600052604160045260246000fd5b600080fd5b600080fd5b600080fd5b600080fd5b6000601f19601f8301169050919050565b620004f181620003b5565b8114620004fd57600080fd5b50565b610b5980620005106000396000f3fe608060405234801561001057600080fd5b50600436106100ce5760003560e01c80637fd8454b1161008c578063acec338a11610066578063acec338a146101d7578063ae7b6bd9146101f3578063af14363f14610211578063ea60994e1461022d576100ce565b80637fd8454b1461018357806391231eab1461019f578063ab990cba146101bb576100ce565b80629ebb10146100d35780630932a1aa146100f15780632e25fa471461010d57806355b72f38146101295780636b2b1ab91461014757806372d7e3da14610165575b600080fd5b6100db61024b565b6040516100e89190610929565b60405180910390f35b61010b600480360381019061010691906107ad565b610262565b005b610127600480360381019061012291906107ad565b61027c565b005b610131610296565b60405161013e9190610944565b60405180910390f35b61014f610328565b60405161015c9190610944565b60405180910390f35b61016d6103ba565b60405161017a9190610944565b60405180910390f35b61019d600480360381019061019891906107ad565b61044c565b005b6101b960048036038101906101b491906107ad565b610466565b005b6101d560048036038101906101d091906107f6565b610480565b005b6101f160048036038101906101ec9190610780565b6104fd565b005b6101fb61051a565b6040516102089190610944565b60405180910390f35b61022b600480360381019061022691906107ad565b6105ac565b005b6102356105c6565b6040516102429190610944565b60405180910390f35b6000600360009054906101000a900460ff16905090565b8060059080519060200190610278929190610658565b5050565b8060049080519060200190610292929190610658565b5050565b6060600280546102a590610a26565b80601f01602080910402602001604051908101604052809291908181526020018280546102d190610a26565b801561031e5780601f106102f35761010080835404028352916020019161031e565b820191906000526020600020905b81548152906001019060200180831161030157829003601f168201915b5050505050905090565b60606004805461033790610a26565b80601f016020809104026020016040519081016040528092919081815260200182805461036390610a26565b80156103b05780601f10610385576101008083540402835291602001916103b0565b820191906000526020600020905b81548152906001019060200180831161039357829003601f168201915b5050505050905090565b6060600080546103c990610a26565b80601f01602080910402602001604051908101604052809291908181526020018280546103f590610a26565b80156104425780601f1061041757610100808354040283529160200191610442565b820191906000526020600020905b81548152906001019060200180831161042557829003601f168201915b5050505050905090565b8060019080519060200190610462929190610658565b5050565b806000908051906020019061047c929190610658565b5050565b8460009080519060200190610496929190610658565b5083600190805190602001906104ad929190610658565b5082600290805190602001906104c4929190610658565b5081600360006101000a81548160ff02191690831515021790555080600590805190602001906104f5929190610658565b505050505050565b80600360006101000a81548160ff02191690831515021790555050565b60606001805461052990610a26565b80601f016020809104026020016040519081016040528092919081815260200182805461055590610a26565b80156105a25780601f10610577576101008083540402835291602001916105a2565b820191906000526020600020905b81548152906001019060200180831161058557829003601f168201915b5050505050905090565b80600290805190602001906105c2929190610658565b5050565b6060600580546105d590610a26565b80601f016020809104026020016040519081016040528092919081815260200182805461060190610a26565b801561064e5780601f106106235761010080835404028352916020019161064e565b820191906000526020600020905b81548152906001019060200180831161063157829003601f168201915b5050505050905090565b82805461066490610a26565b90600052602060002090601f01602090048101928261068657600085556106cd565b82601f1061069f57805160ff19168380011785556106cd565b828001600101855582156106cd579182015b828111156106cc5782518255916020019190600101906106b1565b5b5090506106da91906106de565b5090565b5b808211156106f75760008160009055506001016106df565b5090565b600061070e6107098461098b565b610966565b90508281526020810184848401111561072a57610729610aec565b5b6107358482856109e4565b509392505050565b60008135905061074c81610b0c565b92915050565b600082601f83011261076757610766610ae7565b5b81356107778482602086016106fb565b91505092915050565b60006020828403121561079657610795610af6565b5b60006107a48482850161073d565b91505092915050565b6000602082840312156107c3576107c2610af6565b5b600082013567ffffffffffffffff8111156107e1576107e0610af1565b5b6107ed84828501610752565b91505092915050565b600080600080600060a0868803121561081257610811610af6565b5b600086013567ffffffffffffffff8111156108305761082f610af1565b5b61083c88828901610752565b955050602086013567ffffffffffffffff81111561085d5761085c610af1565b5b61086988828901610752565b945050604086013567ffffffffffffffff81111561088a57610889610af1565b5b61089688828901610752565b93505060606108a78882890161073d565b925050608086013567ffffffffffffffff8111156108c8576108c7610af1565b5b6108d488828901610752565b9150509295509295909350565b6108ea816109d8565b82525050565b60006108fb826109bc565b61090581856109c7565b93506109158185602086016109f3565b61091e81610afb565b840191505092915050565b600060208201905061093e60008301846108e1565b92915050565b6000602082019050818103600083015261095e81846108f0565b905092915050565b6000610970610981565b905061097c8282610a58565b919050565b6000604051905090565b600067ffffffffffffffff8211156109a6576109a5610ab8565b5b6109af82610afb565b9050602081019050919050565b600081519050919050565b600082825260208201905092915050565b60008115159050919050565b82818337600083830152505050565b60005b83811015610a115780820151818401526020810190506109f6565b83811115610a20576000848401525b50505050565b60006002820490506001821680610a3e57607f821691505b60208210811415610a5257610a51610a89565b5b50919050565b610a6182610afb565b810181811067ffffffffffffffff82111715610a8057610a7f610ab8565b5b80604052505050565b7f4e487b7100000000000000000000000000000000000000000000000000000000600052602260045260246000fd5b7f4e487b7100000000000000000000000000000000000000000000000000000000600052604160045260246000fd5b600080fd5b600080fd5b600080fd5b600080fd5b6000601f19601f8301169050919050565b610b15816109d8565b8114610b2057600080fd5b5056fea26469706673582212206c60f6faa4ea770e525f5c38ba28c589377be9ca4f7c951ccac1741d5a99df2f64736f6c63430008070033",
			"opcodes": "PUSH1 0x80 PUSH1 0x40 MSTORE CALLVALUE DUP1 ISZERO PUSH3 0x11 JUMPI PUSH1 0x0 DUP1 REVERT JUMPDEST POP PUSH1 0x40 MLOAD PUSH3 0x1069 CODESIZE SUB DUP1 PUSH3 0x1069 DUP4 CODECOPY DUP2 DUP2 ADD PUSH1 0x40 MSTORE DUP2 ADD SWAP1 PUSH3 0x37 SWAP2 SWAP1 PUSH3 0x21F JUMP JUMPDEST DUP6 PUSH1 0x0 SWAP1 DUP1 MLOAD SWAP1 PUSH1 0x20 ADD SWAP1 PUSH3 0x4F SWAP3 SWAP2 SWAP1 PUSH3 0xDA JUMP JUMPDEST POP DUP5 PUSH1 0x1 SWAP1 DUP1 MLOAD SWAP1 PUSH1 0x20 ADD SWAP1 PUSH3 0x68 SWAP3 SWAP2 SWAP1 PUSH3 0xDA JUMP JUMPDEST POP DUP4 PUSH1 0x2 SWAP1 DUP1 MLOAD SWAP1 PUSH1 0x20 ADD SWAP1 PUSH3 0x81 SWAP3 SWAP2 SWAP1 PUSH3 0xDA JUMP JUMPDEST POP DUP3 PUSH1 0x3 PUSH1 0x0 PUSH2 0x100 EXP DUP2 SLOAD DUP2 PUSH1 0xFF MUL NOT AND SWAP1 DUP4 ISZERO ISZERO MUL OR SWAP1 SSTORE POP DUP2 PUSH1 0x4 SWAP1 DUP1 MLOAD SWAP1 PUSH1 0x20 ADD SWAP1 PUSH3 0xB4 SWAP3 SWAP2 SWAP1 PUSH3 0xDA JUMP JUMPDEST POP DUP1 PUSH1 0x5 SWAP1 DUP1 MLOAD SWAP1 PUSH1 0x20 ADD SWAP1 PUSH3 0xCD SWAP3 SWAP2 SWAP1 PUSH3 0xDA JUMP JUMPDEST POP POP POP POP POP POP POP PUSH3 0x500 JUMP JUMPDEST DUP3 DUP1 SLOAD PUSH3 0xE8 SWAP1 PUSH3 0x3F7 JUMP JUMPDEST SWAP1 PUSH1 0x0 MSTORE PUSH1 0x20 PUSH1 0x0 KECCAK256 SWAP1 PUSH1 0x1F ADD PUSH1 0x20 SWAP1 DIV DUP2 ADD SWAP3 DUP3 PUSH3 0x10C JUMPI PUSH1 0x0 DUP6 SSTORE PUSH3 0x158 JUMP JUMPDEST DUP3 PUSH1 0x1F LT PUSH3 0x127 JUMPI DUP1 MLOAD PUSH1 0xFF NOT AND DUP4 DUP1 ADD OR DUP6 SSTORE PUSH3 0x158 JUMP JUMPDEST DUP3 DUP1 ADD PUSH1 0x1 ADD DUP6 SSTORE DUP3 ISZERO PUSH3 0x158 JUMPI SWAP2 DUP3 ADD JUMPDEST DUP3 DUP2 GT ISZERO PUSH3 0x157 JUMPI DUP3 MLOAD DUP3 SSTORE SWAP2 PUSH1 0x20 ADD SWAP2 SWAP1 PUSH1 0x1 ADD SWAP1 PUSH3 0x13A JUMP JUMPDEST JUMPDEST POP SWAP1 POP PUSH3 0x167 SWAP2 SWAP1 PUSH3 0x16B JUMP JUMPDEST POP SWAP1 JUMP JUMPDEST JUMPDEST DUP1 DUP3 GT ISZERO PUSH3 0x186 JUMPI PUSH1 0x0 DUP2 PUSH1 0x0 SWAP1 SSTORE POP PUSH1 0x1 ADD PUSH3 0x16C JUMP JUMPDEST POP SWAP1 JUMP JUMPDEST PUSH1 0x0 PUSH3 0x1A1 PUSH3 0x19B DUP5 PUSH3 0x37F JUMP JUMPDEST PUSH3 0x356 JUMP JUMPDEST SWAP1 POP DUP3 DUP2 MSTORE PUSH1 0x20 DUP2 ADD DUP5 DUP5 DUP5 ADD GT ISZERO PUSH3 0x1C0 JUMPI PUSH3 0x1BF PUSH3 0x4C6 JUMP JUMPDEST JUMPDEST PUSH3 0x1CD DUP5 DUP3 DUP6 PUSH3 0x3C1 JUMP JUMPDEST POP SWAP4 SWAP3 POP POP POP JUMP JUMPDEST PUSH1 0x0 DUP2 MLOAD SWAP1 POP PUSH3 0x1E6 DUP2 PUSH3 0x4E6 JUMP JUMPDEST SWAP3 SWAP2 POP POP JUMP JUMPDEST PUSH1 0x0 DUP3 PUSH1 0x1F DUP4 ADD SLT PUSH3 0x204 JUMPI PUSH3 0x203 PUSH3 0x4C1 JUMP JUMPDEST JUMPDEST DUP2 MLOAD PUSH3 0x216 DUP5 DUP3 PUSH1 0x20 DUP7 ADD PUSH3 0x18A JUMP JUMPDEST SWAP2 POP POP SWAP3 SWAP2 POP POP JUMP JUMPDEST PUSH1 0x0 DUP1 PUSH1 0x0 DUP1 PUSH1 0x0 DUP1 PUSH1 0xC0 DUP8 DUP10 SUB SLT ISZERO PUSH3 0x23F JUMPI PUSH3 0x23E PUSH3 0x4D0 JUMP JUMPDEST JUMPDEST PUSH1 0x0 DUP8 ADD MLOAD PUSH8 0xFFFFFFFFFFFFFFFF DUP2 GT ISZERO PUSH3 0x260 JUMPI PUSH3 0x25F PUSH3 0x4CB JUMP JUMPDEST JUMPDEST PUSH3 0x26E DUP10 DUP3 DUP11 ADD PUSH3 0x1EC JUMP JUMPDEST SWAP7 POP POP PUSH1 0x20 DUP8 ADD MLOAD PUSH8 0xFFFFFFFFFFFFFFFF DUP2 GT ISZERO PUSH3 0x292 JUMPI PUSH3 0x291 PUSH3 0x4CB JUMP JUMPDEST JUMPDEST PUSH3 0x2A0 DUP10 DUP3 DUP11 ADD PUSH3 0x1EC JUMP JUMPDEST SWAP6 POP POP PUSH1 0x40 DUP8 ADD MLOAD PUSH8 0xFFFFFFFFFFFFFFFF DUP2 GT ISZERO PUSH3 0x2C4 JUMPI PUSH3 0x2C3 PUSH3 0x4CB JUMP JUMPDEST JUMPDEST PUSH3 0x2D2 DUP10 DUP3 DUP11 ADD PUSH3 0x1EC JUMP JUMPDEST SWAP5 POP POP PUSH1 0x60 PUSH3 0x2E5 DUP10 DUP3 DUP11 ADD PUSH3 0x1D5 JUMP JUMPDEST SWAP4 POP POP PUSH1 0x80 DUP8 ADD MLOAD PUSH8 0xFFFFFFFFFFFFFFFF DUP2 GT ISZERO PUSH3 0x309 JUMPI PUSH3 0x308 PUSH3 0x4CB JUMP JUMPDEST JUMPDEST PUSH3 0x317 DUP10 DUP3 DUP11 ADD PUSH3 0x1EC JUMP JUMPDEST SWAP3 POP POP PUSH1 0xA0 DUP8 ADD MLOAD PUSH8 0xFFFFFFFFFFFFFFFF DUP2 GT ISZERO PUSH3 0x33B JUMPI PUSH3 0x33A PUSH3 0x4CB JUMP JUMPDEST JUMPDEST PUSH3 0x349 DUP10 DUP3 DUP11 ADD PUSH3 0x1EC JUMP JUMPDEST SWAP2 POP POP SWAP3 SWAP6 POP SWAP3 SWAP6 POP SWAP3 SWAP6 JUMP JUMPDEST PUSH1 0x0 PUSH3 0x362 PUSH3 0x375 JUMP JUMPDEST SWAP1 POP PUSH3 0x370 DUP3 DUP3 PUSH3 0x42D JUMP JUMPDEST SWAP2 SWAP1 POP JUMP JUMPDEST PUSH1 0x0 PUSH1 0x40 MLOAD SWAP1 POP SWAP1 JUMP JUMPDEST PUSH1 0x0 PUSH8 0xFFFFFFFFFFFFFFFF DUP3 GT ISZERO PUSH3 0x39D JUMPI PUSH3 0x39C PUSH3 0x492 JUMP JUMPDEST JUMPDEST PUSH3 0x3A8 DUP3 PUSH3 0x4D5 JUMP JUMPDEST SWAP1 POP PUSH1 0x20 DUP2 ADD SWAP1 POP SWAP2 SWAP1 POP JUMP JUMPDEST PUSH1 0x0 DUP2 ISZERO ISZERO SWAP1 POP SWAP2 SWAP1 POP JUMP JUMPDEST PUSH1 0x0 JUMPDEST DUP4 DUP2 LT ISZERO PUSH3 0x3E1 JUMPI DUP1 DUP3 ADD MLOAD DUP2 DUP5 ADD MSTORE PUSH1 0x20 DUP2 ADD SWAP1 POP PUSH3 0x3C4 JUMP JUMPDEST DUP4 DUP2 GT ISZERO PUSH3 0x3F1 JUMPI PUSH1 0x0 DUP5 DUP5 ADD MSTORE JUMPDEST POP POP POP POP JUMP JUMPDEST PUSH1 0x0 PUSH1 0x2 DUP3 DIV SWAP1 POP PUSH1 0x1 DUP3 AND DUP1 PUSH3 0x410 JUMPI PUSH1 0x7F DUP3 AND SWAP2 POP JUMPDEST PUSH1 0x20 DUP3 LT DUP2 EQ ISZERO PUSH3 0x427 JUMPI PUSH3 0x426 PUSH3 0x463 JUMP JUMPDEST JUMPDEST POP SWAP2 SWAP1 POP JUMP JUMPDEST PUSH3 0x438 DUP3 PUSH3 0x4D5 JUMP JUMPDEST DUP2 ADD DUP2 DUP2 LT PUSH8 0xFFFFFFFFFFFFFFFF DUP3 GT OR ISZERO PUSH3 0x45A JUMPI PUSH3 0x459 PUSH3 0x492 JUMP JUMPDEST JUMPDEST DUP1 PUSH1 0x40 MSTORE POP POP POP JUMP JUMPDEST PUSH32 0x4E487B7100000000000000000000000000000000000000000000000000000000 PUSH1 0x0 MSTORE PUSH1 0x22 PUSH1 0x4 MSTORE PUSH1 0x24 PUSH1 0x0 REVERT JUMPDEST PUSH32 0x4E487B7100000000000000000000000000000000000000000000000000000000 PUSH1 0x0 MSTORE PUSH1 0x41 PUSH1 0x4 MSTORE PUSH1 0x24 PUSH1 0x0 REVERT JUMPDEST PUSH1 0x0 DUP1 REVERT JUMPDEST PUSH1 0x0 DUP1 REVERT JUMPDEST PUSH1 0x0 DUP1 REVERT JUMPDEST PUSH1 0x0 DUP1 REVERT JUMPDEST PUSH1 0x0 PUSH1 0x1F NOT PUSH1 0x1F DUP4 ADD AND SWAP1 POP SWAP2 SWAP1 POP JUMP JUMPDEST PUSH3 0x4F1 DUP2 PUSH3 0x3B5 JUMP JUMPDEST DUP2 EQ PUSH3 0x4FD JUMPI PUSH1 0x0 DUP1 REVERT JUMPDEST POP JUMP JUMPDEST PUSH2 0xB59 DUP1 PUSH3 0x510 PUSH1 0x0 CODECOPY PUSH1 0x0 RETURN INVALID PUSH1 0x80 PUSH1 0x40 MSTORE CALLVALUE DUP1 ISZERO PUSH2 0x10 JUMPI PUSH1 0x0 DUP1 REVERT JUMPDEST POP PUSH1 0x4 CALLDATASIZE LT PUSH2 0xCE JUMPI PUSH1 0x0 CALLDATALOAD PUSH1 0xE0 SHR DUP1 PUSH4 0x7FD8454B GT PUSH2 0x8C JUMPI DUP1 PUSH4 0xACEC338A GT PUSH2 0x66 JUMPI DUP1 PUSH4 0xACEC338A EQ PUSH2 0x1D7 JUMPI DUP1 PUSH4 0xAE7B6BD9 EQ PUSH2 0x1F3 JUMPI DUP1 PUSH4 0xAF14363F EQ PUSH2 0x211 JUMPI DUP1 PUSH4 0xEA60994E EQ PUSH2 0x22D JUMPI PUSH2 0xCE JUMP JUMPDEST DUP1 PUSH4 0x7FD8454B EQ PUSH2 0x183 JUMPI DUP1 PUSH4 0x91231EAB EQ PUSH2 0x19F JUMPI DUP1 PUSH4 0xAB990CBA EQ PUSH2 0x1BB JUMPI PUSH2 0xCE JUMP JUMPDEST DUP1 PUSH3 0x9EBB10 EQ PUSH2 0xD3 JUMPI DUP1 PUSH4 0x932A1AA EQ PUSH2 0xF1 JUMPI DUP1 PUSH4 0x2E25FA47 EQ PUSH2 0x10D JUMPI DUP1 PUSH4 0x55B72F38 EQ PUSH2 0x129 JUMPI DUP1 PUSH4 0x6B2B1AB9 EQ PUSH2 0x147 JUMPI DUP1 PUSH4 0x72D7E3DA EQ PUSH2 0x165 JUMPI JUMPDEST PUSH1 0x0 DUP1 REVERT JUMPDEST PUSH2 0xDB PUSH2 0x24B JUMP JUMPDEST PUSH1 0x40 MLOAD PUSH2 0xE8 SWAP2 SWAP1 PUSH2 0x929 JUMP JUMPDEST PUSH1 0x40 MLOAD DUP1 SWAP2 SUB SWAP1 RETURN JUMPDEST PUSH2 0x10B PUSH1 0x4 DUP1 CALLDATASIZE SUB DUP2 ADD SWAP1 PUSH2 0x106 SWAP2 SWAP1 PUSH2 0x7AD JUMP JUMPDEST PUSH2 0x262 JUMP JUMPDEST STOP JUMPDEST PUSH2 0x127 PUSH1 0x4 DUP1 CALLDATASIZE SUB DUP2 ADD SWAP1 PUSH2 0x122 SWAP2 SWAP1 PUSH2 0x7AD JUMP JUMPDEST PUSH2 0x27C JUMP JUMPDEST STOP JUMPDEST PUSH2 0x131 PUSH2 0x296 JUMP JUMPDEST PUSH1 0x40 MLOAD PUSH2 0x13E SWAP2 SWAP1 PUSH2 0x944 JUMP JUMPDEST PUSH1 0x40 MLOAD DUP1 SWAP2 SUB SWAP1 RETURN JUMPDEST PUSH2 0x14F PUSH2 0x328 JUMP JUMPDEST PUSH1 0x40 MLOAD PUSH2 0x15C SWAP2 SWAP1 PUSH2 0x944 JUMP JUMPDEST PUSH1 0x40 MLOAD DUP1 SWAP2 SUB SWAP1 RETURN JUMPDEST PUSH2 0x16D PUSH2 0x3BA JUMP JUMPDEST PUSH1 0x40 MLOAD PUSH2 0x17A SWAP2 SWAP1 PUSH2 0x944 JUMP JUMPDEST PUSH1 0x40 MLOAD DUP1 SWAP2 SUB SWAP1 RETURN JUMPDEST PUSH2 0x19D PUSH1 0x4 DUP1 CALLDATASIZE SUB DUP2 ADD SWAP1 PUSH2 0x198 SWAP2 SWAP1 PUSH2 0x7AD JUMP JUMPDEST PUSH2 0x44C JUMP JUMPDEST STOP JUMPDEST PUSH2 0x1B9 PUSH1 0x4 DUP1 CALLDATASIZE SUB DUP2 ADD SWAP1 PUSH2 0x1B4 SWAP2 SWAP1 PUSH2 0x7AD JUMP JUMPDEST PUSH2 0x466 JUMP JUMPDEST STOP JUMPDEST PUSH2 0x1D5 PUSH1 0x4 DUP1 CALLDATASIZE SUB DUP2 ADD SWAP1 PUSH2 0x1D0 SWAP2 SWAP1 PUSH2 0x7F6 JUMP JUMPDEST PUSH2 0x480 JUMP JUMPDEST STOP JUMPDEST PUSH2 0x1F1 PUSH1 0x4 DUP1 CALLDATASIZE SUB DUP2 ADD SWAP1 PUSH2 0x1EC SWAP2 SWAP1 PUSH2 0x780 JUMP JUMPDEST PUSH2 0x4FD JUMP JUMPDEST STOP JUMPDEST PUSH2 0x1FB PUSH2 0x51A JUMP JUMPDEST PUSH1 0x40 MLOAD PUSH2 0x208 SWAP2 SWAP1 PUSH2 0x944 JUMP JUMPDEST PUSH1 0x40 MLOAD DUP1 SWAP2 SUB SWAP1 RETURN JUMPDEST PUSH2 0x22B PUSH1 0x4 DUP1 CALLDATASIZE SUB DUP2 ADD SWAP1 PUSH2 0x226 SWAP2 SWAP1 PUSH2 0x7AD JUMP JUMPDEST PUSH2 0x5AC JUMP JUMPDEST STOP JUMPDEST PUSH2 0x235 PUSH2 0x5C6 JUMP JUMPDEST PUSH1 0x40 MLOAD PUSH2 0x242 SWAP2 SWAP1 PUSH2 0x944 JUMP JUMPDEST PUSH1 0x40 MLOAD DUP1 SWAP2 SUB SWAP1 RETURN JUMPDEST PUSH1 0x0 PUSH1 0x3 PUSH1 0x0 SWAP1 SLOAD SWAP1 PUSH2 0x100 EXP SWAP1 DIV PUSH1 0xFF AND SWAP1 POP SWAP1 JUMP JUMPDEST DUP1 PUSH1 0x5 SWAP1 DUP1 MLOAD SWAP1 PUSH1 0x20 ADD SWAP1 PUSH2 0x278 SWAP3 SWAP2 SWAP1 PUSH2 0x658 JUMP JUMPDEST POP POP JUMP JUMPDEST DUP1 PUSH1 0x4 SWAP1 DUP1 MLOAD SWAP1 PUSH1 0x20 ADD SWAP1 PUSH2 0x292 SWAP3 SWAP2 SWAP1 PUSH2 0x658 JUMP JUMPDEST POP POP JUMP JUMPDEST PUSH1 0x60 PUSH1 0x2 DUP1 SLOAD PUSH2 0x2A5 SWAP1 PUSH2 0xA26 JUMP JUMPDEST DUP1 PUSH1 0x1F ADD PUSH1 0x20 DUP1 SWAP2 DIV MUL PUSH1 0x20 ADD PUSH1 0x40 MLOAD SWAP1 DUP2 ADD PUSH1 0x40 MSTORE DUP1 SWAP3 SWAP2 SWAP1 DUP2 DUP2 MSTORE PUSH1 0x20 ADD DUP3 DUP1 SLOAD PUSH2 0x2D1 SWAP1 PUSH2 0xA26 JUMP JUMPDEST DUP1 ISZERO PUSH2 0x31E JUMPI DUP1 PUSH1 0x1F LT PUSH2 0x2F3 JUMPI PUSH2 0x100 DUP1 DUP4 SLOAD DIV MUL DUP4 MSTORE SWAP2 PUSH1 0x20 ADD SWAP2 PUSH2 0x31E JUMP JUMPDEST DUP3 ADD SWAP2 SWAP1 PUSH1 0x0 MSTORE PUSH1 0x20 PUSH1 0x0 KECCAK256 SWAP1 JUMPDEST DUP2 SLOAD DUP2 MSTORE SWAP1 PUSH1 0x1 ADD SWAP1 PUSH1 0x20 ADD DUP1 DUP4 GT PUSH2 0x301 JUMPI DUP3 SWAP1 SUB PUSH1 0x1F AND DUP3 ADD SWAP2 JUMPDEST POP POP POP POP POP SWAP1 POP SWAP1 JUMP JUMPDEST PUSH1 0x60 PUSH1 0x4 DUP1 SLOAD PUSH2 0x337 SWAP1 PUSH2 0xA26 JUMP JUMPDEST DUP1 PUSH1 0x1F ADD PUSH1 0x20 DUP1 SWAP2 DIV MUL PUSH1 0x20 ADD PUSH1 0x40 MLOAD SWAP1 DUP2 ADD PUSH1 0x40 MSTORE DUP1 SWAP3 SWAP2 SWAP1 DUP2 DUP2 MSTORE PUSH1 0x20 ADD DUP3 DUP1 SLOAD PUSH2 0x363 SWAP1 PUSH2 0xA26 JUMP JUMPDEST DUP1 ISZERO PUSH2 0x3B0 JUMPI DUP1 PUSH1 0x1F LT PUSH2 0x385 JUMPI PUSH2 0x100 DUP1 DUP4 SLOAD DIV MUL DUP4 MSTORE SWAP2 PUSH1 0x20 ADD SWAP2 PUSH2 0x3B0 JUMP JUMPDEST DUP3 ADD SWAP2 SWAP1 PUSH1 0x0 MSTORE PUSH1 0x20 PUSH1 0x0 KECCAK256 SWAP1 JUMPDEST DUP2 SLOAD DUP2 MSTORE SWAP1 PUSH1 0x1 ADD SWAP1 PUSH1 0x20 ADD DUP1 DUP4 GT PUSH2 0x393 JUMPI DUP3 SWAP1 SUB PUSH1 0x1F AND DUP3 ADD SWAP2 JUMPDEST POP POP POP POP POP SWAP1 POP SWAP1 JUMP JUMPDEST PUSH1 0x60 PUSH1 0x0 DUP1 SLOAD PUSH2 0x3C9 SWAP1 PUSH2 0xA26 JUMP JUMPDEST DUP1 PUSH1 0x1F ADD PUSH1 0x20 DUP1 SWAP2 DIV MUL PUSH1 0x20 ADD PUSH1 0x40 MLOAD SWAP1 DUP2 ADD PUSH1 0x40 MSTORE DUP1 SWAP3 SWAP2 SWAP1 DUP2 DUP2 MSTORE PUSH1 0x20 ADD DUP3 DUP1 SLOAD PUSH2 0x3F5 SWAP1 PUSH2 0xA26 JUMP JUMPDEST DUP1 ISZERO PUSH2 0x442 JUMPI DUP1 PUSH1 0x1F LT PUSH2 0x417 JUMPI PUSH2 0x100 DUP1 DUP4 SLOAD DIV MUL DUP4 MSTORE SWAP2 PUSH1 0x20 ADD SWAP2 PUSH2 0x442 JUMP JUMPDEST DUP3 ADD SWAP2 SWAP1 PUSH1 0x0 MSTORE PUSH1 0x20 PUSH1 0x0 KECCAK256 SWAP1 JUMPDEST DUP2 SLOAD DUP2 MSTORE SWAP1 PUSH1 0x1 ADD SWAP1 PUSH1 0x20 ADD DUP1 DUP4 GT PUSH2 0x425 JUMPI DUP3 SWAP1 SUB PUSH1 0x1F AND DUP3 ADD SWAP2 JUMPDEST POP POP POP POP POP SWAP1 POP SWAP1 JUMP JUMPDEST DUP1 PUSH1 0x1 SWAP1 DUP1 MLOAD SWAP1 PUSH1 0x20 ADD SWAP1 PUSH2 0x462 SWAP3 SWAP2 SWAP1 PUSH2 0x658 JUMP JUMPDEST POP POP JUMP JUMPDEST DUP1 PUSH1 0x0 SWAP1 DUP1 MLOAD SWAP1 PUSH1 0x20 ADD SWAP1 PUSH2 0x47C SWAP3 SWAP2 SWAP1 PUSH2 0x658 JUMP JUMPDEST POP POP JUMP JUMPDEST DUP5 PUSH1 0x0 SWAP1 DUP1 MLOAD SWAP1 PUSH1 0x20 ADD SWAP1 PUSH2 0x496 SWAP3 SWAP2 SWAP1 PUSH2 0x658 JUMP JUMPDEST POP DUP4 PUSH1 0x1 SWAP1 DUP1 MLOAD SWAP1 PUSH1 0x20 ADD SWAP1 PUSH2 0x4AD SWAP3 SWAP2 SWAP1 PUSH2 0x658 JUMP JUMPDEST POP DUP3 PUSH1 0x2 SWAP1 DUP1 MLOAD SWAP1 PUSH1 0x20 ADD SWAP1 PUSH2 0x4C4 SWAP3 SWAP2 SWAP1 PUSH2 0x658 JUMP JUMPDEST POP DUP2 PUSH1 0x3 PUSH1 0x0 PUSH2 0x100 EXP DUP2 SLOAD DUP2 PUSH1 0xFF MUL NOT AND SWAP1 DUP4 ISZERO ISZERO MUL OR SWAP1 SSTORE POP DUP1 PUSH1 0x5 SWAP1 DUP1 MLOAD SWAP1 PUSH1 0x20 ADD SWAP1 PUSH2 0x4F5 SWAP3 SWAP2 SWAP1 PUSH2 0x658 JUMP JUMPDEST POP POP POP POP POP POP JUMP JUMPDEST DUP1 PUSH1 0x3 PUSH1 0x0 PUSH2 0x100 EXP DUP2 SLOAD DUP2 PUSH1 0xFF MUL NOT AND SWAP1 DUP4 ISZERO ISZERO MUL OR SWAP1 SSTORE POP POP JUMP JUMPDEST PUSH1 0x60 PUSH1 0x1 DUP1 SLOAD PUSH2 0x529 SWAP1 PUSH2 0xA26 JUMP JUMPDEST DUP1 PUSH1 0x1F ADD PUSH1 0x20 DUP1 SWAP2 DIV MUL PUSH1 0x20 ADD PUSH1 0x40 MLOAD SWAP1 DUP2 ADD PUSH1 0x40 MSTORE DUP1 SWAP3 SWAP2 SWAP1 DUP2 DUP2 MSTORE PUSH1 0x20 ADD DUP3 DUP1 SLOAD PUSH2 0x555 SWAP1 PUSH2 0xA26 JUMP JUMPDEST DUP1 ISZERO PUSH2 0x5A2 JUMPI DUP1 PUSH1 0x1F LT PUSH2 0x577 JUMPI PUSH2 0x100 DUP1 DUP4 SLOAD DIV MUL DUP4 MSTORE SWAP2 PUSH1 0x20 ADD SWAP2 PUSH2 0x5A2 JUMP JUMPDEST DUP3 ADD SWAP2 SWAP1 PUSH1 0x0 MSTORE PUSH1 0x20 PUSH1 0x0 KECCAK256 SWAP1 JUMPDEST DUP2 SLOAD DUP2 MSTORE SWAP1 PUSH1 0x1 ADD SWAP1 PUSH1 0x20 ADD DUP1 DUP4 GT PUSH2 0x585 JUMPI DUP3 SWAP1 SUB PUSH1 0x1F AND DUP3 ADD SWAP2 JUMPDEST POP POP POP POP POP SWAP1 POP SWAP1 JUMP JUMPDEST DUP1 PUSH1 0x2 SWAP1 DUP1 MLOAD SWAP1 PUSH1 0x20 ADD SWAP1 PUSH2 0x5C2 SWAP3 SWAP2 SWAP1 PUSH2 0x658 JUMP JUMPDEST POP POP JUMP JUMPDEST PUSH1 0x60 PUSH1 0x5 DUP1 SLOAD PUSH2 0x5D5 SWAP1 PUSH2 0xA26 JUMP JUMPDEST DUP1 PUSH1 0x1F ADD PUSH1 0x20 DUP1 SWAP2 DIV MUL PUSH1 0x20 ADD PUSH1 0x40 MLOAD SWAP1 DUP2 ADD PUSH1 0x40 MSTORE DUP1 SWAP3 SWAP2 SWAP1 DUP2 DUP2 MSTORE PUSH1 0x20 ADD DUP3 DUP1 SLOAD PUSH2 0x601 SWAP1 PUSH2 0xA26 JUMP JUMPDEST DUP1 ISZERO PUSH2 0x64E JUMPI DUP1 PUSH1 0x1F LT PUSH2 0x623 JUMPI PUSH2 0x100 DUP1 DUP4 SLOAD DIV MUL DUP4 MSTORE SWAP2 PUSH1 0x20 ADD SWAP2 PUSH2 0x64E JUMP JUMPDEST DUP3 ADD SWAP2 SWAP1 PUSH1 0x0 MSTORE PUSH1 0x20 PUSH1 0x0 KECCAK256 SWAP1 JUMPDEST DUP2 SLOAD DUP2 MSTORE SWAP1 PUSH1 0x1 ADD SWAP1 PUSH1 0x20 ADD DUP1 DUP4 GT PUSH2 0x631 JUMPI DUP3 SWAP1 SUB PUSH1 0x1F AND DUP3 ADD SWAP2 JUMPDEST POP POP POP POP POP SWAP1 POP SWAP1 JUMP JUMPDEST DUP3 DUP1 SLOAD PUSH2 0x664 SWAP1 PUSH2 0xA26 JUMP JUMPDEST SWAP1 PUSH1 0x0 MSTORE PUSH1 0x20 PUSH1 0x0 KECCAK256 SWAP1 PUSH1 0x1F ADD PUSH1 0x20 SWAP1 DIV DUP2 ADD SWAP3 DUP3 PUSH2 0x686 JUMPI PUSH1 0x0 DUP6 SSTORE PUSH2 0x6CD JUMP JUMPDEST DUP3 PUSH1 0x1F LT PUSH2 0x69F JUMPI DUP1 MLOAD PUSH1 0xFF NOT AND DUP4 DUP1 ADD OR DUP6 SSTORE PUSH2 0x6CD JUMP JUMPDEST DUP3 DUP1 ADD PUSH1 0x1 ADD DUP6 SSTORE DUP3 ISZERO PUSH2 0x6CD JUMPI SWAP2 DUP3 ADD JUMPDEST DUP3 DUP2 GT ISZERO PUSH2 0x6CC JUMPI DUP3 MLOAD DUP3 SSTORE SWAP2 PUSH1 0x20 ADD SWAP2 SWAP1 PUSH1 0x1 ADD SWAP1 PUSH2 0x6B1 JUMP JUMPDEST JUMPDEST POP SWAP1 POP PUSH2 0x6DA SWAP2 SWAP1 PUSH2 0x6DE JUMP JUMPDEST POP SWAP1 JUMP JUMPDEST JUMPDEST DUP1 DUP3 GT ISZERO PUSH2 0x6F7 JUMPI PUSH1 0x0 DUP2 PUSH1 0x0 SWAP1 SSTORE POP PUSH1 0x1 ADD PUSH2 0x6DF JUMP JUMPDEST POP SWAP1 JUMP JUMPDEST PUSH1 0x0 PUSH2 0x70E PUSH2 0x709 DUP5 PUSH2 0x98B JUMP JUMPDEST PUSH2 0x966 JUMP JUMPDEST SWAP1 POP DUP3 DUP2 MSTORE PUSH1 0x20 DUP2 ADD DUP5 DUP5 DUP5 ADD GT ISZERO PUSH2 0x72A JUMPI PUSH2 0x729 PUSH2 0xAEC JUMP JUMPDEST JUMPDEST PUSH2 0x735 DUP5 DUP3 DUP6 PUSH2 0x9E4 JUMP JUMPDEST POP SWAP4 SWAP3 POP POP POP JUMP JUMPDEST PUSH1 0x0 DUP2 CALLDATALOAD SWAP1 POP PUSH2 0x74C DUP2 PUSH2 0xB0C JUMP JUMPDEST SWAP3 SWAP2 POP POP JUMP JUMPDEST PUSH1 0x0 DUP3 PUSH1 0x1F DUP4 ADD SLT PUSH2 0x767 JUMPI PUSH2 0x766 PUSH2 0xAE7 JUMP JUMPDEST JUMPDEST DUP2 CALLDATALOAD PUSH2 0x777 DUP5 DUP3 PUSH1 0x20 DUP7 ADD PUSH2 0x6FB JUMP JUMPDEST SWAP2 POP POP SWAP3 SWAP2 POP POP JUMP JUMPDEST PUSH1 0x0 PUSH1 0x20 DUP3 DUP5 SUB SLT ISZERO PUSH2 0x796 JUMPI PUSH2 0x795 PUSH2 0xAF6 JUMP JUMPDEST JUMPDEST PUSH1 0x0 PUSH2 0x7A4 DUP5 DUP3 DUP6 ADD PUSH2 0x73D JUMP JUMPDEST SWAP2 POP POP SWAP3 SWAP2 POP POP JUMP JUMPDEST PUSH1 0x0 PUSH1 0x20 DUP3 DUP5 SUB SLT ISZERO PUSH2 0x7C3 JUMPI PUSH2 0x7C2 PUSH2 0xAF6 JUMP JUMPDEST JUMPDEST PUSH1 0x0 DUP3 ADD CALLDATALOAD PUSH8 0xFFFFFFFFFFFFFFFF DUP2 GT ISZERO PUSH2 0x7E1 JUMPI PUSH2 0x7E0 PUSH2 0xAF1 JUMP JUMPDEST JUMPDEST PUSH2 0x7ED DUP5 DUP3 DUP6 ADD PUSH2 0x752 JUMP JUMPDEST SWAP2 POP POP SWAP3 SWAP2 POP POP JUMP JUMPDEST PUSH1 0x0 DUP1 PUSH1 0x0 DUP1 PUSH1 0x0 PUSH1 0xA0 DUP7 DUP9 SUB SLT ISZERO PUSH2 0x812 JUMPI PUSH2 0x811 PUSH2 0xAF6 JUMP JUMPDEST JUMPDEST PUSH1 0x0 DUP7 ADD CALLDATALOAD PUSH8 0xFFFFFFFFFFFFFFFF DUP2 GT ISZERO PUSH2 0x830 JUMPI PUSH2 0x82F PUSH2 0xAF1 JUMP JUMPDEST JUMPDEST PUSH2 0x83C DUP9 DUP3 DUP10 ADD PUSH2 0x752 JUMP JUMPDEST SWAP6 POP POP PUSH1 0x20 DUP7 ADD CALLDATALOAD PUSH8 0xFFFFFFFFFFFFFFFF DUP2 GT ISZERO PUSH2 0x85D JUMPI PUSH2 0x85C PUSH2 0xAF1 JUMP JUMPDEST JUMPDEST PUSH2 0x869 DUP9 DUP3 DUP10 ADD PUSH2 0x752 JUMP JUMPDEST SWAP5 POP POP PUSH1 0x40 DUP7 ADD CALLDATALOAD PUSH8 0xFFFFFFFFFFFFFFFF DUP2 GT ISZERO PUSH2 0x88A JUMPI PUSH2 0x889 PUSH2 0xAF1 JUMP JUMPDEST JUMPDEST PUSH2 0x896 DUP9 DUP3 DUP10 ADD PUSH2 0x752 JUMP JUMPDEST SWAP4 POP POP PUSH1 0x60 PUSH2 0x8A7 DUP9 DUP3 DUP10 ADD PUSH2 0x73D JUMP JUMPDEST SWAP3 POP POP PUSH1 0x80 DUP7 ADD CALLDATALOAD PUSH8 0xFFFFFFFFFFFFFFFF DUP2 GT ISZERO PUSH2 0x8C8 JUMPI PUSH2 0x8C7 PUSH2 0xAF1 JUMP JUMPDEST JUMPDEST PUSH2 0x8D4 DUP9 DUP3 DUP10 ADD PUSH2 0x752 JUMP JUMPDEST SWAP2 POP POP SWAP3 SWAP6 POP SWAP3 SWAP6 SWAP1 SWAP4 POP JUMP JUMPDEST PUSH2 0x8EA DUP2 PUSH2 0x9D8 JUMP JUMPDEST DUP3 MSTORE POP POP JUMP JUMPDEST PUSH1 0x0 PUSH2 0x8FB DUP3 PUSH2 0x9BC JUMP JUMPDEST PUSH2 0x905 DUP2 DUP6 PUSH2 0x9C7 JUMP JUMPDEST SWAP4 POP PUSH2 0x915 DUP2 DUP6 PUSH1 0x20 DUP7 ADD PUSH2 0x9F3 JUMP JUMPDEST PUSH2 0x91E DUP2 PUSH2 0xAFB JUMP JUMPDEST DUP5 ADD SWAP2 POP POP SWAP3 SWAP2 POP POP JUMP JUMPDEST PUSH1 0x0 PUSH1 0x20 DUP3 ADD SWAP1 POP PUSH2 0x93E PUSH1 0x0 DUP4 ADD DUP5 PUSH2 0x8E1 JUMP JUMPDEST SWAP3 SWAP2 POP POP JUMP JUMPDEST PUSH1 0x0 PUSH1 0x20 DUP3 ADD SWAP1 POP DUP2 DUP2 SUB PUSH1 0x0 DUP4 ADD MSTORE PUSH2 0x95E DUP2 DUP5 PUSH2 0x8F0 JUMP JUMPDEST SWAP1 POP SWAP3 SWAP2 POP POP JUMP JUMPDEST PUSH1 0x0 PUSH2 0x970 PUSH2 0x981 JUMP JUMPDEST SWAP1 POP PUSH2 0x97C DUP3 DUP3 PUSH2 0xA58 JUMP JUMPDEST SWAP2 SWAP1 POP JUMP JUMPDEST PUSH1 0x0 PUSH1 0x40 MLOAD SWAP1 POP SWAP1 JUMP JUMPDEST PUSH1 0x0 PUSH8 0xFFFFFFFFFFFFFFFF DUP3 GT ISZERO PUSH2 0x9A6 JUMPI PUSH2 0x9A5 PUSH2 0xAB8 JUMP JUMPDEST JUMPDEST PUSH2 0x9AF DUP3 PUSH2 0xAFB JUMP JUMPDEST SWAP1 POP PUSH1 0x20 DUP2 ADD SWAP1 POP SWAP2 SWAP1 POP JUMP JUMPDEST PUSH1 0x0 DUP2 MLOAD SWAP1 POP SWAP2 SWAP1 POP JUMP JUMPDEST PUSH1 0x0 DUP3 DUP3 MSTORE PUSH1 0x20 DUP3 ADD SWAP1 POP SWAP3 SWAP2 POP POP JUMP JUMPDEST PUSH1 0x0 DUP2 ISZERO ISZERO SWAP1 POP SWAP2 SWAP1 POP JUMP JUMPDEST DUP3 DUP2 DUP4 CALLDATACOPY PUSH1 0x0 DUP4 DUP4 ADD MSTORE POP POP POP JUMP JUMPDEST PUSH1 0x0 JUMPDEST DUP4 DUP2 LT ISZERO PUSH2 0xA11 JUMPI DUP1 DUP3 ADD MLOAD DUP2 DUP5 ADD MSTORE PUSH1 0x20 DUP2 ADD SWAP1 POP PUSH2 0x9F6 JUMP JUMPDEST DUP4 DUP2 GT ISZERO PUSH2 0xA20 JUMPI PUSH1 0x0 DUP5 DUP5 ADD MSTORE JUMPDEST POP POP POP POP JUMP JUMPDEST PUSH1 0x0 PUSH1 0x2 DUP3 DIV SWAP1 POP PUSH1 0x1 DUP3 AND DUP1 PUSH2 0xA3E JUMPI PUSH1 0x7F DUP3 AND SWAP2 POP JUMPDEST PUSH1 0x20 DUP3 LT DUP2 EQ ISZERO PUSH2 0xA52 JUMPI PUSH2 0xA51 PUSH2 0xA89 JUMP JUMPDEST JUMPDEST POP SWAP2 SWAP1 POP JUMP JUMPDEST PUSH2 0xA61 DUP3 PUSH2 0xAFB JUMP JUMPDEST DUP2 ADD DUP2 DUP2 LT PUSH8 0xFFFFFFFFFFFFFFFF DUP3 GT OR ISZERO PUSH2 0xA80 JUMPI PUSH2 0xA7F PUSH2 0xAB8 JUMP JUMPDEST JUMPDEST DUP1 PUSH1 0x40 MSTORE POP POP POP JUMP JUMPDEST PUSH32 0x4E487B7100000000000000000000000000000000000000000000000000000000 PUSH1 0x0 MSTORE PUSH1 0x22 PUSH1 0x4 MSTORE PUSH1 0x24 PUSH1 0x0 REVERT JUMPDEST PUSH32 0x4E487B7100000000000000000000000000000000000000000000000000000000 PUSH1 0x0 MSTORE PUSH1 0x41 PUSH1 0x4 MSTORE PUSH1 0x24 PUSH1 0x0 REVERT JUMPDEST PUSH1 0x0 DUP1 REVERT JUMPDEST PUSH1 0x0 DUP1 REVERT JUMPDEST PUSH1 0x0 DUP1 REVERT JUMPDEST PUSH1 0x0 DUP1 REVERT JUMPDEST PUSH1 0x0 PUSH1 0x1F NOT PUSH1 0x1F DUP4 ADD AND SWAP1 POP SWAP2 SWAP1 POP JUMP JUMPDEST PUSH2 0xB15 DUP2 PUSH2 0x9D8 JUMP JUMPDEST DUP2 EQ PUSH2 0xB20 JUMPI PUSH1 0x0 DUP1 REVERT JUMPDEST POP JUMP INVALID LOG2 PUSH5 0x6970667358 0x22 SLT KECCAK256 PUSH13 0x60F6FAA4EA770E525F5C38BA28 0xC5 DUP10 CALLDATACOPY PUSH28 0xE9CA4F7C951CCAC1741D5A99DF2F64736F6C63430008070033000000 "
		},
		"gasEstimates": {
			"creation": {
				"codeDepositCost": "581000",
				"executionCost": "infinite",
				"totalCost": "infinite"
			},
			"external": {
				"getActive()": "2480",
				"getFieldDescription()": "infinite",
				"getIDOwner()": "infinite",
				"getLatitude()": "infinite",
				"getLongitude()": "infinite",
				"getObservation()": "infinite",
				"setActive(bool)": "24701",
				"setFieldDescription(string)": "infinite",
				"setIDOwner(string)": "infinite",
				"setLatitude(string)": "infinite",
				"setLongitude(string)": "infinite",
				"setObservation(string)": "infinite",
				"setUpdate(string,string,string,bool,string)": "infinite"
			}
		},
		"methodIdentifiers": {
			"getActive()": "009ebb10",
			"getFieldDescription()": "72d7e3da",
			"getIDOwner()": "ea60994e",
			"getLatitude()": "ae7b6bd9",
			"getLongitude()": "55b72f38",
			"getObservation()": "6b2b1ab9",
			"setActive(bool)": "acec338a",
			"setFieldDescription(string)": "91231eab",
			"setIDOwner(string)": "0932a1aa",
			"setLatitude(string)": "7fd8454b",
			"setLongitude(string)": "af14363f",
			"setObservation(string)": "2e25fa47",
			"setUpdate(string,string,string,bool,string)": "ab990cba"
		}
	},
	"abi": [
		{
			"inputs": [
				{
					"internalType": "string",
					"name": "_fieldDescription",
					"type": "string"
				},
				{
					"internalType": "string",
					"name": "_latitude",
					"type": "string"
				},
				{
					"internalType": "string",
					"name": "_longitude",
					"type": "string"
				},
				{
					"internalType": "bool",
					"name": "_active",
					"type": "bool"
				},
				{
					"internalType": "string",
					"name": "_observation",
					"type": "string"
				},
				{
					"internalType": "string",
					"name": "_idOwner",
					"type": "string"
				}
			],
			"stateMutability": "nonpayable",
			"type": "constructor"
		},
		{
			"inputs": [],
			"name": "getActive",
			"outputs": [
				{
					"internalType": "bool",
					"name": "",
					"type": "bool"
				}
			],
			"stateMutability": "view",
			"type": "function"
		},
		{
			"inputs": [],
			"name": "getFieldDescription",
			"outputs": [
				{
					"internalType": "string",
					"name": "",
					"type": "string"
				}
			],
			"stateMutability": "view",
			"type": "function"
		},
		{
			"inputs": [],
			"name": "getIDOwner",
			"outputs": [
				{
					"internalType": "string",
					"name": "",
					"type": "string"
				}
			],
			"stateMutability": "view",
			"type": "function"
		},
		{
			"inputs": [],
			"name": "getLatitude",
			"outputs": [
				{
					"internalType": "string",
					"name": "",
					"type": "string"
				}
			],
			"stateMutability": "view",
			"type": "function"
		},
		{
			"inputs": [],
			"name": "getLongitude",
			"outputs": [
				{
					"internalType": "string",
					"name": "",
					"type": "string"
				}
			],
			"stateMutability": "view",
			"type": "function"
		},
		{
			"inputs": [],
			"name": "getObservation",
			"outputs": [
				{
					"internalType": "string",
					"name": "",
					"type": "string"
				}
			],
			"stateMutability": "view",
			"type": "function"
		},
		{
			"inputs": [
				{
					"internalType": "bool",
					"name": "_active",
					"type": "bool"
				}
			],
			"name": "setActive",
			"outputs": [],
			"stateMutability": "nonpayable",
			"type": "function"
		},
		{
			"inputs": [
				{
					"internalType": "string",
					"name": "_fieldDescription",
					"type": "string"
				}
			],
			"name": "setFieldDescription",
			"outputs": [],
			"stateMutability": "nonpayable",
			"type": "function"
		},
		{
			"inputs": [
				{
					"internalType": "string",
					"name": "_idOwner",
					"type": "string"
				}
			],
			"name": "setIDOwner",
			"outputs": [],
			"stateMutability": "nonpayable",
			"type": "function"
		},
		{
			"inputs": [
				{
					"internalType": "string",
					"name": "_latitude",
					"type": "string"
				}
			],
			"name": "setLatitude",
			"outputs": [],
			"stateMutability": "nonpayable",
			"type": "function"
		},
		{
			"inputs": [
				{
					"internalType": "string",
					"name": "_longitude",
					"type": "string"
				}
			],
			"name": "setLongitude",
			"outputs": [],
			"stateMutability": "nonpayable",
			"type": "function"
		},
		{
			"inputs": [
				{
					"internalType": "string",
					"name": "_observation",
					"type": "string"
				}
			],
			"name": "setObservation",
			"outputs": [],
			"stateMutability": "nonpayable",
			"type": "function"
		},
		{
			"inputs": [
				{
					"internalType": "string",
					"name": "_fieldDescription",
					"type": "string"
				},
				{
					"internalType": "string",
					"name": "_latitude",
					"type": "string"
				},
				{
					"internalType": "string",
					"name": "_longitude",
					"type": "string"
				},
				{
					"internalType": "bool",
					"name": "_active",
					"type": "bool"
				},
				{
					"internalType": "string",
					"name": "_idOwner",
					"type": "string"
				}
			],
			"name": "setUpdate",
			"outputs": [],
			"stateMutability": "nonpayable",
			"type": "function"
		}
	]
}